:020000040000FA
:0300000002083FB4
:10080000E490F80078E579048002F0A3D8FCD9FAE6
:1008100090FBE4AA82AB83904A7178B47901801589
:10082000E493A3AC82AD838A828B83F0A3AA82ABCC
:10083000838C828D83D8E9D9E71224600080FA7511
:10084000D0007581467541007542F802080043AE3C
:100850000222E5AE20E7FB22A2E792D65002F40482
:1008600030F70663F0FF05F0B3400384800384F49F
:100870000430D60563F0FF05F022E066701008A38F
:10088000E066700A08A3E066700408A3E06622C36D
:10089000E7960809E7960809E7960809E796A2D2BD
:1008A00065D03322C3E09608A3E09608A3E096083B
:1008B000A3E09622080808E630E711121085120816
:1008C000CC080808C64480C618181822181818E959
:1008D000799EC608CAC608CBC608CCC6C3702079A4
:1008E00096CACBCC7019798ECBCC70137986CC702C
:1008F0000EF9802ACA33CACB33CBCC33CC33193070
:10090000E7F2CCCBCA3350147004EA30E00DE4CAED
:100910003ACACB3BCBCC3CCC500209C3E913C6CC82
:10092000182313C6CB18C6CA18C6F92212096C20A0
:10093000F01430E72B74FFFCFBFA747F8022E4FC98
:10094000FBFA7480801AB48008BC00F2BB00EF8010
:100950000F50EBF9E4C39AFAE49BFBE49CFCE499A6
:10096000C6CC18C6CB18C6CA18C6F922E4C9C60830
:10097000CAC608CBC6D3330308CCC63392F0C3949F
:100980007F402E94184019C9B90704CACBCC225015
:1009900025C309CA33CACB33CBCC33CC33D9F422E9
:1009A000F4600DC9CCC313CB13CBCA13CAD9F6CC90
:1009B00022E4FCFBFA2214FCFBFA22E6C3331846BD
:1009C0001846184622E7C333194719471947221812
:1009D0001818E6084608700AE608C3337005E633BF
:1009E000F4220822191919E7094709700AE709C30F
:1009F000337005E733F4220922E6084608C313469C
:100A000008336002E633F422E7094709C3134709B4
:100A1000336002E733F4221209F9601B120A0860FE
:100A2000161209BB70071209C5600CB322C0D012A0
:100A300009C57005D0D022C32233D0D0501330E086
:100A4000EBC3E7960809E7960809E7960809E796D1
:100A50002220E0E4E6970809E6970809E6970809E6
:100A6000E69722001209F9604F120A086012E75453
:100A70008066F61209CF70111209C5703B09090989
:100A8000F4F618F618F618F6221209E47015120991
:100A9000BB08080860EAE6447FF618768018E4F69A
:100AA00018F6221209BB60161209C57012E4F60886
:100AB000F608F608E65480F609090918181822EA1B
:100AC000C0E0EBC0E0ECC0E0EDC0E0E687F0A4FBE6
:100AD000ACF008E687F0A42CFCE435F0FA1809E63F
:100AE00087F0A42C4B60027401CA35F0FCE433FBA0
:100AF00009E687F0D2F7A42CCB35F0FC1908E6877D
:100B0000F0A42BCC35F0FBE433FD0819E687F0D2D6
:100B1000E7A42C4ACB35F0CD3400FC09E687F0D2AF
:100B2000E7A42DCC35F0FDE433FA0918E687F0D2BE
:100B3000F7A42CCD35F0CA3400FC08E687F0D2E7E4
:100B4000D2F7A42ACC35F07A7E20E70B0ACB33CB40
:100B5000CD33CDCC33CC33CB3350147004ED30E0F7
:100B60000ED2F1E4CD3DCDCC3CCC3B5005DA05C2F4
:100B7000F1EB547FC63308E63392F0FBE73309E725
:100B800033C39A502D2B70190C0D4C4D701518064F
:100B9000E608C333700D20F10AA2F013F6E41880C2
:100BA0000B4024E4F630F002768018F618F618F6BA
:100BB0008024D33B14501074FFA2F013F6187680F3
:100BC000E418F618F6800FA2F013F618E63303F6D1
:100BD00018ECF618EDF6D0E0FDD0E0FCD0E0FBD04C
:100BE000E0FA22120A0860461209F9603DE96870CD
:100BF00008F618F618F618F622748067F7120C1724
:100C0000090909748067F7221209F9601D120A08A0
:100C10007005191919801A1209CF701F1209E4C33F
:100C20007003E667331919194007181818220808C5
:100C30000874FFF618F618F618F6221209E4601781
:100C40001209C5702192F01209BB7019501720F0DB
:100C500014080808090909E7F61819E7F61819E74A
:100C6000F61819E7F6221209BB60E6E869701F085A
:100C700008E62480F608E436F618547FB47F0CE6C4
:100C800054806007F6E418F618F622181822E9C610
:100C9000CC08C6CD08C6CE08C6CFC0E0E8C0E0EAA2
:100CA000C0E0EBC0E009E9F809E7FA09E7FBE6F97B
:100CB00018E6F8C3EC98ED99EE9AEBC2E7F5F0EF81
:100CC000C2E795F0500E600CEBCFFBEACEFAE9CD0F
:100CD000F9E8CCF8EAA2E7D2E7FAEB33FB13F5F038
:100CE000EEA2E7D2E7FEEF33FFC5F013A2E730E64E
:100CF00001B313C5F0C3C0E0C0F07F00C39BFB602D
:100D00005B9418600C401AD0E023F9D0E0F8020D93
:100D1000E68AF0E9486003D2F0E4AFF0FAF9F8802F
:100D20003BEB30E40D89F0EA6003D2F0E4AFF0F978
:100D3000CAF8EB30E30D88F0EF6002D2F0AFF0E4D8
:100D4000CAC9F8EB54076014FBC3EA13FAE913F9B4
:100D5000E813F8EF135002D2E0FFDBEDD0E0C0E083
:100D600030E739C3E49FFFF5F0EC98FC42F0ED99D1
:100D7000FD42F0EE9AFE42F0D0E0F9D0E0F8E5F066
:100D8000607AE923F9EE20E742D8028067C3EF33A7
:100D9000FFEC33FCED33FDEE33FE80EAEC28FCED96
:100DA00039FDEE3AFED0E023F9D0E0F84002801B96
:100DB000C3EE13FEED13FDEC13FCEF135002D2E073
:100DC000FF08B800067F7F74FF802EEF3350178C2A
:100DD000F020F00260100CBC000C0DBD00080EBE2F
:100DE000000408E860DFE933E813FFEE2313FE4F49
:100DF0004D4C8008E95480FFE4FEFDFCEE33EF33F8
:100E0000F47004FCFD7E80D0E0FBD0E0FAD0E0F886
:100E1000D0E0CFC618CEC618CDC618CCC6F922125F
:100E200009F9700418181822120A08700D74FFF6D8
:100E30001819F61819F61819F622E7548066F612F2
:100E400009BB700F1209C570F014F608F608F60811
:100E5000F680D11209C5700CF608F608768008E60F
:100E6000447F80EC1209E7700C1209D260BFE6548F
:100E700080F6E480BB1209D2700519191980A5E823
:100E800069700C763F18768018F618F6E8F922E6B5
:100E9000CDC0E018ECC0E0E633CD33CDD313F6E798
:100EA00019FCE7191933CC33C3947F400ECD9D5004
:100EB0002408E65480F6E418F6800FF4043D14503C
:100EC0001408E6447FF6187680E418F618F6D0E0A9
:100ED000FCD0E0FD22CCD313CCFD18E4C6CBC0E09F
:100EE00018E4C6CAC0E00808ED08C633E613F618D1
:100EF000E433C675F003C3CA97CA09CB97CB199CD4
:100F000040047D08802EBD0003020FC816B6FF0501
:100F10000606081618C3CA33CACB33CB33CA27CA4E
:100F200009CB37CB193CC37D08803E187D0820E7EC
:100F30005CC633C6CA33CACB33CB33DDF1D5F0EB55
:100F400030E77BCA97CA09CB974ACB199C406F4BB5
:100F50007025E620E0218066187D08C3CA97CA097B
:100F6000CB97CB199CD3C633C6CA33CACB33CB334A
:100F700050C9DDE7D5F0E1D3E4C636C608C636C6AB
:100F800008C636C608C636C61818188031C3CA97B0
:100F9000CA09CB97CB199CB34097C633C6CA33CA8C
:100FA000CB33CB33DD34D5F02EC6A2E0C640C8CA61
:100FB00027CA09CB37194A70BECB3CB480B90808A0
:100FC000E63308E633601F181818D0E0FAD0E0FBCB
:100FD000D0E0FCD0E0FD22187D08CA27CA09CB3733
:100FE000CB193CD3808013F618E4B67F11F618B6FF
:100FF000FF0EF618C60470D20808768080CAF6186C
:10100000F618F680C5080808EAC0E0EBC0E086F0F4
:10101000E7A4FA180986F0E7A42AFA180986F0E787
:10102000A42AFA180986F0E7A42AFA1986F0E7A498
:10103000FBE5F02AFA190886F0E7A42BFBE5F03A65
:10104000FA190886F0E7A42BFBE5F03AFA1818091C
:1010500086F0E7A4C5F02BFBE43AFA1908E7C5F0DF
:10106000C6A426F6E5F03BFBE43AFA1886F0E7A4BE
:10107000F6E5F00826F6E43B08F6E43A08F6D0E098
:10108000FBD0E0FA22181818E4C396F608E496F6A6
:1010900008E496F608E496F6226016080808C6C327
:1010A00013C618C613C618C613C618C613C6D5E08D
:1010B000EA22E026F608A3E036F608A3E036F608B2
:1010C000A3E036F622E026F008A3E036F008A3E01D
:1010D00036F008A3E036F022C3E0C696F608A3E097
:1010E000C696F608A3E0C696F608A3E0C696F622D2
:1010F000C3E096F008A3E096F008A3E096F008A3FA
:10110000E096F022E0F608A3E0F608A3E0F608A3D4
:10111000E0F622E6F008A3E6F008A3E6F008A3E66E
:10112000F022CAC0E0E6F0A308DAFAD0E0FA22C35F
:10113000E498F8E499F91211708026C3E49AFAE46D
:101140009BFBE920E7E9121170E498F8E499F92291
:10115000C3E498F8E499F9121170E498F8E499F965
:10116000C3E49AFAE49BFB22EB20E7CFE920E7E017
:10117000B90010BB0008E88AF084F8AAF022E4FB6A
:10118000C8FA22EB70227B10C833C8C933C9335068
:1011900007C39AC3DBF280069A50012ADBEAC83300
:1011A000F4C8C933F4C9FA2275F008E4C833C8C9D1
:1011B00033C933C99AC99B5004C92AC93BD5F0EC3D
:1011C000FBC833F4C8E4C9FA22600D08C6A2E713CD
:1011D000C618C613C6D5E0F322600C08C6C313C6F2
:1011E00018C613C6D5E0F422700422600D18C6C3D9
:1011F00033C608C633C6D5E0F418222541C0A8C2BC
:10120000AF40021542F541D0A822C0D02541C0A868
:10121000C2AF50020542F541D0A8D0D0222541F5F9
:1012200082C0A8C2AF40021542F541D0A8854283D2
:10123000222541F582E43542F58322E4732541C538
:1012400082C0E0E54234FFC583C0E0E541C395823A
:1012500024F9C0A8C2AF858342858241D0A8CEF0D0
:10126000A3E520F0A37821E608F0A3DEFAEFF0A3CF
:10127000E58124FBF8E608F0A3E608F0A30808E6F9
:1012800008F0A3E608F0A315811581D0E0FED0E0B8
:10129000F815811581E8C0E0EEC0E0228542838523
:1012A0004182E0A3FEE0A3F5207821E0A3F608DF69
:1012B000FAE0A3FFE0A3C0E0E0A3C0E0E0A3C0E049
:1012C000E0A3C0E085A8F0C2AF8582418583428556
:1012D000F0A8D083D0822274028000C0E0F404120F
:1012E000121DD0E012112222D083D082C5F0E493E7
:1012F000A3C5F0C395F0F5F0E493A3C395F04005C2
:10130000E5F0048001E475F002A42582F582E5F0A1
:101310003583F583E493A3C0E0E493C0E022D08357
:10132000D082CCC0E0E493A360061213481470FA94
:10133000E493A360061213671470FAD0E0FCE49300
:10134000A3C0E0E493C0E022C0E0E493A3D39C50A8
:1013500010E493A3C39C400AD0E0D0E0D0E0021395
:101360003BA3A3A3D0E022C0E0E493A36C7009D018
:10137000E0D0E0D0E002133BA3A3D0E022C082C0C3
:1013800083740149F5B37C10800C8A828B83E0F56D
:10139000B1A3AA82AB83EC1C70F0D083D0822280F0
:1013A0000100E5B3A2E350F92274F712123D89223D
:1013B000ECFEEDFF7409121231E0F8A3E0F9888227
:1013C0008983EAC4540FF5218015E5B2F0A3EB1B25
:1013D00070F812139F1521EE2410FEEF3400FFE584
:1013E000216016EEFAEFFBA92212137D7B0C80011F
:1013F00000EB1B70FB7B1080D57F0202129CC08229
:10140000C08390F876E054F0F0741390F875F0749F
:10141000DF90F86FF074D990F870F074F890F8716C
:10142000F0742590F872F0748090F873F074259041
:10143000F874F0741090F876F074F8F5D575D46FF0
:1014400090F87EE054F0F0741390F87DF074F8900A
:10145000F877F0744A90F878F074DF90F879F074C7
:10146000D990F87AF0742090F87BF0742390F87C8F
:10147000F0744090F87EF090F886E054F84408FA52
:10148000F0741290F885F090F883E0541FF074DF48
:1014900090F881F074AF90F882F0E490F883F074E3
:1014A000F890F884F0740F5A444090F886F074F87D
:1014B000F5D375D277D083D0822274F612123DEA2A
:1014C000FEEBFF8C218D22892312085275AB2AEF87
:1014D00090F87FF0EE90F880F090F883E054E0F020
:1014E000E52390F884F0AA21AB2274097821121127
:1014F000D9E521F5ADEBC313EA13F5AC53D1FBD21B
:10150000B875D60412084E79017F0302129CC0827E
:10151000C08390F888E4F0A3F07980FC121558D0CD
:1015200083D08222C082C083C2B890F887E0602650
:1015300090F888E02480F0A3E03400F0E490F8878D
:10154000F0C390F889E09480500C798090F888E09E
:10155000FCA3E012155880C7FD7A8A7BF812496D0A
:10156000798090F888E0FCA3E0FD7A8A7BF8121479
:10157000BAE990F887F0227A177BFF00DBFDDAF9F1
:10158000D9F52274F112123D7C19800F75F00AEC26
:10159000A429C0E0EC12165BD0E0F0EC1C70EDE981
:1015A000F5257526007527007528007C0090FBE462
:1015B00078211211047825792112100590FBE87822
:1015C000251210B2852521852622852723852824EA
:1015D0007410782112109974FF5521F8747F5522E8
:1015E000F97A197B001211708C23E523240AF8E4A0
:1015F00034F9F988828983E0FDEA240AFAE434F9AF
:10160000FB8A828B83E088828983F0ED8A828B83D8
:10161000F00CECC3941940957F0802129CC082C064
:10162000837B19EB1B8B82A882600C90DF06E0FAAB
:10163000E81216566A70EC75E10474012808E43467
:1016400000F97A197B00121168EA12165690DF062B
:10165000F0D083D0822212165BE022240AF582E4C5
:1016600034F9F5832274ED12123D892190FB4978FB
:101670002512110490FC4878291211047825792943
:10168000120A1750237525AE75264775270575284C
:101690004190F95B782912110478257929120E1FDF
:1016A00090FB497825121113E521C394F14003758D
:1016B00021F075220075230075240078211208CFCF
:1016C00090FB49782512110478217925120A637854
:1016D0002112092CA821C3E5229401400278FFE8D9
:1016E000F97F0C02129CC3EA9401EB1224444005DA
:1016F000EAF8EB8006C3E49AF8E49BF9E8FAE9FB20
:101700002279037C407DFC7A097BDF12496D2274CB
:10171000F812123DE9FEEAFF80057901121DDC9006
:10172000F53AE0641060F3121831539BFCE59B53CB
:10173000E9EF75911074326E700C90F9FEE0A2E141
:10174000500479198002EEF91247B7EF90DF06F0E6
:1017500074326E700590F9E4800390F9E0E090DF58
:101760002E12431DF090F9BDE090DF01F090F9BE1C
:10177000E090DF00F0439A01022BB4C082C083E9FD
:10178000FA90F9E5E0A2E6500479328002790C1271
:10179000170F021B01C082C08375D683E9601C90BD
:1017A000F9E5E0A2E6401490F9E3E0FA7932121785
:1017B0000F90F9E2E090DF05F080031217C1021BE1
:1017C0000190FAFFE0F912177B22C082C08375D620
:1017D0008312183179047AE07BFB12494AE490DFE6
:1017E00008F012170112182490F9E5E0A2E650055E
:1017F00090FAFF800390F9C7E0F9E990FAFFF01240
:10180000177B79067A1A7BFB12494A90FAF7E4F0C3
:10181000A3F0FA790112364312360C12184590FBE8
:1018200009021B007A837BF9790412137D12139F3E
:101830002275E10490FC0CE0243A122DD574F0F0EE
:101840002290FAFFF090FB23E02410122DD5E4F053
:10185000A3F02274F112123D75FD00758FFFE5F2C1
:1018600075F2FF7A00752101752200EA78211211C4
:10187000E8E52145F2F5F20AEAC3940840E775F479
:10188000C075FEDB75CB5075CC2475CE2475F12068
:1018900075F52079127AE27BFA12494A75F300E471
:1018A00090DF08F090F9C7E0F91215831213FE12C9
:1018B00017011217C1752100752200752380752448
:1018C0003F90F93F782512110478217925120E1FD7
:1018D00090FA17782112111343CB14E5CBD2B9D269
:1018E000A9439A01021A3AC082C08390FFFDE0FA30
:1018F00090FB0DE06A702390FA02E0FA601A90F90A
:10190000DEE0FBEAC39B5003EA8001EBFC8CCD9048
:10191000FB23E0241E1227A7D294021B0174F112AC
:10192000123D8A218B228C238D2490FB4D1227EDB2
:10193000782512110478257921120A631219787812
:101940002112110478257921120C08021A3274F13F
:1019500012123D8A218B228C238D2412197878252E
:1019600012110478257921120BE390FB4D1227ED1B
:101970007821121104021A2B90FB4D12274F22746A
:10198000F112123D8921752200740278211211E8AA
:10199000E52124ACF582E52234FAF5837821121191
:1019A0000478211208B490F93F78251211047821A7
:1019B0007925120A6390FB4F78251211047821795A
:1019C00025120A63AA21AB22AC23AD2412194E8042
:1019D0006974F112123D90FB4D1227ED782112111E
:1019E000047D018A828B8378251211047821792560
:1019F000120A638D25752600740278251211E8906D
:101A0000FB4DE02525FCA3E035268C82F583782567
:101A100012110478217925120C080DEDC3940440AD
:101A2000C2AA21AB22AC23AD24800F7825792112E4
:101A30000A63AA25AB26AC27AD287F0802129CC0FA
:101A400082C08379F27C007D5C7A237BF912496D38
:101A500090F923E064AA7004A3E064AA700E90FADF
:101A600013E064557004A3E06455602079F27C248F
:101A70007D4B7A237BF912496D12239D9003DCE0A4
:101A800090F9DEF09003DDE090F9DFF0E490FB14D4
:101A9000806EC082C08374FF90F9C7F090FAFF1285
:101AA00023AFC2E4F0D2E2F090F9FEE0C2E41223E8
:101AB000AF541FF0E490F9BFF079207C207DFC7AD0
:101AC000837BF912496D90F9BD74F01240D8790CFE
:101AD0007CD07D037A237BF912496D740190FB144D
:101AE000F01217CA801BC082C083C293741590FC89
:101AF00004F090F9AD12358690FA02E0F5CD800140
:101B0000F0D083D0822274F112123D90FB23E024A6
:101B10001E1223E37002A3E07045121DB17001E9AB
:101B2000603D74FF68700374FF69603390FC04E0EB
:101B30006417702B90FAD41223C2502B90FB6C12B6
:101B40002B607583F97582AB1247B0501D90FB7204
:101B5000E004F0C394024017E4F0121AE6801090FB
:101B6000FC04E064177008123583E490FB72F09077
:101B7000F93F782512110490FB5F121DC51208CFA2
:101B800078257921120E1F90FB537825121113909E
:101B9000FB4D7463F0A374F9F090FB61121DC51244
:101BA00008CF90FB53782512110478217925120A69
:101BB00063AA21AB22AC23AD2412191D124A2B8A31
:101BC000218B22AE21AF22A2934040A294501990C3
:101BD000FA12121DB9EE98EF99500D90FB23E024F4
:101BE0001412275DC2948023A294401F90FB10E042
:101BF000601990FA11121DB9E89EE99F500DE4900A
:101C0000FB10F0122422D2931218E71227987005C5
:101C100012278C600F90FB21E0240B122DD1740150
:101C2000F0021DA6E490FB0FF090F9BFE06022F8EF
:101C300075F0E8A4C8AAF075F003A42AFAE42AF91A
:101C4000EE98EF9950047A0180027A00EA90FB0F37
:101C5000F090FA10E0FB603175F064A4F8AAF0E4AB
:101C60002AF9EE98EF9950047A0180027A00EAFC92
:101C700090FB14E07008EC6024121A92801FEC7044
:101C80001CEBFE121A3FEE800A90FB14E0600E126D
:101C90001A3FE490FA101223A6F01217CA122798DE
:101CA0006003021C1512278C6003021C1590FB4D6B
:101CB000746BF0A374F9F090FB63121DC51208CF8A
:101CC00090FB53782512110478217925120A63AA12
:101CD00021AB22AC23AD2412194E8A218B228C23F6
:101CE0008D24782112092CAA21AB2290FA03E060FE
:101CF00010121DD5500B740190FB6BF0C294021DA5
:101D0000A690FA06E0F5217003021DA674FF652176
:101D10007003021DA690FB69E07002A3E0600990C9
:101D2000FB69121E8E021C2075220074037821129A
:101D300011E890FB69E521F0A3E522F090FB6BE050
:101D4000603590FA05E0F8C3EA98EB122444501984
:101D5000A29440031218E790FB07E090FB06F012F4
:101D60001DA9E490FB6B021C20A294503990FB0645
:101D7000E0603314F0802CA294502B90FA04E0120F
:101D80001DD5502290FA09E0FB90FB06E0FAEBC368
:101D90009A5003EB8002E014F0740190FB6BF0901A
:101DA000FB06E0121DA9021A3AF9121665E9F5CFF1
:101DB0002290F9A9122B64E822E075F064A4F8AA35
:101DC000F0E42AF922E0F521A3E0F522752300755D
:101DD0002400782122C39AE49B02244674F712124D
:101DE0003D90FB23E0241CFAA3E03400FB8921741E
:101DF000012521F8E43400F98A828B83123C3D806E
:101E000005639004E5908A828B83C3E09401A3E08C
:101E10009400C365D03350E98A828B83E4F0A380B9
:101E20004B74F712123DC29475FEDB7E008E217555
:101E30002200740A78211211E8122717E8FAE9FB48
:101E40008A828B83A3A882A9838A828B83E064FF22
:101E500070047A0180027A0012270B6006C3ED94A9
:101E60000440D90EEEC3940F40C38001F07F0202FC
:101E7000129CC082C0838A828B83121E8EF08A825B
:101E80008B83E07004790180027900021B01121E2D
:101E90009222E024FFF0A3E034FF2274F712123DF7
:101EA0007E00EEF890FB21E0281223E3700302206D
:101EB0004DE4F0EE12131E000501F51E02CA1E03CA
:101EC000EF1E096F1F0BFB1E432090FB12E0600BFF
:101ED00079001217951235C102204390F9E5E054BC
:101EE000606420600302204390FB0BE0F980E31262
:101EF0002D10022043122DE402204390DF3CE0A28B
:101F0000E2501490DF3BE0C3940D400BE0C394100B
:101F100050051223F9802D12279870F612278C7025
:101F2000F11240F512243C5006E87001E970E3120A
:101F3000353112243C5006E87001E970D57A0179F8
:101F40000012364390FA0B122B607583FA7582D417
:101F50001223C24003022043E490FB06F075CF0039
:101F600090FB23E02418122DD11227B10220427ACF
:101F7000FF7BFB121E72E960061217CA1227399006
:101F8000FC01C3E0940AA3E09400500312239D12C5
:101F9000356B4007E490FC43F0800990FC43E0601F
:101FA0000302204390F9E5E0A2E74003022043A2A8
:101FB000E6504A7AF97BFB121E72E9601312411E49
:101FC00090F9E5E0C2E61223A6F0F912177B8073C0
:101FD0007AFB7BFB121E72E9606912353B90FAFFB7
:101FE000E0F890FA01E028F8E43400F97AFA7B008E
:101FF000121168EA90FAFFF090F9FD80CC7AF77B35
:10200000FB121E72E960271240E890FBFDE4F0A38A
:102010001223AFD2E612410864FF700890F9C7E0BE
:1020200090F9FDF0E012184190FAFFE0809C7AFDF3
:102030007BFB121E72E9600B1223D21234FDE8F012
:10204000A3E9F0122798700F12278C700A0EEEC3C6
:1020500094105003021EA27E00EEC333F8E433F95D
:1020600090FB23E028F8A3E039F988828983C3A391
:10207000E0122444400302239088828983E4F0A381
:102080001234D4241E12350B90F9DEE0FCEE12124D
:10209000E8020D9023B120C020B922A821BF21E978
:1020A000217122D622AD21CA229023412390231BE5
:1020B0002375C9A875C958122746F0A3E402238FD7
:1020C00090FB0AE0700302239014F0E490F538F0DE
:1020D00090DF05E0FA90F9E2E06A70047A0180028C
:1020E0007A00EA90FB75F090FB15E07003022390F4
:1020F00090FB75E07012123C53642070047A0180EA
:10210000027A00EA90FB12F090FB11E0601C90FB59
:1021100003E0601690FB11E014F090FB03E014F074
:10212000701090FA15E4F0A3800790FB08E06002BD
:1021300014F079007A4A7BF8122D7990F9C1E0FA0F
:10214000700302239090F9C0E0FBEAC394084009B1
:10215000EBC394084003022390EB6008C39A500439
:102160008B2180028A2190FB23E024061223E75072
:1021700013E521C39413502712240674FF2A1A74FE
:10218000FF3B801174016521701590FBF5E024FF81
:10219000FAA3E034FFFB1223B5940012242AF09036
:1021A000FC44E0640102238FC293022390E5CD6CCE
:1021B0007005D294022390740190FB1002238F903B
:1021C000F9DCE0700D90F9DDE06007D29312242273
:1021D000800890F9DCE0A2E0929390F9DDE07003D2
:1021E0000223901218E702239090FB23E0240EFABA
:1021F000A3E03400FB88828983E07002A3E070666C
:10220000121DB17001E9605E74FF68700374FF69AC
:10221000605490FC04E01212E81502662240222964
:10222000222322121AE6022390741790FC04F090E5
:10223000F9B112354E90F9DCE0A2E09293022390BE
:10224000E5CDC39C501505CDE5CD90F9AD122B60C1
:102250008A828B83E8F0A3E902238F741690FC0432
:10226000F090F9AF80E7741790FC04F090F9B1801A
:10227000DC90F9E5E054506410703E1236067008A8
:102280001223C874010220BA90FB09E0FA74FF2AF5
:10229000F0EA60121223D290FBF512352D1223C8FA
:1022A000EAF0A3EB800B90F9C7E090FAFFF090DF23
:1022B00006F0122768E4F0A3F07900121795740174
:1022C00090FB12F01235C10223901227A190FC015D
:1022D000121E8E02238F12272A12358B90FBEC12CE
:1022E0002B607583FB7582F5E0C398F8A3E099F93C
:1022F00074F628F874FF39F990FB2312351DA3A357
:10230000A3A3A3123C3D123561F090FB0BE06002E9
:1023100014F090FB0CE06078148074E5CDC39C5001
:102320006F90FA0DE0FBE5CDFAEB70057B018001C3
:102330000AEB1B6005EAC39C40F68ACD1227AD80EC
:102340004EE490F538F0122A0C90F9C1E0F52160C6
:102350003F90FB23E0241A1223E7500FE521C3949A
:1023600013502D1224061223B580177401652170B5
:102370001F90F538E0FA7583FB7582F5E0C39AFA91
:10238000A3E09400FB74FF2A1A74FF3B12242AF086
:102390000EEEC394105003022059021E6D121A92C1
:1023A000E490FB14F022F090F9C7E090FAFF22F0DD
:1023B00090F9E5E02290F538E0F521EAC39521FA9D
:1023C000EB221247B002244690FB23E02410122D8A
:1023D000D52290FAFFE090DF06F012161DE090FA89
:1023E000FFF022123C5D22F8A3E03400F990FC4497
:1023F000E0FC90F9E5E0A2E22290FB21E0240B1240
:102400002DD57401F022122419EA8521F0A4FAAF27
:10241000F08521F0EBA42FFB2290FBF5E0FAA3E07E
:10242000FB221241151227B1F022FBEAC39CFAEB02
:102430009400FB88828983EAF0A3EB22122B64C309
:10244000E8941DE99400A2D265D03322EEC0E0E901
:10245000FE80057964121DDCEE1E70F7D0E0FE22CE
:1024600074AA90F53BF0741090FFFFF090DF36E017
:102470006481600312487790FFFEE0645A700302A3
:10248000263E745AF0D2B97E007F008E218F2274CE
:102490000A78211211E8122717E8FAE9FB8A828BE1
:1024A00083A3A882A9838A828B83E064FF70047A65
:1024B0000180027A0012270B6009C3ED940440D911
:1024C000121E21EE24010EEF3400FFC3EE940FEF35
:1024D000940040B790FC0CE02430122DD174B8F079
:1024E000A374271236002432122DD1740DF0A37478
:1024F000281236002434122DD17424F0A37415123E
:10250000360024371223FF122DCB74781235FD24A8
:102510005D122DD174281235FD242012350B90FB4D
:1025200021123C3D90FC0C122B6090FB23123C3D91
:1025300090FC0CE0243812350B90FB73123C3D7478
:102540001790FC04F0123583741855BEC31313138F
:1025500090FB05F079F07A237BF912494A121A3F71
:1025600090F9A3E07002A3E0600474018001E4909C
:10257000FC091234DA122B6E500590F9FD8003909D
:10258000F9C7E0FAEA90FAFFF012478490FB05E001
:102590001212E80003E225AE25AE259F25AE25D216
:1025A00093D29490F9DEE0F5CD12277C803490FB35
:1025B0000DE090FFFDF090FA02E0FA60048ACD8011
:1025C0000690F9DEE0F5CDC293C294D29312277C37
:1025D00090FB23E0240C12275D90FB23E0241812CB
:1025E00027A779907A1C7BFA12494A1218531227AE
:1025F000A112276874021234E61227461234E6123A
:10260000272A12358B1218241240FB53E4FCE5E410
:1026100075E30075E20075DB0275DAED43E406E56B
:10262000E475E544790A12244C79047CF37DF97A47
:10263000FF7BFB1249A2E96003124877C291122D79
:10264000451217CA800AEA7001EB70041227ADF038
:1026500090F53BE064AA600312487790DF36E064AF
:1026600081600312487775C908121E9B1227987063
:10267000DF12278C70DA90FBF5C3E09491A3E0940D
:1026800006500A90FBF5E07002A3E0700A90FBF59B
:102690007490F0A37406F090FB23E0241212273309
:1026A0007583FB7582F5C3E09AA3E09B5003122764
:1026B0005788828983E07002A3E070031227579045
:1026C000F9F312352D90FBFF122B60C3EA98EB99BA
:1026D000500690FBFF122CC590FBFFE07002A3E0B8
:1026E000700312273990FC01E0700312487790FBC9
:1026F00023E02416122733C3EA94D1EB9407A2D225
:1027000065D033500302264602264CEAFBEC240136
:102710000CED3400FDEB222400F874083522F97426
:102720001090FFFFF07C007D002290FBF5123591A8
:10273000241222123C5D02241D90F9F3122B6490A6
:10274000FBFF1235482212274C747D2290FB231286
:1027500027F5A3A3A3A322122419022CC1122DD55D
:102760007470F0A37417F02212276C2290FB2312CE
:102770002773221227F9A3A3A3A380D690F9DFE041
:10278000F990FB06F090FB07F0021DAA90FB22E0F7
:10279000F5838882A3A3E02290FB211227F1A3E016
:1027A0002290FB23E02416122DD50224258882894D
:1027B0008374D0F0A3740722C082C083E490FB022C
:1027C00012280204122802C39404500A1227EAA312
:1027D000A374081234E690FB02E0240EF582E43480
:1027E000FCF583E0F5B6021B01F090FB231227F104
:1027F000221227F5221227F922E0F8A3E0F58388B8
:102800008222F090FC0CE02436123C5D2274F5121A
:10281000123DE5BBF522E5BAF521740278211211CB
:10282000C990FC45E02521F521A3E03522F5229051
:10283000FB02E0700A90FB76E521F0A3E522F09020
:10284000FB02E0FA74012AF0EAC333F8E433F9E852
:1028500024E2F582E934FAF583E02521F0A3E0359E
:1028600022F090FB02E0C394095010E0240EF582A0
:10287000E434FCF583E0F5B60229BE90FAF4E0906A
:10288000FB76700FE0F8A3E0F990FB70E8F0A3E9A5
:10289000F08039E0F8A3E0F97583FB758270C3E03E
:1028A00098A3E099500890FB70E8F0A3E9F090FB42
:1028B0006EE0F8A3E0F97583FB758276C3E098A318
:1028C000E099501090FB76E0F8A3E0F990FB6EE8F9
:1028D000F0A3E9F090FAF4E004F0C3940850030286
:1028E00029B990FAE8E0FEA3E0FF7CE27DFA7A578E
:1028F0007BFB90FB01E0C333F8E433F9E8241CF8D8
:10290000E934FAF97523098C828D83E0F521A3E07F
:10291000F52288828983E521F0A3E522F0C3E52131
:102920009EE5229F50098A828B83E4F0A38015E5FF
:1029300021C39EF521E5229FF5228A828B83E52122
:10294000F0A3E522F0E82410F8E93400F9EA2402C3
:102950000A0AEB3400FBEC24020C0CED3400FD15EC
:1029600023E52370A290FB21E0240BF8A3E03400C0
:10297000F9888289837401F090FB6EE0F8A3E0F996
:102980007583FB758270E0C398F8A3E099F990FB1A
:102990006CE8F0A3E9F079127AE27BFA12494AE492
:1029A00090FAF4F090FB01E004F06408700B7401FD
:1029B00090FB0EF0E490FB01F0E490FB02F07F044A
:1029C00002129C74F712123D7A937BF97906121861
:1029D0002A75214C7522F878211212D77C007DF8D7
:1029E0007A2079001213A9740212120A742290F844
:1029F0004AF090F9E2E090F84BF0740190FB150278
:102A00001E6C79067C297DF912496D2274F8121228
:102A10003D90FC0AE0FEA3E0FFE490FB11F090FB88
:102A200003E0601E90FA15E0647B7004A3E064FB91
:102A30007005122BC58003122CCB740190FB110280
:102A40002B4E90FB0EE07003022B527A007900129D
:102A5000364379047C167DFB7A007BF812496D9031
:102A6000FAFFE090F804F074185590C333C0E0907A
:102A7000F925E0540FFAD0E04A333354FC122BB955
:102A800079107CD07DFA7A0C7BF8122B6E500C906A
:102A9000DF06122B5474022808800DA2E550139013
:102AA000F9E3122B5474012808E439F9EE28FEEFFB
:102AB00039FF90F9E5E0A2E75008EE2404FEEF3478
:102AC00000FF90F9FEE0A2E15008EE2408FEEF348A
:102AD00000FF90FB0CE06008EE2410FEEF3400FFD6
:102AE00090F81AEEF0A3EFF090FB27E07002A3E05D
:102AF000600790FA1BE0FA80027A3FEA90F81CF037
:102B000090FB27E07002A3E0700B90FB79122B6022
:102B100090FB27800990FB27122B6090FB79123CD9
:102B20003D90FB27E090F81DF0A294500BE5CD906E
:102B3000F81EF090FB06800B90F9DEE090F81EF096
:102B400090FB07E090F81FF090FB27E4F0A3F01251
:102B500029C38060E075F064A4F8A9F02290FB9886
:102B6000122B6422122B6822E0F8A3E0F92212490A
:102B70006D90F9E5E0A2E62274F812123D8921EA8F
:102B8000FEEBFF7904EEFCEFFD7A007BF812496D55
:102B9000E52190F804F090F925E0333354FC440328
:102BA000122BB97914EE2404FCEF3400FD7A0C7B6F
:102BB000F812496D7F0102129C90F805F07A067BAD
:102BC000F8122A022274ED12123D7E7B7FFB7521E2
:102BD00000800674046521604885212375240074F3
:102BE0000378231211E8E523244BF582E52434F918
:102BF000F583782512110490FC4C78291211047881
:102C0000257929120A63AA25AB26AC27AD28124ADA
:102C10002B8E828F83122CC5EE2402EF34000E0E11
:102C2000FF0521E521C3940740A990F94F782112AF
:102C30001104AA21AB22AC23AD241249E290FB87F8
:102C4000122CC590F95F7821121104AA21AB22AC95
:102C500023AD241249E290FB89122CC590F97778B4
:102C600021121104AA21AB22AC23AD241249E29017
:102C7000FB8B122CC590F97F7821121104AA21AB8D
:102C800022AC23AD241249E290FB8D122CC590F9A1
:102C90003B7821121104AA21AB22AC23AD241249A6
:102CA000E290FB8F122CC5E5CD90FB91F090FB06D6
:102CB000E090FB92F07A7B7BFB79EC122B7802168A
:102CC000E188828983EAF0A3EBF02274F812123DC6
:102CD00090FB03E0F874FF281874FF3400F990FCAF
:102CE00003E0FA7B00121168E8FC90F9FF74CBF066
:102CF000A3742CF0EC75F018A4F8A9F090FA15E084
:102D000028FAA3E039FB74ED2CF9122B78022BB4CE
:102D1000C082C08374FF90F800F090F801F090F842
:102D200002F090F803F079067C167DFB7A047BF8BC
:102D300012496D7A0A7BF8122A021229C374129082
:102D4000F84A021B0074F812123D7E7F90FB93E05C
:102D500070247401F090FB13E0701B53BEFB8005E0
:102D60007902121577E5BEA2E64004EE1E70F1006E
:102D700075C68943BE04022BB4C082C0838A828B8D
:102D800083E0FC74226C600574126C703B90FB0F46
:102D9000E0703575E10490FC0CE0243AFCA3E034CB
:102DA00000FD8C828D8374F0F0EB90F877F0EA9060
:102DB000F878F012179590FC0CE0243A122DD1749B
:102DC00010F075D60275E103021B0190FC0CE024A3
:102DD0005B122DD522122DD922F8A3E03400F988F8
:102DE0008289832274F112123D90DF38E0FF90DF78
:102DF00008E0F521E490FB12F090FAF5F0A3F090D2
:102E0000F825E090FB9B1223AF5460FA90FB9BE007
:102E10002427F582E434F8F583E0A2E7500D90FB17
:102E20009BE06422601CE06412601774206A7007E3
:102E300090FB0BE0F9800279001217951235C10260
:102E400034D190F826E0FB74206A701B90F9E2E020
:102E5000FC6B701390DF05E06C700C79007A257BB9
:102E6000F8122D790234D190F9E1E06B600302345D
:102E7000BF90DF3CE0A2E75004D2F08002C2F0A293
:102E8000F0E492E0FE74206A700979017A257BF8FB
:102E9000122D7990F538E090FAFD1234E67A937BA2
:102EA000F9790612182A7523007524F8782312126E
:102EB000D77C277DF890FB9BE024FEFA7902121361
:102EC000A9740212120A90F800E090FB9AF090F8B0
:102ED00001E090FB78F079067C027DF87A947BFB28
:102EE00012496DE0541FC3941140030234BF90FB9C
:102EF00098C3E094E8A3E0940340030234BF90FB3E
:102F00009478251211047583FB75821A78251208AE
:102F1000A4402579047C1A7DFB7A947BFB1249A29C
:102F2000E960030234BF122B5D90FB1EE068700362
:102F3000A3E06970030234BF90FB9478251211045A
:102F40007583FB75821A78251208A4401E79047CCB
:102F50001A7DFB7A947BFB1249A2E97012122B5D59
:102F60007583FB75821E1247B050047A0180027A85
:102F7000008A2390F538E090FAFB1234E612356BA4
:102F80004005E490FC43F090FB9BE02426F582E4AE
:102F900034F8F583E0F525C394805010E525C3137C
:102FA000FA90FBDE1234F2F8E4998017E42525F854
:102FB00074FF13E813F890FBDE12352DE8C39AF87E
:102FC000747F9BF990FB27123C3D90F9E5E0A2E667
:102FD000406EEFC39401A2D265D033EF400EC3948C
:102FE00002A2D265D03340177F018013C31224445C
:102FF000500DEFC394FFA2D265D03350027FFFE59E
:1030000021F83395E0F9EFFA3395E0FBEA28F52152
:10301000EB39F522AA21FB1216E6C3EA9461EB1202
:1030200024444016740278211211E8AA21E522FBFB
:103030003395E0FCFD1248868006E52190DF08F01C
:10304000EE70030234BF90FB0CE0600214F090FCC1
:1030500006E06009E41227E974781234E66390020E
:10306000E590741290FB0A1234DA12496DE5236080
:103070000D79067C947DFB7A1A7BFB12496D90FBDF
:1030800078E0A2E750047A0180027A0490FBEC1207
:10309000355990FB78E0F8741F58F8EA28F8E434C2
:1030A00000F9E88521F0A4C8AAF08522F0A42AFA44
:1030B0008521F0E9A42AF990FBF2E028F8A3E03991
:1030C000F990FBF5E8F0A3E91227E9122B6090FADA
:1030D000FD123C3D90F9C5E0602C90FB78E0541F58
:1030E000240275F003120858E5F0701A90FC47E0CE
:1030F00014F0701290F9C4E090F5001234E690F9E3
:10310000C5E090FC47F090F9E5E0A2E650047A00B3
:1031100080027A0490FB23E0241A12350BE8FCE9C4
:10312000FD90FB9AE07034E490FB15F0740AC39AAA
:10313000FAE41235ABF079067C947DFB7A167BFBC2
:1031400012496D123531C3E09401A3E012244450BA
:10315000728882898374FFF0A3806790F9C1E0FED2
:1031600090FB9AE0F8EEC398F8E49400F990F9E542
:10317000E0A2E2EE502E604BC3E8941312244350B9
:103180004290FBF5123559E88521F0A4C8AEF085D0
:1031900022F0A42EFE8521F0E9A42EF9740A28F865
:1031A000E4398015601D7401687001E9701590FBA9
:1031B000F5E0240AF8A3E03400F9E8C39AFAE9122A
:1031C00035ABF0740890FB0B1234D4240812350B85
:1031D00090FBEC12352D7583FB7582F5E0C39AFAEE
:1031E000A3E09BFB74EE2AFC74FF12359990FB9AC6
:1031F000E090FB001240D4402E90FB23E02410FA14
:10320000A3E03400FB90FB78E0A2E6500E888289B0
:103210008312354E740890FB09800BE490FB09F093
:103220008A828B83F0A3F090FBF5E02401FAA3E0FF
:103230003400FB90FB23E0241212358B90F9E5E07B
:10324000A2E690FB27501CC3E094A21234EB400E80
:1032500012353B90F9ED122B6090FBF9801D123571
:1032600061801CC3E0949B1234EB40F290F9EB12A6
:103270002B6090FBF7123C3D1234FDE8F0A3E9F01F
:1032800090FB9AE0FC74FF6C600C90F9C0E0600663
:10329000F5F0EC84ACF090F925E0FD90FBEC121D0C
:1032A000B48DF0A4F8AAF08DF0E9A42AF990FBF00F
:1032B000E028FAA3E039FB90FAFB1234F2FAEB991A
:1032C000FB90FB23E0240612350B90F926E0FE74F8
:1032D000FF6C600FEE6C700B88828983EAF0A3EBC1
:1032E0000234208C21EEC39521F521E49400F522CF
:1032F00090FB78E0541FFF90F9C1E0F52390F9E5C9
:10330000E0A2E2E5235044607174FF6E606CECC390
:103310009E4003023421C3E5219413E52212244484
:103320004003023421EDC39F400302342190FBF59A
:10333000123512CCAEF08522F0A42EFE8521F0EDE0
:10334000A42EFDEA2CFAEB3DFB808D602D74FF6E00
:103350006028ECC39E400302342174016521700291
:10336000E5226003023421EDC39F40030234219023
:10337000FBF5E02AFAA3E03B80CE74FF6E60030207
:10338000342174FF6D600302342190FB78E0A2E7E2
:10339000500302342190FB23E0241AFAA3E0340006
:1033A000FB8A828B83E4F0A3F090FB04E0600314BB
:1033B000806E53B4F3E5B443B404E5BDC0E090FAC5
:1033C00008E0F5F0D0E08490FA07AAF0E02A90FB3C
:1033D00004F090FB78E0FA741F5AF52190FBEC1290
:1033E0003512FCAAF08521F0EDA42AFDE5BC75F0AC
:1033F000058485F02190FBEE12352DEAA4FAAEF09B
:103400008521F0EBA42EFBEA2CFAEB3DFB90FBF0C0
:10341000E02AFCA3E012359990FB2112351D7401BE
:10342000F088828983E07002A3E060347AFA90FB2E
:103430009BE0641270027A1090F9E5E0A2E6501069
:1034400090F9FEE0A2E1500474F3800274F62AFAC7
:10345000EA3395E0FB88828983E02AF0A3E03BF021
:1034600090F9E5E05460642070057905121DDC9048
:10347000FB9BE024F6F912443890F9E5E0544864E7
:1034800008702390FBF7C3E094C8A3E094005016A3
:1034900090FB9BE02425F582E434F8F583E090DF8F
:1034A00006F090FAFFF090FB23E02406122DD1C322
:1034B000A3E0122444500888828983E4F0A3F079C1
:1034C0000012179590F9E5E0546064207003022E15
:1034D00030021A3AF090FB23E022F079047CF37D6D
:1034E000F97AFF7BFB22F0A3E4F022A3E094FF0231
:1034F00024461234F622122B68EAC39822123501B0
:103500002290F9F1122B6890FBFD22F8A3E0340021
:10351000F922E0FCA3E0FDEC8521F0A422E0FAA36F
:10352000E0F5838A82A3A3A3228E828F8312241CB8
:103530002290FB23E0241A122DD52212353F22902F
:10354000F9EF122B6890FBFBE8F0A3E9F022122BB5
:10355000648A828B8312354822E0F521A3E0F522AC
:103560002290FB2112276FA374012290FAF9E02424
:1035700001F0A3E03400F090FAF9C3E09433A3E043
:1035800094002290F9B1123591240E122DD5022CFF
:10359000C5E0FAA3E0FB0234D53BFD90FAFB122410
:1035A0001CECC39AFAED9BFB022CC19400FB90FA31
:1035B000FB1234F6F8EB99F98C828D83E8F0A3E9DD
:1035C00022C082C083123606700512360C802B751D
:1035D000E10474F0123600245F12184B90F825F0C5
:1035E00090F826123600243A122DD17420F074225D
:1035F00090DF02F075D60175E102021B01F0A3E431
:10360000F090FC0CE022123C5764102212276C74DC
:10361000010234E674F112123D90FBA078211211E0
:10362000048A828B83782512110478217925120A65
:103630006390FC48782512110478217925120C0832
:10364000021A2174E112123D89238A2490DF08E0D6
:10365000F83395E0F990FB25123C3D7AAC7BFA7586
:10366000211C7522FA90FB21E02401F525A3E0340A
:1036700000F526852582F583E0701490FB21E02477
:103680000212350B882789288882F583E0600612AC
:1036900023F9023C21E524605490FB01E0F8187402
:1036A0000758C333241CF521E434FAF5227909853F
:1036B0002182852283E0FCA3E0FD8A828B83ECF0EB
:1036C000A3ED1234E6A3F0123C30E5212410F521DD
:1036D000E5223400F52219E970D590FC07122B6021
:1036E0007A087B001211688829E902376E75290073
:1036F0007C0890FC50782D12110490FBA4782D12B8
:1037000011138027852182852283E0F52DA3E0F522
:103710002E752F0075300090FBA4782D1210C5E592
:10372000212402F521E5223400F522EC1C70D58518
:103730002582852683E0600302368F852782898370
:10374000E0600302368F90FBA4782D1211048A8268
:103750008B83782D121113123C300529E529C3946F
:1037600009408D90FC07E0F521A3E0852129F52A89
:103770003395E0F52BF52C90FAB878291210C58511
:103780002582852683E0600302368F85278285287F
:1037900083E0600302368F7C0979007AAC7BFA12F1
:1037A0004904123C787005123C62600302368F9027
:1037B000FABC782512110490FC50782512087A7012
:1037C00003023C21752900752A00752B80752C3F5A
:1037D00078251208B478297925120E1F90FB4F78AE
:1037E000291211138E828F83E070C1852182852278
:1037F00083E070B890FB4D746BF0A374F9F0790618
:10380000123C268D2890FBA0782512111390FB4DB9
:103810007473F0A374F9F07907123C26EDB2E7F562
:103820002890FBB478251211138E828F83E06003F9
:1038300002368F852182852283E0600302368F90D5
:10384000FBA0782512110490FC54782912110478F9
:10385000257929120A63782512092C90FAD8E525D2
:10386000F0A3E526F090FBB4782512110490FC54E7
:10387000782912110478257929120A63782512090A
:103880002C90FADAE525F0A3E526F090FB4D742F95
:10389000F0A374F9124775E0600302368F85218228
:1038A000852283E0600302368F7AA07BFB1219D158
:1038B0008A258B268C278D2890FBB0782512111332
:1038C00090FBB07825121104782512092C90FBA8E2
:1038D00078251211138E828F83E0600302368F8564
:1038E0002182852283E0600302368F90FBE07825F9
:1038F00012110490FB25123559740278211211E837
:10390000E5212525FAE5223526FB90FBA87825122E
:103910001104EAC39525F521EB9526F5227402786A
:10392000211211C9E52190FA1BF0E5236022123C17
:103930005364F0701B90FBA8782512110490FBE0F3
:1039400078251210D8AA25AB26AC27AD28124886B8
:10395000123C787005123C62600302368F90FBA027
:10396000782912110490F9477825121104782979E1
:1039700025120BE390F93F782D1211047531007573
:10398000320075338075343F90F943783512110455
:10399000852925852A26852B27852C287825792990
:1039A000120A6378357925120A6378317935120B5A
:1039B000E3782D7931120A6390FB9C782D12111354
:1039C00090FBA0782512110490FC5878291211045C
:1039D00078257929120C0890FBA0782512111390F4
:1039E000FB4F782512110490FB9C78291211047862
:1039F000257929120A6390FB4F7825121113752936
:103A00000085298285822785272B752C00740278F2
:103A10002B1211E8852B25852C2690FB4F782D1233
:103A20001104E52524ACF582E52634FAF5837831D6
:103A300012110478311208B4782D7931120A63908A
:103A4000FBAC782D1211138E828F83E06003023657
:103A50008F852182852283E0600302368F740165A1
:103A600029700E90FBAC782D1211047AD87BF98066
:103A70001274026529702690FBAC782D1211047A1D
:103A8000D47BF91236148A318B328C338D34782DF5
:103A90007931120A6390FBAC782D121113E52524BD
:103AA000B8F8E52634FBF988258926E5272417F59B
:103AB00082E434FCF583E0F52774FF6527701490E9
:103AC000FBAC782D1211048525828983782D121183
:103AD000138056752800740378271211E8E527240F
:103AE0004BF8E52834F9F990FB4D123C3D90FBACC6
:103AF000782D121104AA2DAB2EAC2FAD3012191D4A
:103B00008A2D8B2E8C2F8D30852582852683782DCE
:103B10001211138E828F83E0600302368F8521821B
:103B2000852283E0600302368F0529E529C39409C5
:103B30005003023A0190FBB8782912110490FBC09F
:103B4000782D12110490FC5C7825121104782D79DF
:103B500025120A63123C411208CF782D7925120AEA
:103B6000637829792D120BE3AA29AB2AAC2BAD2C53
:103B7000124A2B90FAD0122CC590FBBC782512115A
:103B80000490FB9C782912110490FA17782D1211D9
:103B9000047829792D120A6378257929120A63900D
:103BA000FBBC7825121113AA25AB26AC27AD281231
:103BB0004A2B90FAD2122CC590FBCC782912110412
:103BC00090FBBC782D121104782D7929120E1F124A
:103BD0003C411208CF782D7925120A637829792D76
:103BE000120C08AA29AB2AAC2BAD2C124A2B90FA46
:103BF000D6122CC590FBC07825121104AA25AB263D
:103C0000AC27AD281249E290FAD4122CC51227989D
:103C1000700512278C600302368FE5246003121BA7
:103C2000067F1802129C12197F8A258B268C272268
:103C3000EA2404FAEB3400FB22F990FA1512354815
:103C40002290FA0EE0F525752600752700752800EC
:103C5000782522123C572290FC0CE0243A122DD9F0
:103C6000E02290FB21E0240208A3E03400F988213F
:103C700089228882F583E02290FB21E02401F8A3C9
:103C8000E03400F9E8FEE9FF8E828F83E02274F5CC
:103C900012123D8921EAF97E237FF98521828582EE
:103CA00023752400E5232423FCE434F9FDE52112E7
:103CB000131E080609424010150E3E2E30AC3F3D43
:103CC000466A40494E6A404F5270405556764057BA
:103CD00058C0402701A240044B3D05923D0B573E82
:103CE0000C513E0D36400E554016FA3D17FF3D1A59
:103CF0001C3E1C5D3E1D8F401F833E20A13E217D4A
:103D00003E23F23E25FD3E28093F291C3F2A3F3F26
:103D10002B153F2C883F2D993F31B73F33CF3F358F
:103D2000DA3F36EE3F38FA3F399D3E3A23403B3585
:103D30003F5CC6405DA7405EAD405FB340609D40C4
:103D400061B94064984071D53ED140E9C3940240C6
:103D5000030240D1E96036D293124111E4F0A3F09E
:103D600090FB10E0701290FB23E024141223E37008
:103D700002A3E070030240D11218E7E490FB101296
:103D800034D42414122DD1E4F0A30240D0C2930203
:103D900040D1E9C3940240030240D1740169702A02
:103DA00090FB0DE090FFFDF0E490FB20F090FC0A0A
:103DB00074321234E690F9A3E07002A3E060087454
:103DC0000190FC09F08006E480F7E960147418554E
:103DD00090701AD2931218E71241111227B10240C3
:103DE000D0C29490FC05E090FFFD0240D0A2945018
:103DF000030240D11218E70240D189CD0240D1E937
:103E000090FB07F090FB06F0121DAA0240D1EC24B3
:103E1000F6F582ED34FFF583E90240D0E990F9C769
:103E2000F012158390F9E5E0A2E6402590F9C7E08D
:103E300090DF06F012184190FBF7742CF0A3740188
:103E4000F090FBFD742CF0A37401F075E1041217DF
:103E5000CA1240FB0240D112150E0240D1A293E4D7
:103E600092E090F9DCF0A294E492E090F9DDF0E5C4
:103E7000CD90F9DEF090FB07E090F9DFF0124131D0
:103E80000240D11240FB74FF90F926F090F9251200
:103E900034D4241A12184B1240F5023D877E007F5D
:103EA0005C90FB03E060030240D190FA15E07002E1
:103EB000A3E07014EEF8EF123C3975F00A90FC03A1
:103EC000E0A490FB030240D090FC03E0C0E0E9F5E1
:103ED000F0D0E080ECE990FB03F090FA15747BF0F1
:103EE000A374FBF090FB03E060030240D174010275
:103EF00040D0E990F9E0F090DF2E0240D090F9E553
:103F0000E9A2E0E092E10240D090F9E5E9A2E0E028
:103F100092E40240D0E990F9E30240D090F9E5E95B
:103F2000A2E0E092E5F0E960030240D190FAFF12CE
:103F300017C40240D190F9FEE9A2E0E092E1F074EA
:103F40002A6521700A90F9E5E9A2E0E092E6F09096
:103F5000F9E5E0A2E6501D1240E890FBF7E4F0A37B
:103F600012410890FAFFF0F912177B90FB23E0242E
:103F700010023D8490FBF9E4F0A3F012411E90F989
:103F8000C7E090FAFF0240D0E990F9E41240D44033
:103F9000030240D190F9C78096E990FBF4F0A2E0CB
:103FA0007583F97582E5E092E70240D0EC2495F53F
:103FB00082ED3400023E16E490F9C7F074FF90F9E8
:103FC00026F090F925F090F9271240D812413112CD
:103FD00027EA7478F0A3E40240D0E990F9FD12409A
:103FE000D440030240D1E990FAFFF0023F2C90F94F
:103FF000FEE9A2E0E092E00240D079107C297DFB4E
:104000007A837BF912496D79107C397DFB7A937B39
:10401000F912496D79207A297BFB12494A1218243A
:104020000240D1E9600CC394205007E990FC0302E0
:1040300040D0740480F690F9FEE9A2E0E092E30239
:1040400040D0EC248AFAED3400FBE98A828B83F0BD
:10405000A3AA82AB83740E652170047AB77BF979C9
:10406000047C947DFB12496D8067EC24A1023FAF74
:10407000EC244D023FAF79047C1A7DFB7402782357
:104080001211E8E5232478FAE52434F8FB80D69071
:10409000F9FEE9A2E0023FA6E990FC60F01217CA1F
:1040A000802F90F9E58092E990F9C48023E990F996
:1040B000C5801DE990F9C68017122DCBEA023FD4C6
:1040C000EC2441023FAF7401697006740190FB1348
:1040D000F00229BEF0022B71F0A3F0740290F9E116
:1040E000F0740190F9E2F02290F9ED122B6490FB4C
:1040F000F91235482212274CA3A32290F92DE0F59E
:10410000BC90F92EE0F5BC22F012353F90F9FDE0AD
:10411000221241152290FB23122773A3A32290F9A8
:10412000EB122B6490FBF71235481235011235481B
:1041300022C082C08343C6400043C6400043C640FD
:104140000043C6400043C6400043C6400043C6404B
:104150000043C6400043C6400090FB0CE0700512CF
:104160004792806390F53BE064AA6003124877C2EF
:10417000AF43C6400043C6400043C6400043C6406C
:104180000043C6400043C6400090FB0CE0700312A1
:10419000487775AD2E75AB2175AE010075AD00D2B7
:1041A000AF7932121DDC79F27C007D5C7A237BF9D9
:1041B0001214BA7916121DDC12360C90FB0CF07535
:1041C000C689000000000000021B0174F612123DB7
:1041D000EAFEEBFF7521237522F9E9C333FAE433D4
:1041E000FBEA2423FCEB34F9FDEE540FF523EFFB3F
:1041F000E4CBFAE912131E02040C9F421317CE42BD
:104200000C012742023142033E420D74420E90429D
:1042100010AC4211C84218D342190C431A4D421B2C
:104220006A421C6F42184390F927EEF0A3EF024355
:1042300017E52390F925F0EA90F926024317EE904E
:10424000F9E1F0EA90F9E212431D02431790F9A355
:10425000EEF0A3EFF090F9A3E07002A3E060087421
:104260000190FC09024317E480F790F9A580BB9008
:10427000F9A780B67918121DDC743F6E70037408BC
:104280006F70030243188E828F8312123B02431811
:10429000EE90DF01F0EA90DF00F090F9BD808BEC4A
:1042A00024C0F582ED3400F58302422A90FA15E02D
:1042B0007002A3E07062C3EF9404405CC3EF940803
:1042C000505690FA1502422A90FA0B02422AEC2428
:1042D0006080CF74F05FF9E47001E960058B2175AF
:1042E000225C740F5A75F018A4F8A9F0E52128F89B
:1042F000E52239123C39EEC4540F90FC03F0C0E0C3
:10430000E523F5F0D0E0A490FB03800BEA2423F52D
:1043100082E434F9F583EEF07F0302129CF090F909
:10432000E1E090DF052274ED12123D8923EAFEEBF5
:10433000FF752100752200752400892575260074FB
:104340000278251211E8E5252423FAE52634F9FB45
:104350008E828F837825121104E912131E04010442
:10436000744305069D430A17A743191A0B44011805
:10437000F0431544EA2408F521EB3400F5227404D7
:1043800065236003024415782512092C7414252531
:10439000F8E43526F990F9E9123C3D8078EA249D4D
:1043A000F521EB3400806C740E6523700C79047A6F
:1043B000497BFB12494A75240174F62523F523C372
:1043C00013F521740378211211E8E523A2E0E492A9
:1043D000E0F525752600740278251211E8E52524FC
:1043E0004BF8E434F9F9E52128F521E52239802359
:1043F000752900752A00752B80752C3F7829792541
:10440000120E1F90FA177829121113EA24BCF52115
:10441000EB34FFF522E5217002E522600D7904EE10
:10442000FCEFFDAA21AB2212496DE524600790FB49
:1044300006E0121DA90216E174F312123D89257ED1
:10444000087FF8752301752400802DE0F521A30E67
:10445000AF837906EEFCEFFD7A297BF91249A2E9D8
:10446000700E740F552690F925F0E52190F926F08D
:10447000EE2406FEEF3400FF8E828F83E0FA700395
:104480000246AAAB2574FF2BF525EB70030246AA62
:104490008A26A3AE82AF8374F05526F52174F065A9
:1044A0002160A890FBF4E0640270031247848E82BE
:1044B0008F83122B6090FBDC123C3DEE24020E0E2B
:1044C000EF3400FFEE2402EF3400F974035526F5B3
:1044D000221212E800034C45E044E5440145294519
:1044E000752301806712352990F927E06A7003A3CC
:1044F000E06B70047A0180027A008A230E0EE98054
:104500004A8E828F83E0FA90F926E06A70128E82DA
:104510008F83A3E0FA90F925E06A70047A018002A3
:104520007A008A2385232480D37906EEFCEFFD7A76
:10453000297BF91249A2E970047A0180027A008A83
:1045400023852324EE2406FEEF3400FF90FBDCE0FD
:104550007002A3E0603590FAF7C3E09401A3E09401
:10456000FF4017C390FBDDE09401500E90FBDC127E
:104570002B6090FAF7123C3D8011E5236009124749
:10458000A050047A0180027A008A231247A05006C4
:1045900090FAF7123C3D8E828F83A3A882A983E50F
:1045A0002112131E000610DA45205B4650BA4570F2
:1045B0006A46806A4690AF467844E5237003024419
:1045C000707403652260030244707906EEFCEFFD0F
:1045D0007A297BF912496D02447090FBF4E0FA905D
:1045E000F9E5E0A2E7E492E06A601090FBF4E0A253
:1045F000E07583F97582E5E092E7F08E828F83E0C3
:10460000F521E8FEE9FF740C552612131E00030085
:104610001A46042D460847467844E5236009EEFA19
:10462000EFFBA921124326EE2404024473E5236024
:104630000B8E828F83E0FAA921123C8E8E828F83AB
:10464000A30EAF83024478E5236008123529A9211F
:104650001241CBEE24020E0E024474E523700302D5
:1046600044787918121DDC124877E524603C7AE022
:104670007B031218287AF07B03790612182A7480BB
:10468000652170087521397522FB80067521297511
:1046900022FB78211212D7EEFCEFFD7A107902127C
:1046A00013A9740212120A1218247F0602129CEE39
:1046B0002407F521EF3400F522E524602E43C6409F
:1046C0000043C6400043C6400043C6400043C640C6
:1046D0000043C6400043C6400043C6400043C640B6
:1046E0000090FB0CE0700B12479200AE21AF22024B
:1046F00044788E828F83E0F526E8FEE9FF8E828F74
:1047000083E0A30EAF8390F9FDF090F9C7124775CF
:10471000E090F9E112477B90F9E212477B90F9268D
:10472000124775A3122B6090F927123C3D740F5568
:104730002690F925F090F9E5E526A2E4E092E2F072
:1047400090F9FEE526A2E5E092E4F0E526A2E6E097
:1047500092E1F079047C1A7DFB7AB77BF912496DFE
:10476000124131AE21AF2290F9C7E0F91215831240
:1047700017C4024478F08E828F8322124775A30EED
:10478000AF83E02290F9E5E0A2E7E492E090FBF449
:10479000F0227414F090FAF7121E92F075C6892276
:1047A00090FBDC122B647583FA7582F71247B022F6
:1047B000C3E098A3E0992274F812123DE9FE79143F
:1047C0007C667DFC7A0C7BDF12496D90FBEC124815
:1047D0007090FBEE743012487290FBF0743C1248FB
:1047E0007290FBF212487090FBDE744A12487274A9
:1047F0000A90DF07F0EEC3940D404D79067C607D92
:10480000FC7A0C7BDF12496D7410F090FBDE74486B
:1048100012487279037C7D7DFC7A237BDF12496D1F
:1048200079087C807DFC7A157BDF12496D74196EE6
:104830007023740A90DF07F074A990DF1CF090F9E0
:10484000C6E090DF0CF0800D79037C7A7DFC7A2342
:104850007BDF12496D79037A2F7BDF12494A790396
:104860007C887DFC7A027BDF12496D7F0102129CFD
:104870007450F0A3E4F022C082C08375C90B748029
:1048800090FFFFF080F574F512123D74FC1211FBDD
:104890008A218B228C238D24C2AF90DF0BE08541CF
:1048A00082854283F090DF0AE0C0E0740112123189
:1048B000D0E0F090DF09E0C0E07402121231D0E0E5
:1048C000F085418285428378211210C58541828519
:1048D0004283E090DF0BF07401121231E090DF0AA6
:1048E000F07402121231E090DF09F090FBE07821C1
:1048F0001210C5E490DF08F0D2AF740412120A7FE0
:104900000402129C74F312123D8035740369602F07
:10491000740969602AEA240CF582EB3400F5837887
:10492000211211048925752600740278251211E8D8
:10493000EA2525F582EB3526F58378211210F0095A
:10494000E9C39C40C67F0602129CC082C083C3EAB2
:104950009401EB94804011800BE48A828B83F0A356
:10496000AA82AB83E91970F1D083D0822274F81245
:10497000123DC3EA9401EB94804022801C8C828D0E
:1049800083E08A828B83F08C828D83A3AC82AD839B
:104990008A828B83A3AA82AB83E91970E07F01022C
:1049A000129C74F612123DE91960308A218B22851F
:1049B0002182852283A3AA82AB83ECFEEDFF8E8247
:1049C0008F83A3AC82AD83852182852283E0F88E1C
:1049D000828F83E06860D07901800279007F0302D2
:1049E000129C74F112123D8A218B228C238D247823
:1049F0002112092C90FC8B7825121104782579213D
:104A000012088F40067AFF7B7F801B90FC8F7825F1
:104A10001211047825792112088F50067A017B80C3
:104A20008004AA21AB227F0802129C74F112123D6D
:104A30008A218B228C238D24782112092C90FC93BF
:104A400078251211047825792112088F40067AFF03
:104A50007BFF801B90FC507825121104782579216A
:104A600012088F50067A007B008004AA21AB2280B6
:104A7000B56D4EC64139300000500030003C00504A
:104A8000000290067800DC0014001E0008005000B0
:104A90000417E701A8FD01320000F57172737C76FE
:104AA00070757476000102FFFF03FF0605414E4456
:104AB00053006C61724175677573740007417567C7
:104AC00075737400074175677573740007646AAA8B
:104AD00001013200010000803F00007A4400000024
:104AE000000000C8420000C8C117B7D1380E557386
:104AF000435900790701235945070014166C4340B8
:104B0000915610A90A00118135098831091D1CC769
:104B100040B2B610EA228545008000000180FFFF08
:104B200000000100AAAA0000FFFF2C7640022744E3
:104B300071AA35BAD3BC633D91ED1C3F000075C32B
:104B400000001C4595BFD63400009242B81EDD41DE
:104B500000C05AC5E17AC841000000000000F840DA
:104B600000800EC48FC2C74100006BC352B8DE3E46
:104B700000401C44CDCCFC40000005C4C3F5F84007
:104B8000008012C4414E4453006C617241756775D8
:104B90007374000741756775737400074175677515
:104BA00073740007204EBC02500000003075F00006
:104BB000B004F87F00000000FFFFFFFFFFFFF0F0F0
:104BC000000000AAFF78804DFFCB486654CB4866B2
:104BD00054CB486654ACC5A73717B75138010164A8
:104BE00064FF0201FFFF1701A49A38FF28001E008E
:104BF00003000400080050003F08F100F100FF89A5
:104C0000FFFF19466E645A0A070B3C0A18FC0A1487
:064C1000010000005555F3
:040000050000083FB0
:00000001FF
