:10080000E490F80078E279048002F0A3D8FCD9FAE9
:1008100090FBE1AA82AB8390488E78B7790180156E
:10082000E493A3AC82AD838A828B83F0A3AA82ABCC
:10083000838C828D83D8E9D9E71223730080FA75FF
:10084000D0007581467541007542F802080043AE3C
:100850000222E5AE20E7FB22A2E792D65002F40482
:1008600030F70663F0FF05F0B3400384800384F49F
:100870000430D60563F0FF05F022E066701008A38F
:10088000E066700A08A3E066700408A3E06622C36D
:10089000E7960809E7960809E7960809E796A2D2BD
:1008A00065D03322C3E09608A3E09608A3E096083B
:1008B000A3E09622080808E630E711121085120816
:1008C000CC080808C64480C618181822181818E959
:1008D000799EC608CAC608CBC608CCC6C3702079A4
:1008E00096CACBCC7019798ECBCC70137986CC702C
:1008F0000EF9802ACA33CACB33CBCC33CC33193070
:10090000E7F2CCCBCA3350147004EA30E00DE4CAED
:100910003ACACB3BCBCC3CCC500209C3E913C6CC82
:10092000182313C6CB18C6CA18C6F92212096C20A0
:10093000F01430E72B74FFFCFBFA747F8022E4FC98
:10094000FBFA7480801AB48008BC00F2BB00EF8010
:100950000F50EBF9E4C39AFAE49BFBE49CFCE499A6
:10096000C6CC18C6CB18C6CA18C6F922E4C9C60830
:10097000CAC608CBC6D3330308CCC63392F0C3949F
:100980007F402E94184019C9B90704CACBCC225015
:1009900025C309CA33CACB33CBCC33CC33D9F422E9
:1009A000F4600DC9CCC313CB13CBCA13CAD9F6CC90
:1009B00022E4FCFBFA2214FCFBFA22E6C3331846BD
:1009C0001846184622E7C333194719471947221812
:1009D0001818E6084608700AE608C3337005E633BF
:1009E000F4220822191919E7094709700AE709C30F
:1009F000337005E733F4220922E6084608C313469C
:100A000008336002E633F422E7094709C3134709B4
:100A1000336002E733F4221209F9601B120A0860FE
:100A2000161209BB70071209C5600CB322C0D012A0
:100A300009C57005D0D022C32233D0D0501330E086
:100A4000EBC3E7960809E7960809E7960809E796D1
:100A50002220E0E4E6970809E6970809E6970809E6
:100A6000E69722001209F9604F120A086012E75453
:100A70008066F61209CF70111209C5703B09090989
:100A8000F4F618F618F618F6221209E47015120991
:100A9000BB08080860EAE6447FF618768018E4F69A
:100AA00018F6221209BB60161209C57012E4F60886
:100AB000F608F608E65480F609090918181822EA1B
:100AC000C0E0EBC0E0ECC0E0EDC0E0E687F0A4FBE6
:100AD000ACF008E687F0A42CFCE435F0FA1809E63F
:100AE00087F0A42C4B60027401CA35F0FCE433FBA0
:100AF00009E687F0D2F7A42CCB35F0FC1908E6877D
:100B0000F0A42BCC35F0FBE433FD0819E687F0D2D6
:100B1000E7A42C4ACB35F0CD3400FC09E687F0D2AF
:100B2000E7A42DCC35F0FDE433FA0918E687F0D2BE
:100B3000F7A42CCD35F0CA3400FC08E687F0D2E7E4
:100B4000D2F7A42ACC35F07A7E20E70B0ACB33CB40
:100B5000CD33CDCC33CC33CB3350147004ED30E0F7
:100B60000ED2F1E4CD3DCDCC3CCC3B5005DA05C2F4
:100B7000F1EB547FC63308E63392F0FBE73309E725
:100B800033C39A502D2B70190C0D4C4D701518064F
:100B9000E608C333700D20F10AA2F013F6E41880C2
:100BA0000B4024E4F630F002768018F618F618F6BA
:100BB0008024D33B14501074FFA2F013F6187680F3
:100BC000E418F618F6800FA2F013F618E63303F6D1
:100BD00018ECF618EDF6D0E0FDD0E0FCD0E0FBD04C
:100BE000E0FA22120A0860461209F9603DE96870CD
:100BF00008F618F618F618F622748067F7120C1724
:100C0000090909748067F7221209F9601D120A08A0
:100C10007005191919801A1209CF701F1209E4C33F
:100C20007003E667331919194007181818220808C5
:100C30000874FFF618F618F618F6221209E4601781
:100C40001209C5702192F01209BB7019501720F0DB
:100C500014080808090909E7F61819E7F61819E74A
:100C6000F61819E7F6221209BB60E6E869701F085A
:100C700008E62480F608E436F618547FB47F0CE6C4
:100C800054806007F6E418F618F622181822E9C610
:100C9000CC08C6CD08C6CE08C6CFC0E0E8C0E0EAA2
:100CA000C0E0EBC0E009E9F809E7FA09E7FBE6F97B
:100CB00018E6F8C3EC98ED99EE9AEBC2E7F5F0EF81
:100CC000C2E795F0500E600CEBCFFBEACEFAE9CD0F
:100CD000F9E8CCF8EAA2E7D2E7FAEB33FB13F5F038
:100CE000EEA2E7D2E7FEEF33FFC5F013A2E730E64E
:100CF00001B313C5F0C3C0E0C0F07F00C39BFB602D
:100D00005B9418600C401AD0E023F9D0E0F8020D93
:100D1000E68AF0E9486003D2F0E4AFF0FAF9F8802F
:100D20003BEB30E40D89F0EA6003D2F0E4AFF0F978
:100D3000CAF8EB30E30D88F0EF6002D2F0AFF0E4D8
:100D4000CAC9F8EB54076014FBC3EA13FAE913F9B4
:100D5000E813F8EF135002D2E0FFDBEDD0E0C0E083
:100D600030E739C3E49FFFF5F0EC98FC42F0ED99D1
:100D7000FD42F0EE9AFE42F0D0E0F9D0E0F8E5F066
:100D8000607AE923F9EE20E742D8028067C3EF33A7
:100D9000FFEC33FCED33FDEE33FE80EAEC28FCED96
:100DA00039FDEE3AFED0E023F9D0E0F84002801B96
:100DB000C3EE13FEED13FDEC13FCEF135002D2E073
:100DC000FF08B800067F7F74FF802EEF3350178C2A
:100DD000F020F00260100CBC000C0DBD00080EBE2F
:100DE000000408E860DFE933E813FFEE2313FE4F49
:100DF0004D4C8008E95480FFE4FEFDFCEE33EF33F8
:100E0000F47004FCFD7E80D0E0FBD0E0FAD0E0F886
:100E1000D0E0CFC618CEC618CDC618CCC6F922125F
:100E200009F9700418181822120A08700D74FFF6D8
:100E30001819F61819F61819F622E7548066F612F2
:100E400009BB700F1209C570F014F608F608F60811
:100E5000F680D11209C5700CF608F608768008E60F
:100E6000447F80EC1209E7700C1209D260BFE6548F
:100E700080F6E480BB1209D2700519191980A5E823
:100E800069700C763F18768018F618F6E8F922E6B5
:100E9000CDC0E018ECC0E0E633CD33CDD313F6E798
:100EA00019FCE7191933CC33C3947F400ECD9D5004
:100EB0002408E65480F6E418F6800FF4043D14503C
:100EC0001408E6447FF6187680E418F618F6D0E0A9
:100ED000FCD0E0FD22CCD313CCFD18E4C6CBC0E09F
:100EE00018E4C6CAC0E00808ED08C633E613F618D1
:100EF000E433C675F003C3CA97CA09CB97CB199CD4
:100F000040047D08802EBD0003020FC816B6FF0501
:100F10000606081618C3CA33CACB33CB33CA27CA4E
:100F200009CB37CB193CC37D08803E187D0820E7EC
:100F30005CC633C6CA33CACB33CB33DDF1D5F0EB55
:100F400030E77BCA97CA09CB974ACB199C406F4BB5
:100F50007025E620E0218066187D08C3CA97CA097B
:100F6000CB97CB199CD3C633C6CA33CACB33CB334A
:100F700050C9DDE7D5F0E1D3E4C636C608C636C6AB
:100F800008C636C608C636C61818188031C3CA97B0
:100F9000CA09CB97CB199CB34097C633C6CA33CA8C
:100FA000CB33CB33DD34D5F02EC6A2E0C640C8CA61
:100FB00027CA09CB37194A70BECB3CB480B90808A0
:100FC000E63308E633601F181818D0E0FAD0E0FBCB
:100FD000D0E0FCD0E0FD22187D08CA27CA09CB3733
:100FE000CB193CD3808013F618E4B67F11F618B6FF
:100FF000FF0EF618C60470D20808768080CAF6186C
:10100000F618F680C5080808EAC0E0EBC0E086F0F4
:10101000E7A4FA180986F0E7A42AFA180986F0E787
:10102000A42AFA180986F0E7A42AFA1986F0E7A498
:10103000FBE5F02AFA190886F0E7A42BFBE5F03A65
:10104000FA190886F0E7A42BFBE5F03AFA1818091C
:1010500086F0E7A4C5F02BFBE43AFA1908E7C5F0DF
:10106000C6A426F6E5F03BFBE43AFA1886F0E7A4BE
:10107000F6E5F00826F6E43B08F6E43A08F6D0E098
:10108000FBD0E0FA22181818E4C396F608E496F6A6
:1010900008E496F608E496F6226016080808C6C327
:1010A00013C618C613C618C613C618C613C6D5E08D
:1010B000EA22E026F608A3E036F608A3E036F608B2
:1010C000A3E036F622E026F008A3E036F008A3E01D
:1010D00036F008A3E036F022C3E0C696F608A3E097
:1010E000C696F608A3E0C696F608A3E0C696F622D2
:1010F000C3E096F008A3E096F008A3E096F008A3FA
:10110000E096F022E0F608A3E0F608A3E0F608A3D4
:10111000E0F622E6F008A3E6F008A3E6F008A3E66E
:10112000F022CAC0E0E6F0A308DAFAD0E0FA22C35F
:10113000E498F8E499F91211708026C3E49AFAE46D
:101140009BFBE920E7E9121170E498F8E499F92291
:10115000C3E498F8E499F9121170E498F8E499F965
:10116000C3E49AFAE49BFB22EB20E7CFE920E7E017
:10117000B90010BB0008E88AF084F8AAF022E4FB6A
:10118000C8FA22EB70227B10C833C8C933C9335068
:1011900007C39AC3DBF280069A50012ADBEAC83300
:1011A000F4C8C933F4C9FA2275F008E4C833C8C9D1
:1011B00033C933C99AC99B5004C92AC93BD5F0EC3D
:1011C000FBC833F4C8E4C9FA22600D08C6A2E713CD
:1011D000C618C613C6D5E0F322600C08C6C313C6F2
:1011E00018C613C6D5E0F422700422600D18C6C3D9
:1011F00033C608C633C6D5E0F418222541C0A8C2BC
:10120000AF40021542F541D0A822C0D02541C0A868
:10121000C2AF50020542F541D0A8D0D0222541F5F9
:1012200082C0A8C2AF40021542F541D0A8854283D2
:10123000222541F582E43542F58322E4732541C538
:1012400082C0E0E54234FFC583C0E0E541C395823A
:1012500024F9C0A8C2AF858342858241D0A8CEF0D0
:10126000A3E520F0A37821E608F0A3DEFAEFF0A3CF
:10127000E58124FBF8E608F0A3E608F0A30808E6F9
:1012800008F0A3E608F0A315811581D0E0FED0E0B8
:10129000F815811581E8C0E0EEC0E0228542838523
:1012A0004182E0A3FEE0A3F5207821E0A3F608DF69
:1012B000FAE0A3FFE0A3C0E0E0A3C0E0E0A3C0E049
:1012C000E0A3C0E085A8F0C2AF8582418583428556
:1012D000F0A8D083D0822274028000C0E0F404120F
:1012E000121DD0E012112222D083D082C5F0E493E7
:1012F000A3C5F0C395F0F5F0E493A3C395F04005C2
:10130000E5F0048001E475F002A42582F582E5F0A1
:101310003583F583E493A3C0E0E493C0E022D08357
:10132000D082CCC0E0E493A360061213481470FA94
:10133000E493A360061213671470FAD0E0FCE49300
:10134000A3C0E0E493C0E022C0E0E493A3D39C50A8
:1013500010E493A3C39C400AD0E0D0E0D0E0021395
:101360003BA3A3A3D0E022C0E0E493A36C7009D018
:10137000E0D0E0D0E002133BA3A3D0E022C082C0C3
:1013800083740149F5B37C10800C8A828B83E0F56D
:10139000B1A3AA82AB83EC1C70F0D083D0822280F0
:1013A0000100E5B3A2E350F92274F712123D89223D
:1013B000ECFEEDFF7409121231E0F8A3E0F9888227
:1013C0008983EAC4540FF5218015E5B2F0A3EB1B25
:1013D00070F812139F1521EE2410FEEF3400FFE584
:1013E000216016EEFAEFFBA92212137D7B0C80011F
:1013F00000EB1B70FB7B1080D57F0202129CC08229
:10140000C08390F876E054F0F0741390F875F0749F
:10141000DF90F86FF074D990F870F074F890F8716C
:10142000F0742590F872F0748090F873F074259041
:10143000F874F0741090F876F074F8F5D575D46FF0
:1014400090F87EE054F0F0741390F87DF074F8900A
:10145000F877F0744A90F878F074DF90F879F074C7
:10146000D990F87AF0742090F87BF0742390F87C8F
:10147000F0744090F87EF090F886E054F84408FA52
:10148000F0741290F885F090F883E0541FF074DF48
:1014900090F881F074AF90F882F0E490F883F074E3
:1014A000F890F884F0740F5A444090F886F074F87D
:1014B000F5D375D277D083D0822274F612123DEA2A
:1014C000FEEBFF8C218D22892312085275AB2AEF87
:1014D00090F87FF0EE90F880F090F883E054E0F020
:1014E000E52390F884F0AA21AB2274097821121127
:1014F000D9E521F5ADEBC313EA13F5AC53D1FBD21B
:10150000B875D60412084E79017F0302129CC0827E
:10151000C08390F888E4F0A3F07980FC121558D0CD
:1015200083D08222C082C083C2B890F887E0602650
:1015300090F888E02480F0A3E03400F0E490F8878D
:10154000F0C390F889E09480500C798090F888E09E
:10155000FCA3E012155880C7FD7A8A7BF812478AEF
:10156000798090F888E0FCA3E0FD7A8A7BF8121479
:10157000BAE990F887F0227A177BFF00DBFDDAF9F1
:10158000D9F52274F112123D7C19800F75F00AEC26
:10159000A429C0E0EC12165BD0E0F0EC1C70EDE981
:1015A000F5257526007527007528007C0090FBE165
:1015B00078211211047825792112100590FBE57825
:1015C000251210B2852521852622852723852824EA
:1015D0007410782112109974FF5521F8747F5522E8
:1015E000F97A197B001211708C23E523240AF8E4A0
:1015F00034F9F988828983E0FDEA240AFAE434F9AF
:10160000FB8A828B83E088828983F0ED8A828B83D8
:10161000F00CECC3941940957F0802129CC082C064
:10162000837B19EB1B8B82A882600C90DF06E0FAAB
:10163000E81216566A70EC75E10474012808E43467
:1016400000F97A197B00121168EA12165690DF062B
:10165000F0D083D0822212165BE022240AF582E4C5
:1016600034F9F5832274E912123D892190FB4F78F9
:101670002512110490FC407829121104782579294B
:10168000120A17503275251F75268575277B752818
:101690004090F95B782912110490FC44782D1211C6
:1016A000047829792D120C0878257929120E1F90BB
:1016B000FB4F782512111375220075230075240045
:1016C00078211208CF90FB4F7825121104782179E8
:1016D00025120A6390FC4878251211047821792597
:1016E000120C08782112092CA821C3E5229401408C
:1016F0000278FFE8F97F1002129CC3EA9401EB1212
:10170000235A4005EAF8EB8006C3E49AF8E49BF913
:10171000E8FAE9FB2279037C387DFC7A097BDF1249
:10172000478A2274F812123DE9FEEAFF800579012A
:10173000121D5C90F53AE0641060F3121845539B5B
:10174000FCE59B53E9EF75911074326E700C90F9C3
:10175000FEE0A2E1500479198002EEF91245D4EFBF
:1017600090DF06F074326E700590F9E4800390F912
:10177000E0E090DF2E12413EF090F9BDE090DF01F5
:10178000F090F9BEE090DF00F0439A01022B82C096
:1017900082C083E9FA90F9E5E0A2E650047932804C
:1017A00002790C121723021AEAC082C08375D6830D
:1017B000E9601C90F9E5E0A2E6401490F9E3E0FA54
:1017C000793212172390F9E2E090DF05F0800312DE
:1017D00017D5021AEA90FB07E0F912178F22C08290
:1017E000C08375D68312184579047ADD7BFB1247D6
:1017F00067E490DF08F012171512183890F9E5E049
:10180000A2E6500590FB07800390F9C7E0F9E99044
:10181000FB07F012178F79067A217BFB124767903E
:10182000FAFFE4F0A3F0FA79011234B412347D1215
:10183000185390FB11021AE97A837BF97904121389
:101840007D12139F2275E10412346274F0F022902D
:10185000FB07F090FB29E02410123468E4F0A3F0B9
:101860002274F112123D75FD00758FFFE5F275F2DD
:10187000FF7A00752101752200EA78211211E8E54E
:101880002145F2F5F20AEAC3940840E775F4C07501
:10189000FEDB75CB5075CC2475CE2475F12075F523
:1018A0002079127AEA7BFA12476775F300E490DF39
:1018B00008F090F9C7E0F91215831213FE121715FC
:1018C0001217D575210075220075238075243F906D
:1018D000F93F782512110478217925120E1F90FA0C
:1018E0001F782112111343CB14E5CBD2B9D2A943EF
:1018F0009A01021A3DC082C08390FA02E0FA601A8F
:1019000090F9DEE0FBEAC39B5003EA8001EBFC8C1C
:10191000CD90FB29E0241E122699D294021AEA7473
:10192000F112123D8A218B228C238D2490FB5312BD
:1019300026D3782512110478257921120A63121909
:101940007A782112110478257921120C08021A35AF
:1019500074F112123D8A218B228C238D2412197A64
:10196000782512110478257921120BE390FB53128C
:1019700026D37821121104021A2E90FB531226410D
:101980002274F112123D892175220074027821120D
:1019900011E8E52124B4F582E52234FAF5837821B3
:1019A00012110478211208B490F93F78251211041D
:1019B00078217925120A6390FB5578251211047855
:1019C000217925120A63AA21AB22AC23AD24121976
:1019D00050021A3D74F112123D90FB531226D37837
:1019E000211211047D018A828B83782512110478DB
:1019F000217925120A638D25752600740278251237
:101A000011E890FB53E02525FCA3E035268C82F5F8
:101A100083782512110478217925120C080DEDC365
:101A2000940440C2AA21AB22AC23AD24800F7825B8
:101A30007921120A63AA25AB26AC27AD287F0802BC
:101A4000129CC082C08379F27C007D5C7A237BF992
:101A500012478A90F923E064AA7004A3E064AA7094
:101A60000E90FA13E064557004A3E0645560207989
:101A7000F27C447D497A237BF912478A12228F90A7
:101A800003DCE090F9DEF09003DDE090F9DFF0E4B4
:101A900090FB1B8054C082C08374FF90F9C7F09004
:101AA000FB071222A1C2E4F0D2E2F090F9FEE0C2FC
:101AB000E41222A1541FF0E490F9BFF079207C18C1
:101AC0007DFC7A837BF912478A90F9BD74F0123F4E
:101AD00026790C7CD07D037A237BF912478A740126
:101AE00090FB1BF01217DE8001F0D083D0822274AD
:101AF000F112123D90F93F782512110490FB651206
:101B00001D421208CF78257921120E1F90FB5978BB
:101B10002512111390FB537463F0A374F9F090FB3A
:101B200067121D421208CF90FB59782512110478D4
:101B3000217925120A63AA21AB22AC23AD24121904
:101B40001F1248488A218B22AE21AF22A293404027
:101B5000A294501990FA12121D36EE98EF99500D7A
:101B600090FB29E0241412264FC2948023A29440B3
:101B70001F90FB17E0601990FA11121D36E89EE9DC
:101B80009F500DE490FB17F0122318D2931218F512
:101B900012268A700512267E600F90FB27E0240B28
:101BA0001233897401F0021D2BE490FB16F090F9BA
:101BB000BFE06022F875F0E8A4C8AAF075F003A4AD
:101BC0002AFAE42AF9EE98EF9950047A0180027A11
:101BD00000EA90FB16F090FA10E0FB603175F064BB
:101BE000A4F8AAF0E42AF9EE98EF9950047A01805B
:101BF000027A00EAFC90FB1BE07008EC6024121AE9
:101C000095801FEC701CEBFE121A42EE800A90FBCE
:101C10001BE0600E121A42E490FA10122298F012A1
:101C200017DE12268A6003021B9A12267E600302C8
:101C30001B9A90FB53746BF0A374F9F090FB69123C
:101C40001D421208CF90FB59782512110478217992
:101C500025120A63AA21AB22AC23AD241219508AA3
:101C6000218B228C238D24782112092CAA21AB22CE
:101C700090FA03E06010121D52500B740190FB713A
:101C8000F0C294021D2B90FA06E0F5217003021DAC
:101C90002B74FF65217003021D2B90FB6FE0700217
:101CA000A3E0600990FB6F121E0A021BA5752200BB
:101CB000740378211211E890FB6FE521F0A3E5226F
:101CC000F090FB71E0603590FA05E0F8C3EA98EB1C
:101CD00012235A5019A29440031218F590FB0FE0FA
:101CE00090FB0EF0121D2EE490FB71021BA5A29436
:101CF000503990FB0EE0603314F0802CA294502BEE
:101D000090FA04E0121D52502290FA09E0FB90FB79
:101D10000EE0FAEBC39A5003EB8002E014F074017A
:101D200090FB71F090FB0EE0121D2E021A3DF9128D
:101D30001665E9F5CF22E075F064A4F8AAF0E42A6C
:101D4000F922E0F521A3E0F522752300752400783F
:101D50002122C39AE49BA2D265D0332274F71212D7
:101D60003D90FB29E0241CFAA3E03400FB89217498
:101D7000012521F8E43400F9123F36800563900410
:101D8000E5908A828B83C3E09401A3E09400C3654D
:101D9000D03350E98A828B83E4F0A3804B74F7122E
:101DA000123DC29475FEDB7E008E21752200740AFE
:101DB00078211211E8122612E8FAE9FB8A828B8355
:101DC000A3A882A9838A828B83E064FF70047A01CE
:101DD00080027A001226066006C3ED940440D90EF4
:101DE000EEC3940F40C38001F07F0202129CC082B8
:101DF000C0838A828B83121E0AF08A828B83E070F2
:101E000004790180027900021AEA121E0E22E024EF
:101E1000FFF0A3E034FF2274F712123D7E00EEF8CB
:101E200090FB27E028123F447003021FCEE4F0EE3F
:101E300012131E000501711E02461E036B1E09F0DF
:101E40001E0B771EC41F90FB19E0600B7900121760
:101E5000A912341D021FC490F9E5E05460642060AB
:101E600003021FC490FB13E0F980E3122B87021FCB
:101E7000C4122C3B021FC490DF3CE0A2E25014903D
:101E8000DF3BE0C3940D400BE0C3941050051222D9
:101E9000EF802D12268A70F612267E70F1123F5FB7
:101EA0001223525006E87001E970E31233A812239E
:101EB000525006E87001E970D57A0179001234B405
:101EC00090FA0B1233627583FA7582DCC3E098A333
:101ED000E099A2D265D0334003021FC4E490FB0E08
:101EE000F075CF0090FB29E024181222CF021FC307
:101EF0007AFC7BFB121DEEE960061217DE12262B20
:101F000090FBFEC3E0940AA3E09400500312228FDA
:101F10001233DD4007E490FC3BF0800990FC3BE08D
:101F20006003021FC490F9E5E0A2E74003021FC46A
:101F3000A2E6504A7AF67BFB121DEEE96013123FCF
:101F40008890F9E5E0C2E6122298F0F912178F8026
:101F5000737AF87BFB121DEEE960691233BA90FBCD
:101F600007E0F890FA01E028F8E43400F97AFA7B07
:101F700000121168EA90FB07F090F9FD80CC7AF42A
:101F80007BFB121DEEE96027123F5290FBFAE4F052
:101F9000A31222A1D2E6123F7264FF700890F9C723
:101FA000E090F9FDF0E012184F90FB07E0809C7A7A
:101FB000FA7BFB121DEEE9600B1222BE12337BE8A6
:101FC000F0A3E9F012268A700F12267E700A0EEE38
:101FD000C394105003021E1E7E00EEC333F8E43398
:101FE000F990FB29E028F8A3E039F988828983C3B6
:101FF000A3E012235A400302228288828983E4F0FC
:10200000A3F090F9DEE0FBEE1212E8020D82222B23
:10201000203A20AB212221392182226321C82127A5
:1020200021BC21822233228222072275C9A875C9C8
:1020300058122638F0A3E402228190FB12E07003CC
:1020400002228214F0E490F538F090DF05E0FA9077
:10205000F9E2E06A70047A0180027A00EA90FB7487
:10206000F090FB1CE0700302228290FB74E070127F
:10207000123ABC642070047A0180027A00EA90FB74
:1020800019F090FB18E0601C90FB0BE0601690FBD1
:1020900018E014F090FB0BE014F0701090FA1DE4BF
:1020A000F0A3800790FB10E0600214F079007A4AF8
:1020B0007BF8122BEF90F9C1E0FA700302228290B4
:1020C000F9C0E0FBEAC394084009EBC3940840035D
:1020D000022282EB6008C39A50048B2180028A217D
:1020E00090FB29E024061222DD5013E521C394134E
:1020F00050271222FC74FF2A1A74FF3B80117401CE
:102100006521701590FBF2E024FFFAA3E034FFFB99
:102110001222A79400122340F090FC3CE0640102DC
:102120002281C293022282E5CD6B7005D2940222F5
:1021300082740190FB1702228190F9DCE0700D900F
:10214000F9DDE06007D293122318800890F9DCE0F3
:10215000A2E0929390F9DDE070030222821218F55A
:1021600002228290F9E5E054506410703E123477F8
:1021700070081222B4740102203490FB11E0FA744A
:10218000FF2AF0EA60121222BE90FBF21233B6125E
:1021900022B4EAF0A3EB800B90F9C7E090FB07F0C4
:1021A00090DF06F012265AE4F0A3F079001217A986
:1021B000740190FB19F012341D02228212269390B2
:1021C000FBFE121E0A02228112232312335F758343
:1021D000FB7582F2E0C398F8A3E099F974F628F849
:1021E00074FF39F990FB29123398A3A3A3A3A31278
:1021F0003F3A1233D3F090FB13E0600214F090FBEF
:1022000014E0607E14807AE5CDC39B507590FA0D82
:10221000E0FCE5CDFAEC70057C0180010AEC1C6065
:1022200005EAC39B40F68ACD90FB29E0241E1222CA
:10223000CF804EE490F538F012286790F9C1E0F5B0
:1022400021603F90FB29E0241A1222DD500FE52186
:10225000C39413502D1222FC1222A780177401651B
:1022600021701F90F538E0FA7583FB7582F2E0C3A8
:102270009AFAA3E09400FB74FF2A1A74FF3B12231E
:1022800040F00EEEC394105003021FDA021DE91253
:102290001A95E490FB1BF022F090F9C7E090FB0741
:1022A00022F090F9E5E02290F538E0F521EAC395B7
:1022B00021FAEB2290FB29E024101234682290FBD3
:1022C00007E090DF06F012161DE090FB07F02212E7
:1022D00022D32212346C74D0F0A3740722F8A3E046
:1022E0003400F990FC3CE0FC90F9E5E0A2E2229099
:1022F000FB27E0240B1234687401F02212230FEA4A
:102300008521F0A4FAAFF08521F0EBA42FFB2290F9
:10231000FBF2E0FAA3E0FB22123F7F74D0F0A3743B
:1023200007F02290FBF2E0FAA3E0FB90FB29E02407
:1023300012123468800488828983EAF0A3EBF022C9
:10234000FBEAC39CFAEB9400FB88828983EAF0A342
:10235000EB22123366C3E8941DE99400021D56EE89
:10236000C0E0E9FE80057964121D5CEE1E70F7D0B6
:10237000E0FE2274AA90F53BF0741090FFFFF090FD
:10238000DF36E06481600312469490FFFEE0645AF9
:102390007003022532745AF0D2B97E007F008E217C
:1023A0008F22740A78211211E8122612E8FAE9FB4A
:1023B0008A828B83A3A882A9838A828B83E064FFAD
:1023C00070047A0180027A001226066009C3ED9437
:1023D0000440D9121D9DEE24010EEF3400FFC3EE20
:1023E000940FEF940040B790FC04E024301233893E
:1023F000749EF0A37426123458243212338974F375
:10240000F0A3742612345824341233897424F0A3B0
:10241000741512345824371222F5123F487478127A
:102420003455245D12338974281234552420123314
:102430005890FB27123F3A90FC0412336290FB291C
:10244000123F3A90FC04E0243812335890FB721289
:102450003F3A741855BEC313131390FB0DF079F077
:102460007A237BF9124767121A4279047CF37DF9CB
:102470007AFC7BFB1229ED500590F9FD800390F961
:10248000C7E0FAEA90FB07F01245A590FB0DE012B9
:1024900012E80003D924AD24AD249E24AD24D293A8
:1024A000D29490F9DEE0F5CD12266E802C90FA02DF
:1024B000E0FA60048ACD800690F9DEE0F5CDC293A3
:1024C000C294D29312266E90FB29E0240C12264F60
:1024D00090FB29E0241812269979907A247BFA122D
:1024E000476712186112269312265A740212334C4F
:1024F00012263812334C122323121838123F655318
:10250000E4FCE5E475E30075E20075DB0275DAEDE5
:1025100043E406E5E475E544790A12235F79047C17
:10252000F37DF97AFC7BFB1247BFE9600312469406
:10253000C291122BBC1217DE8011EA7001EB700BF6
:102540008882898374D0F0A37407F090F53BE0642F
:10255000AA600312469490DF36E06481600312465D
:102560009475C908121E1712268A70DF12267E7013
:10257000DA90FBF2C3E09491A3E09406500A90FB3A
:10258000F2E07002A3E0700A90FBF27490F0A37482
:1025900006F090FB29E024121226257583FB758234
:1025A000F2C3E09AA3E09B500312264988828983F4
:1025B000E07002A3E0700312264990F9F31233B6DB
:1025C00090FBFC123362C3EA98EB99500690FBFC37
:1025D00012233A90FBFCE07002A3E0700312262B5A
:1025E00090FBFEE0700312469490FB29E024161243
:1025F0002625C3EA94D1EB9407A2D265D0335003C9
:1026000002253A022540EAFBEC24010CED3400FDE2
:10261000EB222400F874083522F9741090FFFFF0C3
:102620007C007D0022123AC602231390F9F3123384
:102630006690FBFC123F3E2212263E747D2290FBE8
:10264000291226DBA3A3A3A32212230F02233612EF
:1026500034687470F0A37417F02212265E2290FB87
:1026600029122665221226DFA3A3A3A380D690F900
:10267000DFE0F990FB0EF090FB0FF0021D2F90FBB6
:1026800028E0F5838882A3A3E02290FB271226D7B7
:10269000A3E02290FB29E024161222D3F022C0826C
:1026A000C083E490FB0A1226E8041226E8C39404CF
:1026B000500A1226D0A3A3740812334C90FB0AE0F0
:1026C0002406F582E434FCF583E0F5B6021AEAF05C
:1026D00090FB291226D7221226DB221226DF22E0C7
:1026E000F8A3E0F583888222F090FC04E0243612FF
:1026F0003AC62274F512123DE5BBF522E5BAF52182
:1027000090FB0AE0FC74012CF0740278211211C9CC
:1027100090FC3DE02521FAA3E03522FBECC333F821
:10272000E433F9E824EAF582E934FAF583E02AF0A3
:10273000A3E03BF090FB0AE0C394095010E02406AC
:10274000F582E434FCF583E0F5B602281990FAFC32
:10275000E004F0C39408500302281490FAF0E0FE5D
:10276000A3E0FF7CEA7DFA7A5D7BFB90FB09E0C386
:1027700033F8E433F9E82424F8E934FAF975230945
:102780008C828D83E0F521A3E0F52288828983E5A0
:1027900021F0A3E522F0C3E5219EE5229F50098A9E
:1027A000828B83E4F0A38015E521C39EF521E52209
:1027B0009FF5228A828B83E521F0A3E522F0E824AD
:1027C00010F8E93400F9EA24020A0AEB3400FBECC1
:1027D00024020C0CED3400FD1523E52370A290FBC0
:1027E00027E0240BF8A3E03400F988828983740180
:1027F000F079127AEA7BFA124767E490FAFCF090DB
:10280000FB09E004F06408700B740190FB15F0E420
:1028100090FB09F0E490FB0AF07F0402129C74F72D
:1028200012123D7A937BF9790612183E75214C7588
:1028300022F878211212D77C007DF87A20790012D4
:1028400013A9740212120A742290F84AF090F9E265
:10285000E090F84BF0740190FB1C021DE879067CB7
:10286000297DF912478A2274F112123D74FC12116B
:10287000FBE490FB18F090FB0BE0601E90FA1DE06B
:1028800064787004A3E064FB7005122A428003128E
:102890002B40740190FB180229D890FB15E07003BF
:1028A0000229DC90FA15782112110490FA19782582
:1028B00012110478217925120C0885418285428302
:1028C00078211211137E327F007A0079001234B41D
:1028D00090F9FEE0A2E7790450067C1D7DFB800A9A
:1028E000854182854283AC82AD837A007BF81247B2
:1028F0008A90FB07E090F804F074185590C333C039
:10290000E090F925E0540FFAD0E04A333354FC123A
:102910002A3679107CD87DFA7A0C7BF81229ED5092
:102920000A90DF061229E47434800CA2E5500D9061
:10293000F9E31229E4743328FEE439FF90F9E5E065
:10294000A2E75008EE2404FEEF3400FF90F9FEE009
:10295000A2E15008EE2408FEEF3400FF90FB14E0E3
:102960006008EE2410FEEF3400FF90F81AEEF0A39A
:10297000EFF090FB2DE07002A3E0600790FA23E0F7
:10298000FA80027A3FEA90F81CF090FB2DE070028A
:10299000A3E0700B90FB7612336290FB2D800990C0
:1029A000FB2D12336290FB76123F3A90FB2DE090A4
:1029B000F81DF0A294500BE5CD90F81EF090FB0EA0
:1029C000800B90F9DEE090F81EF090FB0FE090F89D
:1029D0001FF090FB2DE4F0A3F012281E74041212D5
:1029E0000A021A3DE075F064A4F8A9F02212478AA1
:1029F00090F9E5E0A2E62274F812123D8921EAFE80
:102A0000EBFF7904EEFCEFFD7A007BF812478AE5D4
:102A10002190F804F090F925E0333354FC4403127C
:102A20002A367914EE2404FCEF3400FD7A0C7BF88E
:102A300012478A022B8290F805F07A067BF812285A
:102A40005D2274ED12123D7E787FFB7521008006B9
:102A5000740465216048852123752400740378235C
:102A60001211E8E523244BF582E52434F9F5837847
:102A70002512110490FC4C7829121104782579292B
:102A8000120A63AA25AB26AC27AD281248488E82CD
:102A90008F8312233AEE2402EF34000E0EFF05213D
:102AA000E521C3940740A990F94F7821121104AA97
:102AB00021AB22AC23AD241247FF90FB8412233AB2
:102AC00090F95F7821121104AA21AB22AC23AD2426
:102AD0001247FF90FB8612233A90F9777821121162
:102AE00004AA21AB22AC23AD241247FF90FB88122D
:102AF000233A90F97F7821121104AA21AB22AC234A
:102B0000AD241247FF90FB8A12233A90F93B7821BB
:102B1000121104AA21AB22AC23AD241247FF90FB73
:102B20008C12233AE5CD90FB8EF090FB0EE090FBEB
:102B30008FF07A787BFB79EC1229F77F0C02129CDC
:102B400074F812123D90FB0BE0F874FF281874FF24
:102B50003400F990FC00E0FA7B00121168E8FC9068
:102B6000F9FF7440F0A3742BF0EC75F018A4F8A9E9
:102B7000F090FA1DE028FAA3E039FB74ED2CF9126D
:102B800029F77F0102129CC082C08374FF90F80075
:102B9000F090F801F090F802F090F803F079067CDC
:102BA0001D7DFB7A047BF812478A7A0A7BF812288B
:102BB0005D12281E741290F84A021AE974F8121273
:102BC0003D7E7F90FB90E070247401F090FB1AE052
:102BD000701B53BEFB80057902121577E5BEA2E695
:102BE0004004EE1E70F10075C68943BE048093C098
:102BF00082C0838A828B83E0FC74226C600574122D
:102C00006C703590FB16E0702F75E10490FC04E0C9
:102C1000243AFCA3E03400FD8C828D8374F0F0EB49
:102C200090F877F0EA90F878F01217A912345E74F1
:102C300010F075D60275E103021AEA74F112123D22
:102C400090DF38E0FF90DF08E0F521E490FB19F019
:102C500090FAFDF0A3F090F825E090FB981222A1E5
:102C60005460FA90FB98E02427F582E434F8F58369
:102C7000E0A2E7500D90FB98E06422601CE0641233
:102C8000601774206A700790FB13E0F980027900E6
:102C90001217A912341D02334990F826E0FB742064
:102CA0006A701B90F9E2E0FC6B701390DF05E06C3A
:102CB000700C79007A257BF8122BEF02334990F9DA
:102CC000E1E06B600302333790DF3CE0A2E75004A1
:102CD000D2F08002C2F0A2F0E492E0FE74206A70AA
:102CE0000979017A257BF8122BEF90F538E090FBFB
:102CF0000512334C7A937BF9790612183E7523003E
:102D00007524F878231212D77C277DF890FB98E081
:102D100024FEFA79021213A9740212120A90F80022
:102D2000E090FB97F090F801E090FB75F079067C5D
:102D3000027DF87A917BFB12478AE0541FC39411FD
:102D4000400302333790FB95C3E094E8A3E094037B
:102D5000400302333790FB9178251211047583FBF1
:102D600075822178251208A4402879047C217DFBF6
:102D70007A917BFB1247BFE9600302333790FB95E2
:102D800012336290FB25E0687003A3E069700302D0
:102D9000333790FB9178251211047583FB758221DE
:102DA00078251208A4402479047C217DFB7A917B4C
:102DB000FB1247BFE9701890FB951233627583FBD5
:102DC000758225C3E098A3E09950047A0180027AC5
:102DD000008A2390F538E090FB0312334C1233DD68
:102DE0004005E490FC3BF090FB98E02426F582E45B
:102DF00034F8F583E0F525C394805010E525C3131E
:102E0000FA90FBDB123370F8E4998017E42525F87B
:102E100074FF13E813F890FBDB1233B6E8C39AF89B
:102E2000747F9BF990FB2D123F3A90F9E5E0A2E602
:102E3000406EEFC39401A2D265D033EF400EC3942D
:102E400002A2D265D03340177F018013C312235AE8
:102E5000500DEFC394FFA2D265D03350027FFFE53F
:102E600021F83395E0F9EFFA3395E0FBEA28F521F4
:102E7000EB39F522AA21FB1216FAC3EA9461EB1290
:102E8000235A4016740278211211E8AA21E522FB88
:102E90003395E0FCFD1246A38006E52190DF08F0A3
:102EA000EE700302333790FB14E0600214F090FCE4
:102EB00001E06009E41226CF747812334C6390026B
:102EC000E590741290FB12F079047CF37DF97AFCA2
:102ED0007BFB12478AE523600D79067C917DFB7AA6
:102EE000217BFB12478A90FB75E0A2E750047A0130
:102EF00080027A0490FBE91233CB90FB75E0F87402
:102F00001F58F8EA28F8E43400F9E88521F0A4C84D
:102F1000AAF08522F0A42AFA8521F0E9A42AF990E2
:102F2000FBEFE028F8A3E039F990FBF2E8F0A3E921
:102F30001226CF12336290FB05123F3A90F9C5E09A
:102F4000604090FB75E0541F75F003120858E5F0DF
:102F5000F83395E0F97402280808E439F9E87001BB
:102F6000E9701F90FC3FE014F0701790F9C4E0F88E
:102F700090FB2912339FE812334C90F9C5E090FC86
:102F80003FF090F9E5E0A2E650047A0080027A046E
:102F900090FB29E0241A123358E8FCE9FD90FB97D6
:102FA000E07034E490FB1CF0740AC39AFAE4123423
:102FB00007F079067C917DFB7A1D7BFB12478A1214
:102FC00033A8C3E09401A3E012235A507288828987
:102FD0008374FFF0A3806790F9C1E0FE90FB97E057
:102FE000F8EEC398F8E49400F990F9E5E0A2E2EE77
:102FF000502E604BC3E89413122359504290FBF2B9
:103000001233CBE88521F0A4C8AEF08522F0A42EBF
:10301000FE8521F0E9A42EF9740A28F8E439801518
:10302000601D7401687001E9701590FBF2E0240ADC
:10303000F8A3E03400F9E8C39AFAE9123407F0740F
:103040000890FB13F090FB29E0240812335890FB02
:10305000E91233B67583FB7582F2E0C39AFAA3E0F6
:103060009BFB74EE2AFC74FF1233F590FB97E09003
:10307000FB08123F22403190FB29E02410FAA3E024
:103080003400FB90FB75E0A2E65011888289831220
:103090003362123F36740890FB11800BE490FB11F1
:1030A000F08A828B83F0A3F090FBF2E02401FAA374
:1030B000E0340012232A90F9E5E0A2E690FB2D50BF
:1030C0001CC3E094A2123351400E1233BA90F9EDB2
:1030D00012336290FBF6801D1233D3801CC3E09440
:1030E0009B12335140F290F9EB12336290FBF412D1
:1030F0003F3A12337BE8F0A3E9F090FB97E0FC74D1
:10310000FF6C600C90F9C0E06006F5F0EC84ACF068
:1031100090F925E0FD12335FE88DF0A4F8AAF08D58
:10312000F0E9A42AF990FBEDE028FAA3E039FB903E
:10313000FB03123370FAEB99FB90FB29E024061293
:10314000335890F926E0FE74FF6C600FEE6C700B44
:1031500088828983EAF0A3EB0232988C21EEC39532
:1031600021F521E49400F52290FB75E0541FFF90B7
:10317000F9C1E0F52390F9E5E0A2E2E523504460CF
:103180007174FF6E606CECC39E4003023299C3E51C
:10319000219413E52212235A4003023299EDC39F72
:1031A000400302329990FBF212338DCCAEF08522AF
:1031B000F0A42EFE8521F0EDA42EFDEA2CFAEB3DC5
:1031C000FB808D602D74FF6E6028ECC39E4003026F
:1031D0003299740165217002E5226003023299ED93
:1031E000C39F400302329990FBF2E02AFAA3E03B2E
:1031F00080CE74FF6E600302329974FF6D6003022B
:10320000329990FB75E0A2E7500302329990FB29B6
:10321000E0241AFAA3E03400FB8A828B83E4F0A353
:10322000F090FB0CE0600314806E53B4F3E5B443FC
:10323000B404E5BDC0E090FA08E0F5F0D0E0849079
:10324000FA07AAF0E02A90FB0CF090FB75E0FA7404
:103250001F5AF52190FBE912338DFCAAF08521F06D
:10326000EDA42AFDE5BC75F0058485F02190FBEB0B
:103270001233B6EAA4FAAEF08521F0EBA42EFBEAF5
:103280002CFAEB3DFB90FBEDE02AFCA3E01233F5BA
:1032900090FB271233987401F088828983E07002D2
:1032A000A3E060347AFA90FB98E0641270027A101E
:1032B00090F9E5E0A2E6501090F9FEE0A2E150049A
:1032C00074F3800274F62AFAEA3395E0FB88828967
:1032D00083E02AF0A3E03BF090F9E5E0546064203D
:1032E00070057905121D5C90FB98E024F6F91242F6
:1032F0005990F9E5E054486408702390FBF4C3E06A
:1033000094C8A3E09400501690FB98E02425F58221
:10331000E434F8F583E090DF06F090FB07F090FBD3
:1033200029E02406123389C3A3E012235A500888E7
:10333000828983E4F0A3F079001217A990F9E5E0FF
:10334000546064207003022C87021A3DF0A3E4F05D
:1033500022A3E094FF021D56F8A3E03400F9229066
:10336000FBE91233662212336A22E0F8A3E0F92265
:103370001233742212336AEAC3982212337F2290E6
:10338000F9F112336A90FBFA2212346822E0FCA3AE
:10339000E0FDEC8521F0A42212339FA3A3A322E039
:1033A000FAA3E0F5838A822290FB29E0241A1234E2
:1033B00068228E828F83122312221233BE2290F94A
:1033C000EF12336A90FBF8123F3E22E0F521A3E0B2
:1033D000F5222290FB27122661A374012290FB01A3
:1033E000E02401F0A3E03400F090FB01C3E094334B
:1033F000A3E09400223BFD90FB03122312ECC39A3E
:10340000FAED9BFB0223369400FB90FB031233740E
:10341000F8EB99F98C828D83E8F0A3E922C082C091
:1034200083123477700512347D802775E10474F0BF
:10343000123458245F12185990F825F090F826F0AD
:1034400012345E7420F0742290DF02F075D601759C
:10345000E102021AEAF0A3E4F090FC04E022123444
:10346000622290FC04E0243A12346C22F8A3E03487
:1034700000F98882898322123AC064102212265EE3
:10348000740102334C74F112123D90FB9D782112AD
:1034900011048A828B8378251211047821792512F0
:1034A0000A6390FC40782512110478217925120CCA
:1034B00008021A2474E112123D89238A2490DF083D
:1034C000E0F83395E0F990FB2B123F3A7AB47BFA9F
:1034D0007521247522FA90FB27E02401F525A3E04D
:1034E0003400F526852582F583E0701490FB27E0F3
:1034F0002402123358882789288882F583E06006E1
:103500001222EF023A92E524605490FB09E0F81889
:10351000740758C3332424F521E434FAF5227909D9
:10352000852182852283E0FCA3E0FD8A828B83ECE7
:10353000F0A3ED12334CA3F0123AA1E5212410F5CB
:1035400021E5223400F52219E970D590FC021233EE
:10355000627A087B001211688829E90235DF752933
:10356000007C0890FC50782D12110490FBA1782D5E
:103570001211138027852182852283E0F52DA3E097
:10358000F52E752F0075300090FBA1782D1210C517
:10359000E5212402F521E5223400F522EC1C70D54A
:1035A000852582852683E060030235008527828990
:1035B00083E0600302350090FBA1782D1211048A8C
:1035C000828B83782D121113123AA10529E529C3A4
:1035D0009409408D90FC02E0F521A3E0852129F5B6
:1035E0002A3395E0F52BF52C90FAC078291210C5F6
:1035F000852582852683E060030235008527828544
:103600002883E060030235007C0979007AB47BFAF4
:10361000124721123AE17005123ACB6003023500DD
:1036200090FAC4782512110490FC50782512087A7B
:103630007003023A92752900752A00752B80752C4B
:103640003F78251208B478297925120E1F90FB5572
:1036500078291211138E828F83E070C185218285B3
:103660002283E070B890FB53746BF0A374F9F07987
:1036700006123A978D2890FB9D782512111390FB26
:10368000537473F0A374F9F07907123A97EDB2E727
:10369000F52890FBB178251211138E828F83E0609C
:1036A00003023500852182852283E0600302350014
:1036B00090FB9D782512110490FC54782912110476
:1036C00078257929120A63782512092C90FAE0E509
:1036D00025F0A3E526F090FBB1782512110490FCAB
:1036E00054782912110478257929120A6378251251
:1036F000092C90FAE2E525F0A3E526F090FB53743F
:103700002FF0A374F9124596E0600302350085217D
:1037100082852283E060030235007A9D7BFB1219CB
:10372000D48A258B268C278D2890FBAD7825121105
:103730001390FBAD7825121104782512092C90FB0B
:10374000A578251211138E828F83E0600302350065
:10375000852182852283E0600302350090FBDD78BD
:103760002512110490FB2B1233CB74027821121115
:10377000E8E5212525FAE5223526FB90FBA57825ED
:10378000121104EAC39525F521EB9526F522740262
:1037900078211211C9E52190FA23F0E52360221265
:1037A0003ABC64F0701B90FBA5782512110490FBC5
:1037B000DD78251210D8AA25AB26AC27AD281246F5
:1037C000A3123AE17005123ACB600302350090FB78
:1037D0009D782912110490F947782512110478294F
:1037E0007925120BE390F93F782D12110475310001
:1037F00075320075338075343F90F9437835121176
:1038000004852925852A26852B27852C2878257946
:1038100029120A6378357925120A637831793512CD
:103820000BE3782D7931120A6390FB99782D1211F0
:103830001390FB9D782512110490FC5878291211E1
:103840000478257929120C0890FB9D782512111314
:1038500090FB55782512110490FB997829121104D8
:1038600078257929120A6390FB5578251211137572
:10387000290085298285822785272B752C007402D3
:10388000782B1211E8852B25852C2690FB55782D59
:10389000121104E52524B4F582E52634FAF583787F
:1038A0003112110478311208B4782D7931120A637B
:1038B00090FBA9782D1211138E828F83E060030292
:1038C0003500852182852283E06003023500740182
:1038D0006529700E90FBA9782D1211047AD87BF916
:1038E000801274026529702690FBA9782D121104AC
:1038F0007AD47BF91234858A318B328C338D3478CB
:103900002D7931120A6390FBA9782D121113E52548
:1039100024B5F8E52634FBF988258926E527240F08
:10392000F582E434FCF583E0F52774FF6527701415
:1039300090FBA9782D1211048525828983782D1298
:1039400011138056752800740378271211E8E527B3
:10395000244BF8E52834F9F990FB53123F3A90FBD9
:10396000A9782D121104AA2DAB2EAC2FAD3012194F
:103970001F8A2D8B2E8C2F8D30852582852683786E
:103980002D1211138E828F83E06003023500852192
:1039900082852283E060030235000529E529C3946E
:1039A00009500302387290FBB5782912110490FB7C
:1039B000BD782D12110490FC5C7825121104782D2D
:1039C0007925120A63123AAA1208CF782D792512A6
:1039D0000A637829792D120BE3AA29AB2AAC2BAD07
:1039E0002C12484890FAD812233A90FBB978251245
:1039F000110490FB99782912110490FA1F782D1266
:103A000011047829792D120A6378257929120A631D
:103A100090FBB97825121113AA25AB26AC27AD2847
:103A200012484890FADA12233A90FBC97829121109
:103A30000490FBB9782D121104782D7929120E1FEC
:103A4000123AAA1208CF782D7925120A63782979BB
:103A50002D120C08AA29AB2AAC2BAD2C1248489089
:103A6000FADE12233A90FBBD7825121104AA25AB89
:103A700026AC27AD281247FF90FADC12233A122613
:103A80008A700512267E6003023500E52460031269
:103A90001AEF7F1802129C1219818A258B268C2717
:103AA00022EA2404FAEB3400FB2290FA0EE0F5251A
:103AB000752600752700752800782522123AC02245
:103AC00090FC04E0243A12346CE02290FB27E024BE
:103AD0000208A3E03400F9882189228882F583E076
:103AE0002290FB27E02401F8A3E03400F9E8FEE986
:103AF000FF8E828F83E02274F612123D8923EAF949
:103B00007E237FF9852382858221752200E5212489
:103B100023FCE434F9FDE52312131E080609803E58
:103B20001015463C2E30EA3D3D46B63E494EB63E67
:103B30004F52BC3E5556C23E57580C3F2701EE3EF1
:103B400004B43B05FD3B0B8F3C0C893C0D743E0ED1
:103B5000A13E16323C17373C1A543C1C953C1DDBE9
:103B60003E1FBB3C20DB3C21B53C23303D253B3D8B
:103B700028473D295A3D2A7D3D2B533D2CC63D2DDE
:103B8000D73D31F53D330D3E35183E362C3E3838A5
:103B90003E39D73C3A613E3B733D5C123F5DF33E9C
:103BA0005EF93E5FFF3E60E93E61053F64E43E71C1
:103BB000133D1D3FE9C394024003023F1DE96038F5
:103BC000D293123F7BE4F0A3F090FB17E0701290C9
:103BD000FB29E02414123F447002A3E07003023F6B
:103BE0001D1218F5E490FB17F090FB29E024141245
:103BF0003389E4F0A3023F1CC293023F1DE9C39442
:103C0000024003023F1DE96017741855907016D2E8
:103C1000931218F5123F7B74D0F0A37407023F1C77
:103C2000C294023F1DA2945003023F1D1218F502D8
:103C30003F1D89CD023F1DE990FB0FF090FB0EF078
:103C4000121D2F023F1DEC24F6F582ED34FFF583A3
:103C5000E9023F1CE990F9C7F012158390F9E5E0FD
:103C6000A2E6402590F9C7E090DF06F012184F90C9
:103C7000FBF4742CF0A37401F090FBFA742CF0A305
:103C80007401F075E1041217DE123F65023F1D1248
:103C9000150E023F1DA293E492E090F9DCF0A2948D
:103CA000E492E090F9DDF0E5CD90F9DEF090FB0FC5
:103CB000E090F9DFF0123F9B023F1D123F6574FF59
:103CC00090F926F090F925F090FB29E0241A1218BB
:103CD00059123F5F023BF27E007F5C90FB0BE0607D
:103CE00003023F1D90FA1DE07002A3E07018EEF889
:103CF000EFF990FA1D123F3A75F00A90FC00E0A42B
:103D000090FB0B023F1C90FC00E0C0E0E9F5F0D016
:103D1000E080ECE990FB0BF090FA1D7478F0A3744E
:103D2000FBF090FB0BE06003023F1D7401023F1C9F
:103D3000E990F9E0F090DF2E023F1C90F9E5E9A24E
:103D4000E0E092E1023F1C90F9E5E9A2E0E092E4B4
:103D5000023F1CE990F9E3023F1C90F9E5E9A2E07B
:103D6000E092E5F0E96003023F1D90FB071217D8CF
:103D7000023F1D90F9FEE9A2E0E092E1F0742A65AD
:103D800023700A90F9E5E9A2E0E092E6F090F9E507
:103D9000E0A2E6501D123F5290FBF4E4F0A3123F64
:103DA0007290FB07F0F912178F90FB29E0241002A4
:103DB0003BEF90FBF6E4F0A3F0123F8890F9C7E0E8
:103DC00090FB07023F1CE990F9E4123F22400302F6
:103DD0003F1D90F9C78096E990FBF1F0A2E0758352
:103DE000F97582E5E092E7023F1CEC2495F582ED3F
:103DF0003400023C4EE490F9C7F074FF90F926F0CD
:103E000090F925F090F927123F26123F9B1226D0F9
:103E10007478F0A3E4023F1CE990F9FD123F2240C0
:103E200003023F1DE990FB07F0023D6A90F9FEE9AD
:103E3000A2E0E092E0023F1C79107C2F7DFB7A83A8
:103E40007BF912478A79107C3F7DFB7A937BF912CC
:103E5000478A79207A2F7BFB124767121838023F76
:103E60001DE9600CC394205007E990FC00023F1C40
:103E7000740480F690F9FEE9A2E0E092E3023F1CB0
:103E8000E52175F005A4F521E5F0F522E52124856D
:103E9000FAE52234F9FBE98A828B83F0A3AA82AB8C
:103EA00083740E652370047AB77BF979047C917D65
:103EB000FB12478A8067EC24A1023DEDEC244D0201
:103EC0003DED79047C217DFB740278211211E8E537
:103ED000212478FAE52234F8FB80D690F9FEE9A295
:103EE000E0023DE4E990FC60F01217DE802F90F9CB
:103EF000E58084E990F9C48023E990F9C5801DE943
:103F000090F9C68017123F48EA023E12EC244102A3
:103F10003DED7401697006740190FB1AF07F030295
:103F2000129CF00229F0F0A3F0740290F9E1F07411
:103F30000190F9E2F0228A828B83123F3E22E8F060
:103F4000A3E9F022123AC62290FC04E0245B12346A
:103F5000682290F9ED12336690FBF6123F3E221272
:103F6000263EA3A32290F92DE0F5BC90F92EE0F5B2
:103F7000BC22F01233BE90F9FDE022123F7F229066
:103F8000FB29122665A3A32290F9EB12336690FB5E
:103F9000F4123F3E12337F123F3E22C082C0834361
:103FA000C6400043C6400043C6400043C6400043ED
:103FB000C6400043C6400043C6400043C6400043DD
:103FC000C6400090FB14E070051245B3806390F585
:103FD0003BE064AA6003124694C2AF43C64000436C
:103FE000C6400043C6400043C6400043C6400043AD
:103FF000C6400090FB14E0700312469475AD2E7518
:10400000AB2175AE010075AD00D2AF7932121D5CE7
:1040100079F27C007D5C7A237BF91214BA7916124E
:104020001D5C12347D90FB14F075C6890000000001
:104030000000021AEA74F812123DEAFEEBFF7C233C
:104040007DF9EE540FF521EBFAE912131E01040C71
:10405000C14009017040027A400387400D96400E2E
:10406000B24010D44011EF4015F540162F413B41AE
:1040700090F927EEF0A3EF02413AE52190F925F0FF
:10408000EA90F92602413AEE90F9E1F0EA90F9E27D
:1040900012413E02413A7918121D5C743F6E700362
:1040A00074086F700302413B8E828F8312123B02B1
:1040B000413BEE90DF01F0EA90DF00F090F9BD8027
:1040C000B2E9C333F8E433F9E824E3F582E934F9DB
:1040D000F583809F90FA1DE07002A3E0705DC3EF4E
:1040E00094044057C3EF9408505190FA1D80849077
:1040F000FA0B02407374F05FF9E47001E960047C2C
:10410000007D5C740F5A75F018A4F8A9F0EC28F83B
:10411000ED39F990FA1D123F3AEEC4540F90FC00AD
:10412000F0C0E0E521F5F0D0E0A490FB0B800BEAB5
:104130002423F582E434F9F583EEF0022B82F0902B
:10414000F9E1E090DF052274ED12123D8923EAFEC9
:10415000EBFF752100752200752400892575260066
:10416000740278251211E8E5252423FAE52634F9AE
:10417000FB8E828F837825121104E912131E04012D
:104180000495410506BE410A17C841191A2C42017F
:104190001811423642EA2408F521EB3400F5227466
:1041A0000465236003024236782512092C74142515
:1041B00025F8E43526F990F9E9123F3A8078EA24A7
:1041C0009DF521EB3400806C740E6523700C79042E
:1041D0007A4F7BFB12476775240174F62523F5237C
:1041E000C313F521740378211211E8E523A2E0E45A
:1041F00092E0F525752600740278251211E8E52570
:10420000244BF8E434F9F9E52128F521E522398039
:1042100023752900752A00752B80752C3F78297924
:1042200025120E1F90FA1F7829121113EA24BCF5EB
:1042300021EB34FFF522E5217002E522600D7904BF
:10424000EEFCEFFDAA21AB2212478AE5246007901D
:10425000FB0EE0121D2E022B3B74F312123D89253A
:104260007E087FF8752301752400802DE0F521A3D9
:104270000EAF837906EEFCEFFD7A297BF91247BF7A
:10428000E9700E740F552690F925F0E52190F92676
:10429000F0EE2406FEEF3400FF8E828F83E0FA708A
:1042A000030244CBAB2574FF2BF525EB70030244CE
:1042B000CB8A26A3AE82AF8374F05526F52174F025
:1042C000652160A890FBF1E0640270031245A58EA1
:1042D000828F8312336290FBD9123F3AEE24020E92
:1042E0000EEF3400FFEE2402EF3400F9740355267C
:1042F000F5221212E800036D430143064322434AAC
:104300004375230180671233B290F927E06A700386
:10431000A3E06B70047A0180027A008A230E0EE912
:10432000804A8E828F83E0FA90F926E06A70128EBE
:10433000828F83A3E0FA90F925E06A70047A018005
:10434000027A008A2385232480D37906EEFCEFFDD0
:104350007A297BF91247BFE970047A0180027A005A
:104360008A23852324EE2406FEEF3400FF90FBD938
:10437000E07002A3E0603590FAFFC3E09401A3E08F
:1043800094FF4017C390FBDAE09401500E90FBD9E4
:1043900012336290FAFF123F3A8011E5236009124E
:1043A00045C150047A0180027A008A231245C15027
:1043B0000690FAFF123F3A8E828F83A3A882A983C8
:1043C000E52112131E000610FB43207C4450DB4302
:1043D000708B44808B4490D0449942E52370030253
:1043E00042917403652260030242917906EEFCEF6C
:1043F000FD7A297BF912478A02429190FBF1E0FA9B
:1044000090F9E5E0A2E7E492E06A601090FBF1E049
:10441000A2E07583F97582E5E092E7F08E828F83E2
:10442000E0F521E8FEE9FF740C552612131E000387
:10443000003B44044E440868449942E5236009EE79
:10444000FAEFFBA921124147EE2404024294E5232E
:10445000600B8E828F83E0FAA921123AF78E828F49
:1044600083A30EAF83024299E52360081233B2A9F9
:1044700021124035EE24020E0E024295E523700310
:104480000242997918121D5C124694E524603C7A28
:10449000E07B0312183C7AF07B03790612183E7415
:1044A000806521700875213F7522FB800675212FDC
:1044B0007522FB78211212D7EEFCEFFD7A107902FB
:1044C0001213A9740212120A1218387F0602129CE3
:1044D000EE2407F521EF3400F522E524602E43C6D3
:1044E000400043C6400043C6400043C6400043C6A8
:1044F000400043C6400043C6400043C6400043C698
:10450000400090FB14E0700B1245B300AE21AF22C7
:104510000242998E828F83E0F526E8FEE9FF8E82C3
:104520008F83E0A30EAF8390F9FDF090F9C7124599
:1045300096E090F9E112459C90F9E212459C90F9C1
:1045400026124596A312336290F927123F3A740F50
:10455000552690F925F090F9E5E526A2E4E092E2EF
:10456000F090F9FEE526A2E5E092E4F0E526A2E669
:10457000E092E1F079047C217DFB7AB77BF9124768
:104580008A123F9BAE21AF2290F9C7E0F912158342
:104590001217D8024299F08E828F8322124596A379
:1045A0000EAF83E02290F9E5E0A2E7E492E090FB11
:1045B000F1F0227414F090FAFF121E0EF075C68905
:1045C0002290FBD91233667583FA7582FFC3E09897
:1045D000A3E0992274F812123DE9FE79147C667DFD
:1045E000FC7A0C7BDF12478A90FBE912468D90FB28
:1045F000EB743012468F90FBED743C12468F90FBAB
:10460000EF12468D90FBDB744A12468F740A90DFDE
:1046100007F0EEC3940D404D79067C607DFC7A0C6A
:104620007BDF12478A7410F090FBDB744812468FD0
:1046300079037C7D7DFC7A237BDF12478A79087CB5
:10464000807DFC7A157BDF12478A74196E702374A3
:104650000A90DF07F074A990DF1CF090F9C6E09093
:10466000DF0CF0800D79037C7A7DFC7A237BDF12EE
:10467000478A79037A2F7BDF12476779037C887D2D
:10468000FC7A027BDF12478A7F0102129C7450F091
:10469000A3E4F022C082C08375C90B748090FFFF31
:1046A000F080F574F512123D74FC1211FB8A218B17
:1046B000228C238D24C2AF90DF0BE085418285429E
:1046C00083F090DF0AE0C0E07401121231D0E0F014
:1046D00090DF09E0C0E07402121231D0E0F08541B1
:1046E0008285428378211210C5854182854283E00C
:1046F00090DF0BF07401121231E090DF0AF07402C7
:10470000121231E090DF09F090FBDD78211210C524
:10471000E490DF08F0D2AF740412120A7F04021290
:104720009C74F312123D8035740369602F7409691B
:10473000602AEA240CF582EB3400F583782112110B
:10474000048925752600740278251211E8EA2525CA
:10475000F582EB3526F58378211210F009E9C39C28
:1047600040C67F0602129CC082C083C3EA9401EB5C
:1047700094804011800BE48A828B83F0A3AA82ABE1
:1047800083E91970F1D083D0822274F812123DC3EC
:10479000EA9401EB94804022801C8C828D83E08A15
:1047A000828B83F08C828D83A3AC82AD838A828BD3
:1047B00083A3AA82AB83E91970E07F0102129C7483
:1047C000F612123DE91960308A218B2285218285FB
:1047D0002283A3AA82AB83ECFEEDFF8E828F83A39C
:1047E000AC82AD83852182852283E0F88E828F831F
:1047F000E06860D07901800279007F0302129C7426
:10480000F112123D8A218B228C238D2478211209EA
:104810002C90FC8B78251211047825792112088FB1
:1048200040067AFF7B7F801B90FC8F782512110455
:104830007825792112088F50067A017B808004AA9E
:1048400021AB227F0802129C74F112123D8A218B47
:10485000228C238D24782112092C90FC9378251228
:1048600011047825792112088F40067AFF7BFF809A
:104870001B90FC5078251211047825792112088F9D
:1048800050067A007B008004AA21AB2280B56D4ED1
:10489000C64139300000500030003C00500002900A
:1048A000067800DC0014001E00080050000401A877
:1048B000FD00F57172737C7670757476000102FFED
:1048C000FF03FF0605414E4453006C61724175675A
:1048D00075737400074175677573740007417567D8
:1048E0007573740007646AAA010132000100008038
:1048F0003F000080C00000003F00007A440000003C
:10490000000000C8420000C8C117B7D1380E557367
:10491000435900790701235945070014166C434099
:10492000915610A90A00118135098831091D1CC74B
:1049300040B2B610EA228545008000000180FFFFEA
:1049400000000100AAAA0000FFFF2C7640022744C5
:1049500071AA35BAD3BC633D91ED1C3F000048C33A
:1049600000001C4595BFD6340000924285EB5D41A6
:1049700000C0D0C466664A41000000008FC2FD40FE
:10498000000012C40AD747410000000052B8DE3EC2
:1049900000401C44EC51F84000C013C40000803FAC
:1049A00000000000414E4453006C61724175677510
:1049B00073740007417567757374000741756775F7
:1049C00073740007000000000000000000000000F9
:1049D0000000000000000000FFFFFFFFFFFFF0F0FD
:1049E000000000AAFF78804DFFCB486654CB486694
:1049F00054CB486654ACC5A73717B751380101648A
:104A000064FF0201FFFF1701A49A38FF28001E006F
:104A100003000400080050003F08F100F100FF8986
:104A2000FFFF19C86E645A0A070B3C0A18FC0A00FB
:104A3000010000005555FFFFFFFFFFFFFFFFFFFFD5
:1058000043C6490043C6490043C6490043C6490050
:1058100043C6490043C6490043C6490043C6490040
:1058200043C6490043C6490043C6490043C6490030
:1058300043C6490043C6490043C6490043C6490020
:105BE00043C64900FFFFFFFFFFFFFFFFFFFFFFFF6F
:105BF000020000FFFFFFFFFFFFFFFFFFFFFF41135A
