:1000000002000912001412001275D0007581A002BE
:10001000000380FE90FFFFE0645A605075F4C075E5
:10002000FEDB75CB5075CC2475CE2475F12075F5AB
:100030002075CD8075CF40D2947C00E0645A602C4E
:100040007B00E0645A60257AFF639004E5901AEA29
:1000500070F70B74FF6B70EA0CECC3940440DC7413
:100060005AF053BEFB0075C6A443BE0474E025CD10
:10007000F5CD639002E59080F9FFFFFFFFFFFFFFE2
:10020000020014FFFFFFFFFFFFFFFFFFFFFFFFFFE5
:100C0000020014FFFFFFFFFFFFFFFFFFFFFFFFFFDB
