:020000040000FA
:0300000002008B70
:03000B000202DE10
:030043000203B302
:03004B000202F4BA
:100083000202C212018480FB75C90843C649007588
:0E009300D0007581A07541B07542F102008663
:1000A200E473C0D02541C582C0E0E54234FFC58378
:1000B200C0E0E541C3958224F3C0A8C2AF85834264
:1000C200858241D0A8C8F0A3E9F0A3EAF0A3EBF03F
:1000D200A37921E709F0A3D8FAECF0A3EDF0A3EE9F
:1000E200F0A3EFF0A3D0E0F0A3D0E0F0A3D0E0F0D3
:1000F200A3E520F0A3E5F0F0A322854283854182A7
:10010200E0C0E0A3E0F9A3E0FAA3E0FBA37821E0DA
:10011200F608A3DFFAE0FCA3E0FDA3E0FEA3E0FF04
:10012200A3E0C0E0A3E0C0E0A3E0F5D0A3E0F520A7
:10013200A3E0A3F5F0E5A8C2AF858241858342F52D
:10014200A8D082D083D0E0F8D0E032D083D082C56C
:10015200F0E493A3C5F0C395F0F5F0E493A3C3953F
:10016200F04005E5F0048001E475F002A42582F573
:1001720082E5F03583F583E493A3C0E0E493C0E025
:10018200220043C649741043BE0490FFFEF0A3F060
:10019200E490F501F075DB0275DAED75E40675E5BC
:1001A200447500027501AA75025585000375835CCA
:1001B200758200E0B50113A3E0B5010E7582F0E08F
:1001C200B50207A3E0B502028015758304D8E17574
:1001D20007017506019003DCE0FDA3E0FC800F75CA
:1001E20082B9E0FFA3E0FEA3E0FDA3E0FCA38DCD76
:1001F2008CCFE5076004D2938002C293E5066004C7
:10020200D2948002C29475F4C075FEDB75CB507532
:10021200CC2475CE2475F12075F52043CB1490F5CE
:1002220002E479FFF0A3D9FC90F55D7464F075C91E
:1002320008D2B9D2AF74FFF5BCF5BC9008007F5468
:100242007EFEE0A3F5BDDEFADFF8E0B5BC15A3E063
:10025200B5BD109004D5E0B408097F3FC0077F0800
:10026200C007227F3FC0077F60C0073263900175DD
:10027200C90890F50063920190F55B7904E0A363ED
:100282009201F0A3639201D9F463920190F536E4EE
:10029200F022C082C08390F53AE06420700C7401B1
:1002A20090F521F0E490F538800AE064107006744D
:1002B2000190F522F074F090F53AF0D083D08222CA
:1002C200C0E074F21200A4C2AF53E9EF539BFCE505
:1002D2009B75D683120294D2AF0203A4C0E074F2DB
:1002E2001200A485888890F5321203A91200A20296
:1002F20003A4C0E074F21200A47521007E007FF511
:10030200C2DC90F538E004F090F55BE0700674789A
:10031200F0A3E4F090F516E07002A3E0700A90F505
:100322001674D0F0A37407F090F500E07002A3E019
:10033200700312026E8E828F83C3E09401A3E09455
:1003420000A2D265D03340488E828F83E024FFF032
:10035200A3E034FFF08E828F83E07002A3E070305E
:10036200E52112014D000189036F03740312026E2D
:10037200801E90F530E07002A3E0601490F5301218
:1003820003A91200A280098E828F8374FFF0A3F06A
:10039200EE2402EF34000E0EFF0521E521C3941076
:1003A20040937F010200FCE0F8A3E0F98882898390
:1003B20022C0E074F21200A485C0C0E5D1A2E250CE
:0C03C2000990F5341203A91200A280D6A5
:040000050000008B6C
:00000001FF
