:020000040000FA
:0300000002008C6F
:03000B000202F2FC
:030043000203A312
:03004B00020308A5
:100083000202D61202830080FA75C90875D0007582
:1000930081A07541B07542F1020086E473C0D0259A
:1000A30041C582C0E0E54234FFC583C0E0E541C3FA
:1000B300958224F3C0A8C2AF858342858241D0A82C
:1000C300C8F0A3E9F0A3EAF0A3EBF0A37921E709D1
:1000D300F0A3D8FAECF0A3EDF0A3EEF0A3EFF0A3B6
:1000E300D0E0F0A3D0E0F0A3D0E0F0A3E520F0A3AC
:1000F300E5F0F0A322854283854182E0C0E0A3E0DE
:10010300F9A3E0FAA3E0FBA37821E0F608A3DFFA62
:10011300E0FCA3E0FDA3E0FEA3E0FFA3E0C0E0A3B7
:10012300E0C0E0A3E0F5D0A3E0F520A3E0A3F5F061
:10013300E5A8C2AF858241858342F5A8D082D083EA
:10014300D0E0F8D0E032D083D082C5F0E493A3C5E9
:10015300F0C395F0F5F0E493A3C395F04005E5F003
:10016300048001E475F002A42582F582E5F035836D
:10017300F583E493A3C0E0E493C0E022007F3FC093
:10018300077F60C007320075DB0275DA5775E40636
:1001930075E5447500027501AA750255850003755E
:1001A300835C758200E0B50113A3E0B5010E75828F
:1001B300F0E0B50207A3E0B502028015758304D809
:1001C300E17507017506019003DCE0FDA3E0FC8007
:1001D3000F7582B9E0FFA3E0FEA3E0FDA3E0FCA35B
:1001E300C005D0CDC004D0CFE5076004D293800210
:1001F300C293E5066004D2948002C29475F4C0757C
:10020300FEDB759E5075CC2475CE2475F12075F5F3
:100213002043CB1490F500E479FFF0A3D9FC90F5CB
:10022300007405F090F55B742CF0A37401F0A374D3
:1002330064F075C908D2B9D2AF7F3FC0079004D527
:10024300E0B408057F08C007227F60C00722009042
:10025300F538E004F07004A3E004F0220063900199
:1002630090F50063920190F55B7904E0A36392013A
:10027300F0A3639201D9F463920190F536E4F0227E
:1002830043C6400043BE04741090FFFFF012018A7E
:1002930022C082C08390F53AE06420701774019005
:1002A300F521F090F538E090F55FF090F539E090A6
:1002B300F5608013E06410700FE490F50EF090F594
:1002C3000FF0740190F522F074F090F53AF0D083BA
:1002D300D08222C0E074F21200A0C2AF53E9EF5300
:1002E3009BFCE59B75D683120294D2AF020394C0A4
:1002F300E074F21200A085888890F53212039912F7
:10030300009E020394C0E074F21200A07521007EE7
:10031300007FF5C2DC1202528E828F83C3E0940108
:10032300A3E09400A2D265D03340548E828F83E041
:1003330024FFF0A3E034FFF08E828F83E07002A3EA
:10034300E0703CE521120149000179035303640382
:1003530012026090FFFFE06003148022120180808C
:100363001E90F530E07002A3E060F190F5301203C7
:100373009912009E80098E828F8374FFF0A3F0EEA2
:100383002402EF34000E0EFF0521E521C394104033
:10039300877F010200F8E0F8A3E0F98882898322CD
:1003A300C0E074F21200A085C0C0E5D1A2E25009FA
:0B03B30090F53412039912009E80D6D2
:040000050000008C6B
:00000001FF
