:020000040000FA
:0300000002008B70
:03000B000202DE10
:030043000203B302
:03004B000202F4BA
:100083000202C212018480FB75C90843C649007588
:0E009300D0007581A07541B07542F102008663
:1000A200E473C0D02541C582C0E0E54234FFC58378
:1000B200C0E0E541C3958224F3C0A8C2AF85834264
:1000C200858241D0A8C8F0A3E9F0A3EAF0A3EBF03F
:1000D200A37921E709F0A3D8FAECF0A3EDF0A3EE9F
:1000E200F0A3EFF0A3D0E0F0A3D0E0F0A3D0E0F0D3
:1000F200A3E520F0A3E5F0F0A322854283854182A7
:10010200E0C0E0A3E0F9A3E0FAA3E0FBA37821E0DA
:10011200F608A3DFFAE0FCA3E0FDA3E0FEA3E0FF04
:10012200A3E0C0E0A3E0C0E0A3E0F5D0A3E0F520A7
:10013200A3E0A3F5F0E5A8C2AF858241858342F52D
:10014200A8D082D083D0E0F8D0E032D083D082C56C
:10015200F0E493A3C5F0C395F0F5F0E493A3C3953F
:10016200F04005E5F0048001E475F002A42582F573
:1001720082E5F03583F583E493A3C0E0E493C0E025
:10018200220043C649741043BE0490FFFEF0A3F060
:10019200E490F501F075DB0275DAED75E40675E5BC
:1001A200447500027501AA75025585000375835CCA
:1001B200758200E0B50113A3E0B5010E7582F0E08F
:1001C200B50207A3E0B502028015758304D8E17574
:1001D20007017506019003DCE0FDA3E0FC800F75CA
:1001E20082B9E0FFA3E0FEA3E0FDA3E0FCA38DCD76
:1001F2008CCFE5076004D2938002C293E5066004C7
:10020200D2948002C29475F4C075FEDB75CB507532
:10021200CC2475CE2475F12075F52043CB1490F5CE
:1002220002E479FFF0A3D9FC90F55D7464F075C91E
:1002320008D2B9D2AF74FFF5BCF5BC9008007F5468
:100242007EFEE0A3F5BDDEFADFF8E0B5BC15A3E063
:10025200B5BD109004D5E0B408097F3FC0077F0800
:10026200C007227F3FC0077F60C0073263900175DD
:10027200C90890F50063920190F55B7904E0A363ED
:100282009201F0A3639201D9F463920190F536E4EE
:10029200F022C082C08390F53AE06420700C7401B1
:1002A20090F521F0E490F538800AE064107006744D
:1002B2000190F522F074F090F53AF0D083D08222CA
:1002C200C0E074F21200A4C2AF53E9EF539BFCE505
:1002D2009B75D683120294D2AF0203A4C0E074F2DB
:1002E2001200A485888890F5321203A91200A20296
:1002F20003A4C0E074F21200A47521007E007FF511
:10030200C2DC90F538E004F090F55BE0700674789A
:10031200F0A3E4F090F516E07002A3E0700A90F505
:100322001674D0F0A37407F090F500E07002A3E019
:10033200700312026E8E828F83C3E09401A3E09455
:1003420000A2D265D03340488E828F83E024FFF032
:10035200A3E034FFF08E828F83E07002A3E070305E
:10036200E52112014D000189036F03740312026E2D
:10037200801E90F530E07002A3E0601490F5301218
:1003820003A91200A280098E828F8374FFF0A3F06A
:10039200EE2402EF34000E0EFF0521E521C3941076
:1003A20040937F010200FCE0F8A3E0F98882898390
:1003B20022C0E074F21200A485C0C0E5D1A2E250CE
:0C03C2000990F5341203A91200A280D6A5
:1003E000BF7E781E55B75176950719EBEF65A519B5
:1003F000401D12717FC706FBA8ECBF09385A2210B6
:1003D000AAAA000000002C53C000003964BE460ADF
:040000050000008B6C
:00000001FF
:10080000E490F80078E779048002F0A3D8FCD9FAE4
:1008100090FBE6AA82AB83904BF878BA79018015F9
:10082000E493A3AC82AD838A828B83F0A3AA82ABCC
:10083000838C828D83D8E9D9E71225EB0080FA7585
:10084000FE02D29175D0007581467541007542F85F
:1008500002080043AE0222E5AE20E7FB22A2E792A7
:10086000D65002F40430F70663F0FF05F0B34003FE
:1008700084800384F40430D60563F0FF05F022E0A1
:1008800066701008A3E066700A08A3E066700408AA
:10089000A3E06622C3E7960809E7960809E79608E9
:1008A00009E796A2D265D03322C3E09608A3E0966A
:1008B00008A3E09608A3E09622080808E630E711AE
:1008C00012108A1208D1080808C64480C6181818E1
:1008D00022181818E9799EC608CAC608CBC608CCE3
:1008E000C6C370207996CACBCC7019798ECBCC70E8
:1008F000137986CC700EF9802ACA33CACB33CBCC9D
:1009000033CC331930E7F2CCCBCA3350147004EA3D
:1009100030E00DE4CA3ACACB3BCBCC3CCC50020908
:10092000C3E913C6CC182313C6CB18C6CA18C6F918
:100930002212097120F01430E72B74FFFCFBFA74CB
:100940007F8022E4FCFBFA7480801AB48008BC002B
:10095000F2BB00EF800F50EBF9E4C39AFAE49BFB83
:10096000E49CFCE499C6CC18C6CB18C6CA18C6F9D4
:1009700022E4C9C608CAC608CBC6D3330308CCC60E
:100980003392F0C3947F402E94184019C9B90704DC
:10099000CACBCC225025C309CA33CACB33CBCC3304
:1009A000CC33D9F422F4600DC9CCC313CB13CBCA1A
:1009B00013CAD9F6CC22E4FCFBFA2214FCFBFA227F
:1009C000E6C33318461846184622E7C333194719B9
:1009D00047194722181818E6084608700AE608C39F
:1009E000337005E633F4220822191919E70947097B
:1009F000700AE709C3337005E733F4220922E608D9
:100A00004608C3134608336002E633F422E7094779
:100A100009C3134709336002E733F4221209FE6069
:100A20001B120A0D60161209C070071209CA600C69
:100A3000B322C0D01209CA7005D0D022C32233D04D
:100A4000D0501330E0EBC3E7960809E7960809E7B2
:100A5000960809E7962220E0E4E6970809E6970859
:100A600009E6970809E69722001209FE604F120A6C
:100A70000D6012E7548066F61209D470111209CA8B
:100A8000703B090909F4F618F618F618F62212094F
:100A9000E970151209C008080860EAE6447FF618F4
:100AA000768018E4F618F6221209C060161209CAF8
:100AB0007012E4F608F608F608E65480F60909090B
:100AC00018181822EAC0E0EBC0E0ECC0E0EDC0E08E
:100AD000E687F0A4FBACF008E687F0A42CFCE43534
:100AE000F0FA1809E687F0A42C4B60027401CA35AD
:100AF000F0FCE433FB09E687F0D2F7A42CCB35F009
:100B0000FC1908E687F0A42BCC35F0FBE433FD0894
:100B100019E687F0D2E7A42C4ACB35F0CD3400FC9F
:100B200009E687F0D2E7A42DCC35F0FDE433FA09CD
:100B300018E687F0D2F7A42CCD35F0CA3400FC08B3
:100B4000E687F0D2E7D2F7A42ACC35F07A7E20E708
:100B50000B0ACB33CBCD33CDCC33CC33CB3350148A
:100B60007004ED30E00ED2F1E4CD3DCDCC3CCC3B79
:100B70005005DA05C2F1EB547FC63308E63392F034
:100B8000FBE73309E733C39A502D2B70190C0D4C3A
:100B90004D70151806E608C333700D20F10AA2F057
:100BA00013F6E418800B4024E4F630F00276801847
:100BB000F618F618F68024D33B14501074FFA2F0F8
:100BC00013F6187680E418F618F6800FA2F013F6E4
:100BD00018E63303F618ECF618EDF6D0E0FDD0E099
:100BE000FCD0E0FBD0E0FA22120A0D60461209FEAA
:100BF000603DE9687008F618F618F618F622748059
:100C000067F7120C1C090909748067F7221209FEA4
:100C1000601D120A0D7005191919801A1209D47075
:100C20001F1209E9C37003E6673319191940071841
:100C300018182208080874FFF618F618F618F62295
:100C40001209E960171209CA702192F01209C070E6
:100C500019501720F014080808090909E7F61819AF
:100C6000E7F61819E7F61819E7F6221209C060E648
:100C7000E869701F0808E62480F608E436F6185480
:100C80007FB47F0CE654806007F6E418F618F6226D
:100C9000181822E9C6CC08C6CD08C6CE08C6CFC0F3
:100CA000E0E8C0E0EAC0E0EBC0E009E9F809E7FAF3
:100CB00009E7FBE6F918E6F8C3EC98ED99EE9AEB34
:100CC000C2E7F5F0EFC2E795F0500E600CEBCFFBFA
:100CD000EACEFAE9CDF9E8CCF8EAA2E7D2E7FAEBF6
:100CE00033FB13F5F0EEA2E7D2E7FEEF33FFC5F0DA
:100CF00013A2E730E601B313C5F0C3C0E0C0F07F34
:100D000000C39BFB605B9418600C401AD0E023F991
:100D1000D0E0F8020DEB8AF0E9486003D2F0E4AFCE
:100D2000F0FAF9F8803BEB30E40D89F0EA6003D289
:100D3000F0E4AFF0F9CAF8EB30E30D88F0EF6002B1
:100D4000D2F0AFF0E4CAC9F8EB54076014FBC3EA71
:100D500013FAE913F9E813F8EF135002D2E0FFDBBE
:100D6000EDD0E0C0E030E739C3E49FFFF5F0EC9848
:100D7000FC42F0ED99FD42F0EE9AFE42F0D0E0F92F
:100D8000D0E0F8E5F0607AE923F9EE20E742D802F6
:100D90008067C3EF33FFEC33FCED33FDEE33FE80B1
:100DA000EAEC28FCED39FDEE3AFED0E023F9D0E084
:100DB000F84002801BC3EE13FEED13FDEC13FCEFB5
:100DC000135002D2E0FF08B800067F7F74FF802E28
:100DD000EF3350178CF020F00260100CBC000C0DAB
:100DE000BD00080EBE000408E860DFE933E813FF29
:100DF000EE2313FE4F4D4C8008E95480FFE4FEFDC6
:100E0000FCEE33EF33F47004FCFD7E80D0E0FBD0C9
:100E1000E0FAD0E0F8D0E0CFC618CEC618CDC6189C
:100E2000CCC6F9221209FE700418181822120A0DF5
:100E3000700D74FFF61819F61819F61819F622E74E
:100E4000548066F61209C0700F1209CA70F014F6C9
:100E500008F608F608F680D11209CA700CF608F6F2
:100E600008768008E6447F80EC1209EC700C1209C9
:100E7000D760BFE65480F6E480BB1209D77005192D
:100E8000191980A5E869700C763F18768018F61855
:100E9000F6E8F922E6CDC0E018ECC0E0E633CD3349
:100EA000CDD313F6E719FCE7191933CC33C3947F7C
:100EB000400ECD9D502408E65480F6E418F6800FCD
:100EC000F4043D14501408E6447FF6187680E418C4
:100ED000F618F6D0E0FCD0E0FD22CCD313CCFD1800
:100EE000E4C6CBC0E018E4C6CAC0E00808ED08C6F6
:100EF00033E613F618E433C675F003C3CA97CA097C
:100F0000CB97CB199C40047D08802EBD0003020FB7
:100F1000CD16B6FF050606081618C3CA33CACB336A
:100F2000CB33CA27CA09CB37CB193CC37D08803ED7
:100F3000187D0820E75CC633C6CA33CACB33CB332F
:100F4000DDF1D5F0EB30E77BCA97CA09CB974ACBE6
:100F5000199C406F4B7025E620E0218066187D08C3
:100F6000C3CA97CA09CB97CB199CD3C633C6CA3319
:100F7000CACB33CB3350C9DDE7D5F0E1D3E4C63675
:100F8000C608C636C608C636C608C636C6181818F5
:100F90008031C3CA97CA09CB97CB199CB34097C677
:100FA00033C6CA33CACB33CB33DD34D5F02EC6A219
:100FB000E0C640C8CA27CA09CB37194A70BECB3C25
:100FC000B480B90808E63308E633601F181818D053
:100FD000E0FAD0E0FBD0E0FCD0E0FD22187D08CAAA
:100FE00027CA09CB37CB193CD3808013F618E4B657
:100FF0007F11F618B6FF0EF618C60470D2080876F0
:101000008080CAF618F618F680C5080808EAC0E01D
:10101000EBC0E086F0E7A4FA180986F0E7A42AFA04
:10102000180986F0E7A42AFA180986F0E7A42AFA34
:101030001986F0E7A4FBE5F02AFA190886F0E7A480
:101040002BFBE5F03AFA190886F0E7A42BFBE5F054
:101050003AFA18180986F0E7A4C5F02BFBE43AFA2F
:101060001908E7C5F0C6A426F6E5F03BFBE43AFA1A
:101070001886F0E7A4F6E5F00826F6E43B08F6E467
:101080003A08F6D0E0FBD0E0FA22181818E4C3962C
:10109000F608E496F608E496F608E496F62260165A
:1010A000080808C6C313C618C613C618C613C61840
:1010B000C613C6D5E0EA22E026F608A3E036F60815
:1010C000A3E036F608A3E036F622E026F008A3E017
:1010D00036F008A3E036F008A3E036F022C3E0C6FD
:1010E00096F608A3E0C696F608A3E0C696F608A30F
:1010F000E0C696F622C3E096F008A3E096F008A3B7
:10110000E096F008A3E096F022E0F608A3E0F608E7
:10111000A3E0F608A3E0F622E6F008A3E6F008A3B1
:10112000E6F008A3E6F022CAC0E0E6F0A308DAFA87
:10113000D0E0FA22C3E498F8E499F91211758026F8
:10114000C3E49AFAE49BFBE920E7E9121175E498FD
:10115000F8E499F922C3E498F8E499F9121175E4D6
:1011600098F8E499F9C3E49AFAE49BFB22EB20E7B0
:10117000CFE920E7E0B90010BB0008E88AF084F866
:10118000AAF022E4FBC8FA22EB70227B10C833C815
:10119000C933C9335007C39AC3DBF280069A5001A2
:1011A0002ADBEAC833F4C8C933F4C9FA2275F00857
:1011B000E4C833C8C933C933C99AC99B5004C92A82
:1011C000C93BD5F0ECFBC833F4C8E4C9FA22600D82
:1011D00008C6A2E713C618C613C6D5E0F322600CF2
:1011E00008C6C313C618C613C6D5E0F4227004227D
:1011F000600D18C6C333C608C633C6D5E0F418223E
:101200002541C0A8C2AF40021542F541D0A822C076
:10121000D02541C0A8C2AF50020542F541D0A8D0A8
:10122000D0222541F582C0A8C2AF40021542F54147
:10123000D0A8854283222541F582E43542F58322F8
:10124000E4732541C582C0E0E54234FFC583C0E0B8
:10125000E541C3958224F9C0A8C2AF858342858247
:1012600041D0A8CEF0A3E520F0A37821E608F0A3B2
:10127000DEFAEFF0A3E58124FBF8E608F0A3E60828
:10128000F0A30808E608F0A3E608F0A3158115818D
:10129000D0E0FED0E0F815811581E8C0E0EEC0E0B6
:1012A00022854283854182E0A3FEE0A3F5207821D8
:1012B000E0A3F608DFFAE0A3FFE0A3C0E0E0A3C0EC
:1012C000E0E0A3C0E0E0A3C0E085A8F0C2AF858263
:1012D0004185834285F0A8D083D0822274028000A9
:1012E000C0E0F404121222D0E012112722D083D0E1
:1012F00082C5F0E493A3C5F0C395F0F5F0E493A3A1
:10130000C395F04005E5F0048001E475F002A425E2
:1013100082F582E5F03583F583E493A3C0E0E4939E
:10132000C0E022D083D082CCC0E0E493A360061258
:10133000134D1470FAE493A3600612136C1470FA40
:10134000D0E0FCE493A3C0E0E493C0E022C0E0E47A
:1013500093A3D39C5010E493A3C39C400AD0E0D045
:10136000E0D0E0021340A3A3A3D0E022C0E0E493C6
:10137000A36C7009D0E0D0E0D0E0021340A3A3D06A
:10138000E022C082C083740149F5B37C10800C8ACE
:10139000828B83E0F5B1A3AA82AB83EC1C70F0D002
:1013A00083D08222800100E5B3A2E350F92274F7D2
:1013B0001212428922ECFEEDFF7409121236E0F897
:1013C000A3E0F988828983EAC4540FF5218015E5EA
:1013D000B2F0A3EB1B70F81213A41521EE2410FE3B
:1013E000EF3400FFE5216016EEFAEFFBA92212139D
:1013F000827B0C800100EB1B70FB7B1080D57F0291
:101400000212A1C082C08390F876E054F0F0741309
:1014100090F875F074DF90F86FF074D990F870F070
:1014200074F890F871F0742590F872F0748090F868
:1014300073F0742590F874F0741090F876F074F8E6
:10144000F5D575D46F90F87EE054F0F0741390F8F1
:101450007DF074F890F877F0744A90F878F074DFC3
:1014600090F879F074D990F87AF0742090F87BF0C5
:10147000742390F87CF0744090F87EF090F886E049
:1014800054F84408FAF0741290F885F090F883E06C
:10149000541FF074DF90F881F074AF90F882F0E49C
:1014A00090F883F074F890F884F0740F5A444090E8
:1014B000F886F074F8F5D375D277D083D082227491
:1014C000F6121242EAFEEBFF8C218D2289231208CC
:1014D0005775AB2AEF90F87FF0EE90F880F090F817
:1014E00083E054E0F0E52390F884F0AA21AB227465
:1014F0000978211211DEE521F5ADEBC313EA13F5EE
:10150000AC53D1FBD2B875D60412085379017F03CE
:101510000212A1C082C08390F888E4F0A3F0798021
:10152000FC12155DD083D08222C082C083C2B890E5
:10153000F887E0602690F888E02480F0A3E034008B
:10154000F0E490F887F0C390F889E09480500C792B
:101550008090F888E0FCA3E012155D80C7FD7A8AD0
:101560007BF8124AF4798090F888E0FCA3E0FD7AD9
:101570008A7BF81214BFE990F887F0227A177BFF74
:1015800000DBFDDAF9D9F52274F11212427C1980E0
:101590000F75F00AECA429C0E0EC121660D0E0F060
:1015A000EC1C70EDE9F525752600752700752800FF
:1015B0007C0090FBE6782112110978257921121020
:1015C0000A90FBEA78251210B78525218526228509
:1015D00027238528247410782112109E74FF55212A
:1015E000F8747F5522F97A197B001211758C23E566
:1015F00023240AF8E434F9F988828983E0FDEA2497
:101600000AFAE434F9FB8A828B83E088828983F0CA
:10161000ED8A828B83F00CECC3941940957F08020D
:1016200012A1C082C0837B19EB1B8B82A882600C45
:1016300090DF06E0FAE812165B6A70EC75E104745C
:10164000012808E43400F97A197B0012116DEA12BE
:10165000165B90DF06F0D083D08222121660E02263
:10166000240AF582E434F9F5832274E912124289DE
:101670002190FC07E0C395215003E0F52190FB4940
:10168000782512110990FC4C7829121109782579D6
:1016900029120A1C503275251F75268575277B7502
:1016A000284090F95B782912110990FC50782D128E
:1016B00011097829792D120C0D78257929120E241B
:1016C00090FB4978251211187522007523007524A6
:1016D0000078211208D490FB49782512110978214D
:1016E0007925120A6890FC5478251211097821791D
:1016F00025120C0D7821120931A821C3E52294018D
:10170000400278FFE8F97F100212A1C3EA940112A7
:1017100017254005EAF8EB8006C3E49AF8E49BF944
:10172000E8FAE9FB22EB1225882279037C447DFC50
:101730007A097BDF124AF42274F8121242E9FEEAB7
:10174000FF80057901121EF990F53AE0641060F30C
:1017500012185A539BFCE59B53E9EF7591107432B4
:101760006E700C90F9FEE0A2E1500479198002EE4F
:10177000F912493EEF90DF06F074326E700590F971
:10178000E4800390F9E0E090DF2E1244A8F090F995
:10179000BDE090DF01F090F9BEE090DF00F0439AE9
:1017A00001022DB2C082C083E9FA90F9E5E0A2E619
:1017B000500479328002790C121738021B2AC08239
:1017C000C08375D683E9601C90F9E5E0A2E6401479
:1017D00090F9E3E0FA793212173890F9E2E090DFFD
:1017E00005F080031217EA021B2A90FAFFE0F912B3
:1017F00017A422C082C08375D68312185A79047A3E
:10180000E27BFB124AD1E490DF08F012172A12188B
:101810004D90F9E5E0A2E6500590FAFF800390F9BB
:10182000C7E0F9E990FAFFF01217A479067A1A7B5B
:10183000FB124AD190FAF7E4F0A3F0FA79011238DA
:101840005212381B12186E90FB09021B297A837BF7
:10185000F979041213821213A42275E10490FC108A
:10186000E0243A122FD574F0F02290FAFFF090FBAA
:1018700023E02410122FD5E4F0A3F02274F1121209
:101880004275FD00758FFFE5F275F2FF7A00752154
:1018900001752200EA78211211EDE52145F2F5F2F9
:1018A0000AEAC3940840E775F4C075FEDB75CB50B7
:1018B00075CC2475CE2475F12075F52079127AE265
:1018C0007BFA124AD175F300E490DF08F090F9C773
:1018D000E0F912158812140312172A1217EA75215B
:1018E0000075220075238075243F90F93F782512FA
:1018F000110978217925120E2490FA1778211211F6
:101900001843CB14E5CBD2B9D2A9439A01021A638A
:10191000C082C08390FFFDE0FA90FB0DE06A702367
:1019200090FA02E0FA601A90F9DEE0FBEAC39B50FD
:1019300003EA8001EBFC8CCD90FB23E0241E1229EE
:1019400086D294021B2A74F11212428A218B228CB5
:10195000238D2490FB4D1229D47825121109782566
:101960007921120A681219A17821121109782579B2
:1019700021120C0D021A5B74F11212428A218B2281
:101980008C238D241219A17825121109782579212B
:10199000120BE890FB4D1229D47821121109021A7A
:1019A0005490FB4D1229522274F112124289217572
:1019B0002200740278211211EDE52124ACF582E5B4
:1019C0002234FAF583782112110978211208B9908E
:1019D000F93F782512110978217925120A6890FBC0
:1019E0004F782512110978217925120A68AA21ABAE
:1019F00022AC23AD24121977806974F1121242903F
:101A0000FB4D1229D478211211097D018A828B8322
:101A1000782512110978217925120A688D257526F5
:101A200000740278251211ED90FB4DE02525FCA3F2
:101A3000E035268C82F583782512110978217925E5
:101A4000120C0D0DEDC3940440C2AA21AB22AC23AD
:101A5000AD24800F78257921120A68AA25AB26AC1F
:101A600027AD287F080212A1C082C08379F27C00D2
:101A70007D5C7A237BF9124AF490F923E064AA7022
:101A800004A3E064AA700E90FA13E064557004A3F6
:101A9000E06455602079F27CB17D4C7A237BF912A9
:101AA0004AF41225409003DCE090F9DEF09003DD6B
:101AB000E090F9DFF0E490FB14806EC082C0837484
:101AC000FF90F9C7F090FAFF122549C2E4F0D2E284
:101AD000F090F9FEE0C2E4122549541FF0E490F9B9
:101AE000BFF079207C247DFC7A837BF9124AF49044
:101AF000F9BD74F012425F790C7CD07D037A237BB0
:101B0000F9124AF4740190FB14F01217F3801BC011
:101B100082C083C293741590FC06F090F9AD123721
:101B2000BD90FA02E0F5CD8001F0D083D08222741E
:101B3000E912124290FC0DE07003021BC8122D65E1
:101B400090FADC121ECD90FB72122EC590FADA12BA
:101B50001ECD90FB74122EC590F9A51225CE5058BB
:101B600090F9A7122D6890FB721225CE400890FBC9
:101B7000741225CE504290FB77E02478F0A3E03435
:101B800000F090FC0E740A1236EF90F9A3122D6843
:101B90007583FB758277124937402DC2947401908A
:101BA000FB20F0E490FC0D1236E990FC0912292587
:101BB00090FB77E4F0A3800F90FB77E4F0A3F09024
:101BC000FC0E7432F0A3E4F090FB23E0241E1225F7
:101BD0008C7002A3E07045121EC57001E9603D746F
:101BE000FF68700374FF69603390FC06E06417704F
:101BF0002B90FAD41225CE502B90FB6C122D6875C9
:101C000083F97582AB124937501D90FB76E004F0E2
:101C1000C394024017E4F0121B0F801090FC06E002
:101C2000641770081237BAE490FB76F07E307F7547
:101C300075255475266F75274075281F7529707591
:101C40002A1790F94B78211211097821120931C312
:101C5000E5219411E522940040167E607FEA752507
:101C6000A87526DE75278075283E7529E0752A2E11
:101C700090F93F782D12110990FB5F121EE91208AE
:101C8000D4782D7921120E2490FB53782D1211183F
:101C900090FB4D7463F0A374F9F090FB61121EE9A0
:101CA0001208D490FB53782D1211097821792D1246
:101CB0000A68AA21AB22AC23AD24121946124BB2FA
:101CC0001229967005122974600E90FB21E0240BF6
:101CD000122FD17401021EB2E490FB0FF090F9BFF5
:101CE000E06022F875F0E8A4C8ACF075F003A42C0D
:101CF000FCE42CF9EA98EB9950047C0180027C000A
:101D0000EC90FB0FF090FB14E0C3700BEE9AEF9B8E
:101D10005023121ABB801EEA9525EB952650161209
:101D20001A6890F9E5E0A2E6500890F9FDE090FA13
:101D3000FFF01217F31229967090122974708B908D
:101D4000FB4D746BF0A374F9F090FB63121EE91263
:101D500008D490FB53782D1211097821792D120A9D
:101D600068AA21AB22AC23AD241219778A218B22D9
:101D70008C238D247821120931AA21AB2290FA03F9
:101D8000E06010121EBE500B740190FB6BF0C29409
:101D9000021E3290FA06E0F5217003021E3274FF33
:101DA00065217003021E3290FB69E07002A3E060BF
:101DB0000990FB69121FABF08078752200740378DC
:101DC000211211ED90FB69E521F0A3E522F090FBD3
:101DD0006BE0602F90FA05E0F8C3EA9812172550DF
:101DE00014A294400312191090FB07E0121EB6E4EF
:101DF00090FB6B80C2A294503990FB06E0603314D4
:101E0000F0802CA294502B90FA04E0121EBE5022B7
:101E100090FA09E0FB90FB06E0FAEBC39A5003EB63
:101E20008002E014F0740190FB6BF090FB06E0126E
:101E30001EE11229966003021CCA12297460030273
:101E40001CCA90F9C2E06065A294506190FB4D7489
:101E50004BF0A374F9F090FB57121EE91208D490CE
:101E6000FB53782D1211097821792D120A68AA21C5
:101E7000AB22AC23AD24121946124BB28A218B221D
:101E8000A821A92290FC07E064FFC3600FE5279812
:101E9000E52899501E74FF121ED88017E89529E98D
:101EA000952A500F90F9C2E090FC0780EA74FF90E9
:101EB000FC07F002170690FB06F0121EE122C39AFF
:101EC000E49B0225D190F9A9122D6CE8221237B6B5
:101ED000E8C39AFAE99BFB22F090FB06E0121EE1B0
:101EE00022F912166AE9F5CF22E0F521A3E0F522E6
:101EF00075230075240078212274F712124290FB9A
:101F000023E0241CFAA3E03400FB8921740125217D
:101F1000F8E43400F98A828B83123DBD800563901A
:101F200004E5908A828B83C3E09401A3E09400C30C
:101F300065D03350E98A828B83E4F0A3804B74F739
:101F4000121242C29475FEDB7E008E21752200744F
:101F50000A78211211ED12290FE8FAE9FB8A828B27
:101F600083A3A882A9838A828B83E064FF70047AAA
:101F70000180027A001229036006C3ED940440D95F
:101F80000EEEC3940F40C38001F07F020212A1C085
:101F900082C0838A828B83121FABF08A828B83E09C
:101FA0007004790180027900021B2A121FAF22E01F
:101FB00024FFF0A3E034FF2274F5121242752100D1
:101FC000A82190FB21E02812258C7003022174E4E3
:101FD000F0E521121323000501142002E91F030E6E
:101FE000200991200B1A206A2190FB12E0600B79E6
:101FF000001217BE1237D002216A90F9E5E0546052
:102000006420600302216A90FB0BE0F980E3122F49
:102010001002216A122FE402216A90DF3CE0A2E262
:10202000501490DF3BE0C3940D400BE0C39410507C
:10203000051225AE802D12299670F612297470F1C2
:1020400012427C1225A25006E87001E970E31237B3
:102050003A1225A25006E87001E970D57A0179009C
:1020600012385290FA0B122D687583FA7582D412C9
:1020700025CE400302216AE490FB06F075CF009064
:10208000FB23E02418122FD174D0F0A3740702218F
:10209000697A017BFC121F8FE960061217F312297F
:1020A0003C90FC03C3E0940AA3E094005003122583
:1020B000401237734007E490FC47F0800990FC47DA
:1020C000E0600302216A90F9E5E0A2E74003022103
:1020D0006AA2E6504F7AFB7BFB121F8FE960181251
:1020E00042AB90F9E5E0C2E6F090F9C7E090FAFF64
:1020F000F0F91217A480737AFD7BFB121F8FE96041
:102100006912374490FAFFE0F890FA01E028F8E409
:102110003400F97AFA7B0012116DEA90FAFFF09020
:10212000F9FD80CC7AF97BFB121F8FE96027124200
:102130006F90FBFFE4F0A3122549D2E612428F64B0
:10214000FF700890F9C7E090F9FDF0E012186A906E
:10215000FAFFE0809C7AFF7BFB121F8FE9600B1275
:10216000256B123706E8F0A3E9F0122996701112D8
:102170002974700C0521E521C394105003021FC07F
:10218000752100E521C333F8E433F990FB23E028FF
:10219000F8A3E03912257C400302252F8882898329
:1021A000E4F0A31236E3241E12371F90F9DEE0FCA0
:1021B000E5211212ED020D2F25D521E421E423D3D0
:1021C00022E92214239C230124D822F5237B24D93D
:1021D000242F254A2475C9A875C958122949F0A386
:1021E000E402252E90FB0AE0700302252F14F0E490
:1021F00090F538F090DF05E0FA90F9E2E06A7004BB
:102200007A0180027A00EA90FB7BF090FB15E07087
:102210000302252F90FB7BE07012123DC1642070F9
:10222000047A0180027A00EA90FB12F090FB11E040
:10223000601C90FB03E0601690FB11E014F090FB33
:1022400003E014F0701090FA15E4F0A3800790FBFF
:1022500008E0600214F079007A4A7BF8122F799036
:10226000F9C1E0FA700302252F90F9C0E0FBEAC340
:1022700094084009EBC39408400302252FEB600843
:10228000C39A50048B2380028A2390FB23E0240608
:102290001225905013E523C39413502E1225BB74BE
:1022A000FF2A1A74FF3B801174016523701C90FB98
:1022B000F7E024FFFAA3E034FFFB90F538E0FEEAF4
:1022C000C39EFAEB940012254FF090FC48E06401A5
:1022D00002252EC29302252F90FB20E060030225E9
:1022E0002F740190FB1002252E90F9DCE0700E9007
:1022F000F9DDE06008D293124298F0800890F9DC92
:10230000E0A2E0929390F9DDE0700302252F12190C
:102310001002252F90FB23E0240EFAA3E03400FBEB
:1023200088828983E07002A3E07066121EC5700186
:10233000E9605E74FF68700374FF69605490FC0686
:10234000E01212ED150291236B2354234E23121B2E
:102350000F02252F741790FC06F090F9B112375731
:1023600090F9DCE0A2E0929302252FE5CDC39C50CA
:102370001505CDE5CD90F9AD122D688A828B83E8E5
:10238000F0A3E902252E741690FC06F090F9AF80B8
:10239000E7741790FC06F090F9B180DC90F9E5E065
:1023A00054506410703E1238157008122561740183
:1023B0000221DE90FB09E0FA74FF2AF0EA601212B3
:1023C000256B90FBF7123736122561EAF0A3EB80FC
:1023D0000B90F9C7E090FAFFF090DF06F012296049
:1023E000E4F0A3F079001217BE740190FB12F01212
:1023F00037D002252F12298090FC03121FAB022533
:102400002E12292B1237C290FBEE122D687583FB1A
:102410007582F7E0C398F8A3E099F974F628F87488
:10242000FF39F990FB23123726A3A3A3A3A3123DE0
:10243000BD12376AF090FB0BE0600214F090FB0CC9
:10244000E0700302252F1402252EE5CDC39C400326
:1024500002252F90FA0DE0FBE5CDFAEB70057B012C
:1024600080010AEB1B6005EAC39C40F68ACD888296
:10247000898374D0F0A3740702252E90FB23E024F7
:102480001812371FE8FEE9FF122D657583FA758271
:102490000B1225CE503990FB06E0C0E090FB07E020
:1024A000FAD0E0C39A400302252F90FA0AE0FC908C
:1024B000FB06E0FBEC70057C0A80010BEC1C600560
:1024C000EBC39A40F6EB121EB98E828F8380A3E491
:1024D00090FB06F075CF0080F0E490F538F0122BF9
:1024E000F190F9C1E0F523604690FB23E0241A1235
:1024F00025905016E523C3941350341225BB90F554
:1025000038E0FEEAC39EFAEB801774016523701F62
:1025100090F538E0FA7583FB7582F7E0C39AFAA369
:10252000E09400FB74FF2A1A74FF3B12254FF0055C
:1025300021E521C3941050030221837F040212A1DC
:10254000121ABBE490FB14F022F090F9E5E022FBB4
:10255000EAC39CFAEB9400FB88828983EAF0A3EB40
:102560002290FB23E02410122FD52290FAFFE09056
:10257000DF06F0121622E090FAFFF022F988828935
:1025800083C3A3E01225882294008045123DCB220C
:10259000F8A3E03400F990FC48E0FC90F9E5E0A2F3
:1025A000E222122D6CC3E8941DE91225882290FBCB
:1025B00021E0240B122FD57401F0221237B3EA85E3
:1025C00023F0A4FAAEF08523F0EBA42EFB221249EF
:1025D00037A2D265D03322EEC0E0E9FE80057964EF
:1025E000121EF9EE1E70F7D0E0FE2274AA90F53BA1
:1025F000F0741090FFFFF090DF36E064816003120A
:1026000049FE90FFFEE0645A700302282F745AF0CE
:10261000D2B97E007F008E218F22740A7821121198
:10262000ED12290FE8FAE9FB8A828B83A3A882A91D
:10263000838A828B83E064FF70047A0180027A00CF
:102640001229036009C3ED940440D9121F3EEE2401
:10265000010EEF3400FFC3EE940FEF940040B790EB
:10266000FC10E02430122FD1749FF0A3742912388B
:102670000F2432122FD174F4F0A3742912380F24CE
:1026800034122FD17429F0A3741512380F24371285
:1026900025B4122FCB747812380C245D122FD1740C
:1026A0002812380C242012371F90FB21123DBD90B8
:1026B000FC10122D6890FB23123DBD90FC10E0240D
:1026C0003812371F90FB79123DBD741790FC06F04D
:1026D0001237BA741855BEC313131390FB05F07963
:1026E000F07A237BF9124AD1121A6890F9A3E070AC
:1026F00002A3E0600474018001E490FC0D1236D75F
:10270000122D52500590F9FD800390F9C7E0FAEAC6
:1027100090FAFFF012490B90FB05E01212ED000356
:10272000D3278E278E272A278E2790FFFDE0FA9049
:10273000FC09E06A700E740190FB201236E990FCEF
:102740000DF0800790FC08E06A7004C294800312C8
:10275000292290FFFDE0FA90FB0DE06A700C90F9E1
:10276000DDE06004D2948002C29490F9DCE0600461
:10277000D2938002C29390F9DEE0F5CD90F9DFE0CC
:10278000F990FB06F090FB07F0121EE2804512293B
:102790002290FA02E0FA60048ACD800690F9DEE029
:1027A000F5CDC293C29490F9DCE0A2E09293E4905C
:1027B000FB06F075CF0090F9DFE090FB071236E3DF
:1027C000240C122FD17470F0A374171236E324185E
:1027D00012298679907A1C7BFA124AD112187C123F
:1027E000298012296074021236EF1229491236EF3D
:1027F00012292B1237C212184D12428253E4FCE503
:10280000E475E30075E20075DB0275DAED43E4067A
:10281000E5E475E544790A1225D779047CF37DF95E
:102820007A017BFC124B29E960031249FEC2911226
:102830002F451217F38011EA7001EB700B88828923
:102840008374D0F0A37407F090F53BE064AA6003B2
:102850001249FE90DF36E0648160031249FE75C9BB
:1028600008121FB812299670DF12297470DA90FBD3
:10287000F7C3E09491A3E09406500A90FBF7E07050
:1028800002A3E0700A90FBF77490F0A37406F09036
:10289000FB23E024121229347583FB7582F7C3E011
:1028A0009AA3E09B500312295A88828983E0700220
:1028B000A3E0700312295A90F9F312373690FC0105
:1028C000122D68C3EA98EB99500690FC01122EC5B0
:1028D00090FC01E07002A3E0700312293C90FC031D
:1028E000E070031249FE90FB23E02416122934C342
:1028F000EA94D1EB9407A2D265D033500302283773
:1029000002283DEAFBEC24010CED3400FDEB22240F
:1029100000F874083522F9741090FFFFF07C007DF8
:10292000002290FB0DE090FFFDF02290FBF71237A4
:10293000C8241222123DCBFAA3E0FB2290F9F31235
:102940002D6C90FC011237512212294F747D229078
:10295000FB231229DCA3A3A3A3221237B3022EC1A7
:102960001229642290FB2312296B221229E0A3A3CF
:10297000A3A380E190FB22E0F5838882A3A3E02259
:1029800090FB23E02416122FD574D0F0A37407F027
:1029900022EAF0A3EBF090FB211229D8A3E022C099
:1029A00082C083E490FB021229E9041229E9C3944E
:1029B00004500A1229D1A3A374081236EF90FB0227
:1029C000E02412F582E434FCF583E0F5B6021B2A1C
:1029D000F090FB231229D8221229DC221229E022AE
:1029E000E0F8A3E0F583888222F090FC10E0243622
:1029F000123DCB2274F5121242E5BBF522E5BAF581
:102A000021740278211211CE90FC49E02521F52194
:102A1000A3E03522F52290FB02E0700A90FB7CE5F2
:102A200021F0A3E522F090FB02E0FA74012AF0EA1B
:102A3000C333F8E433F9E824E2F582E934FAF583A4
:102A4000E02521F0A3E03522F090FB02E0C39409D9
:102A50005010E02412F582E434FCF583E0F5B60270
:102A60002BA590FAF4E090FB7C700FE0F8A3E0F95E
:102A700090FB70E8F0A3E9F08039E0F8A3E0F97585
:102A800083FB758270C3E098A3E099500890FB70B7
:102A9000E8F0A3E9F090FB6EE0F8A3E0F97583FBA2
:102AA00075827CC3E098A3E099501090FB7CE0F81D
:102AB000A3E0F990FB6EE8F0A3E9F090FAF4E004EB
:102AC000F0C394085003022BA090FAE8E0FEA3E0C4
:102AD000FF7CE27DFA7A577BFB90FB01E0C333F881
:102AE000E433F9E8241CF8E934FAF97523098C82F7
:102AF0008D83E0F521A3E0F52288828983E521F02A
:102B0000A3E522F0C3E5219EE5229F50098A828B2E
:102B100083E4F0A38015E521C39EF521E5229FF50E
:102B2000228A828B83E521F0A3E522F0E82410F8C5
:102B3000E93400F9EA24020A0AEB3400FBEC24022F
:102B40000C0CED3400FD1523E52370A290FB21E071
:102B5000240BF8A3E03400F9888289837401F09093
:102B6000FB6EE0F8A3E0F97583FB758270E0C39813
:102B7000F8A3E099F990FB6CE8F0A3E9F079127AF8
:102B8000E27BFA124AD1E490FAF4F090FB01E004FF
:102B9000F06408700B740190FB0EF0E490FB01F000
:102BA000E490FB02F002253B74F71212427A937B09
:102BB000F9790612185375214C7522F878211212F2
:102BC000DC7C007DF87A2079001213AE74021212B8
:102BD0000F742290F84AF090F9E2E090F84BF0740C
:102BE0000190FB15021F8979067C297DF9124AF4B0
:102BF0002274F812124290FC0EE0FEA3E0FFE49073
:102C0000FB11F090FB03E0601E90FA15E064817008
:102C100004A3E064FB7005122DC38003122ECB7455
:102C20000190FB11022D4C90FB0EE07003022D5021
:102C30007A00790012385279047C167DFB7A007B89
:102C4000F8124AF490FAFFE090F804F074185590E6
:102C5000C333C0E090F925E0540FFAD0E04A333393
:102C600054FC122DB779107CD07DFA7A0C7BF812C7
:102C70002D52500C90DF06122D5C74022808800D36
:102C8000A2E5501390F9E3122D5C74012808E43991
:102C9000F9EE28FEEF39FF90F9E5E0A2E75008EEE3
:102CA0002404FEEF3400FF90F9FEE0A2E15008EEAC
:102CB0002408FEEF3400FF90FB0CE06008EE2410C7
:102CC000FEEF3400FF90F81AEEF0A3EFF090FB2730
:102CD000E07002A3E0600790FA1BE0FA80027A3FFE
:102CE000EA90F81CF090FB27E07002A3E0700B90D4
:102CF000FB7F122D6890FB27800990FB27122D681F
:102D000090FB7F123DBD90FB27E090F81DF0A29450
:102D10005024E5CD90F81EF090FB06E090F81FF0EF
:102D200090FC07E0C0E090F81FE0FAD0E0C39A50B2
:102D30001590FC07800B90F9DEE090F81EF090FBF8
:102D400007E090F81FF090FB27E4F0A3F0122BA807
:102D50008060124AF490F9E5E0A2E622E075F064A2
:102D6000A4F8A9F02290FAD4122D6C22122D702210
:102D7000E0F8A3E0F92274F81212428921EAFEEB8E
:102D8000FF7904EEFCEFFD7A007BF8124AF4E521AE
:102D900090F804F090F925E0333354FC4403122DED
:102DA000B77914EE2404FCEF3400FD7A0C7BF812A2
:102DB0004AF47F010212A190F805F07A067BF8121E
:102DC0002BE72274ED1212427E817FFB7521008079
:102DD00006740465216048852123752400740378F6
:102DE000231211EDE523244BF582E52434F9F58314
:102DF000782512110990FC58782912110978257943
:102E000029120A68AA25AB26AC27AD28124BB28E30
:102E1000828F83122EC5EE2402EF34000E0EFF05C2
:102E200021E521C3940740A990F94F782112110997
:102E3000AA21AB22AC23AD24124B6990FB8D122E3C
:102E4000C590F95F7821121109AA21AB22AC23ADFC
:102E500024124B6990FB8F122EC590F977782112BE
:102E60001109AA21AB22AC23AD24124B6990FB912E
:102E7000122EC590F97F7821121109AA21AB22AC3C
:102E800023AD24124B6990FB93122EC590F93B7829
:102E900021121109AA21AB22AC23AD24124B699057
:102EA000FB95122EC5E5CD90FB97F090FB06E090C8
:102EB000FB98F07A817BFB79EC122D767F0C021265
:102EC000A188828983EAF0A3EBF02274F8121242FF
:102ED00090FB03E0F874FF281874FF3400F990FCAD
:102EE00005E0FA7B0012116DE8FC90F9FF74CBF05D
:102EF000A3742EF0EC75F018A4F8A9F090FA15E080
:102F000028FAA3E039FB74ED2CF9122D76022DB2CC
:102F1000C082C08374FF90F800F090F801F090F840
:102F200002F090F803F079067C167DFB7A047BF8BA
:102F3000124AF47A0A7BF8122BE7122BA87412902B
:102F4000F84A021B2974F81212427E7F90FB99E026
:102F500070247401F090FB13E0701B53BEFB8005DE
:102F6000790212157CE5BEA2E64004EE1E70F10067
:102F700075C68943BE04022DB2C082C0838A828B8B
:102F800083E0FC74226C600574126C703B90FB0F44
:102F9000E0703575E10490FC10E0243AFCA3E034C5
:102FA00000FD8C828D8374F0F0EB90F877F0EA905E
:102FB000F878F01217BE90FC10E0243A122FD1746A
:102FC00010F075D60275E103021B2A90FC10E02474
:102FD0005B122FD522122FD922F8A3E03400F988F2
:102FE0008289832274F112124290DF38E0FF90DF71
:102FF00008E0F521E490FB12F090FAF5F0A3F090D0
:10300000F825E090FBA11225495460FA90FBA1E05D
:103010002427F582E434F8F583E0A2E7500D90FB15
:10302000A1E06422601CE06412601774206A7007DB
:1030300090FB0BE0F9800279001217BE1237D00224
:1030400036D490F826E0FB74206A701B90F9E2E019
:10305000FC6B701390DF05E06C700C79007A257BB7
:10306000F8122F790236D490F9E1E06B6003023652
:10307000C290DF3CE0A2E75004D2F08002C2F0A28E
:10308000F0E492E0FE74206A700979017A257BF8F9
:10309000122F7990F538E090FAFD1236EF7A937B93
:1030A000F979061218537523007524F87823121243
:1030B000DC7C277DF890FBA1E024FEFA7902121354
:1030C000AE740212120F90F800E090FBA0F090F89E
:1030D00001E090FB7EF079067C027DF87A9A7BFB1A
:1030E000124AF4E0541FC3941140030236C290FB0D
:1030F0009EC3E094E8A3E0940340030236C290FB31
:103100009A78251211097583FB75821A78251208A1
:10311000A9402879047C1A7DFB7A9A7BFB124B2903
:10312000E960030236C290FB9E122D6890FB1EE000
:10313000687003A3E06970030236C290FB9A782599
:103140001211097583FB75821A78251208A940218E
:1031500079047C1A7DFB7A9A7BFB124B29E9701566
:1031600090FB9E122D687583FB75821E12493750A5
:10317000047A0180027A008A2390F538E090FAFB05
:103180001236EF1237734005E490FC47F090FBA134
:10319000E02426F582E434F8F583E0F525C3948035
:1031A0005010E525C313FA90FBE01236FBF8E499C2
:1031B0008017E42525F874FF13E813F890FBE0125C
:1031C0003736E8C39AF8747F9BF990FB27123DBD10
:1031D00090F9E5E0A2E6406DEFC39401A2D265D07C
:1031E00033EF400EC39402A2D265D03340177F0163
:1031F0008013C3121726500DEFC394FFA2D265D0DF
:103200003350027FFFE521F83395E0F9EFFA33956B
:10321000E0FBEA28F521EB39F522AA21FB12170B76
:10322000C3EA94611217254016740278211211ED39
:10323000AA21E522FB3395E0FCFD124A0D8006E54C
:103240002190DF08F0EE70030236C290FB0CE060C4
:103250000214F090FC0AE06009E41229D07478129C
:1032600036EF639002E590741290FB0A1236D71283
:103270004AF4E523600D79067C9A7DFB7A1A7BFB84
:10328000124AF490FB7EE0A2E750047A0180027AB1
:103290000490FBEE12376290FB7EE0F8741F58F842
:1032A000EA28F8E43400F9E88521F0A4C8AAF085FA
:1032B00022F0A42AFA8521F0E9A42AF990FBF4E08F
:1032C00028F8A3E039F990FBF7E8F0A3E91229D038
:1032D000122D6890FAFD123DBD90F9C5E0602C906A
:1032E000FB7EE0541F240275F00312085DE5F070C8
:1032F0001A90FC4BE014F0701290F9C4E090F500C5
:103300001236EF90F9C5E090FC4BF090F9E5E0A2A1
:10331000E650047A0080027A0490FB23E0241A121B
:10332000371FE8FCE9FD90FBA0E07032E490FB154C
:10333000F0740AC39AFAE412378BF079067C9A7D0E
:10334000FB7A167BFB124AF412373AC3E09401125F
:10335000258250738882898374FFF0A3806890F976
:10336000C1E0FE90FBA0E0F8EEC398F8E49400F909
:1033700090F9E5E0A2E2EE502F604CC3E89413E927
:10338000121726504290FBF7123762E88521F0A40D
:10339000C8AEF08522F0A42EFE8521F0E9A42EF916
:1033A000740A28F8E4398015601D7401687001E919
:1033B000701590FBF7E0240AF8A3E03400F9E8C3A5
:1033C0009AFAE912378BF0740890FB0B1236E3245B
:1033D0000812371F90FBEE1237367583FB7582F7A4
:1033E000E0C39AFAA3E09BFB74EE2AFC74FF123749
:1033F000A190FBA0E090FB0012425B402E90FB23CB
:10340000E02410FAA3E03400FB90FB7EE0A2E6503B
:103410000E88828983123757740890FB09800BE469
:1034200090FB09F08A828B83F0A3F090FBF7E024F5
:1034300001FAA3E03400FB90FB23E024121237C210
:1034400090F9E5E0A2E690FB27501CC3E094A2129D
:1034500036F4400E12374490F9ED122D6890FBFBC4
:10346000801D12376A801CC3E0949B1236F440F230
:1034700090F9EB122D6890FBF9123DBD123706E86A
:10348000F0A3E9F090FBA0E0FC74FF6C600C90F9F5
:10349000C0E06006F5F0EC84ACF090F925E0FD901A
:1034A000FBEE121EC88DF0A4F8AAF08DF0E9A42A54
:1034B000F990FBF2E028FAA3E039FB90FAFB123610
:1034C000FBFAEB99FB90FB23E0240612371F90F9DF
:1034D00026E0FE74FF6C600FEE6C700B88828983AF
:1034E000EAF0A3EB0236248C21EEC39521F521E40A
:1034F0009400F52290FB7EE0541FFF90F9C1E0F5A7
:103500002390F9E5E0A2E2E5235044607174FF6E78
:10351000606CECC39E4003023625C3E5219413E59D
:10352000221217264003023625EDC39F40030236C0
:103530002590FBF7123714CCAEF08522F0A42EFEB6
:103540008521F0EDA42EFDEA2CFAEB3DFB808D6089
:103550002D74FF6E6028ECC39E4003023625740173
:1035600065217002E5226003023625EDC39F40030A
:1035700002362590FBF7E02AFAA3E03B80CE74FFE9
:103580006E600302362574FF6D600302362590FBE2
:103590007EE0A2E7500302362590FB23E0241AFACE
:1035A000A3E03400FB8A828B83E4F0A3F090FB0459
:1035B000E0600314806E53B4F3E5B443B404E5BD96
:1035C000C0E090FA08E0F5F0D0E08490FA07AAF0A5
:1035D000E02A90FB04F090FB7EE0FA741F5AF5217C
:1035E00090FBEE123714FCAAF08521F0EDA42AFD21
:1035F000E5BC75F0058485F02190FBF0123736EAC2
:10360000A4FAAEF08521F0EBA42EFBEA2CFAEB3DF8
:10361000FB90FBF2E02AFCA3E01237A190FB211201
:1036200037267401F088828983E07002A3E0603459
:103630007AFA90FBA1E0641270027A1090F9E5E04A
:10364000A2E6501090F9FEE0A2E1500474F380026B
:1036500074F62AFAEA3395E0FB88828983E02AF03F
:10366000A3E03BF090F9E5E0546064207005790533
:10367000121EF990FBA1E024F6F91245BF90F9E57E
:10368000E054486408702390FBF9C3E094C8A3E0B9
:103690009400501690FBA1E02425F582E434F8F55F
:1036A00083E090DF06F090FAFFF090FB23E0240621
:1036B000F8A3E0340012257C500888828983E4F066
:1036C000A3F079001217BE90F9E5E0546064207011
:1036D00003023030021A63F079047CF37DF97A0139
:1036E0007BFC22F090FB23E022F090FC0E7446F06D
:1036F000A3E4F022A3E094FF0225D11236FF2212A8
:103700002D70EAC3982212370A2290F9F1122D7017
:1037100090FBFF22E0FCA3E0FDEC8521F0A422F861
:10372000A3E03400F922E0FAA3E0F5838A82A3A3A0
:10373000A3228E828F831237B62290FB23E0241AB5
:10374000122FD5221237482290F9EF122D7090FBDC
:10375000FDE8F0A3E9F022122D6C8A828B831237E8
:103760005122E0F521A3E0F5222290FB211242A68E
:1037700074012290FAF9E02401F0A3E03400F09003
:10378000FAF9C3E09433A3E09400229400FB90FA8A
:10379000FB1236FFF8EB99F98C828D83E8F0A3E9F0
:1037A000223BFD90FAFB1237B6ECC39AFAED9BFB75
:1037B000022EC190FBF7E002293790F9B11237C809
:1037C000240E122FD5022EC5E0FAA3E0FB0236E448
:1037D000C082C083123815700512381B802B75E12A
:1037E0000474F012380F245F12187490F825F090CA
:1037F000F82612380F243A122FD17420F074229038
:10380000DF02F075D60175E102021B2AF0A3E4F095
:1038100090FC10E022123DC564102212296474014C
:103820000236EF74F112124290FBA67821121109B0
:103830008A828B83782512110978217925120A68EA
:1038400090FC4C782512110978217925120C0D0273
:103850001A4A74E112124289238A2490DF08E0F8A0
:103860003395E0F990FB25123DBD7AAC7BFA7521CA
:103870001C7522FA90FB21E02401F525A3E0340019
:10388000F526852582F583E0701490FB21E0240263
:1038900012371F882789288882F583E06006122561
:1038A000AE023DABE524605490FB01E0F8187407CC
:1038B00058C333241CF521E434FAF5227909852113
:1038C00082852283E0FCA3E0FD8A828B83ECF0A357
:1038D000ED1236EFA3F0123DB0E5212410F521E5FD
:1038E000223400F52219E970D590FC0B122D687A6C
:1038F000087B0012116D8829E902397D7529007C49
:103900000890FC5C782D12110990FBAA782D1211F9
:10391000188027852182852283E0F52DA3E0F52EEE
:10392000752F0075300090FBAA782D1210CAE52182
:103930002402F521E5223400F522EC1C70D5852502
:1039400082852683E0600302389E8527828983E092
:10395000600302389E90FBAA782D1211098A828B8F
:1039600083782D121118123DB00529E529C3940959
:10397000408D90FC0BE0F521A3E0852129F52A3349
:1039800095E0F52BF52C90FAB878291210CA852508
:1039900082852683E0600302389E852782852883FE
:1039A000E0600302389E7C0979007AAC7BFA124A07
:1039B0008B123DE67005123DD0600302389E90FAEE
:1039C000BC782512110990FC5C782512087F7003E1
:1039D000023DAB752900752A00752B80752C3F7848
:1039E000251208B978297925120E2490FB4F7829E1
:1039F0001211188E828F83E070C185218285228307
:103A0000E070B890FB4D746BF0A374F9F079061276
:103A100019A88A258B268C278D2890FBA67825123D
:103A200011188E828F83E07092852182852283E037
:103A3000708990FBA6782512110990FC60782912F4
:103A4000110978257929120A68782512093190FA26
:103A5000D8E525F0A3E526F090FB4D742FF0A37474
:103A6000F91248FCE0600302389E8521828522839A
:103A7000E0600302389E7AA67BFB1219FA8A258B36
:103A8000268C278D2890FBB6782512111890FBB64E
:103A90007825121109782512093190FBAE7825128C
:103AA00011188E828F83E0600302389E8521828503
:103AB0002283E0600302389E90FBE2782512110910
:103AC00090FB25123762740278211211EDE5212551
:103AD00025FAE5223526FB90FBAE7825121109EA7E
:103AE000C39525F521EB9526F52274027821121154
:103AF000CEE52190FA1BF0E5236022123DC164F06F
:103B0000701B90FBAE782512110990FBE27825120C
:103B100010DDAA25AB26AC27AD28124A0D123DE6D2
:103B20007005123DD0600302389E90FBA6782912E2
:103B3000110990F947782512110978297925120B76
:103B4000E890F93F782D1211097531007532007532
:103B5000338075343F90F943783512110985292552
:103B6000852A26852B27852C2878257929120A680D
:103B700078357925120A6878317935120BE8782D75
:103B80007931120A6890FBA2782D12111890FBA6C9
:103B9000782512110990FC64782912110978257989
:103BA00029120C0D90FBA6782512111890FB4F7866
:103BB0002512110990FBA27829121109782579297B
:103BC000120A6890FB4F7825121118752900852973
:103BD0008285822785272B752C007402782B121181
:103BE000ED852B25852C2690FB4F782D121109E5AC
:103BF0002524ACF582E52634FAF5837831121109D3
:103C000078311208B9782D7931120A6890FBB278B0
:103C10002D1211188E828F83E0600302389E852159
:103C200082852283E0600302389E74086529600C57
:103C300074076529600674026529702690FBB278C6
:103C40002D1211097AD47BF91238238A318B328CE8
:103C5000338D34782D7931120A6890FBB2782D12A9
:103C60001118E52524BAF8E52634FBF988258926BC
:103C7000E527241BF582E434FCF583E0F52774FF87
:103C80006527701490FBB2782D1211098525828961
:103C900083782D1211188056752800740378271226
:103CA00011EDE527244BF8E52834F9F990FB4D1286
:103CB0003DBD90FBB2782D121109AA2DAB2EAC2F71
:103CC000AD301219468A2D8B2E8C2F8D3085258292
:103CD000852683782D1211188E828F83E06003026F
:103CE000389E852182852283E0600302389E052963
:103CF000E529C394095003023BCE90FBBA78251204
:103D00001109AA25AB26AC27AD28124BB290FAD0E8
:103D1000122EC590FBBE7825121109AA25AB26AC40
:103D200027AD28124BB290FAD212299170051229B0
:103D300074600302389E90FBCE7825121109AA25E3
:103D4000AB26AC27AD28124BB290FAD6122EC590F6
:103D5000FBDA7825121109AA25AB26AC27AD28126B
:103D60004B6990FADA122EC590FBD678251211090C
:103D7000AA25AB26AC27AD28124B6990FADC122E8F
:103D8000C590FBC27825121109AA25AB26AC27AD38
:103D900028124B6990FAD4122991709712297460F5
:103DA0000302389EE5246003121B2F7F180212A124
:103DB000EA2404FAEB3400FB22F990FA1512375189
:103DC00022123DC52290FC10E0243A122FD9E022A5
:103DD00090FB21E0240208A3E03400F98821892225
:103DE0008882F583E02290FB21E02401F8A3E034EF
:103DF00000F9E8FEE9FF8E828F83E02274F612124A
:103E0000428A237C237DF98982858221752200E9FB
:103E10002423FEE434F9FFE9121323080609A6411E
:103E20001015723F2E3010413D46CF41494ECF41D3
:103E30004F51EB415556F94157584442280125420C
:103E400004B73E05003F0BBC3F0CB63F0D9A410E38
:103E5000BA4116613F17673F1A803F1CC23F1D12CF
:103E6000421FE83F20064021E23F235740256240A1
:103E7000286E402981402AA4402B7A402CEC402D0A
:103E8000FD40311B41333341353E41365241385EAE
:103E9000413902403A87413B9A4052D5415C4A42FF
:103EA0005D2B425E31425F3742602042613D426499
:103EB0001B42713A405642EAC39402400302425602
:103EC000EA6038D293122960A3A3E4F0A3F090FB38
:103ED00010E0701290FB23E0241412258C7002A3D2
:103EE000E07003024256121910E490FB101236E300
:103EF0002414122FD1E4F0A3024255C29302425679
:103F0000EAC39402400302425674016523702512ED
:103F10002922E490FB20F090FC0E74321236EF90D0
:103F2000F9A3E07002A3E06008740190FC0DF0803A
:103F300006E480F7EA6011741855907017D2931256
:103F40001910124298024255C29490FC08E090FF6A
:103F5000FD024255A2945003024256121910024229
:103F6000568523CD024256EA90FB07F0121EB60298
:103F70004256EE24F6F582EF34FFF583EA0242550D
:103F8000EA90F9C7F0F912158890F9E5E0A2E64049
:103F90002590F9C7E090DF06F012186A90FBF974DB
:103FA0002CF0A37401F090FBFF742CF0A37401F0CB
:103FB00075E1041217F312428202425612151302DF
:103FC0004256A293E492E090F9DCF0A294E492E0ED
:103FD00090F9DDF0E5CD90F9DEF090FB07E090F987
:103FE000DFF01242BE02425612428274FF90F9265E
:103FF000F090F9251236E3241A12187412427C024A
:104000003EF57C007D5C90FB03E06003024256902D
:10401000FA15E07002A3E07014ECF8ED123DB975EA
:10402000F00A90FC05E0A490FB0302425590FC05C9
:10403000E0C0E0EAF5F0D0E080ECEA90FB03F0901D
:10404000FA157481F0A374FBF090FB03E0600302A7
:1040500042567401024255EA90F9E0F090DF2E02D8
:10406000425590F9E5EAA2E0E092E102425590F96A
:10407000E5EAA2E0E092E4024255EA90F9E3024266
:104080005590F9E5EAA2E0E092E5F0EA6003024229
:104090005690FAFF1217ED02425690F9FEEAA2E09E
:1040A000E092E1F0742A69700A90F9E5EAA2E0E092
:1040B00092E6F090F9E5E0A2E6501D12426F90FB07
:1040C000F9E4F0A312428F90FAFFF0F91217A490CE
:1040D000FB23E02410023EF290FBFBE4F0A3F0127D
:1040E00042AB90F9C7E090FAFF024255EA90F9E43A
:1040F00012425B400302425690F9C78097EA90FB58
:10410000F6F0A2E07583F97582E5E092E702425588
:10411000EE2495F582EF3400023F7AE490F9C7F07F
:1041200074FF90F926F090F925F090F92712425F7C
:104130001242BE1229D17478F0A3E4024255EA90EB
:10414000F9FD12425B4003024256EA90FAFFF00288
:10415000409190F9FEEAA2E0E092E0024255791027
:104160007C297DFB7A837BF9124AF479107C397DB6
:10417000FB7A937BF9124AF479207A297BFB124A65
:10418000D112184D024256EA600CC394205007EA3F
:1041900090FC05024255740480F690F9FEEAA2E014
:1041A000E092E3024255EE248AFAEF3400FB8A8261
:1041B0008B83E523F0A3AA82AB83740E6970047A23
:1041C000B77BF979047C9A7DFB124AF4024256EEE1
:1041D00024A1024113EA700774FF90FC0780099044
:1041E000FC07E064FF6004EA121ED8EE244DF5825D
:1041F000EF3400F583E523805C79047C1A7DFB7441
:104200000278211211EDE5212478FAE52234F8FB39
:1042100080B790F9FEEAA2E002410AEA90FC68F059
:104220001217F3803190F9E502419DEA90F9C480BC
:1042300024EA90F9C5801EEA90F9C68018122FCBA7
:10424000EA024138EE2441024113740165237006ED
:10425000740190FB13F07F030212A1F0022D55F0C0
:10426000A3F0740290F9E1F0740190F9E2F0229069
:10427000F9ED122D6C90FBFB1237512212294FA33E
:10428000A32290F92DE0F5BC90F92EE0F5BC22F0C8
:1042900012374890F9FDE02290FB231242A6A37446
:1042A000D0F0A374072212296BA32290F9EB122DF0
:1042B0006C90FBF912375112370A12375122C08223
:1042C000C08343C6400043C6400043C6400043C6C7
:1042D000400043C6400043C6400043C6400043C6BA
:1042E000400043C6400090FB0CE070051249198065
:1042F0006390F53BE064AA60031249FEC2AF43C677
:10430000400043C6400043C6400043C6400043C689
:10431000400043C6400090FB0CE070031249FE755C
:10432000AD2E75AB2175AE010075AD00D2AF7932FF
:10433000121EF979F27C007D5C7A237BF91214BF9E
:104340007916121EF912381B90FB0CF075C6890005
:104350000000000000021B2A74F6121242EAFEEB73
:10436000FF7521237522F9E9C333FAE433FBEA240C
:1043700023FCEB34F9FDEE540FF523EFFBE4CBFA0D
:10438000E912132302040C2C4413175B440C01B4F0
:104390004302BE4303CB430D01440E1D4410394478
:1043A0001155441860441999441ADA431BF7431C09
:1043B000FC43A54490F927EEF0A3EF0244A4E523C3
:1043C00090F925F0EA90F9260244A4EE90F9E1F084
:1043D000EA90F9E21244A80244A490F9A3EEF0A3F3
:1043E000EFF090F9A3E07002A3E06008740190FC84
:1043F0000D0244A4E480F790F9A580BB90F9A78052
:10440000B67918121EF9743F6E700374086F70034A
:104410000244A58E828F831212400244A5EE90DFE3
:1044200001F0EA90DF00F090F9BD808BEC24C0F53C
:1044300082ED3400F5830243B790FA15E07002A3D1
:10444000E07062C3EF9404405CC3EF940850569050
:10445000FA150243B790FA0B0243B7EC246080CF01
:1044600074F05FF9E47001E960058B2175225C74DA
:104470000F5A75F018A4F8A9F0E52128F8E52239BB
:10448000123DB9EEC4540F90FC05F0C0E0E523F5F1
:10449000F0D0E0A490FB03800BEA2423F582E434FF
:1044A000F9F583EEF0024256F090F9E1E090DF0575
:1044B0002274ED1212428923EAFEEBFF752100758A
:1044C00022007524008925752600740278251211B2
:1044D000EDE5252423FAE52634F9FB8E828F8378D7
:1044E00025121109E9121323040104FF44050628CB
:1044F000450A173245191A964501187B45A045EA29
:104500002408F521EB3400F52274046523600302CE
:1045100045A0782512093174142525F8E43526F9CB
:1045200090F9E9123DBD8078EA249DF521EB340035
:10453000806C740E6523700C79047A497BFB124AF7
:10454000D175240174F62523F523C313F5217403D3
:1045500078211211EDE523A2E0E492E0F52575261D
:1045600000740278251211EDE525244BF8E434F9A6
:10457000F9E52128F521E522398023752900752ADE
:1045800000752B80752C3F78297925120E2490FA1E
:10459000177829121118EA24BCF521EB34FFF52213
:1045A000E5217002E522600D7904EEFCEFFDAA2101
:1045B000AB22124AF4E5246003121ED9022EBC7409
:1045C000F312124289257E087FF8752301752400B5
:1045D000802DE0F521A30EAF837906EEFCEFFD7A86
:1045E000297BF9124B29E9700E740F552690F92595
:1045F000F0E52190F926F0EE2406FEEF3400FF8E60
:10460000828F83E0FA7003024831AB2574FF2BF5EB
:1046100025EB70030248318A26A3AE82AF8374F083
:104620005526F52174F0652160A890FBF6E0640240
:10463000700312490B8E828F83122D6890FBDE125D
:104640003DBDEE24020E0EEF3400FFEE2402EF34E7
:1046500000F974035526F5221212ED0003D34667C4
:10466000466C468846B04675230180671237329003
:10467000F927E06A7003A3E06B70047A0180027A84
:10468000008A230E0EE9804A8E828F83E0FA90F929
:1046900026E06A70128E828F83A3E0FA90F925E0FB
:1046A0006A70047A0180027A008A2385232480D3E9
:1046B0007906EEFCEFFD7A297BF9124B29E97004AB
:1046C0007A0180027A008A23852324EE2406FEEFF5
:1046D0003400FF90FBDEE07002A3E0603590FAF753
:1046E000C3E09401A3E094FF4017C390FBDFE09484
:1046F00001500E90FBDE122D6890FAF7123DBD803E
:1047000011E523600912492750047A0180027A00DA
:104710008A23124927500690FAF7123DBD8E828FE8
:1047200083A3A882A983E521121323000610614701
:1047300020E24750414770F14780F147903648FFEB
:1047400045E52370030245F77403652260030245C3
:10475000F77906EEFCEFFD7A297BF9124AF402455F
:10476000F790FBF6E0FA90F9E5E0A2E7E492E06A60
:10477000601090FBF6E0A2E07583F97582E5E092A7
:10478000E7F08E828F83E0F521E8FEE9FF740C5597
:1047900026121323000300A14704B44708CE47FFA5
:1047A00045E5236009EEFAEFFBA9211244B1EE249E
:1047B000040245FAE523600B8E828F83E0FAA9217B
:1047C000123DFC8E828F83A30EAF830245FFE5234B
:1047D0006008123732A921124358EE24020E0E024D
:1047E00045FBE52370030245FF7918121EF91249B3
:1047F000FEE524603C7AE07B031218517AF07B03DB
:104800007906121853748065217008752139752254
:10481000FB80067521297522FB78211212DCEEFC43
:10482000EFFD7A1079021213AE740212120F1218F1
:104830004D7F060212A1EE2407F521EF3400F52288
:10484000E524602E43C6400043C6400043C64000F6
:1048500043C6400043C6400043C6400043C6400034
:1048600043C6400043C6400090FB0CE0700B124969
:104870001900AE21AF220245FF8E828F83E0F5261C
:10488000E8FEE9FF8E828F83E0A30EAF8390F9FDEF
:10489000F090F9C71248FCE090F9E112490290F952
:1048A000E212490290F9261248FCA3122D6890F9F1
:1048B00027123DBD740F552690F925F090F9E5E5D6
:1048C00026A2E4E092E2F090F9FEE526A2E5E0926D
:1048D000E4F0E526A2E6E092E1F079047C1A7DFBA3
:1048E0007AB77BF9124AF41242BEAE21AF2290F998
:1048F000C7E0F91215881217ED0245FFF08E828F7E
:1049000083221248FCA30EAF83E02290F9E5E0A2D7
:10491000E7E492E090FBF6F0227414F090FAF712BC
:104920001FAFF075C6892290FBDE122D6C7583FADD
:104930007582F712493722C3E098A3E0992274F8F0
:10494000121242E9FE79147C6E7DFC7A0C7BDF1238
:104950004AF490FBEE1249F790FBF074301249F9DB
:1049600090FBF2743C1249F990FBF41249F790FB6A
:10497000E0744A1249F9740A90DF07F0EEC3940D0F
:10498000404D79067C687DFC7A0C7BDF124AF4741A
:1049900010F090FBE074481249F979037C857DFCA6
:1049A0007A237BDF124AF479087C887DFC7A157BB8
:1049B000DF124AF474196E7023740A90DF07F074E2
:1049C000A990DF1CF090F9C6E090DF0CF0800D7923
:1049D000037C827DFC7A237BDF124AF479037A2FF1
:1049E0007BDF124AD179037C907DFC7A027BDF1257
:1049F0004AF47F010212A17450F0A3E4F022C082B5
:104A0000C08375C90B748090FFFFF080F574F512B8
:104A1000124274FC1212008A218B228C238D24C234
:104A2000AF90DF0BE0854182854283F090DF0AE0A2
:104A3000C0E07401121236D0E0F090DF09E0C0E06F
:104A40007402121236D0E0F08541828542837821CB
:104A50001210CA854182854283E090DF0BF0740119
:104A6000121236E090DF0AF07402121236E090DF84
:104A700009F090FBE278211210CAE490DF08F0D22E
:104A8000AF740412120F7F040212A174F3121242C7
:104A90008035740369602F740969602AEA240CF573
:104AA00082EB3400F58378211211098925752600DF
:104AB000740278251211EDEA2525F582EB3526F5ED
:104AC0008378211210F509E9C39C40C67F060212C3
:104AD000A1C082C083C3EA9401EB94804011800B93
:104AE000E48A828B83F0A3AA82AB83E91970F1D0A8
:104AF00083D0822274F8121242C3EA9401EB9480AC
:104B00004022801C8C828D83E08A828B83F08C8291
:104B10008D83A3AC82AD838A828B83A3AA82AB836D
:104B2000E91970E07F010212A174F6121242E9192C
:104B300060308A218B22852182852283A3AA82ABC1
:104B400083ECFEEDFF8E828F83A3AC82AD83852143
:104B500082852283E0F88E828F83E06860D07901BD
:104B6000800279007F030212A174F11212428A219D
:104B70008B228C238D24782112093190FC93782587
:104B80001211097825792112089440067AFF7B7F5B
:104B9000801B90FC9778251211097825792112083D
:104BA0009450067A017B808004AA21AB227F080200
:104BB00012A174F11212428A218B228C238D247847
:104BC0002112093190FC9B78251211097825792151
:104BD00012089440067AFF7BFF801B90FC5C7825CE
:104BE0001211097825792112089450067A007B0069
:104BF0008004AA21AB2280B56D4EC6413930000039
:104C0000500030003C0050000290067800DC001498
:104C1000001E00080050000417FFE77E01A8FD01F8
:104C2000320000F5B1B2B3BCB7B0B5B4B600010202
:104C3000FFFF03FF0605414E4453006C617241754E
:104C40006775737400074175677573740007417564
:104C5000677573740007646AAA01013200010000DD
:104C6000803F000080C00000003F00007A44000048
:104C700000000000C8420000C8C10E55734359002F
:104C8000790701235945070014166C4340915610CB
:104C9000A90A00118135098831091D1CC740B2B627
:104CA00010EA228545008000000180FFFF0000011E
:104CB00000AAAA0000FFFF2C764002274471AA3503
:104CC000BAD3BC633D91ED1C3F000075C300001CCE
:104CD0004595BFD63400009242B81EDD4100C05A4F
:104CE000C5E17AC841000000000000F84000800ED5
:104CF000C48FC2C74100006BC352B8DE3E00401CE7
:104D000044CDCCFC40000005C4C3F5F8400080123F
:104D1000C4414E4453006C617241756775737400F1
:104D20000741756775737400074175677573740083
:104D300007204EBC02500000003075F000B004F8AF
:104D40007F00000000FFFFFFFFFFFFF0F00000000A
:104D5000AAFF78804DFFCB486654CB486654CB48B9
:104D60006654ACC5A73717B7513801016464FF0218
:104D700001FFFF1701A49A38FF28001E000300045A
:104D800000080050003F08F100F100FF89FFFF1903
:104D9000466E645A0A070B3C0A18FC0A140100000C
:104DA000005555FFFFFFFFFFFFFFFFFFFFFFFFFF66
:1058000043C6490043C6490043C6490043C6490050
:1058100043C6490043C6490043C6490043C6490040
:1058200043C6490043C6490043C6490043C6490030
:1058300043C6490043C6490043C6490043C6490020
:105BE00043C64900FFFFFFFFFFFFFFFFFFFFFFFF6F
:105BF000020000FFFFFFFFFFFFFFFFFFFFFF01BDF0
:020000040000FA
:10600000E490F80078ED79028002F0A3D8FCD9FA88
:1060100090F9ECAA82AB83907F5D78457901801579
:10602000E493A3AC82AD838A828B83F0A3AA82AB74
:10603000838C828D83D8E9D9E7126BE00080FA75F2
:10604000D0007581467541007542F802600043AE8C
:106050000222E5AE20E7FB22A2E792D65002F4042A
:1060600030F70663F0FF05F0B3400384800384F447
:106070000430D60563F0FF05F022C3E09608A3E0E4
:106080009608A3E09608A3E09622080808EAC0E074
:10609000EBC0E086F0E7A4FA180986F0E7A42AFA34
:1060A000180986F0E7A42AFA180986F0E7A42AFA64
:1060B0001986F0E7A4FBE5F02AFA190886F0E7A4B0
:1060C0002BFBE5F03AFA190886F0E7A42BFBE5F084
:1060D0003AFA18180986F0E7A4C5F02BFBE43AFA5F
:1060E0001908E7C5F0C6A426F6E5F03BFBE43AFA4A
:1060F0001886F0E7A4F6E5F00826F6E43B08F6E497
:106100003A08F6D0E0FBD0E0FA226016080808C68C
:10611000C313C618C613C618C613C618C613C6D5E9
:10612000E0EA22E026F608A3E036F608A3E036F619
:1061300008A3E036F622E026F008A3E036F008A334
:10614000E036F008A3E036F022C3E0C696F608A3D6
:10615000E0C696F608A3E0C696F608A3E0C696F653
:1061600022E0F608A3E0F608A3E0F608A3E0F62292
:10617000C3E498F8E499F91261B18026C3E49AFA6D
:10618000E49BFBE920E7E91261B1E498F8E499F9AE
:1061900022C3E498F8E499F91261B1E498F8E4991B
:1061A000F9C3E49AFAE49BFB22EB20E7CFE920E76E
:1061B000E0B90010BB0008E88AF084F8AAF022E4F5
:1061C000FBC8FA22EB70227B10C833C8C933C9332D
:1061D0005007C39AC3DBF280069A50012ADBEAC853
:1061E00033F4C8C933F4C9FA2275F008E4C833C8D7
:1061F000C933C933C99AC99B5004C92AC93BD5F0D0
:10620000ECFBC833F4C8E4C9FA22600D08C6A2E763
:1062100013C618C613C6D5E0F322600C08C6C31314
:10622000C618C613C6D5E0F422700422600D18C645
:10623000C333C608C633C6D5E0F418222541C0A82A
:10624000C2AF40021542F541D0A822C0D02541C0BE
:10625000A8C2AF50020542F541D0A8D0D0222541B6
:10626000F582E43542F58322E4732541C582C0E01E
:10627000E54234FFC583C0E0E541C3958224F9C0FF
:10628000A8C2AF858342858241D0A8CEF0A3E52085
:10629000F0A37821E608F0A3DEFAEFF0A3E581246D
:1062A000FBF8E608F0A3E608F0A30808E608F0A368
:1062B000E608F0A315811581D0E0FED0E0F8158145
:1062C0001581E8C0E0EEC0E022854283854182E08E
:1062D000A3FEE0A3F5207821E0A3F608DFFAE0A30F
:1062E000FFE0A3C0E0E0A3C0E0E0A3C0E0E0A3C003
:1062F000E085A8F0C2AF85824185834285F0A8D0B1
:1063000083D08222D083D082C5F0E493A3C5F0C3AA
:1063100095F0F5F0E493A3C395F04005E5F0048013
:1063200001E475F002A42582F582E5F03583F5835A
:10633000E493A3C0E0E493C0E022D083D082CCC039
:10634000E0E493A360061263641470FAE493A3601C
:10635000061263831470FAD0E0FCE493A3C0E0E477
:1063600093C0E022C0E0E493A3D39C5010E493A335
:10637000C39C400AD0E0D0E0D0E0026357A3A3A3BF
:10638000D0E022C0E0E493A36C7009D0E0D0E0D06C
:10639000E0026357A3A3D0E022C082C08374014906
:1063A000F5B37C10800C8A828B83E0F5B1A3AA82BE
:1063B000AB83EC1C70F0D083D08222800100E5B367
:1063C000A2E350F922C082C0838C828D831263992C
:1063D0007A0C800100EA1A70FB7A108004E5B2F0B2
:1063E000A3EA1A70F81263BB80CCC082C08390F815
:1063F00076E054F0F0741390F875F074DF90F86F55
:10640000F074D990F870F074F890F871F0742590E9
:10641000F872F0748090F873F0742590F874F0744A
:106420001090F876F074F8F5D575D46F90F87EE09A
:1064300054F0F0741390F87DF074F890F877F074DD
:106440004A90F878F074DF90F879F074D990F87A7F
:10645000F0742090F87BF0742390F87CF0744090F6
:10646000F87EF090F886E054F84408FAF074129040
:10647000F885F090F883E0541FF074DF90F881F015
:1064800074AF90F882F0E490F883F074F890F88498
:10649000F0740F5A444090F886F074F8F5D375D232
:1064A00077D083D0822274F612626AEAFEEBFF8C08
:1064B000218D22892312605275AB2AEF90F87FF06C
:1064C000EE90F880F090F883E054E0F0E52390F847
:1064D00084F0AA21AB227409782112621AE521F511
:1064E000ADEBC313EA13F5AC53D1FB75D6041260C0
:1064F0004E79017F030262C97A177BFF00DBFDDA68
:10650000F9D9F52274F112626A7C19800F75F00ACC
:10651000ECA429C0E0EC1265DCD0E0F0EC1C70EDDE
:10652000E9F5257526007527007528007C0090F98F
:10653000EC78211261617825792112608A90F9F056
:106540007825126123852521852622852723852804
:10655000247410782112610A74FF5521F8747F5554
:1065600022F97A197B001261B18C23E5232487F884
:10657000E434F8F988828983E0FDEA2487FAE43478
:10658000F8FB8A828B83E088828983F0ED8A828B94
:1065900083F00CECC3941940957F080262C9C08255
:1065A000C0837B19EB1B8B82A882600C90DF06E016
:1065B000FAE81265D76A70EC75E10474012808E402
:1065C0003400F97A197B001261A9EA1265D790DFCD
:1065D00006F0D083D082221265DCE0222487F58287
:1065E000E434F8F58322C3EA94011275994005EA70
:1065F000F8EB8006C3E49AF8E49BF9E8FAE9FB2299
:1066000079037CFE7DF97A097BDF127EE82274F83B
:1066100012626AE9FEEAFF8005790112683E90F590
:106620003AE0641060F375E10474F0F0539BFCE50C
:106630009B53E9EF75911074326E700C90F97BE00A
:10664000A2E1500479198002EEF9127D9BEF90DFF0
:1066500006F074326E700590F961800390F95DE088
:1066600090DF2EF090F95EE090DF05F090F93AE0CF
:1066700090DF01F090F93BE090DF00F0026F32C054
:1066800082C083E9FA790C90F962E0A2E6500279BF
:106690003212660E026798C082C08375D683790471
:1066A0007AE87BF9127EC5E490DF08F0126600906C
:1066B000F962E0A2E6400690F944126BAC126764FE
:1066C00079067AC57BF9127EC590F9A8E4F0A3F0AB
:1066D00079011275C612752A026798C082C083E9D3
:1066E000601C90F962E0A2E6401490F960E0FA794B
:1066F0003212660E90F95FE090DF05F080031267BA
:106700006402679874F812626A75FD00758FFF75F0
:10671000F2FF75F30079127A957BF9127EC57E7FC0
:1067200053BEFB800579021264F8E5BEA2E6400480
:10673000EE1E70F10075C68943BE0490F944E0F97D
:106740001265041263EA12660012676490F95BE056
:10675000F5CD90F95CE0F5CF43CB14E5CBD2B9D2BF
:10676000A9026F3290F9ABE0F912667F22C082C0B5
:106770008390F97FE0FA601B90F95BE0FBEAC39B32
:106780005003EA8001EBFC8CCD90F51E74D0F0A391
:106790007407F0D2948001F0D083D08222C082C0EE
:1067A0008379F27C007D047AA07BF8127EE890F871
:1067B000A0E064AA7004A3E064AA700E90F990E0CF
:1067C00064557004A3E064556071741790F962F029
:1067D00090F9907455F0A3F0740990F97BF074FF70
:1067E00090F944F090F95DF090F96674F7F0A374B5
:1067F000FEF0740290F95EF0740190F95FF090F988
:106800003A74F0F0A3F0E490F98DF079207CAA7D41
:106810007F7A007BF9127EE8790C7CD07D037AA028
:106820007BF8127EE89003DCE090F95BF09003DDEA
:10683000E090F95CF0746490F97FF0026798C08290
:10684000C08374012990F51C12752F90FA01E02481
:106850001CF8A3E03400F988828983C3A3E0127591
:106860009A50E890F51CE4F0A302679774F712625F
:106870006A7E101EEE2420F582E434F5F583E07084
:10688000030269B7E4F0EE12633A000401A0680263
:10689000A668039A6809C368B7691270310269B7BC
:1068A0001270820269B7127534700B90F9B6E0F974
:1068B00012750F0269B790F9BAE070030269B779EF
:1068C0000080ED90F9B6E0600214F090F9B5E06058
:1068D0000214F090F9FBE014F0700B12669790F937
:1068E00070E090F9FBF090F9AAE004F0C394334013
:1068F00007E490FA03F0800990FA03E0600302696C
:10690000B790F962E0A2E740030269B7A2E65055EA
:1069100090F9F8E0601D14F0701912795190F96245
:10692000E0C2E6F090F944E090F9ABF0F912667F2E
:106930000269B790F9F9E0607E14F0707A90F96C12
:10694000E090F9F9F090F9ABE0F890F97EE028F8E2
:10695000E43400F97AFA7B001261A9EA90F9ABF00D
:1069600090F97A80C690F9F7E0603714F0703390B0
:10697000F96AE090F9F8F0E490F9FAF090F962E041
:10698000D2E6127937E064FF700890F944E090F99C
:106990007AF0126BAC90F510E4F0A3F090F9ABE054
:1069A000808A90F9FAE0600F14F0700B126BA190DE
:1069B000F96EE090F9FAF0EE60030268737E101E43
:1069C000EEC333F8E43334F5F988828983C3A3E056
:1069D00012759A4003026B9888828983E4F0A3F0D1
:1069E000EE12633A000802006A030E6A04FB6A08AA
:1069F000B76A091B6B0B016B0D2E6B0F4F6B986BFE
:106A000075C9A875C95890F504747D026B9490F906
:106A1000B5E07003026B9890F9B9E0604890F9BC5A
:106A2000E0601C90F9AFE0601690F9BCE014F090C3
:106A3000F9AFE014F0701090F992E4F0A3800790A1
:106A4000F9B2E0600214F090F53AE0642070047A44
:106A50000180027A00EA90F9BAF079007A4A7BF86C
:106A60001270598006740190F522F090F93EE0FA18
:106A70007003026B9890F93DE0FBEAC3940840096B
:106A8000EBC394084003026B98EB6008C39A500470
:106A90008B2180028A21E521C394084003026B9870
:106AA000126BB274FD2818181874FF39F990F506A6
:106AB000E8F0A3E9026B9790F962E054506410701B
:106AC0003A90F53AE06410700890F5107401026B8A
:106AD0009490F9B3E0FA74FF2AF0EA6014126BA103
:106AE00090F9F5E024F612754890F508E4F0A380DB
:106AF0000990F944126BAC90DF06F012750D026B31
:106B00009890F51674D0F0A37407F090F9FCE01497
:106B1000F06003026B98127E38807D126CD490F97D
:106B2000F5E0249712753D740190F5298069126D86
:106B3000F890F93EE0F521605FC39408505A126B5B
:106B4000B274D428F874FF39F990F51A026AB07B50
:106B500000E5CDC0E090F95BE0FAD0E0C39A5005C3
:106B600005CDE5CD0B90F9CFC3E09437A3E01275C6
:106B70009A4016E5CFC0E090F9B4E0FAD0E0C39AAD
:106B8000500A05CFE5CF0B800375CF00EB6009906D
:106B9000F51E74FAF0A3E4F0EE60030269BF027917
:106BA0002390F9ABE090DF06F012659EE090F9AB20
:106BB000F02290F9F5E0F8A3E0F9E88521F0A4F8D7
:106BC000AAF08521F0E9A42AF922C082C08390F9B5
:106BD00070E090F9FBF090F972E090F9FC02679791
:106BE000745590F53BF090F53074E2F0A3746CF0BE
:106BF00090F5327407F0A3746DF0740190F537F0DE
:106C0000741855BEC313131390F9B1F012679D1297
:106C10006BCA90F962E0A2E6500590F97A80039081
:106C2000F944E0FAEA90F9ABF0127D1390F95AE0DA
:106C3000A2E0929490F959E0A2E0929390F9B1E029
:106C40006402701090F95CE090F9B4F090F95BE0A8
:106C5000F5CD801275CF0090F95CE090F9B4F0A208
:106C600094500312676D12670490F51674D0F0A368
:106C70007407F090F508740212752F90F504747D76
:106C800012752F126CD47A007BF97904126DE71219
:106C900079447E0A8005796412683EEE1E70F71210
:106CA000669790F53BE064556003127E3890DF36BE
:106CB000E064816003127E3812686C90F9F5C3E0DD
:106CC0009491A3E0940640DA90F9F57490F0A374DF
:106CD00006F080CE90F9F5E0F8A3E0F990F5120205
:106CE0007551C082C083E490F9AEF090F536E004AF
:106CF000F0C39404500890F502741412752F90F9A3
:106D0000AE126D9C02679874F712626AE5BBF9E5F2
:106D1000BAF874C828F521E439F5227404782112F0
:106D2000620AA821A92290F9AEE064FF7008E490FD
:106D3000F9AEF0027923E0FA74012AF0EAC333FADB
:106D4000E433FBEA2495F582EB34F9F583E028F08F
:106D5000A3E039F090F9AEE0C394095005126D9CA0
:106D600080D190F9A7E004F0C3940840C179127C67
:106D7000957DF97ACB7BF9127EE879127A957BF9C9
:106D8000127EC5E4F090F9ADE004F06408709F74E1
:106D90000190F9B7F0E490F9ADF08092E024A1F50C
:106DA00082E4347FF583E0F5B622C082C083126DA1
:106DB000E17C4C7DF87A007BF879001263C57C5C3D
:106DC0007DF87A107BF879001263C5742290F84A36
:106DD000F090F95FE090F84BF0740190F9B9026718
:106DE000977A107BF979061263991263BB227906B0
:106DF0007CA67DF8127EE82274F812626AE490F9AB
:106E0000BCF090F9AFE0600B126FE8740190F9BC30
:106E1000026EE590F9B2E06006126F46026EE690EF
:106E2000F9B7E07003026EE97E1E7F0079001275EB
:106E3000C690F9DBE0F8A3E0F990F80012755190E4
:106E4000F80012755190DF06E090F804F0741855C0
:106E500090C333C0E090F8A2E0540FFAD0E04A3378
:106E60003354FC126F3A79107CCB7DF97A0C7BF8A5
:106E7000127EE890F962E0A2E6500A90DF06126EF8
:106E8000EB7420800CA2E5500D90F960126EEB744B
:106E90001F28FEE439FF90F962E0A2E75008EE24D3
:106EA00004FEEF3400FF90F97BE0A2E15008EE24ED
:106EB00008FEEF3400FF90F81AEEF0A3EFF090F91F
:106EC000DFE0600790F994E0FA80027A7FEA90F8B8
:106ED0001CF090F9DFE090F81DF0E5CD90F81EF081
:106EE000E5CF90F81FF0126DAA804AE075F064A417
:106EF000F8A9F02274F812626A8921EAFEEBFF79A0
:106F000004EEFCEFFD7A007BF8127EE8E52190F8B4
:106F100004F090F8A2E0333354FC4403126F3A7942
:106F200014EE2404FCEF3400FD7A0C7BF8127EE8AA
:106F30008003439A017F010262C990F805F07A0646
:106F40007BF8126DEE2274F612626A74EC12623CE7
:106F500090F9B212701E1261A9E8F52375F00CA425
:106F6000FAE42A7A003408FB7E008E21854182856E
:106F70004283E5822521F8E5833400F9E8FCE9FD48
:106F800074FF8C828D83F07F007810188821EA25A9
:106F900021F582EB3400F583E064FF601675210172
:106FA000752200EF78211262298C828D83E06521A1
:106FB000F08003E870D5EA2410FAEB3400FB0FEF01
:106FC000C3940840C40EEEC39418409E8541828548
:106FD0004283AA82AB8374F82523F9126EF47414E9
:106FE00012624B7F030262C974F812626A90F9AFB1
:106FF00012701E1261A9E8FC90F97C74E8F0A37489
:107000006FF0EC75F018A4F8A9F090F992E028FA66
:10701000A3E039FB74ED2CF9126EF4026F35E0F841
:1070200074FF281874FF3400F990F9FDE0FA7B0032
:1070300022C082C08374FF90F800F090F801F090B5
:10704000F802F090F803F07A0A7BF8126DEE126DF8
:10705000AA741290F84A026797C082C08390F9B868
:10706000E0701C75E104EB90F877F0EA90F878F0A6
:107070001266DB741090F53AF075D60275E10302E2
:10708000679874ED12626A74DB12623C90DF38E03C
:10709000F52490DF08E0FE90DF3AE0F52790DF3C32
:1070A000E05480F52390F825E0F52590F826E0FAE5
:1070B000127534702290F95FE0FB6A701A90DF0558
:1070C000E06B7013E52370030274ED79007A257B81
:1070D000F81270590274ED90F95EE06A6003027470
:1070E000E090F825E02403F97C257DF88541828530
:1070F0004283AA82AB83127EE890F9AAE004F0C32F
:1071000094334005E490FA03F0EE3395E0FF90F9F4
:1071100062E0A2E6402A12755750048C24800A12BD
