:020000040000FA
:0300000002008B70
:03000B000202DE10
:030043000203B302
:03004B000202F4BA
:100083000202C212018480FB75C90843C649007588
:0E009300D0007581A07541B07542F102008663
:1000A200E473C0D02541C582C0E0E54234FFC58378
:1000B200C0E0E541C3958224F3C0A8C2AF85834264
:1000C200858241D0A8C8F0A3E9F0A3EAF0A3EBF03F
:1000D200A37921E709F0A3D8FAECF0A3EDF0A3EE9F
:1000E200F0A3EFF0A3D0E0F0A3D0E0F0A3D0E0F0D3
:1000F200A3E520F0A3E5F0F0A322854283854182A7
:10010200E0C0E0A3E0F9A3E0FAA3E0FBA37821E0DA
:10011200F608A3DFFAE0FCA3E0FDA3E0FEA3E0FF04
:10012200A3E0C0E0A3E0C0E0A3E0F5D0A3E0F520A7
:10013200A3E0A3F5F0E5A8C2AF858241858342F52D
:10014200A8D082D083D0E0F8D0E032D083D082C56C
:10015200F0E493A3C5F0C395F0F5F0E493A3C3953F
:10016200F04005E5F0048001E475F002A42582F573
:1001720082E5F03583F583E493A3C0E0E493C0E025
:10018200220043C649741043BE0490FFFEF0A3F060
:10019200E490F501F075DB0275DAED75E40675E5BC
:1001A200447500027501AA75025585000375835CCA
:1001B200758200E0B50113A3E0B5010E7582F0E08F
:1001C200B50207A3E0B502028015758304D8E17574
:1001D20007017506019003DCE0FDA3E0FC800F75CA
:1001E20082B9E0FFA3E0FEA3E0FDA3E0FCA38DCD76
:1001F2008CCFE5076004D2938002C293E5066004C7
:10020200D2948002C29475F4C075FEDB75CB507532
:10021200CC2475CE2475F12075F52043CB1490F5CE
:1002220002E479FFF0A3D9FC90F55D7464F075C91E
:1002320008D2B9D2AF74FFF5BCF5BC9008007F5468
:100242007EFEE0A3F5BDDEFADFF8E0B5BC15A3E063
:10025200B5BD109004D5E0B408097F3FC0077F0800
:10026200C007227F3FC0077F60C0073263900175DD
:10027200C90890F50063920190F55B7904E0A363ED
:100282009201F0A3639201D9F463920190F536E4EE
:10029200F022C082C08390F53AE06420700C7401B1
:1002A20090F521F0E490F538800AE064107006744D
:1002B2000190F522F074F090F53AF0D083D08222CA
:1002C200C0E074F21200A4C2AF53E9EF539BFCE505
:1002D2009B75D683120294D2AF0203A4C0E074F2DB
:1002E2001200A485888890F5321203A91200A20296
:1002F20003A4C0E074F21200A47521007E007FF511
:10030200C2DC90F538E004F090F55BE0700674789A
:10031200F0A3E4F090F516E07002A3E0700A90F505
:100322001674D0F0A37407F090F500E07002A3E019
:10033200700312026E8E828F83C3E09401A3E09455
:1003420000A2D265D03340488E828F83E024FFF032
:10035200A3E034FFF08E828F83E07002A3E070305E
:10036200E52112014D000189036F03740312026E2D
:10037200801E90F530E07002A3E0601490F5301218
:1003820003A91200A280098E828F8374FFF0A3F06A
:10039200EE2402EF34000E0EFF0521E521C3941076
:1003A20040937F010200FCE0F8A3E0F98882898390
:1003B20022C0E074F21200A485C0C0E5D1A2E250CE
:0C03C2000990F5341203A91200A280D6A5
:1003E000C31B8E11B6411FB442F658A0B3F05B6434
:1003F000323E946D08CCB0D19448F99098476F067E
:1003D000AAAA0000000030764000C942C8BE8C0ABC
:040000050000008B6C
:00000001FF
:10080000E490F80078E779048002F0A3D8FCD9FAE4
:1008100090FBE6AA82AB83904C0578BA79018015EB
:10082000E493A3AC82AD838A828B83F0A3AA82ABCC
:10083000838C828D83D8E9D9E71225E80080FA7588
:10084000FE02D29175D0007581467541007542F85F
:1008500002080043AE0222E5AE20E7FB22A2E792A7
:10086000D65002F40430F70663F0FF05F0B34003FE
:1008700084800384F40430D60563F0FF05F022E0A1
:1008800066701008A3E066700A08A3E066700408AA
:10089000A3E06622C3E7960809E7960809E79608E9
:1008A00009E796A2D265D03322C3E09608A3E0966A
:1008B00008A3E09608A3E09622080808E630E711AE
:1008C00012108A1208D1080808C64480C6181818E1
:1008D00022181818E9799EC608CAC608CBC608CCE3
:1008E000C6C370207996CACBCC7019798ECBCC70E8
:1008F000137986CC700EF9802ACA33CACB33CBCC9D
:1009000033CC331930E7F2CCCBCA3350147004EA3D
:1009100030E00DE4CA3ACACB3BCBCC3CCC50020908
:10092000C3E913C6CC182313C6CB18C6CA18C6F918
:100930002212097120F01430E72B74FFFCFBFA74CB
:100940007F8022E4FCFBFA7480801AB48008BC002B
:10095000F2BB00EF800F50EBF9E4C39AFAE49BFB83
:10096000E49CFCE499C6CC18C6CB18C6CA18C6F9D4
:1009700022E4C9C608CAC608CBC6D3330308CCC60E
:100980003392F0C3947F402E94184019C9B90704DC
:10099000CACBCC225025C309CA33CACB33CBCC3304
:1009A000CC33D9F422F4600DC9CCC313CB13CBCA1A
:1009B00013CAD9F6CC22E4FCFBFA2214FCFBFA227F
:1009C000E6C33318461846184622E7C333194719B9
:1009D00047194722181818E6084608700AE608C39F
:1009E000337005E633F4220822191919E70947097B
:1009F000700AE709C3337005E733F4220922E608D9
:100A00004608C3134608336002E633F422E7094779
:100A100009C3134709336002E733F4221209FE6069
:100A20001B120A0D60161209C070071209CA600C69
:100A3000B322C0D01209CA7005D0D022C32233D04D
:100A4000D0501330E0EBC3E7960809E7960809E7B2
:100A5000960809E7962220E0E4E6970809E6970859
:100A600009E6970809E69722001209FE604F120A6C
:100A70000D6012E7548066F61209D470111209CA8B
:100A8000703B090909F4F618F618F618F62212094F
:100A9000E970151209C008080860EAE6447FF618F4
:100AA000768018E4F618F6221209C060161209CAF8
:100AB0007012E4F608F608F608E65480F60909090B
:100AC00018181822EAC0E0EBC0E0ECC0E0EDC0E08E
:100AD000E687F0A4FBACF008E687F0A42CFCE43534
:100AE000F0FA1809E687F0A42C4B60027401CA35AD
:100AF000F0FCE433FB09E687F0D2F7A42CCB35F009
:100B0000FC1908E687F0A42BCC35F0FBE433FD0894
:100B100019E687F0D2E7A42C4ACB35F0CD3400FC9F
:100B200009E687F0D2E7A42DCC35F0FDE433FA09CD
:100B300018E687F0D2F7A42CCD35F0CA3400FC08B3
:100B4000E687F0D2E7D2F7A42ACC35F07A7E20E708
:100B50000B0ACB33CBCD33CDCC33CC33CB3350148A
:100B60007004ED30E00ED2F1E4CD3DCDCC3CCC3B79
:100B70005005DA05C2F1EB547FC63308E63392F034
:100B8000FBE73309E733C39A502D2B70190C0D4C3A
:100B90004D70151806E608C333700D20F10AA2F057
:100BA00013F6E418800B4024E4F630F00276801847
:100BB000F618F618F68024D33B14501074FFA2F0F8
:100BC00013F6187680E418F618F6800FA2F013F6E4
:100BD00018E63303F618ECF618EDF6D0E0FDD0E099
:100BE000FCD0E0FBD0E0FA22120A0D60461209FEAA
:100BF000603DE9687008F618F618F618F622748059
:100C000067F7120C1C090909748067F7221209FEA4
:100C1000601D120A0D7005191919801A1209D47075
:100C20001F1209E9C37003E6673319191940071841
:100C300018182208080874FFF618F618F618F62295
:100C40001209E960171209CA702192F01209C070E6
:100C500019501720F014080808090909E7F61819AF
:100C6000E7F61819E7F61819E7F6221209C060E648
:100C7000E869701F0808E62480F608E436F6185480
:100C80007FB47F0CE654806007F6E418F618F6226D
:100C9000181822E9C6CC08C6CD08C6CE08C6CFC0F3
:100CA000E0E8C0E0EAC0E0EBC0E009E9F809E7FAF3
:100CB00009E7FBE6F918E6F8C3EC98ED99EE9AEB34
:100CC000C2E7F5F0EFC2E795F0500E600CEBCFFBFA
:100CD000EACEFAE9CDF9E8CCF8EAA2E7D2E7FAEBF6
:100CE00033FB13F5F0EEA2E7D2E7FEEF33FFC5F0DA
:100CF00013A2E730E601B313C5F0C3C0E0C0F07F34
:100D000000C39BFB605B9418600C401AD0E023F991
:100D1000D0E0F8020DEB8AF0E9486003D2F0E4AFCE
:100D2000F0FAF9F8803BEB30E40D89F0EA6003D289
:100D3000F0E4AFF0F9CAF8EB30E30D88F0EF6002B1
:100D4000D2F0AFF0E4CAC9F8EB54076014FBC3EA71
:100D500013FAE913F9E813F8EF135002D2E0FFDBBE
:100D6000EDD0E0C0E030E739C3E49FFFF5F0EC9848
:100D7000FC42F0ED99FD42F0EE9AFE42F0D0E0F92F
:100D8000D0E0F8E5F0607AE923F9EE20E742D802F6
:100D90008067C3EF33FFEC33FCED33FDEE33FE80B1
:100DA000EAEC28FCED39FDEE3AFED0E023F9D0E084
:100DB000F84002801BC3EE13FEED13FDEC13FCEFB5
:100DC000135002D2E0FF08B800067F7F74FF802E28
:100DD000EF3350178CF020F00260100CBC000C0DAB
:100DE000BD00080EBE000408E860DFE933E813FF29
:100DF000EE2313FE4F4D4C8008E95480FFE4FEFDC6
:100E0000FCEE33EF33F47004FCFD7E80D0E0FBD0C9
:100E1000E0FAD0E0F8D0E0CFC618CEC618CDC6189C
:100E2000CCC6F9221209FE700418181822120A0DF5
:100E3000700D74FFF61819F61819F61819F622E74E
:100E4000548066F61209C0700F1209CA70F014F6C9
:100E500008F608F608F680D11209CA700CF608F6F2
:100E600008768008E6447F80EC1209EC700C1209C9
:100E7000D760BFE65480F6E480BB1209D77005192D
:100E8000191980A5E869700C763F18768018F61855
:100E9000F6E8F922E6CDC0E018ECC0E0E633CD3349
:100EA000CDD313F6E719FCE7191933CC33C3947F7C
:100EB000400ECD9D502408E65480F6E418F6800FCD
:100EC000F4043D14501408E6447FF6187680E418C4
:100ED000F618F6D0E0FCD0E0FD22CCD313CCFD1800
:100EE000E4C6CBC0E018E4C6CAC0E00808ED08C6F6
:100EF00033E613F618E433C675F003C3CA97CA097C
:100F0000CB97CB199C40047D08802EBD0003020FB7
:100F1000CD16B6FF050606081618C3CA33CACB336A
:100F2000CB33CA27CA09CB37CB193CC37D08803ED7
:100F3000187D0820E75CC633C6CA33CACB33CB332F
:100F4000DDF1D5F0EB30E77BCA97CA09CB974ACBE6
:100F5000199C406F4B7025E620E0218066187D08C3
:100F6000C3CA97CA09CB97CB199CD3C633C6CA3319
:100F7000CACB33CB3350C9DDE7D5F0E1D3E4C63675
:100F8000C608C636C608C636C608C636C6181818F5
:100F90008031C3CA97CA09CB97CB199CB34097C677
:100FA00033C6CA33CACB33CB33DD34D5F02EC6A219
:100FB000E0C640C8CA27CA09CB37194A70BECB3C25
:100FC000B480B90808E63308E633601F181818D053
:100FD000E0FAD0E0FBD0E0FCD0E0FD22187D08CAAA
:100FE00027CA09CB37CB193CD3808013F618E4B657
:100FF0007F11F618B6FF0EF618C60470D2080876F0
:101000008080CAF618F618F680C5080808EAC0E01D
:10101000EBC0E086F0E7A4FA180986F0E7A42AFA04
:10102000180986F0E7A42AFA180986F0E7A42AFA34
:101030001986F0E7A4FBE5F02AFA190886F0E7A480
:101040002BFBE5F03AFA190886F0E7A42BFBE5F054
:101050003AFA18180986F0E7A4C5F02BFBE43AFA2F
:101060001908E7C5F0C6A426F6E5F03BFBE43AFA1A
:101070001886F0E7A4F6E5F00826F6E43B08F6E467
:101080003A08F6D0E0FBD0E0FA22181818E4C3962C
:10109000F608E496F608E496F608E496F62260165A
:1010A000080808C6C313C618C613C618C613C61840
:1010B000C613C6D5E0EA22E026F608A3E036F60815
:1010C000A3E036F608A3E036F622E026F008A3E017
:1010D00036F008A3E036F008A3E036F022C3E0C6FD
:1010E00096F608A3E0C696F608A3E0C696F608A30F
:1010F000E0C696F622C3E096F008A3E096F008A3B7
:10110000E096F008A3E096F022E0F608A3E0F608E7
:10111000A3E0F608A3E0F622E6F008A3E6F008A3B1
:10112000E6F008A3E6F022CAC0E0E6F0A308DAFA87
:10113000D0E0FA22C3E498F8E499F91211758026F8
:10114000C3E49AFAE49BFBE920E7E9121175E498FD
:10115000F8E499F922C3E498F8E499F9121175E4D6
:1011600098F8E499F9C3E49AFAE49BFB22EB20E7B0
:10117000CFE920E7E0B90010BB0008E88AF084F866
:10118000AAF022E4FBC8FA22EB70227B10C833C815
:10119000C933C9335007C39AC3DBF280069A5001A2
:1011A0002ADBEAC833F4C8C933F4C9FA2275F00857
:1011B000E4C833C8C933C933C99AC99B5004C92A82
:1011C000C93BD5F0ECFBC833F4C8E4C9FA22600D82
:1011D00008C6A2E713C618C613C6D5E0F322600CF2
:1011E00008C6C313C618C613C6D5E0F4227004227D
:1011F000600D18C6C333C608C633C6D5E0F418223E
:101200002541C0A8C2AF40021542F541D0A822C076
:10121000D02541C0A8C2AF50020542F541D0A8D0A8
:10122000D0222541F582C0A8C2AF40021542F54147
:10123000D0A8854283222541F582E43542F58322F8
:10124000E4732541C582C0E0E54234FFC583C0E0B8
:10125000E541C3958224F9C0A8C2AF858342858247
:1012600041D0A8CEF0A3E520F0A37821E608F0A3B2
:10127000DEFAEFF0A3E58124FBF8E608F0A3E60828
:10128000F0A30808E608F0A3E608F0A3158115818D
:10129000D0E0FED0E0F815811581E8C0E0EEC0E0B6
:1012A00022854283854182E0A3FEE0A3F5207821D8
:1012B000E0A3F608DFFAE0A3FFE0A3C0E0E0A3C0EC
:1012C000E0E0A3C0E0E0A3C0E085A8F0C2AF858263
:1012D0004185834285F0A8D083D0822274028000A9
:1012E000C0E0F404121222D0E012112722D083D0E1
:1012F00082C5F0E493A3C5F0C395F0F5F0E493A3A1
:10130000C395F04005E5F0048001E475F002A425E2
:1013100082F582E5F03583F583E493A3C0E0E4939E
:10132000C0E022D083D082CCC0E0E493A360061258
:10133000134D1470FAE493A3600612136C1470FA40
:10134000D0E0FCE493A3C0E0E493C0E022C0E0E47A
:1013500093A3D39C5010E493A3C39C400AD0E0D045
:10136000E0D0E0021340A3A3A3D0E022C0E0E493C6
:10137000A36C7009D0E0D0E0D0E0021340A3A3D06A
:10138000E022C082C083740149F5B37C10800C8ACE
:10139000828B83E0F5B1A3AA82AB83EC1C70F0D002
:1013A00083D08222800100E5B3A2E350F92274F7D2
:1013B0001212428922ECFEEDFF7409121236E0F897
:1013C000A3E0F988828983EAC4540FF5218015E5EA
:1013D000B2F0A3EB1B70F81213A41521EE2410FE3B
:1013E000EF3400FFE5216016EEFAEFFBA92212139D
:1013F000827B0C800100EB1B70FB7B1080D57F0291
:101400000212A1C082C08390F876E054F0F0741309
:1014100090F875F074DF90F86FF074D990F870F070
:1014200074F890F871F0742590F872F0748090F868
:1014300073F0742590F874F0741090F876F074F8E6
:10144000F5D575D46F90F87EE054F0F0741390F8F1
:101450007DF074F890F877F0744A90F878F074DFC3
:1014600090F879F074D990F87AF0742090F87BF0C5
:10147000742390F87CF0744090F87EF090F886E049
:1014800054F84408FAF0741290F885F090F883E06C
:10149000541FF074DF90F881F074AF90F882F0E49C
:1014A00090F883F074F890F884F0740F5A444090E8
:1014B000F886F074F8F5D375D277D083D082227491
:1014C000F6121242EAFEEBFF8C218D2289231208CC
:1014D0005775AB2AEF90F87FF0EE90F880F090F817
:1014E00083E054E0F0E52390F884F0AA21AB227465
:1014F0000978211211DEE521F5ADEBC313EA13F5EE
:10150000AC53D1FBD2B875D60412085379017F03CE
:101510000212A1C082C08390F888E4F0A3F0798021
:10152000FC12155DD083D08222C082C083C2B890E5
:10153000F887E0602690F888E02480F0A3E034008B
:10154000F0E490F887F0C390F889E09480500C792B
:101550008090F888E0FCA3E012155D80C7FD7A8AD0
:101560007BF8124B01798090F888E0FCA3E0FD7ACB
:101570008A7BF81214BFE990F887F0227A177BFF74
:1015800000DBFDDAF9D9F52274F11212427C1980E0
:101590000F75F00AECA429C0E0EC121660D0E0F060
:1015A000EC1C70EDE9F525752600752700752800FF
:1015B0007C0090FBE6782112110978257921121020
:1015C0000A90FBEA78251210B78525218526228509
:1015D00027238528247410782112109E74FF55212A
:1015E000F8747F5522F97A197B001211758C23E566
:1015F00023240AF8E434F9F988828983E0FDEA2497
:101600000AFAE434F9FB8A828B83E088828983F0CA
:10161000ED8A828B83F00CECC3941940957F08020D
:1016200012A1C082C0837B19EB1B8B82A882600C45
:1016300090DF06E0FAE812165B6A70EC75E104745C
:10164000012808E43400F97A197B0012116DEA12BE
:10165000165B90DF06F0D083D08222121660E02263
:10166000240AF582E434F9F5832274E912124289DE
:101670002190FC07E0C395215003E0F52190FB4940
:10168000782512110990FC4C7829121109782579D6
:1016900029120A1C503275251F75268575277B7502
:1016A000284090F95B782912110990FC50782D128E
:1016B00011097829792D120C0D78257929120E241B
:1016C00090FB4978251211187522007523007524A6
:1016D0000078211208D490FB49782512110978214D
:1016E0007925120A6890FC5478251211097821791D
:1016F00025120C0D7821120931A821C3E52294018D
:10170000400278FFE8F97F100212A1C3EA940112A7
:1017100017254005EAF8EB8006C3E49AF8E49BF944
:10172000E8FAE9FB22EB1225A42279037C447DFC34
:101730007A097BDF124B012274F8121242E9FEEAA9
:10174000FF80057901121EF990F53AE0641060F30C
:1017500012185A539BFCE59B53E9EF7591107432B4
:101760006E700C90F9FEE0A2E1500479198002EE4F
:10177000F912494BEF90DF06F074326E700590F964
:10178000E4800390F9E0E090DF2E1244BDF090F980
:10179000BDE090DF01F090F9BEE090DF00F0439AE9
:1017A00001022DBCC082C083E9FA90F9E5E0A2E60F
:1017B000500479328002790C121738021B2AC08239
:1017C000C08375D683E9601C90F9E5E0A2E6401479
:1017D00090F9E3E0FA793212173890F9E2E090DFFD
:1017E00005F080031217EA021B2A90FAFFE0F912B3
:1017F00017A422C082C08375D68312185A79047A3E
:10180000E27BFB124ADEE490DF08F012172A12187E
:101810004D90F9E5E0A2E6500590FAFF800390F9BB
:10182000C7E0F9E990FAFFF01217A479067A1A7B5B
:10183000FB124ADE90FAF7E4F0A3F0FA79011238CD
:101840007212383B12186E90FB09021B297A837BB7
:10185000F979041213821213A42275E10490FC108A
:10186000E0243A122FDF74F0F02290FAFFF090FBA0
:1018700023E02410122FDFE4F0A3F02274F11212FF
:101880004275FD00758FFFE5F275F2FF7A00752154
:1018900001752200EA78211211EDE52145F2F5F2F9
:1018A0000AEAC3940840E775F4C075FEDB75CB50B7
:1018B00075CC2475CE2475F12075F52079127AE265
:1018C0007BFA124ADE75F300E490DF08F090F9C766
:1018D000E0F912158812140312172A1217EA75215B
:1018E0000075220075238075243F90F93F782512FA
:1018F000110978217925120E2490FA1778211211F6
:101900001843CB14E5CBD2B9D2A9439A01021A638A
:10191000C082C08390FFFDE0FA90FB0DE06A702367
:1019200090FA02E0FA601A90F9DEE0FBEAC39B50FD
:1019300003EA8001EBFC8CCD90FB23E0241E1229EE
:1019400090D294021B2A74F11212428A218B228CAB
:10195000238D2490FB4D1229DE782512110978255C
:101960007921120A681219A17821121109782579B2
:1019700021120C0D021A5B74F11212428A218B2281
:101980008C238D241219A17825121109782579212B
:10199000120BE890FB4D1229DE7821121109021A70
:1019A0005490FB4D12294F2274F112124289217575
:1019B0002200740278211211EDE52124ACF582E5B4
:1019C0002234FAF583782112110978211208B9908E
:1019D000F93F782512110978217925120A6890FBC0
:1019E0004F782512110978217925120A68AA21ABAE
:1019F00022AC23AD24121977806974F1121242903F
:101A0000FB4D1229DE78211211097D018A828B8318
:101A1000782512110978217925120A688D257526F5
:101A200000740278251211ED90FB4DE02525FCA3F2
:101A3000E035268C82F583782512110978217925E5
:101A4000120C0D0DEDC3940440C2AA21AB22AC23AD
:101A5000AD24800F78257921120A68AA25AB26AC1F
:101A600027AD287F080212A1C082C08379F27C00D2
:101A70007D5C7A237BF9124B0190F923E064AA7014
:101A800004A3E064AA700E90FA13E064557004A3F6
:101A9000E06455602079F27CBE7D4C7A237BF9129C
:101AA0004B011225469003DCE090F9DEF09003DD57
:101AB000E090F9DFF0E490FB14806EC082C0837484
:101AC000FF90F9C7F090FAFF12254FC2E4F0D2E27E
:101AD000F090F9FEE0C2E412254F541FF0E490F9B3
:101AE000BFF079207C247DFC7A837BF9124B019036
:101AF000F9BD74F0124272790C7CD07D037A237B9D
:101B0000F9124B01740190FB14F01217F3801BC003
:101B100082C083C293741590FC06F090F9AD123721
:101B2000DD90FA02E0F5CD8001F0D083D0822274FE
:101B3000E912124290FC0DE07003021BC8122D6FD7
:101B400090FADC121ECD90FB72122ECF90FADA12B0
:101B50001ECD90FB74122ECF90F9A5123729505844
:101B600090F9A7122D7290FB721225C8400890FBC5
:101B7000741225C8504290FB77E02478F0A3E0343B
:101B800000F090FC0E740A12370490F9A3122D7223
:101B90007583FB758277123729402DC294740190AA
:101BA000FB20F0E490FC0D1236FE90FC0912292275
:101BB00090FB77E4F0A3800F90FB77E4F0A3F09024
:101BC000FC0E7432F0A3E4F090FB23E0241E1225F7
:101BD000827002A3E07045121EC57001E9603D7479
:101BE000FF68700374FF69603390FC06E06417704F
:101BF0002B90FAD41225C8502B90FB6C122D7275C5
:101C000083F97582AB123729501D90FB76E004F002
:101C1000C394024017E4F0121B0F801090FC06E002
:101C2000641770081237DAE490FB76F07E307F7527
:101C300075255475266F75274075281F7529707591
:101C40002A1790F94B78211211097821120931C312
:101C5000E5219411E522940040167E607FEA752507
:101C6000A87526DE75278075283E7529E0752A2E11
:101C700090F93F782D12110990FB5F121EE91208AE
:101C8000D4782D7921120E2490FB53782D1211183F
:101C900090FB4D7463F0A374F9F090FB61121EE9A0
:101CA0001208D490FB53782D1211097821792D1246
:101CB0000A68AA21AB22AC23AD24121946124BBFED
:101CC0001229A0700512297E600E90FB21E0240BE2
:101CD000122FDB7401021EB2E490FB0FF090F9BFEB
:101CE000E06022F875F0E8A4C8ACF075F003A42C0D
:101CF000FCE42CF9EA98EB9950047C0180027C000A
:101D0000EC90FB0FF090FB14E0C3700BEE9AEF9B8E
:101D10005023121ABB801EEA9525EB952650161209
:101D20001A6890F9E5E0A2E6500890F9FDE090FA13
:101D3000FFF01217F31229A0709012297E708B9079
:101D4000FB4D746BF0A374F9F090FB63121EE91263
:101D500008D490FB53782D1211097821792D120A9D
:101D600068AA21AB22AC23AD241219778A218B22D9
:101D70008C238D247821120931AA21AB2290FA03F9
:101D8000E06010121EBE500B740190FB6BF0C29409
:101D9000021E3290FA06E0F5217003021E3274FF33
:101DA00065217003021E3290FB69E07002A3E060BF
:101DB0000990FB69121FABF08078752200740378DC
:101DC000211211ED90FB69E521F0A3E522F090FBD3
:101DD0006BE0602F90FA05E0F8C3EA9812172550DF
:101DE00014A294400312191090FB07E0121EB6E4EF
:101DF00090FB6B80C2A294503990FB06E0603314D4
:101E0000F0802CA294502B90FA04E0121EBE5022B7
:101E100090FA09E0FB90FB06E0FAEBC39A5003EB63
:101E20008002E014F0740190FB6BF090FB06E0126E
:101E30001EE11229A06003021CCA12297E6003025F
:101E40001CCA90F9C2E06065A294506190FB4D7489
:101E50004BF0A374F9F090FB57121EE91208D490CE
:101E6000FB53782D1211097821792D120A68AA21C5
:101E7000AB22AC23AD24121946124BBF8A218B2210
:101E8000A821A92290FC07E064FFC3600FE5279812
:101E9000E52899501E74FF121ED88017E89529E98D
:101EA000952A500F90F9C2E090FC0780EA74FF90E9
:101EB000FC07F002170690FB06F0121EE122C39AFF
:101EC000E49B0225CE90F9A9122D76E8221237D68E
:101ED000E8C39AFAE99BFB22F090FB06E0121EE1B0
:101EE00022F912166AE9F5CF22E0F521A3E0F522E6
:101EF00075230075240078212274F712124290FB9A
:101F000023E0241CFAA3E03400FB8921740125217D
:101F1000F8E43400F98A828B83123DDD80056390FA
:101F200004E5908A828B83C3E09401A3E09400C30C
:101F300065D03350E98A828B83E4F0A3804B74F739
:101F4000121242C29475FEDB7E008E21752200744F
:101F50000A78211211ED12290CE8FAE9FB8A828B2A
:101F600083A3A882A9838A828B83E064FF70047AAA
:101F70000180027A001229006006C3ED940440D962
:101F80000EEEC3940F40C38001F07F020212A1C085
:101F900082C0838A828B83121FABF08A828B83E09C
:101FA0007004790180027900021B2A121FAF22E01F
:101FB00024FFF0A3E034FF2274F5121242752100D1
:101FC000A82190FB21E0281225827003022174E4ED
:101FD000F0E521121323000501142002E91F030E6E
:101FE000200991200B1A206A2190FB12E0600B79E6
:101FF000001217BE1237F002216A90F9E5E0546032
:102000006420600302216A90FB0BE0F980E3122F49
:102010001A02216A122FEE02216A90DF3CE0A2E24E
:10202000501490DF3BE0C3940D400BE0C39410507C
:10203000051225A8802D1229A070F612297E70F1B4
:1020400012428F1225985006E87001E970E31237AA
:102050005A1225985006E87001E970D57A01790086
:1020600012387290FA0B122D727583FA7582D4129F
:1020700025C8400302216AE490FB06F075CF00906A
:10208000FB23E02418122FDB74D0F0A37407022185
:10209000697A017BFC121F8FE960061217F312297F
:1020A0003990FC03C3E0940AA3E094005003122586
:1020B000461237934007E490FC47F0800990FC47B4
:1020C000E0600302216A90F9E5E0A2E74003022103
:1020D0006AA2E6504F7AFB7BFB121F8FE960181251
:1020E00042BE90F9E5E0C2E6F090F9C7E090FAFF51
:1020F000F0F91217A480737AFD7BFB121F8FE96041
:102100006912376490FAFFE0F890FA01E028F8E4E9
:102110003400F97AFA7B0012116DEA90FAFFF09020
:10212000F9FD80CC7AF97BFB121F8FE96027124200
:102130008290FBFFE4F0A312254FD2E61242A26484
:10214000FF700890F9C7E090F9FDF0E012186A906E
:10215000FAFFE0809C7AFF7BFB121F8FE9600B1275
:10216000257112371BE8F0A3E9F01229A0701112B3
:10217000297E700C0521E521C394105003021FC075
:10218000752100E521C333F8E433F990FB23E028FF
:10219000F8A3E039F988828983C3122978400302C1
:1021A000253588828983E4F0A31236F8241E12377D
:1021B0003B90F9DEE0FCE5211212ED020D3525DB46
:1021C00021EA21EA23D922EF221A23A2230724DEBF
:1021D00022FB238124DF243525502475C9A875C925
:1021E00058122946F0A3E402253490FB0AE070035C
:1021F00002253514F0E490F538F090DF05E0FA9010
:10220000F9E2E06A70047A0180027A00EA90FB7BCE
:10221000F090FB15E0700302253590FB7BE0701217
:10222000123DE1642070047A0180027A00EA90FB9A
:1022300012F090FB11E0601C90FB03E0601690FB35
:1022400011E014F090FB03E014F0701090FA15E424
:10225000F0A3800790FB08E0600214F079007A4A4E
:102260007BF8122F8390F9C1E0FA700302253590B4
:10227000F9C0E0FBEAC394084009EBC394084003AB
:10228000022535EB6008C39A50048B2380028A2311
:1022900090FB23E024061225865013E523C39413F4
:1022A000502E1225B574FF2A1A74FF3B8011740159
:1022B0006523701C90FBF7E024FFFAA3E034FFFBDA
:1022C00090F538E0FEEAC39EFAEB9400122555F033
:1022D00090FC48E06401022534C29302253590FB4E
:1022E00020E06003022535740190FB100225349034
:1022F000F9DCE0700E90F9DDE06008D2931242AB99
:10230000F0800890F9DCE0A2E0929390F9DDE070B3
:102310000302253512191002253590FB23E0240E07
:10232000FAA3E03400FB88828983E07002A3E070A6
:1023300066121EC57001E9605E74FF68700374FF69
:1023400069605490FC06E01212ED15029723712388
:102350005A235423121B0F022535741790FC06F0E4
:1023600090F9B112377790F9DCE0A2E09293022560
:1023700035E5CDC39C501505CDE5CD90F9AD122DB9
:10238000728A828B83E8F0A3E9022534741690FCEC
:1023900006F090F9AF80E7741790FC06F090F9B161
:1023A00080DC90F9E5E054506410703E12383570CE
:1023B0000812256774010221E490FB09E0FA74FF1A
:1023C0002AF0EA601212257190FBF7123756122597
:1023D00067EAF0A3EB800B90F9C7E090FAFFF0906A
:1023E000DF06F012295DE4F0A3F079001217BE7445
:1023F0000190FB12F01237F002253512298A90FC69
:1024000003121FAB0225341229281237E290FBEE8B
:10241000122D727583FB7582F7E0C398F8A3E099DB
:10242000F974F628F874FF39F990FB23123742A3A8
:10243000A3A3A3A3123DDD12378AF090FB0BE0604B
:102440000214F090FB0CE0700302253514022534D1
:10245000E5CDC39C400302253590FA0DE0FBE5CDA8
:10246000FAEB70057B0180010AEB1B6005EAC39C57
:1024700040F68ACD8882898374D0F0A37407022540
:102480003490FB23E0241812373BE8FEE9FF122DBD
:102490006F7583FA75820B1225C8503990FB06E0E0
:1024A000C0E090FB07E0FAD0E0C39A400302253574
:1024B00090FA0AE0FC90FB06E0FBEC70057C0A80D9
:1024C000010BEC1C6005EBC39A40F6EB121EB98EB3
:1024D000828F8380A3E490FB06F075CF0080F0E448
:1024E00090F538F0122BFB90F9C1E0F5236046908F
:1024F000FB23E0241A1225865016E523C3941350BB
:10250000341225B590F538E0FEEAC39EFAEB801749
:1025100074016523701F90F538E0FA7583FB7582AE
:10252000F7E0C39AFAA3E09400FB74FF2A1A74FF41
:102530003B122555F00521E521C3941050030221DB
:10254000837F040212A1121ABBE490FB14F022F064
:1025500090F9E5E022FBEAC39CFAEB9400FB888249
:102560008983EAF0A3EB2290FB23E02410122FDFF3
:102570002290FAFFE090DF06F0121622E090FAFFB8
:10258000F022123DEB22F8A3E03400F990FC48E081
:10259000FC90F9E5E0A2E222122D76C3E8941DE951
:1025A0001225A4229400802690FB21E0240B122FF8
:1025B000DF7401F0221237D3EA8523F0A4FAAEF0DB
:1025C0008523F0EBA42EFB22C3E098A3E099A2D2CE
:1025D00065D03322EEC0E0E9FE80057964121EF971
:1025E000EE1E70F7D0E0FE2274AA90F53BF0741056
:1025F00090FFFFF090DF36E064816003124A0B9099
:10260000FFFEE0645A700302282C745AF0D2B97E9F
:10261000007F008E218F22740A78211211ED122979
:102620000CE8FAE9FB8A828B83A3A882A9838A82B9
:102630008B83E064FF70047A0180027A0012290023
:102640006009C3ED940440D9121F3EEE24010EEF41
:102650003400FFC3EE940FEF940040B790FC10E0FD
:102660002430122FDB74A9F0A3742912382F2432DE
:10267000122FDB74FEF0A3742912382F2434122F8A
:10268000DB7429F0A3741512382F24371225AE12EB
:102690002FD5747812382C245D122FDB7428123851
:1026A0002C242012373B90FB21123DDD90FC1012B0
:1026B0002D7290FB23123DDD90FC10E02438123780
:1026C0003B90FB79123DDD741790FC06F01237DA6F
:1026D000741855BEC313131390FB05F079F07A23D9
:1026E0007BF9124ADE121A681229714006740190B1
:1026F000FC0DF079047CF37DF97A017BFC122D5CF2
:10270000500590F9FD800390F9C7E0FAEA90FAFFCE
:10271000F012492090FB05E01212ED0003D0278B48
:10272000278B2727278B2790FFFDE0FA90FC09E0F5
:102730006A700E740190FB201236FE90FC0DF08042
:102740000790FC08E06A7004C294800312291F906D
:10275000FFFDE0FA90FB0DE06A700C90F9DDE0609F
:1027600004D2948002C29490F9DCE06004D2938099
:1027700002C29390F9DEE0F5CD90F9DFE0F990FB2D
:1027800006F090FB07F0121EE2804512291F90FA16
:1027900002E0FA60048ACD800690F9DEE0F5CDC251
:1027A00093C29490F9DCE0A2E09293E490FB06F0EF
:1027B00075CF0090F9DFE090FB071236F8240C1279
:1027C0002FDB7470F0A374171236F82418122990B6
:1027D00079907A1C7BFA124ADE12187C12298A122E
:1027E000295D74021237041229461237041229286F
:1027F0001237E212184D12429553E4FCE5E475E3FA
:102800000075E20075DB0275DAED43E406E5E47578
:10281000E544790A1225D479047CF37DF97A017BA9
:10282000FC124B36E96003124A0BC291122F4F1271
:1028300017F38011EA7001EB700B8882898374D0E2
:10284000F0A37407F090F53BE064AA6003124A0B12
:1028500090DF36E064816003124A0B75C908121FCD
:10286000B81229A070DF12297E70DA90FBF7C3E05E
:102870009491A3E09406500A90FBF7E07002A3E065
:10288000700A90FBF77490F0A37406F090FB23E0BD
:1028900024121229317583FB7582F7C3E09AA3E0F5
:1028A0009B500312295788828983E07002A3E0704D
:1028B0000312295790F9F312375690FC01122D722A
:1028C000C3EA98EB99500690FC01122ECF90FC01C0
:1028D000E07002A3E0700312293990FC03E070035A
:1028E000124A0B90FB23E02416122931C3EA94D13B
:1028F000EB9407A2D265D033500302283402283A61
:10290000EAFBEC24010CED3400FDEB222400F8740A
:10291000083522F9741090FFFFF07C007D002290B2
:10292000FB0DE090FFFDF02290FBF71237E8241238
:1029300022123DEBFAA3E0FB2290F9F3122D7690E0
:10294000FC011237712212294C747D2290FB231254
:1029500029E6A3A3A3A3221237D3022ECB12296107
:102960002290FB23122968221229EAA3A3A3A380A1
:10297000E190F9A3C3E09401A3E01225A42290FB07
:1029800022E0F5838882A3A3E02290FB23E02416B3
:10299000122FDF74D0F0A37407F022EAF0A3EBF05B
:1029A00090FB211229E2A3E022C082C083E490FBC5
:1029B000021229F3041229F3C39404500A1229DBEA
:1029C000A3A3740812370490FB02E02412F582E4FA
:1029D00034FCF583E0F5B6021B2AF090FB231229A4
:1029E000E2221229E6221229EA22E0F8A3E0F58386
:1029F000888222F090FC10E02436123DEB2274F520
:102A0000121242E5BBF522E5BAF5217402782112D3
:102A100011CE90FC49E02521F521A3E03522F522D5
:102A200090FB02E0700A90FB7CE521F0A3E522F028
:102A300090FB02E0FA74012AF0EAC333F8E433F9B8
:102A4000E824E2F582E934FAF583E02521F0A3E0F9
:102A50003522F090FB02E0C394095010E02412F5F7
:102A600082E434FCF583E0F5B6022BAF90FAF4E093
:102A700090FB7C700FE0F8A3E0F990FB70E8F0A306
:102A8000E9F08039E0F8A3E0F97583FB758270C343
:102A9000E098A3E099500890FB70E8F0A3E9F0906B
:102AA000FB6EE0F8A3E0F97583FB75827CC3E098C8
:102AB000A3E099501090FB7CE0F8A3E0F990FB6E46
:102AC000E8F0A3E9F090FAF4E004F0C394085003AE
:102AD000022BAA90FAE8E0FEA3E0FF7CE27DFA7AFE
:102AE000577BFB90FB01E0C333F8E433F9E8241C87
:102AF000F8E934FAF97523098C828D83E0F521A376
:102B0000E0F52288828983E521F0A3E522F0C3E580
:102B1000219EE5229F50098A828B83E4F0A38015D1
:102B2000E521C39EF521E5229FF5228A828B83E56C
:102B300021F0A3E522F0E82410F8E93400F9EA24B2
:102B4000020A0AEB3400FBEC24020C0CED3400FD0D
:102B50001523E52370A290FB21E0240BF8A3E034B9
:102B600000F9888289837401F090FB6EE0F8A3E09D
:102B7000F97583FB758270E0C398F8A3E099F9902A
:102B8000FB6CE8F0A3E9F079127AE27BFA124ADEF4
:102B9000E490FAF4F090FB01E004F06408700B7428
:102BA0000190FB0EF0E490FB01F0E490FB02F002D8
:102BB000254174F71212427A937BF9790612185361
:102BC00075214C7522F878211212DC7C007DF87A90
:102BD0002079001213AE740212120F742290F84A78
:102BE000F090F9E2E090F84BF0740190FB15021FB1
:102BF0008979067C297DF9124B012274F812124260
:102C000090FC0EE0FEA3E0FFE490FB11F090FB03CC
:102C1000E0601E90FA15E064817004A3E064FB702C
:102C200005122DCD8003122ED5740190FB11022DBB
:102C30005690FB0EE07003022D5A7A00790012388C
:102C40007279047C167DFB7A007BF8124B0190FAB6
:102C5000FFE090F804F074185590C333C0E090F989
:102C600025E0540FFAD0E04A333354FC122DC179D9
:102C7000107CD07DFA7A0C7BF8122D5C500C90DF22
:102C800006122D6674022808800DA2E5501390F9F3
:102C9000E3122D6674012808E439F9EE28FEEF39B5
:102CA000FF90F9E5E0A2E75008EE2404FEEF3400BF
:102CB000FF90F9FEE0A2E15008EE2408FEEF340098
:102CC000FF90FB0CE06008EE2410FEEF3400FF9054
:102CD000F81AEEF0A3EFF090FB27E07002A3E0609B
:102CE0000790FA1BE0FA80027A3FEA90F81CF09015
:102CF000FB27E07002A3E0700B90FB7F122D729017
:102D0000FB27800990FB27122D7290FB7F123DDD7F
:102D100090FB27E090F81DF0A2945024E5CD90F8A8
:102D20001EF090FB06E090F81FF090FC07E0C0E07A
:102D300090F81FE0FAD0E0C39A501590FC07800B82
:102D400090F9DEE090F81EF090FB07E090F81FF09D
:102D500090FB27E4F0A3F0122BB28060124B01909D
:102D6000F9E5E0A2E622E075F064A4F8A9F022906B
:102D7000FAD4122D7622122D7A22E0F8A3E0F9225D
:102D800074F81212428921EAFEEBFF7904EEFCEF9F
:102D9000FD7A007BF8124B01E52190F804F090F9E0
:102DA00025E0333354FC4403122DC17914EE24047E
:102DB000FCEF3400FD7A0C7BF8124B017F0102120C
:102DC000A190F805F07A067BF8122BF12274ED122F
:102DD00012427E817FFB75210080067404652160AC
:102DE00048852123752400740378231211EDE5230F
:102DF000244BF582E52434F9F583782512110990E6
:102E0000FC58782912110978257929120A68AA250F
:102E1000AB26AC27AD28124BBF8E828F83122ECFEC
:102E2000EE2402EF34000E0EFF0521E521C39407C6
:102E300040A990F94F7821121109AA21AB22AC23A5
:102E4000AD24124B7690FB8D122ECF90F95F782136
:102E5000121109AA21AB22AC23AD24124B7690FBB0
:102E60008F122ECF90F9777821121109AA21AB2267
:102E7000AC23AD24124B7690FB91122ECF90F97FAC
:102E80007821121109AA21AB22AC23AD24124B7672
:102E900090FB93122ECF90F93B7821121109AA21B1
:102EA000AB22AC23AD24124B7690FB95122ECFE5CE
:102EB000CD90FB97F090FB06E090FB98F07A817B39
:102EC000FB79EC122D807F0C0212A188828983EAA3
:102ED000F0A3EBF02274F812124290FB03E0F874B6
:102EE000FF281874FF3400F990FC05E0FA7B00120B
:102EF000116DE8FC90F9FF74D5F0A3742EF0EC7519
:102F0000F018A4F8A9F090FA15E028FAA3E039FB2C
:102F100074ED2CF9122D80022DBCC082C08374FF89
:102F200090F800F090F801F090F802F090F803F0BB
:102F300079067C167DFB7A047BF8124B017A0A7BBA
:102F4000F8122BF1122BB2741290F84A021B29745A
:102F5000F81212427E7F90FB99E070247401F09089
:102F6000FB13E0701B53BEFB8005790212157CE554
:102F7000BEA2E64004EE1E70F10075C68943BE0491
:102F8000022DBCC082C0838A828B83E0FC74226CD9
:102F9000600574126C703B90FB0FE0703575E104B6
:102FA00090FC10E0243AFCA3E03400FD8C828D8379
:102FB00074F0F0EB90F877F0EA90F878F01217BE22
:102FC00090FC10E0243A122FDB7410F075D60275D5
:102FD000E103021B2A90FC10E0245B122FDF221277
:102FE0002FE322F8A3E03400F9888289832274F168
:102FF00012124290DF38E0FF90DF08E0F521E49004
:10300000FB12F090FAF5F0A3F090F825E090FBA108
:1030100012254F5460FA90FBA1E02427F582E43496
:10302000F8F583E0A2E7500D90FBA1E06422601C5C
:10303000E06412601774206A700790FB0BE0F9805F
:103040000279001217BE1237F00236F590F826E02A
:10305000FB74206A701B90F9E2E0FC6B701390DF48
:1030600005E06C700C79007A257BF8122F8302360C
:10307000F590F9E1E06B60030236E390DF3CE0A2FB
:10308000E75004D2F08002C2F0A2F0E492E0FE74B5
:10309000206A700979017A257BF8122F8390F53820
:1030A000E090FAFD1237047A937BF97906121853EF
:1030B0007523007524F878231212DC7C277DF890A4
:1030C000FBA1E024FEFA79021213AE740212120F71
:1030D00090F800E090FBA0F090F801E090FB7EF00B
:1030E00079067C027DF87A9A7BFB124B01E0541F33
:1030F000C3941140030236E390FB9EC3E094E8A31F
:10310000E0940340030236E390FB9A7825121109FC
:103110007583FB75821A78251208A9402879047CEA
:103120001A7DFB7A9A7BFB124B36E960030236E389
:1031300090FB9E122D7290FB1EE0687003A3E06965
:1031400070030236E390FB9A78251211097583FB10
:1031500075821A78251208A9402179047C1A7DFB12
:103160007A9A7BFB124B36E9701590FB9E122D72FA
:103170007583FB75821E12372950047A0180027A0A
:10318000008A2390F538E090FAFB12370412379347
:103190004005E490FC47F090FBA1E02426F582E492
:1031A00034F8F583E0F525C394805010E525C3136A
:1031B000FA90FBE0123710F8E4998017E42525F81F
:1031C00074FF13E813F890FBE0123756E8C39AF83F
:1031D000747F9BF990FB27123DDD90F9E5E0A2E6B4
:1031E000406DEFC39401A2D265D033EF400EC3947B
:1031F00002A2D265D03340177F018013C312172675
:10320000500DEFC394FFA2D265D03350027FFFE58B
:1032100021F83395E0F9EFFA3395E0FBEA28F52140
:10322000EB39F522AA21FB12170BC3EA946112179E
:10323000254016740278211211EDAA21E522FB33F4
:1032400095E0FCFD124A1A8006E52190DF08F0EEB9
:1032500070030236E390FB0CE0600214F090FC0A6D
:10326000E06009E41229DA7478123704639002E509
:1032700090741290FB0AF079047CF37DF97A017B5B
:10328000FC124B01E523600D79067C9A7DFB7A1ACE
:103290007BFB124B0190FB7EE0A2E750047A018099
:1032A000027A0490FBEE12378290FB7EE0F8741FE6
:1032B00058F8EA28F8E43400F9E88521F0A4C8AA0F
:1032C000F08522F0A42AFA8521F0E9A42AF990FBDE
:1032D000F4E028F8A3E039F990FBF7E8F0A3E9124D
:1032E00029DA122D7290FAFD123DDD90F9C5E060E9
:1032F0004090FB7EE0541F75F00312085DE5F0F886
:103300003395E0F97402280808E439F9E87001E916
:10331000701F90FC4BE014F0701790F9C4E0F89027
:10332000FB23123749E812370490F9C5E090FC4BB3
:10333000F090F9E5E0A2E650047A0080027A049069
:10334000FB23E0241A12373BE8FCE9FD90FBA0E0E8
:10335000702EE490FB15F0740AC39AFAE41237ABAE
:10336000F079067C9A7DFB7A167BFB124B011237B3
:103370005A12297450738882898374FFF0A380687D
:1033800090F9C1E0FE90FBA0E0F8EEC398F8E49459
:1033900000F990F9E5E0A2E2EE502F604CC3E8940A
:1033A00013E9121726504290FBF7123782E8852165
:1033B000F0A4C8AEF08522F0A42EFE8521F0E9A489
:1033C0002EF9740A28F8E4398015601D74016870BC
:1033D00001E9701590FBF7E0240AF8A3E03400F946
:1033E000E8C39AFAE91237ABF0740890FB0B123677
:1033F000F8240812373B90FBEE1237567583FB75A5
:1034000082F7E0C39AFAA3E09BFB74EE2AFC74FFF8
:103410001237C190FBA0E090FB0012426E402E904C
:10342000FB23E02410FAA3E03400FB90FB7EE0A233
:10343000E6500E88828983123777740890FB0980E2
:103440000BE490FB09F08A828B83F0A3F090FBF7EA
:10345000E02401FAA3E03400FB90FB23E0241212E5
:1034600037E290F9E5E0A2E690FB27501CC3E09418
:10347000A2123709400E12376490F9ED122D7290A6
:10348000FBFB801D12378A801CC3E0949B12370916
:1034900040F290F9EB122D7290FBF9123DDD1237DC
:1034A0001BE8F0A3E9F090FBA0E0FC74FF6C600C5B
:1034B00090F9C0E06006F5F0EC84ACF090F925E0FE
:1034C000FD90FBEE121EC88DF0A4F8AAF08DF0E975
:1034D000A42AF990FBF2E028FAA3E039FB90FAFB6A
:1034E000123710FAEB99FB90FB23E0240612373BCE
:1034F00090F926E0FE74FF6C600FEE6C700B888212
:103500008983EAF0A3EB0236468C21EEC39521F5C0
:1035100021E49400F52290FB7EE0541FFF90F9C156
:10352000E0F52390F9E5E0A2E2E5235044607174F0
:10353000FF6E606CECC39E4003023647C3E52194E6
:1035400013E5221217264003023647EDC39F4003BE
:1035500002364790FBF7123730CCAEF08522F0A44C
:103560002EFE8521F0EDA42EFDEA2CFAEB3DFB802A
:103570008D602D74FF6E6028ECC39E4003023647B9
:10358000740165217002E5226003023647EDC39F96
:10359000400302364790FBF7E02AFAA3E03B80CED7
:1035A00074FF6E600302364774FF6D600302364796
:1035B00090FB7EE0A2E7500302364790FB23E02415
:1035C0001AFAA3E03400FB8A828B83E4F0A3F09024
:1035D000FB04E0600314806E53B4F3E5B443B40419
:1035E000E5BDC0E090FA08E0F5F0D0E08490FA077D
:1035F000AAF0E02A90FB04F090FB7EE0FA741F5AD8
:10360000F52190FBEE123730FCAAF08521F0EDA4F5
:103610002AFDE5BC75F0058485F02190FBF012379A
:1036200056EAA4FAAEF08521F0EBA42EFBEA2CFAC0
:10363000EB3DFB90FBF2E02AFCA3E01237C190FBCC
:10364000211237427401F088828983E07002A3E07E
:1036500060347AFA90FBA1E0641270027A1090F95B
:10366000E5E0A2E6501090F9FEE0A2E1500474F308
:10367000800274F62AFAEA3395E0FB88828983E0B7
:103680002AF0A3E03BF090F9E5E054606420700577
:103690007905121EF990FBA1E024F6F91245D490A9
:1036A000F9E5E054486408702390FBF9C3E094C83E
:1036B000A3E09400501690FBA1E02425F582E434A9
:1036C000F8F583E090DF06F090FAFFF090FB23E03E
:1036D0002406122FDBC3122978500888828983E4DC
:1036E000F0A3F079001217BE90F9E5E05460642071
:1036F000700302303A021A63F090FB23E022F0904C
:10370000FC0E7446F0A3E4F022A3E094FF0225CE61
:1037100012371422122D7AEAC3982212371F2290F0
:10372000F9F1122D7A90FBFF22C3E098A3E09922D1
:10373000E0FCA3E0FDEC8521F0A422F8A3E0340036
:10374000F922123749A3A3A322E0FAA3E0F5838A62
:1037500082228E828F831237D62290FB23E0241A96
:10376000122FDF221237682290F9EF122D7A90FB88
:10377000FDE8F0A3E9F022122D768A828B831237BE
:103780007122E0F521A3E0F5222290FB211242B93B
:1037900074012290FAF9E02401F0A3E03400F090E3
:1037A000FAF9C3E09433A3E09400229400FB90FA6A
:1037B000FB123714F8EB99F98C828D83E8F0A3E9BA
:1037C000223BFD90FAFB1237D6ECC39AFAED9BFB35
:1037D000022ECB90FBF7E002293490F9B11237E8C2
:1037E000240E122FDF022ECFE0FAA3E0FB0236F9FF
:1037F000C082C083123835700512383B802B75E1CA
:103800000474F012382F245F12187490F825F09089
:10381000F82612382F243A122FDB7420F0742290ED
:10382000DF02F075D60175E102021B2AF0A3E4F075
:1038300090FC10E022123DE564102212296174010F
:1038400002370474F112124290FBA678211211097A
:103850008A828B83782512110978217925120A68CA
:1038600090FC4C782512110978217925120C0D0253
:103870001A4A74E112124289238A2490DF08E0F880
:103880003395E0F990FB25123DDD7AAC7BFA75218A
:103890001C7522FA90FB21E02401F525A3E03400F9
:1038A000F526852582F583E0701490FB21E0240243
:1038B00012373B882789288882F583E06006122525
:1038C000A8023DCBE524605490FB01E0F818740792
:1038D00058C333241CF521E434FAF52279098521F3
:1038E00082852283E0FCA3E0FD8A828B83ECF0A337
:1038F000ED123704A3F0123DD0E5212410F521E5A7
:10390000223400F52219E970D590FC0B122D727A41
:10391000087B0012116D8829E902399D7529007C08
:103920000890FC5C782D12110990FBAA782D1211D9
:10393000188027852182852283E0F52DA3E0F52ECE
:10394000752F0075300090FBAA782D1210CAE52162
:103950002402F521E5223400F522EC1C70D58525E2
:1039600082852683E060030238BE8527828983E052
:1039700060030238BE90FBAA782D1211098A828B4F
:1039800083782D121118123DD00529E529C3940919
:10399000408D90FC0BE0F521A3E0852129F52A3329
:1039A00095E0F52BF52C90FAB878291210CA8525E8
:1039B00082852683E060030238BE852782852883BE
:1039C000E060030238BE7C0979007AAC7BFA124AC7
:1039D00098123E067005123DF060030238BE90FA60
:1039E000BC782512110990FC5C782512087F7003C1
:1039F000023DCB752900752A00752B80752C3F7808
:103A0000251208B978297925120E2490FB4F7829C0
:103A10001211188E828F83E070C1852182852283E6
:103A2000E070B890FB4D746BF0A374F9F079061256
:103A300019A88A258B268C278D2890FBA67825121D
:103A400011188E828F83E07092852182852283E017
:103A5000708990FBA6782512110990FC60782912D4
:103A6000110978257929120A68782512093190FA06
:103A7000D8E525F0A3E526F090FB4D742FF0A37454
:103A8000F9124911E060030238BE85218285228344
:103A9000E060030238BE7AA67BFB1219FA8A258BF6
:103AA000268C278D2890FBB6782512111890FBB62E
:103AB0007825121109782512093190FBAE7825126C
:103AC00011188E828F83E060030238BE85218285C3
:103AD0002283E060030238BE90FBE27825121109D0
:103AE00090FB25123782740278211211EDE5212511
:103AF00025FAE5223526FB90FBAE7825121109EA5E
:103B0000C39525F521EB9526F52274027821121133
:103B1000CEE52190FA1BF0E5236022123DE164F02E
:103B2000701B90FBAE782512110990FBE2782512EC
:103B300010DDAA25AB26AC27AD28124A1A123E0684
:103B40007005123DF060030238BE90FBA678291282
:103B5000110990F947782512110978297925120B56
:103B6000E890F93F782D1211097531007532007512
:103B7000338075343F90F943783512110985292532
:103B8000852A26852B27852C2878257929120A68ED
:103B900078357925120A6878317935120BE8782D55
:103BA0007931120A6890FBA2782D12111890FBA6A9
:103BB000782512110990FC64782912110978257969
:103BC00029120C0D90FBA6782512111890FB4F7846
:103BD0002512110990FBA27829121109782579295B
:103BE000120A6890FB4F7825121118752900852953
:103BF0008285822785272B752C007402782B121161
:103C0000ED852B25852C2690FB4F782D121109E58B
:103C10002524ACF582E52634FAF5837831121109B2
:103C200078311208B9782D7931120A6890FBB27890
:103C30002D1211188E828F83E060030238BE852119
:103C400082852283E060030238BE74086529600C17
:103C500074076529600674026529702690FBB278A6
:103C60002D1211097AD47BF91238438A318B328CA8
:103C7000338D34782D7931120A6890FBB2782D1289
:103C80001118E52524BAF8E52634FBF9882589269C
:103C9000E527241BF582E434FCF583E0F52774FF67
:103CA0006527701490FBB2782D1211098525828941
:103CB00083782D1211188056752800740378271206
:103CC00011EDE527244BF8E52834F9F990FB4D1266
:103CD0003DDD90FBB2782D121109AA2DAB2EAC2F31
:103CE000AD301219468A2D8B2E8C2F8D3085258272
:103CF000852683782D1211188E828F83E06003024F
:103D000038BE852182852283E060030238BE052902
:103D1000E529C394095003023BEE90FBBA782512C3
:103D20001109AA25AB26AC27AD28124BBF90FAD0BB
:103D3000122ECF90FBBE7825121109AA25AB26AC16
:103D400027AD28124BBF90FAD212299B7005122979
:103D50007E60030238BE90FBCE7825121109AA2599
:103D6000AB26AC27AD28124BBF90FAD6122ECF90BF
:103D7000FBDA7825121109AA25AB26AC27AD28124B
:103D80004B7690FADA122ECF90FBD67825121109D5
:103D9000AA25AB26AC27AD28124B7690FADC122E62
:103DA000CF90FBC27825121109AA25AB26AC27AD0E
:103DB00028124B7690FAD412299B709712297E60B4
:103DC000030238BEE5246003121B2F7F180212A1E4
:103DD000EA2404FAEB3400FB22F990FA1512377149
:103DE00022123DE52290FC10E0243A122FE3E0225B
:103DF00090FB21E0240208A3E03400F98821892205
:103E00008882F583E02290FB21E02401F8A3E034CE
:103E100000F9E8FEE9FF8E828F83E02274F6121229
:103E2000428A237C237DF98982858221752200E9DB
:103E30002423FEE434F9FFE9121323080609B941EB
:103E40001015853F2E3023413D46E241494EE24167
:103E50004F51FE4155560C4257585742280138429F
:103E600004D73E05203F0BCF3F0CC93F0DAD410E9F
:103E7000CD4116743F177A3F1A933F1CD53F1D253D
:103E8000421FFB3F20194021F53F236A4025754022
:103E90002881402994402AB7402B8D402CFF402D8B
:103EA0001041312E4133464135514136654138711B
:103EB000413915403A9A413BAD4052E8415C5D4280
:103EC0005D3E425E44425F4A42603342615042641A
:103ED0002E42714D406942EAC39402400302426996
:103EE000EA6038D29312295DA3A3E4F0A3F090FB1B
:103EF00010E0701290FB23E024141225827002A3BC
:103F0000E07003024269121910E490FB101236F8B7
:103F10002414122FDBE4F0A3024268C29302426928
:103F2000EAC39402400302426974016523701812C7
:103F3000291FE490FB20F090FC0E743212370474B9
:103F40000190FC0DF08003EA601174185590701711
:103F5000D2931219101242AB024268C29490FC082C
:103F6000E090FFFD024268A29450030242691219D8
:103F7000100242698523CD024269EA90FB07F012E4
:103F80001EB6024269EE24F6F582EF34FFF583EAAD
:103F9000024268EA90F9C7F0F912158890F9E5E055
:103FA000A2E6402590F9C7E090DF06F012186A906B
:103FB000FBF9742CF0A37401F090FBFF742CF0A3B8
:103FC0007401F075E1041217F3124295024269126E
:103FD0001513024269A293E492E090F9DCF0A294F6
:103FE000E492E090F9DDF0E5CD90F9DEF090FB078A
:103FF000E090F9DFF01242D102426912429574FF5B
:1040000090F926F090F9251236F8241A1218741235
:10401000428F023F157C007D5C90FB03E060030251
:10402000426990FA15E07002A3E07014ECF8ED120A
:104030003DD975F00A90FC05E0A490FB03024268AC
:1040400090FC05E0C0E0EAF5F0D0E080ECEA90FBFF
:1040500003F090FA157481F0A374FBF090FB03E079
:1040600060030242697401024268EA90F9E0F0904C
:10407000DF2E02426890F9E5EAA2E0E092E1024216
:104080006890F9E5EAA2E0E092E4024268EA90F979
:10409000E302426890F9E5EAA2E0E092E5F0EA6026
:1040A0000302426990FAFF1217ED02426990F9FE8D
:1040B000EAA2E0E092E1F0742A69700A90F9E5EA78
:1040C000A2E0E092E6F090F9E5E0A2E6501D12428F
:1040D0008290FBF9E4F0A31242A290FAFFF0F912E9
:1040E00017A490FB23E02410023F1290FBFBE4F0A6
:1040F000A3F01242BE90F9C7E090FAFF024268EACC
:1041000090F9E412426E400302426990F9C7809729
:10411000EA90FBF6F0A2E07583F97582E5E092E79C
:10412000024268EE2495F582EF3400023F8DE49060
:10413000F9C7F074FF90F926F090F925F090F9276F
:104140001242721242D11229DB7478F0A3E40242C7
:1041500068EA90F9FD12426E4003024269EA90FA61
:10416000FFF00240A490F9FEEAA2E0E092E00242F1
:104170006879107C297DFB7A837BF9124B017910D9
:104180007C397DFB7A937BF9124B0179207A297B6C
:10419000FB124ADE12184D024269EA600CC39420F9
:1041A0005007EA90FC05024268740480F690F9FE1C
:1041B000EAA2E0E092E3024268EE248AFAEF3400D9
:1041C000FB8A828B83E523F0A3AA82AB83740E69FA
:1041D00070047AB77BF979047C9A7DFB124B01025B
:1041E0004269EE24A1024126EA700774FF90FC07A1
:1041F000800990FC07E064FF6004EA121ED8EE24F8
:104200004DF582EF3400F583E523805C79047C1A58
:104210007DFB740278211211EDE5212478FAE52264
:1042200034F8FB80B790F9FEEAA2E002411DEA9063
:10423000FC68F01217F3803190F9E50241B0EA9082
:10424000F9C48024EA90F9C5801EEA90F9C6801866
:10425000122FD5EA02414BEE24410241267401653A
:10426000237006740190FB13F07F030212A1F00289
:104270002D5FF0A3F0740290F9E1F0740190F9E27F
:10428000F02290F9ED122D7690FBFB12377122127D
:10429000294CA3A32290F92DE0F5BC90F92EE0F56E
:1042A000BC22F012376890F9FDE02290FB23124205
:1042B000B9A374D0F0A3740722122968A32290F93D
:1042C000EB122D7690FBF912377112371F123771EE
:1042D00022C082C08343C6400043C6400043C6405C
:1042E0000043C6400043C6400043C6400043C640AA
:1042F0000043C6400043C6400090FB0CE07005122E
:10430000492E806390F53BE064AA6003124A0BC219
:10431000AF43C6400043C6400043C6400043C640CA
:104320000043C6400043C6400090FB0CE0700312FF
:104330004A0B75AD2E75AB2175AE010075AD00D27F
:10434000AF7932121EF979F27C007D5C7A237BF919
:104350001214BF7916121EF912383B90FB0CF0753F
:10436000C689000000000000021B2A74F6121242E7
:10437000EAFEEBFF7521237522F9E9C333FAE43332
:10438000FBEA2423FCEB34F9FDEE540FF523EFFB9D
:10439000E4CBFAE912132302040C3A4413176844DD
:1043A0000C01C74302D14303DE430D0F440E2B44DF
:1043B00010464411624418754419AE441AED431B6B
:1043C00005441C0A44BA4490F927EEF0A3EF0244D6
:1043D000B9E52390F925F0EA90F9260244B9EE9068
:1043E000F9E1F0EA90F9E21244BD0244B990F9A370
:1043F000EEF0A3EFF01229714008740190FC0D0259
:1044000044B9E480F790F9A580C090F9A780BB7902
:1044100018121EF9743F6E700374086F7003024423
:10442000BA8E828F831212400244BAEE90DF01F0FE
:10443000EA90DF00F090F9BD8090EC24C0F582EDA9
:104440003400F583808490FA15E07002A3E0706A6E
:10445000C3EF94044064C3EF9408505E90FA1502D1
:1044600043CA90FA0B0243CAEC2460F582ED340093
:10447000F5830243CA74F05FF9E47001E960058BCB
:104480002175225C740F5A75F018A4F8A9F0E52183
:1044900028F8E52239123DD9EEC4540F90FC05F0FE
:1044A000C0E0E523F5F0D0E0A490FB03800BEA2404
:1044B00023F582E434F9F583EEF0024269F090F9D5
:1044C000E1E090DF052274ED1212428923EAFEEB4F
:1044D000FF7521007522007524008925752600745A
:1044E0000278251211EDE5252423FAE52634F9FB9F
:1044F0008E828F837825121109E912132304010497
:10450000144505063D450A174745191AAB450118DC
:104510009045B545EA2408F521EB3400F5227404F2
:10452000652360030245B5782512093174142525E9
:10453000F8E43526F990F9E9123DDD8078EA249D0A
:10454000F521EB3400806C740E6523700C79047ACD
:10455000497BFB124ADE75240174F62523F523C33B
:1045600013F521740378211211EDE523A2E0E49202
:10457000E0F525752600740278251211EDE5252455
:104580004BF8E434F9F9E52128F521E522398023B7
:10459000752900752A00752B80752C3F782979259F
:1045A000120E2490FA177829121118EA24BCF5216A
:1045B000EB34FFF522E5217002E522600D7904EE6F
:1045C000FCEFFDAA21AB22124B01E5246003121E71
:1045D000D9022EC674F312124289257E087FF8751F
:1045E0002301752400802DE0F521A30EAF83790609
:1045F000EEFCEFFD7A297BF9124B36E9700E740F51
:10460000552690F925F0E52190F926F0EE2406FED6
:10461000EF3400FF8E828F83E0FA7003024846ABCE
:104620002574FF2BF525EB70030248468A26A3AEBE
:1046300082AF8374F05526F52174F0652160A8904F
:10464000FBF6E0640270031249208E828F83122DE4
:104650007290FBDE123DDDEE24020E0EEF3400FF01
:10466000EE2402EF3400F974035526F5221212ED00
:104670000003E8467C4681469D46C5467523018079
:104680006712375290F927E06A7003A3E06B700459
:104690007A0180027A008A230E0EE9804A8E828F88
:1046A00083E0FA90F926E06A70128E828F83A3E08D
:1046B000FA90F925E06A70047A0180027A008A2370
:1046C00085232480D37906EEFCEFFD7A297BF9124D
:1046D0004B36E970047A0180027A008A238523240C
:1046E000EE2406FEEF3400FF90FBDEE07002A3E054
:1046F000603590FAF7C3E09401A3E094FF4017C33C
:1047000090FBDFE09401500E90FBDE122D7290FAC8
:10471000F7123DDD8011E523600912493C50047A0F
:104720000180027A008A2312493C500690FAF7125F
:104730003DDD8E828F83A3A882A983E521121323F6
:10474000000610764720F747505647700648800607
:1047500048904B481446E523700302460C740365E9
:1047600022600302460C7906EEFCEFFD7A297BF904
:10477000124B0102460C90FBF6E0FA90F9E5E0A23C
:10478000E7E492E06A601090FBF6E0A2E07583F93E
:104790007582E5E092E7F08E828F83E0F521E8FEF6
:1047A000E9FF740C5526121323000300B64704C911
:1047B0004708E3471446E5236009EEFAEFFBA92119
:1047C0001244C6EE240402460FE523600B8E828F4E
:1047D00083E0FAA921123E1C8E828F83A30EAF8341
:1047E000024614E5236008123752A92112436BEEEA
:1047F00024020E0E024610E52370030246147918B7
:10480000121EF9124A0BE524603C7AE07B03121871
:10481000517AF07B03790612185374806521700871
:104820007521397522FB80067521297522FB7821B7
:104830001212DCEEFCEFFD7A1079021213AE740254
:1048400012120F12184D7F060212A1EE2407F52155
:10485000EF3400F522E524602E43C6400043C640F5
:104860000043C6400043C6400043C6400043C64024
:104870000043C6400043C6400043C6400090FB0CC6
:10488000E0700B12492E00AE21AF220246148E8238
:104890008F83E0F526E8FEE9FF8E828F83E0A30E8A
:1048A000AF8390F9FDF090F9C7124911E090F9E15A
:1048B00012491790F9E212491790F926124911A3EB
:1048C000122D7290F927123DDD740F552690F925AF
:1048D000F090F9E5E526A2E4E092E2F090F9FEE539
:1048E00026A2E5E092E4F0E526A2E6E092E1F07986
:1048F000047C1A7DFB7AB77BF9124B011242D1AED0
:1049000021AF2290F9C7E0F91215881217ED02467F
:1049100014F08E828F8322124911A30EAF83E022FE
:1049200090F9E5E0A2E7E492E090FBF6F02274143F
:10493000F090FAF7121FAFF075C6892290FBDE12D5
:104940002D767583FA7582F702372974F8121242B0
:10495000E9FE79147C6E7DFC7A0C7BDF124B0190B2
:10496000FBEE124A0490FBF07430124A0690FBF200
:10497000743C124A0690FBF4124A0490FBE0744A1D
:10498000124A06740A90DF07F0EEC3940D404D7989
:10499000067C687DFC7A0C7BDF124B017410F09072
:1049A000FBE07448124A0679037C857DFC7A237B00
:1049B000DF124B0179087C887DFC7A157BDF124B76
:1049C0000174196E7023740A90DF07F074A990DFE8
:1049D0001CF090F9C6E090DF0CF0800D79037C822A
:1049E0007DFC7A237BDF124B0179037A2F7BDF1268
:1049F0004ADE79037C907DFC7A027BDF124B017FDB
:104A0000010212A17450F0A3E4F022C082C08375A9
:104A1000C90B748090FFFFF080F574F51212427498
:104A2000FC1212008A218B228C238D24C2AF90DFCE
:104A30000BE0854182854283F090DF0AE0C0E0749C
:104A400001121236D0E0F090DF09E0C0E0740212EB
:104A50001236D0E0F085418285428378211210CA57
:104A6000854182854283E090DF0BF074011212369B
:104A7000E090DF0AF07402121236E090DF09F09045
:104A8000FBE278211210CAE490DF08F0D2AF740480
:104A900012120F7F040212A174F3121242803574B5
:104AA0000369602F740969602AEA240CF582EB34EB
:104AB00000F5837821121109892575260074027882
:104AC000251211EDEA2525F582EB3526F5837821AF
:104AD0001210F509E9C39C40C67F060212A1C082EC
:104AE000C083C3EA9401EB94804011800BE48A8276
:104AF0008B83F0A3AA82AB83E91970F1D083D082B3
:104B00002274F8121242C3EA9401EB94804022808E
:104B10001C8C828D83E08A828B83F08C828D83A3B0
:104B2000AC82AD838A828B83A3AA82AB83E919709E
:104B3000E07F010212A174F6121242E91960308A74
:104B4000218B22852182852283A3AA82AB83ECFE5E
:104B5000EDFF8E828F83A3AC82AD83852182852277
:104B600083E0F88E828F83E06860D07901800279DB
:104B7000007F030212A174F11212428A218B228C4F
:104B8000238D24782112093190FC93782512110984
:104B90007825792112089440067AFF7B7F801B904C
:104BA000FC9778251211097825792112089450066E
:104BB0007A017B808004AA21AB227F080212A174B3
:104BC000F11212428A218B228C238D247821120922
:104BD0003190FC9B782512110978257921120894CF
:104BE00040067AFF7BFF801B90FC5C782512110940
:104BF0007825792112089450067A007B008004AA57
:104C000021AB2280B56D4EC64139300000500030D6
:104C1000003C0050000290067800DC0014001E00EA
:104C2000080050000417FFE77E01A8FD01320000D4
:104C3000F5B1B2B3BCB7B0B5B4B6000102FFFF0323
:104C4000FF0605414E4453006C61724175677573F0
:104C50007400074175677573740007417567757354
:104C6000740007646AAA01013200010000803F005D
:104C70000080C00000003F00007A440000000000F7
:104C800000C8420000C8C10E55734359007907019E
:104C9000235945070014166C4340915610A90A0089
:104CA000118135098831091D1CC740B2B610EA22AE
:104CB0008545008000000180FFFF00000100AAAAD6
:104CC0000000FFFF2C764002274471AA35BAD3BCFE
:104CD000633D91ED1C3F000048C300001C4595BF9B
:104CE000D6340000924285EB5D4100C0D0C46666B8
:104CF0004A41000000008FC2FD40000012C40AD7E4
:104D000047410000000052B8DE3E00401C44EC5118
:104D1000F84000C013C40000803F00000000414E76
:104D20004453006C61724175677573740007417577
:104D30006775737400074175677573740007000029
:104D40000000000000000000000000000000000063
:104D50000000FFFFFFFFFFFFF0F0000000AAFF7858
:104D6000804DFFCB486654CB486654CB486654AC64
:104D7000C5A73717B7513801016464FF0201FFFF6F
:104D80001701A49A38FF28001E0003000400080041
:104D900050003F08F100F100FF89FFFF19C86E6461
:104DA0005A0A070B3C0A18FC0A000100000055557E
:1058000043C6490043C6490043C6490043C6490050
:1058100043C6490043C6490043C6490043C6490040
:1058200043C6490043C6490043C6490043C6490030
:1058300043C6490043C6490043C6490043C6490020
:105BE00043C64900FFFFFFFFFFFFFFFFFFFFFFFF6F
:105BF000020000FFFFFFFFFFFFFFFFFFFFFFDF2AA5
:020000040000FA
:10600000E490F80078ED79028002F0A3D8FCD9FA88
:1060100090F9ECAA82AB83907F9278457901801544
:10602000E493A3AC82AD838A828B83F0A3AA82AB74
:10603000838C828D83D8E9D9E7126C1B0080FA75B6
:10604000D0007581467541007542F802600043AE8C
:106050000222E5AE20E7FB22A2E792D65002F4042A
:1060600030F70663F0FF05F0B3400384800384F447
:106070000430D60563F0FF05F022C3E09608A3E0E4
:106080009608A3E09608A3E09622080808EAC0E074
:10609000EBC0E086F0E7A4FA180986F0E7A42AFA34
:1060A000180986F0E7A42AFA180986F0E7A42AFA64
:1060B0001986F0E7A4FBE5F02AFA190886F0E7A4B0
:1060C0002BFBE5F03AFA190886F0E7A42BFBE5F084
:1060D0003AFA18180986F0E7A4C5F02BFBE43AFA5F
:1060E0001908E7C5F0C6A426F6E5F03BFBE43AFA4A
:1060F0001886F0E7A4F6E5F00826F6E43B08F6E497
:106100003A08F6D0E0FBD0E0FA226016080808C68C
:10611000C313C618C613C618C613C618C613C6D5E9
:10612000E0EA22E026F608A3E036F608A3E036F619
:1061300008A3E036F622E026F008A3E036F008A334
:10614000E036F008A3E036F022C3E0C696F608A3D6
:10615000E0C696F608A3E0C696F608A3E0C696F653
:1061600022E0F608A3E0F608A3E0F608A3E0F62292
:10617000C3E498F8E499F91261B18026C3E49AFA6D
:10618000E49BFBE920E7E91261B1E498F8E499F9AE
:1061900022C3E498F8E499F91261B1E498F8E4991B
:1061A000F9C3E49AFAE49BFB22EB20E7CFE920E76E
:1061B000E0B90010BB0008E88AF084F8AAF022E4F5
:1061C000FBC8FA22EB70227B10C833C8C933C9332D
:1061D0005007C39AC3DBF280069A50012ADBEAC853
:1061E00033F4C8C933F4C9FA2275F008E4C833C8D7
:1061F000C933C933C99AC99B5004C92AC93BD5F0D0
:10620000ECFBC833F4C8E4C9FA22600D08C6A2E763
:1062100013C618C613C6D5E0F322600C08C6C31314
:10622000C618C613C6D5E0F422700422600D18C645
:10623000C333C608C633C6D5E0F418222541C0A82A
:10624000C2AF40021542F541D0A822C0D02541C0BE
:10625000A8C2AF50020542F541D0A8D0D0222541B6
:10626000F582E43542F58322E4732541C582C0E01E
:10627000E54234FFC583C0E0E541C3958224F9C0FF
:10628000A8C2AF858342858241D0A8CEF0A3E52085
:10629000F0A37821E608F0A3DEFAEFF0A3E581246D
:1062A000FBF8E608F0A3E608F0A30808E608F0A368
:1062B000E608F0A315811581D0E0FED0E0F8158145
:1062C0001581E8C0E0EEC0E022854283854182E08E
:1062D000A3FEE0A3F5207821E0A3F608DFFAE0A30F
:1062E000FFE0A3C0E0E0A3C0E0E0A3C0E0E0A3C003
:1062F000E085A8F0C2AF85824185834285F0A8D0B1
:1063000083D08222D083D082C5F0E493A3C5F0C3AA
:1063100095F0F5F0E493A3C395F04005E5F0048013
:1063200001E475F002A42582F582E5F03583F5835A
:10633000E493A3C0E0E493C0E022D083D082CCC039
:10634000E0E493A360061263641470FAE493A3601C
:10635000061263831470FAD0E0FCE493A3C0E0E477
:1063600093C0E022C0E0E493A3D39C5010E493A335
:10637000C39C400AD0E0D0E0D0E0026357A3A3A3BF
:10638000D0E022C0E0E493A36C7009D0E0D0E0D06C
:10639000E0026357A3A3D0E022C082C08374014906
:1063A000F5B37C10800C8A828B83E0F5B1A3AA82BE
:1063B000AB83EC1C70F0D083D08222800100E5B367
:1063C000A2E350F922C082C0838C828D831263992C
:1063D0007A0C800100EA1A70FB7A108004E5B2F0B2
:1063E000A3EA1A70F81263BB80CCC082C08390F815
:1063F00076E054F0F0741390F875F074DF90F86F55
:10640000F074D990F870F074F890F871F0742590E9
:10641000F872F0748090F873F0742590F874F0744A
:106420001090F876F074F8F5D575D46F90F87EE09A
:1064300054F0F0741390F87DF074F890F877F074DD
:106440004A90F878F074DF90F879F074D990F87A7F
:10645000F0742090F87BF0742390F87CF0744090F6
:10646000F87EF090F886E054F84408FAF074129040
:10647000F885F090F883E0541FF074DF90F881F015
:1064800074AF90F882F0E490F883F074F890F88498
:10649000F0740F5A444090F886F074F8F5D375D232
:1064A00077D083D0822274F612626AEAFEEBFF8C08
:1064B000218D22892312605275AB2AEF90F87FF06C
:1064C000EE90F880F090F883E054E0F0E52390F847
:1064D00084F0AA21AB227409782112621AE521F511
:1064E000ADEBC313EA13F5AC53D1FB75D6041260C0
:1064F0004E79017F030262C97A177BFF00DBFDDA68
:10650000F9D9F52274F112626A7C19800F75F00ACC
:10651000ECA429C0E0EC1265DCD0E0F0EC1C70EDDE
:10652000E9F5257526007527007528007C0090F98F
:10653000EC78211261617825792112608A90F9F056
:106540007825126123852521852622852723852804
:10655000247410782112610A74FF5521F8747F5554
:1065600022F97A197B001261B18C23E5232487F884
:10657000E434F8F988828983E0FDEA2487FAE43478
:10658000F8FB8A828B83E088828983F0ED8A828B94
:1065900083F00CECC3941940957F080262C9C08255
:1065A000C0837B19EB1B8B82A882600C90DF06E016
:1065B000FAE81265D76A70EC75E10474012808E402
:1065C0003400F97A197B001261A9EA1265D790DFCD
:1065D00006F0D083D082221265DCE0222487F58287
:1065E000E434F8F58322C3EA94011275D94005EA30
:1065F000F8EB8006C3E49AF8E49BF9E8FAE9FB2299
:1066000079037CFE7DF97A097BDF127F1D2274F805
:1066100012626AE9FEEAFF8005790112687590F559
:106620003AE0641060F375E10474F0F0539BFCE50C
:106630009B53E9EF75911074326E700C90F97BE00A
:10664000A2E1500479198002EEF9127DD0EF90DFBB
:1066500006F074326E700590F961800390F95DE088
:1066600090DF2EF090F95EE090DF05F090F93AE0CF
:1066700090DF01F090F93BE090DF00F0026F66C020
:1066800082C083E9FA790C90F962E0A2E6500279BF
:106690003212660E026798C082C08375D683790471
:1066A0007AE87BF9127EFAE490DF08F01266009037
:1066B000F962E0A2E6400690F944126BE3126764C7
:1066C00079067AC57BF9127EFA90F9A8E4F0A3F076
:1066D0007901127606127564026798C082C083E958
:1066E000601C90F962E0A2E6401490F960E0FA794B
:1066F0003212660E90F95FE090DF05F080031267BA
:106700006402679874F812626A75FD00758FFF75F0
:10671000F2FF75F30079127A957BF9127EFA7E7F8B
:1067200053BEFB800579021264F8E5BEA2E6400480
:10673000EE1E70F10075C68943BE0490F944E0F97D
:106740001265041263EA12660012676490F95BE056
:10675000F5CD90F95CE0F5CF43CB14E5CBD2B9D2BF
:10676000A9026F6690F9ABE0F912667F22C082C081
:106770008390F97FE0FA601B90F95BE0FBEAC39B32
:106780005003EA8001EBFC8CCD90F51E74D0F0A391
:106790007407F0D2948001F0D083D08222C082C0EE
:1067A0008379F27C007D5C7AA07BF8127F1D90F8E3
:1067B000A0E064AA7004A3E064AA700E90F990E0CF
:1067C00064557004A3E06455600F79F27C007D0489
:1067D0007AA07BF8127F1D800C9004D4126BFF907E
:1067E000F97412758690F8A0E064AA7004A3E064BE
:1067F000AA700E90F990E064557004A3E0645560AF
:1068000071741790F962F090F9907455F0A3F074D8
:106810000990F97BF074FF90F944F090F95DF090E5
:10682000F96674F7F0A374FEF0740290F95EF074E8
:106830000190F95FF090F93A74F0F0A3F0E490F968
:106840008DF079207CDF7D7F7A007BF9127F1D79C6
:106850000C7CD07D037AA07BF8127F1D9003DCE0D6
:1068600090F95BF09003DDE090F95CF0746490F9CE
:106870007FF0026798C082C08374012990F51C12D2
:10688000756990FA01E0241CF8A3E03400F98882CD
:106890008983C3A3E01275DA50E890F51CE4F0A3F5
:1068A00002679774F712626A7E101EEE2420F5824A
:1068B000E434F5F583E070030269EEE4F0EE126370
:1068C0003A000401D76802DD6803D16809FA68EE6E
:1068D000691270650269EE1270B60269EE12757483
:1068E000700B90F9B6E0F91275490269EE90F9BAA9
:1068F000E070030269EE790080ED90F9B6E0600285
:1069000014F090F9B5E0600214F090F9FBE014F097
:10691000700B12669790F970E090F9FBF090F9AA6D
:10692000E004F0C394334007E490FA03F080099048
:10693000FA03E060030269EE90F962E0A2E7400327
:106940000269EEA2E6505590F9F8E0601D14F0706F
:106950001912798690F962E0C2E6F090F944E0906D
:10696000F9ABF0F912667F0269EE90F9F9E0607E0A
:1069700014F0707A90F96CE090F9F9F090F9ABE0CE
:10698000F890F97EE028F8E43400F97AFA7B0012F6
:1069900061A9EA90F9ABF090F97A80C690F9F7E036
:1069A000603714F0703390F96AE090F9F8F0E490F1
:1069B000F9FAF090F962E0D2E612796CE064FF70C7
:1069C0000890F944E090F97AF0126BE390F510E446
:1069D000F0A3F090F9ABE0808A90F9FAE0600F1430
:1069E000F0700B126BD890F96EE090F9FAF0EE604F
:1069F000030268AA7E101EEEC333F8E43334F5F9BF
:106A000088828983C3A3E01275DA4003026BCF88C2
:106A1000828983E4F0A3F0EE12633A000802376A39
:106A200003456A04326B08EE6A09526B0B386B0D32
:106A3000656B0F866BCF6B75C9A875C95890F50447
:106A4000747D026BCB90F9B5E07003026BCF90F9C7
:106A5000B9E0604890F9BCE0601C90F9AFE06016C6
:106A600090F9BCE014F090F9AFE014F0701090F9D8
:106A700092E4F0A3800790F9B2E0600214F090F580
:106A80003AE0642070047A0180027A00EA90F9BA50
:106A9000F079007A4A7BF812708D8006740190F5C7
:106AA00022F090F93EE0FA7003026BCF90F93DE0DE
:106AB000FBEAC394084009EBC394084003026BCF80
:106AC000EB6008C39A50048B2180028A21E521C320
:106AD00094084003026BCF126BE974FD2818181854
:106AE00074FF39F990F506E8F0A3E9026BCE90F94E
:106AF00062E054506410703A90F53AE06410700807
:106B000090F5107401026BCB90F9B3E0FA74FF2A90
:106B1000F0EA6014126BD890F9F5E024F612758C47
:106B200090F508E4F0A3800990F944126BE390DF3C
:106B300006F0127547026BCF90F51674D0F0A3746F
:106B400007F090F9FCE014F06003026BCF127E6D49
:106B5000807D126D0F90F9F5E0249712757D740118
:106B600090F5298069126E2E90F93EE0F521605F64
:106B7000C39408505A126BE974D428F874FF39F999
:106B800090F51A026AE77B00E5CDC0E090F95BE082
:106B9000FAD0E0C39A500505CDE5CD0B90F9CFC3EF
:106BA000E09437A3E01275DA4016E5CFC0E090F923
:106BB000B4E0FAD0E0C39A500A05CFE5CF0B8003CA
:106BC00075CF00EB600990F51E74FAF0A3E4F0EEC7
:106BD00060030269F602796790F9ABE090DF06F096
:106BE00012659EE090F9ABF022126BFCE88521F073
:106BF000A4F8AAF08521F0E9A42AF92290F9F5E099
:106C0000F8A3E0F922C082C08390F970E090F9FB0C
:106C1000F090F972E090F9FC026797745590F53B9B
:106C2000F090F5307418F0A3746DF090F532743D67
:106C3000F0A3746DF0740190F537F0741855BEC36D
:106C400013131390F9B1F012679D126C0590F9625D
:106C5000E0A2E6500590F97A800390F944E0FAEA60
:106C600090F9ABF0127D4890F95AE0A2E09294902E
:106C7000F959E0A2E0929390F9B1E06402701090AB
:106C8000F95CE090F9B4F090F95BE0F5CD80127515
:106C9000CF0090F95CE090F9B4F0A2945003126731
:106CA0006D12670490F51674D0F0A37407F090F598
:106CB00008740212756990F504747D127569126D7D
:106CC0000F7A007BF97904126E1D1279797E0A80A1
:106CD000057964126875EE1E70F712669790F53BA1
:106CE000E064556003127E6D90DF36E064816003DE
:106CF000127E6D1268A390F9F5C3E09491A3E0941D
:106D00000640DA90F9F57490F0A37406F080CE1284
:106D10006BFC90F512027586C082C083E490F9AED8
:106D2000F090F536E004F0C39404500890F5027436
:106D30001412756990F9AE126DD202679874F71249
:106D4000626AE5BBF9E5BAF874C828F521E439F5BB
:106D5000227404782112620AA821A92290F9AEE0D7
:106D600064FF7008E490F9AEF0027967E0FA74010C
:106D70002AF0EAC333FAE433FBEA2495F582EB34D4
:106D8000F9F583E028F0A3E039F090F9AEE0C39480
:106D9000095005126DD280D190F9A7E004F0C39498
:106DA0000840C179127C957DF97ACB7BF9127F1D61
:106DB00079127A957BF9127EFAE4F090F9ADE0044D
:106DC000F06408709F740190F9B7F0E490F9ADF0A9
:106DD0008092E024D6F582E4347FF583E0F5B62294
:106DE000C082C083126E177C4C7DF87A007BF879E4
:106DF000001263C57C5C7DF87A107BF87900126321
:106E0000C5742290F84AF090F95FE090F84BF07466
:106E10000190F9B90267977A107BF97906126399A4
:106E20001263BB2279067CA67DF8127F1D2274F8BE
:106E300012626AE490F9BCF090F9AFE0600B127056
:106E40001C740190F9BC026F1990F9B2E06006124F
:106E50006F7A026F1A90F9B7E07003026F1D7E1E01
:106E60007F00790012760690F9DB126BFF90F80034
:106E700012758690F80012758690DF06E090F8048F
:106E8000F074185590C333C0E090F8A2E0540FFAA4
:106E9000D0E04A333354FC126F6E79107CCB7DF90D
:106EA0007A0C7BF8127F1D90F962E0A2E6500A90FE
:106EB000DF06126F1F7420800CA2E5500D90F96060
:106EC000126F1F741F28FEE439FF90F962E0A2E7F9
:106ED0005008EE2404FEEF3400FF90F97BE0A2E1BD
:106EE0005008EE2408FEEF3400FF90F81AEEF0A3ED
:106EF000EFF090F9DFE0600790F994E0FA80027A11
:106F00007FEA90F81CF090F9DFE090F81DF0E5CDF5
:106F100090F81EF0E5CF90F81FF0126DE0804AE087
:106F200075F064A4F8A9F02274F812626A8921EA63
:106F3000FEEBFF7904EEFCEFFD7A007BF8127F1D7B
:106F4000E52190F804F090F8A2E0333354FC4403B8
:106F5000126F6E7914EE2404FCEF3400FD7A0C7B82
:106F6000F8127F1D8003439A017F010262C990F8E5
:106F700005F07A067BF8126E242274F612626A74A7
:106F8000EC12623C90F9B21270521261A9E8F5233A
:106F900075F00CA4FAE42A7A003408FB7E008E21F6
:106FA000854182854283E5822521F8E5833400F915
:106FB000E8FCE9FD74FF8C828D83F07F0078101867
:106FC0008821EA2521F582EB3400F583E064FF6037
:106FD00016752101752200EF78211262298C828DAD
:106FE00083E06521F08003E870D5EA2410FAEB34E1
:106FF00000FB0FEFC3940840C40EEEC39418409EEC
:10700000854182854283AA82AB8374F82523F912D5
:107010006F28741412624B7F030262C974F8126203
:107020006A90F9AF1270521261A9E8FC90F97C7471
:107030001CF0A37470F0EC75F018A4F8A9F090F9A6
:1070400092E028FAA3E039FB74ED2CF9126F2802C4
:107050006F69E0F874FF281874FF3400F990F9FDA7
:10706000E0FA7B0022C082C08374FF90F800F090A9
:10707000F801F090F802F090F803F07A0A7BF81229
:107080006E24126DE0741290F84A026797C082C0B5
:107090008390F9B8E0701C75E104EB90F877F0EAA2
:1070A00090F878F01266DB741090F53AF075D6021D
:1070B00075E10302679874ED12626A74DB12623C38
:1070C00090DF38E0F52490DF08E0FE90DF3AE0F54D
:1070D0002790DF3CE05480F52390F825E0F52590DB
:1070E000F826E0FA127574702290F95FE0FB6A707E
:1070F0001A90DF05E06B7013E523700302752779A2
:10710000007A257BF812708D02752790F95EE06A8F
:10711000600302751A90F825E02403F97C257DF8B8
