:10080000E490F80078E879048002F0A3D8FCD9FAE3
:1008100090FBE7AA82AB83904DBF78B17901801538
:10082000E493A3AC82AD838A828B83F0A3AA82ABCC
:10083000838C828D83D8E9D9E71227BE0080FA75B0
:10084000FE02D29175D0007581467541007542F85F
:1008500002080043AE0222E5AE20E7FB22A2E792A7
:10086000D65002F40430F70663F0FF05F0B34003FE
:1008700084800384F40430D60563F0FF05F022E0A1
:1008800066701008A3E066700A08A3E066700408AA
:10089000A3E06622C3E7960809E7960809E79608E9
:1008A00009E796A2D265D03322C3E09608A3E0966A
:1008B00008A3E09608A3E09622080808E630E711AE
:1008C00012108A1208D1080808C64480C6181818E1
:1008D00022181818E9799EC608CAC608CBC608CCE3
:1008E000C6C370207996CACBCC7019798ECBCC70E8
:1008F000137986CC700EF9802ACA33CACB33CBCC9D
:1009000033CC331930E7F2CCCBCA3350147004EA3D
:1009100030E00DE4CA3ACACB3BCBCC3CCC50020908
:10092000C3E913C6CC182313C6CB18C6CA18C6F918
:100930002212097120F01430E72B74FFFCFBFA74CB
:100940007F8022E4FCFBFA7480801AB48008BC002B
:10095000F2BB00EF800F50EBF9E4C39AFAE49BFB83
:10096000E49CFCE499C6CC18C6CB18C6CA18C6F9D4
:1009700022E4C9C608CAC608CBC6D3330308CCC60E
:100980003392F0C3947F402E94184019C9B90704DC
:10099000CACBCC225025C309CA33CACB33CBCC3304
:1009A000CC33D9F422F4600DC9CCC313CB13CBCA1A
:1009B00013CAD9F6CC22E4FCFBFA2214FCFBFA227F
:1009C000E6C33318461846184622E7C333194719B9
:1009D00047194722181818E6084608700AE608C39F
:1009E000337005E633F4220822191919E70947097B
:1009F000700AE709C3337005E733F4220922E608D9
:100A00004608C3134608336002E633F422E7094779
:100A100009C3134709336002E733F4221209FE6069
:100A20001B120A0D60161209C070071209CA600C69
:100A3000B322C0D01209CA7005D0D022C32233D04D
:100A4000D0501330E0EBC3E7960809E7960809E7B2
:100A5000960809E7962220E0E4E6970809E6970859
:100A600009E6970809E69722001209FE604F120A6C
:100A70000D6012E7548066F61209D470111209CA8B
:100A8000703B090909F4F618F618F618F62212094F
:100A9000E970151209C008080860EAE6447FF618F4
:100AA000768018E4F618F6221209C060161209CAF8
:100AB0007012E4F608F608F608E65480F60909090B
:100AC00018181822EAC0E0EBC0E0ECC0E0EDC0E08E
:100AD000E687F0A4FBACF008E687F0A42CFCE43534
:100AE000F0FA1809E687F0A42C4B60027401CA35AD
:100AF000F0FCE433FB09E687F0D2F7A42CCB35F009
:100B0000FC1908E687F0A42BCC35F0FBE433FD0894
:100B100019E687F0D2E7A42C4ACB35F0CD3400FC9F
:100B200009E687F0D2E7A42DCC35F0FDE433FA09CD
:100B300018E687F0D2F7A42CCD35F0CA3400FC08B3
:100B4000E687F0D2E7D2F7A42ACC35F07A7E20E708
:100B50000B0ACB33CBCD33CDCC33CC33CB3350148A
:100B60007004ED30E00ED2F1E4CD3DCDCC3CCC3B79
:100B70005005DA05C2F1EB547FC63308E63392F034
:100B8000FBE73309E733C39A502D2B70190C0D4C3A
:100B90004D70151806E608C333700D20F10AA2F057
:100BA00013F6E418800B4024E4F630F00276801847
:100BB000F618F618F68024D33B14501074FFA2F0F8
:100BC00013F6187680E418F618F6800FA2F013F6E4
:100BD00018E63303F618ECF618EDF6D0E0FDD0E099
:100BE000FCD0E0FBD0E0FA22120A0D60461209FEAA
:100BF000603DE9687008F618F618F618F622748059
:100C000067F7120C1C090909748067F7221209FEA4
:100C1000601D120A0D7005191919801A1209D47075
:100C20001F1209E9C37003E6673319191940071841
:100C300018182208080874FFF618F618F618F62295
:100C40001209E960171209CA702192F01209C070E6
:100C500019501720F014080808090909E7F61819AF
:100C6000E7F61819E7F61819E7F6221209C060E648
:100C7000E869701F0808E62480F608E436F6185480
:100C80007FB47F0CE654806007F6E418F618F6226D
:100C9000181822E9C6CC08C6CD08C6CE08C6CFC0F3
:100CA000E0E8C0E0EAC0E0EBC0E009E9F809E7FAF3
:100CB00009E7FBE6F918E6F8C3EC98ED99EE9AEB34
:100CC000C2E7F5F0EFC2E795F0500E600CEBCFFBFA
:100CD000EACEFAE9CDF9E8CCF8EAA2E7D2E7FAEBF6
:100CE00033FB13F5F0EEA2E7D2E7FEEF33FFC5F0DA
:100CF00013A2E730E601B313C5F0C3C0E0C0F07F34
:100D000000C39BFB605B9418600C401AD0E023F991
:100D1000D0E0F8020DEB8AF0E9486003D2F0E4AFCE
:100D2000F0FAF9F8803BEB30E40D89F0EA6003D289
:100D3000F0E4AFF0F9CAF8EB30E30D88F0EF6002B1
:100D4000D2F0AFF0E4CAC9F8EB54076014FBC3EA71
:100D500013FAE913F9E813F8EF135002D2E0FFDBBE
:100D6000EDD0E0C0E030E739C3E49FFFF5F0EC9848
:100D7000FC42F0ED99FD42F0EE9AFE42F0D0E0F92F
:100D8000D0E0F8E5F0607AE923F9EE20E742D802F6
:100D90008067C3EF33FFEC33FCED33FDEE33FE80B1
:100DA000EAEC28FCED39FDEE3AFED0E023F9D0E084
:100DB000F84002801BC3EE13FEED13FDEC13FCEFB5
:100DC000135002D2E0FF08B800067F7F74FF802E28
:100DD000EF3350178CF020F00260100CBC000C0DAB
:100DE000BD00080EBE000408E860DFE933E813FF29
:100DF000EE2313FE4F4D4C8008E95480FFE4FEFDC6
:100E0000FCEE33EF33F47004FCFD7E80D0E0FBD0C9
:100E1000E0FAD0E0F8D0E0CFC618CEC618CDC6189C
:100E2000CCC6F9221209FE700418181822120A0DF5
:100E3000700D74FFF61819F61819F61819F622E74E
:100E4000548066F61209C0700F1209CA70F014F6C9
:100E500008F608F608F680D11209CA700CF608F6F2
:100E600008768008E6447F80EC1209EC700C1209C9
:100E7000D760BFE65480F6E480BB1209D77005192D
:100E8000191980A5E869700C763F18768018F61855
:100E9000F6E8F922E6CDC0E018ECC0E0E633CD3349
:100EA000CDD313F6E719FCE7191933CC33C3947F7C
:100EB000400ECD9D502408E65480F6E418F6800FCD
:100EC000F4043D14501408E6447FF6187680E418C4
:100ED000F618F6D0E0FCD0E0FD22CCD313CCFD1800
:100EE000E4C6CBC0E018E4C6CAC0E00808ED08C6F6
:100EF00033E613F618E433C675F003C3CA97CA097C
:100F0000CB97CB199C40047D08802EBD0003020FB7
:100F1000CD16B6FF050606081618C3CA33CACB336A
:100F2000CB33CA27CA09CB37CB193CC37D08803ED7
:100F3000187D0820E75CC633C6CA33CACB33CB332F
:100F4000DDF1D5F0EB30E77BCA97CA09CB974ACBE6
:100F5000199C406F4B7025E620E0218066187D08C3
:100F6000C3CA97CA09CB97CB199CD3C633C6CA3319
:100F7000CACB33CB3350C9DDE7D5F0E1D3E4C63675
:100F8000C608C636C608C636C608C636C6181818F5
:100F90008031C3CA97CA09CB97CB199CB34097C677
:100FA00033C6CA33CACB33CB33DD34D5F02EC6A219
:100FB000E0C640C8CA27CA09CB37194A70BECB3C25
:100FC000B480B90808E63308E633601F181818D053
:100FD000E0FAD0E0FBD0E0FCD0E0FD22187D08CAAA
:100FE00027CA09CB37CB193CD3808013F618E4B657
:100FF0007F11F618B6FF0EF618C60470D2080876F0
:101000008080CAF618F618F680C5080808EAC0E01D
:10101000EBC0E086F0E7A4FA180986F0E7A42AFA04
:10102000180986F0E7A42AFA180986F0E7A42AFA34
:101030001986F0E7A4FBE5F02AFA190886F0E7A480
:101040002BFBE5F03AFA190886F0E7A42BFBE5F054
:101050003AFA18180986F0E7A4C5F02BFBE43AFA2F
:101060001908E7C5F0C6A426F6E5F03BFBE43AFA1A
:101070001886F0E7A4F6E5F00826F6E43B08F6E467
:101080003A08F6D0E0FBD0E0FA22181818E4C3962C
:10109000F608E496F608E496F608E496F62260165A
:1010A000080808C6C313C618C613C618C613C61840
:1010B000C613C6D5E0EA22E026F608A3E036F60815
:1010C000A3E036F608A3E036F622E026F008A3E017
:1010D00036F008A3E036F008A3E036F022C3E0C6FD
:1010E00096F608A3E0C696F608A3E0C696F608A30F
:1010F000E0C696F622C3E096F008A3E096F008A3B7
:10110000E096F008A3E096F022E0F608A3E0F608E7
:10111000A3E0F608A3E0F622E6F008A3E6F008A3B1
:10112000E6F008A3E6F022CAC0E0E6F0A308DAFA87
:10113000D0E0FA22C3E498F8E499F91211758026F8
:10114000C3E49AFAE49BFBE920E7E9121175E498FD
:10115000F8E499F922C3E498F8E499F9121175E4D6
:1011600098F8E499F9C3E49AFAE49BFB22EB20E7B0
:10117000CFE920E7E0B90010BB0008E88AF084F866
:10118000AAF022E4FBC8FA22EB70227B10C833C815
:10119000C933C9335007C39AC3DBF280069A5001A2
:1011A0002ADBEAC833F4C8C933F4C9FA2275F00857
:1011B000E4C833C8C933C933C99AC99B5004C92A82
:1011C000C93BD5F0ECFBC833F4C8E4C9FA22600D82
:1011D00008C6A2E713C618C613C6D5E0F322600CF2
:1011E00008C6C313C618C613C6D5E0F4227004227D
:1011F000600D18C6C333C608C633C6D5E0F418223E
:101200002541C0A8C2AF40021542F541D0A822C076
:10121000D02541C0A8C2AF50020542F541D0A8D0A8
:10122000D0222541F582C0A8C2AF40021542F54147
:10123000D0A8854283222541F582E43542F58322F8
:10124000E4732541C582C0E0E54234FFC583C0E0B8
:10125000E541C3958224F9C0A8C2AF858342858247
:1012600041D0A8CEF0A3E520F0A37821E608F0A3B2
:10127000DEFAEFF0A3E58124FBF8E608F0A3E60828
:10128000F0A30808E608F0A3E608F0A3158115818D
:10129000D0E0FED0E0F815811581E8C0E0EEC0E0B6
:1012A00022854283854182E0A3FEE0A3F5207821D8
:1012B000E0A3F608DFFAE0A3FFE0A3C0E0E0A3C0EC
:1012C000E0E0A3C0E0E0A3C0E085A8F0C2AF858263
:1012D0004185834285F0A8D083D0822274028000A9
:1012E000C0E0F404121222D0E012112722D083D0E1
:1012F00082C5F0E493A3C5F0C395F0F5F0E493A3A1
:10130000C395F04005E5F0048001E475F002A425E2
:1013100082F582E5F03583F583E493A3C0E0E4939E
:10132000C0E022D083D082CCC0E0E493A360061258
:10133000134D1470FAE493A3600612136C1470FA40
:10134000D0E0FCE493A3C0E0E493C0E022C0E0E47A
:1013500093A3D39C5010E493A3C39C400AD0E0D045
:10136000E0D0E0021340A3A3A3D0E022C0E0E493C6
:10137000A36C7009D0E0D0E0D0E0021340A3A3D06A
:10138000E022C082C083740149F5B37C10800C8ACE
:10139000828B83E0F5B1A3AA82AB83EC1C70F0D002
:1013A00083D08222800100E5B3A2E350F92274F7D2
:1013B0001212428922ECFEEDFF7409121236E0F897
:1013C000A3E0F988828983EAC4540FF5218015E5EA
:1013D000B2F0A3EB1B70F81213A41521EE2410FE3B
:1013E000EF3400FFE5216016EEFAEFFBA92212139D
:1013F000827B0C800100EB1B70FB7B1080D57F0291
:101400000212A1C082C08390F876E054F0F0741309
:1014100090F875F074DF90F86FF074D990F870F070
:1014200074F890F871F0742590F872F0748090F868
:1014300073F0742590F874F0741090F876F074F8E6
:10144000F5D575D46F90F87EE054F0F0741390F8F1
:101450007DF074F890F877F0744A90F878F074DFC3
:1014600090F879F074D990F87AF0742090F87BF0C5
:10147000742390F87CF0744090F87EF090F886E049
:1014800054F84408FAF0741290F885F090F883E06C
:10149000541FF074DF90F881F074AF90F882F0E49C
:1014A00090F883F074F890F884F0740F5A444090E8
:1014B000F886F074F8F5D375D277D083D082227491
:1014C000F6121242EAFEEBFF8C218D2289231208CC
:1014D0005775AB2AEF90F87FF0EE90F880F090F817
:1014E00083E054E0F0E52390F884F0AA21AB227465
:1014F0000978211211DEE521F5ADEBC313EA13F5EE
:10150000AC53D1FBD2B875D60412085379017F03CE
:101510000212A1C082C08390F888E4F0A3F0798021
:10152000FC12155DD083D08222C082C083C2B890E5
:10153000F887E0602690F888E02480F0A3E034008B
:10154000F0E490F887F0C390F889E09480500C792B
:101550008090F888E0FCA3E012155D80C7FD7A8AD0
:101560007BF8124CBB798090F888E0FCA3E0FD7A10
:101570008A7BF81214BFE990F887F0227A177BFF74
:1015800000DBFDDAF9D9F52274F11212427C1980E0
:101590000F75F00AECA429C0E0EC121660D0E0F060
:1015A000EC1C70EDE9F525752600752700752800FF
:1015B0007C0090FBE778211211097825792112101F
:1015C0000A90FBEB78251210B78525218526228508
:1015D00027238528247410782112109E74FF55212A
:1015E000F8747F5522F97A197B001211758C23E566
:1015F00023240AF8E434F9F988828983E0FDEA2497
:101600000AFAE434F9FB8A828B83E088828983F0CA
:10161000ED8A828B83F00CECC3941940957F08020D
:1016200012A1C082C0837B19EB1B8B82A882600C45
:1016300090DF06E0FAE812165B6A70EC75E104745C
:10164000012808E43400F97A197B0012116DEA12BE
:10165000165B90DF06F0D083D08222121660E02263
:10166000240AF582E434F9F5832274ED12124289DA
:101670002190FC07E0C395215003E0F52190FB4940
:10168000782512110990FC4C7829121109782579D6
:1016900029120A1C502375258F7526C27527FD75E2
:1016A000284090F95B782912110978257929120EC2
:1016B0002490FB497825121118E521C394F14003C9
:1016C0007521F07522007523007524007821120819
:1016D000D490FB49782512110978217925120A68DE
:1016E0007821120931A821C3E5229401400278FF34
:1016F000E8F97F0C0212A1C3EA9401121711400508
:10170000EAF8EB8006C3E49AF8E49BF9E8FAE9FB0F
:1017100022EB1227292279037C447DFC7A097BDFA6
:10172000124CBB2274F8121242E9FEEAFF800579DE
:101730000112212C90F53AE0641060F31218465320
:101740009BFCE59B53E9EF75911074326E700C9021
:10175000F9FEE0A2E1500479198002EEF9124B057E
:10176000EF90DF06F074326E700590F9E48003901C
:10177000F9E0E090DF2E124662F090F9BDE090DFD4
:1017800001F090F9BEE090DF00F0439A01022F953E
:10179000C082C083E9FA90F9E5E0A2E6500479320C
:1017A0008002790C121724021B1AC082C08375D6DE
:1017B00083E9601C90F9E5E0A2E6401490F9E3E0CB
:1017C000FA793212172490F9E2E090DF05F08003F5
:1017D0001217D6021B1A90FAFFE0F912179022C0D6
:1017E00082C08375D68312184679047AE37BFB1294
:1017F0004C98E490DF08F012171612183990F9E5AA
:10180000E0A2E6500590FAFF800390F9C7E0F9E9FD
:1018100090FAFFF012179079067A1A7BFB124C9817
:1018200090FAF7E4F0A3F0FA79011239EA1239B329
:1018300012185490FB09021B197A837BF979041260
:1018400013821213A42275E10412399874F0F02265
:1018500090FAFFF090FB23E0241012399EE4F0A3ED
:10186000F02274F112124275FD00758FFFE5F275DA
:10187000F2FF7A00752101752200EA78211211ED3C
:10188000E52145F2F5F20AEAC3940840E775F4C091
:1018900075FEDB75CB5075CC2475CE2475F12075A3
:1018A000F52079127AE27BFA124C9875F300E490F5
:1018B000DF08F090F9C7E0F9121588121403121727
:1018C000161217D675210075220075238075243FE6
:1018D00090F93F782512110978217925120E24906C
:1018E000FA17782112111843CB14E5CBD2B9D2A93B
:1018F000439A01021A49C082C08390FFFDE0FA902A
:10190000FB0DE06A702390FA02E0FA601A90F9DEAB
:10191000E0FBEAC39B5003EA8001EBFC8CCD90FB1B
:1019200023E0241E122B59D294021B1A74F11212B6
:10193000428A218B228C238D2490FB4D122BB2786E
:101940002512110978257921120A68121987782140
:1019500012110978257921120C0D021A4174F11225
:1019600012428A218B228C238D241219877825120A
:10197000110978257921120BE890FB4D122BB278D2
:1019800021121109021A3A90FB4D122B1A2274F1FE
:101990001212428921752200740278211211EDE59C
:1019A0002124ACF582E52234FAF58378211211095D
:1019B00078211208B990F93F782512110978217918
:1019C00025120A6890FB4F78251211097821792594
:1019D000120A68AA21AB22AC23AD2412195D8069DA
:1019E00074F112124290FB4D122BB27821121109A0
:1019F0007D018A828B83782512110978217925123D
:101A00000A688D25752600740278251211ED90FB69
:101A10004DE02525FCA3E035268C82F58378251240
:101A2000110978217925120C0D0DEDC3940440C2E3
:101A3000AA21AB22AC23AD24800F78257921120A8C
:101A400068AA25AB26AC27AD287F080212A1C08268
:101A5000C08379F27C007D5C7A237BF9124CBB90C9
:101A6000F923E064AA7004A3E064AA700E90FA134C
:101A7000E064557004A3E06455602079F27C6F7DCA
:101A80004E7A237BF9124CBB1226D89003DCE090EF
:101A9000F9DEF09003DDE090F9DFF090F9FB745887
:101AA000F0A3741BF090F9F97406122BA97431900D
:101AB000F9B3F0745F90F9B4F0744190F9B5F0E4C3
:101AC00090FB148054C082C08374FF90F9C7F090DB
:101AD000FAFF1226E1C2E4F0D2E2F090F9FEE0C291
:101AE000E41226E1541FF0E490F9BFF079207C2441
:101AF0007DFC7A837BF9124CBB90F9BD74F01243E4
:101B0000E5790C7CD07D037A237BF9124CBB740100
:101B100090FB14F01217DF8001F0D083D082227482
:101B2000F112124290FC0DE07003021BB8122F4814
:101B300090FADC1220F890FB721227A490FADA12C5
:101B400020F890FB741227A490F9A512278450580E
:101B500090F9A7122F4B90FB72122784400890FB3C
:101B600074122784504290FB78E02478F0A3E0348C
:101B700000F090FC0E740A122BA990F9A3122F4BBF
:101B80007583FB758278124AFE402DC294740190D1
:101B9000FB20F0E490FC0D122BA390FC09122AEA22
:101BA00090FB78E4F0A3800F90FB78E4F0A3F09032
:101BB000FC0E7432F0A3E4F012272D90F9AB122A38
:101BC000F890FB76E06003021C78122B3C40030285
:101BD0001CB88E828F83E4F0A3F0740190FB76F042
:101BE00090FB77E0703690F9ADE0F890FB6BE090F9
:101BF000FB0670151220D25002E8F012477D90FCCF
:101C00000E745C122BA9021CC11220D24003021CCC
:101C1000C1E81226EB90FC0E747080E790FB6BE03D
:101C200090FC0E704F7469122BA990FB77E0640151
:101C30006003021D4890F9AFE02448F8A3E034F4B3
:101C4000F990FAD21220E65003021D4890FAD612FB
:101C500020E65003021D48E490FB77F090FB76E00D
:101C60006003021D2690FB6BE06003021D1612212B
:101C700003021D45747D80AF6401703C74482AFAEC
:101C800074F43BFB122B3C402FE490FB76F090FB6E
:101C900077E090FB6B7011E07006122103021C03C9
:101CA00090FC0E746E021C03E090FC0E70057460D4
:101CB000021C277474021C2790FB77E06003021C4F
:101CC0002A90F9AF122AF890FAD2122B3F400890CE
:101CD000FAD6122B3F5071740190FB77123F51E4FA
:101CE000F0A3F090F9B1E0F81220CF5004E81226EA
:101CF000EB90FB76E0640190FB6B700D1220C870D6
:101D000004747D80407469803C1220C8700474742F
:101D100080337460802F1220D85004EB1226EB9091
:101D2000FC0E746E801F90F9ADE0F890FB6BE070D4
:101D300006E81220B7800E1220CF5004E81226EBDE
:101D400090FC0E7470122BA990F93F78251211099E
:101D500090FB5F12211C1208D478257921120E24E1
:101D600090FB53782512111890FB4D7463F0A37407
:101D7000F9F090FB6112211C1208D490FB537825D6
:101D800012110978217925120A681220A090FB21EE
:101D90001238D6E0700D90FB22E0F5838A82A3A36F
:101DA000E0600E90FB21E0240B122AF07401022067
:101DB0009CE490FB0FF090F9BFE0FA602175F0E829
:101DC000A4CAACF075F003A42CFCE42CFBE89AE95F
:101DD0009B50047A0180027A00EA90FB0FF090F9A0
:101DE000A9122AF890FB14E0C37029E894D5E9946D
:101DF000AD400A121AC590FC0E7452804D90FADC68
:101E0000C3E09AA3E01220C45043121AC590FC0EFE
:101E100074568036E89410E994A4503190FAC4784E
:101E200021121109C3E5219AE5221220C4401E1295
:101E30001A4E90F9E5E0A2E6500890F9FDE090FA1C
:101E4000FFF01217DF90FC0E7432122BA9122B69CF
:101E50006003021DA3122B476003021DA390FB4DDC
:101E6000746BF0A374F9F090FB6312211C1208D478
:101E700090FB53782512110978217925120A68AA56
:101E800021AB22AC23AD2412195D8A218B228C2335
:101E90008D247821120931AA21AB2290FA03E07037
:101EA00003021F731220BD4003021F73740190FBD5
:101EB0006BF0C29490F9B1E0F890FB06E0FA90FB69
:101EC00076E0640190FB776003021F54E0640170C8
:101ED0006D90FC0E747DF0A3E4F0122B6960030298
:101EE0001DA3122B476003021DA390F9C2E07003EB
:101EF000022097A294400302209790FB4D744BF070
:101F0000A374F9F090FB5712211C1208D490FB53D4
:101F1000782512110978217925120A681220A090DB
:101F2000FC07E064FFC37003022085E89459E9943C
:101F300034500302209D74FF12477902209D90F9CE
:101F4000ABC3E09AA3E0940050031226E790FC0E86
:101F500074708082E06401600302207D90F9AFC359
:101F6000E09AA3E0940050031226E790FC0E7474EC
:101F7000021ED690FA06E0F5217003021EDA74FF05
:101F800065217003021EDA90FB69E07002A3E06035
:101F90000990FB691221DA021ED9752200740378B8
:101FA000211211ED90FB69E521F0A3E522F090FBF1
:101FB0006BE0700302203990FA05E0F8C3EA98124A
:101FC0001711505EA29440031218F690FB07E0FA36
:101FD00090FB77E06401702290F9B11220EF50037A
:101FE000E8800490FB07E01226E890FB761220C8F8
:101FF0007004746980237460801F90FB76E0640134
:10200000701490F9AD1220EF5003E8800490FB07A4
:10201000E01220B78003122103122BA990FB6B0260
:102020001ED9A2944003021EDA90FB06E070030260
:102030001EDA141226EB021EDAA2944003021EDA04
:1020400090FA04E01220BD4003021EDA1220D8509C
:1020500003EB8002E014F0740190FB6B124779905F
:10206000FB76E0640190FB77700BE0640160030293
:102070001F4D021ED1E064017003021F6B90FC0E25
:10208000746E021ED6E89410E99427501090F9C29D
:10209000E090FC07021F3874FF90FC07F0021A4919
:1020A000AA21AB22AC23AD2412192C124D798A211E
:1020B0008B22A821A9222212210D745C22C39AE44A
:1020C0001220C4229B022787E0640190FC0E22901C
:1020D000FB06E0FAE8C39A2290FA09E0FB90FB06BF
:1020E000E0FAEBC39A2212394FC3E89AE99B221215
:1020F000275FE89AE994002212394FE8C39AFAE977
:102100009BFB2290FB07E012210D74322290FB060C
:10211000F0F912166AE9F5CF90FC0E22E0F521A342
:10212000E0F52275230075240078212274F712123D
:102130004290FB23E0241CFAA3E03400FB892174C5
:10214000012521F8E43400F91243F5800563900479
:10215000E5908A828B83C3E09401A3E09400C36579
:10216000D03350E98A828B83E4F0A3804B74F7125A
:102170001242C29475FEDB7E008E21752200740A25
:1021800078211211ED122AD4E8FAE9FB8A828B83B6
:10219000A3A882A9838A828B83E064FF70047A01FA
:1021A00080027A00122AC86006C3ED940440D90E5A
:1021B000EEC3940F40C38001F07F020212A1C082DF
:1021C000C0838A828B831221DAF08A828B83E0704B
:1021D00004790180027900021B1A1221DE22E02418
:1021E000FFF0A3E034FF2274F5121242752100A81B
:1021F0002190FB21E02812440370030223A3E4F0A2
:10220000E5211213230005014322021822033D2277
:1022100009C0220B4922992390FB12E0600B790040
:102220001217AA12395302239990F9E5E054606419
:1022300020600302239990FB0BE0F980E31230E762
:1022400002239912319C02239990DF3CE0A2E250D4
:102250001490DF3BE0C3940D400BE0C39410500595
:10226000122764802D122B6970F6122B4770F11221
:10227000441E1227545006E87001E970E31238E05A
:102280001227545006E87001E970D57A01790012DE
:1022900039EA90FA0B122F4B7583FA7582D4122704
:1022A000844003022399E490FB06F075CF0090FB75
:1022B00023E02418122AF074D0F0A37407022398A4
:1022C0007A027BFC1221BEE960061217DF122B0492
:1022D00090FC04C3E0940AA3E0940050031226D8B3
:1022E00012390C4007E490FC47F0800990FC47E06D
:1022F000600302239990F9E5E0A2E74003022399E5
:10230000A2E6504F7AFC7BFB1221BEE96018124412
:102310004D90F9E5E0C2E6F090F9C7E090FAFFF0E1
:10232000F912179080737AFE7BFB1221BEE9606977
:102330001238EA90FAFFE0F890FA01E028F8E43465
:1023400000F97AFA7B0012116DEA90FAFFF090F929
:10235000FD80CC7AFA7BFB1221BEE9602712441182
:1023600090FC00E4F0A31226E1D2E612443164FFAF
:10237000700890F9C7E090F9FDF0E012185090FA5B
:10238000FFE0809C7A007BFC1221BEE9600B1227E3
:102390000C1238B7E8F0A3E9F0122B697011122B78
:1023A00047700C0521E521C3941050030221EF75FD
:1023B0002100E521C333F8E433F990FB23E028F84A
:1023C000A3E03912271D40030226C788828983E4CF
:1023D000F0A3F0E5211212ED020DC726F823072421
:1023E0007F25F6240C25C72637259C25FB24902520
:1023F0001D267126C726E22575C9A875C958122B56
:1024000011F0A3E40226C690FB0AE070030226C77F
:1024100014F0E490F538F090DF05E0FA90F9E2E08E
:102420006A70047A0180027A00EA90FB7CF090FBEB
:1024300015E070030226C790FB7CE07012123F5734
:10244000642070047A0180027A00EA90FB12F09016
:10245000FB11E0601C90FB03E0601690FB11E014A0
:10246000F090FB03E014F0701090FA15E4F0A380F4
:102470000790FB08E0600214F079007A4A7BF812BA
:10248000315090F9C1E0FA70030226C790F9C0E01C
:10249000FBEAC394084009EBC3940840030226C733
:1024A000EB6008C39A50048B2380028A2390FB239D
:1024B000E024061227425013E523C39413502E1232
:1024C000277174FF2A1A74FF3B8011740165237011
:1024D0001C90FBF8E024FFFAA3E034FFFB90F538F2
:1024E000E0FEEAC39EFAEB94001226F0F090FC485E
:1024F000E064010226C6C2930226C790FB20E0607A
:10250000030226C7740190FB100226C690F9DCE096
:10251000700E90F9DDE06008D29312443AF0800822
:1025200090F9DCE0A2E0929390F9DDE070030226DE
:10253000C71218F60226C790F9E5E05450641070EF
:102540003E1239AD7008122702740102240190FB7B
:1025500009E0FA74FF2AF0EA601212270C90FBF8E7
:10256000122AF8122702EAF0A3EB800B90F9C7E0D9
:1025700090FAFFF090DF06F0122B28E4F0A3F07938
:10258000001217AA740190FB12F01239530226C7E9
:10259000122B5390FC041221DA0226C612278D90CA
:1025A000FBEF122F4B7583FB7582F8E0C398F8A3FD
:1025B000E099F974F628F874FF39F990FB23123882
:1025C000D0A3A3A3A3A31243F9123903F090FB0BEA
:1025D000E0600214F090FB0CE070030226C71402C6
:1025E00026C690F9DEE0FBE5CDC39B40030226C77B
:1025F00090FA0DE0FCE5CDFAEC70057C0180010A53
:10260000EC1C6005EAC39B40F68ACD90FB23E024D6
:102610001E122AF074D0F0A374070226C612272DCA
:10262000122F487583FA75820B122784503990FB5C
:1026300006E0C0E090FB07E0FAD0E0C39A40030256
:1026400026C790FA0AE0FC90FB06E0FBEC70057CE4
:102650000A80010BEC1C6005EBC39A40F6EB1226D6
:10266000EB8E828F8380ADE490FB06F075CF008007
:10267000F0E490F538F0122DCF90F9C1E0F5236029
:102680004690FB23E0241A1227425016E523C394F8
:1026900013503412277190F538E0FEEAC39EFAEB2E
:1026A000801774016523701F90F538E0FA7583FB7D
:1026B0007582F8E0C39AFAA3E09400FB74FF2A1A2B
:1026C00074FF3B1226F0F00521E521C3941050035E
:1026D0000223B27F040212A1121AC5E490FB14F087
:1026E00022F090F9E5E022E890FB06F01247822202
:1026F000FBEAC39CFAEB9400FB88828983EAF0A38F
:10270000EB2290FB23E0241012399E2290FAFFE086
:1027100090DF06F0121622E090FAFFF022F988828C
:102720008983C3A3E0122729229400805A90FB23B7
:10273000E0241812273722F8A3E03400F9E8FEE974
:10274000FF22F8A3E03400F990FC48E0FC90F9E5A2
:10275000E0A2E22212275FE8941DE9122729221243
:102760002F53C32290FB21E0240B12399E7401F0F9
:102770002212394CEA8523F0A4FAAEF08523F0EB5F
:10278000A42EFB22124AFEA2D265D0332290FBF87F
:10279000E0FAA3E0FB90FB23E0241212399E8004B0
:1027A00088828983EAF0A3EBF022EEC0E0E9FE80A4
:1027B00005796412212CEE1E70F7D0E0FE2274AA77
:1027C00090F53BF0741090FFFFF090DF36E06481ED
:1027D0006003124BC590FFFEE0645A70030229F9B2
:1027E000745AF0D2B97E007F008E218F22740A784D
:1027F000211211ED122AD4E8FAE9FB8A828B83A315
:10280000A882A9838A828B83E064FF70047A0180A6
:10281000027A00122AC86009C3ED940440D912213B
:102820006DEE24010EEF3400FFC3EE940FEF940021
:1028300040B790FC10E02430122AF07472F0A374B8
:102840002B12398E2432122AF074D2F0A3742B1278
:10285000398E2434122AF07429F0A3741512398E9B
:10286000243712276A124407747812398B245D12B8
:102870002AF0742812398B24201238A590FB2112DB
:1028800043F990FC10122F4B90FB231243F990FC5C
:1028900010E024381238A590FB7A1243F9741855C9
:1028A000BEC313131390FB05F079F07A237BF91262
:1028B0004C98121A4E90F9A3E07002A3E0600474E1
:1028C000018001E490FC0D12388F90F9E5E0A2E65A
:1028D000500590F9FD800390F9C7E0FAEA90FAFFFD
:1028E000F0124AD290FB05E01212ED0003A0295B22
:1028F000295B29F7285B2990FFFDE0FA90FC09E0AD
:102900006A700E740190FB20122BA390FC0DF080D6
:102910000790FC08E06A7004C2948003122AE790D2
:10292000FFFDE0FA90FB0DE06A700C90F9DDE060CD
:1029300004D2948002C29490F9DCE06004D29380C7
:1029400002C29390F9DEE0F5CD90F9DFE0F990FB5B
:1029500006F090FB07F01247838045122AE790FAB1
:1029600002E0FA60048ACD800690F9DEE0F5CDC27F
:1029700093C29490F9DCE0A2E09293E490FB06F01D
:1029800075CF0090F9DFE090FB07123889240C1214
:102990002AF07470F0A374171238892418122B5976
:1029A00079907A1C7BFA124C98121862122B5312EF
:1029B0002B287402122BA9122B11122BA912278D6E
:1029C00012183912442453E4FCE5E475E30075E27F
:1029D0000075DB0275DAED43E406E5E475E544795C
:1029E0000A1227AA79047CF37DF97A027BFC124C47
:1029F000F0E96003124BC5C29112311C1217DF803F
:102A000011EA7001EB700B8882898374D0F0A37493
:102A100007F090F53BE064AA6003124BC590DF36E7
:102A2000E064816003124BC575C9081221E7122BBF
:102A30006970DF122B4770DA90FBF8C3E09491A322
:102A4000E09406500A90FBF8E07002A3E0700A9050
:102A5000FBF87490F0A37406F090FB23E0241212AC
:102A60002AFC7583FB7582F8C3E09AA3E09B5003B0
:102A7000122B2288828983E07002A3E07003122B5C
:102A80002290F9F3122AF890FC02122B3F50069084
:102A9000FC021227A490FC02E07002A3E070031273
:102AA0002B0490FC04E07003124BC590FB23E02440
:102AB00016122AFCC3EA94D1EB9407A2D265D03354
:102AC0005003022A01022A07EAFBEC24010CED3430
:102AD00000FDEB222400F874083522F9741090FFF1
:102AE000FFF07C007D002290FB0DE090FFFDF022C6
:102AF00012399E228E828F8312394F22123F61FA41
:102B0000A3E0FB2290F9F3122F4F90FC021243FD39
:102B100022122B17747D2290FB23122BBAA3A3A39E
:102B2000A32212394C0227A0122B2C2290FB231235
:102B30002B3322122BBEA3A3A3A380E190FAD012C1
:102B4000275FEA98EB992290FB22E0F5838882A325
:102B5000A3E02290FB23E0241612399E74D0F0A348
:102B60007407F022EAF0A3EBF090FB21122BB6A33E
:102B7000E022C082C083E490FB02122BC704122B18
:102B8000C7C39404500A122BAFA3A37408122BA935
:102B900090FB02E02412F582E434FCF583E0F5B604
:102BA000021B1AF090FC0E7446F0A3E4F022F090A1
:102BB000FB23122BB622122BBA22122BBE22E0F8D4
:102BC000A3E0F583888222F090FC10E02436123FC7
:102BD000612274F5121242E5BBF522E5BAF52174C3
:102BE0000278211211CE90FC49E02521F521A3E0C5
:102BF0003522F52290FB02E0700A90FB7DE521F082
:102C0000A3E522F090FB02E0FA74012AF0EAC33354
:102C1000F8E433F9E824E2F582E934FAF583E025B3
:102C200021F0A3E03522F090FB02E0C3940950109C
:102C3000E02412F582E434FCF583E0F5B6022D833E
:102C400090FAF4E090FB7D700FE0F8A3E0F990FBC0
:102C500070E8F0A3E9F08039E0F8A3E0F97583FBB0
:102C6000758270C3E098A3E099500890FB70E8F07B
:102C7000A3E9F090FB6EE0F8A3E0F97583FB7582A1
:102C80007DC3E098A3E099501090FB7DE0F8A3E0AD
:102C9000F990FB6EE8F0A3E9F090FAF4E004F0C3D9
:102CA00094085003022D7E90FAE8E0FEA3E0FF7C3A
:102CB000E27DFA7A577BFB90FB01E0C333F8E43303
:102CC000F9E8241CF8E934FAF97523098C828D831C
:102CD000E0F521A3E0F52288828983E521F0A3E5D0
:102CE00022F0C3E5219EE5229F50098A828B83E46E
:102CF000F0A38015E521C39EF521E5229FF5228AE8
:102D0000828B83E521F0A3E522F0E82410F8E93472
:102D100000F9EA24020A0AEB3400FBEC24020C0C52
:102D2000ED3400FD1523E52370A290FB21E0240B78
:102D3000F8A3E03400F9888289837401F090FB6E77
:102D4000E0F8A3E0F97583FB758270E0C398F8A3FF
:102D5000E099F990FB6CE8F0A3E9F079127AE27B54
:102D6000FA124C98E490FAF4F090FB01E004F0645D
:102D700008700B740190FB0EF0E490FB01F0E490FE
:102D8000FB02F00226D374F71212427A937BF97990
:102D90000612183F75214C7522F878211212DC7C3E
:102DA000007DF87A2079001213AE740212120F74AB
:102DB0002290F84AF090F9E2E090F84BF07401901C
:102DC000FB150221B879067C297DF9124CBB2274CF
:102DD000F812124290FC0EE0FEA3E0FFE490FB111B
:102DE000F090FB03E0601E90FA15E064827004A38B
:102DF000E064FB7005122FA680031230A2740190CC
:102E0000FB11022F3990FB0EE07003022F3D7A0078
:102E100079001239EA79047C167DFB7A007BF8127E
:102E20004CBB90FAFFE090F804F074185590C3334F
:102E3000C0E090F925E0540FFAD0E04A333354FC57
:102E4000122F9A79107CD07DFA7A0C7BF8124CBB49
:102E5000C3EE9433EF9400505990F9E5E0A2E650A8
:102E60000C90DF06122F3F74022808800DA2E55057
:102E70001390F9E3122F3F74012808E439F9EE2882
:102E8000FEEF39FF90F9E5E0A2E75008EE2404FEDA
:102E9000EF3400FF90F9FEE0A2E15008EE2408FEB6
:102EA000EF3400FF90FB0CE06008EE2410FEEF34DE
:102EB00000FF90F81AEEF0A3EFF090FB27E070020D
:102EC000A3E0600790FA1BE0FA80027A3FEA90F8EC
:102ED0001CF090FB27E07002A3E0700B90FB8012C7
:102EE0002F4B90FB27800990FB27122F4B90FB80E4
:102EF0001243F990FB27E090F81DF0A2945024E5CE
:102F0000CD90F81EF090FB06E090F81FF090FC07C3
:102F1000E0C0E090F81FE0FAD0E0C39A501590FCB2
:102F200007800B90F9DEE090F81EF090FB07E09030
:102F3000F81FF090FB27E4F0A3F0122D868056E0F6
:102F400075F064A4F8A9F02290FAD4122F4F22123F
:102F50002F5322E0F8A3E0F92274F81212428921DB
:102F6000EAFEEBFF7904EEFCEFFD7A007BF8124CF1
:102F7000BBE52190F804F090F925E0333354FC448C
:102F800003122F9A7914EE2404FCEF3400FD7A0C1E
:102F90007BF8124CBB7F010212A190F805F07A0673
:102FA0007BF8122DC52274ED1212427E827FFB75D2
:102FB0002100800674046521604885212375240062
:102FC000740378231211EDE523244BF582E52434B4
:102FD000F9F583782512110990FC5078291211090E
:102FE00078257929120A68AA25AB26AC27AD2812C4
:102FF0004D798E828F831227A4EE2402EF34000EC7
:103000000EFF0521E521C3940740A990F94F7821CF
:10301000121109AA21AB22AC23AD24124D3090FB32
:103020008E1227A490F95F7821121109AA21AB22F0
:10303000AC23AD24124D3090FB901227A490F97769
:103040007821121109AA21AB22AC23AD24124D30F4
:1030500090FB921227A490F97F7821121109AA21DE
:10306000AB22AC23AD24124D3090FB941227A490D8
:10307000F93B7821121109AA21AB22AC23AD24120D
:103080004D3090FB961227A4E5CD90FB98F090FB75
:1030900006E090FB99F07A827BFB79EC122F5902C3
:1030A00016F274F812124290FB03E0F874FF28182D
:1030B00074FF3400F990FC06E0FA7B0012116DE811
:1030C000FC90F9FF74A2F0A37430F0EC75F018A432
:1030D000F8A9F090FA15E028FAA3E039FB74ED2C7A
:1030E000F9122F59022F95C082C08374FF90F80007
:1030F000F090F801F090F802F090F803F079067C77
:10310000167DFB7A047BF8124CBB7A0A7BF8122DF1
:10311000C5122D86741290F84A021B1974F8121207
:10312000427E7F90FB9AE070247401F090FB13E0E4
:10313000701B53BEFB8005790212157CE5BEA2E62A
:103140004004EE1E70F10075C68943BE04022F953F
:10315000C082C0838A828B83E0FC74226C60057419
:10316000126C703590FB0FE0702F75E10490FC102D
:10317000E0243AFCA3E03400FD8C828D8374F0F0EF
:10318000EB90F877F0EA90F878F01217AA123994D9
:103190007410F075D60275E103021B1A74F1121255
:1031A0004290DF38E0FF90DF08E0F521E490FB1269
:1031B000F090FAF5F0A3F090F825E090FBA212262B
:1031C000E15460FA90FBA2E02427F582E434F8F59C
:1031D00083E0A2E7500D90FBA2E06422601CE06453
:1031E00012601774206A700790FB0BE0F980027977
:1031F000001217AA12395302388690F826E0FB74A1
:10320000206A701B90F9E2E0FC6B701390DF05E020
:103210006C700C79007A257BF81231500238869058
:10322000F9E1E06B600302387490DF3CE0A2E75004
:1032300004D2F08002C2F0A2F0E492E0FE74206AB0
:10324000700979017A257BF812315090F538E090B9
:10325000FAFD122BA97A937BF9790612183F752390
:10326000007524F878231212DC7C277DF890FBA2ED
:10327000E024FEFA79021213AE740212120F90F8D3
:1032800000E090FBA1F090F801E090FB7FF0790660
:103290007C027DF87A9B7BFB124CBBE0541FC394ED
:1032A00011400302387490FB9FC3E094E8A3E094BC
:1032B00003400302387490FB9B7825121109758333
:1032C000FB75821A78251208A9402879047C1A7D9A
:1032D000FB7A9B7BFB124CF0E9600302387490FB95
:1032E0009F122F4B90FB1EE0687003A3E0697003F0
:1032F00002387490FB9B78251211097583FB758247
:103300001A78251208A9402179047C1A7DFB7A9B42
:103310007BFB124CF0E9701590FB9F122F4B7583CD
:10332000FB75821E124AFE50047A0180027A008ADE
:103330002390F538E090FAFB122BA912390C4005C6
:10334000E490FC47F090FBA2E02426F582E434F8F8
:10335000F583E0F525C394805010E525C313FA905A
:10336000FBE11238ACF8E4998017E42525F874FFE6
:1033700013E813F890FBE1122AF8E8C39AF8747F77
:103380009BF990FB271243F990F9E5E0A2E6406D26
:10339000EFC39401A2D265D033EF400EC39402A2D2
:1033A000D265D03340177F018013C3121712500D1E
:1033B000EFC394FFA2D265D03350027FFFE521F81E
:1033C0003395E0F9EFFA3395E0FBEA28F521EB3984
:1033D000F522AA21FB1216F7C3EA946112171140D5
:1033E00016740278211211EDAA21E522FB3395E033
:1033F000FCFD124BD48006E52190DF08F0EE70034F
:1034000002387490FB0CE0600214F090FC0AE0605B
:1034100009E4122BAE7478122BA9639002E5907424
:103420001290FB0A12388FE523600D79067C9B7D94
:10343000FB7A1A7BFB124CBB90FB7FE0A2E75004A7
:103440007A0180027A0490FBEF1238FB90FB7FE058
:10345000F8741F58F8EA28F8E43400F9E88521F0F8
:10346000A4C8AAF08522F0A42AFA8521F0E9A42AAA
:10347000F990FBF5E028F8A3E039F990FBF8E8F0C3
:10348000A3E9122BAE122F4B90FAFD1243F990F9DB
:10349000C5E0602C90FB7FE0541F240275F00312FE
:1034A000085DE5F0701A90FC4BE014F0701290F992
:1034B000C4E090F500122BA990F9C5E090FC4BF008
:1034C00090F9E5E0A2E650047A0080027A0490FBCD
:1034D00023E0241A1238A5E8FCE9FD90FBA1E07076
:1034E00032E490FB15F0740AC39AFAE4123924F01E
:1034F00079067C9B7DFB7A167BFB124CBB1238E075
:10350000C3E0940112272350738882898374FFF0EB
:10351000A3806890F9C1E0FE90FBA1E0F8EEC398AB
:10352000F8E49400F990F9E5E0A2E2EE502F604C47
:10353000C3E89413E9121712504290FBF81238FBBB
:10354000E88521F0A4C8AEF08522F0A42EFE8521E6
:10355000F0E9A42EF9740A28F8E4398015601D7486
:1035600001687001E9701590FBF8E0240AF8A3E007
:103570003400F9E8C39AFAE9123924F0740890FB90
:103580000B12388924081238A590FBEF122AF8751F
:1035900083FB7582F8E0C39AFAA3E09BFB74EE2AE2
:1035A000FC74FF12393A90FBA1E090FB001243DD5E
:1035B000403190FB23E02410FAA3E03400FB90FBA1
:1035C0007FE0A2E6501188828983122F4B1243F5C7
:1035D000740890FB09800BE490FB09F08A828B83CE
:1035E000F0A3F090FBF8E02401FAA3E034001227E6
:1035F0009490F9E5E0A2E690FB27501CC3E094A26A
:1036000012389E400E1238EA90F9ED122F4B90FBC3
:10361000FC801D123903801CC3E0949B12389E402D
:10362000F290F9EB122F4B90FBFA1243F91238B7D4
:10363000E8F0A3E9F090FBA1E0FC74FF6C600C9053
:10364000F9C0E06006F5F0EC84ACF090F925E0FDFF
:1036500090FBEF122F4BE88DF0A4F8AAF08DF0E963
:10366000A42AF990FBF3E028FAA3E039FB90FAFBD7
:103670001238ACFAEB99FB90FB23E024061238A534
:1036800090F926E0FE74FF6C600FEE6C700B888280
:103690008983EAF0A3EB0237D68C21EEC39521F59E
:1036A00021E49400F52290FB7FE0541FFF90F9C1C4
:1036B000E0F52390F9E5E0A2E2E52350446071745F
:1036C000FF6E606CECC39E40030237D7C3E52194C4
:1036D00013E52212171240030237D7EDC39F4003B0
:1036E0000237D790FBF81238C5CCAEF08522F0A493
:1036F0002EFE8521F0EDA42EFDEA2CFAEB3DFB8099
:103700008D602D74FF6E6028ECC39E40030237D796
:10371000740165217002E52260030237D7EDC39F73
:1037200040030237D790FBF8E02AFAA3E03B80CEB3
:1037300074FF6E60030237D774FF6D60030237D7E2
:1037400090FB7FE0A2E750030237D790FB23E024F1
:103750001AFAA3E03400FB8A828B83E4F0A3F09092
:10376000FB04E0600314806E53B4F3E5B443B40487
:10377000E5BDC0E090FA08E0F5F0D0E08490FA07EB
:10378000AAF0E02A90FB04F090FB7FE0FA741F5A45
:10379000F52190FBEF1238C5FCAAF08521F0EDA4CD
:1037A0002AFDE5BC75F0058485F02190FBF1122A15
:1037B000F8EAA4FAAEF08521F0EBA42EFBEA2CFA8D
:1037C000EB3DFB90FBF3E02AFCA3E012393A90FBBF
:1037D000211238D07401F088828983E07002A3E05E
:1037E00060347AFA90FBA2E0641270027A1090F9C9
:1037F000E5E0A2E6501090F9FEE0A2E1500474F377
:10380000800274F62AFAEA3395E0FB88828983E025
:103810002AF0A3E03BF090F9E5E0546064207005E5
:10382000790512212C90FBA2E024F6F912478A9028
:10383000F9E5E054486408702390FBFAC3E094C8AB
:10384000A3E09400501690FBA2E02425F582E43416
:10385000F8F583E090DF06F090FAFFF090FB23E0AC
:103860002406F8A3E0340012271D500888828983BB
:10387000E4F0A3F079001217AA90F9E5E05460642F
:103880002070030231E8021A49F090FB23E022F095
:1038900079047CF37DF97A027BFC124CBB22A3E015
:1038A00094FF022787F8A3E03400F9221238B022EF
:1038B000122F53EAC398221238BB2290F9F1122F2B
:1038C0005390FC0022E0FCA3E0FDEC8521F0A42253
:1038D0001238D6A3A322E0FAA3E0F5838A82A322BA
:1038E00090FB23E0241A12399E221238EE2290F91E
:1038F000EF122F5390FBFE1243FD22E0F521A3E0CF
:10390000F5222290FB2112444874012290FAF9E03A
:103910002401F0A3E03400F090FAF9C3E09433A35B
:10392000E09400229400FB90FAFB1238B0F8EB9977
:10393000F98C828D83E8F0A3E9223BFD90FAFB121B
:10394000394FECC39AFAED9BFB0227A090FBF8E0FD
:10395000022AFFC082C0831239AD70051239B380CC
:103960002775E10474F012398E245F12185A90F80A
:1039700025F090F826F01239947420F0742290DF2C
:1039800002F075D60175E102021B1AF0A3E4F09073
:10399000FC10E0221239982290FC10E0243A1239EF
:1039A000A222F8A3E03400F98882898322123F5BC7
:1039B000641022122B2C7401022BA974F1121242F2
:1039C00090FBA778211211098A828B837825121126
:1039D0000978217925120A6890FC4C782512110982
:1039E00078217925120C0D021A3074E112124289E5
:1039F000238A2490DF08E0F83395E0F990FB251244
:103A000043F97AAC7BFA75211C7522FA90FB21E010
:103A10002401F525A3E03400F526852582F583E011
:103A2000701490FB21E024021238A5882789288889
:103A300082F583E06006122764023F43E524605468
:103A400090FB01E0F818740758C333241CF521E4F7
:103A500034FAF5227909852182852283E0FCA3E0EE
:103A6000FD8A828B83ECF0A3ED122BA9A3F0123F09
:103A700048E5212410F521E5223400F52219E970EA
:103A8000D590FC0B122F4B7A087B0012116D882900
:103A9000E9023B157529007C0890FC54782D121121
:103AA0000990FBAB782D1211188027852182852281
:103AB00083E0F52DA3E0F52E752F0075300090FB07
:103AC000AB782D1210CAE5212402F521E52234003D
:103AD000F522EC1C70D5852582852683E0600302E3
:103AE0003A368527828983E06003023A3690FBAB41
:103AF000782D1211098A828B83782D121118123FAA
:103B0000480529E529C39409408D90FC0BE0F52177
:103B1000A3E0852129F52A3395E0F52BF52C90FAC1
:103B2000B878291210CA852582852683E0600302B1
:103B30003A36852782852883E06003023A367C097D
:103B400079007AAC7BFA124C52123F7C7005123F1E
:103B5000666003023A3690FABC782512110990FC8F
:103B600054782512087F7003023F43752900752A97
:103B700000752B80752C3F78251208B97829792596
:103B8000120E2490FB4F78291211188E828F83E039
:103B900070C1852182852283E070B890FB4D746BE3
:103BA000F0A374F9F0790612198E8A258B268C27DA
:103BB0008D2890FBA778251211188E828F83E070D4
:103BC00092852182852283E0708990FBA778251257
:103BD000110990FC58782912110978257929120ABF
:103BE00068782512093190FAD8E525F0A3E526F08A
:103BF00090FB4D742FF0A374F9123F51E060030263
:103C00003A36852182852283E06003023A367AA71C
:103C10007BFB1219E08A258B268C278D2890FBB719
:103C2000782512111890FBB7782512110978251202
:103C3000093190FBAF78251211188E828F83E060D6
:103C400003023A36852182852283E06003023A36F8
:103C500090FBE3782512110990FB251238FB7402C2
:103C600078211211EDE5212525FAE5223526FB9074
:103C7000FBAF7825121109EAC39525F521EB9526AE
:103C8000F522740278211211CEE52190FA1BF0E59D
:103C9000236022123F5764F0701B90FBAF7825120F
:103CA000110990FBE378251210DDAA25AB26AC277D
:103CB000AD28124BD4123F7C7005123F66600302A0
:103CC0003A3690FBA7782912110990F94778251206
:103CD000110978297925120BE890F93F782D1211F6
:103CE0000975310075320075338075343F90F943A2
:103CF0007835121109852925852A26852B27852CBB
:103D00002878257929120A6878357925120A687881
:103D1000317935120BE8782D7931120A6890FBA3BE
:103D2000782D12111890FBA7782512110990FC5CD0
:103D3000782912110978257929120C0D90FBA778A2
:103D40002512111890FB4F782512110990FBA378CA
:103D50002912110978257929120A6890FB4F7825D4
:103D600012111875290085298285822785272B75D0
:103D70002C007402782B1211ED852B25852C2690B2
:103D8000FB4F782D121109E52524ACF582E5263488
:103D9000FAF583783112110978311208B9782D7942
:103DA00031120A6890FBB3782D1211188E828F831E
:103DB000E06003023A36852182852283E0600302B7
:103DC0003A3674086529600C740765296006740228
:103DD0006529702690FBB3782D1211097AD47BF9EE
:103DE0001239BB8A318B328C338D34782D79311274
:103DF0000A6890FBB3782D121118E52524BBF8E56D
:103E00002634FBF988258926E527241BF582E4342E
:103E1000FCF583E0F52774FF6527701490FBB378F9
:103E20002D1211098525828983782D12111880564B
:103E3000752800740378271211EDE527244BF8E567
:103E40002834F9F990FB4D1243F990FBB3782D1209
:103E50001109AA2DAB2EAC2FAD3012192C8A2D8B47
:103E60002E8C2F8D30852582852683782D12111872
:103E70008E828F83E06003023A3685218285228319
:103E8000E06003023A360529E529C394095003028C
:103E90003D6690FBBB7825121109AA25AB26AC27FD
:103EA000AD28124D7990FAD01227A490FBBF782547
:103EB000121109AA25AB26AC27AD28124D7990FA2C
:103EC000D2122B647005122B476003023A3690FB26
:103ED000CF7825121109AA25AB26AC27AD28124DA3
:103EE0007990FAD61227A490FBDB7825121109AA43
:103EF00025AB26AC27AD28124D3090FADA1227A454
:103F000090FBD77825121109AA25AB26AC27AD283E
:103F1000124D3090FADC1227A490FBC378251211C1
:103F200009AA25AB26AC27AD28124D3090FAD41241
:103F30002B647097122B476003023A36E524600326
:103F4000121B1F7F180212A1EA2404FAEB3400FBB3
:103F500022F08E828F8322123F5B2290FC10E0249D
:103F60003A1239A2E02290FB21E0240208A3E034B7
:103F700000F9882189228882F583E02290FB21E0E4
:103F800024011227378E828F83E02274F6121242A8
:103F90008A237C237DF98982858221752200E92488
:103FA00023FEE434F9FFE912132307101505412E0F
:103FB00030A7423D465243494E52434F516E4355FE
:103FC000567C435758C6432801A843044240058BFA
:103FD000400B4F410C49410D31430E3D4316EC401F
:103FE00017F2401A13411C55411D95431F7B412078
:103FF000994121754123EE4125F9412805422918AF
:10400000422A3B422B11422C83422D944231B24230
:1040100033CA4235D54236E94238F5423995413AFC
:104020001E433B31425258435CCC435DAD435EB3CB
:10403000435FB94360A34361BF43649E4371D14171
:10404000D843EAC3940240030243D8EA6038D293CB
:10405000122B28A3A3E4F0A3F090FB10E0701290C1
:10406000FB23E024141244037002A3E07003024314
:10407000D81218F6E490FB101238892414122AF092
:10408000E4F0A30243D7C2930243D8EAC3940240A8
:10409000030243D8740165237025122AE7E490FBDC
:1040A00020F090FC0E7432122BA990F9A3E070025C
:1040B000A3E06008740190FC0DF08006E480F7EA4C
:1040C0006011741855907017D2931218F612443A72
:1040D0000243D7C29490FC08E090FFFD0243D7A2B0
:1040E0009450030243D81218F60243D88523CD0218
:1040F00043D8EA90FB07F01226E8E490FB76F090B4
:10410000FB770243D7EE24F6F582EF34FFF583EA1E
:104110000243D7EA90F9C7F0F912158890F9E5E063
:10412000A2E6402590F9C7E090DF06F01218509003
:10413000FBFA742CF0A37401F090FC00742CF0A333
:104140007401F075E1041217DF1244240243D812FF
:1041500015130243D8A293E492E090F9DCF0A29404
:10416000E492E090F9DDF0E5CD90F9DEF090FB0708
:10417000E090F9DFF01244600243D812442474FF47
:1041800090F926F090F925123889241A12185A123B
:10419000441E0240807C007D5C90FB03E0600302D3
:1041A00043D890FA15E07002A3E07018ECF8EDF92E
:1041B00090FA151243F975F00A90FC06E0A490FB02
:1041C000030243D790FC06E0C0E0EAF5F0D0E080BF
:1041D000ECEA90FB03F090FA157482F0A374FBF004
:1041E00090FB03E060030243D874010243D7EA90D6
:1041F000F9E0F090DF2E0243D790F9E5EAA2E0E083
:1042000092E10243D790F9E5EAA2E0E092E40243AA
:10421000D7EA90F9E30243D790F9E5EAA2E0E09209
:10422000E5F0EA60030243D890FAFF1217D902437F
:10423000D890F9FEEAA2E0E092E1F0742A69700AEF
:1042400090F9E5EAA2E0E092E6F090F9E5E0A2E676
:10425000501D12441190FBFAE4F0A312443190FA7D
:10426000FFF0F912179090FB23E0241002407D909C
:10427000FBFCE4F0A3F012444D90F9C7E090FAFF84
:104280000243D7EA90F9E41243DD40030243D89099
:10429000F9C78097EA90FBF7F0A2E07583F9758281
:1042A000E5E092E70243D7EE2495F582EF34000271
:1042B000410DE490F9C7F074FF90F926F090F925CC
:1042C000F090F9271243E5124460122BAF7478F096
:1042D000A3E40243D7EA90F9FD1243DD4003024311
:1042E000D8EA90FAFFF002422890F9FEEAA2E0E054
:1042F00092E00243D779107C297DFB7A837BF91207
:104300004CBB79107C397DFB7A937BF9124CBB79DD
:10431000207A297BFB124C981218390243D8EA60A4
:104320000CC394205007EA90FC060243D774048023
:10433000F690F9FEEAA2E0E092E30243D7740E6938
:1043400070047AB77BF979047C9B7DFB124CBB022D
:1043500043D8EE24A10242AAEA700774FF90FC073A
:10436000800990FC07E064FF6004EA124779EE24BC
:104370004DF582EF3400F583E523805B79047C1AE8
:104380007DFB740278211211EDE5212478FAE522F3
:1043900034F8FB80B790F9FEEAA2E00242A1EA906D
:1043A000FC60F01217DF803090F9E58087EA90F921
:1043B000C48024EA90F9C5801EEA90F9C6801812DC
:1043C0004407EA0242CFEE24410242AA7401652367
:1043D0007006740190FB13F07F030212A1F090F9B4
:1043E000E5E0A2E622F0A3F0740290F9E1F0740196
:1043F00090F9E2F0228A828B831243FD22E8F0A337
:10440000E9F022123F612290FC10E0245B12399EF9
:104410002290F9ED122F4F90FBFC1243FD22122B3C
:1044200017A3A32290F92DE0F5BC90F92EE0F5BC7E
:1044300022F01238EE90F9FDE02290FB231244485E
:10444000A374D0F0A3740722122B33A32290F9EBAC
:10445000122F4F90FBFA1243FD1238BB1243FD227C
:10446000C082C08343C6400043C6400043C64000EC
:1044700043C6400043C6400043C6400043C6400018
:1044800043C6400043C6400090FB0CE07005124A52
:10449000E0806390F53BE064AA6003124BC5C2AFB5
:1044A00043C6400043C6400043C6400043C64000E8
:1044B00043C6400043C6400090FB0CE07003124B23
:1044C000C575AD2E75AB2175AE010075AD00D2AFCF
:1044D000793212212C79F27C007D5C7A237BF912EF
:1044E00014BF791612212C1239B390FB0CF075C64B
:1044F00089000000000000021B1A74F6121242EA42
:10450000FEEBFF7521237522F9E9C333FAE433FB8F
:10451000EA2423FCEB34F9FDEE540FF523EFFBE422
:10452000CBFAE912132302040ACE451317FD450CFA
:10453000015645026045036D450DA3450EBF45106C
:10454000DB4511F7451816461953461A7C451B9949
:10455000451C9E455F4690F927EEF0A3EF02465EAC
:10456000E52390F925F0EA90F92602465EEE90F9EF
:10457000E1F0EA90F9E212466202465E90F9A3EE9B
:10458000F0A3EFF090F9A3E07002A3E060087401DB
:1045900090FC0D02465EE480F790F9A580BB90F98F
:1045A000A780B6791812212C743F6E700374086FBF
:1045B000700302465F8E828F8312124002465FEEC6
:1045C00090DF01F0EA90DF00F090F9BD808BEC24E1
:1045D000C0F582ED3400F58302455990FA15E0707C
:1045E00002A3E0707AC3EF94044074C3EF940850C0
:1045F0006E90FA1502455990FA0B024559EC246069
:10460000F582ED3400F583EEF0A3EFF0E490FB7655
:10461000F090FB77804874F05FF9E47001E9600581
:104620008B2175225C740F5A75F018A4F8A9F0E577
:104630002128F8E52239F990FA151243F9EEC4540D
:104640000F90FC06F0C0E0E523F5F0D0E0A490FB6D
:1046500003800BEA2423F582E434F9F583EEF002BB
:1046600043D8F090F9E1E090DF052274ED12124298
:104670008923EAFEEBFF752100752200752400896D
:1046800025752600740278251211EDE5252423FAFC
:10469000E52634F9FB8E828F837825121109E91201
:1046A0001323040104B9460506E2460A17EC46192D
:1046B0001A5047011835475A47EA2408F521EB34C8
:1046C00000F52274046523600302475A7825120915
:1046D0003174142525F8E43526F990F9E91243F9E7
:1046E0008078EA249DF521EB3400806C740E6523FC
:1046F000700C79047A497BFB124C9875240174F68E
:104700002523F523C313F521740378211211EDE558
:1047100023A2E0E492E0F5257526007402782512C4
:1047200011EDE525244BF8E434F9F9E52128F521CC
:10473000E522398023752900752A00752B80752C98
:104740003F78297925120E2490FA1778291211182A
:10475000EA24BCF521EB34FFF522E5217002E522C5
:10476000600D7904EEFCEFFDAA21AB22124CBBE5F3
:1047700024600312477A0216F2F090FB06E012471B
:104780008222F912166AE9F5CF2274F312124289D5
:10479000257E087FF8752301752400802DE0F52122
:1047A000A30EAF837906EEFCEFFD7A297BF9124C5C
:1047B000F0E9700E740F552690F925F0E52190F977
:1047C00026F0EE2406FEEF3400FF8E828F83E0FA9F
:1047D00070030249FCAB2574FF2BF525EB70030237
:1047E00049FC8A26A3AE82AF8374F05526F5217466
:1047F000F0652160A890FBF7E064027003124AD2D2
:104800008E828F83122F4B90FBDF1243F9EE24022E
:104810000E0EEF3400FFEE2402EF3400F97403555E
:1048200026F5221212ED00039E48324837485348BD
:104830007B487523018067122AF490F927E06A709B
:1048400003A3E06B70047A0180027A008A230E0EC3
:10485000E9804A8E828F83E0FA90F926E06A70122E
:104860008E828F83A3E0FA90F925E06A70047A01C2
:1048700080027A008A2385232480D37906EEFCEF18
:10488000FD7A297BF9124CF0E970047A0180027AF2
:10489000008A23852324EE2406FEEF3400FF90FBDC
:1048A000DFE07002A3E0603590FAF7C3E09401A363
:1048B000E094FF4017C390FBE0E09401500E90FBA2
:1048C000DF122F4B90FAF71243F98011E5236009AC
:1048D000124AEE50047A0180027A008A23124AEECC
:1048E000500690FAF71243F98E828F83A3A882A90B
:1048F00083E5211213230006102C4920AD49500CEA
:104900004970BC4980BC4990014ACA47E5237003FD
:104910000247C27403652260030247C27906EEFCB7
:10492000EFFD7A297BF9124CBB0247C290FBF7E0FE
:10493000FA90F9E5E0A2E7E492E06A601090FBF7F4
:10494000E0A2E07583F97582E5E092E7F08E828F50
:1049500083E0F521E8FEE9FF740C552612132300CD
:1049600003006C49047F49089949CA47E523600957
:10497000EEFAEFFBA92112466BEE24040247C5E5CF
:1049800023600B8E828F83E0FAA921123F8B8E82E7
:104990008F83A30EAF830247CAE5236008122AF46F
:1049A000A9211244FAEE24020E0E0247C6E5237036
:1049B000030247CA791812212C124BC5E524603C2A
:1049C0007AE07B0312183D7AF07B03790612183FD8
:1049D0007480652170087521397522FB8006752168
:1049E000297522FB78211212DCEEFCEFFD7A10799A
:1049F000021213AE740212120F1218397F0602123D
:104A0000A1EE2407F521EF3400F522E524602E43C2
:104A1000C6400043C6400043C6400043C640004372
:104A2000C6400043C6400043C6400043C640004362
:104A3000C6400090FB0CE0700B124AE000AE21AFC4
:104A4000220247CA8E828F83E0F526E8FEE9FF8EB8
:104A5000828F83E0A30EAF8390F9FDF090F9C71227
:104A60003F51E090F9E1124AC790F9E2124AC7902B
:104A7000F926123F51A3122F4B90F9271243F974D4
:104A80000F552690F925F090F9E5E526A2E4E0928D
:104A9000E2F090F9FEE526A2E5E092E4F0E526A238
:104AA000E6E092E1F079047C1A7DFB7AB77BF9129B
:104AB0004CBB124460AE21AF2290F9C7E0F9121549
:104AC000881217D90247CAF08E828F83A30EAF8354
:104AD000E02290F9E5E0A2E7E492E090FBF7F02213
:104AE0007414F090FAF71221DEF075C6892290FB5B
:104AF000DF122F4F7583FA7582F7124AFE22C3E048
:104B000098A3E0992274F8121242E9FE79147C66A7
:104B10007DFC7A0C7BDF124CBB90FBEF124BBE90FE
:104B2000FBF17430124BC090FBF3743C124BC090FD
:104B3000FBF5124BBE90FBE1744A124BC0740A9015
:104B4000DF07F0EEC3940D404D79067C607DFC7A62
:104B50000C7BDF124CBB7410F090FBE17448124BDD
:104B6000C079037C7D7DFC7A237BDF124CBB790806
:104B70007C807DFC7A157BDF124CBB74196E702330
:104B8000740A90DF07F074A990DF1CF090F9C6E07A
:104B900090DF0CF0800D79037C7A7DFC7A237BDF3B
:104BA000124CBB79037A2F7BDF124C9879037C88F7
:104BB0007DFC7A027BDF124CBB7F010212A1745094
:104BC000F0A3E4F022C082C08375C90B748090FF0B
:104BD000FFF080F574F512124274FC1212008A2163
:104BE0008B228C238D24C2AF90DF0BE08541828520
:104BF0004283F090DF0AE0C0E07401121236D0E088
:104C0000F090DF09E0C0E07402121236D0E0F085C7
:104C1000418285428378211210CA85418285428370
:104C2000E090DF0BF07401121236E090DF0AF074AE
:104C300002121236E090DF09F090FBE378211210A7
:104C4000CAE490DF08F0D2AF740412120F7F04029E
:104C500012A174F31212428035740369602F740933
:104C600069602AEA240CF582EB3400F5837821127E
:104C700011098925752600740278251211EDEA259F
:104C800025F582EB3526F58378211210F509E9C365
:104C90009C40C67F060212A1C082C083C3EA940171
:104CA000EB94804011800BE48A828B83F0A3AA826C
:104CB000AB83E91970F1D083D0822274F8121242CA
:104CC000C3EA9401EB94804022801C8C828D83E0A7
:104CD0008A828B83F08C828D83A3AC82AD838A829F
:104CE0008B83A3AA82AB83E91970E07F010212A132
:104CF00074F6121242E91960308A218B22852182D2
:104D0000852283A3AA82AB83ECFEEDFF8E828F8384
:104D1000A3AC82AD83852182852283E0F88E828FC9
:104D200083E06860D07901800279007F030212A1DC
:104D300074F11212428A218B228C238D2478211245
:104D4000093190FC8B7825121109782579211208F8
:104D50009440067AFF7B7F801B90FC8F7825121190
:104D6000097825792112089450067A017B80800405
:104D7000AA21AB227F080212A174F11212428A21E9
:104D80008B228C238D24782112093190FC93782575
:104D90001211097825792112089440067AFF7BFFC9
:104DA000801B90FC5478251211097825792112086E
:104DB0009450067A007B008004AA21AB2280B56D56
:104DC0004EC64139300000500030003C0050000217
:104DD00090067800DC0014001E000800500004FF5C
:104DE000E77E01A8FD01320000F5B1B2B3BCB7B057
:104DF000B5B4B6000102FFFF03FF0605414E445360
:104E0000006C617241756775737400074175677551
:104E1000737400074175677573740007646AAA01AB
:104E2000013200010000803F00007A4400000000D1
:104E30000000C8420000C8C10E55734359007907ED
:104E400001235945070014166C4340915610A90AD6
:104E500000118135098831091D1CC740B2B610EA1E
:104E6000228545008000000180FFFF00000100AAAC
:104E7000AA0000FFFF2C764002274471AA35BAD35E
:104E8000BC633D91ED1C3F000048C300001C4595EC
:104E9000BFD634000092429A99934100C00FC50AD0
:104EA000D78541000000006666EE40000009C43D61
:104EB0000A8541000070C252B8DE3E00401C4452D8
:104EC000BBEE4000800BC41F85F3400080FFC34150
:104ED0004E4453006C6172417567757374000741ED
:104EE0007567757374000741756775737400070003
:104EF00000BC02500006FF3582C8003B8F2800012D
:104F0000020300FFFFFFFFFFFFF0F0000000AAFF19
:104F100078804DFFCB486654CB486654CB486654E6
:104F2000ACC5A73717B7513801015AC8FF0201FFB6
:104F3000FF1701A49A38FF28001E00030004000890
:104F40000050003F08F11FF11FFF89FFFF19466E57
:104F5000645A0A070B3C0A18FC0A140100000055A9
:104F600055FFFFFFFFFFFFFFFFFFFFFFFFFFFFFFFB
:1058000043C6490043C6490043C6490043C6490050
:1058100043C6490043C6490043C6490043C6490040
:1058200043C6490043C6490043C6490043C6490030
:1058300043C6490043C6490043C6490043C6490020
:105BE00043C64900FFFFFFFFFFFFFFFFFFFFFFFF6F
:105BF000020000FFFFFFFFFFFFFFFFFFFFFF47B9AE
