:020000040000FA
:0300000002010AF0
:03003300021EDCCE
:03006B00021F4031
:10008300021A0200000080FB120119B900030201E9
:1000930004E479217823B800028004F709D8FCE44A
:1000A30090F201787579038002F0A3D8FCD9FA9015
:1000B300F475AA82AB839036CD789F79018015E4DD
:1000C30093A3AC82AD838A828B83F0A3AA82AB8392
:1000D3008C828D83D8E9D9E790F1FFAA82AB839014
:1000E30036CD780179018015E493A3AC82AD838A80
:1000F300828B83F0A3AA82AB838C828D83D8E9D9C8
:10010300E71216C412008675D0007581C07510FF02
:100113007511F102008B7901221201100102000016
:1001230020A0113202777701020301090243000282
:1001330001008019090400000102020100052400E6
:100143000110042402020524060001052401000114
:100153000705820340004009040100020A00000071
:1001630007058402800001070504028000010403DF
:100173000904140341004E004400200053004F00C3
:100183004C00410052001003470041005400450059
:10019300570041005900160330003100320033008C
:1001A30034003500360037003800390037010000CD
:1001B3005A010000E066701008A3E066700A08A305
:1001C300E066700408A3E06622E493667013087483
:1001D300019366700C0874029366700508740393A8
:1001E3006622C3E7960809E7960809E7960809E730
:1001F30096A2D265D03322C3E09608A3E09608A363
:10020300E09608A3E09622C3E493960874019396BC
:100213000874029396087403939622BB0102E722A3
:10022300C082C08389828A83BB0003E08002E49397
:10023300D083D08222BB000EC082C0838A8389828E
:10024300F0D083D08222BB0101F722080808E630F0
:10025300E711120A8A120266080808C64480C61803
:10026300181822181818E9799EC608CAC608CBC6FA
:1002730008CCC6C370207996CACBCC7019798ECBC3
:10028300CC70137986CC700EF9802ACA33CACB336B
:10029300CBCC33CC331930E7F2CCCBCA3350147008
:1002A30004EA30E00DE4CA3ACACB3BCBCC3CCC5099
:1002B3000209C3E913C6CC182313C6CB18C6CA1840
:1002C300C6F92212030620F01430E72B74FFFCFB5F
:1002D300FA747F8022E4FCFBFA7480801AB48008ED
:1002E300BC00F2BB00EF800F50EBF9E4C39AFAE4D1
:1002F3009BFBE49CFCE499C6CC18C6CB18C6CA1871
:10030300C6F922E4C9C608CAC608CBC6D333030854
:10031300CCC63392F0C3947F402E94184019C9B9C8
:100323000704CACBCC225025C309CA33CACB33CB6B
:10033300CC33CC33D9F422F4600DC9CCC313CB1323
:10034300CBCA13CAD9F6CC22E4FCFBFA2214FCFB79
:10035300FA22E6C33318461846184622E7C3331970
:10036300471947194722181818E6084608700AE67D
:1003730008C3337005E633F4220822191919E70973
:100383004709700AE709C3337005E733F4220922EA
:10039300E6084608C3134608336002E633F422E74F
:1003A300094709C3134709336002E733F4221203F1
:1003B3009360251203A26020120355700302035FAA
:1003C300080808E76670101819E766700A1819E735
:1003D3006670041819E76622F422120393601C1254
:1003E30003A26017120355700712035F7001D32233
:1003F300C0D012035F7006D0D0B322C32233D0D053
:10040300501430E0F6C3E7960809E7960809E79623
:100413000809E796B32220E0D5E6970809E697088E
:1004230009E6970809E697B322120393601B1203A8
:10043300A26016120355700712035F600CB322C04B
:10044300D012035F7005D0D022C32233D0D0501313
:1004530030E0EBC3E7960809E7960809E796080931
:10046300E7962220E0E4E6970809E6970809E6976D
:100473000809E6972200120393604F1203A2601249
:10048300E7548066F6120369701112035F703B092B
:100493000909F4F618F618F618F62212037E7015F9
:1004A30012035508080860EAE6447FF618768018B8
:1004B300E4F618F622120355601612035F7012E475
:1004C300F608F608F608E65480F60909091818181C
:1004D30022EAC0E0EBC0E0ECC0E0EDC0E0E687F06C
:1004E300A4FBACF008E687F0A42CFCE435F0FA1882
:1004F30009E687F0A42C4B60027401CA35F0FCE4D2
:1005030033FB09E687F0D2F7A42CCB35F0FC1908AE
:10051300E687F0A42BCC35F0FBE433FD0819E6871E
:10052300F0D2E7A42C4ACB35F0CD3400FC09E687A2
:10053300F0D2E7A42DCC35F0FDE433FA0918E687B1
:10054300F0D2F7A42CCD35F0CA3400FC08E687F0CE
:10055300D2E7D2F7A42ACC35F07A7E20E70B0ACB78
:1005630033CBCD33CDCC33CC33CB3350147004EDFC
:1005730030E00ED2F1E4CD3DCDCC3CCC3B5005DA9E
:1005830005C2F1EB547FC63308E63392F0FBE73341
:1005930009E733C39A502D2B70190C0D4C4D701570
:1005A3001806E608C333700D20F10AA2F013F6E42F
:1005B30018800B4024E4F630F002768018F618F623
:1005C30018F68024D33B14501074FFA2F013F618CE
:1005D3007680E418F618F6800FA2F013F618E633C7
:1005E30003F618ECF618EDF6D0E0FDD0E0FCD0E011
:1005F300FBD0E0FA221203A26046120393603DE9A6
:10060300687008F618F618F618F622748067F71261
:10061300062C090909748067F722120393601D12DF
:1006230003A27005191919801A120369701F1203A6
:100633007EC37003E6673319191940071818182287
:1006430008080874FFF618F618F618F62212037E47
:10065300601712035F702192F0120355701950173F
:1006630020F014080808090909E7F61819E7F6182D
:1006730019E7F61819E7F62212035560E6E86970E0
:100683001F0808E62480F608E436F618547FB47F82
:100693000CE654806007F6E418F618F622181822C0
:1006A300E9C6CC08C6CD08C6CE08C6CFC0E0E8C0B0
:1006B300E0EAC0E0EBC0E009E9F809E7FA09E7FB83
:1006C300E6F918E6F8C3EC98ED99EE9AEBC2E7F574
:1006D300F0EFC2E795F0500E600CEBCFFBEACEFAD9
:1006E300E9CDF9E8CCF8EAA2E7D2E7FAEB33FB135A
:1006F300F5F0EEA2E7D2E7FEEF33FFC5F013A2E772
:1007030030E601B313C5F0C3C0E0C0F07F00C39B64
:10071300FB605B9418600C401AD0E023F9D0E0F83A
:100723000207FB8AF0E9486003D2F0E4AFF0FAF97C
:10073300F8803BEB30E40D89F0EA6003D2F0E4AFDC
:10074300F0F9CAF8EB30E30D88F0EF6002D2F0AFB6
:10075300F0E4CAC9F8EB54076014FBC3EA13FAE9DF
:1007630013F9E813F8EF135002D2E0FFDBEDD0E00A
:10077300C0E030E739C3E49FFFF5F0EC98FC42F0AA
:10078300ED99FD42F0EE9AFE42F0D0E0F9D0E0F8A8
:10079300E5F0607AE923F9EE20E742D8028067C3E7
:1007A300EF33FFEC33FCED33FDEE33FE80EAEC2850
:1007B300FCED39FDEE3AFED0E023F9D0E0F840023B
:1007C300801BC3EE13FEED13FDEC13FCEF1350027D
:1007D300D2E0FF08B800067F7F74FF802EEF33500E
:1007E300178CF020F00260100CBC000C0DBD00084B
:1007F3000EBE000408E860DFE933E813FFEE2313BD
:10080300FE4F4D4C8008E95480FFE4FEFDFCEE33BF
:10081300EF33F47004FCFD7E80D0E0FBD0E0FAD02F
:10082300E0F8D0E0CFC618CEC618CDC618CCC6F9AE
:10083300221203937004181818221203A2700D7465
:10084300FFF61819F61819F61819F622E7548066F8
:10085300F6120355700F12035F70F014F608F608D2
:10086300F608F680D112035F700CF608F60876805E
:1008730008E6447F80EC120381700C12036C60BFA6
:10088300E65480F6E480BB12036C700519191980D5
:10089300A5E869700C763F18768018F618F6E8F923
:1008A30022E6CDC0E018ECC0E0E633CD33CDD31360
:1008B300F6E719FCE7191933CC33C3947F400ECD07
:1008C3009D502408E65480F6E418F6800FF4043DA6
:1008D30014501408E6447FF6187680E418F618F6E8
:1008E300D0E0FCD0E0FD22CCD313CCFD18E4C6CB82
:1008F300C0E018E4C6CAC0E00808ED08C633E61332
:10090300F618E433C675F003C3CA97CA09CB97CB6D
:10091300199C40047D08802EBD00030209DD16B634
:10092300FF050606081618C3CA33CACB33CB33CA2E
:1009330027CA09CB37CB193CC37D08803E187D08F5
:1009430020E75CC633C6CA33CACB33CB33DDF1D51C
:10095300F0EB30E77BCA97CA09CB974ACB199C4087
:100963006F4B7025E620E0218066187D08C3CA9787
:10097300CA09CB97CB199CD3C633C6CA33CACB3368
:10098300CB3350C9DDE7D5F0E1D3E4C636C608C69C
:1009930036C608C636C608C636C61818188031C308
:1009A300CA97CA09CB97CB199CB34097C633C6CA1B
:1009B30033CACB33CB33DD34D5F02EC6A2E0C640E9
:1009C300C8CA27CA09CB37194A70BECB3CB480B911
:1009D3000808E63308E633601F181818D0E0FAD089
:1009E300E0FBD0E0FCD0E0FD22187D08CA27CA094D
:1009F300CB37CB193CD3808013F618E4B67F11F6BE
:100A030018B6FF0EF618C60470D20808768080CA9E
:100A1300F618F618F680C5E4CFC0E0E4CEC0E0E4F3
:100A2300CDC0E0E4CCC0E075F020C3E633F608E6C1
:100A330033F608E633F608E633F6181818EC33FCF9
:100A4300ED33FDEE33FEEF33FFC3EC9709ED97096A
:100A5300EE9709EF97191919400FFFEC97FC09ED71
:100A630097FD09EE97FE191906D5F0BEECF709EDCF
:100A7300F709EEF709EFF7191919D0E0FCD0E0FDFB
:100A8300D0E0FED0E0FF22181818E4C396F608E47D
:100A930096F608E496F608E496F622601608080827
:100AA300C6C313C618C613C618C613C618C613C6BC
:100AB300D5E0EA227009080808226016181818C63B
:100AC300C333C608C633C608C633C608C633C6D53D
:100AD300E0EA22E627F60809E637F60809E637F6DC
:100AE3000809E637F622E026F608A3E036F608A35F
:100AF300E036F608A3E036F622E026F008A3E03657
:100B0300F008A3E036F008A3E036F022E647F60843
:100B130009E647F60809E647F60809E647F622E03C
:100B2300F608A3E0F608A3E0F608A3E0F622E6F051
:100B330008A3E6F008A3E6F008A3E6F022CAC0E0A3
:100B4300E6F0A308DAFAD0E0FA22CAC0E0E0A3C5CF
:100B530082CCC582C583CDC583F0A3C582CCC582B3
:100B6300C583CDC583DAE6D0E0CA22C3E498F8E4AE
:100B730099F9120BAF8026C3E49AFAE49BFBE920B0
:100B8300E7E9120BAFE498F8E499F922C3E498F883
:100B9300E499F9120BAFE498F8E499F9C3E49AFAEB
:100BA300E49BFB22EB20E7CFE920E7E0B90010BB91
:100BB3000008E88AF084F8AAF022E4FBC8FA22EBE2
:100BC30070227B10C833C8C933C9335007C39AC3D3
:100BD300DBF280069A50012ADBEAC833F4C8C93332
:100BE300F4C9FA2275F008E4C833C8C933C933C954
:100BF3009AC99B5004C92AC93BD5F0ECFBC833F40E
:100C0300C8E4C9FA22600C08C6C313C618C613C6C3
:100C1300D5E0F422700422600D18C6C333C608C69B
:100C230033C6D5E0F418222510C0A8C2AF40021580
:100C330011F510D0A822C0D02510C0A8C2AF500211
:100C43000511F510D0A8D0D0222510F582C0A8C276
:100C5300AF40021511F510D0A8851183222510F598
:100C630082E43511F58322E4732510C582C0E0E5E3
:100C73001134FFC583C0E0E510C3958224F9C0A8F1
:100C8300C2AF858311858210D0A8CEF0A3E520F0F2
:100C9300A37808E608F0A3DEFAEFF0A3E58124FBCE
:100CA300F8E608F0A3E608F0A30808E608F0A3E6D0
:100CB30008F0A315811581D0E0FED0E0F815811569
:100CC30081E8C0E0EEC0E022851183851082E0A3B5
:100CD300FEE0A3F5207808E0A3F608DFFAE0A3FF1F
:100CE300E0A3C0E0E0A3C0E0E0A3C0E0E0A3C0E075
:100CF30085A8F0C2AF85821085831185F0A8D083C3
:100D0300D08222C0D02510C582C0E0E51134FFC5D2
:100D130083C0E0E510C3958224F3C0A8C2AF8583E6
:100D230011858210D0A8C8F0A3E9F0A3EAF0A3EBE1
:100D3300F0A37908E709F0A3D8FAECF0A3EDF0A348
:100D4300EEF0A3EFF0A3D0E0F0A3D0E0F0A3D0E067
:100D5300F0A3E520F0A3E5F0F0A32285118385102D
:100D630082E0C0E0A3E0F9A3E0FAA3E0FBA37808E4
:100D7300E0F608A3DFFAE0FCA3E0FDA3E0FEA3E0B6
:100D8300FFA3E0C0E0A3E0C0E0A3E0F5D0A3E0F55B
:100D930020A3E0A3F5F0E5A8C2AF858210858311F7
:100DA300F5A8D082D083D0E0F8D0E0327404800A72
:100DB30074038006740280027401C0E0F404120C10
:100DC3004CD0E0120B402274048008740380047436
:100DD300028000CCC0E0EDC0E0E510C39CCCAD11B7
:100DE30050011DC0A8C2AF8C108D11D0A8120B4D9D
:100DF300D0E0FDD0E0FC22D083D082C5F0E493A301
:100E0300C5F0C395F0F5F0E493A3C395F04005E571
:100E1300F0048001E475F002A42582F582E5F03543
:100E230083F583E493A3C0E0E493C0E022D083D0AE
:100E330082CCC0E0E493A36006120E5A1470FAE465
:100E430093A36006120E791470FAD0E0FCE493A326
:100E5300C0E0E493C0E022C0E0E493A3D39C50102D
:100E6300E493A3C39C400AD0E0D0E0D0E0020E4D4F
:100E7300A3A3A3D0E022C0E0E493A36C7009D0E065
:100E8300D0E0D0E0020E4DA3A3D0E022D083D082E5
:100E9300ECC0E0EDC0E0EEC0E0EFC0E0E493A3FC03
:100EA300E493A3FDE493A3FEE493A3FFEF4E4D4C21
:100EB3006015120F0BEC24FFFCED34FFFDEE34FF45
:100EC300FEEF34FFFF80E5E493A3FCE493A3FDE48A
:100ED30093A3FEE493A3FFEF4E4D4C6015120F480E
:100EE300EC24FFFCED34FFFDEE34FFFEEF34FFFF97
:100EF30080E5D0E0FFD0E0FED0E0FDD0E0FCE4935D
:100F0300A3C0E0E493C0E022C0E0C0F088F0120286
:100F13000AA8F040071201CCA8F0701AA3A3A3A358
:100F230012020AA8F0A3A3A3A34013D0F0D0E0D0E9
:100F3300E0D0E0020EF5A3A3A3A3A3A3A3A3A3A3BB
:100F4300D0F0D0E022C0E0C0F088F01201CCA8F0CD
:100F5300A3A3A3A3700BD0F0D0E0D0E0D0E0020EA7
:100F6300F5A3A3D0F0D0E02274F7120C6C7C017DC2
:100F7300F27E008E82AA82EA75F005A4F8A9F02415
:100F830041F582E934F3F583E4F0E82442F582E99C
:100F930034F3F583E4F0E82443F582E934F3F5838D
:100FA300E4F0E82444F582E934F3F583ECF0A3EDAF
:100FB300F0EA121027F508EAC333FAE433FBEA2414
:100FC3006DF582EB121096AAF08508F0E9A42AF9D0
:100FD300EC28FCED39FD0EEEC3940240967F02022D
:100FE3000CCBC082C083E9120FF3F9D083D08222E5
:100FF30075F005A42443F582E5F034F3F583E0228C
:1010030074F7120C6C121060C0E0121026FCD0E0D2
:10101300C39C40067A007B0080078A828B83121070
:101023006B80BAE8246BF582E43437F583E49322CA
:1010330074F8120C6C1210DA121026FE8C828D8357
:10104300E0C39E50138A828B83E004F06E7002E447
:10105300F08C828D83E004F07F01020CCB1210E64A
:101063008A828B83A3A3E022E0F508E8C333F8E484
:1010730033F9E8246DF582E9121096ACF08508F097
:10108300E9A42CF98A828B83A3A3A3E028FAA3E023
:1010930039FB223437F583E493F8740193F9E88537
:1010A30008F0A4F82274F8120C6C1210DA8C828DFA
:1010B30083E060208A828B83A3AA82AB83E004F05F
:1010C300FE1210266E7006E48A828B83F08C828D6A
:1010D30083E014F002105B1210E6EA2402FCEB3406
:1010E30000FD228982A882E875F005A42441FAE56F
:1010F300F034F3FB22E9600B43C640E5BEA2E550A2
:10110300FA800F53BEFBE5BEA2E650FA0053C68039
:10111300E5C643BE0422C082C08390F352E054F07C
:10112300F0741390F351F0741069702B74F390F30F
:101133004BF0745390F34CF074DF90F34DF074D98B
:1011430090F34EF0742090F34FF0743A90F350F014
:1011530090F3527440802E742069702A74DF90F3E8
:101163004BF074D990F34CF074F390F34DF0745347
:1011730090F34EF0748090F34FF0743C90F350F082
:1011830090F3527410F074F3F5D575D44BD083D02B
:10119300822274F1120C6C8A088B098C0A8D0B74F1
:1011A3000F120C60780C120B2274FE90DF2EF07875
:1011B3000C120E8F000000000700000020ED240039
:1011C3001B1221ED24005212403B25000B12413B20
:1011D3002500481260892500FB1161892500391219
:1011E30081D725002B12EB11745F90DF09F0746235
:1011F30090DF0AF074768065745E90DF09F0749D69
:1012030090DF0AF074898055745D90DF09F074D81B
:1012130090DF0AF0749D8045745D90DF09F07413CC
:1012230090DF0AF074B18035746790DF09F074556C
:1012330090DF0AF08027746690DF09F0748090DFF6
:101243000AF0E48018746590DF09F074AA80E174F1
:101253006490DF09F074D590DF0AF0745590DF0BCA
:10126300F07808120E8F0000000005000000102720
:101273000000641390D00300481391D00300C612FA
:1012830020A10700181321A107009112E7121213DE
:10129300D9121409744390DF0FF0741190DF10F02A
:1012A300E490DF06F012142E740712141AE490DF90
:1012B3001EF0121405740990DF25F090F38F744823
:1012C3000213931213CD741D121409742390DF0FAC
:1012D300F0741112147D740990DF25F090F38F746C
:1012E3004702139374081213CF746890DF0CF074E1
:1012F300B590DF0DF0740390DF0EF0742390DF0FD1
:10130300F0741190DF10F074451213F47414121476
:1013130055740980721213D990DF0CF0743B90DF7F
:101323000DF0747790DF0EF0746290DF0FF074F8B5
:1013330090DF10F0E412142E74C712141A1214055D
:10134300740B0212BA1213CD742D90DF0CF0743BA0
:1013530090DF0DF074731213E712147D740B0212F5
:10136300DB74081213CF747890DF0CF0749390DF62
:101373000DF074031213E790DF10F074441213F4AA
:101383007404121455740B90DF25F090F38F744A94
:10139300F0A3E4F090DF06F0743090DF13F0740BE9
:1013A30090DF2FF0740690DF31F0740490DF03F0C8
:1013B300744590DF04F0E490DF05F0743990DF02A8
:1013C300F074FF90DF2EF00215B9740A90DF07F076
:1013D300E490DF08F022741090DF07F0E490DF0858
:1013E300F0740E2290DF0EF0742290DF0FF074F889
:1013F3002290DF11F0745690DF1AF0741090DF1B07
:10140300F0221214AE2290DF0CF0745590DF0DF031
:10141300747390DF0EF02290DF17F0744012149370
:1014230090DF1CF0740A90DF1DF022121432229018
:10143300DF11F074B690DF1AF0741090DF1BF074B4
:101443001490DF14F0741D90DF15F0741C90DF16F8
:10145300F02290DF14F0741690DF15F0746C90DFB7
:1014630016F0744390DF17F0744090DF18F0749116
:1014730090DF19F074A91214A02290DF10F0E41287
:10148300143274C790DF17F0E41214931214A022DD
:1014930090DF18F074B290DF19F074EA2290DF1C29
:1014A300F0740A90DF1DF01214AE22741190DF1F46
:1014B300F0748890DF23F0743190DF24F02274F10C
:1014C300120C6C90F353E0643960030215B590F38A
:1014D30054E0645A60030215B590F355E064A560C7
:1014E300030215B5E490F354F090F355F090F38EA6
:1014F300E0A2E7504EE4F01215BE8A088B098C0A6D
:101503008D0B90F3917808120B3190F475780812D3
:101513000B227583F375829178081201B77041909D
:10152300F4797808120B2290F4757808120AFC906B
:10153300F4797808120B2290F3997808120AFC794F
:1015430001807190F4797808120B2290F475780871
:10155300120AFC90F4797808120B2290F39580CA52
:1015630090F4797808120B227583F37582917808C9
:10157300120AE990F475780C120B227583F37582C5
:1015830091780C1201FA90F4757808120B31509F80
:1015930090F47D7808120B2290F3957808120B31A2
:1015A30090F4797808120B2290F3997808120B3192
:1015B300808D790080007F08020CCB74F1120C6CD3
:1015C30090F356E0F508750900750A00750B007471
:1015D300187808120AB790F357E0F50C750D0075EB
:1015E3000E00750F007410780C120AB77808790C86
:1015F300120B0F90F358E0F50C750E007408780C7D
:10160300120AB77808790C120B0F90F359E0F50C16
:10161300750D007808790C120B0FAA08AB09AC0AF8
:10162300AD0B809274F5120C6C74FC120C2AE9C396
:10163300940A400A7AFF7BFF7CFF7DFF803F750899
:10164300047509007808120DB78908740278081226
:101653000C17E508245AFCE50934F3FD7402120C57
:1016630060AA82AB8312359C7402120C39851082F6
:101673007808120B22AA08AB09AC0AAD0B7404124A
:101683000C397F04020CCB74F7120C6C8982A8828C
:101693007900C3E89480E49400C365D03340011912
:1016A3007A027B00120BA78808890990F38FE0F870
:1016B300A3E0F9E508C398FAE50999FB7F02020C58
:1016C300CB74DD120C2A1219C975C680E5BEA2E6D9
:1016D30050FA120F6B90F4B27808120B2290F3A811
:1016E3007808120B31740290F3ACF0E490F3ADF090
:1016F300740890F3AEF080087406F079001210338A
:1017030079001210038A828B83E5827002E583706D
:10171300E77900120FE5E9600779001210A880F15C
:10172300742090F3A0F079001210F890F4B6120D23
:10173300CA90F4BA7808120B22AA08AB09AC0AAD16
:101743000B1211957404120C397920121119439A52
:1017530001759110D2AF75E10179011225E975D6B2
:101763000175E102C2AF121B7F7AFF7BFF121E9A43
:10177300C2AF740490DE0EF0E490DE13F074FF90B9
:10178300DE10F090DE121219C28510828511837467
:10179300AFF0A374F3F0A3E4F002197D90DE17E039
:1017A30090DE16E0F8851082851183120DCEE8F9DC
:1017B3007A287BDE121E347403120C3990DE14E097
:1017C300A2E040D890F39FE0700302197D1219C97B
:1017D300E4F01214C1E96021740190F39DF0121931
:1017E300D5C3E098F0A3E099F090F38DE0F91216D9
:1017F3008A1219E1EAF0A3EBF075D60190DF38E025
:1018030090DF08F075E10290F39DE0700302197D0B
:101813001219D5E028F0A3E039F090F3A5E004F025
:1018230064027002E4F0E490F39DF07508B4F509E6
:101833007808120DB77C007D007AAF7BF31235E494
:101843007402120C3979091216278A088B098C0A3B
:101853008D0B79081219F67403120C60780C120BB5
:101863003179071219F67407120C60780C120B31D8
:1018730079061219F6740B120C60780C120B31797D
:10188300051219F6740F120C60780C120B317904DF
:101893001219F67413120C60780C120B31790312BF
:1018A30019F67417120C60780C120B3179021219A5
:1018B300F6741B120C60780C120B3179011219F6B5
:1018C300741F120C60780C120B3179001219F67820
:1018D30008120DAF7407120C60120DCA740F120CAC
:1018E30060120DCA7417120C60120DCA741F120C09
:1018F30060120DCA7427120C60120DCA742F120CD9
:1019030060120DCA7437120C60120DCA743F120CA8
:1019130060120DCA780C120DAF90F3A6E0F8A3E0A5
:10192300F97A027B00120BA7880889097808120D3F
:10193300B77C817DF47AAF7BF312363B742A120CA9
:1019430039C2AF740490DE0EF085108285118312C4
:101953000DCE7AAF7BF31236B1EAF97A287BDE1229
:101963001E5B7403120C391219BF790A1225E9C2DE
:10197300AF740490DE0EF01219BFA841E85404605E
:101983000F754100754200121BB7740190DE01F020
:10199300A841E854106009784174EF56F6121BCE43
:1019A300A841E8A2E040030217BF784174FE56F64F
:1019B300122562784174FD56F60217BF90DE11E0DE
:1019C300D2E0F0D2AF2253F4FD43FE02639002E56E
:1019D30090221219E1E0F8A3E0F990F3A62290F324
:1019E300A5E0C333F8E433F9E824A1F582E934F33D
:1019F300F583221216278A0C8B0D8C0E8D0F22C0B5
:101A0300E0C0D0C082C08353E9EF539BFCE59B90B9
:101A1300F3A0E064207007740190F39F80057401C4
:101A230090F39EF0D083D082D0D0D0E032E53AFA62
:101A330074226A601974206A7011E5277010753476
:101A4300A87535F3753600752702227527042274AD
:101A530021653A7013E52770127534A87535F3754F
:101A6300360075370775380075270122752704225C
:101A7300752704227527042275270422752704225B
:101A83007527042222222274F8120C6CE9FEEAFF65
:101A93007A007B008015852182852283E0FC18E68D
:101AA3002CFC08E63400FD8C218D2274AF65217077
:101AB3000474016522602F7821E62401F58208E68B
:101AC3003400F583E06E7017AA21AB228A828B83E0
:101AD300E0FCEA2CFCEB3400FD8C218D228007E036
:101AE3006F70B3EF60B07F01020CCB75211C7522C0
:101AF300017A007901121A8A2274F7120C6CE9FE3A
:101B0300EAFF75211C752201800D8A828B83A3A3B2
:101B1300A3A3A3E06E60147A007902121A8AEA7012
:101B230001EB6007EE70E3EF1F70EC7F02020CCB5A
:101B330074F7120C6CEAFEEBFF7A00121AFC7A02BD
:101B43007904121A8AEA7001EB60158A828B83A3E7
:101B5300A3E06E70E98A828B83A3A3A3E06F70DE98
:101B630080C974F7120C6CE9FE75211C7522017A89
:101B7300007903121A8AEE1E70F580AFC082C0830B
:101B83007A007901121AFC8A828B83A3A3A3A3A3ED
:101B9300A3A3E0A2E65004D2F08002C2F0A2F0E4D4
:101BA30092E0F533753200D29043FE0143BE80D0FC
:101BB30083D08222C082C083752302E490DE00F0CA
:101BC300F524F5277903121E1780E474F5120C6CC3
:101BD30090DE0EE0FFE4F090DE11E0FEA2E4501987
:101BE3007480F075270790F463E07002A3E0600649
:101BF300121E0B120C6A752700EEA2E25009E49044
:101C0300DE11F0F527807DE527FA74026A70639090
:101C1300DE16E0F50A7834120DB3A90A7A207BDECA
:101C2300121E347403120C39850A08121DF2A934EA
:101C3300AA35AB36E9250A121DFFE5377002E538F0
:101C430060047A4080027A48EA90DE11F0E537704A
:101C530002E538701390F463E07002A3E0600612AB
:101C63001E0B120C6A752700EF90DE0EF07F040244
:101C73000CCB74066A7006121E0B120C6AE5276001
:101C830003021D89EEA2E050DF750839750900755E
:101C93000A017808120DB379087A207BDE121E340C
:101CA3007403120C3990F463E4F0A3F0E53AFA7488
:101CB300E05539120E30000600CF1C205C1D403E5B
:101CC3001D800E1DA06B1DC04D1D091DEA120E3097
:101CD300000601F51C03EF1C05E91C07041D09FAA6
:101CE3001C0BFF1C091D12210C021D78122100027E
:101CF3001D781220F4807E12243080791224FD8016
:101D030074121A77806F7527048070EA120E300000
:101D13000500251D062A1D082F1D0A341D0C391D1B
:101D2300091D121F64804E12214F80491223FF8028
:101D3300441224D0803F121A7B803A90F463746F6C
:101D4300F0A3741AF0121A6F802B90F4637473F07B
:101D5300A3741AF0121A73801C90F4637430F0A306
:101D6300741AF0121A30800D90F4637452F0A37455
:101D73001AF0121A527404652770047A6080027A8A
:101D830040EA90DE11F0E527FA74016A70507E0292
:101D9300A837A938C3E89420E994005007E8F50A66
:101DA3007E0A8003750A207834120DB3A90A7A20BB
:101DB3007BDE121E5B7403120C39850A08A934AA50
:101DC30035AB36E92508121DFF121DF2EE90DE1128
:101DD300F0E50AC394204003021C6B021C587405EF
:101DE3006A6003021C6B121E0B120C6A021C6B78D6
:101DF30037C3E69508F608E69400F622F9EA3400BC
:101E0300FA89348A358B362290F463E0F8A3E0F53F
:101E1300838882227A007428121E2A40F97A007479
:101E23002D121E2A40F9222AF8E9F60AEAC394057C
:101E33002274F6120C6CEAFCEBFDE9FE740A120C38
:101E430060121E8A600D8C828D83E0120238121E8E
:101E53007F70F37F03020CCB74F6120C6CEAFCEB7D
:101E6300FDE9FE740A120C60121E8A600D12021E36
:101E73008C828D83F0121E7F70F380D7E9240109D1
:101E8300EA3400FA1EEE22E0F508A3E0F509A3E028
:101E9300A908AA09FBEE2274F7120C6C439A0243B9
:101EA3008C10754100754200754300EA90DE0BF01B
:101EB3008A088B0974047808120C08E50890DE0779
:101EC300F08A088B0974097808120C08E508543E57
:101ED30090DE09F07F02020CCBC0E074F1120D0614
:101EE300E5BEA2E650FA90DE06E0784146F690DEC3
:101EF30002E0F50875090074047808120C1778419C
:101F0300E50846F608E50946F690DE04E0F50875AF
:101F1300090074097808120C17784108E50946F698
:101F2300E543600AA841E854066003754300121AAA
:101F330089E589F4F589C2E87F02020D5EC0E07489
:101F4300F2120D06E5BEA2E650FAE589FEA2E750BD
:101F530005C2BD1225D6EEF4F589C2C57F01020D77
:101F63005EC082C083E53B7002E53C7011A83DA9C9
:101F73003EE9700A7402653F7002E540600675270A
:101F830004022024E539120DFA8002811F961FB73F
:101F93001FC51FE870E8E53360047801800278000C
:101FA30090F1FFE8F0A3E4F0E532604F90F1FFE039
:101FB300440280437404652370C490F1FFE4F0A3EA
:101FC3008038E8547FFA7404652370B2EAC3940638
:101FD30050AC74232AFAE85480600D74042AF8E69E
:101FE3006403700D7801800B74092AF8E6640360BA
:101FF300F3780090F1FFE8F0A3E4F0740465276040
:10200300207CFF7DF1AA3D741F5539F9121A87759B
:1020130034FF7535F175360075370275380075274D
:1020230001D083D08222C082C083E9FCE53F7002E5
:10203300E5407010AA3DAB3E74046523600CEA7062
:1020430001EB60067527040220EFA83B741F553986
:10205300120DFA00024720602065207C20E864010D
:10206300600579000220F18C32EC6004790580026E
:1020730079067A00121A888073EA547FFAE870E2CC
:10208300EAC3940650BEEA90DE0EF074232AFBA83E
:102093003DE854806028EC60047D1080027D40EDB3
:1020A30090DE11F0EC60047D0380027D0074042B4C
:1020B300F8EDF6EC60047908802A79078026EC6055
:1020C300047D2080027D80ED90DE14F0EC60047DC1
:1020D3000380027D0074092BF8EDF6EC6004790AA5
:1020E30080027909121A88E490DE0EF07901022049
:1020F300247900122029E97003121A7F2279011230
:102103002029E97003121A8322C082C083E53D703F
:1021130002E53E7014E53F7002E540700CA83BA950
:102123003CE97005E854806005752704801BE8903E
:10213300DE00F0600B74026523700E7523038009C3
:1021430074036523700375230202202474F5120CB3
:102153006CAA3BAB3CEB120DFA0102C22166218152
:1021630021BB21121AEE8A348B35753600A934AAA5
:10217300357B0012021EF888378B380222767900ED
:10218300121AFC8A348B35753600A934AA357B00C4
:10219300E924020909EA3400FA12021EFC1919AAF9
:1021A30035E92403090909EA3400FA12021EF9EC9D
:1021B300F888378938022276EAF9121B6580A775F9
:1021C30034007535007536007E00022253AC3BADFA
:1021D3003C75090074037808120C17A808A909E8CC
:1021E30024AFF582E93401F583E0C0E0EDFAD0E0F5
:1021F3006A705CE824B0F582E93401F583E06C7021
:102203004EAC3DAD3EE824B1F582E93401F583E0FF
:10221300C0E0EDFAD0E06A7036E824B2F582E93422
:1022230001F583E06C7028E824B3F582E93401F505
:1022330083E0F508A3E0850834F535753600E82416
:10224300B5F582E93401F583E0F537A3E0F5380EFF
:102253008E0874AFC394AFF50A74019401F50B743F
:1022630003780A120C08C3E508950AE4950B50039A
:102273000221D0AC34AD35AE36EC4D4E700575272A
:1022830004801A740465276014A83FA940C3E89525
:1022930037E995385004883789387527017F040258
:1022A3000CCB74F2120C6C74FE120C2A851082850E
:1022B3001183EAF0A3EBF01223EB60287EAF7F01DA
:1022C3008008EE2404FEEF3400FF8E828F83E493B4
:1022D300F8740193F9851082851183E0687003A374
:1022E300E06970DE750800803C749090DE14F07431
:1022F300101223E07003750E408E828F83A3A3A375
:10230300E493550A6006E50ED2E0F50EE50E90DE85
:1023130015F0EA90DE13F0742C2509F87600E490AA
:10232300DE0EF005081223EBFAE508C39A40030218
:1023330023D67A007905121A8A8A0A8B0BAC0AAD66
:102343000BEC7001ED60DCEC2402F8ED3400F9884D
:102353000C890D8882F583E0540FF50990DE0EF0A9
:10236300750E008C828D83A3A3A3A3E02407F50A33
:10237300A3E03400F50B7403780A120C08AA0A755B
:102383000A01F50BE509780A120C17EC2403F8EDA2
:102393003400F9850C82850D83E0A2E74003022215
:1023A300EC744890DE11F074081223E07003750E8C
:1023B300408E828F83A3A3E493550A6006E50ED271
:1023C300E0F50EE50E90DE12F0EA90DE10F07427D1
:1023D30002231C7402120C397F07020CCBF0888293
:1023E3008983E05403640122851082851183E0F818
:1023F300A3E0F5838882A3A3A3A3E022E53B7002B5
:10240300E53C7012E53D7002E53E700A7401653FDC
:102413007002E54060047527042275342475350085
:102423007536017537017538007527012274F51269
:102433000C6C740265236015E53D7002E53E700D7A
:10244300E53F7002E5407005A93CE9600575270486
:1024530080787A007901121A88A83BE8605D7A00D7
:10246300F9121AFC8A088B09AE08AF09EE7001EF66
:102473006044752304A83BE8F5247508008E828F19
:1024830083A3A3A3A3E0FAE508C39A5036742525D2
:1024930008F876007A007904121A8A8A828B83A359
:1024A300A3A3E0C0E074252508F8D0E06670E51228
:1024B30022A5050880C775270480087523037903BF
:1024C300121E177A007902121A880222A074046578
:1024D300237018748165397012E53B7002E53C7016
:1024E3000A7401653F7002E540600475270422A861
:1024F3003DE82425F9893402242074F7120C6C7406
:10250300046523700E740165397008E53F7002E5B8
:102513004060057527048042A83BE8FBA83DE8FA24
:10252300A924121B338A088B09A808A90988828960
:1025330083E87001E960DCAA3D7903121A88A83B9D
:10254300E8C0E0A83DE82425F8D0E0F6AA82AB83F2
:102553001222A5AA3D7904121A887F02020CCBC06D
:1025630082C083745390F465F074BE90F466F07483
:10257300FC90F467F0744390F468F074BE90F469CF
:10258300F0740190F46AF0747590F46BF0748790B2
:10259300F46CF0740190F46DF074E590F46EF074E3
:1025A3004390F46FF0747090F470F074F390F471DE
:1025B300F0742290F472F0754301D2BD90F47374F9
:1025C30065F0A374F4F0758265F583120C6AD08309
:1025D300D08222C082C083E490F46BF090F46CF05C
:1025E30090F46DF080E874F1120C6CE96057898205
:1025F300AA828A0875090074077808120C17F50A6D
:10260300F50BEA75F02DA4FAACF0E42C8A0CF50D69
:102613003395E0F50EF50F7808790C120AD674039A
:1026230055C67808120A9E85080C85090D850A0E81
:10263300850B0F90F4BE7808120AE990F47D780CAC
:102643001201B770E27F08020CCB74F1120C6C74A8
:10265300FD120C2A7402120C60E9F08A088B098CB3
:102663000A8D0B7414120C60E0FEA3E0FF85108248
:10267300851183E4F0A3F090F4F7780C120B227821
:1026830008790C1203DD500302272A90F47D780C9D
:10269300120B227808790C1203B1600302277E74AF
:1026A30016120C60E070030227C085108285118327
:1026B300C082C0837412120C60123479D083D0822A
:1026C300122A9F502B851082851183C3E094FCA3AB
:1026D300E094FFA2D265D03340167402120C60E47A
:1026E30012354B7412120C60C3E098F0A3E099F01A
:1026F3007412120C60122ADF7417120C60E070035C
:102703000227BD7416120C60E40227BF90F4FB7815
:102713000C120B227808790C12083485108285116B
:1027230083E0240A12357390F4FF780C120B22789D
:1027330008790C1203DD40D490F503780C120B22B8
:102743007808790C1203DD40030226A290F5037882
:102753000C120B227808790C12083412356A80D8CF
:1027630090F4FB780C120B227808790C120478850C
:102773001082851183E024F6122AE290F507780C83
:10278300120B227808790C12042C40D490F4F778B9
:102793000C120B227808790C12042C40030226A297
:1027A30090F503780C120B227808790C12047885C3
:1027B3001082851183122ADF80D27401F074021211
:1027C3000C60E06006780079008075122AB8506DBD
:1027D300122AD0120C60E0FCA3E0FDEC7001ED7056
:1027E300087417120C60E0600B742E8E828F83F0D6
:1027F300A30EAF837A007B008009122AD0120C60EB
:10280300122ADFEA24FF1AEB34FFFB8510828511BD
:1028130083122A8F500C7412120C60E07002A3E032
:1028230070D885108285118374FFC39CF874FF9D53
:10283300F9122A9F50030229867801808A122AA757
:10284300E8FAE9FB806B85080C85090D850A0E857E
:102853000B0F780C1202C6AC0CE50D3395E0F50EA8
:10286300F50F780C12024E7808790C1205F890F5E2
:1028730003780C120B227808790C120478EC122AD4
:10288300C3EAF8EBF97401280AE439FBE87001E9BB
:10289300701F7412120C60E07002A3E070087417CA
:1028A300120C60E0600B742E8E828F83F0A30EAF48
:1028B300837412120C60122A8F508B90F50B780CD4
:1028C300120B227808790C1203DD40030229867C5F
:1028D30001EE24FFF8EF34FFF97414120C60E0F5F5
:1028E30008A3E0F50988828983E0642E6010E02C58
:1028F300F0643A70077430F07C0180027C00E8FADF
:10290300E9FBEA24FF18EB34FFF9C3E5089AE5096C
:102913009B40D2EC7001E4606A7402120C60E060C8
:1029230039EEF8EF800DE088828983F0E824FF1800
:10293300E934FFF9C3E50898E509995018122A719B
:10294300E0642E70E1E824FEF582E934FFF583129A
:102953002A7EF980D712356A801E8E828F83A3AEBA
:1029630082AF83EEF8EF8006122A71122A7EF9C332
:10297300E50898E5099940F07414120C601234AC20
:102983007431F07416120C60E07005801A1EAF8368
:10299300EE24FFF582EF34FFF583E0643060EEE070
:1029A300642E70031EAF837402120C60E070030286
:1029B3002A63122AC5A3A983122AB85012742D8E32
:1029C300828F83F00EE9FF122AA7122AED800A7480
:1029D3002B8E828F83F00EE9FF7C007D00EE240AAC
:1029E300FEEF3400FFEC24010CED3400FD122A87C6
:1029F300120BA7EA122AC3122A87120BA712357BDE
:102A03007002A3E070DFC3EC9402ED122A9740D565
:102A1300ECFAEDFBC3E49CF8E49DF9EE28F582EFB4
:102A230039F583E0C0E0C3E49AF8E49BF9EE28F8B3
:102A3300EF39F974F528F874FF39F9EC28F582EDCC
:102A430039F583D0E0F0EC24FF1CED34FFFDC3EC3B
:102A53009401ED122A9750BCEE24F6FEEF34FFFFEB
:102A6300EEFAEFFB7403120C397F08020CCBE82457
:102A7300FFFAE934FFFB8A828B8322E08882898311
:102A8300F018EB221235507A0A7B0022C3E09AA396
:102A9300E09B80029400A2D265D03322C3E098A3C6
:102AA300E09980F2851082851183123556C3E4982C
:102AB300F8E499F922851082851183C3A3E080D4B9
:102AC30024308E828F83F0A3AE82AF832274308E44
:102AD300828F83F0A3AE82AF83741222E024FFF0CF
:102AE300A3E034FFF022A882A98385108285118395
:102AF300E8F0A3E9F02274F1120C6C74B0120C2A02
:102B03007403120C601235197411120C60ECF0A3EB
:102B1300EDF0740B120C60E4F0A38022745F120CCE
:102B2300601234637402120C60E0F97411120C60C9
:102B33001234AC120C6A740B120C6012344AF07427
:102B430003120C6012349DAA82AB837403120C60CF
:102B5300EAF0A3EB123563C0E07402120C60D0E01C
:102B6300F064256010E070B4740B120C60123463CF
:102B73007450022A697403120C601234B96425700C
:102B83001A7403120C601234D8120C60122AF374F4
:102B93005F120C6012346379258090740D120C60FF
:102BA300E4F0740E120C60E4F0740A120C60E4F0AA
:102BB3007405120C60E4F0741E120C60122AE9749E
:102BC30018120C6074C2F0A374F480187405120C0C
:102BD30060E070077405120C60EAF07403120C6075
:102BE300E8F0A3E9F07403120C60123506120C60CE
:102BF300123497120E30000520CF2B23152C2BD720
:102C03002B2D0C2C30192C1D2C740A120C60E00493
:102C130080C8740E80F5740D80F17403120C601279
:102C2300348AE0642A70607461120C60123497A3D2
:102C3300E0FB8A828B83E0FCA3E0FD7408120C6046
:102C4300ECF0A3EDF0EA24020A0AEB12343F120C73
:102C5300601235167408120C60122ABE501F7408D5
:102C6300120C60123463C3E49AFAE49BFB740812F7
:102C73000C60123519740A120C60E004F07403122C
:102C83000C60122AF380587408120C60E4F0A380DD
:102C93003C7408120C60123479E875F00AA4F8AA9F
:102CA300F075F00AE9A42AF9E82508F8E93400F9EF
:102CB30074D028F874FF39F97408120C6012352B9C
:102CC300120C60123506120C60E8F0A3E9F07403ED
:102CD300120C601234CF4007E508C3943A40B27433
:102CE3000A120C60E06007740D120C60E4F07403C8
:102CF300120C601234B9642E6003022D8F74031218
:102D03000C601234D8120C6012352B120C60123482
:102D1300B9642A70337461120C601234C7888289D3
:102D230083E0FEA3E0FFE824020808E93400F97415
:102D330061120C6012348A12352B120C60123506A4
:102D4300120C60122AF380487E007F007403120C79
:102D5300601234CF403AE508C3943A5033EE75F02D
:102D63000AA4FEAAF075F00AEFA42AFFEE2508F8DC
:102D7300EF3400F974D028FE74FF39FF7403120C8A
:102D830060123506120C60122AF380C07EFF7FFFAB
:102D93007A007403120C601234B9120E3000034C23
:102DA300AD2D68AE2D6CAD2DBC2D0A7403120C60D5
:102DB3001234D8120C60122AF37403120C6012340A
:102DC3009DAC82AD837403120C60ECF0A3ED12355D
:102DD30063C0E07402120C60D0E0F07461120C6006
:102DE3001234C7E82402F508E93400F50974021225
:102DF3000C60E0120E30001000E33245FD3147D87D
:102E03003158552F63792E64E42F65FD3166F63111
:102E130067D83169E42F6E2D2E6F372F70552F73BE
:102E2300AE2E75552F78492FF332EA6034740B12A6
:102E33000C60E0FCA3E0FD3395E0FE8882898312F9
:102E430034ACECF0A3EDF0A3EEF0A3F07461120C3C
:102E5300601234E4120C6012348AE8F0A3E9022B06
:102E630041740B120C60123463888289831234AC70
:102E7300EAF0A3EB80D588828983E0C0E0741E1258
:102E83000C60D0E0F07461120C601234E4120C6038
:102E930012348A122AF3741F120C60A882A9837455
:102EA3000F120C60E8F0A3E902330B7461120C609B
:102EB30012355AF8A3E012357A7002A3E0700D853B
:102EC300108285118374D3F0A374F4F01234455047
:102ED300047E107F277406120C60E4F0A38008744C
:102EE30006120C6012344A12354B88828983A3AAD6
:102EF30082AB83851082851183EAF0A3EB123563DD
:102F0300600A7406120C6012347D40D31234F274DA
:102F13000F120C60122AF37406120C60122AAD749D
:102F23000F120C60E028F8A3E039F98510828511AF
:102F330083022EA7740E120C60E0600AEE7001EF9C
:102F430070047E017F007418120C6074E2F0A374A5
:102F5300F4F07402120C60E06470703F888289831D
:102F63001234637414120C60123519A3E4F0A3F045
:102F73007461120C601234ACE508F0A3E509F07833
:102F830010E8FA741A120C60EAF0A3E4F0A3F0A3B9
:102F9300F07405120C60E4F002305EEA600E123445
:102FA3003A120C60123533120B2280147461120C26
:102FB3006012355AF508A3E0F509750A00750B0090
:102FC3007414120C607808120B317402120C60E056
:102FD300646F7004780880A9E0647570A2780A8031
:102FE300A0EA601412343A120C60123516888289F2
:102FF30083780C120B2280157461120C6012355AFF
:10300300F50CA3E0F50D3395E0F50EF50F741412EE
:103013000C60780C120B3190F47D7808120B227837
:1030230008790C1201E550217405120C60742DF01F
:103033007414120C607808120B227808120A8D742B
:1030430014120C607808120B3190F50F7808120BEC
:1030530022741A120C607808120B31744F120C6030
:10306300122AE9740F120C60122AF37414120C6002
:10307300C082C08390F47D7808120B22D083D08263
:1030830078081201B760047A0180027A007413127F
:103093000C60EAF0EE7001EF7006E0700302314756
:1030A3001234F2122AED7414120C60780C120B22F3
:1030B300741A120C607808120B22780C7908120A21
:1030C3001A7418120C60E02508FAA3E035098A8205
:1030D300F583E0C0E01234A6D0E0F07414120C6063
:1030E300780C120B22741A120C607808120B2278D7
:1030F3000C7908120A1A7414120C60780C120B3132
:103103007414120C60C082C08390F47D7808120B93
:1031130022D083D08278081201B7708412344550CC
:1031230023740D120C60E0601B7405120C60E060E8
:1031330004D2F08002C2F07408120C60123453807F
:10314300031235921234F2744F120C60C082C083A2
:10315300851082851183123463D083D082E582C3C4
:103163009AFAE5839BFBC3EA9EEB12348640D27442
:103173000E120C60E0700302330C7413120C60E047
:10318300700302330C7402120C60E064786005E093
:1031930064587013122AED7402120C60E0C0E0123E
:1031A30034A6D0E0F0801AE0646F600302330C852C
:1031B3001082851183081234B2E064307003023345
:1031C3000C8510828511831234FD12357A1234B1C5
:1031D300743002330B7406120C607401F0A3E4F034
:1031E3007402120C60E024FEF0EE7001EF70147EA6
:1031F3000180177402120C60E4F07406120C60E490
:10320300F0A3F012344550047E067F0012343A12C4
:103213000C60123533120B2290F47D780C120B22C2
:103223007808790C12042C500E7405120C60742D5E
:10323300F0E50BB2E7F50B7408120C6012347974E5
:103243001E120C60E58228F8E58339F9122AED7421
:103253000E120C60E0F50C780C120DBB7407120C07
:1032630060E0F50C780C120DBB7402120C60120DA9
:10327300D28E0C8F0D780C120DB77408120C60E00F
:10328300F9AA08AB09AC0AAD0B12264D7406120C51
:1032930039740F120C60123519740D120C60E06052
:1032A300687405120C60E06004D2F08002C2F0740E
:1032B30008120C60123453740F120C60C082C08366
:1032C300123473D083D082E0C398F8A3E099F9C392
:1032D300E89EE912348650311234F212359280D7C7
:1032E3007403120C601234F87403120C60122AF384
:1032F30085108285118374F3F0A374F4F0740F12B4
:103303000C6074F6F0A374F4F0740F120C60C082B6
:10331300C083123473D083D082E0C398FEA3E099B4
:10332300FF7408120C6012347D500A7406120C608C
:10333300E4F0A380327405120C60E06004D2F080E4
:1033430002C2F07408120C60E0C39EF8A3E09FF978
:10335300A2F0E492E0FAE8C39AF8E99400F974065B
:10336300120C60E8F0A3E9F0740A120C60E0702B11
:103373008019745F120C60123469120C601234AC41
:10338300120C6A740B120C601235707406120C6006
:1033930012351F120C60122ABE50D77405120C602E
:1033A300E0604D745F120C601234637405120C609C
:1033B300E0F97411120C601234AC120C6A80297497
:1033C3005F120C601234638510828511831234B945
:1033D300F97411120C601234AC120C6A85108285D8
:1033E300118312350C122AED740B120C6012357016
:1033F300EE24FF1EEF34FFFFC3122A9750C1740A55
:10340300120C60E07003022B427406120C6012353A
:103413001F120C60122ABE5003022B42745F120C5F
:1034230060123469120C601234AC120C6A740B1201
:103433000C6012357080D2E82404FAE93400FB747E
:103443006122C3EF022A97E02401F0A3E0340022B3
:10345300A2F0E492E0F8E0C398FEA3E09400FF2218
:10346300E0FAA3E0FB22E0FAA3E0FB792074112247
:1034730085108285118312355622C3E09EA3E01284
:103483003486229F022A9912348E22E0FAA3E0F5B1
:10349300838A822212348EE0FA2212355688828978
:1034A30083A322851082851183E01234B122F8A30D
:1034B300E0F5838882221234BD22E0F8A3E0F5838D
:1034C3008882E0221234BDF8A3E0F9221234BDF55C
:1034D30008C3943022E0240108A3E03400F9740304
:1034E300221234BD2402F8A3E03400F9746122856A
:1034F30010828511831234FDF922E024FFF8A3E042
:1035030034FF2212350C740322E02401F8A3E034C3
:1035130000F922123542EAF0A3EBF022E024FFF097
:10352300A3E034FFF0740622E8F0A3E9F074032269
:10353300123542EAF0A3EBF088828983780822E00F
:10354300FCA3E0F5838C8222F01235502285108291
:10355300851183E00234CA12348EE508F0A3E5092D
:10356300F088828983E022851082851183E024011B
:10357300F0A3E03400F022F912357F228510828512
:103583001183E8F0A3E9F0851082851183E022120C
:10359300357F1234B17430F02274F7120C6C740955
:1035A300120C60E0FEA3E0FFEAF8EBF980188C82CE
:1035B3008D83E088828983F0A3A882A9838C828D7E
:1035C30083A3AC82AD838E088F0974FF25081E7414
:1035D300FF3509FFE5087002E50970D27F02020C8E
:1035E300CB74F8120C6C7408120C60E0F8A3E0F9C9
:1035F3008A828B838003ECF0A3E8FEE9FF74FF2E3D
:103603001874FF3FF9EE7001EF70EB7F01020CCBF2
:10361300C082C0838A828B831236A8E9F08A828BA8
:1036230083E02401F8A3E03400F98A828B83E8F075
:10363300A3E9F0D083D0822274F7120C6C74FC12CD
:103643000C2A851082851183EAF0A3EBF0ECFAEDE6
:10365300FB740D120C60A882A9837402120C60E83B
:10366300F0A3E9F07402120C60858208858309785F
:1036730008120DB77402120C6085820885830978DD
:1036830008120DB77C137D36122AF97404120C3913
:103693008510828511831236A8E4F07404120C3964
:1036A3007F02020CCBE0F8A3E0F583888222C0827C
:1036B300C0838A828B838001A3E070FCE582C39A76
:1036C300FAE5839BFBD083D0822201000000010036
:1036D30000000000000025346420644209254C6486
:1036E30009254C6409254C6409254C6409254C645F
:1036F30009254C6409254C6409254C6409254C644F
:1037030009254C640D0A0000C20100413B2500213C
:10371300A10700FFFFFFFF3031323334353637382E
:103723003941424344454600286E756C6C20706FE6
:10373300696E746572290030313233343536373867
:1037430039616263646566003F3F3F000000803F6C
:10375300F9021550B743BA510000204100E7DB2EB0
:0E3763000000A0400A00000005052000200024
:040000050000010AEC
:00000001FF
