:020000040000FA
:030000000200EC0F
:03000B000202CF1F
:0300430002039520
:03004B000202E8C6
:100083000202B300000080FB1200FBB90003020070
:10009300E690F1B0AA82AB839003BE780379018026
:1000A30015E493A3AC82AD838A828B83F0A3AA82E7
:1000B300AB838C828D83D8E9D9E790F1B0AA82AB68
:1000C300839003BE780179018015E493A3AC82ADDC
:1000D300838A828B83F0A3AA82AB838C828D83D89D
:1000E300E9D9E712026012008675D0007581A07508
:1000F30041B07542F102008B7901227F3FC0077F37
:1001030060C007320075DB0275DA5775E40675E5E2
:100113004490F500E479FFF0A3D9FC90F500740551
:10012300F090F55B742CF0A37401F0A37464F07584
:10013300C908D2B9D2AF7F3FC0079004D5E0B40855
:10014300057F08C007227F60C0072290F538E004CE
:10015300F07004A3E004F0220063900190F50063C3
:10016300920190F55B7904E0A3639201F0A363929B
:1001730001D9F463920190F536E4F022E473C0D020
:100183002541C582C0E0E54234FFC583C0E0E541B7
:10019300C3958224F3C0A8C2AF858342858241D030
:1001A300A8C8F0A3E9F0A3EAF0A3EBF0A37921E751
:1001B30009F0A3D8FAECF0A3EDF0A3EEF0A3EFF06F
:1001C300A3D0E0F0A3D0E0F0A3D0E0F0A3E520F0CB
:1001D300A3E5F0F0A322854283854182E0C0E0A33A
:1001E300E0F9A3E0FAA3E0FBA37821E0F608A3DF9C
:1001F300FAE0FCA3E0FDA3E0FEA3E0FFA3E0C0E080
:10020300A3E0C0E0A3E0F5D0A3E0F520A3E0A3F5CD
:10021300F0E5A8C2AF858241858342F5A8D082D09C
:1002230083D0E0F8D0E032D083D082C5F0E493A34A
:10023300C5F0C395F0F5F0E493A3C395F04005E54D
:10024300F0048001E475F002A42582F582E5F0351F
:1002530083F583E493A3C0E0E493C0E02274109099
:10026300FFFFF012010822C082C08390F1B0E024A6
:100273003A120385FA74206A7017740190F521F01D
:1002830090F538E090F55FF090F539E090F56080F7
:100293001374106A700FE490F50EF090F50FF0747C
:1002A3000190F522F074F090F53AF0D083D08222D9
:1002B300C0E074F2120181C2AF53E9EF539BFCE536
:1002C3009B75D68312026AD2AF020380C0E074F238
:1002D30012018185888890F1B0E024321203B312B1
:1002E300017F020380C0E074F21201817521007E58
:1002F300007FF5C2DC12014E8E828F83C3E094012E
:10030300A3E09400A2D265D033405D8E828F83E058
:1003130024FFF0A3E034FFF08E828F83E07002A30A
:10032300E07045E52112022A00016203330344030E
:1003330012015C90FFFFE0600314802B1200FE802B
:100343002790F1B0E02430120385F8A3E0F9888206
:100353008983E5827002E58360E212017F80098E62
:10036300828F8374FFF0A3F0EE2402EF34000E0EAD
:10037300FF0521E521C3941050030202FB7F010214
:1003830001D912038922F8A3E03400F98882898312
:10039300E022C0E074F212018185C0C0E5D1A2E27F
:1003A300500C90F1B0E024341203B312017F80CDDE
:0D03B300120389F8A3E0F58388822200F58B
:1003E0005834093C4EF76AF9F43445758CB40B1D4A
:1003F000607A3C56A575868ABF80E8851D7AB65915
:1003D000AAAA00000000506BC0000012C87DC80A25
:04000005000000EC0B
:00000001FF
:020000040000FA
:10080000E490F80078C679048002F0A3D8FCD9FA05
:1008100090FBC5AA82AB839044C278D4790180153D
:10082000E493A3AC82AD838A828B83F0A3AA82ABCC
:10083000838C828D83D8E9D9E71224F212086B7574
:10084000D0007581507541007542F802080043AE32
:100850000222E5AE20E7FBC2AF89AD75AB2143AE06
:100860000100D2AF22E5AE20E7FB2280FEE06670F9
:100870001008A3E066700A08A3E066700408A3E00D
:100880006622C3E7960809E7960809E7960809E78C
:1008900096A2D265D03322C3E09608A3E09608A3BF
:1008A000E09608A3E09622080808E630E711121047
:1008B000781208BF080808C64480C61818182218FD
:1008C0001818E9799EC608CAC608CBC608CCC6C3A4
:1008D00070207996CACBCC7019798ECBCC701379F5
:1008E00086CC700EF9802ACA33CACB33CBCC33CC3A
:1008F000331930E7F2CCCBCA3350147004EA30E03D
:100900000DE4CA3ACACB3BCBCC3CCC500209C3E97C
:1009100013C6CC182313C6CB18C6CA18C6F92212A0
:10092000095F20F01430E72B74FFFCFBFA747F8022
:1009300022E4FCFBFA7480801AB48008BC00F2BB8D
:1009400000EF800F50EBF9E4C39AFAE49BFBE49CC0
:10095000FCE499C6CC18C6CB18C6CA18C6F922E45E
:10096000C9C608CAC608CBC6D3330308CCC633925F
:10097000F0C3947F402E94184019C9B90704CACB1C
:10098000CC225025C309CA33CACB33CBCC33CC33AA
:10099000D9F422F4600DC9CCC313CB13CBCA13CA4C
:1009A000D9F6CC22E4FCFBFA2214FCFBFA22E6C3C3
:1009B0003318461846184622E7C333194719471912
:1009C0004722181818E6084608700AE608C333706C
:1009D00005E633F4220822191919E7094709700AB4
:1009E000E709C3337005E733F4220922E608460815
:1009F000C3134608336002E633F422E7094709C30C
:100A0000134709336002E733F4221209EC601B122A
:100A100009FB60161209AE70071209B8600CB32208
:100A2000C0D01209B87005D0D022C32233D0D05024
:100A30001330E0EBC3E7960809E7960809E7960844
:100A400009E7962220E0E4E6970809E6970809E618
:100A5000970809E69722001209EC604F1209FB6023
:100A600012E7548066F61209C270111209B8703B81
:100A7000090909F4F618F618F618F6221209D770C3
:100A8000151209AE08080860EAE6447FF618768079
:100A900018E4F618F6221209AE60161209B87012A0
:100AA000E4F608F608F608E65480F609090918186D
:100AB0001822EAC0E0EBC0E0ECC0E0EDC0E0E68761
:100AC000F0A4FBACF008E687F0A42CFCE435F0FAC7
:100AD0001809E687F0A42C4B60027401CA35F0FCBB
:100AE000E433FB09E687F0D2F7A42CCB35F0FC19F0
:100AF00008E687F0A42BCC35F0FBE433FD0819E6BB
:100B000087F0D2E7A42C4ACB35F0CD3400FC09E6BF
:100B100087F0D2E7A42DCC35F0FDE433FA0918E6CE
:100B200087F0D2F7A42CCD35F0CA3400FC08E68754
:100B3000F0D2E7D2F7A42ACC35F07A7E20E70B0A70
:100B4000CB33CBCD33CDCC33CC33CB33501470043B
:100B5000ED30E00ED2F1E4CD3DCDCC3CCC3B5005A8
:100B6000DA05C2F1EB547FC63308E63392F0FBE7B7
:100B70003309E733C39A502D2B70190C0D4C4D706F
:100B8000151806E608C333700D20F10AA2F013F61B
:100B9000E418800B4024E4F630F002768018F61852
:100BA000F618F68024D33B14501074FFA2F013F60D
:100BB000187680E418F618F6800FA2F013F618E6FF
:100BC0003303F618ECF618EDF6D0E0FDD0E0FCD0DB
:100BD000E0FBD0E0FA221209FB60461209EC603D0E
:100BE000E9687008F618F618F618F622748067F7A8
:100BF000120C0A090909748067F7221209EC601DBA
:100C00001209FB7005191919801A1209C2701F12F6
:100C100009D7C37003E66733191919400718181864
:100C20002208080874FFF618F618F618F6221209BA
:100C3000D760171209B8702192F01209AE701950DE
:100C40001720F014080808090909E7F61819E7F64B
:100C50001819E7F61819E7F6221209AE60E6E869F6
:100C6000701F0808E62480F608E436F618547FB4AE
:100C70007F0CE654806007F6E418F618F622181880
:100C800022E9C6CC08C6CD08C6CE08C6CFC0E0E86B
:100C9000C0E0EAC0E0EBC0E009E9F809E7FA09E7DB
:100CA000FBE6F918E6F8C3EC98ED99EE9AEBC2E78B
:100CB000F5F0EFC2E795F0500E600CEBCFFBEACEFB
:100CC000FAE9CDF9E8CCF8EAA2E7D2E7FAEB33FB90
:100CD00013F5F0EEA2E7D2E7FEEF33FFC5F013A263
:100CE000E730E601B313C5F0C3C0E0C0F07F00C336
:100CF0009BFB605B9418600C401AD0E023F9D0E0B5
:100D0000F8020DD98AF0E9486003D2F0E4AFF0FAB6
:100D1000F9F8803BEB30E40D89F0EA6003D2F0E4AF
:100D2000AFF0F9CAF8EB30E30D88F0EF6002D2F0D3
:100D3000AFF0E4CAC9F8EB54076014FBC3EA13FA36
:100D4000E913F9E813F8EF135002D2E0FFDBEDD01E
:100D5000E0C0E030E739C3E49FFFF5F0EC98FC42D7
:100D6000F0ED99FD42F0EE9AFE42F0D0E0F9D0E0CD
:100D7000F8E5F0607AE923F9EE20E742D8028067CF
:100D8000C3EF33FFEC33FCED33FDEE33FE80EAECD2
:100D900028FCED39FDEE3AFED0E023F9D0E0F84032
:100DA00002801BC3EE13FEED13FDEC13FCEF13509A
:100DB00002D2E0FF08B800067F7F74FF802EEF3379
:100DC00050178CF020F00260100CBC000C0DBD0020
:100DD000080EBE000408E860DFE933E813FFEE23E5
:100DE00013FE4F4D4C8008E95480FFE4FEFDFCEEFD
:100DF00033EF33F47004FCFD7E80D0E0FBD0E0FAEA
:100E0000D0E0F8D0E0CFC618CEC618CDC618CCC6F4
:100E1000F9221209EC7004181818221209FB700D3F
:100E200074FFF61819F61819F61819F622E7548007
:100E300066F61209AE700F1209B870F014F608F6D3
:100E400008F608F680D11209B8700CF608F6087694
:100E50008008E6447F80EC1209DA700C1209C56044
:100E6000BFE65480F6E480BB1209C5700519191954
:100E700080A5E869700C763F18768018F618F6E8B9
:100E8000F922E6CDC0E018ECC0E0E633CD33CDD397
:100E900013F6E719FCE7191933CC33C3947F400EDE
:100EA000CD9D502408E65480F6E418F6800FF40433
:100EB0003D14501408E6447FF6187680E418F618BE
:100EC000F6D0E0FCD0E0FD22CCD313CCFD18E4C674
:100ED000CBC0E018E4C6CAC0E00808ED08C633E697
:100EE00013F618E433C675F003C3CA97CA09CB9743
:100EF000CB199C40047D08802EBD0003020FBB1659
:100F0000B6FF050606081618C3CA33CACB33CB335F
:100F1000CA27CA09CB37CB193CC37D08803E187D50
:100F20000820E75CC633C6CA33CACB33CB33DDF106
:100F3000D5F0EB30E77BCA97CA09CB974ACB199C0F
:100F4000406F4B7025E620E0218066187D08C3CAFB
:100F500097CA09CB97CB199CD3C633C6CA33CACB21
:100F600033CB3350C9DDE7D5F0E1D3E4C636C6084C
:100F7000C636C608C636C608C636C6181818803122
:100F8000C3CA97CA09CB97CB199CB34097C633C63F
:100F9000CA33CACB33CB33DD34D5F02EC6A2E0C67C
:100FA00040C8CA27CA09CB37194A70BECB3CB480A7
:100FB000B90808E63308E633601F181818D0E0FABD
:100FC000D0E0FBD0E0FCD0E0FD22187D08CA27CAA3
:100FD00009CB37CB193CD3808013F618E4B67F11C8
:100FE000F618B6FF0EF618C60470D2080876808090
:100FF000CAF618F618F680C5080808EAC0E0EBC083
:10100000E086F0E7A4FA180986F0E7A42AFA18099E
:1010100086F0E7A42AFA180986F0E7A42AFA1986C6
:10102000F0E7A4FBE5F02AFA190886F0E7A42BFB09
:10103000E5F03AFA190886F0E7A42BFBE5F03AFA56
:1010400018180986F0E7A4C5F02BFBE43AFA190852
:10105000E7C5F0C6A426F6E5F03BFBE43AFA1886AD
:10106000F0E7A4F6E5F00826F6E43B08F6E43A08D3
:10107000F6D0E0FBD0E0FA22181818E4C396F60880
:10108000E496F608E496F608E496F6226016080858
:1010900008C6C313C618C613C618C613C618C61387
:1010A000C6D5E0EA22E026F608A3E036F608A3E07B
:1010B00036F608A3E036F622E026F008A3E036F084
:1010C00008A3E036F008A3E036F022C3E0C696F6A7
:1010D00008A3E0C696F608A3E0C696F608A3E0C605
:1010E00096F622C3E096F008A3E096F008A3E096F7
:1010F000F008A3E096F022E0F608A3E0F608A3E0EB
:10110000F608A3E0F622E6F008A3E6F008A3E6F06E
:1011100008A3E6F022CAC0E0E6F0A308DAFAD0E0BD
:10112000FA22C3E498F8E499F91211638026C3E423
:101130009AFAE49BFBE920E7E9121163E498F8E4EA
:1011400099F922C3E498F8E499F9121163E498F844
:10115000E499F9C3E49AFAE49BFB22EB20E7CFE998
:1011600020E7E0B90010BB0008E88AF084F8AAF094
:1011700022E4FBC8FA22EB70227B10C833C8C933C3
:10118000C9335007C39AC3DBF280069A50012ADBA9
:10119000EAC833F4C8C933F4C9FA2275F008E4C8C0
:1011A00033C8C933C933C99AC99B5004C92AC93B3A
:1011B000D5F0ECFBC833F4C8E4C9FA22600D08C6C8
:1011C000A2E713C618C613C6D5E0F322600C08C602
:1011D000C313C618C613C6D5E0F422700422600DEE
:1011E00018C6C333C608C633C6D5E0F41822254155
:1011F000C0A8C2AF40021542F541D0A822C0D025F8
:1012000041C0A8C2AF50020542F541D0A8D0D022BB
:101210002541F582C0A8C2AF40021542F541D0A8D1
:10122000854283222541F582E43542F58322E47329
:101230002541C582C0E0E54234FFC583C0E0E541F9
:10124000C3958224F9C0A8C2AF858342858241D06C
:10125000A8CEF0A3E520F0A37821E608F0A3DEFAFB
:10126000EFF0A3E58124FBF8E608F0A3E608F0A37D
:101270000808E608F0A3E608F0A315811581D0E080
:10128000FED0E0F815811581E8C0E0EEC0E02285CF
:101290004283854182E0A3FEE0A3F5207821E0A30C
:1012A000F608DFFAE0A3FFE0A3C0E0E0A3C0E0E0BF
:1012B000A3C0E0E0A3C0E085A8F0C2AF858241856D
:1012C000834285F0A8D083D0822274028000C0E0DF
:1012D000F404121210D0E012111522D083D082C56E
:1012E000F0E493A3C5F0C395F0F5F0E493A3C395A0
:1012F000F04005E5F0048001E475F002A42582F5D4
:1013000082E5F03583F583E493A3C0E0E493C0E085
:1013100022D083D082CCC0E0E493A3600612133BBA
:101320001470FAE493A3600612135A1470FAD0E012
:10133000FCE493A3C0E0E493C0E022C0E0E493A304
:10134000D39C5010E493A3C39C400AD0E0D0E0D0DB
:10135000E002132EA3A3A3D0E022C0E0E493A36C89
:101360007009D0E0D0E0D0E002132EA3A3D0E02299
:10137000C082C083740149F5B37C10800C8A828BD3
:1013800083E0F5B1A3AA82AB83EC1C70F0D083D0CC
:101390008222800100E5B3A2E350F92274F7121211
:1013A000308922ECFEEDFF7409121224E0F8A3E06C
:1013B000F988828983EAC4540FF5218015E5B2F0DB
:1013C000A3EB1B70F81213921521EE2410FEEF34DC
:1013D00000FFE5216016EEFAEFFBA9221213707BE5
:1013E0000C800100EB1B70FB7B1080D57F0202128A
:1013F0008FC082C08390F876E054F0F0741390F8B8
:1014000075F074DF90F86FF074D990F870F074F89C
:1014100090F871F0742590F872F0748090F873F081
:10142000742590F874F0741090F876F074F8F5D58F
:1014300075D46F90F87EE054F0F0741390F87DF05E
:1014400074F890F877F0744A90F878F074DF90F8B8
:1014500079F074D990F87AF0742090F87BF07423C6
:1014600090F87CF0744090F87EF090F886E054F8A4
:101470004408FAF0741290F885F090F883E0541F55
:10148000F074DF90F881F074AF90F882F0E490F897
:1014900083F074F890F884F0740F5A444090F88602
:1014A000F074F8F5D375D277D083D0822274F61217
:1014B0001230EAFEEBFF8C218D228923120865751C
:1014C000AB2AEF90F87FF0EE90F880F090F883E090
:1014D00054E0F0E52390F884F0AA21AB2274097857
:1014E000211211CCE521F5ADEBC313EA13F5AC5392
:1014F000D1FBD2B875D60412084E79017F030212CF
:101500008FC082C08390F888E4F0A3F07980FC1249
:10151000154BD083D08222C082C083C2B890F88796
:10152000E0602690F888E02480F0A3E03400F0E446
:1015300090F887F0C390F889E09480500C798090FF
:10154000F888E0FCA3E012154B80C7FD7A8A7BF88F
:101550001243C7798090F888E0FCA3E0FD7A8A7B8B
:10156000F81214ADE990F887F022EEC0E07E7FE932
:10157000601643C640800579021215A9E5BEA2E5B2
:101580004020EE1E70F1801A53BEFB8005790212D6
:1015900015A9E5BEA2E64004EE1E70F10053C68018
:1015A000E5C643BE04D0E0FE227A177BFF00DBFDD8
:1015B000DAF9D9F52274F11212307C19800F75F026
:1015C0000AECA429C0E0EC12168DD0E0F0EC1C70FF
:1015D000EDE9F5257526007527007528007C00903B
:1015E000FBC578211210F778257921120FF890FBAE
:1015F000C978251210A585252185262285272385D2
:1016000028247410782112108C74FF5521F8747FEF
:101610005522F97A197B001211638C23E523240AE1
:10162000F8E434F9F988828983E0FDEA240AFAE4CF
:1016300034F9FB8A828B83E088828983F0ED8A8289
:101640008B83F00CECC3941940957F0802128FC075
:1016500082C0837B19EB1B8B82A882600C90DF0613
:10166000E0FAE81216886A70EC75E1047401280843
:10167000E43400F97A197B0012115BEA12168890A3
:10168000DF06F0D083D0822212168DE022240AF5E4
:1016900082E434F9F5832274ED121230892190FB33
:1016A000E5E0C395215003E0F52190FB4B7825122E
:1016B00010F790FC2178291210F778257929120A61
:1016C0000A502375258F7526C27527FD7528409011
:1016D000F95B78291210F778257929120E1290FB00
:1016E0004B782512110675220075230075240078A9
:1016F000211208C290FB4B78251210F7782179252A
:10170000120A5690FC2578251210F77821792512B7
:101710000BFB782112091FA821C3E5229401400286
:1017200078FFE8F97F0C02128FC3EA940112174385
:101730004005EAF8EB8006C3E49AF8E49BF9E8FA7E
:10174000E9FB22EB9400A2D265D0332279037C1B03
:101750007DFC7A097BDF1243C72274F8121230E94C
:10176000FEEAFFC2AF121879539BFCE59B53E9EFE9
:1017700075911074326E700C90F9FEE0A2E1500485
:1017800079198002EEF91241DDEF90DF06F0743234
:101790006E700590F9E4800390F9E0E090DF2E127E
:1017A0003DA2F090F97BE090DF01F090F97CE090B1
:1017B000DF00F0439A01D2AF022A9AC082C083E9C7
:1017C000FA90F9E5E0A2E6500479328002790C1231
:1017D000175A021EABC082C08375D683E9601C9085
:1017E000F9E5E0A2E6401490F9E3E0FA7932121745
:1017F0005A90F9E2E090DF05F08003121801021E12
:10180000AB90FB01E0F91217BB22C082C08375D6F2
:101810008312187979047AC17BFB1243ADE490DF1F
:1018200008F012174C12186C90F9E5E0A2E650058A
:1018300090FB01800390F9C7E0F9E990FB01F012F9
:1018400017BB79067A1D7BFB1243AD90FAFDE4F0DD
:10185000A3F090FB0EE060077A00790112332412A6
:1018600032EB1224B990FB0BF0021EAB7A837BF9AA
:1018700079041213701213922275E10490FBE7E0D1
:10188000243A122B2174F0F02274F112123075FDFB
:1018900000758FFFE5F275F2FF7A00752101752260
:1018A00000EA78211211DBE52145F2F5F20AEAC3DC
:1018B000940840E775F4C075FEDB75CB7075CC24D9
:1018C00075CE2475F12075F52079127AE87BFA122D
:1018D00043AD75F300790012156AE490DF08F090CB
:1018E000F9C7E0F91215B51213F112174C121801CD
:1018F00075210075220075238075243F90F93F788B
:10190000251210F778217925120E1290FA1D7821F0
:1019100012110643CB14E5CBD2B9D2A9439A0102E6
:101920001AA0C082C08390FA02E0FA601E90F9DE2D
:10193000E0FBEAC39B5003EA8001EBFC8CCD122450
:101940007C7488F0A37413F0121DD6D294021EABDF
:1019500074F11212308A218B228C238D2412197E6D
:1019600078251210F778257921120A561219BD78B8
:10197000211210F778257921120BFB021A9890FB9F
:101980004F121985221219892212198D22E0F8A30B
:10199000E0F58388822274F11212308A218B228C26
:1019A000238D241219BD78251210F778257921127C
:1019B0000BD612197E78211210F7021A9190FB4F64
:1019C0001226E02274F1121230892175220074026D
:1019D00078211211DB1237D978211210F7782112F1
:1019E00008A790F93F78251210F778217925120A77
:1019F0005690FB5178251210F778217925120A5656
:101A0000AA21AB22AC23AD24121996021AA074F1BC
:101A100012123012197E78211210F77D018A828B02
:101A20008378251210F778217925120A568D2575AD
:101A30002600740278251211DB90FB4FE02525FC6F
:101A4000A3E035268C82F58378251210F77821796A
:101A500025120BFB0DEDC3940440C2AA21AB22ACAE
:101A600023AD24803B74F11212308A21EBF522124F
:101A70001AA51208A790FB5578251210F77821793E
:101A800025120A56AA21AB22AC23AD24121950808C
:101A90000F78257921120A56AA25AB26AC27AD2846
:101AA0007F0802128F3395E0F523F5247821227404
:101AB000F712123079F47C007D047A237BF912430B
:101AC000C790F923E064AA7004A3E064AA702B1203
:101AD0003258EA7001EB601AC3EA94F5EB940440C3
:101AE000117904EA24FCFCEB34FFFD7A137BFA1233
:101AF00043C779047A177BFA802C74FF90F9C7F0FA
:101B000090F9E9747EF0A374FF121DA7E490FA1017
:101B1000121D96790C7CD47D037A237BF91243C77E
:101B200079087A137BFA1243ADE490FB1102288DF9
:101B300074F112123090F93F78251210F790FB6182
:101B4000121DC61208C278257921120E1290FB557B
:101B5000782512110690FB4F7463F0A374F9F0908E
:101B6000FB63123235121A658A218B228C238D2455
:101B7000782112091FA821A922E490FB0FF090F907
:101B80007FE0FA602175F0E8A4CAACF075F003A418
:101B90002CFCE42CFBE89AE99B50047A0180027A41
:101BA00000EA90FB0FF090FA10E0FD607275F064AF
:101BB000A4FAACF0E42CFBE89AE99B50047A01808B
:101BC000027A00EAFB90FB11E07049EB606574FF5C
:101BD00090F9C7F090FB0112243FC2E4F0D2E2F08A
:101BE00090F9FEE0C2E412243F541FF0E490F9267D
:101BF000F090F925F090F97F12243FC2E0F090F9BF
:101C0000FEE0549F121D9690F97B74F0121DA59072
:101C1000FB11801BEB701CEDFE121AAFEE800A90D8
:101C2000FB11E0600E121AAFE490FA10122436F0A5
:101C300012180A90FB4F746BF0A374F9F090FB65D7
:101C4000121DC61208C290FB5578251210F7782194
:101C50007925120A56AA21AB22AC23AD241219967B
:101C60008A218B228C238D24782112091FAA21AB73
:101C70002290FA06E0F5217003021D1A74FF652117
:101C80007003021D1A90FB6BE07002A3E0600990E4
:101C9000FB6B121F42021D1A752200740378211279
:101CA00011DB90FB6BE521F0A3E522F090FB6DE0EA
:101CB000603090FA05E0F8C3EA981217435015A275
:101CC00094400312192290FB09E0121D8EE490FB50
:101CD0006DF08043A294503F90FB08E0603914F00F
:101CE0008032A294503190FA04E0C39AE49BA2D2CD
:101CF00065D033502290FA09E0FB90FB08E0FAEB44
:101D0000C39A5003EB8002E014F0740190FB6DF075
:101D100090FB08E0121DBE121DD690F982E06065AE
:101D2000A294506190FB4F744BF0A374F9F090FBB8
:101D300059121DC61208C290FB5578251210F7786B
:101D4000217925120A56AA21AB22AC23AD241219FF
:101D50005012447C8A218B22A821A92290FBE5E025
:101D600064FFC3600FE89441E9941F401E74FF12A2
:101D70001DB58017E89470E99417500F90F982E030
:101D800090FBE580EA74FF90FBE5F0021AA090FB5F
:101D900008F0121DBE22F079207CFB7DFB7A837B4C
:101DA000F91243C722F0A3F0740290F9E1F0740134
:101DB00090F9E2F022F090FB08E0121DBE22F91229
:101DC0001697E9F5CF22E0F521A3E0F5227523006F
:101DD00075240078212274ED12123090F9BC121E85
:101DE0009F1208C290FB08E0F525752600752700B4
:101DF00075280078251208C290FC2978291210F75E
:101E000078257929120A5690FC2D78291210F77836
:101E1000257929120BFB78217925120A5690FC317D
:101E200078251210F778217925120A56AA21AB22BB
:101E3000AC23AD2412443390FB151224D890F9BB87
:101E4000121E9F1208C285CD2575260075270075C4
:101E5000280078251208C290FC3578291210F778EE
:101E6000257929120A5690FC3978291210F778251D
:101E70007929120BFB78217925120A5690FC3178CA
:101E8000251210F778217925120A56AA21AB22AC27
:101E900023AD2412447C90FB131224D8021724E0B3
:101EA000F521752200021DCD1232EBD083D08222A3
:101EB000C082C083122472C3E89AE99B500874FF61
:101EC000281874FF39F9E8C39AFAE99BFB80DC749F
:101ED000F712123090FB25E0241CFAA3E03400FB3B
:101EE000892174012521F8E43400F98A828B83E882
:101EF000F0A3E9800B75C9A875C958741090FFFF4D
:101F0000F08A828B83C3E0940112246D50E78A82A9
:101F10008B83E4F0A302288DC082C0838A828B83E6
:101F2000E07002A3E060168A828B83121F428A82CD
:101F30008B83E07002A3E0700479018002790002D3
:101F40001EABE024FFF0A3E034FFF02274F5121280
:101F5000307E03EE1E7003022105741090FFFFF027
:101F600075210080197ADE7BFB1224316007122470
:101F70005712244FF00521E521C3941050D5A82114
:101F800090FB23E02812382360EBE4F0E5211213E4
:101F900011000501C41F02A41F03BF1F0913200B5A
:101FA000C91F751F90F9E5E054606420700790FB2D
:101FB0000DE0F9800279001217D512329580B61221
:101FC0002A9F80B1122B2C80AC123C951231ECC3AD
:101FD000E89429E91217445006E87001E970097A7B
:101FE000017900123324800990FB23E0240B122690
:101FF000CF90F97D1231EC7583FA7582DA12380FC1
:102000004003021F75E490FB08F075CF001226F51F
:10201000021F7490FB0CE0600214F07AE07BFB126C
:102020002431600F12180A90F9F31231EC90FBE0A2
:102030001237F97AE27BFB122431600B90F9E5E06C
:10204000A2E050031242DA90FAFF12244590FAFF00
:10205000C3E094E9A3E094034007E490FC1EF08001
:102060000990FC1EE06003021F7590F9E5E0A2E70D
:102070004003021F75A2E650597ADA7BFB12243125
:10208000602190F9EB1231EC90FBD81237F990F9FE
:10209000E5E0C2E6F012244F122436F0F91217BB25
:1020A000021F757ADC7BFB1224317003021F75124C
:1020B00031F690FB01E0F890FA01E028F8E43400F2
:1020C000F97AFA7B0012115BEA90FB01F090F9FDBE
:1020D00080C97AD87BFB1224317003021F65123C41
:1020E0008990FBDEE4F0A312243FD2E6123CA86400
:1020F000FF700890F9C7E090F9FDF0E01224B59068
:10210000FB01E08097741090FFFFF0752100E5213E
:10211000C333F8E433F990FB251231CD1224684023
:102120000302242088828983E4F0A3F0E5211212BF
:10213000DB020D2024512160218B2213222022203A
:10214000244B22ED22182296225E23B0232024283D
:102150002375C9A875C9581226D6A3740102241F75
:1021600090FB0CE0700302242090DF05E0FA90F968
:10217000E2E06A70047A0180027A00EA90FB74F06F
:1021800090FB12E0700302220990FB05E0600C1442
:10219000F0701090FA1BE4F0A3800790FB0AE06057
:1021A0000214F079007A4A7BF8122AD590F981E07E
:1021B000FA700302242090F980E0FBEAC3940840FF
:1021C00009EBC394084003022420EB6008C39A5033
:1021D000048B2380028A2312321290F9E5E0A2E2F6
:1021E0005010E523C39408400302242012249E02C9
:1021F000240C74016523600302242090FBD6E024A4
:10220000FDFAA3E034FF02241690FB23121981A3E8
:1022100002215AC293022420740190FB1002241F51
:1022200090F9DCE0700E90F9DDE06008D293123C8A
:10223000CFF0800890F9DCE0A2E0929390F9DDE025
:10224000700302242012192202242090F9E5E054A0
:10225000506410703690FB0BE0FA74FF2AF0EA60CD
:102260001812245790FBD612323590FB25E024102B
:10227000122B1DEAF0A3EB800B90F9C7E090FB0155
:10228000F090DF06122486E4F0A3F079001217D54F
:102290001232950224201226E6F090FB701224459B
:1022A00090FB70C3E094E8A3E09403500302242061
:1022B00090FB70E4F0A3F090FB72E004F0C3943C58
:1022C0005003022420E4F090FB73E004F0600E75EC
:1022D000F00F84E5F07006740190FBE6F090FB735C
:1022E000E0C3943C5003022420E402241F1224C7BC
:1022F0001231E97583FB7582D6E0C398F8A3E099A3
:10230000F974E728F874FF39F990FB251231D5A349
:10231000A3A3A3A31237F912323BF090FB0DE07098
:10232000030224201402241F90F9DEE0FBE5CDC354
:102330009B502590FA0DE0FCE5CDFAEC70057C0190
:1023400080010AEC1C6005EAC39B40F68ACD12248A
:102350007C7488F0A37413F0121DD602242090FB25
:1023600025E0241812321CE8FEE9FF1237FF503630
:1023700090FB08E0C0E090FB09E0FAD0E0C39A507F
:10238000D790FA0AE0FC90FB08E0FBEC70057C0AB1
:1023900080010BEC1C6005EBC39A40F6EB121D911B
:1023A0008E828F8380ABE490FB08F075CF0080F0C5
:1023B00012247290FB1B1237F912289D90FB1B12FE
:1023C0003235121EB090FB1B1224D890F981E0F533
:1023D00023604D12320890F9E5E0A2E2501BE5239C
:1023E000C39408503B12249EFB90FB1BE0FCA3E02F
:1023F000FDEAC39CFAEB9D8013740165237021757F
:1024000083FB7582D6E0C39AFAA3E09BFB74FD2A96
:102410001A1A1A74FF3BFB88828983EAF0A3EBF057
:102420000521E521C39410500302210E7F040212FE
:102430008F121F18E922F090F9C7E090FB0122F0FB
:1024400090F9E5E022E02401F0A3E03400F022124C
:102450003CC3E8F0A3E92290FB01E090DF06F01214
:10246000164FE090FB01F02288828983C3A3E0022B
:10247000174490FB6E1219851231F02290FB25E073
:10248000241E122B2122F012248B2290FB251224D1
:10249000922212198DA3A3A3A3A3A3A3A32290FB0B
:1024A000D6E0FAA3E0FBEA8523F0A4FAACF085239A
:1024B000F0EBA42C2290FB01F090FB25E0241012FD
:1024C0002B21E4F0A3F02290FBD6E0FAA3E0FB90EE
:1024D000FB25E02412122B21EAF0A3EBF022EEC040
:1024E000E0E9FE800579FA121ECFEE1E70F7D0E00B
:1024F000FE22748090FFFFF090DF36E0648160037D
:102500001242DA75C9A875C958D2B97E007F008E0B
:10251000218F22740A78211211DB2400F874083507
:1025200022F9741090FFFFF07C007D00E8FAE9FBCF
:102530008A828B83A3A882A9838A828B83E064FF2B
:1025400070047A0180027A00EAFBEC24010CED347D
:1025500000FDEB6009C3ED940440D112603FEE240E
:10256000010EEF3400FFC3EE940FEF940040A090F3
:10257000FBE7E02430122B1D7405F0A3742712260C
:10258000C92432122B1D743AF0A374271226C924D1
:1025900034122B1D7417F0A374151226C924371298
:1025A00026CF90FBE7E0245B122B1D742CF0A37464
:1025B000011226C9242012321C90FB231237F990F5
:1025C000FBE71231EC90FB251237F990FBE7E02492
:1025D0003812321C90FB6E1237F9741855BEC313B3
:1025E000131390FB07F0121AAF79047CF37DF97A8C
:1025F000E07BFB1229FB500590F9FD800390F9C7A1
:10260000E0FAEA90FB01F01241BC90FB07E01212E5
:10261000DB00038E264D264D261D264D2690F9DC27
:10262000E06004D2938002C29390F9DDE06004D2AE
:10263000948002C29490F9DEE0F5CD90F9DFE0F9E4
:1026400090FB08F090FB09F0121DBF804190FA0248
:10265000E0FA60048ACD800690F9DEE0F5CDC29301
:10266000C29490F9DCE0A2E09293E490FB08F0754C
:10267000CF0090F9DFE090FB09F090FB25E0240CFF
:10268000122B1D7498F0A3743AF01226F5F012186C
:1026900089790C1224DE1232231226E61224867463
:1026A00005F0A3E4F01226D6A37401F01224C71299
:1026B000186C123C9B121DD6C29179141224DE12A2
:1026C000180AD291121F4C80FBF090FBE7E0221217
:1026D0002B217401F0221226DD7438F02290FB25A4
:1026E00012198902249990FB25E02416122B2174DB
:1026F00005F0A3E42290FB25E02418122B21748816
:10270000F0A3741322C082C083E490FB0412381C2F
:102710000412381CC39404500E90FB25121981A397
:10272000A37414F0A3E4F090FB04E024E9F582E440
:1027300034FBF583E0F5B6021EAB74F5121230E5FA
:10274000BBF522E5BAF52190FB04E0FC74012CF006
:10275000740278211211BC90FC1FE02521FAA3E03D
:102760003522FBECC333F8E433F9E824E8F582E9D9
:1027700034FAF583E02AF0A3E03BF090FB04E0C3D9
:1027800094095010E024E9F582E434FBF583E0F588
:10279000B602284E90FAFAE004F0C39408500302FF
:1027A000284990FAEEE0FEA3E0FF7CE87DFA7A5932
:1027B0007BFB90FB03E0C333F8E433F9E82422F811
:1027C000E934FAF97523098C828D83E0F521A3E0C1
:1027D000F52288828983E521F0A3E522F0E521C373
:1027E0009EF521E5229FF5228A828B83E521F0A3C5
:1027F000E522F0E82410F8E93400F9EA24020A0A94
:10280000EB3400FBEC24020C0CED3400FD1523E549
:102810002370B490FB23E0240BF8A3E03400F98884
:102820008289837401F079127AE87BFA1243ADE46D
:1028300090FAFAF090FB03E004F06408700B740166
:1028400090FB0EF0E490FB03F0E490FB04F0022414
:102850002C74F71212307A937BF97906121872757C
:10286000214C7522F878211212CA7C007DF87A205A
:10287000790012139C74021211FD742290F84AF030
:1028800090F9E2E090F84BF0740190FB12F07F02B7
:1028900002128F79067C297DF91243C72274F11246
:1028A000123074FC1211EE90FB05E06006122A58FB
:1028B0000229F090FB0EE070030229F390FA1378DE
:1028C000211210F790FA1778251210F77821792540
:1028D000120BFB85418285428378211211067E32DC
:1028E0007F007A00790012332490F9FEE0A2E779A4
:1028F0000450067C177DFB800A854182854283ACAB
:1029000082AD837A007BF81243C790FB01E090F818
:1029100004F074185590C333C0E090F925E0540FCB
:10292000FAD0E04A333354FC122A4C79107CD67D1D
:10293000FA7A0C7BF81229FB500A90DF06122A055E
:102940007434800CA2E5500D90F9E3122A0574331B
:1029500028FEE439FF90F9E5E0A2E75008EE2404F0
:10296000FEEF3400FF90F9FEE0A2E15008EE2408EB
:10297000FEEF3400FF90F81AEEF0A3EFF090FB2981
:10298000E07002A3E0600790FA21E0FA80027A3F4B
:10299000EA90F81CF090FB29E07002A3E0600C9034
:1029A000FB291231EC90FB761237F9E5CF90F81D38
:1029B000F0A2945024E5CD90F81EF090FB08E09032
:1029C000F81FF090FBE5E0C0E090F81FE0FAD0E0DF
:1029D000C39A501590FBE5800B90F9DEE090F81E4D
:1029E000F090FB09E090F81FF090FB29E4F0A3F0D1
:1029F00012285174041211FD021AA01243C790F953
:102A0000E5E0A2E622E075F064A4F8A9F02274F8EB
:102A10001212308921EAFEEBFF7904EEFCEFFD7A19
:102A2000007BF81243C7E52190F804F090F925E007
:102A3000333354FC4403122A4C7914EE2404FCEF83
:102A40003400FD7A0C7BF81243C7804E90F805F0F5
:102A50007A067BF81228932274F812123090FB0544
:102A6000E0F874FF281874FF3400F990FBE4E0FAF2
:102A70007B0012115BE8FC90F9FF7458F0A3742AF4
:102A8000F0EC75F018A4F8A9F090FA1BE028FAA36E
:102A9000E039FB74ED2CF9122A0E7F0102128FC06F
:102AA00082C08374FF90F800F090F801F090F80273
:102AB000F090F803F079067C177DFB7A047BF8121E
:102AC00043C77A0A7BF8122893122851741290F89F
:102AD0004AF0021EABC082C08390F9FEE0A2E6403D
:102AE000398A828B83E0FC74226C600574126C70EE
:102AF0002990FB0FE07023EB90F877F0EA90F878DC
:102B0000F01217D5C2AF90FBE7E0243A122B1D74E8
:102B100010F075D60275E103D2AF021EAB122B2165
:102B200022F8A3E03400F9888289832274F112121A
:102B30003090DF38E0F52190DF08E0F52290F9FED3
:102B4000E0A2E650030231AE90FAFBE4F0A3F0906D
:102B5000F825E090FB7F12243F5460FA90F826E0BD
:102B6000FB74206A701B90F9E2E0FC6B701390DF3D
:102B700005E06C700C79007A257BF8122AD50231B9
:102B8000AE90F9E1E06B600302319490DF3CE0A28B
:102B9000E75004D2F08002C2F0A2F0E492E0F52304
:102BA00074206A700979017A257BF8122AD57A9304
:102BB0007BF979061218727525007526F8782512AA
:102BC00012CA7C277DF890FB7FE024FEFA7902127E
:102BD000139C74021211FD90F800E090FB7EF090BF
:102BE000F801E090FB75F0A2E550047905800279C8
:102BF000067C027DF87A787BFB1243C7E0541FC342
:102C00009411400302319490FB7878251210F775E7
:102C100083FB75821D7825120897402879047C1D56
:102C20007DFB7A787BFB1243F3E9600302319490D9
:102C3000FB7C1231EC90FB21E0687003A3E069702B
:102C40000302319490FB7878251210F77583FB7599
:102C5000821D7825120897402479047C1D7DFB7A1B
:102C6000787BFB1243F3E9701890FB7C1231EC7512
:102C700083FB758221C3E098A3E09950047A018018
:102C8000027A008A2490FBE7E0245F123823FAA33B
:102C9000E0FB121EB08A258B26AE25AF2690FB7F67
:102CA000E02426F582E434F8F583E0F525C394802A
:102CB0005013E525C313FA90FBBF1231ECEAC39819
:102CC000F8E4998017E42525F874FF13E813F890C9
:102CD000FBBF123235E8C39AF8747F9BF990FB2949
:102CE000123C815003022D7090FA0FE0F582AC8205
:102CF000E521F83395E0F9E8C39401A2D265D03319
:102D0000400DC3EC98E412381850248C218020E840
:102D1000C31217445019C3E49CFAE49400FBC3E8BF
:102D20009AE99BA2D265D0335005ECF404F521E575
:102D300022F83395E0F9E521FA3395E0FBEA28F52E
:102D400021EB39F522AA21FB121729C3EA9461125B
:102D500017434016740278211211DBAA21E522FBE9
:102D60003395E0FCFD1242E98006E52190DF08F092
:102D7000E523700302319490FBE6E06005E4F01275
:102D80003223639002E590740790FB0CF079047C89
:102D9000F37DF97AE07BFB1243C7E524600D7906E9
:102DA0007C787DFB7A1D7BFB1243C790FB75E0A20C
:102DB000E750047A0180027A0490FBCD1231E19051
:102DC000FB75E0F8741F58F8EA28F8E43400F9E8D5
:102DD0008521F0A4C8AAF08522F0A42AFA8521F062
:102DE000E9A42AF990FBD31231CD90FBD6123C8195
:102DF00050047A0080027A0B123208E8FCE9FD9058
:102E0000FB7EE0701DE490FB12F07428C39AF8E496
:102E10001231B179067C787DFB7A177BFB1243C7B0
:102E2000807590F981E0F521F52390FB7EE0F8E5CF
:102E300023C398F8E49400F990F9E5E0A2E2E521D3
:102E400050376053C3E89408E9121744504990FB87
:102E5000D6E0F523A3E0F524E88523F0A4C885F0A7
:102E6000218524F0A42521F5218523F0E9A425213D
:102E7000F9742828F8E4398015601C740168700121
:102E8000E9701490FBD6E02428F8A3E03400F9E8B8
:102E9000C39AF8E91231B1740890FB0DF090FB254C
:102EA000E0240812321C90FBCD1232357583FB757D
:102EB00082D6E0C39AFAA3E09BFB74F12AFA74FF6E
:102EC0001237E690FB7EE090FB02123C8540429078
:102ED000FB25E02410FAA3E03400FB90FB75E0A290
:102EE000E6502288828983E024F1F8A3E034FFF9D8
:102EF000E8C39EF8E99FF98A828B831237F9740838
:102F000090FB0B800BE490FB0BF08A828B83F0A389
:102F1000F090FBD6E02401FAA3E034001224CE9016
:102F2000F9E5E0A2E6501B90F9E7123244500E1288
:102F300031F690F9ED1231EC90FBDA801012323B51
:102F4000800F90F9E812324450F3123CB1E8F0A33C
:102F5000E9F090FB7EE0FC74FF6C600C90F980E07F
:102F60006006F5F0EC84ACF090F925E0FD1231E953
:102F7000E88DF0A4F8AAF08DF0E9A42AF990FBD12D
:102F80001231CDE8C39EFAE99FFB12321290F92666
:102F9000E0F52374FF6C6010E5236C700B88828968
:102FA00083EAF0A3EB0230F58523258C21E525C3C8
:102FB0009521F521E49400F52290FB75E0541FF56E
:102FC0002490F981E0F52590F9E5E0A2E2E52550AD
:102FD0004A700302305774FF6523607BECC395236E
:102FE00040030230F6C3E5219408E522121744405D
:102FF000030230F6EDC3952440030230F690FBD671
:103000001231C2CCAEF08522F0A42EFE8521F0ED67
:10301000A42EFDEA2CFAEB3DFB8082603A74FF653A
:10302000236034ECC3952340030230F6740165211C
:103030007002E52260030230F6EDC39524400302DE
:1030400030F690FBD6E02AFAA3E03BFB8882898326
:10305000EAF0A3EB0230F574FF652360030230F65B
:1030600074FF6D60030230F690FB75E0A2E7500339
:103070000230F690FB25E0241A1232DE90FB06E0C7
:10308000600314807053B4F3E5B443B404E5BDC0E9
:10309000E090FA08E0F5F0D0E08490FA07AAF0E0BA
:1030A0002A90FB06F090FB75E0FA741F5AF5219008
:1030B000FBCD1231C2FCAAF08521F0EDA42AFDE57A
:1030C000BC75F0058485F02190FBCF123235EAA45F
:1030D000FA85F0238521F0EBA42523FBEA2CFAEBFB
:1030E0003DFB90FBD1E02AFAA3E01237E690FB23E8
:1030F0001231D57401F088828983E07002A3E06008
:103100003D7A1890FB7EE070027AEF90FB7FE064DE
:1031100012700474392AFA90F9E5E0A2E6500674B8
:10312000EA2AFA8009A2E5500574FE2A1A1AEA333F
:1031300095E0FB88828983E02AF0A3E03BF090F9D8
:10314000E5E0546064207005790C121ECF90FB7F7F
:10315000E024F6F9123EB490F9E5E05448640870B2
:103160002390FBD8C3E094C8A3E09400501690FBD2
:103170007FE02425F582E434F8F583E090DF06F063
:1031800090FB01F012321212246850088882898361
:10319000E4F0A3F079001217D590F9E5E0546064EB
:1031A00020700890FB0DE0F91217D5123295021A23
:1031B000A09400F9E8C39EF8E99FF98C828D830200
:1031C00037F9E0FCA3E0FDEC8521F0A422E028F82B
:1031D000A3E039F922E0FAA3E0F5838A82A3A3A34E
:1031E00022E0F521A3E0F5222290FBCD1231F0225E
:1031F000E0F8A3E0F9221231FA2290F9EFE0F8A307
:10320000E0F990FBDC0237F990FB25E0241A12323A
:103210001C2290FB25E0240612321C22F8A3E03485
:1032200000F92290FB25121985742CF0A37401F08B
:10323000228E828F83E0FAA3E0FB2290FB23123CD4
:10324000D9740122E0FA3395E0FB90FB291231F0AA
:10325000C3EA98EB1238182274F71212307AF07B16
:103260000480091237D0EA7001EB6022C3EB9408A6
:10327000501C7C041C8C21EA2521F582EB3400F5DE
:1032800083E064FF7003EC70EBEC70D780047A008D
:103290007B0002288EC082C08390F9FEE0A2E64047
:1032A0003A90FBE7E0243A1238236410700512329A
:1032B000EB8028C2AF90FBE7E0245F1232DE90F88B
:1032C00025F090F826F0742088828983F07422908B
:1032D000DF02F075D60175E102D2AF021EABFAA390
:1032E000E03400FB8A828B830224C212248B740197
:1032F000F0A3E4F02274F112123090FB84782112D2
:1033000010F78A828B8378251210F778217925129D
:103310000A5690FC2178251210F778217925120B96
:10332000FB021A5B74E5121230E9FFEAFE90DF0837
:10333000E0F83395E0F990FB271237F97AB27BFA7F
:103340007C227DFAEE604290FB03E0F81874075887
:10335000C3332422FCE434FAFD7525098C828D8365
:103360001231EC882189227523007524008A828B12
:103370008378211211061237D0EC2410FCED3400B2
:10338000FD1525E525605C80D3790975250890FC3D
:103390003D78211210F790FB887821121106801ECB
:1033A0008C828D831231E175230075240090FB8897
:1033B00078211210B8EC24020C0CED3400FD8525A8
:1033C0002174FF2521F525E52170D590FB88782112
:1033D0001210F78A828B8378211211061237D019C6
:1033E000E970A87C0979007AB27BFA12436790FAF7
:1033F000C278211210F790FC3D782112086D7003FD
:103400000237CB75250075260075278075283F7813
:10341000211208A778257921120E1290FB517825E8
:1034200012110690FB4F746BF0A374F9F079061239
:1034300019C48A218B228C238D2490FB847821123D
:10344000110690FB8478211210F790FC4178251228
:1034500010F778217925120A56782112091F90FA5F
:10346000DEE521F0A3E522F090FB4F742FF0A3746A
:10347000F9F07A847BFB121A0E8A218B228C238D21
:103480002490FB94782112110690FB94782112105D
:10349000F7782112091F90FB8C782112110690FBFE
:1034A000C178211210F790FB27E0F523A3E0F52463
:1034B000740278231211DBE5232521FAE524352255
:1034C000FB90FB8C78211210F7EAC39521F521EBD4
:1034D0009522F522740278211211BCE52190FA217F
:1034E000F0EF602890FBE7E0243A12382364F07094
:1034F0001B90FB8C78211210F790FBC178211210E1
:10350000CBAA21AB22AC23AD241242E990FB8478F4
:10351000251210F790F94778211210F778257921B4
:10352000120BD690F93F78291210F7752D00752EE1
:1035300000752F8075303F90F94378311210F78570
:10354000252185262285272385282478217925127F
:103550000A5678317921120A56782D7931120BD614
:103560007829792D120A5690FB807829121106903D
:10357000FB8478211210F790FC4578251210F7781B
:10358000217925120BFB90FB84782112110690FB08
:103590005178211210F790FB8078251210F77821CE
:1035A0007925120A5690FB517821121106752500D3
:1035B000852582858223752400E52324F2F582E4A3
:1035C00034FBF583E0FF74FF6F70030236797402F9
:1035D00078231211DB85232185242290FB51782941
:1035E0001210F71237D9782D1210F7782D1208A77C
:1035F0007829792D120A5690FB90782912110674B9
:10360000086525600674026525702690FB90782970
:103610001210F77AD47BF91232F58A2D8B2E8C2F6B
:103620008D307829792D120A5690FB907829121145
:10363000068F23752400740378231211DBE52324FD
:103640004BF8E52434F9F990FB4F1237F990FB90D1
:1036500078291210F7AA29AB2AAC2BAD2C121950DD
:103660008A298B2A8C2B8D2CE5212498F582E52242
:1036700034FBF58378291211060525E525C3940945
:1036800050030235B090FB9878211210F7AA21ABB5
:1036900022AC23AD2412447C90FAD61224D890FB9D
:1036A0009C78211210F7AA21AB22AC23AD2412443E
:1036B0007C90FAD81224D890FBAC78211210F7AA8B
:1036C00021AB22AC23AD2412447C90FADC1224D826
:1036D00090FBB878211210F7AA21AB22AC23AD24BD
:1036E00012443390FAE01224D890FBA078211210F3
:1036F000F7AA21AB22AC23AD2412443390FADA129C
:1037000024D890FABE78211210F790FAE2E521F061
:10371000A3E522F0EE70030237CB121B3090FBBC06
:10372000E0C333F01237FF504690FA177821121099
:10373000F790FBA078251210F790FB9878291210CB
:10374000F778257929120A5690FC4978291210F742
:1037500078257929120A5678217925120BFB90FADF
:1037600017782112110690FBBCE0D2E0F0805C904B
:10377000FBBCE064FE70541232588A218B22AE21C9
:10378000AF2290FA1378211210F790FA17782512C9
:1037900010F778217925120BFB90FA13782112117A
:1037A0000679047A177BFA1243ADC3EE94F1EF94D5
:1037B000074005123CDE8013EE7001EF600D7904C6
:1037C000EEFCEFFD7A137BFA1214AD7F1402128F18
:1037D000EA2404FAEB3400FB22E52124B2F582E569
:1037E0002234FAF583223BFBEAC39EFAEB9FFB8867
:1037F0008289830224D890FAFDE8F0A3E9F02290B0
:10380000FADA1231F07583F975827D12380F22C30E
:10381000E098A3E01238182299021746F090FBE7CF
:10382000E02436122B21E02274F61212308A237C17
:10383000237DF98982858221752200E92423FEE413
:1038400034F9FFE9121311090609DB3B10158A3917
:103850002E304C3B3D3E103C3F44183C4A4E183CF9
:103860004F51333C5556413C5758703C28016A3CF7
:1038700004E7380532390BD1390CCB390DCF3B0E6B
:10388000FC3B1661391775391A95391CEF391D5AE9
:103890003C1F1D3A20423A21173A237A3A24853AAE
:1038A00025913A269D3A28AD3A29C03A2AE33A2B87
:1038B000B93A2C283B2D393B31523B336A3B3579A1
:1038C0003B368D3B38933B393E3A3ABC3B3BD93A89
:1038D00045103C46183C49103C521D3C53D73954C6
:1038E000DF3964633C7C3CEAC394024003023C7CC5
:1038F000EA603AD293122487A3A3E4F0A3F090FBEA
:1039000010E0701290FB25E024141238237002A3FB
:10391000E07003023C7C121922E490FB10F090FB53
:1039200025E02414122B1DE4F0A3023C7BC2930279
:103930003C7CEAC394024003023C7CEA60117418A8
:1039400055907010D293121922123CCF023C7BC2C8
:1039500094023C7CA2945003023C7C121922023C4B
:103960007C90F9FEE0A2E55003023C7C8523CD1259
:103970001DD6023C7C90F9FEE0A2E55003023C7C9F
:10398000EA90FB09F0121D8E80E5EE24F6F582EF39
:1039900034FF023C78EA90F9C7F0F91215B590F9B6
:1039A000E5E0A2E6402590F9C7E090DF06F012249A
:1039B000B590FBD8742CF0A37401F090FBDE742C4E
:1039C000F0A37401F075E10412180A123C9B023C4A
:1039D0007C121501023C7C90F9FEE0D2E680379023
:1039E000F9FEE0A2E55003023C7CD2E5F0801AA289
:1039F00093E492E090F9DCF0A294E492E090F9DD97
:103A0000F090F9FEE0A2E5400EE5CD90F9DEF090F1
:103A1000FB09E090F9DFF0123CDE023C7C123C9B9B
:103A200074FF90F926F090F925F0123CDE1232086E
:103A300088828983E4F0A3F0123C950239277C0048
:103A40007D0490FB05E06003023C7C90FA1BE07073
:103A500002A3E07018ECF8EDF990FA1B1237F97533
:103A6000F00A90FBE4E0A490FB05023C7B90FBE4B1
:103A7000E0C0E0EAF5F0D0E080ECEA90F9E0F09008
:103A8000DF2E023C7B90F9E5EAA2E0E092E0023C06
:103A90007B90F9E5EAA2E0E092E1023C7B90F9E557
:103AA000EAA2E0E092E2F012180A023C7C90F9E50A
:103AB000EAA2E0E092E4023C7BEA90F9E3023C7B7C
:103AC00090F9E5EAA2E0E092E5F0EA6003023C7CCE
:103AD00090FB01121804023C7C90F9FEEAA2E0E09F
:103AE00092E1F0742A69700A90F9E5EAA2E0E092A6
:103AF000E6F090F9E5E0A2E6501D123C8990FBD873
:103B0000E4F0A3123CA890FB01F0F91217BB90FB64
:103B100025E0241002392490FBDAE4F0A3F0123CF3
:103B2000B1E8F0A3E9023C7BEA90F9E4123C85405D
:103B300003023C7C90F9C7809AEA90FBD5F0A2E0A2
:103B40007583F97582E5E092E7023C7BEE249502ED
:103B50003C73E490F9C7F074FF90F926F090F925D2
:103B6000F090F927121DA5123CDE90FB2512198159
:103B7000742CF0A37401023C7BEA90F9FD123C85A1
:103B80004003023C7CEA90FB01F0023AD090F9FE3F
:103B9000023A8879107C2B7DFB7A837BF91243C72C
:103BA00079107C3B7DFB7A937BF91243C779207AAD
:103BB0002B7BFB1243AD12186C023C7CEA600CC3F9
:103BC00094205007EA90FBE4023C7B740480F6905A
:103BD000F9FEEAA2E0E092E3023C7BE975F005A47D
:103BE000F521E5F0F522E5212485FAE52234F9FBFB
:103BF0008A828B83E523F0A3AA82AB83740E69705B
:103C0000047AB77BF979047C787DFB1243C7806C1A
:103C100090F9FEE0A2E54064EE24A18056EA700728
:103C200074FF90FBE5800990FBE5E064FF6004EA27
:103C3000121DB5EE240DF582EF3400F583E52380E7
:103C40003A79047C1D7DFB740278211211DBE52199
:103C50002478FAE52234F8FB80B190F9FEEAA2E07C
:103C6000023B46EA90FC4D023AA690F9E5023BD2AF
:103C7000EE2441F582EF3400F583EAF07F0302126F
:103C80008FE8F0A3E9F00229FE90F9ED1231F090EF
:103C9000FBDA0237F91226DDA3A32290F92DE0F515
:103CA000BC90F92EE0F5BC22F01231FA90F9FDE05B
:103CB0002290F9EB1231F090FBD8E8F0A3E9F01272
:103CC0003CC32290F9F1E0F8A3E0F990FBDE2290EA
:103CD000FB25123CD9A30226FE122492A322C08205
:103CE000C0837902120852797D121ECF79F87C00C8
:103CF0007D047A237BF91214AD7919121ECF021EAE
:103D0000A874F8121230EAFEEBFFFAE9121311015F
:103D1000040C693D07012C3D02313D033E3D0D4C35
:103D20003D0E5A3D107C3D11973D9F3D90F92780F7
:103D300069EE540F90F925F0EA90F9268060EE9034
:103D4000F9E1F0EA90F9E2123DA28052793C121EAC
:103D5000CF8E828F8312122E8045EE90DF01F0EA23
:103D600090DF00F090F97B8031E9C333F8E433F958
:103D7000E824E3F582E934F9F583801E90FA1BE02C
:103D80007002A3E07019C3EF94044013C3EF9408CA
:103D9000500D90FA1B800390F97DEEF0A3EFF00236
:103DA0002A9AF090F9E1E090DF052274F1121230C6
:103DB0008923EAFEEBFF752100752200892575260F
:103DC00000740278251211DBE5252423FAE5263458
:103DD000F9FB8E828F8378251210F7E912131104F4
:103DE0000104F63D05061F3E0A15293E191A923EAA
:103DF00001187D3E9C3EEA2408F521EB3400F522B3
:103E0000740465236003023E9C782512091F741414
:103E10002525F8E43526F990F9E91237F9807DEA8D
:103E2000249DF521EB34008071740E6523700979AF
:103E3000047A4B7BFB1243AD74F62523F523C313A1
:103E4000F521740378211211DBE523A2E0E492E06E
:103E5000F525752600740278251211DBE525244B23
:103E6000F8E434F9F9E52128F521E52239F5227441
:103E70000465237027121DB6121DD6801F7523807E
:103E800075243F78217925120E1290FA1D7821129F
:103E90001106EA24BCF521EB34FFF522E52170027E
:103EA000E522600D7904EEFCEFFDAA21AB2212435E
:103EB000C7021AA074F312123089217E087FF875A8
:103EC0002201752300802DE0F525A30EAF8379062E
:103ED000EEFCEFFD7A297BF91243F3E9700E740FC3
:103EE000552490F925F0E52590F926F0EE2406FEFC
:103EF000EF3400FF8E828F83E0FA7003024119AB2A
:103F00002174FF2BF521EB70030241198A24A3AE23
:103F100082AF8374F05524F52574F0652560A89070
:103F2000FBD5E0640270031241BC8E828F83123194
:103F3000EC90FBBD1237F9EE24020E0EEF3400FFB9
:103F4000EE2402EF3400F974035524F5261212DB37
:103F50000003C83F5C3F613F7D3FA53F7522018064
:103F60006712323190F927E06A7003A3E06B7004A6
:103F70007A0180027A008A220E0EE9804A8E828FB0
:103F800083E0FA90F926E06A70128E828F83A3E0B4
:103F9000FA90F925E06A70047A0180027A008A2298
:103FA00085222380D37906EEFCEFFD7A297BF91276
:103FB00043F3E970047A0180027A008A2285222381
:103FC000EE2406FEEF3400FF90FBBDE07002A3E09C
:103FD000603290FAFDC3E09401A3E094FF4014C363
:103FE00090FBBEE09401500B90FBBD1231EC1237F8
:103FF000F68011E52260091241CA50047A0180025C
:104000007A008A228E828F83A3A882A983E5251253
:1040100013110006104A4020CA4050284070D94071
:1040200080D940901E419F41E522601374036526AC
:10403000700D7906EEFCEFFD7A297BF91243C7EE8D
:104040002406FEEF3400FF02419F90FBD5E0FA907A
:10405000F9E5E0A2E7E492E06A601090FBD5E0A207
:10406000E07583F97582E5E092E7F08E828F83E058
:10407000F525E8FEE9FF740C552412131100030026
:104080008A40049C4008B6409F41E5226009EEFA50
:10409000EFFBA925123DABEE240480A6E522600BC0
:1040A0008E828F83E0FAA9251238288E828F83A30F
:1040B0000EAF8302419FE5226008123231A925121A
:1040C0003D01EE24020E0E024043E5227003024140
:1040D0009F793C121ECF1242DAE523603C7AE07BE6
:1040E000031218707AF07B037906121872748065D7
:1040F00025700875213B7522FB800675212B7522E2
:10410000FB78211212CAEEFCEFFD7A10790212132D
:104110009C74021211FD12186C7F0602128FE523A7
:10412000607D8E828F83E0F524E8FEE9FF8E828F2A
:1041300083E0A30EAF8390F9FDF090F9C7F08E8273
:104140008F83E090F9E11241AD90F9E21241AD9018
:10415000F9261241B21231EC90F9271237F9740F97
:10416000552490F925F090F9E5E524A2E4E092E2E7
:10417000F090F9FEE524A2E5E092E4F0E524A2E661
:10418000E092E1F079047C1D7DFB7AB77BF9124364
:10419000C7123CDE90F9C7E0F91215B512180412E7
:1041A00041CA4003023EF41237F6023EF41241B215
:1041B000E022F08E828F83A30EAF832290F9E5E098
:1041C000A2E7E492E090FBD5F02290FBBD1231F023
:1041D0007583FA7582FDC3E098A3E0992274F81202
:1041E0001230E9FE90F9E5E0A2E2791450307C53F8
:1041F0007DFC7A0C7BDF1243C790FBCD74C8F0A323
:10420000E4F090FBCF7478F0A3E4F090FBD17496C7
:10421000F0A3E4F090FBD374C8F0A3E480327C6791
:104220007DFC7A0C7BDF1243C790FBCD74E8F0A3D2
:104230007403F090FBCF7458F0A37402F090FBD19C
:1042400074EEF0A37402F090FBD374E8F0A374034F
:10425000F090FBBF744AF0A3E4F0740A90DF07F01B
:10426000EEC3940D404C79067C4D7DFC7A0C7BDFCF
:104270001243C77410F090FBBF7448F0A3E4F079C8
:10428000037C7E7DFC7A237BDF1243C779087C8127
:104290007DFC7A157BDF1243C774196E7021740A96
:1042A00090DF07F074A990DF1CF0741D90DF0CF014
:1042B000800D79037C7B7DFC7A237BDF1243C779F9
:1042C000037A2F7BDF1243AD79037C897DFC7A0270
:1042D0007BDF1243C77F0102128FC082C08375C982
:1042E0000B748090FFFFF080F874F512123074FCAC
:1042F0001211EE8A218B228C238D24C2AF90DF0B0A
:10430000E0854182854283F090DF0AE0C0E07401DD
:10431000121224D0E0F090DF09E0C0E07402121223
:1043200024D0E0F085418285428378211210B8853F
:104330004182854283E090DF0BF07401121224E089
:1043400090DF0AF07402121224E090DF09F090FB73
:10435000C178211210B8E490DF08F0D2AF740412D3
:1043600011FD7F0402128F74F31212308035740332
:1043700069602F740969602AEA240CF582EB340025
:10438000F58378211210F7892575260074027825A7
:104390001211DBEA2525F582EB3526F5837821120B
:1043A00010E309E9C39C40C67F0602128FC082C099
:1043B00083800BE48A828B83F0A3AA82AB83E91902
:1043C00070F1D083D0822274F8121230801C8C825B
:1043D0008D83E08A828B83F08C828D83A3AC82AD47
:1043E000838A828B83A3AA82AB83E91970E07F0161
:1043F00002128F74F6121230E91960308A218B2272
:10440000852182852283A3AA82AB83ECFEEDFF8EF9
:10441000828F83A3AC82AD83852182852283E0F8DD
:104420008E828F83E06860D07901800279007F03FB
:1044300002128F74F11212308A218B228C238D2468
:10444000782112091F90FC8C78251210F7782579B5
:104450002112088240067AFF7B7F801B90FC9078B7
:10446000251210F77825792112088250067A017BEF
:10447000808004AA21AB227F0802128F74F11212ED
:10448000308A218B228C238D24782112091F90FCE5
:104490009478251210F77825792112088240067A3F
:1044A000FF7BFF801B90FC3D78251210F778257963
:1044B0002112088250067A007B008004AA21AB22D8
:1044C00080B56D4EC64139300000C80078009600B6
:1044D000C8000268107800DC0014001E0003009081
:1044E0000104FF0100F5B1B2B3B4B7B0B5BEB60078
:1044F0000102FFFF03FFFF05414E4453006C617250
:1045000041756775737400074175677573740007AB
:104510004175677573740007646AAA013200000070
:10452000803F0000003F66661A4200F091450AD7BE
:10453000A33B6666884200E02646000000000000BB
:10454000C8420000C8C131E33E300E5573435900E4
:10455000790701235945070014166C434091561002
:10456000A90A001176A301235951070014166C0300
:1045700040915610A90A00118135098831091D1C86
:10458000C740B2B610EA228545008000000180FFD6
:05459000FF0000010026
:040000050000083FB0
:00000001FF
:020000040000FA
:10600000E490F80078E879028002F0A3D8FCD9FA8D
:1060100090F9E7AA82AB83907F79784A790180155D
:10602000E493A3AC82AD838A828B83F0A3AA82AB74
:10603000838C828D83D8E9D9E7126C8912606B75E5
:10604000D0007581507541007542F802600043AE82
:106050000222E5AE20E7FBC2AF89AD75AB2143AEAE
:106060000100D2AF22E5AE20E7FB2280FEC3E0961E
:1060700008A3E09608A3E09608A3E0962208080883
:10608000EAC0E0EBC0E086F0E7A4FA180986F0E782
:10609000A42AFA180986F0E7A42AFA180986F0E774
:1060A000A42AFA1986F0E7A4FBE5F02AFA19088673
:1060B000F0E7A42BFBE5F03AFA190886F0E7A42BE9
:1060C000FBE5F03AFA18180986F0E7A4C5F02BFBB7
:1060D000E43AFA1908E7C5F0C6A426F6E5F03BFB5A
:1060E000E43AFA1886F0E7A4F6E5F00826F6E43B71
:1060F00008F6E43A08F6D0E0FBD0E0FA2260160891
:106100000808C6C313C618C613C618C613C618C6D1
:1061100013C6D5E0EA22E026F608A3E036F608A387
:10612000E036F608A3E036F622E026F008A3E036D3
:10613000F008A3E036F008A3E036F022C3E0C696EC
:10614000F608A3E0C696F608A3E0C696F608A3E014
:10615000C696F622E0F608A3E0F608A3E0F608A348
:10616000E0F622C3E498F8E499F91261A48026C30A
:10617000E49AFAE49BFBE920E7E91261A4E498F8C9
:10618000E499F922C3E498F8E499F91261A4E49837
:10619000F8E499F9C3E49AFAE49BFB22EB20E7CFF9
:1061A000E920E7E0B90010BB0008E88AF084F8AA0B
:1061B000F022E4FBC8FA22EB70227B10C833C8C976
:1061C00033C9335007C39AC3DBF280069A50012AC1
:1061D000DBEAC833F4C8C933F4C9FA2275F008E41D
:1061E000C833C8C933C933C99AC99B5004C92AC91D
:1061F0003BD5F0ECFBC833F4C8E4C9FA22600D08C3
:10620000C6A2E713C618C613C6D5E0F322600C0871
:10621000C6C313C618C613C6D5E0F42270042260A4
:106220000D18C6C333C608C633C6D5E0F4182225F8
:1062300041C0A8C2AF40021542F541D0A822C0D04B
:106240002541C0A8C2AF50020542F541D0A8D0D028
:10625000222541F582E43542F58322E4732541C5C8
:1062600082C0E0E54234FFC583C0E0E541C39582CA
:1062700024F9C0A8C2AF858342858241D0A8CEF060
:10628000A3E520F0A37821E608F0A3DEFAEFF0A35F
:10629000E58124FBF8E608F0A3E608F0A30808E689
:1062A00008F0A3E608F0A315811581D0E0FED0E048
:1062B000F815811581E8C0E0EEC0E02285428385B3
:1062C0004182E0A3FEE0A3F5207821E0A3F608DFF9
:1062D000FAE0A3FFE0A3C0E0E0A3C0E0E0A3C0E0D9
:1062E000E0A3C0E085A8F0C2AF85824185834285E6
:1062F000F0A8D083D08222D083D082C5F0E493A3CB
:10630000C5F0C395F0F5F0E493A3C395F04005E51F
:10631000F0048001E475F002A42582F582E5F035F1
:1063200083F583E493A3C0E0E493C0E022D083D05C
:1063300082CCC0E0E493A360061263571470FAE4C1
:1063400093A360061263761470FAD0E0FCE493A382
:10635000C0E0E493C0E022C0E0E493A3D39C5010DB
:10636000E493A3C39C400AD0E0D0E0D0E002634AAB
:10637000A3A3A3D0E022C0E0E493A36C7009D0E013
:10638000D0E0D0E002634AA3A3D0E022C082C08361
:10639000740149F5B37C10800C8A828B83E0F5B1DF
:1063A000A3AA82AB83EC1C70F0D083D08222800140
:1063B00000E5B3A2E350F922C082C0838C828D83B2
:1063C00012638C7A0C800100EA1A70FB7A10800448
:1063D000E5B2F0A3EA1A70F81263AE80CCC082C0B6
:1063E0008390F876E054F0F0741390F875F074DF51
:1063F00090F86FF074D990F870F074F890F871F02C
:10640000742590F872F0748090F873F0742590F809
:1064100074F0741090F876F074F8F5D575D46F9028
:10642000F87EE054F0F0741390F87DF074F890F872
:1064300077F0744A90F878F074DF90F879F074D9B6
:1064400090F87AF0742090F87BF0742390F87CF048
:10645000744090F87EF090F886E054F84408FAF022
:10646000741290F885F090F883E0541FF074DF9078
:10647000F881F074AF90F882F0E490F883F074F84B
:1064800090F884F0740F5A444090F886F074F8F550
:10649000D375D277D083D0822274F612625DEAFE81
:1064A000EBFF8C218D22892312606575AB2AEF905A
:1064B000F87FF0EE90F880F090F883E054E0F0E59B
:1064C0002390F884F0AA21AB227409782112620D7E
:1064D000E521F5ADEBC313EA13F5AC53D1FB75D64B
:1064E0000412604E79017F030262BCEEC0E07E7F41
:1064F000E9601643C6408005790212652AE5BEA20E
:10650000E54020EE1E70F1801A53BEFB8005790233
:1065100012652AE5BEA2E64004EE1E70F10053C6E5
:1065200080E5C643BE04D0E0FE227A177BFF00DB85
:10653000FDDAF9D9F52274F112625D7C19800F75CC
:10654000F00AECA429C0E0EC12660ED0E0F0EC1CDE
:1065500070EDE9F5257526007527007528007C008B
:1065600090F9E778211261547825792112607D90A5
:10657000F9EB7825126116852521852622852723AA
:10658000852824741078211260FD74FF5521F87459
:106590007F5522F97A197B001261A48C23E523240C
:1065A00087F8E434F8F988828983E0FDEA2487FAE1
:1065B000E434F8FB8A828B83E088828983F0ED8A59
:1065C000828B83F00CECC3941940957F080262BC67
:1065D000C082C0837B19EB1B8B82A882600C90DF8A
:1065E00006E0FAE81266096A70EC75E104740128A5
:1065F00008E43400F97A197B0012619CEA126609FA
:1066000090DF06F0D083D0822212660EE02224872B
:10661000F582E434F8F58322C3EA940112768B40C4
:1066200005EAF8EB8006C3E49AF8E49BF9E8FAE996
:10663000FB2279037C017DFA7A097BDF127F0D2230
:10664000C082C08375C9A875C958741090FFFFF047
:1066500002685974F812625DE9FEEAFFC2AF75E1A3
:106660000474F090F53AF0539BFCE59B53E9EF7509
:10667000911074326E700A90F97BE0A2E1500279B9
:1066800019127DC9EF90DF06F074326E700590F933
:1066900061800390F95DE090DF2EF090F95EE0906C
:1066A000DF05F090F8F8E090DF01F090F8F9E09065
:1066B000DF00F0439A01D2AF026FEEC082C083E9DF
:1066C000FA790C90F962E0A2E65002793212665330
:1066D000026859C082C08375D68375E10474F09056
:1066E000F53AF079047AE37BF9127EF3E490DF085F
:1066F000F012663290F962E0A2E6400890F944E0B8
:1067000090F9A8F01267A779067ABE7BF9127EF39A
:1067100090F9A4E4F0A3F079011276CC026856C097
:1067200082C083E9601C90F962E0A2E6401490F90F
:1067300060E0FA793212665390F95FE090DF05F07D
:1067400080031267A7026859C082C08375FD007577
:10675000FEDB758FFF75F12075F2FF75F30075F4A0
:10676000C075F52075CB7075CC2475CE2479107A60
:10677000937BF9127EF379001264EB90F944E0F90F
:106780001265361263DD1266321267A790F95BE07C
:10679000F5CD90F95CE0F5CF43CB14E5CBD2B9D27F
:1067A000A9439A0102685990F9A8E0F91266BB2240
:1067B000C082C08390F97FE0FA600C8ACD126C230E
:1067C0007488F0A37413F0D294026859C082C08315
:1067D00079F07C007D047AA07BF8127F0D90F8A000
:1067E000E064AA7004A3E064AA6069749790F962F7
:1067F000F0740990F97BF074FF90F944F090F95D22
:10680000F090F96674F7F0A374FEF0740290F95EEC
:10681000F0740190F95FF090F8F874F0F0A3F0E4F0
:1068200090F98DF079207CCA7D7F7A007BF9127F08
:106830000D790C7CD07D037AA07BF8127F0D90033C
:10684000DCE090F95BF09003DDE090F95CF07464BB
:1068500090F97FF080031276B9D083D0822274F74A
:1068600012625D892174012521FAE43400FB90F95C
:10687000D6E0241C1268AB800312664090F9D6E083
:10688000241C126D64C3E09401A3E012768C50E9DD
:1068900088828983E4F0A3F07F020262BC90F9F061
:1068A000E0FAA3E0FB90F9D6E02412F8A3E034006C
:1068B000F988828983EAF0A3EBF022C082C0838A40
:1068C000828B83E07002A3E0601C8A828B83E024C9
:1068D000FFF0A3E034FFF08A828B83E07002A3E034
:1068E000700479018002790002685974F712625DC0
:1068F0007E101EEEF890F9D4E028127A4E70030252
:106900006A4BE4F0EE12632D0004011E6902246953
:106910000318690938694B6A1270EA026A4B1271EE
:106920003D026A4B127622700790F9B3E0F98002BB
:106930007900127788026A4B90F9B3E0600214F094
:1069400090F9B2E0600214F07AFA7BF9126C1E60E2
:106950000F1266D390F970126F9F90F9FA126C6162
:106960007AFC7BF9126C1E600B90F962E0A2E05099
:1069700003127E6690F9A6E02401F0A3E03400F053
:1069800090F9A6C3E094E9A3E094034007E490FAE9
:1069900004F0800990FA04E06003026A4B90F96207
:1069A000E0A2E74003026A4BA2E650527AF47BF978
:1069B000126C1E601D127A80126C6190F962E0C246
:1069C000E6126C5E90F944E090F9A8F0F91266BB0B
:1069D00080797AF67BF9126C1E607012765D90F900
:1069E000A8E0F890F97EE028F8E43400F97AFA7B20
:1069F0000012619CEA90F9A8F090F97A80CD7AF2C1
:106A00007BF9126C1E603512762B126C6190F9F8CE
:106A1000E4F0A3F090F962E0D2E6127AA964FF7084
:106A20000890F944E090F97AF0E090F9A8127657CE
:106A30002410127A53F090F9A8E080907AF87BF94C
:106A4000126C1E6006126C4E126C5EEE60030268E1
:106A5000F27E101EEEC333F8E433F990F9D6E02845
:106A6000F8A3E039F988828983C3A3E012768C40C9
:106A700003026C1588828983E4F0A3F0EE12632D83
:106A80000008029C6A03AD6A04786B08356B0988BC
:106A90006B0B7E6B0DAA6B0FCB6B156C12664012E5
:106AA0006DACA3A37438F0A37401026C1490F9B216
:106AB000E07003026C1590F9B6E0602590F9ACE047
:106AC000600C14F0701090F990E4F0A3800790F936
:106AD000AFE0600214F079007A4A7BF812711380FB
:106AE0000990F9D4126DAF7401F090F8FEE0FA70DD
:106AF00003026C1590F8FDE0FBEAC394084009EB33
:106B0000C394084003026C15EB6008C39A50048BD1
:106B10002180028A21E521C394084003026C1512EA
:106B20006C3874FD2818181874FF39126C2DE8F0B1
:106B3000A3E9026C1490F962E0545064107039902B
:106B4000F9B0E0FA74FF2AF0EA6021126C4EF0907E
:106B5000F9F0E024F6FAA3E034FFFB90F9D6E02444
:106B600010127635126D7EE4F0A3800B90F944E0AC
:106B700090F9A8F090DF06F0127786026C1590F974
:106B8000D6E0126D73026C1412689D90F9F0E02447
:106B90001FF8A3E034FF126C2DA3A3E8F0A3E912C1
:106BA0007A6CA3A3A3A3A3026AA7126EB890F8FEFF
:106BB000E0F5216060C39408505B126C3874D428EF
:106BC000FA74FF12761912763580497B00E5CDC044
:106BD000E090F95BE0FAD0E0C39A500505CDE5CD31
:106BE0000B90F9C8C3E09437A3E012768C4016E509
:106BF000CFC0E090F9B1E0FAD0E0C39A500A05CFD7
:106C0000E5CF0B800375CF00EB600A126C23747123
:106C1000F0A37402F0EE6003026A530268981268EF
:106C2000BBE92290F9D6E0241E126D6822F990F992
:106C3000D61275FFA3A3A32290F9F0126F9FE885E7
:106C400021F0A4F8AAF08521F0E9A42AF92290F90C
:106C5000A8E090DF06F01265D0E090F9A822127A41
:106C60008AE8F0A3E9F022EEC0E0E9FE800579FAB7
:106C700012685EEE1E70F7D0E0FE2279047C707D13
:106C8000F97AFA7BF9127F0D2290DF36E064816099
:106C900003127E6690F9FFE02430126D647486F072
:106CA000A3746DF090F9FFE02432126D6474C6F0A5
:106CB000A3746DF0740190F537F090F9D47420F05E
:106CC000A374F5F090F9D6E4F0A374F5F0741855B8
:106CD000BEC313131390F9AEF01267CC126C7B9005
:106CE000F962E0A2E6500590F97A800390F944E059
:106CF000FAEA90F9A8F0127DBBD294D29390F9AE43
:106D0000E06402701090F95CE090F9B1F090F95BEA
:106D1000E0F5CD800E75CF0090F95CE090F9B1F010
:106D20001267B012674890F9D6126DB97438F0A3A3
:106D30007401127657126D73126D7E7405F0127A1B
:106D4000957438F0A37401F012689D7A007BF9798C
:106D500004126EA7127A417914126C671266D3126C
:106D600068EB80FB126D6822F8A3E03400F988829A
:106D70008983222416126D687405F0A3E422127A26
:106D80009BA3A3A3A322C082C083E490F9ABF0909D
:106D9000F536E004F0C394045009126DAC7432F07F
:106DA000A3E4F090F9AB126E5B02685990F9D61229
:106DB0006DB322126DB9A3A322126DBD22E0F8A318
:106DC000E0F58388822274F712625DE5BBF9E5BACB
:106DD000F874C828F521E439F52274067821126187
:106DE000FDA821A92290F9ABE064FF7008E490F9B6
:106DF000ABF0026898E0FA74012AF0EAC333FAE4CF
:106E000033FBEA2493F582EB34F9F583E028F0A311
:106E1000E039F090F9ABE0C394085005126E5B8046
:106E2000D190F9A3E004F0C3940840C179107C9399
:106E30007DF97AC47BF9127F0D79107A937BF91270
:106E40007EF3E4F090F9AAE004F06408709F740106
:106E500090F9B4F0E490F9AAF08092E024C2F582AF
:106E6000E4347FF583E0F5B622C082C083126EA1C0
:106E70007C4C7DF87A007BF879001263B87C5C7DED
:106E8000F87A107BF879001263B8742290F84AF00F
:106E900090F95FE090F84BF0740190F9B6F0026859
:106EA000597A107BF9790612638C1263AE22790647
:106EB0007CA67DF8127F0D2274F812625D90F9AC09
:106EC000E060061270A1026F9A90F9AFE0600612BE
:106ED0006FFF026F9A90F9B4E07003026F9D7E1EFF
:106EE0007F0079001276CC90F9D2126F9F90F80053
:106EF000126C6190F800126C6190DF06E090F8046B
:106F0000F074185590C333C0E090F8A2E0540FFA23
:106F1000D0E04A333354FC126FF379107CC47DF90E
:106F20007A0C7BF8127F0D90F962E0A2E6500A908D
:106F3000DF06126FA97420800CA2E5500D90F96055
:106F4000126FA9741F28FEE439FF90F962E0A2E7EE
:106F50005008EE2404FEEF3400FF90F97BE0A2E13C
:106F60005008EE2408FEEF3400FF90F81AEEF0A36C
:106F7000EFF090F9DAE0600790F992E0FA80027A97
:106F80007FEA90F81CF090F9DAE090F81DF0E5CD7A
:106F900090F81EF0E5CF90F81FF0126E69804F1246
:106FA0006FA322E0F8A3E0F922E075F064A4F8A949
:106FB000F02274F812625D8921EAFEEBFF7904EE9B
:106FC000FCEFFD7A007BF8127F0DE52190F804F0CC
:106FD00090F8A2E0333354FC4403126FF37914EEBB
:106FE0002404FCEF3400FD7A0C7BF8127F0D7F0146
:106FF0000262BC90F805F07A067BF8126EAE22743D
:10700000F612625D74EC12622F90F9AF1270D71213
:10701000619CE8F52375F00CA4FAE42A7A003408A0
:10702000FB7E008E21854182854283E5822521F801
:10703000E5833400F9E8FCE9FD74FF8C828D83F070
:107040007F007810188821EA2521F582EB3400F5BD
:1070500083E064FF6016752101752200EF7821122C
:10706000621C8C828D83E06521F08003E870D5EA94
:107070002410FAEB3400FB0FEFC3940840C40EEE6B
:10708000C39418409E854182854283AA82AB837453
:10709000F82523F9126FB2741412623E7F03026264
:1070A000BC74F812625D90F9AC1270D712619CE862
:1070B000FC90F97C74A1F0A37470F0EC75F018A446
:1070C000F8A9F090F990E028FAA3E039FB74ED2CD0
:1070D000F9126FB2026FEEE0F874FF281874FF34F3
:1070E00000F990F9FEE0FA7B0022C082C08374FFB1
:1070F00090F800F090F801F090F802F090F803F0AA
:107100007A0A7BF8126EAE126E69741290F84AF029
:10711000026859C082C08390F9B5E0701DEB90F809
:1071200077F0EA90F878F012671FC2AF741090F50C
:107130003AF075D60275E103D2AF02685974ED12C8
:10714000625D74DB12622F90DF38E0F52590DF0876
:10715000E0FE90DF3AE0F52790F825E0F52390F87F
:1071600026E0FA127622701B90F95FE0FB6A70133A
:1071700090DF05E06B700C79007A257BF8127113B3
:107180000275F590F95EE06A60030275E090DF3CFD
:10719000E0A2E75004D2F08002C2F0A2F0E492E054
:1071A000F52490F825E02403F97C257DF8854182BB
:1071B000854283AA82AB83127F0DEE3395E0FF9068
:1071C000F962E0A2E6402A12763D50048C25800A3E
:1071D0001276635005ECF404F525127672400C74B7
:1071E00002782112621C12760B8006E52190DF08DE
:1071F000F0740790F9B2F0E527C394805005E527B5
:10720000C38008E42527F874FF13E813F890F9E128
:10721000E0FAE8C39A90F9DAF0126EA17C007DF8EA
:107220007402126251AA82AB8379021263B87C1095
:107230007DF87412126251AA82AB8379021263B88C
:1072400090F800E0F52690F801E0F52779067C0239
:107250007DF87ADB7BF9127F0D741F5527C39411DB
:1072600040030275E090F9BE78291261547583F9E4
:107270007582DB782912606D50030275E06390021D
:10728000E59090F962E0A2E6402A12763D50048C27
:1072900025800A1276635005ECF404F52512767207
:1072A000400C7402782112621C12760B8006E521D4
:1072B00090DF08F0E52470030275E0740890F9B3DC
:1072C000F0127622700979017A257BF81271131277
:1072D0006C7B90F9C2E4F0A3F090F9DFF0A3F0909A
:1072E000F9BCF0A3F079067CDB7DF97ABE7BF9125C
:1072F0007F0DE527A2E75004780180027804F5218C
:10730000741F5521FEE82EF8E43400F9E875F0C842
:10731000A4F8AAF075F0C8E9A42AF974C828F8E41A
:1073200039F990F9F0126C61852682A882E860161E
:1073300090F8FEE06060C398FAE49400FBC3EA941E
:107340000812768B5050E490F9B6F0E8602C90F972
:10735000F0E0F521A3E0F52290F8FEE0C398F8E410
:107360009400F9E88521F0A4C8AAF08522F0A42AA7
:10737000FA8521F0E9A42AF9800478007900741EC6
:1073800028FAE41276191268AB79067CDB7DF97A6B
:10739000B87BF9127F0D90F9D6E02408F8A3E03409
:1073A00000F990F9F0E0242EFAA3E034FFFB126814
:1073B000B1E52690F9A9127A64403990F9D6E02413
:1073C00010FAA3E03400FBE527A2E6501B8882896F
:1073D00083E024F6F8A3E034FFF98A828B83126CF1
:1073E00061740890F9B0800BE490F9B0F08A828B58
:1073F00083F0A3F090F9F0E02405FAA3E03400FB59
:1074000090F9D6E02412127635127A64502990F958
:1074100064E0C0E090F9DAE0FAD0E0C39AA2D26565
:10742000D033500812765D12762B802490F9D41256
:107430007A5AA37401801D90F965E0C0E090F9DAF2
:10744000E0FAD0E0C39AA2D265D03350DF127A7549
:10745000E8F0A3E91276572406F8A3E03400F974A3
:10746000FF6526700302756185262190F8A2E075FC
:10747000F0C8A4FAABF074962AFAE43BFB90F8FD4E
:10748000E06009F5F0E52184E5F0F52190F8A3E04E
:10749000FC6521700302755874FF6C7075E527A2B6
:1074A000E7406F90F9D6E0241AFAA3E03400FB8A93
:1074B000828B83E4F0A3F090F9ADE06004140275D0
:1074C0006053B4F3E5B443B404E5BDC0E090F9857E
:1074D000E0F5F0D0E08490F984AAF0E02A90F9ADCC
:1074E000F0E5BC75F00384E5F02EFAE43400FBEA25
:1074F00075F0C8A4FAACF075F0C8EBA42CFB749638
:107500002AFAE43BFB1268B190F9D41275FF7401BA
:10751000804E90F8FEE06049E521C39C5043ECC3E7
:107520009521F521E49400F522C3E5219407E52295
:1075300012768C502C90F9F0E0FCA3E0FDEC852154
:10754000F0A4CCAEF08522F0A42EFE8521F0EDA4AF
:107550002EFDEA2CFAEB3DFB88828983EAF0A3EB4F
:10756000F088828983E07002A3E060397A18E5260A
:1075700070027AEF74126523700474392AFA90F954
:1075800062E0A2E6500674EA2AFA8009A2E55005F4
:1075900074FE2A1A1AEA3395E0FB88828983E02A6E
:1075A000F0A3E03BF0790A12685E85418285428350
:1075B000E0F9127B8190F962E054486408702190F0
:1075C000F9F2C3E094C8A3E094005014E523242505
:1075D000F582E434F8F583E090DF06F090F9A8F046
:1075E000790012671F127622700890F9B3E0F91241
:1075F000671F127690742512623E7F0C0262BCE017
:10760000FAA3E0F5838A82A3A3A322AA21E522FBA1
:107610003395E0FCFD127E752239FB90F9D6E0240B
:107620001A2290F962E0546064202290F96A126F85
:107630009F90F9F422126D68EAF0A3EB2290F98C86
:10764000E0F582AC82E525F83395E0F9C3EC98E4E7
:1076500099A2D265D03322F090F9D6E022127AB7FF
:10766000026C61C3E49CFAE49400FBC3E89AE99BD2
:1076700080DFE525F83395E0F9E82EF521E93FF5BF
:1076800022AA21FB126618C3EA9461EB940080C120
:10769000C082C08390F53AE0641070051276B9801C
:1076A00015C2AFE490F826F0742090F53AF075D644
:1076B0000175E102D2AF0268591276C37401F0A3DA
:1076C000E4F02290F9D6127AA3026D8174F112626D
:1076D0005D90DF08E0FA3395E0FB90F9D81268B5C9
:1076E00090F9D0E0FCA3E0FD7E0874FF2EFA1E3373
:1076F00095E0FBEAC333FAEB33FBEA24C4F582EBF3
:1077000034F9F583C3E09CF0A3E09DF0EE70DB90CC
:10771000F9D0ECF0A3EDF090F966E0F521A3E0F5E7
:107720002290F9E3782512615490F9D8E0F523A36B
:10773000E0F5247402782312621CE5232525FAE57E
:10774000243526FBEAC39521F523EB9522F5247415
:107750000278231261FDE52390F992F0E960227529
:10776000E104E5223395E0F523F52490F9E378214F
:1077700012613CAA21AB22AC23AD24127E75127794
:10778000867F080262BC790012671F12769022740D
:10779000F712625DEAFE7CA07DF8E924A0FAE434E9
:1077A000F8FBE912632D042F30E47943441D7A4F2E
:1077B00052227A5758327A1A01277A0408780543F8
:1077C000780AFA79166F78177F781A8F781CAE7856
:1077D0001FDC7820F97821D678234179244C79264A
:1077E0007579295F792A8B792B58792DD27935E9EA
:1077F0007937317939F5783A0E7A3B81793D1D7ABE
:10780000461D7A4B1D7A3E7AEE6033D293127A5E31
:10781000E4F0A3F090F9B7E0701290F9D6E02414E8
:10782000127A4E7002A3E07003027A3E1267B0E44F
:1078300090F9B71276572414127A53027A3DC29304
:10784000027A3EEE6017741855907016D293126744
:10785000B0127A5E7488F0A37413027A3DC2940267
:107860007A3EA2945003027A3E1267B0027A3E90AA
:10787000F97BE0A2E55003027A3E8ECD027A3E907B
:10788000F97BE0A2E55003027A3E8ECF027A3EEE0B
:1078900090F944F0F912653690F962E0A2E65003DF
:1078A000027A3EEE90DF06F090F9A8027A3DA293AC
:1078B000E492E090F959F0A294E492E090F95AF041
:1078C00090F97BE0A2E5400EE5CD90F95BF090F9F0
:1078D000B1E090F95CF0127AC1027A3E127A4174FA
:1078E000FF90F8A3F090F8A2127A6C127A95A3A3F5
:1078F000E4F0A380E07C007D0490F9ACE06003023A
:107900007A3E90F990E07002A3E07018ECF8EDF97F
:1079100090F990126C6175F00A90F9FEE0A490F96C
:10792000AC027A3D90F9FEE0C0E0EEF5F0D0E080E8
:10793000EC90F9FEE033333354F80490F9AF027A57
:107940003DEE90F95DF090DF2E027A3D90F962EE07
:10795000A2E0E092E0027A3DEE90F960027A3D907A
:10796000F962EEA2E0E092E5F0EE6003027A3E12E8
:1079700067A7027A3E90F962EEA2E0E092E2027A14
:107980003D90F97BEEA2E0E092E1F0742A69700A82
:1079900090F962EEA2E0E092E6F090F962E0A2E6F1
