:100000000200ECFFFFFFFFFFFFFFFF0202CFFFFF39
:10001000FFFFFFFFFFFFFFFFFFFFFFFFFFFFFFFFF0
:10002000FFFFFFFFFFFFFFFFFFFFFFFFFFFFFFFFE0
:10003000FFFFFFFFFFFFFFFFFFFFFFFFFFFFFFFFD0
:10004000FFFFFF020395FFFFFFFFFF0202E8FFFF34
:10005000FFFFFFFFFFFFFFFFFFFFFFFFFFFFFFFFB0
:10006000FFFFFFFFFFFFFFFFFFFFFFFFFFFFFFFFA0
:10007000FFFFFFFFFFFFFFFFFFFFFFFFFFFFFFFF90
:10008000FFFFFF0202B300000080FB1200FBB9007B
:10009000030200E690F1B0AA82AB839003BE78031E
:1000A00079018015E493A3AC82AD838A828B83F0BF
:1000B000A3AA82AB838C828D83D8E9D9E790F1B073
:1000C000AA82AB839003BE780179018015E493A3E3
:1000D000AC82AD838A828B83F0A3AA82AB838C82AD
:1000E0008D83D8E9D9E712026012008675D00075B9
:1000F00081A07541B07542F102008B7901227F3FEA
:10010000C0077F60C007320075DB0275DA5775E4FF
:100110000675E54490F500E479FFF0A3D9FC90F56D
:10012000007405F090F55B742CF0A37401F0A374D7
:1001300064F075C908D2B9D2AF7F3FC0079004D52B
:10014000E0B408057F08C007227F60C0072290F551
:1001500038E004F07004A3E004F022006390019002
:10016000F50063920190F55B7904E0A3639201F0DE
:10017000A3639201D9F463920190F536E4F022E48E
:1001800073C0D02541C582C0E0E54234FFC583C0BD
:10019000E0E541C3958224F3C0A8C2AF85834285C0
:1001A0008241D0A8C8F0A3E9F0A3EAF0A3EBF0A342
:1001B0007921E709F0A3D8FAECF0A3EDF0A3EEF073
:1001C000A3EFF0A3D0E0F0A3D0E0F0A3D0E0F0A341
:1001D000E520F0A3E5F0F0A322854283854182E08B
:1001E000C0E0A3E0F9A3E0FAA3E0FBA37821E0F6E6
:1001F00008A3DFFAE0FCA3E0FDA3E0FEA3E0FFA379
:10020000E0C0E0A3E0C0E0A3E0F5D0A3E0F520A3C8
:10021000E0A3F5F0E5A8C2AF858241858342F5A849
:10022000D082D083D0E0F8D0E032D083D082C5F045
:10023000E493A3C5F0C395F0F5F0E493A3C395F060
:100240004005E5F0048001E475F002A42582F58202
:10025000E5F03583F583E493A3C0E0E493C0E022A6
:10026000741090FFFFF012010822C082C08390F149
:10027000B0E0243A120385FA74206A701774019072
:10028000F521F090F538E090F55FF090F539E090C9
:10029000F560801374106A700FE490F50EF090F51D
:1002A0000FF0740190F522F074F090F53AF0D083DD
:1002B000D08222C0E074F2120181C2AF53E9EF5341
:1002C0009BFCE59B75D68312026AD2AF020380C005
:1002D000E074F212018185888890F1B0E024321236
:1002E00003B312017F020380C0E074F21201817532
:1002F00021007E007FF5C2DC12014E8E828F83C307
:10030000E09401A3E09400A2D265D033405D8E82D8
:100310008F83E024FFF0A3E034FFF08E828F83E030
:100320007002A3E07045E52112022A000162033346
:1003300003440312015C90FFFFE0600314802B1262
:1003400000FE802790F1B0E02430120385F8A3E08E
:10035000F988828983E5827002E58360E212017F79
:1003600080098E828F8374FFF0A3F0EE2402EF34B5
:10037000000E0EFF0521E521C3941050030202FB7D
:100380007F010201D912038922F8A3E03400F98821
:10039000828983E022C0E074F212018185C0C0E549
:1003A000D1A2E2500C90F1B0E024341203B3120158
:1003B0007F80CD120389F8A3E0F58388822200F5BF
:1003C000FFFFFFFFFFFFFFFFFFFFFFFFFFFFFFFF3D
:1003D000AAAA00000000506BC0000004E6BE8C0A10
:1003E0004A0D64D078095D1096080794226FBF8B80
:1003F0008FE1B8806E48814505663B94EF32DE554B
:10040000AAAA0D00FFFF506BC000001271AA35BAF6
:10041000D3BC633D91ED1C3F000087C300101C4519
:1004200095BFD6340000924210235E4100A0D0C494
:10043000F0F3C94100000000C544FB40000011C4B6
:10044000BBF34741000000002ACFDE3E00401C44C1
:100450007019F84000C013C4F0F018FC0000000050
:10046000414E4453006C61724175677573740007A7
:10047000417567757374000741756775737400077C
:10048000000000000000000000000000000000006C
:1004900000000000FFFFFFFFFFFFFFFFFFFFFFFF68
:1004A000FFFFFFFF030253BB510253BB510253BB7B
:1004B00051ACC5A73717B751380101FFBEFF414006
:1004C00003FF9F01A49A06FFB4001E00030018005A
:1004D000060090013F08F100F1000399CC29198C26
:1004E0006E645A0A070B3C0000000A00010000007D
:1004F000FFFFFFFF562E9446FFFFFFFFFFFFFFFFAA
:10050000FFFFFFFFFFFFFFFFFFFFFFFFFFFFFFFFFB
:10051000FFFFFFFFFFFFFFFFFFFFFFFFFFFFFFFFEB
:10052000FFFFFFFFFFFFFFFFFFFFFFFFFFFFFFFFDB
:10053000FFFFFFFFFFFFFFFFFFFFFFFFFFFFFFFFCB
:10080000E490F80078C679048002F0A3D8FCD9FA05
:1008100090FBC5AA82AB8390442A78D379018015D6
:10082000E493A3AC82AD838A828B83F0A3AA82ABCC
:10083000838C828D83D8E9D9E712247212086B75F4
:10084000D0007581507541007542F802080043AE32
:100850000222E5AE20E7FBC2AF89AD75AB2143AE06
:100860000100D2AF22E5AE20E7FB2280FEE06670F9
:100870001008A3E066700A08A3E066700408A3E00D
:100880006622C3E7960809E7960809E7960809E78C
:1008900096A2D265D03322C3E09608A3E09608A3BF
:1008A000E09608A3E09622080808E630E711121047
:1008B000781208BF080808C64480C61818182218FD
:1008C0001818E9799EC608CAC608CBC608CCC6C3A4
:1008D00070207996CACBCC7019798ECBCC701379F5
:1008E00086CC700EF9802ACA33CACB33CBCC33CC3A
:1008F000331930E7F2CCCBCA3350147004EA30E03D
:100900000DE4CA3ACACB3BCBCC3CCC500209C3E97C
:1009100013C6CC182313C6CB18C6CA18C6F92212A0
:10092000095F20F01430E72B74FFFCFBFA747F8022
:1009300022E4FCFBFA7480801AB48008BC00F2BB8D
:1009400000EF800F50EBF9E4C39AFAE49BFBE49CC0
:10095000FCE499C6CC18C6CB18C6CA18C6F922E45E
:10096000C9C608CAC608CBC6D3330308CCC633925F
:10097000F0C3947F402E94184019C9B90704CACB1C
:10098000CC225025C309CA33CACB33CBCC33CC33AA
:10099000D9F422F4600DC9CCC313CB13CBCA13CA4C
:1009A000D9F6CC22E4FCFBFA2214FCFBFA22E6C3C3
:1009B0003318461846184622E7C333194719471912
:1009C0004722181818E6084608700AE608C333706C
:1009D00005E633F4220822191919E7094709700AB4
:1009E000E709C3337005E733F4220922E608460815
:1009F000C3134608336002E633F422E7094709C30C
:100A0000134709336002E733F4221209EC601B122A
:100A100009FB60161209AE70071209B8600CB32208
:100A2000C0D01209B87005D0D022C32233D0D05024
:100A30001330E0EBC3E7960809E7960809E7960844
:100A400009E7962220E0E4E6970809E6970809E618
:100A5000970809E69722001209EC604F1209FB6023
:100A600012E7548066F61209C270111209B8703B81
:100A7000090909F4F618F618F618F6221209D770C3
:100A8000151209AE08080860EAE6447FF618768079
:100A900018E4F618F6221209AE60161209B87012A0
:100AA000E4F608F608F608E65480F609090918186D
:100AB0001822EAC0E0EBC0E0ECC0E0EDC0E0E68761
:100AC000F0A4FBACF008E687F0A42CFCE435F0FAC7
:100AD0001809E687F0A42C4B60027401CA35F0FCBB
:100AE000E433FB09E687F0D2F7A42CCB35F0FC19F0
:100AF00008E687F0A42BCC35F0FBE433FD0819E6BB
:100B000087F0D2E7A42C4ACB35F0CD3400FC09E6BF
:100B100087F0D2E7A42DCC35F0FDE433FA0918E6CE
:100B200087F0D2F7A42CCD35F0CA3400FC08E68754
:100B3000F0D2E7D2F7A42ACC35F07A7E20E70B0A70
:100B4000CB33CBCD33CDCC33CC33CB33501470043B
:100B5000ED30E00ED2F1E4CD3DCDCC3CCC3B5005A8
:100B6000DA05C2F1EB547FC63308E63392F0FBE7B7
:100B70003309E733C39A502D2B70190C0D4C4D706F
:100B8000151806E608C333700D20F10AA2F013F61B
:100B9000E418800B4024E4F630F002768018F61852
:100BA000F618F68024D33B14501074FFA2F013F60D
:100BB000187680E418F618F6800FA2F013F618E6FF
:100BC0003303F618ECF618EDF6D0E0FDD0E0FCD0DB
:100BD000E0FBD0E0FA221209FB60461209EC603D0E
:100BE000E9687008F618F618F618F622748067F7A8
:100BF000120C0A090909748067F7221209EC601DBA
:100C00001209FB7005191919801A1209C2701F12F6
:100C100009D7C37003E66733191919400718181864
:100C20002208080874FFF618F618F618F6221209BA
:100C3000D760171209B8702192F01209AE701950DE
:100C40001720F014080808090909E7F61819E7F64B
:100C50001819E7F61819E7F6221209AE60E6E869F6
:100C6000701F0808E62480F608E436F618547FB4AE
:100C70007F0CE654806007F6E418F618F622181880
:100C800022E9C6CC08C6CD08C6CE08C6CFC0E0E86B
:100C9000C0E0EAC0E0EBC0E009E9F809E7FA09E7DB
:100CA000FBE6F918E6F8C3EC98ED99EE9AEBC2E78B
:100CB000F5F0EFC2E795F0500E600CEBCFFBEACEFB
:100CC000FAE9CDF9E8CCF8EAA2E7D2E7FAEB33FB90
:100CD00013F5F0EEA2E7D2E7FEEF33FFC5F013A263
:100CE000E730E601B313C5F0C3C0E0C0F07F00C336
:100CF0009BFB605B9418600C401AD0E023F9D0E0B5
:100D0000F8020DD98AF0E9486003D2F0E4AFF0FAB6
:100D1000F9F8803BEB30E40D89F0EA6003D2F0E4AF
:100D2000AFF0F9CAF8EB30E30D88F0EF6002D2F0D3
:100D3000AFF0E4CAC9F8EB54076014FBC3EA13FA36
:100D4000E913F9E813F8EF135002D2E0FFDBEDD01E
:100D5000E0C0E030E739C3E49FFFF5F0EC98FC42D7
:100D6000F0ED99FD42F0EE9AFE42F0D0E0F9D0E0CD
:100D7000F8E5F0607AE923F9EE20E742D8028067CF
:100D8000C3EF33FFEC33FCED33FDEE33FE80EAECD2
:100D900028FCED39FDEE3AFED0E023F9D0E0F84032
:100DA00002801BC3EE13FEED13FDEC13FCEF13509A
:100DB00002D2E0FF08B800067F7F74FF802EEF3379
:100DC00050178CF020F00260100CBC000C0DBD0020
:100DD000080EBE000408E860DFE933E813FFEE23E5
:100DE00013FE4F4D4C8008E95480FFE4FEFDFCEEFD
:100DF00033EF33F47004FCFD7E80D0E0FBD0E0FAEA
:100E0000D0E0F8D0E0CFC618CEC618CDC618CCC6F4
:100E1000F9221209EC7004181818221209FB700D3F
:100E200074FFF61819F61819F61819F622E7548007
:100E300066F61209AE700F1209B870F014F608F6D3
:100E400008F608F680D11209B8700CF608F6087694
:100E50008008E6447F80EC1209DA700C1209C56044
:100E6000BFE65480F6E480BB1209C5700519191954
:100E700080A5E869700C763F18768018F618F6E8B9
:100E8000F922E6CDC0E018ECC0E0E633CD33CDD397
:100E900013F6E719FCE7191933CC33C3947F400EDE
:100EA000CD9D502408E65480F6E418F6800FF40433
:100EB0003D14501408E6447FF6187680E418F618BE
:100EC000F6D0E0FCD0E0FD22CCD313CCFD18E4C674
:100ED000CBC0E018E4C6CAC0E00808ED08C633E697
:100EE00013F618E433C675F003C3CA97CA09CB9743
:100EF000CB199C40047D08802EBD0003020FBB1659
:100F0000B6FF050606081618C3CA33CACB33CB335F
:100F1000CA27CA09CB37CB193CC37D08803E187D50
:100F20000820E75CC633C6CA33CACB33CB33DDF106
:100F3000D5F0EB30E77BCA97CA09CB974ACB199C0F
:100F4000406F4B7025E620E0218066187D08C3CAFB
:100F500097CA09CB97CB199CD3C633C6CA33CACB21
:100F600033CB3350C9DDE7D5F0E1D3E4C636C6084C
:100F7000C636C608C636C608C636C6181818803122
:100F8000C3CA97CA09CB97CB199CB34097C633C63F
:100F9000CA33CACB33CB33DD34D5F02EC6A2E0C67C
:100FA00040C8CA27CA09CB37194A70BECB3CB480A7
:100FB000B90808E63308E633601F181818D0E0FABD
:100FC000D0E0FBD0E0FCD0E0FD22187D08CA27CAA3
:100FD00009CB37CB193CD3808013F618E4B67F11C8
:100FE000F618B6FF0EF618C60470D2080876808090
:100FF000CAF618F618F680C5080808EAC0E0EBC083
:10100000E086F0E7A4FA180986F0E7A42AFA18099E
:1010100086F0E7A42AFA180986F0E7A42AFA1986C6
:10102000F0E7A4FBE5F02AFA190886F0E7A42BFB09
:10103000E5F03AFA190886F0E7A42BFBE5F03AFA56
:1010400018180986F0E7A4C5F02BFBE43AFA190852
:10105000E7C5F0C6A426F6E5F03BFBE43AFA1886AD
:10106000F0E7A4F6E5F00826F6E43B08F6E43A08D3
:10107000F6D0E0FBD0E0FA22181818E4C396F60880
:10108000E496F608E496F608E496F6226016080858
:1010900008C6C313C618C613C618C613C618C61387
:1010A000C6D5E0EA22E026F608A3E036F608A3E07B
:1010B00036F608A3E036F622E026F008A3E036F084
:1010C00008A3E036F008A3E036F022C3E0C696F6A7
:1010D00008A3E0C696F608A3E0C696F608A3E0C605
:1010E00096F622C3E096F008A3E096F008A3E096F7
:1010F000F008A3E096F022E0F608A3E0F608A3E0EB
:10110000F608A3E0F622E6F008A3E6F008A3E6F06E
:1011100008A3E6F022CAC0E0E6F0A308DAFAD0E0BD
:10112000FA22C3E498F8E499F91211638026C3E423
:101130009AFAE49BFBE920E7E9121163E498F8E4EA
:1011400099F922C3E498F8E499F9121163E498F844
:10115000E499F9C3E49AFAE49BFB22EB20E7CFE998
:1011600020E7E0B90010BB0008E88AF084F8AAF094
:1011700022E4FBC8FA22EB70227B10C833C8C933C3
:10118000C9335007C39AC3DBF280069A50012ADBA9
:10119000EAC833F4C8C933F4C9FA2275F008E4C8C0
:1011A00033C8C933C933C99AC99B5004C92AC93B3A
:1011B000D5F0ECFBC833F4C8E4C9FA22600D08C6C8
:1011C000A2E713C618C613C6D5E0F322600C08C602
:1011D000C313C618C613C6D5E0F422700422600DEE
:1011E00018C6C333C608C633C6D5E0F41822254155
:1011F000C0A8C2AF40021542F541D0A822C0D025F8
:1012000041C0A8C2AF50020542F541D0A8D0D022BB
:101210002541F582C0A8C2AF40021542F541D0A8D1
:10122000854283222541F582E43542F58322E47329
:101230002541C582C0E0E54234FFC583C0E0E541F9
:10124000C3958224F9C0A8C2AF858342858241D06C
:10125000A8CEF0A3E520F0A37821E608F0A3DEFAFB
:10126000EFF0A3E58124FBF8E608F0A3E608F0A37D
:101270000808E608F0A3E608F0A315811581D0E080
:10128000FED0E0F815811581E8C0E0EEC0E02285CF
:101290004283854182E0A3FEE0A3F5207821E0A30C
:1012A000F608DFFAE0A3FFE0A3C0E0E0A3C0E0E0BF
:1012B000A3C0E0E0A3C0E085A8F0C2AF858241856D
:1012C000834285F0A8D083D0822274028000C0E0DF
:1012D000F404121210D0E012111522D083D082C56E
:1012E000F0E493A3C5F0C395F0F5F0E493A3C395A0
:1012F000F04005E5F0048001E475F002A42582F5D4
:1013000082E5F03583F583E493A3C0E0E493C0E085
:1013100022D083D082CCC0E0E493A3600612133BBA
:101320001470FAE493A3600612135A1470FAD0E012
:10133000FCE493A3C0E0E493C0E022C0E0E493A304
:10134000D39C5010E493A3C39C400AD0E0D0E0D0DB
:10135000E002132EA3A3A3D0E022C0E0E493A36C89
:101360007009D0E0D0E0D0E002132EA3A3D0E02299
:10137000C082C083740149F5B37C10800C8A828BD3
:1013800083E0F5B1A3AA82AB83EC1C70F0D083D0CC
:101390008222800100E5B3A2E350F92274F7121211
:1013A000308922ECFEEDFF7409121224E0F8A3E06C
:1013B000F988828983EAC4540FF5218015E5B2F0DB
:1013C000A3EB1B70F81213921521EE2410FEEF34DC
:1013D00000FFE5216016EEFAEFFBA9221213707BE5
:1013E0000C800100EB1B70FB7B1080D57F0202128A
:1013F0008FC082C08390F876E054F0F0741390F8B8
:1014000075F074DF90F86FF074D990F870F074F89C
:1014100090F871F0742590F872F0748090F873F081
:10142000742590F874F0741090F876F074F8F5D58F
:1014300075D46F90F87EE054F0F0741390F87DF05E
:1014400074F890F877F0744A90F878F074DF90F8B8
:1014500079F074D990F87AF0742090F87BF07423C6
:1014600090F87CF0744090F87EF090F886E054F8A4
:101470004408FAF0741290F885F090F883E0541F55
:10148000F074DF90F881F074AF90F882F0E490F897
:1014900083F074F890F884F0740F5A444090F88602
:1014A000F074F8F5D375D277D083D0822274F61217
:1014B0001230EAFEEBFF8C218D228923120865751C
:1014C000AB2AEF90F87FF0EE90F880F090F883E090
:1014D00054E0F0E52390F884F0AA21AB2274097857
:1014E000211211CCE521F5ADEBC313EA13F5AC5392
:1014F000D1FBD2B875D60412084E79017F030212CF
:101500008FC082C08390F888E4F0A3F07980FC1249
:10151000154BD083D08222C082C083C2B890F88796
:10152000E0602690F888E02480F0A3E03400F0E446
:1015300090F887F0C390F889E09480500C798090FF
:10154000F888E0FCA3E012154B80C7FD7A8A7BF88F
:1015500012432F798090F888E0FCA3E0FD7A8A7B23
:10156000F81214ADE990F887F022EEC0E07E7FE932
:10157000601643C640800579021215A9E5BEA2E5B2
:101580004020EE1E70F1801A53BEFB8005790212D6
:1015900015A9E5BEA2E64004EE1E70F10053C68018
:1015A000E5C643BE04D0E0FE227A177BFF00DBFDD8
:1015B000DAF9D9F52274F11212307C19800F75F026
:1015C0000AECA429C0E0EC12168DD0E0F0EC1C70FF
:1015D000EDE9F5257526007527007528007C00903B
:1015E000FBC578211210F778257921120FF890FBAE
:1015F000C978251210A585252185262285272385D2
:1016000028247410782112108C74FF5521F8747FEF
:101610005522F97A197B001211638C23E523240AE1
:10162000F8E434F9F988828983E0FDEA240AFAE4CF
:1016300034F9FB8A828B83E088828983F0ED8A8289
:101640008B83F00CECC3941940957F0802128FC075
:1016500082C0837B19EB1B8B82A882600C90DF0613
:10166000E0FAE81216886A70EC75E1047401280843
:10167000E43400F97A197B0012115BEA12168890A3
:10168000DF06F0D083D0822212168DE022240AF5E4
:1016900082E434F9F5832274ED121230892190FB33
:1016A0004B78251210F790FC2078291210F7782536
:1016B0007929120A0A50237525E97526267527B15E
:1016C00075284090F95B78291210F778257929124E
:1016D0000E1290FB4B78251211067522007523001F
:1016E00075240078211208C290FB4B78251210F760
:1016F00078217925120A5690FC2478251210F77863
:10170000217925120BFB782112091FA821C3E5229C
:101710009401400278FFE8F97F0C02128FC3EA942B
:1017200001EB1224564005EAF8EB8006C3E49AF870
:10173000E49BF9E8FAE9FB2279037C1A7DFC7A093B
:101740007BDF12432F2274F8121230E9FEEAFFC247
:10175000AF121865539BFCE59B53E9EF759110742C
:10176000326E700C90F9FEE0A2E15004791980020B
:10177000EEF9124145EF90DF06F074326E7005907D
:10178000F9E4800390F9E0E090DF2E123D05F0903F
:10179000F97BE090DF01F090F97CE090DF00F0430E
:1017A0009A01D2AF022A0EC082C083E9FA90F9E50D
:1017B000E0A2E6500479328002790C121746021E2C
:1017C00020C082C08375D683E9601C90F9E5E0A251
:1017D000E6401490F9E3E0FA793212174690F9E204
:1017E000E090DF05F080031217ED021E2090FB0150
:1017F000E0F91217A722C082C08375D6831218653C
:1018000079047AC17BFB124315E490DF08F01217CC
:101810003812185890F9E5E0A2E6500590FB0180D7
:101820000390F9C7E0F9E990FB01F01217A77906D8
:101830007A1D7BFB12431590FAFDE4F0A3F090FBB8
:101840000EE060077A0079011232A2123269122486
:101850002990FB0BF0021E207A837BF97904121386
:10186000701213922275E10490FBE6E0243A122AEA
:101870009574F0F02274F112123075FD00758FFF2F
:10188000E5F275F2FF7A00752101752200EA7821F0
:101890001211DBE52145F2F5F20AEAC3940840E7AC
:1018A00075F4C075FEDB75CB7075CC2475CE2475D0
:1018B000F12075F52075FF0FC2A1C2A279127AE856
:1018C0007BFA12431575F300790012156AE490DF74
:1018D00008F090F9C7E0F91215B51213F112173894
:1018E0001217ED75210075220075238075243F9035
:1018F000F93F78251210F778217925120E1290FA07
:101900001D782112110643CB14E5CBD2B9D2A943DD
:101910009A01021A93C082C08390FA02E0FA601E14
:1019200090F9DEE0FBEAC39B5003EA8001EBFC8CFC
:10193000CD1223EC7488F0A37413F0121D4BD294D3
:10194000021E2074F11212308A218B228C238D24E6
:1019500012197178251210F778257921120A56127A
:1019600019B078211210F778257921120BFB021A91
:101970008B90FB4F1219782212197C2212198022A7
:10198000E0F8A3E0F58388822274F11212308A21F4
:101990008B228C238D241219B078251210F778250C
:1019A0007921120BD612197178211210F7021A84BC
:1019B00090FB4F1226602274F11212308921752299
:1019C00000740278211211DB12375778211210F7B8
:1019D00078211208A790F93F78251210F77821791D
:1019E00025120A5690FB5178251210F77821792597
:1019F000120A56AA21AB22AC23AD24121989021A6D
:101A00009374F112123012197178211210F77D01BE
:101A10008A828B8378251210F778217925120A564D
:101A20008D25752600740278251211DB90FB4FE09E
:101A30002525FCA3E035268C82F58378251210F746
:101A400078217925120BFB0DEDC3940440C2AA2125
:101A5000AB22AC23AD24803B74F11212308A21EB0F
:101A6000F522121A981208A790FB5578251210F744
:101A700078217925120A56AA21AB22AC23AD241273
:101A80001943800F78257921120A56AA25AB26AC76
:101A900027AD287F0802128F3395E0F523F52478CF
:101AA000212274F712123079F47C007D047A237BB2
:101AB000F912432F90F923E064AA7004A3E064AA0A
:101AC000702B1231D6EA7001EB601AC3EA94F5EB81
:101AD000940440117904EA24FCFCEB34FFFD7A13F2
:101AE0007BFA12432F79047A177BFA802C74FF90CB
:101AF000F9C7F090F9E9747EF0A374FF121D2DE48C
:101B000090FA10121D1C790C7CD47D037A237BF98A
:101B100012432F79087A137BFA124315E490FB11D4
:101B200002280D74F112123090F93F78251210F747
:101B300090FB61121D3B1208C278257921120E120A
:101B400090FB55782512110690FB4F7463F0A37437
:101B5000F9F090FB631231A2121A588A218B228C61
:101B6000238D24782112091FA821A922E490FB0FBC
:101B7000F090F97FE0FA602175F0E8A4CAACF07546
:101B8000F003A42CFCE42CFBE89AE99B50047A01B6
:101B900080027A00EA90FB0FF090FA10E0FD60728C
:101BA00075F064A4FAACF0E42CFBE89AE99B5004CD
:101BB0007A0180027A00EAFB90FB11E07049EB6049
:101BC0006574FF90F9C7F090FB011223B9C2E4F0ED
:101BD000D2E2F090F9FEE0C2E41223B9541FF0E41F
:101BE00090F926F090F925F090F97F1223B9C2E020
:101BF000F090F9FEE0549F121D1C90F97B74F012D6
:101C00001D2B90FB11801BEB701CEDFE121AA2EE37
:101C1000800A90FB11E0600E121AA2E490FA1012F2
:101C200023B0F01217F690FB4F746BF0A374F9F029
:101C300090FB65121D3B1208C290FB5578251210CF
:101C4000F778217925120A56AA21AB22AC23AD24BC
:101C50001219898A218B228C238D24782112091F45
:101C6000AA21AB2290FA06E0F5217003021D11743F
:101C7000FF65217003021D1190FB6BE07002A3E071
:101C8000600990FB6B121EB7021D117522007403D0
:101C900078211211DB90FB6BE521F0A3E522F09097
:101CA000FB6DE0603490FA05E0F8C3EA98EB12248B
:101CB000565018A294400312191590FB09E090FBAE
:101CC000081223ABE490FB6DF08043A294503F9048
:101CD000FB08E0603914F08032A294503190FA048D
:101CE000E0C39AE49BA2D265D033502290FA09E077
:101CF000FB90FB08E0FAEBC39A5003EB8002E01480
:101D0000F0740190FB6DF090FB08E0121D14121DA1
:101D10004B021A93F9121697E9F5CF22F079207C3D
:101D2000FA7DFB7A837BF912432F22F0A3F0740231
:101D300090F9E1F0740190F9E2F022E0F521A3E0DE
:101D4000F52275230075240078212274ED121230DB
:101D500090F9BC121E141208C290FB08E0F525751C
:101D6000260075270075280078251208C290FC28E7
:101D700078291210F778257929120A5690FC2C78C8
:101D8000291210F778257929120BFB782179251271
:101D90000A5690FC3078251210F778217925120A1E
:101DA00056AA21AB22AC23AD2412439B90FB151203
:101DB000244890F9BB121E141208C285CD25752641
:101DC0000075270075280078251208C290FC347829
:101DD000291210F778257929120A5690FC387829AB
:101DE0001210F778257929120BFB78217925120A30
:101DF0005690FC3078251210F778217925120A5672
:101E0000AA21AB22AC23AD241243E490FB1312248D
:101E100048021718E0F521752200021D42123269AE
:101E2000D083D08222C082C0831223E2C3E89AE921
:101E30009B500874FF281874FF39F9E8C39AFAE92F
:101E40009BFB80DC74F712123090FB25E0241CFA17
:101E5000A3E03400FB892174012521F8E43400F962
:101E60008A828B83E8F0A3E9800B75C9A875C958ED
:101E7000741090FFFFF08A828B83C3E094011224D8
:101E80005450E78A828B83E4F0A302280DC082C0FD
:101E9000838A828B83E07002A3E060168A828B8340
:101EA000121EB78A828B83E07002A3E0700479016E
:101EB00080027900021E20E024FFF0A3E034FFF04E
:101EC0002274F51212307E03EE1E700302207A7423
:101ED0001090FFFFF075210080197ADE7BFB122342
:101EE000A660071223D11223C9F00521E521C3946E
:101EF0001050D5A82190FB23E0281237A160EBE415
:101F0000F0E521121311000501391F02191F0334D6
:101F10001F09881F0B3E1FEA1E90F9E5E05460641C
:101F200020700790FB0DE0F9800279001217C112B2
:101F3000321380B6122A1380B1122AA080AC123B51
:101F4000F8123163C3E89429E91224565006E87068
:101F500001E970097A0179001232A2800990FB230D
:101F6000E0240B12264F90F97D1231637583FA75C8
:101F700082DA12378D4003021EEAE490FB08F07506
:101F8000CF00122675021EE990FB0CE0600214F0EF
:101F90007AE07BFB1223A6600F1217F690F9F3127A
:101FA000316390FBE01237777AE27BFB1223A66065
:101FB0000B90F9E5E0A2E0500312424290FAFF12C2
:101FC00023BF90FAFFC3E094E9A3E094034007E441
:101FD00090FC1DF0800990FC1DE06003021EEA9059
:101FE000F9E5E0A2E74003021EEAA2E650597ADAD8
:101FF0007BFB1223A6602190F9EB12316390FBD892
:1020000012377790F9E5E0C2E6F01223C91223B047
:10201000F0F91217A7021EEA7ADC7BFB1223A670E6
:1020200003021EEA12316D90FB01E0F890FA01E024
:1020300028F8E43400F97AFA7B0012115BEA90FB8D
:1020400001F090F9FD80C97AD87BFB1223A67003BA
:10205000021EDA123BEC90FBDEE4F0A31223B9D2AD
:10206000E6123C0B64FF700890F9C7E090F9FDF0B0
:10207000E012242590FB01E08097741090FFFFF0A0
:10208000752100E521C333F8E433F990FB251231C3
:102090003A12244E400302239588828983E4F0A3F8
:1020A000F0E5211212DB020D9523C620D520002277
:1020B000882195219523C02162228D210B22D322D4
:1020C000252395239D2275C9A875C958122656A3A4
:1020D000740102239490FB0CE0700302239590DFBF
:1020E00005E0FA90F9E2E06A70047A0180027A0071
:1020F000EA90FB74F090FB12E0700302217E90FBEB
:1021000005E0600C14F0701090FA1BE4F0A3800757
:1021100090FB0AE0600214F079007A4A7BF8122AF8
:102120004990F981E0FA700302239590F980E0FB71
:10213000EAC394084009EBC394084003022395EBDB
:102140006008C39A50048B2380028A231231309096
:10215000F9E5E0A2E25010E523C39408400302230E
:102160009512240E022381740165236003022395D6
:1021700090FBD6E024FDFAA3E034FF02238B90FB12
:1021800023121974A30220CFC293022395740190E5
:10219000FB1002239490F9DCE0700E90F9DDE06012
:1021A00008D293123C32F0800890F9DCE0A2E09271
:1021B0009390F9DDE070030223951219150223951F
:1021C00090F9E5E054506410703690FB0BE0FA741F
:1021D000FF2AF0EA60181223D190FBD61231A290A8
:1021E000FB25E02410122A91EAF0A3EB800B90F972
:1021F000C7E090FB01F090DF061223F6E4F0A3F0B5
:1022000079001217C1123213022395122666F0903C
:10221000FB701223BF90FB70C3E094E8A3E094032B
:10222000500302239590FB70E4F0A3F090FB72E062
:1022300004F0C3943C5003022395E4F090FB73E058
:1022400004F0600E75F00F84E5F07006740190FBE9
:10225000E5F090FB73E0C3943C5003022395E40245
:1022600023941224371231607583FB7582D6E0C344
:1022700098F8A3E099F974E728F874FF39F990FB0E
:1022800025123154A3A3A3A3A31237771231A8F0C8
:1022900090FB0DE070030223951402239490F9DE65
:1022A000E0FBE5CDC39B502590FA0DE0FCE5CDFAAF
:1022B000EC70057C0180010AEC1C6005EAC39B40C0
:1022C000F68ACD1223EC7488F0A37413F0121D4B20
:1022D00002239590FB25E02418123189E8FEE9FFDE
:1022E00012377D503690FB08E0C0E090FB09E0FA21
:1022F000D0E0C39A50D790FA0AE0FC90FB08E0FBCC
:10230000EC70057C0A80010BEC1C6005EBC39A4065
:10231000F6EB1223AB8E828F8380ABE490FB08F048
:1023200075CF0080F01223E290FB1B123777122842
:102330001D90FB1B1231A2121E2590FB1B1224487C
:1023400090F981E0F523604D12317F90F9E5E0A22C
:10235000E2501BE523C39408503B12240EFB90FB74
:102360001BE0FCA3E0FDEAC39CFAEB9D8013740123
:10237000652370217583FB7582D6E0C39AFAA3E0CA
:102380009BFB74FD2A1A1A1A74FF3BFB888289830F
:10239000EAF0A3EBF00521E521C3941050030220DD
:1023A000837F0402128F121E8DE922F0F9021D159F
:1023B000F090F9C7E090FB0122F090F9E5E022E00F
:1023C0002401F0A3E03400F022123C26E8F0A3E957
:1023D0002290FB01E090DF06F012164FE090FB0127
:1023E000F02290FB6E1219781231672290FB25E0E3
:1023F000241E122A9522F01223FB2290FB25122480
:102400000222121980A3A3A3A3A3A3A3A32290FB38
:10241000D6E0FAA3E0FBEA8523F0A4FAACF085232A
:10242000F0EBA42C2290FB01F090FB25E02410128D
:102430002A95E4F0A3F02290FBD6E0FAA3E0FB900B
:10244000FB25E02412122A95EAF0A3EBF022F9888A
:10245000828983C3A3E09400A2D265D03322EEC068
:10246000E0E9FE800579FA121E44EE1E70F7D0E016
:10247000FE22748090FFFFF090DF36E064816003FD
:1024800012424275C9A875C958D2B97E007F008E24
:10249000218F22740A78211211DB2400F874083588
:1024A00022F9741090FFFFF07C007D00E8FAE9FB50
:1024B0008A828B83A3A882A9838A828B83E064FFAC
:1024C00070047A0180027A00EAFBEC24010CED34FE
:1024D00000FDEB6009C3ED940440D112603FEE248F
:1024E000010EEF3400FFC3EE940FEF940040A09074
:1024F000FBE6E02430122A917485F0A3742612269C
:10250000492432122A9174BAF0A37426122649245F
:1025100034122A917417F0A3741512264924371225
:10252000264F90FBE6E0245B122A91742CF0A374F2
:1025300001122649242012318990FB23123777900B
:10254000FBE612316390FB2512377790FBE6E0241F
:102550003812318990FB6E123777741855BEC31349
:10256000131390FB07F0121AA279047CF37DF97A19
:10257000E07BFB122978500590F9FD800390F9C7A4
:10258000E0FAEA90FB01F012412490FB07E01212FE
:10259000DB00030E26CD25CD259D25CD2590F9DC2C
:1025A000E06004D2938002C29390F9DDE06004D22F
:1025B000948002C29490F9DEE0F5CD90F9DFE0F965
:1025C00090FB08F090FB09F0121D15804190FA0273
:1025D000E0FA60048ACD800690F9DEE0F5CDC29382
:1025E000C29490F9DCE0A2E09293E490FB08F075CD
:1025F000CF0090F9DFE090FB09F090FB25E0240C80
:10260000122A917498F0A3743AF0122675F01218F9
:1026100075790C12245E1231901226661223F6741C
:1026200005F0A3E4F0122656A37401F01224371229
:102630001858123BFE121D4BC291791412245E12DF
:1026400017F6D291121EC180FBF090FBE6E0221239
:102650002A957401F02212265D7438F02290FB2531
:1026600012197C02240990FB25E02416122A957485
:1026700005F0A3E42290FB25E02418122A95748823
:10268000F0A3741322C082C083E490FB0412379A33
:102690000412379AC39404500E90FB25121974A3A8
:1026A000A37414F0A3E4F090FB04E024E8F582E4C2
:1026B00034FBF583E0F5B6021E2074F5121230E506
:1026C000BBF522E5BAF52190FB04E0FC74012CF087
:1026D000740278211211BC90FC1EE02521FAA3E0BF
:1026E0003522FBECC333F8E433F9E824E8F582E95A
:1026F00034FAF583E02AF0A3E03BF090FB04E0C35A
:1027000094095010E024E8F582E434FBF583E0F509
:10271000B60227CE90FAFAE004F0C3940850030200
:1027200027C990FAEEE0FEA3E0FF7CE87DFA7A5933
:102730007BFB90FB03E0C333F8E433F9E82422F891
:10274000E934FAF97523098C828D83E0F521A3E041
:10275000F52288828983E521F0A3E522F0E521C3F3
:102760009EF521E5229FF5228A828B83E521F0A345
:10277000E522F0E82410F8E93400F9EA24020A0A14
:10278000EB3400FBEC24020C0CED3400FD1523E5CA
:102790002370B490FB23E0240BF8A3E03400F98805
:1027A0008289837401F079127AE87BFA124315E486
:1027B00090FAFAF090FB03E004F06408700B7401E7
:1027C00090FB0EF0E490FB03F0E490FB04F0022396
:1027D000A174F71212307A937BF9790612185E759C
:1027E000214C7522F878211212CA7C007DF87A20DB
:1027F000790012139C74021211FD742290F84AF0B1
:1028000090F9E2E090F84BF0740190FB12F07F0237
:1028100002128F79067C297DF912432F2274F1125E
:10282000123074FC1211EE90FB05E060061229CC08
:1028300002296490FB0EE0700302296790FA137876
:10284000211210F790FA1778251210F778217925C0
:10285000120BFB85418285428378211211067E325C
:102860007F007A0079001232A290F9FEE0A2E779A7
:102870000450067C177DFB800A854182854283AC2B
:1028800082AD837A007BF812432F90FB01E090F831
:1028900004F074185590C333C0E090F925E0540F4C
:1028A000FAD0E04A333354FC1229C079107CD67D2B
:1028B000FA7A0C7BF8122978500A90DF0612296FF9
:1028C0007434800CA2E5500D90F9E312296F743333
:1028D00028FEE439FF90F9E5E0A2E75008EE240471
:1028E000FEEF3400FF90F9FEE0A2E15008EE24086C
:1028F000FEEF3400FF90F81AEEF0A3EFF090FB2902
:10290000E07002A3E0600790FA21E0FA80027A3FCB
:10291000EA90F81CF090FB29E07002A3E0700B90A5
:10292000FB7612316390FB29800990FB29123163F9
:1029300090FB7612377790FB29E090F81DF0A29477
:10294000500BE5CD90F81EF090FB08800B90F9DE5F
:10295000E090F81EF090FB09E090F81FF090FB2942
:10296000E4F0A3F01227D174041211FD021A93E0CF
:1029700075F064A4F8A9F02212432F90F9E5E0A2C3
:10298000E62274F81212308921EAFEEBFF7904EE98
:10299000FCEFFD7A007BF812432FE52190F804F05C
:1029A00090F925E0333354FC44031229C07914EE26
:1029B0002404FCEF3400FD7A0C7BF812432F804E88
:1029C00090F805F07A067BF81228132274F8121298
:1029D0003090FB05E0F874FF281874FF3400F9907C
:1029E000FBE4E0FA7B0012115BE8FC90F9FF74CC89
:1029F000F0A37429F0EC75F018A4F8A9F090FA1B74
:102A0000E028FAA3E039FB74ED2CF91229827F014A
:102A100002128FC082C08374FF90F800F090F8011A
:102A2000F090F802F090F803F079067C177DFB7ABD
:102A3000047BF812432F7A0A7BF81228131227D14D
:102A4000741290F84AF0021E20C082C08390F9FEF2
:102A5000E0A2E640398A828B83E0FC74226C600538
:102A600074126C702990FB0FE07023EB90F877F0F4
:102A7000EA90F878F01217C1C2AF90FBE6E0243A72
:102A8000122A917410F075D60275E103D2AF021EBE
:102A900020122A9522F8A3E03400F9888289832243
:102AA00074F112123090DF38E0F52190DF08E0F584
:102AB0002290F9FEE0A2E6500302312D90FAFBE4E9
:102AC000F0A3F090F825E090FB7F1223B95460FA50
:102AD00090F826E0FB74206A701B90F9E2E0FC6B32
:102AE000701390DF05E06C700C79007A257BF8128A
:102AF0002A4902312D90F9E1E06B60030231139015
:102B0000DF3CE0A2E75004D2F08002C2F0A2F0E481
:102B100092E0F52374206A700979017A257BF81216
:102B20002A497A937BF9790612185E752500752675
:102B3000F878251212CA7C277DF890FB7FE024FEEE
:102B4000FA790212139C74021211FD90F800E090C1
:102B5000FB7EF090F801E090FB75F0A2E55004795F
:102B600005800279067C027DF87A787BFB12432F80
:102B7000E0541FC39411400302311390FB78782571
:102B80001210F77583FB75821D782512089740286F
:102B900079047C1D7DFB7A787BFB12435BE9600343
:102BA00002311390FB7C12316390FB21E0687003CB
:102BB000A3E069700302311390FB7878251210F7B7
:102BC0007583FB75821D7825120897402479047C53
:102BD0001D7DFB7A787BFB12435BE9701890FB7CD0
:102BE0001231637583FB758221C3E098A3E099508D
:102BF000047A0180027A008A2490FBE6E0245F12C6
:102C000037A1FAA3E0FB121E258A258B26AE25AF3D
:102C10002690FB7FE02426F582E434F8F583E0F586
:102C200025C394805013E525C313FA90FBBF1231DE
:102C300063EAC398F8E4998017E42525F874FF1334
:102C4000E813F890FBBF1231A2E8C39AF8747F9B97
:102C5000F990FB29123BE45003022CE590FA0FE0B7
:102C6000F582AC82E521F83395E0F9E8C39401A23E
:102C7000D265D033400DC3EC98E412379650248CC3
:102C8000218020E8C31224565019C3E49CFAE4942E
:102C900000FBC3E89AE99BA2D265D0335005ECF45F
:102CA00004F521E522F83395E0F9E521FA3395E0C2
:102CB000FBEA28F521EB39F522AA21FB12171DC3E7
:102CC000EA9461EB1224564016740278211211DB4B
:102CD000AA21E522FB3395E0FCFD1242518006E576
:102CE0002190DF08F0E523700302311390FBE5E04B
:102CF0006005E4F0123190639002E590740790FB58
:102D00000CF079047CF37DF97AE07BFB12432FE52C
:102D100024600D79067C787DFB7A1D7BFB12432FA6
:102D200090FB75E0A2E750047A0180027A0490FBE0
:102D3000CD12314C90FB75E0F8741F58F8EA28F872
:102D4000E43400F9E88521F0A4C8AAF08522F0A4B3
:102D50002AFA8521F0E9A42AF990FBD312313AF935
:102D600090FBD6123BE450047A0080027A0B1231B9
:102D70007FE8FCE9FD90FB7EE0701DE490FB12F023
:102D80007428C39AF8E41231C579067C787DFB7A01
:102D9000177BFB12432F807590F981E0F521F52315
:102DA00090FB7EE0F8E523C398F8E49400F990F9ED
:102DB000E5E0A2E2E52150376053C3E89408E91248
:102DC0002456504990FBD6E0F523A3E0F524E8858E
:102DD00023F0A4C885F0218524F0A42521F52185C0
:102DE00023F0E9A42521F9742828F8E43980156036
:102DF0001C7401687001E9701490FBD6E02428F877
:102E0000A3E03400F9E8C39AF8E91231C5740890D8
:102E1000FB0DF090FB25E0240812318990FBCD12C8
:102E200031A27583FB7582D6E0C39AFAA3E09BFBBF
:102E300074F12AFA74FF12376490FB7EE090FB0273
:102E4000123BE8404290FB25E02410FAA3E0340056
:102E5000FB90FB75E0A2E6502288828983E024F192
:102E6000F8A3E034FFF9E8C39EF8E99FF98A828B62
:102E700083123777740890FB0B800BE490FB0BF008
:102E80008A828B83F0A3F090FBD6E02401FAA3E0C2
:102E9000340012243E90F9E5E0A2E6501B90F9E7D9
:102EA0001231B1500E12316D90F9ED12316390FB79
:102EB000DA80101231A8800F90F9E81231B150F386
:102EC000123C14E8F0A3E9F090FB7EE0FC74FF6C88
:102ED000600C90F980E06006F5F0EC84ACF090F9BD
:102EE00025E0FD123160E88DF0A4F8AAF08DF0E93C
:102EF000A42AF990FBD112313AF9E8C39EFAE99F6E
:102F0000FB12313090F926E0F52374FF6C6010E578
:102F1000236C700B88828983EAF0A3EB02306C8506
:102F200023258C21E525C39521F521E49400F52284
:102F300090FB75E0541FF52490F981E0F52590F998
:102F4000E5E0A2E2E525504A7003022FCE74FF654A
:102F500023607BECC39523400302306DC3E52194CD
:102F600008E522122456400302306DEDC39524403B
:102F70000302306D90FBD6123141CCAEF08522F0C9
:102F8000A42EFE8521F0EDA42EFDEA2CFAEB3DFBEC
:102F90008082603A74FF65236034ECC3952340035C
:102FA00002306D740165217002E522600302306D0C
:102FB000EDC39524400302306D90FBD6E02AFAA3BE
:102FC000E03BFB88828983EAF0A3EB02306C74FF5C
:102FD0006523600302306D74FF6D600302306D90F5
:102FE000FB75E0A2E7500302306D90FB25E0241A48
:102FF00012325C90FB06E0600314807053B4F3E57A
:10300000B443B404E5BDC0E090FA08E0F5F0D0E0C8
:103010008490FA07AAF0E02A90FB06F090FB75E096
:10302000FA741F5AF52190FBCD123141FCAAF085AC
:1030300021F0EDA42AFDE5BC75F0058485F0219012
:10304000FBCF1231A2EAA4FA85F0238521F0EBA48C
:103050002523FBEA2CFAEB3DFB90FBD1E02AFAA3F7
:10306000E012376490FB231231547401F088828996
:1030700083E07002A3E0603D7A1890FB7EE070026E
:103080007AEF90FB7FE06412700474392AFA90F9A9
:10309000E5E0A2E6500674EA2AFA8009A2E55005A6
:1030A00074FE2A1A1AEA3395E0FB88828983E02AA3
:1030B000F0A3E03BF090F9E5E054606420700579FE
:1030C0000C121E4490FB7FE024F6F9123E1C90F98E
:1030D000E5E054486408702390FBD8C3E094C8A38B
:1030E000E09400501690FB7FE02425F582E434F84C
:1030F000F583E090DF06F090FB01F090FB25E024E3
:1031000006F8A3E0340012244E500888828983E434
:10311000F0A3F079001217C190F9E5E05460642043
:10312000700890FB0DE0F91217C1123213021A93C6
:1031300090FB25E0240612318922E028F8A3E0392B
:1031400022E0FCA3E0FDEC8521F0A422E0F521A320
:10315000E0F52222E0FAA3E0F5838A82A3A3A3226A
:1031600090FBCD12316722E0F8A3E0F92212317111
:103170002290F9EFE0F8A3E0F990FBDC02377790BA
:10318000FB25E0241A12318922F8A3E03400F92249
:1031900090FB25121978742CF0A37401F0228E8212
:1031A0008F83E0FAA3E0FB2290FB23123C3C7401E6
:1031B00022E0FA3395E0FB90FB29123167C3EA98CD
:1031C000EB123796229400F9E8C39EF8E99FF98C38
:1031D000828D8302377774F71212307AF07B048085
:1031E0000912374EEA7001EB6022C3EB9408501CC1
:1031F0007C041C8C21EA2521F582EB3400F583E068
:1032000064FF7003EC70EBEC70D780047A007B00F5
:1032100002280EC082C08390F9FEE0A2E6403A90F8
:10322000FBE6E0243A1237A164107005123269807F
:1032300028C2AF90FBE6E0245F12325C90F825F0E4
:1032400090F826F0742088828983F0742290DF023F
:10325000F075D60175E102D2AF021E20FAA3E03468
:1032600000FB8A828B830224321223FB7401F0A3B9
:10327000E4F02274F112123090FB8478211210F7DE
:103280008A828B8378251210F778217925120A56C5
:1032900090FC2078251210F778217925120BFB027B
:1032A0001A4E74E5121230E9FFEAFE90DF08E0F8EA
:1032B0003395E0F990FB271237777AB27BFA7C22BC
:1032C0007DFAEE604290FB03E0F818740758C333B0
:1032D0002422FCE434FAFD7525098C828D83123199
:1032E00063882189227523007524008A828B837864
:1032F0002112110612374EEC2410FCED3400FD159E
:1033000025E525605C80D3790975250890FC3C781B
:10331000211210F790FB887821121106801E8C82F2
:103320008D8312314C75230075240090FB88782121
:103330001210B8EC24020C0CED3400FD852521742C
:10334000FF2521F525E52170D590FB887821121005
:10335000F78A828B83782112110612374E19E97091
:10336000A87C0979007AB27BFA1242CF90FAC2782F
:10337000211210F790FC3C782112086D700302377F
:103380004975250075260075278075283F7821121C
:1033900008A778257921120E1290FB517825121179
:1033A0000690FB4F746BF0A374F9F079061219B70D
:1033B0008A218B228C238D2490FB84782112110684
:1033C00090FB8478211210F790FC4078251210F7BA
:1033D00078217925120A56782112091F90FADEE524
:1033E00021F0A3E522F090FB4F742FF0A374F9F0C5
:1033F0007A847BFB121A018A218B228C238D2490E4
:10340000FB94782112110690FB9478211210F77822
:103410002112091F90FB8C782112110690FBC178B4
:10342000211210F790FB27E0F523A3E0F5247402A6
:1034300078231211DBE5232521FAE5243522FB90C0
:10344000FB8C78211210F7EAC39521F521EB952228
:10345000F522740278211211BCE52190FA21F0EFD7
:10346000602890FBE6E0243A1237A164F0701B90CC
:10347000FB8C78211210F790FBC178211210CBAA97
:1034800021AB22AC23AD2412425190FB847825124B
:1034900010F790F94778211210F778257921120B4F
:1034A000D690F93F78291210F7752D00752E00750A
:1034B0002F8075303F90F94378311210F785252120
:1034C00085262285272385282478217925120A56E6
:1034D00078317921120A56782D7931120BD6782954
:1034E000792D120A5690FB80782912110690FB84E0
:1034F00078211210F790FC4478251210F778217982
:1035000025120BFB90FB84782112110690FB517859
:10351000211210F790FB8078251210F77821792579
:10352000120A5690FB517821121106752500852547
:1035300082858223752400E52324F1F582E434FB9F
:10354000F583E0FF74FF6F70030235F77402782390
:103550001211DB85232185242290FB51782912103A
:10356000F7123757782D1210F7782D1208A77829FF
:10357000792D120A5690FB9078291211067408656D
:1035800025600674026525702690FB90782912103C
:10359000F77AD47BF91232738A2D8B2E8C2F8D30D3
:1035A0007829792D120A5690FB9078291211068FEE
:1035B00023752400740378231211DBE523244BF8D0
:1035C000E52434F9F990FB4F12377790FB90782976
:1035D0001210F7AA29AB2AAC2BAD2C1219438A2959
:1035E0008B2A8C2B8D2CE5212498F582E52234FB47
:1035F000F58378291211060525E525C394095003A2
:1036000002352E90FB9878211210F7AA21AB22AC3C
:1036100023AD241243E490FAD612244890FB9C7800
:10362000211210F7AA21AB22AC23AD241243E4905F
:10363000FAD812244890FBAC78211210F7AA21ABDB
:1036400022AC23AD241243E490FADC12244890FB10
:10365000B878211210F7AA21AB22AC23AD24124373
:103660009B90FAE012244890FBA078211210F7AA50
:1036700021AB22AC23AD2412439B90FADA122448EA
:1036800090FABE78211210F790FAE2E521F0A3E556
:1036900022F0EE7003023749121B2390FBBCE0C3FB
:1036A00033F012377D504690FA1778211210F790B8
:1036B000FBA078251210F790FB9878291210F77864
:1036C000257929120A5690FC4878291210F7782596
:1036D0007929120A5678217925120BFB90FA17786E
:1036E0002112110690FBBCE0D2E0F0805C90FBBCA4
:1036F000E064FE70541231D68A218B22AE21AF22B3
:1037000090FA1378211210F790FA1778251210F713
:1037100078217925120BFB90FA1378211211067982
:10372000047A177BFA124315C3EE94F1EF94074025
:1037300005123C418013EE7001EF600D7904EEFC40
:10374000EFFD7A137BFA1214AD7F1402128FEA2474
:1037500004FAEB3400FB22E52124B2F582E52234A1
:10376000FAF583223BFBEAC39EFAEB9FFB88828932
:103770008302244890FAFDE8F0A3E9F02290FADAF7
:103780001231677583F975827D12378D22C3E098F7
:10379000A3E01237962299022458F090FBE6E02429
:1037A00036122A95E02274F61212308923EAF97E45
:1037B000237FF9852382858221752200E521242338
:1037C000FCE434F9FDE5231213110906095D3B10F1
:1037D000150D392E30CE3A3D3E933B3F449B3B4A3C
:1037E0004E9B3B4F52A03B5556A53B5758D33B27CA
:1037F00001CE3B04673805B2380B53390C4D390DF7
:10380000513B0E7E3B16E13817F4381A18391C71FB
:10381000391DBE3B1F9F3920C43921993923FC39FA
:1038200024073A25133A261F3A282F3A29423A2AE2
:10383000653A2B3B3A2CAA3A2DBB3A31D43A33ECB9
:103840003A35FB3A360F3B38153B39C0393A3E3BE7
:103850003B5B3A45933B469B3B49933B5359395419
:10386000613964C73BDF3BE9C394024003023BDF9D
:10387000E9603AD2931223F7A3A3E4F0A3F090FBFC
:1038800010E0701290FB25E024141237A17002A3FF
:10389000E07003023BDF121915E490FB10F090FB7F
:1038A00025E02414122A91E4F0A3023BDEC2930225
:1038B0003BDFE9C394024003023BDFE96011741867
:1038C00055907010D293121915123C32023BDEC291
:1038D00094023BDFA2945003023BDF121915023B16
:1038E000DF90F9FEE0A2E55003023BDF89CD121D17
:1038F0004B023BDF90F9FEE0A2E55003023BDFE91B
:1039000090FB09F090FB08F0121D1580E1EC24F605
:10391000F582ED34FF023BDBE990F9C7F01215B5F3
:1039200090F9E5E0A2E6402590F9C7E090DF06F0C7
:1039300012242590FBD8742CF0A37401F090FBDEC8
:10394000742CF0A37401F075E1041217F6123BFE1B
:10395000023BDF121501023BDF90F9FEE0D2E68068
:103960003790F9FEE0A2E55003023BDFD2E5F0809C
:103970001AA293E492E090F9DCF0A294E492E09031
:10398000F9DDF090F9FEE0A2E5400EE5CD90F9DE1C
:10399000F090FB09E090F9DFF0123C41023BDF12AE
:1039A0003BFE74FF90F926F090F925F0123C41128D
:1039B000317F88828983E4F0A3F0123BF80238A7B4
:1039C0007E007F0490FB05E06003023BDF90FA1B62
:1039D000E07002A3E07018EEF8EFF990FA1B1237CE
:1039E0007775F00A90FBE4E0A490FB05023BDE90C3
:1039F000FBE4E0C0E0E9F5F0D0E080ECE990F9E02C
:103A0000F090DF2E023BDE90F9E5E9A2E0E092E0E3
:103A1000023BDE90F9E5E9A2E0E092E1023BDE90B4
:103A2000F9E5E9A2E0E092E2F01217F6023BDF903E
:103A3000F9E5E9A2E0E092E4023BDEE990F9E30275
:103A40003BDE90F9E5E9A2E0E092E5F0E9600302EF
:103A50003BDF90FB011217F0023BDF90F9FEE9A279
:103A6000E0E092E1F0742A6523700A90F9E5E9A29A
:103A7000E0E092E6F090F9E5E0A2E6501D123BECA2
:103A800090FBD8E4F0A3123C0B90FB01F0F9121765
:103A9000A790FB25E024100238A490FBDAE4F0A301
:103AA000F0123C14E8F0A3023BDDE990F9E4123B8C
:103AB000E84003023BDF90F9C7809AE990FBD5F01C
:103AC000A2E07583F97582E5E092E7023BDEEC2423
:103AD00095023BD6E490F9C7F074FF90F926F09078
:103AE000F925F090F927121D2B123C4190FB25126D
:103AF0001974742CF0A37401023BDEE990F9FD12F5
:103B00003BE84003023BDFE990FB01F0023A5290B0
:103B1000F9FE023A0A79107C2B7DFB7A837BF9123D
:103B2000432F79107C3B7DFB7A937BF912432F79ED
:103B3000207A2B7BFB124315121858023BDFE960F9
:103B40000CC394205007E990FBE4023BDE74048030
:103B5000F690F9FEE9A2E0E092E3023BDEE5217592
:103B6000F005A4F521E5F0F522E5212485FAE5220A
:103B700034F9FBE98A828B83F0A3AA82AB83740EAB
:103B8000652370047AB77BF979047C787DFB124356
:103B90002F804C90F9FEE0A2E54044EC24A1803651
:103BA000EC240D803179047C1D7DFB740278211298
:103BB00011DBE5212478FAE52234F8FB80D090F976
:103BC000FEE9A2E0023AC8E990FC4C023A2890F9DA
:103BD000E58081EC2441F582ED3400F583E9F07F46
:103BE0000302128FE8F0A3E9F002297B90F9ED12AD
:103BF000316790FBDA02377712265DA3A32290F992
:103C00002DE0F5BC90F92EE0F5BC22F01231719058
:103C1000F9FDE02290F9EB12316790FBD8E8F0A3B0
:103C2000E9F0123C262290F9F1E0F8A3E0F990FBCC
:103C3000DE2290FB25123C3CA302267E122402A326
:103C400022C082C0837902120852797D121E447903
:103C5000F87C007D047A237BF91214AD7919121EC9
:103C600044021E1D74F8121230EAFEEBFFFAE9124C
:103C7000131101040CCC3C07018F3C02943C03A1BE
:103C80003C0DAF3C0EBD3C10DF3C11FA3C023D90B8
:103C9000F9278069EE540F90F925F0EA90F9268013
:103CA00060EE90F9E1F0EA90F9E2123D0580527978
:103CB0003C121E448E828F8312122E8045EE90DFBE
:103CC00001F0EA90DF00F090F97B8031E9C333F82E
:103CD000E433F9E824E3F582E934F9F583801E90B2
:103CE000FA1BE07002A3E07019C3EF94044013C301
:103CF000EF9408500D90FA1B800390F97DEEF0A32D
:103D0000EFF0022A0EF090F9E1E090DF052274F165
:103D10001212308923EAFEEBFF752100752200891B
:103D200025752600740278251211DBE5252423FA77
:103D3000E52634F9FB8E828F8378251210F7E9127D
:103D40001311040104593D0506833D0A158D3D19E3
:103D50001AFA3D0118E53D043EEA2408F521EB344A
:103D600000F522740465236003023E0478251209DD
:103D70001F74142525F8E43526F990F9E9123777F0
:103D8000023E04EA249DF521EB34008075740E6533
:103D900023700979047A4B7BFB12431574F62523B3
:103DA000F523C313F521740378211211DBE523A257
:103DB000E0E492E0F525752600740278251211DB07
:103DC000E525244BF8E434F9F9E52128F521E5222D
:103DD00039F52274046523702B90FB08E0121D1442
:103DE000121D4B801F75238075243F782179251281
:103DF0000E1290FA1D7821121106EA24BCF521EB6F
:103E000034FFF522E5217002E522600D7904EEFC15
:103E1000EFFDAA21AB2212432F021A9374F3121260
:103E20003089217E087FF8752201752300802DE0FE
:103E3000F525A30EAF837906EEFCEFFD7A297BF919
:103E400012435BE9700E740F552490F925F0E525B7
:103E500090F926F0EE2406FEEF3400FF8E828F8369
:103E6000E0FA7003024081AB2174FF2BF521EB7067
:103E7000030240818A24A3AE82AF8374F05524F5F7
:103E80002574F0652560A890FBD5E06402700312EC
:103E900041248E828F8312316390FBBD123777EEFF
:103EA00024020E0EEF3400FFEE2402EF3400F9740A
:103EB000035524F5261212DB0003303FC43EC93EF1
:103EC000E53E0D3F752201806712319E90F927E093
:103ED0006A7003A3E06B70047A0180027A008A2280
:103EE0000E0EE9804A8E828F83E0FA90F926E06A0E
:103EF00070128E828F83A3E0FA90F925E06A700435
:103F00007A0180027A008A2285222380D37906EE04
:103F1000FCEFFD7A297BF912435BE970047A01809A
:103F2000027A008A22852223EE2406FEEF3400FF67
:103F300090FBBDE07002A3E0603290FAFDC3E09414
:103F400001A3E094FF4014C390FBBEE09401500B2A
:103F500090FBBD1231631237748011E522600912A3
:103F6000413250047A0180027A008A228E828F8345
:103F7000A3A882A983E525121311000610B23F20E1
:103F8000324050903F704140804140908640074110
:103F9000E522601374036526700D7906EEFCEFFDD3
:103FA0007A297BF912432FEE2406FEEF3400FF023C
:103FB000410790FBD5E0FA90F9E5E0A2E7E492E052
:103FC0006A601090FBD5E0A2E07583F97582E5E0A8
:103FD00092E7F08E828F83E0F525E8FEE9FF740C0E
:103FE0005524121311000300F23F040440081E4040
:103FF0000741E5226009EEFAEFFBA925123D0EEE1E
:10400000240480A6E522600B8E828F83E0FAA92526
:104010001237A68E828F83A30EAF83024107E5225B
:10402000600812319EA925123C64EE24020E0E0295
:104030003FABE5227003024107793C121E44124255
:1040400042E523603C7AE07B0312185C7AF07B0344
:10405000790612185E74806525700875213B7522FB
:10406000FB800675212B7522FB78211212CAEEFC0B
:10407000EFFD7A10790212139C74021211FD1218CE
:10408000587F0602128FE523607D8E828F83E0F5D4
:1040900024E8FEE9FF8E828F83E0A30EAF8390F9C0
:1040A000FDF090F9C7F08E828F83E090F9E1124124
:1040B0001590F9E212411590F92612411A12316356
:1040C00090F927123777740F552490F925F090F95D
:1040D000E5E524A2E4E092E2F090F9FEE524A2E511
:1040E000E092E4F0E524A2E6E092E1F079047C1DA0
:1040F0007DFB7AB77BF912432F123C4190F9C7E060
:10410000F91215B51217F01241324003023E5C124B
:104110003774023E5C12411AE022F08E828F83A334
:104120000EAF832290F9E5E0A2E7E492E090FBD5A0
:10413000F02290FBBD1231677583FA7582FDC3E0F2
:1041400098A3E0992274F8121230E9FE90F9E5E0A4
:10415000A2E2791450307C527DFC7A0C7BDF124352
:104160002F90FBCD74C8F0A3E4F090FBCF7478F0EF
:10417000A3E4F090FBD17496F0A3E4F090FBD37429
:10418000C8F0A3E480327C667DFC7A0C7BDF1243AE
:104190002F90FBCD74E8F0A37403F090FBCF74581C
:1041A000F0A37402F090FBD174EEF0A37402F090CF
:1041B000FBD374E8F0A37403F090FBBF744AF0A340
:1041C000E4F0740A90DF07F0EEC3940D404C7906DA
:1041D0007C4C7DFC7A0C7BDF12432F7410F090FB3B
:1041E000BF7448F0A3E4F079037C7D7DFC7A237BE7
:1041F000DF12432F79087C807DFC7A157BDF124328
:104200002F74196E7021740A90DF07F074A990DF83
:104210001CF0741D90DF0CF0800D79037C7A7DFC1E
:104220007A237BDF12432F79037A2F7BDF1243152A
:1042300079037C887DFC7A027BDF12432F7F0102A9
:10424000128FC082C08375C90B748090FFFFF0800D
:10425000F874F512123074FC1211EE8A218B228C44
:10426000238D24C2AF90DF0BE0854182854283F02D
:1042700090DF0AE0C0E07401121224D0E0F090DF79
:1042800009E0C0E07402121224D0E0F0854182857A
:10429000428378211210B8854182854283E090DF05
:1042A0000BF07401121224E090DF0AF07402121273
:1042B00024E090DF09F090FBC178211210B8E4905F
:1042C000DF08F0D2AF74041211FD7F0402128F7464
:1042D000F31212308035740369602F740969602A03
:1042E000EA240CF582EB3400F58378211210F7896B
:1042F00025752600740278251211DBEA2525F58242
:10430000EB3526F58378211210E309E9C39C40C6FA
:104310007F0602128FC082C083800BE48A828B8367
:10432000F0A3AA82AB83E91970F1D083D082227402
:10433000F8121230801C8C828D83E08A828B83F08D
:104340008C828D83A3AC82AD838A828B83A3AA8265
:10435000AB83E91970E07F0102128F74F6121230FC
:10436000E91960308A218B22852182852283A3AAC4
:1043700082AB83ECFEEDFF8E828F83A3AC82AD8394
:10438000852182852283E0F88E828F83E06860D069
:104390007901800279007F0302128F74F1121230CA
:1043A0008A218B228C238D24782112091F90FC8B6B
:1043B00078251210F77825792112088240067AFFB5
:1043C0007B7F801B90FC8F78251210F77825792150
:1043D00012088250067A017B808004AA21AB227FDA
:1043E0000802128F74F11212308A218B228C238DD5
:1043F00024782112091F90FC9378251210F7782554
:10440000792112088240067AFF7BFF801B90FC3CDA
:1044100078251210F77825792112088250067A0043
:104420007B008004AA21AB2280B56D4EC641393095
:104430000000C80078009600C8000268107800DC10
:104440000014001E0003009001040100F5B1B2B396
:10445000B4B7B0B5BEB6000102FFFF03FFFF0541D0
:104460004E4453006C617241756775737400074167
:104470007567757374000741756775737400076419
:104480006AAA0132000000803F0000003F66661A01
:104490004200F091450AD7A33B6666884200E026B9
:1044A00046000000000000C8420000C8C131E33EE1
:1044B000300E5573435900790701235945070014FD
:1044C000166C4340915610A90A001176A301235996
:1044D00051070014166C0340915610A90A0011816F
:1044E00035098831091D1CC740B2B610EA2285453E
:1044F000008000000180FFFF00000100FFFFFFFFC0
:10450000FFFFFFFFFFFFFFFFFFFFFFFFFFFFFFFFBB
:10451000FFFFFFFFFFFFFFFFFFFFFFFFFFFFFFFFAB
:10452000FFFFFFFFFFFFFFFFFFFFFFFFFFFFFFFF9B
:10453000FFFFFFFFFFFFFFFFFFFFFFFFFFFFFFFF8B
:10600000E490F80078E279028002F0A3D8FCD9FA93
:1060100090F9E1AA82AB83907F6D784A790180156F
:10602000E493A3AC82AD838A828B83F0A3AA82AB74
:10603000838C828D83D8E9D9E7126C9012606B75DE
:10604000D0007581507541007542F802600043AE82
:106050000222E5AE20E7FBC2AF89AD75AB2143AEAE
:106060000100D2AF22E5AE20E7FB2280FEC3E0961E
:1060700008A3E09608A3E09608A3E0962208080883
:10608000EAC0E0EBC0E086F0E7A4FA180986F0E782
:10609000A42AFA180986F0E7A42AFA180986F0E774
:1060A000A42AFA1986F0E7A4FBE5F02AFA19088673
:1060B000F0E7A42BFBE5F03AFA190886F0E7A42BE9
:1060C000FBE5F03AFA18180986F0E7A4C5F02BFBB7
:1060D000E43AFA1908E7C5F0C6A426F6E5F03BFB5A
:1060E000E43AFA1886F0E7A4F6E5F00826F6E43B71
:1060F00008F6E43A08F6D0E0FBD0E0FA2260160891
:106100000808C6C313C618C613C618C613C618C6D1
:1061100013C6D5E0EA22E026F608A3E036F608A387
:10612000E036F608A3E036F622E026F008A3E036D3
:10613000F008A3E036F008A3E036F022C3E0C696EC
:10614000F608A3E0C696F608A3E0C696F608A3E014
:10615000C696F622E0F608A3E0F608A3E0F608A348
:10616000E0F622C3E498F8E499F91261A48026C30A
:10617000E49AFAE49BFBE920E7E91261A4E498F8C9
:10618000E499F922C3E498F8E499F91261A4E49837
:10619000F8E499F9C3E49AFAE49BFB22EB20E7CFF9
:1061A000E920E7E0B90010BB0008E88AF084F8AA0B
:1061B000F022E4FBC8FA22EB70227B10C833C8C976
:1061C00033C9335007C39AC3DBF280069A50012AC1
:1061D000DBEAC833F4C8C933F4C9FA2275F008E41D
:1061E000C833C8C933C933C99AC99B5004C92AC91D
:1061F0003BD5F0ECFBC833F4C8E4C9FA22600D08C3
:10620000C6A2E713C618C613C6D5E0F322600C0871
:10621000C6C313C618C613C6D5E0F42270042260A4
:106220000D18C6C333C608C633C6D5E0F4182225F8
:1062300041C0A8C2AF40021542F541D0A822C0D04B
:106240002541C0A8C2AF50020542F541D0A8D0D028
:10625000222541F582E43542F58322E4732541C5C8
:1062600082C0E0E54234FFC583C0E0E541C39582CA
:1062700024F9C0A8C2AF858342858241D0A8CEF060
:10628000A3E520F0A37821E608F0A3DEFAEFF0A35F
:10629000E58124FBF8E608F0A3E608F0A30808E689
:1062A00008F0A3E608F0A315811581D0E0FED0E048
:1062B000F815811581E8C0E0EEC0E02285428385B3
:1062C0004182E0A3FEE0A3F5207821E0A3F608DFF9
:1062D000FAE0A3FFE0A3C0E0E0A3C0E0E0A3C0E0D9
:1062E000E0A3C0E085A8F0C2AF85824185834285E6
:1062F000F0A8D083D08222D083D082C5F0E493A3CB
:10630000C5F0C395F0F5F0E493A3C395F04005E51F
:10631000F0048001E475F002A42582F582E5F035F1
:1063200083F583E493A3C0E0E493C0E022D083D05C
:1063300082CCC0E0E493A360061263571470FAE4C1
:1063400093A360061263761470FAD0E0FCE493A382
:10635000C0E0E493C0E022C0E0E493A3D39C5010DB
:10636000E493A3C39C400AD0E0D0E0D0E002634AAB
:10637000A3A3A3D0E022C0E0E493A36C7009D0E013
:10638000D0E0D0E002634AA3A3D0E022C082C08361
:10639000740149F5B37C10800C8A828B83E0F5B1DF
:1063A000A3AA82AB83EC1C70F0D083D08222800140
:1063B00000E5B3A2E350F922C082C0838C828D83B2
:1063C00012638C7A0C800100EA1A70FB7A10800448
:1063D000E5B2F0A3EA1A70F81263AE80CCC082C0B6
:1063E0008390F876E054F0F0741390F875F074DF51
:1063F00090F86FF074D990F870F074F890F871F02C
:10640000742590F872F0748090F873F0742590F809
:1064100074F0741090F876F074F8F5D575D46F9028
:10642000F87EE054F0F0741390F87DF074F890F872
:1064300077F0744A90F878F074DF90F879F074D9B6
:1064400090F87AF0742090F87BF0742390F87CF048
:10645000744090F87EF090F886E054F84408FAF022
:10646000741290F885F090F883E0541FF074DF9078
:10647000F881F074AF90F882F0E490F883F074F84B
:1064800090F884F0740F5A444090F886F074F8F550
:10649000D375D277D083D0822274F612625DEAFE81
:1064A000EBFF8C218D22892312606575AB2AEF905A
:1064B000F87FF0EE90F880F090F883E054E0F0E59B
:1064C0002390F884F0AA21AB227409782112620D7E
:1064D000E521F5ADEBC313EA13F5AC53D1FB75D64B
:1064E0000412604E79017F030262BCEEC0E07E7F41
:1064F000E9601643C6408005790212652AE5BEA20E
:10650000E54020EE1E70F1801A53BEFB8005790233
:1065100012652AE5BEA2E64004EE1E70F10053C6E5
:1065200080E5C643BE04D0E0FE227A177BFF00DB85
:10653000FDDAF9D9F52274F112625D7C19800F75CC
:10654000F00AECA429C0E0EC12660ED0E0F0EC1CDE
:1065500070EDE9F5257526007527007528007C008B
:1065600090F9E178211261547825792112607D90AB
:10657000F9E57825126116852521852622852723B0
:10658000852824741078211260FD74FF5521F87459
:106590007F5522F97A197B001261A48C23E523240C
:1065A00087F8E434F8F988828983E0FDEA2487FAE1
:1065B000E434F8FB8A828B83E088828983F0ED8A59
:1065C000828B83F00CECC3941940957F080262BC67
:1065D000C082C0837B19EB1B8B82A882600C90DF8A
:1065E00006E0FAE81266096A70EC75E104740128A5
:1065F00008E43400F97A197B0012619CEA126609FA
:1066000090DF06F0D083D0822212660EE02224872B
:10661000F582E434F8F58322C3EA940112767F40D0
:1066200005EAF8EB8006C3E49AF8E49BF9E8FAE996
:10663000FB2279037CFB7DF97A097BDF127F012243
:10664000C082C08375C9A875C958741090FFFFF047
:1066500002686074F812625DE9FEEAFFC2AF75E19C
:106660000474F090F53AF0539BFCE59B53E9EF7509
:10667000911074326E700A90F97BE0A2E1500279B9
:1066800019127DBDEF90DF06F074326E700590F93F
:1066900061800390F95DE090DF2EF090F95EE0906C
:1066A000DF05F090F8F8E090DF01F090F8F9E09065
:1066B000DF00F0439A01D2AF026FF5C082C083E9D8
:1066C000FA790C90F962E0A2E65002793212665330
:1066D000026860C082C08375D68375E10474F0904F
:1066E000F53AF079047ADD7BF9127EE7E490DF0871
:1066F000F012663290F962E0A2E6400890F944E0B8
:1067000090F9A8F01267AE79067ABC7BF9127EE7A1
:1067100090F9A4E4F0A3F079011276C002685DC09C
:1067200082C083E9601C90F962E0A2E6401490F90F
:1067300060E0FA793212665390F95FE090DF05F07D
:1067400080031267AE026860C082C08375FD007569
:10675000FEDB758FFF75F12075F2FF75F30075F4A0
:10676000C075F52075FF0FC2A1C2A275CB7075CCA4
:106770002475CE2479107A937BF9127EE779001282
:1067800064EB90F944E0F91265361263DD1266326B
:106790001267AE90F95BE0F5CD90F95CE0F5CF4380
:1067A000CB14E5CBD2B9D2A9439A0102686090F923
:1067B000A8E0F91266BB22C082C08390F97FE0FA9C
:1067C000600C8ACD126C2A7488F0A37413F0D294F2
:1067D000026860C082C08379F07C007D047AA07B6F
:1067E000F8127F0190F8A0E064AA7004A3E064AA04
:1067F0006069749790F962F0740990F97BF074FF06
:1068000090F944F090F95DF090F96674F7F0A37494
:10681000FEF0740290F95EF0740190F95FF090F868
:10682000F874F0F0A3F0E490F98DF079207CBE7D4F
:106830007F7A007BF9127F01790C7CD07D037AA0EE
:106840007BF8127F019003DCE090F95BF09003DDB0
:10685000E090F95CF0746490F97FF080031276ADFB
:10686000D083D0822274F712625D892174012521C0
:10687000FAE43400FB90F9D2E0241C1268B28003E1
:1068800012664090F9D2E0241C126D6BC3E09401B3
:10689000A3E012768050E988828983E4F0A3F07F38
:1068A000020262BC90F9EAE0FAA3E0FB90F9D2E0C0
:1068B0002412F8A3E03400F988828983EAF0A3EB7C
:1068C000F022C082C0838A828B83E07002A3E060E2
:1068D0001C8A828B83E024FFF0A3E034FFF08A82DD
:1068E0008B83E07002A3E0700479018002790002DA
:1068F000686074F712625D7E101EEEF890F9D0E0C9
:1069000028127A427003026A52E4F0EE12632D00FC
:1069100004012569022B69031F69093F69526A1244
:1069200070F1026A52127144026A521276167007AE
:1069300090F9B3E0F98002790012777C026A5290F4
:10694000F9B3E0600214F090F9B2E0600214F07A5A
:10695000F47BF9126C25600F1266D390F970126FF8
:10696000A690F9F4126C687AF67BF9126C25600B2C
:1069700090F962E0A2E05003127E5A90F9A6E0245A
:1069800001F0A3E03400F090F9A6C3E094E9A3E09D
:1069900094034007E490F9FEF0800990F9FEE0606E
:1069A00003026A5290F962E0A2E74003026A52A22F
:1069B000E650527AEE7BF9126C25601D127A741241
:1069C0006C6890F962E0C2E6126C6590F944E09060
:1069D000F9A8F0F91266BB80797AF07BF9126C2580
:1069E000607012765190F9A8E0F890F97EE028F8EE
:1069F000E43400F97AFA7B0012619CEA90F9A8F07D
:106A000090F97A80CD7AEC7BF9126C25603512769C
:106A10001F126C6890F9F2E4F0A3F090F962E0D2F2
:106A2000E6127A9D64FF700890F944E090F97AF0DC
:106A3000E090F9A812764B2410127A47F090F9A84A
:106A4000E080907AF27BF9126C256006126C551288
:106A50006C65EE60030268F97E101EEEC333F8E445
:106A600033F990F9D2E028F8A3E039F988828983D4
:106A7000C3A3E01276804003026C1C88828983E401
:106A8000F0A3F0EE12632D000802A36A03B46A04B7
:106A90007F6B083C6B098F6B0B856B0DB16B0FD255
:106AA0006B1C6C126640126DB3A3A37438F0A37410
:106AB00001026C1B90F9B2E07003026C1C90F9B6F5
:106AC000E0602590F9ACE0600C14F0701090F99043
:106AD000E4F0A3800790F9AFE0600214F079007A47
:106AE0004A7BF812711A800990F9D0126DB67401C0
:106AF000F090F8FEE0FA7003026C1C90F8FDE0FBE9
:106B0000EAC394084009EBC394084003026C1CEBF1
:106B10006008C39A50048B2180028A21E521C39426
:106B2000084003026C1C126C3F74FD28181818747E
:106B3000FF39126C34E8F0A3E9026C1B90F962E0B3
:106B400054506410703990F9B0E0FA74FF2AF0EAFA
:106B50006021126C55F090F9EAE024F6FAA3E034D3
:106B6000FFFB90F9D2E02410127629126D85E4F033
:106B7000A3800B90F944E090F9A8F090DF06F012A2
:106B8000777A026C1C90F9D2E0126D7A026C1B12BB
:106B900068A490F9EAE0241FF8A3E034FF126C34F3
:106BA000A3A3E8F0A3E9127A60A3A3A3A3A3026AB4
:106BB000AE126EBF90F8FEE0F5216060C3940850FD
:106BC0005B126C3F74D428FA74FF12760D1276298A
:106BD00080497B00E5CDC0E090F95BE0FAD0E0C3EE
:106BE0009A500505CDE5CD0B90F9C4C3E09437A3C9
:106BF000E01276804016E5CFC0E090F9B1E0FAD01F
:106C0000E0C39A500A05CFE5CF0B800375CF00EBA8
:106C1000600A126C2A7471F0A37402F0EE60030231
:106C20006A5A02689F1268C2E92290F9D2E0241ED3
:106C3000126D6F22F990F9D21275F3A3A3A32290DB
:106C4000F9EA126FA6E88521F0A4F8AAF08521F0F0
:106C5000E9A42AF92290F9A8E090DF06F01265D0A5
:106C6000E090F9A822127A7EE8F0A3E9F022EEC0C3
:106C7000E0E9FE800579FA126865EE1E70F7D0E053
:106C8000FE2279047C707DF97AF47BF9127F01226F
:106C900090DF36E064816003127E5A90F9F9E024B7
:106CA00030126D6B748DF0A3746DF090F9F9E024DF
:106CB00032126D6B74CDF0A3746DF0740190F537E2
:106CC000F090F9D07420F0A374F5F090F9D2E4F0CC
:106CD000A374F5F0741855BEC313131390F9AEF0F6
:106CE0001267D3126C8290F962E0A2E6500590F927
:106CF0007A800390F944E0FAEA90F9A8F0127DAFA7
:106D0000D294D29390F9AEE06402701090F95CE0F6
:106D100090F9B1F090F95BE0F5CD800E75CF009061
:106D2000F95CE090F9B1F01267B712674890F9D2B8
:106D3000126DC07438F0A3740112764B126D7A1282
:106D40006D857405F0127A897438F0A37401F0121D
:106D500068A47A007BF97904126EAE127A35791440
:106D6000126C6E1266D31268F280FB126D6F22F8FD
:106D7000A3E03400F988828983222416126D6F748F
:106D800005F0A3E422127A8FA3A3A3A322C082C09A
:106D900083E490F9ABF090F536E004F0C39404502E
:106DA00009126DB37432F0A3E4F090F9AB126E6285
:106DB00002686090F9D2126DBA22126DC0A3A322AC
:106DC000126DC422E0F8A3E0F58388822274F712E2
:106DD000625DE5BBF9E5BAF874C828F521E439F538
:106DE00022740678211261FDA821A92290F9ABE056
:106DF00064FF7008E490F9ABF002689FE0FA740158
:106E00002AF0EAC333FAE433FBEA2493F582EB3445
:106E1000F9F583E028F0A3E039F090F9ABE0C394F2
:106E2000085005126E6280D190F9A3E004F0C3947B
:106E30000840C179107C937DF97AC07BF9127F01FB
:106E400079107A937BF9127EE7E4F090F9AAE004D6
:106E5000F06408709F740190F9B4F0E490F9AAF01E
:106E60008092E024B6F582E4347FF583E0F5B62223
:106E7000C082C083126EA87C4C7DF87A007BF879C2
:106E8000001263B87C5C7DF87A107BF8790012639D
:106E9000B8742290F84AF090F95FE090F84BF074E3
:106EA0000190F9B6F00268607A107BF979061263F6
:106EB0008C1263AE2279067CA67DF8127F012274C3
:106EC000F812625D90F9ACE060061270A8026FA142
:106ED00090F9AFE06006127006026FA190F9B4E07D
:106EE0007003026FA47E1E7F0079001276C090F9B5
:106EF000CE126FA690F800126C6890F800126C68C1
:106F000090DF06E090F804F074185590C333C0E0A9
:106F100090F8A2E0540FFAD0E04A333354FC126FD9
:106F2000FA79107CC07DF97A0C7BF8127F0190F918
:106F300062E0A2E6500A90DF06126FB07420800C67
:106F4000A2E5500D90F960126FB0741F28FEE4396D
:106F5000FF90F962E0A2E75008EE2404FEEF34004F
:106F6000FF90F97BE0A2E15008EE2408FEEF340028
:106F7000FF90F81AEEF0A3EFF090F9D6E0600790DA
:106F8000F992E0FA80027A7FEA90F81CF090F9D644
:106F9000E090F81DF0E5CD90F81EF0E5CF90F81FD9
:106FA000F0126E70804F126FAA22E0F8A3E0F9226F
:106FB000E075F064A4F8A9F02274F812625D8921EA
:106FC000EAFEEBFF7904EEFCEFFD7A007BF8127F1E
:106FD00001E52190F804F090F8A2E0333354FC442A
:106FE00003126FFA7914EE2404FCEF3400FD7A0CDE
:106FF0007BF8127F017F010262BC90F805F07A06EF
:107000007BF8126EB52274F612625D74EC12622F78
:1070100090F9AF1270DE12619CE8F52375F00CA4B4
:10702000FAE42A7A003408FB7E008E2185418285AD
:107030004283E5822521F8E5833400F9E8FCE9FD87
:1070400074FF8C828D83F07F007810188821EA25E8
:1070500021F582EB3400F583E064FF6016752101B1
:10706000752200EF782112621C8C828D83E06521ED
:10707000F08003E870D5EA2410FAEB3400FB0FEF40
:10708000C3940840C40EEEC39418409E8541828587
:107090004283AA82AB8374F82523F9126FB9741462
:1070A00012623E7F030262BC74F812625D90F9AC1A
:1070B0001270DE12619CE8FC90F97C74A8F0A37455
:1070C00070F0EC75F018A4F8A9F090F990E028FAA7
:1070D000A3E039FB74ED2CF9126FB9026FF5E0F8FB
:1070E00074FF281874FF3400F990F9F8E0FA7B0077
:1070F00022C082C08374FF90F800F090F801F090F5
:10710000F802F090F803F07A0A7BF8126EB5126E6E
:1071100070741290F84AF0026860C082C08390F9DF
:10712000B5E0701DEB90F877F0EA90F878F0126710
:107130001FC2AF741090F53AF075D60275E103D214
:10714000AF02686074ED12625D74DB12622F90DF33
:1071500038E0F52590DF08E0FE90DF3AE0F5279073
:10716000F825E0F52390F826E0FA127616701B90C9
:10717000F95FE0FB6A701390DF05E06B700C79003B
:107180007A257BF812711A0275E990F95EE06A605F
:10719000030275D490DF3CE0A2E75004D2F08002F5
:1071A000C2F0A2F0E492E0F52490F825E02403F97F
:1071B0007C257DF8854182854283AA82AB83127F3C
:1071C00001EE3395E0FF90F962E0A2E6402A1276E4
:1071D0003150048C25800A1276575005ECF404F5E2
:1071E00025127666400C7402782112621C1275FF1B
:1071F0008006E52190DF08F0740790F9B2F0E527EA
:10720000C394805005E527C38008E42527F874FF60
:1072100013E813F890F9DBE0FAE8C39A90F9D6F096
:10722000126EA87C007DF87402126251AA82AB83B0
:1072300079021263B87C107DF87412126251AA822E
:10724000AB8379021263B890F800E0F52690F8015C
:10725000E0F52779067C027DF87AD77BF9127F0169
:10726000741F5527C3941140030275D490F9BC785C
:10727000291261547583F97582D7782912606D508F
:10728000030275D4639002E59090F962E0A2E640B3
:107290002A12763150048C25800A1276575005EC5C
:1072A000F404F525127666400C7402782112621CF3
:1072B0001275FF8006E52190DF08F0E524700302D7
:1072C00075D4740890F9B3F0127616700979017AC2
:1072D000257BF812711A126C8279067CD77DF97AB7
:1072E000BC7BF9127F01E527A2E7500478018002F8
:1072F0007804F521741F5521FEE82EF8E43400F9D6
:10730000E875F0C8A4F8AAF075F0C8E9A42AF974E1
:10731000C828F8E439F990F9EA126C68852682A841
:1073200082E8601690F8FEE06060C398FAE494008A
:10733000FBC3EA940812767F5050E490F9B6F0E867
:10734000602C90F9EAE0F521A3E0F52290F8FEE048
:10735000C398F8E49400F9E88521F0A4C8AAF08560
:1073600022F0A42AFA8521F0E9A42AF98004780001
:107370007900741E28FAE412760D1268B279067C40
:10738000D77DF97AB87BF9127F0190F9D2E0240811
:10739000F8A3E03400F990F9EAE0242EFAA3E034EF
:1073A000FFFB1268B8E52690F9A9127A5840399087
:1073B000F9D2E02410FAA3E03400FBE527A2E6505E
:1073C0001B88828983E024F6F8A3E034FFF98A82DF
:1073D0008B83126C68740890F9B0800BE490F9B05C
:1073E000F08A828B83F0A3F090F9EAE02405FAA3F7
:1073F000E03400FB90F9D2E02412127629127A5878
:10740000502990F964E0C0E090F9D6E0FAD0E0C3EA
:107410009AA2D265D033500812765112761F80247A
:1074200090F9D0127A4EA37401801D90F965E0C0E6
:10743000E090F9D6E0FAD0E0C39AA2D265D03350FA
:10744000DF127A69E8F0A3E912764B2406F8A3E08C
:107450003400F974FF652670030275558526219066
:10746000F8A2E075F0C8A4FAABF074962AFAE43BEF
:10747000FB90F8FDE06009F5F0E52184E5F0F521E9
:1074800090F8A3E0FC6521700302754C74FF6C70EA
:1074900075E527A2E7406F90F9D2E0241AFAA3E03D
:1074A0003400FB8A828B83E4F0A3F090F9ADE060B6
:1074B000041402755453B4F3E5B443B404E5BDC0F9
:1074C000E090F985E0F5F0D0E08490F984AAF0E04E
:1074D0002A90F9ADF0E5BC75F00384E5F02EFAE4EE
:1074E0003400FBEA75F0C8A4FAACF075F0C8EBA460
:1074F0002CFB74962AFAE43BFB1268B890F9D01280
:1075000075F37401804E90F8FEE06049E521C39C5C
:107510005043ECC39521F521E49400F522C3E52105
:107520009407E522127680502C90F9EAE0FCA3E063
:10753000FDEC8521F0A4CCAEF08522F0A42EFE85D2
:1075400021F0EDA42EFDEA2CFAEB3DFB8882898325
:10755000EAF0A3EBF088828983E07002A3E060394F
:107560007A18E52670027AEF741265237004743974
:107570002AFA90F962E0A2E6500674EA2AFA800933
:10758000A2E5500574FE2A1A1AEA3395E0FB8882B8
:107590008983E02AF0A3E03BF0790A12686585410F
:1075A00082854283E0F9127B7590F962E054486469
:1075B00008702190F9ECC3E094C8A3E09400501443
:1075C000E5232425F582E434F8F583E090DF06F026
:1075D00090F9A8F0790012671F127616700890F9DA
:1075E000B3E0F912671F127684742512623E7F0C95
:1075F0000262BCE0FAA3E0F5838A82A3A3A322AAD5
:1076000021E522FB3395E0FCFD127E692239FB90D7
:10761000F9D2E0241A2290F962E0546064202290AA
:10762000F96A126FA690F9EE22126D6FEAF0A3EBE1
:107630002290F98CE0F582AC82E525F83395E0F9EB
:10764000C3EC98E499A2D265D03322F090F9D2E04D
:1076500022127AAB026C68C3E49CFAE49400FBC388
:10766000E89AE99B80DFE525F83395E0F9E82EF507
:1076700021E93FF522AA21FB126618C3EA9461EBC7
:10768000940080C1C082C08390F53AE06410700518
:107690001276AD8015C2AFE490F826F0742090F514
:1076A0003AF075D60175E102D2AF0268601276B782
:1076B0007401F0A3E4F02290F9D2127A97026D8857
:1076C00074F112625D90DF08E0FA3395E0FB90F907
:1076D000D41268BC90F9CCE0FCA3E0FD7E0874FFF6
:1076E0002EFA1E3395E0FBEAC333FAEB33FBEA24B0
:1076F000C0F582EB34F9F583C3E09CF0A3E09DF084
:10770000EE70DB90F9CCECF0A3EDF090F966E0F5CB
:1077100021A3E0F52290F9DD782512615490F9D487
:10772000E0F523A3E0F5247402782312621CE5231C
:107730002525FAE5243526FBEAC39521F523EB95AB
:1077400022F524740278231261FDE52390F992F06A
:10775000E9602275E104E5223395E0F523F52490F4
:10776000F9DD782112613CAA21AB22AC23AD2412B1
:107770007E6912777A7F080262BC790012671F1255
:1077800076842274F712625DEAFE7CA07DF8E9241B
:10779000A0FAE434F8FBE912632D042F30D87943C2
:1077A00044117A4F52167A5758267A1A011B7A04D6
:1077B000FC770537780AEE791663781773781A83A1
:1077C000781CA2781FD07820ED7821CA78233579EB
:1077D0002440792669792953792A7F792B4C792D90
:1077E000C67935DD7937257939E9783A027A3B75FA
:1077F000793D117A46117A4B117A327AEE6033D2A2
:1078000093127A52E4F0A3F090F9B7E0701290F975
:10781000D2E02414127A427002A3E07003027A329A
:107820001267B7E490F9B712764B2414127A470224
:107830007A31C293027A32EE60177418559070163E
:10784000D2931267B7127A527488F0A37413027A33
:1078500031C294027A32A2945003027A321267B78C
