:100000000200ECFFFFFFFFFFFFFFFF0202CFFFFF39
:10001000FFFFFFFFFFFFFFFFFFFFFFFFFFFFFFFFF0
:10002000FFFFFFFFFFFFFFFFFFFFFFFFFFFFFFFFE0
:10003000FFFFFFFFFFFFFFFFFFFFFFFFFFFFFFFFD0
:10004000FFFFFF020395FFFFFFFFFF0202E8FFFF34
:10005000FFFFFFFFFFFFFFFFFFFFFFFFFFFFFFFFB0
:10006000FFFFFFFFFFFFFFFFFFFFFFFFFFFFFFFFA0
:10007000FFFFFFFFFFFFFFFFFFFFFFFFFFFFFFFF90
:10008000FFFFFF0202B300000080FB1200FBB9007B
:10009000030200E690F1B0AA82AB839003BE78031E
:1000A00079018015E493A3AC82AD838A828B83F0BF
:1000B000A3AA82AB838C828D83D8E9D9E790F1B073
:1000C000AA82AB839003BE780179018015E493A3E3
:1000D000AC82AD838A828B83F0A3AA82AB838C82AD
:1000E0008D83D8E9D9E712026012008675D00075B9
:1000F00081A07541B07542F102008B7901227F3FEA
:10010000C0077F60C007320075DB0275DA5775E4FF
:100110000675E54490F500E479FFF0A3D9FC90F56D
:10012000007405F090F55B742CF0A37401F0A374D7
:1001300064F075C908D2B9D2AF7F3FC0079004D52B
:10014000E0B408057F08C007227F60C0072290F551
:1001500038E004F07004A3E004F022006390019002
:10016000F50063920190F55B7904E0A3639201F0DE
:10017000A3639201D9F463920190F536E4F022E48E
:1001800073C0D02541C582C0E0E54234FFC583C0BD
:10019000E0E541C3958224F3C0A8C2AF85834285C0
:1001A0008241D0A8C8F0A3E9F0A3EAF0A3EBF0A342
:1001B0007921E709F0A3D8FAECF0A3EDF0A3EEF073
:1001C000A3EFF0A3D0E0F0A3D0E0F0A3D0E0F0A341
:1001D000E520F0A3E5F0F0A322854283854182E08B
:1001E000C0E0A3E0F9A3E0FAA3E0FBA37821E0F6E6
:1001F00008A3DFFAE0FCA3E0FDA3E0FEA3E0FFA379
:10020000E0C0E0A3E0C0E0A3E0F5D0A3E0F520A3C8
:10021000E0A3F5F0E5A8C2AF858241858342F5A849
:10022000D082D083D0E0F8D0E032D083D082C5F045
:10023000E493A3C5F0C395F0F5F0E493A3C395F060
:100240004005E5F0048001E475F002A42582F58202
:10025000E5F03583F583E493A3C0E0E493C0E022A6
:10026000741090FFFFF012010822C082C08390F149
:10027000B0E0243A120385FA74206A701774019072
:10028000F521F090F538E090F55FF090F539E090C9
:10029000F560801374106A700FE490F50EF090F51D
:1002A0000FF0740190F522F074F090F53AF0D083DD
:1002B000D08222C0E074F2120181C2AF53E9EF5341
:1002C0009BFCE59B75D68312026AD2AF020380C005
:1002D000E074F212018185888890F1B0E024321236
:1002E00003B312017F020380C0E074F21201817532
:1002F00021007E007FF5C2DC12014E8E828F83C307
:10030000E09401A3E09400A2D265D033405D8E82D8
:100310008F83E024FFF0A3E034FFF08E828F83E030
:100320007002A3E07045E52112022A000162033346
:1003300003440312015C90FFFFE0600314802B1262
:1003400000FE802790F1B0E02430120385F8A3E08E
:10035000F988828983E5827002E58360E212017F79
:1003600080098E828F8374FFF0A3F0EE2402EF34B5
:10037000000E0EFF0521E521C3941050030202FB7D
:100380007F010201D912038922F8A3E03400F98821
:10039000828983E022C0E074F212018185C0C0E549
:1003A000D1A2E2500C90F1B0E024341203B3120158
:1003B0007F80CD120389F8A3E0F58388822200F5BF
:1003C000FFFFFFFFFFFFFFFFFFFFFFFFFFFFFFFF3D
:1003D000AAAA00000000986BC000003BC8D2C80A5F
:1003E0006D62A9A3C307DB89AC8F7F6DAFD94FB115
:1003F0001B2A9689E2E552C4759906D0119B8E6836
:10040000AAAA0000FFFF986BC000003B71AA35BA92
:10041000D3BC633D91ED1C3F00005CC300001C4554
:1004200095BFD6340000924285EB5D4100C0D0C438
:1004300066664A41000000008FC2FD40000012C401
:100440000AD747410000000052B8DE3E00401C447D
:10045000EC51F84000C013C4F0F018FC000000AAF2
:10046000414E4453006C61724175677573740007A7
:10047000417567757374000741756775737400077C
:10048000000000000000000000000000000000006C
:1004900000000000FFFFFFFFFFFFFFFFFFFFFFFF68
:1004A000FFFFFFFF0049F0E25249F0E25249F0E25B
:1004B00052ACC5A73717B751380101C8D2FF0201A6
:1004C00000FF9701A49A24FF28001E0003000400E7
:1004D000080050003F08F100F100008BFFFF19C831
:1004E0006E645A0A070B3C6400000A000100000019
:1004F00000000000FFFFFFFFFFFFFFFFFFFFFFFF08
:10050000FFFFFFFFFFFFFFFFFFFFFFFFFFFFFFFFFB
:10051000FFFFFFFFFFFFFFFFFFFFFFFFFFFFFFFFEB
:10052000FFFFFFFFFFFFFFFFFFFFFFFFFFFFFFFFDB
:10053000FFFFFFFFFFFFFFFFFFFFFFFFFFFFFFFFCB
:10080000E490F80078C279048002F0A3D8FCD9FA09
:1008100090FBC1AA82AB839042F478C07901801525
:10082000E493A3AC82AD838A828B83F0A3AA82ABCC
:10083000838C828D83D8E9D9E71222B712085D75BF
:10084000FE02D29175D0007581507541007542F855
:1008500002080043AE0222E5AE20E7FB2280FEE064
:1008600066701008A3E066700A08A3E066700408CA
:10087000A3E06622C3E7960809E7960809E7960809
:1008800009E796A2D265D03322C3E09608A3E0968A
:1008900008A3E09608A3E09622080808E630E711CE
:1008A00012106A1208B1080808C64480C618181841
:1008B00022181818E9799EC608CAC608CBC608CC03
:1008C000C6C370207996CACBCC7019798ECBCC7008
:1008D000137986CC700EF9802ACA33CACB33CBCCBD
:1008E00033CC331930E7F2CCCBCA3350147004EA5E
:1008F00030E00DE4CA3ACACB3BCBCC3CCC50020929
:10090000C3E913C6CC182313C6CB18C6CA18C6F938
:100910002212095120F01430E72B74FFFCFBFA740B
:100920007F8022E4FCFBFA7480801AB48008BC004B
:10093000F2BB00EF800F50EBF9E4C39AFAE49BFBA3
:10094000E49CFCE499C6CC18C6CB18C6CA18C6F9F4
:1009500022E4C9C608CAC608CBC6D3330308CCC62E
:100960003392F0C3947F402E94184019C9B90704FC
:10097000CACBCC225025C309CA33CACB33CBCC3324
:10098000CC33D9F422F4600DC9CCC313CB13CBCA3A
:1009900013CAD9F6CC22E4FCFBFA2214FCFBFA229F
:1009A000E6C33318461846184622E7C333194719D9
:1009B00047194722181818E6084608700AE608C3BF
:1009C000337005E633F4220822191919E70947099B
:1009D000700AE709C3337005E733F4220922E608F9
:1009E0004608C3134608336002E633F422E709479A
:1009F00009C3134709336002E733F4221209DE60AA
:100A00001B1209ED60161209A070071209AA600CEA
:100A1000B322C0D01209AA7005D0D022C32233D08D
:100A2000D0501330E0EBC3E7960809E7960809E7D2
:100A3000960809E7962220E0E4E6970809E6970879
:100A400009E6970809E69722001209DE604F1209AD
:100A5000ED6012E7548066F61209B470111209AA0B
:100A6000703B090909F4F618F618F618F62212096F
:100A7000C970151209A008080860EAE6447FF61854
:100A8000768018E4F618F6221209A060161209AA58
:100A90007012E4F608F608F608E65480F60909092B
:100AA00018181822EAC0E0EBC0E0ECC0E0EDC0E0AE
:100AB000E687F0A4FBACF008E687F0A42CFCE43554
:100AC000F0FA1809E687F0A42C4B60027401CA35CD
:100AD000F0FCE433FB09E687F0D2F7A42CCB35F029
:100AE000FC1908E687F0A42BCC35F0FBE433FD08B5
:100AF00019E687F0D2E7A42C4ACB35F0CD3400FCC0
:100B000009E687F0D2E7A42DCC35F0FDE433FA09ED
:100B100018E687F0D2F7A42CCD35F0CA3400FC08D3
:100B2000E687F0D2E7D2F7A42ACC35F07A7E20E728
:100B30000B0ACB33CBCD33CDCC33CC33CB335014AA
:100B40007004ED30E00ED2F1E4CD3DCDCC3CCC3B99
:100B50005005DA05C2F1EB547FC63308E63392F054
:100B6000FBE73309E733C39A502D2B70190C0D4C5A
:100B70004D70151806E608C333700D20F10AA2F077
:100B800013F6E418800B4024E4F630F00276801867
:100B9000F618F618F68024D33B14501074FFA2F018
:100BA00013F6187680E418F618F6800FA2F013F604
:100BB00018E63303F618ECF618EDF6D0E0FDD0E0B9
:100BC000FCD0E0FBD0E0FA221209ED60461209DE0B
:100BD000603DE9687008F618F618F618F622748079
:100BE00067F7120BFC090909748067F7221209DE06
:100BF000601D1209ED7005191919801A1209B470D7
:100C00001F1209C9C37003E6673319191940071881
:100C100018182208080874FFF618F618F618F622B5
:100C20001209C960171209AA702192F01209A07066
:100C300019501720F014080808090909E7F61819CF
:100C4000E7F61819E7F61819E7F6221209A060E688
:100C5000E869701F0808E62480F608E436F61854A0
:100C60007FB47F0CE654806007F6E418F618F6228D
:100C7000181822E9C6CC08C6CD08C6CE08C6CFC013
:100C8000E0E8C0E0EAC0E0EBC0E009E9F809E7FA13
:100C900009E7FBE6F918E6F8C3EC98ED99EE9AEB54
:100CA000C2E7F5F0EFC2E795F0500E600CEBCFFB1A
:100CB000EACEFAE9CDF9E8CCF8EAA2E7D2E7FAEB16
:100CC00033FB13F5F0EEA2E7D2E7FEEF33FFC5F0FA
:100CD00013A2E730E601B313C5F0C3C0E0C0F07F54
:100CE00000C39BFB605B9418600C401AD0E023F9B2
:100CF000D0E0F8020DCB8AF0E9486003D2F0E4AF0F
:100D0000F0FAF9F8803BEB30E40D89F0EA6003D2A9
:100D1000F0E4AFF0F9CAF8EB30E30D88F0EF6002D1
:100D2000D2F0AFF0E4CAC9F8EB54076014FBC3EA91
:100D300013FAE913F9E813F8EF135002D2E0FFDBDE
:100D4000EDD0E0C0E030E739C3E49FFFF5F0EC9868
:100D5000FC42F0ED99FD42F0EE9AFE42F0D0E0F94F
:100D6000D0E0F8E5F0607AE923F9EE20E742D80216
:100D70008067C3EF33FFEC33FCED33FDEE33FE80D1
:100D8000EAEC28FCED39FDEE3AFED0E023F9D0E0A4
:100D9000F84002801BC3EE13FEED13FDEC13FCEFD5
:100DA000135002D2E0FF08B800067F7F74FF802E48
:100DB000EF3350178CF020F00260100CBC000C0DCB
:100DC000BD00080EBE000408E860DFE933E813FF49
:100DD000EE2313FE4F4D4C8008E95480FFE4FEFDE6
:100DE000FCEE33EF33F47004FCFD7E80D0E0FBD0EA
:100DF000E0FAD0E0F8D0E0CFC618CEC618CDC618BD
:100E0000CCC6F9221209DE7004181818221209ED56
:100E1000700D74FFF61819F61819F61819F622E76E
:100E2000548066F61209A0700F1209AA70F014F629
:100E300008F608F608F680D11209AA700CF608F632
:100E400008768008E6447F80EC1209CC700C120909
:100E5000B760BFE65480F6E480BB1209B77005198D
:100E6000191980A5E869700C763F18768018F61875
:100E7000F6E8F922E6CDC0E018ECC0E0E633CD3369
:100E8000CDD313F6E719FCE7191933CC33C3947F9C
:100E9000400ECD9D502408E65480F6E418F6800FED
:100EA000F4043D14501408E6447FF6187680E418E4
:100EB000F618F6D0E0FCD0E0FD22CCD313CCFD1820
:100EC000E4C6CBC0E018E4C6CAC0E00808ED08C616
:100ED00033E613F618E433C675F003C3CA97CA099C
:100EE000CB97CB199C40047D08802EBD0003020FD8
:100EF000AD16B6FF050606081618C3CA33CACB33AB
:100F0000CB33CA27CA09CB37CB193CC37D08803EF7
:100F1000187D0820E75CC633C6CA33CACB33CB334F
:100F2000DDF1D5F0EB30E77BCA97CA09CB974ACB06
:100F3000199C406F4B7025E620E0218066187D08E3
:100F4000C3CA97CA09CB97CB199CD3C633C6CA3339
:100F5000CACB33CB3350C9DDE7D5F0E1D3E4C63695
:100F6000C608C636C608C636C608C636C618181815
:100F70008031C3CA97CA09CB97CB199CB34097C697
:100F800033C6CA33CACB33CB33DD34D5F02EC6A239
:100F9000E0C640C8CA27CA09CB37194A70BECB3C45
:100FA000B480B90808E63308E633601F181818D073
:100FB000E0FAD0E0FBD0E0FCD0E0FD22187D08CACA
:100FC00027CA09CB37CB193CD3808013F618E4B677
:100FD0007F11F618B6FF0EF618C60470D208087610
:100FE0008080CAF618F618F680C5080808EAC0E03E
:100FF000EBC0E086F0E7A4FA180986F0E7A42AFA25
:10100000180986F0E7A42AFA180986F0E7A42AFA54
:101010001986F0E7A4FBE5F02AFA190886F0E7A4A0
:101020002BFBE5F03AFA190886F0E7A42BFBE5F074
:101030003AFA18180986F0E7A4C5F02BFBE43AFA4F
:101040001908E7C5F0C6A426F6E5F03BFBE43AFA3A
:101050001886F0E7A4F6E5F00826F6E43B08F6E487
:101060003A08F6D0E0FBD0E0FA22181818E4C3964C
:10107000F608E496F608E496F608E496F62260167A
:10108000080808C6C313C618C613C618C613C61860
:10109000C613C6D5E0EA22E026F608A3E036F60835
:1010A000A3E036F608A3E036F622E026F008A3E037
:1010B00036F008A3E036F008A3E036F022C3E0C61D
:1010C00096F608A3E0C696F608A3E0C696F608A32F
:1010D000E0C696F622C3E096F008A3E096F008A3D7
:1010E000E096F008A3E096F022E0F608A3E0F60808
:1010F000A3E0F608A3E0F622E6F008A3E6F008A3D2
:10110000E6F008A3E6F022CAC0E0E6F0A308DAFAA7
:10111000D0E0FA22C3E498F8E499F9121155802638
:10112000C3E49AFAE49BFBE920E7E9121155E4983D
:10113000F8E499F922C3E498F8E499F9121155E416
:1011400098F8E499F9C3E49AFAE49BFB22EB20E7D0
:10115000CFE920E7E0B90010BB0008E88AF084F886
:10116000AAF022E4FBC8FA22EB70227B10C833C835
:10117000C933C9335007C39AC3DBF280069A5001C2
:101180002ADBEAC833F4C8C933F4C9FA2275F00877
:10119000E4C833C8C933C933C99AC99B5004C92AA2
:1011A000C93BD5F0ECFBC833F4C8E4C9FA22600DA2
:1011B00008C6A2E713C618C613C6D5E0F322600C12
:1011C00008C6C313C618C613C6D5E0F4227004229D
:1011D000600D18C6C333C608C633C6D5E0F418225E
:1011E0002541C0A8C2AF40021542F541D0A822C097
:1011F000D02541C0A8C2AF50020542F541D0A8D0C9
:10120000D0222541F582C0A8C2AF40021542F54167
:10121000D0A8854283222541F582E43542F5832218
:10122000E4732541C582C0E0E54234FFC583C0E0D8
:10123000E541C3958224F9C0A8C2AF858342858267
:1012400041D0A8CEF0A3E520F0A37821E608F0A3D2
:10125000DEFAEFF0A3E58124FBF8E608F0A3E60848
:10126000F0A30808E608F0A3E608F0A315811581AD
:10127000D0E0FED0E0F815811581E8C0E0EEC0E0D6
:1012800022854283854182E0A3FEE0A3F5207821F8
:10129000E0A3F608DFFAE0A3FFE0A3C0E0E0A3C00C
:1012A000E0E0A3C0E0E0A3C0E085A8F0C2AF858283
:1012B0004185834285F0A8D083D0822274028000C9
:1012C000C0E0F404121202D0E012110722D083D041
:1012D00082C5F0E493A3C5F0C395F0F5F0E493A3C1
:1012E000C395F04005E5F0048001E475F002A42503
:1012F00082F582E5F03583F583E493A3C0E0E493BF
:10130000C0E022D083D082CCC0E0E493A360061278
:10131000132D1470FAE493A3600612134C1470FAA0
:10132000D0E0FCE493A3C0E0E493C0E022C0E0E49A
:1013300093A3D39C5010E493A3C39C400AD0E0D065
:10134000E0D0E0021320A3A3A3D0E022C0E0E49306
:10135000A36C7009D0E0D0E0D0E0021320A3A3D0AA
:10136000E022C082C083740149F5B37C10800C8AEE
:10137000828B83E0F5B1A3AA82AB83EC1C70F0D022
:1013800083D08222800100E5B3A2E350F92274F7F2
:101390001212228922ECFEEDFF7409121216E0F8F7
:1013A000A3E0F988828983EAC4540FF5218015E50A
:1013B000B2F0A3EB1B70F81213841521EE2410FE7B
:1013C000EF3400FFE5216016EEFAEFFBA9221213BD
:1013D000627B0C800100EB1B70FB7B1080D57F02D1
:1013E000021281C082C08390F876E054F0F074134A
:1013F00090F875F074DF90F86FF074D990F870F091
:1014000074F890F871F0742590F872F0748090F888
:1014100073F0742590F874F0741090F876F074F806
:10142000F5D575D46F90F87EE054F0F0741390F811
:101430007DF074F890F877F0744A90F878F074DFE3
:1014400090F879F074D990F87AF0742090F87BF0E5
:10145000742390F87CF0744090F87EF090F886E069
:1014600054F84408FAF0741290F885F090F883E08C
:10147000541FF074DF90F881F074AF90F882F0E4BC
:1014800090F883F074F890F884F0740F5A44409008
:10149000F886F074F8F5D375D277D083D0822274B1
:1014A000F6121222EAFEEBFF8C218D22892312080C
:1014B0005775AB2AEF90F87FF0EE90F880F090F837
:1014C00083E054E0F0E52390F884F0AA21AB227485
:1014D0000978211211BEE521F5ADEBC313EA13F52E
:1014E000AC53D1FBD2B875D60412085379017F03EF
:1014F000021281C082C08390F888E4F0A3F0798062
:10150000FC12153DD083D08222C082C083C2B89025
:10151000F887E0602690F888E02480F0A3E03400AB
:10152000F0E490F887F0C390F889E09480500C794B
:101530008090F888E0FCA3E012153D80C7FD7A8A10
:101540007BF81241F9798090F888E0FCA3E0FD7AFD
:101550008A7BF812149FE990F887F0227A177BFFB4
:1015600000DBFDDAF9D9F52274F11212227C198020
:101570000F75F00AECA429C0E0EC121640D0E0F0A0
:10158000EC1C70EDE9F5257526007527007528001F
:101590007C0090FBC178211210E978257921120F87
:1015A000EA90FBC57825121097852521852622858E
:1015B00027238528247410782112107E74FF55216A
:1015C000F8747F5522F97A197B001211558C23E5A6
:1015D00023240AF8E434F9F988828983E0FDEA24B7
:1015E0000AFAE434F9FB8A828B83E088828983F0EB
:1015F000ED8A828B83F00CECC3941940957F08022E
:101600001281C082C0837B19EB1B8B82A882600C85
:1016100090DF06E0FAE812163B6A70EC75E104749C
:10162000012808E43400F97A197B0012114DEA12FE
:10163000163B90DF06F0D083D08222121640E022C3
:10164000240AF582E434F9F5832274E9121222891E
:101650002190FBE1E0C395215003E0F52190FB4789
:1016600078251210E990FC2D78291210E978257957
:10167000291209FC503275251F75268575277B7543
:10168000284090F95B78291210E990FC31782D12EE
:1016900010E97829792D120BED78257929120E049D
:1016A00090FB4778251210F87522007523007524E9
:1016B0000078211208B490FB4778251210E97821B0
:1016C0007925120A4890FC3578251210E97821799D
:1016D00025120BED7821120911A821C3E5229401EE
:1016E000400278FFE8F97F10021281C3EA940112E8
:1016F00017054005EAF8EB8006C3E49AF8E49BF985
:10170000E8FAE9FB22EB02226379037C177DFC7A7D
:10171000097BDF1241F92274F8121222E9FEEAFF76
:10172000C2AF12182F539BFCE59B53E9EF75911044
:1017300074326E700C90F9FEE0A2E15004791980C9
:1017400002EEF912404EEF90DF06F074326E700533
:1017500090F9E4800390F9E0E090DF2E123BFAF07C
:1017600090F97BE090DF01F090F97CE090DF00F0F1
:10177000439A01D2AF022973C082C083E9FA90F97B
:10178000E5E0A2E6500479328002790C12171702C4
:101790001ADCC082C08375D683E9601C90F9E5E04D
:1017A000A2E6401490F9E3E0FA793212171790F9A3
:1017B000E2E090DF05F080031217BE021ADC90FB16
:1017C00001E0F912177822C082C08375D6831218FF
:1017D0002F79047ABD7BFB1241DFE490DF08F01221
:1017E000170912182290F9E5E0A2E6500590FB01D6
:1017F000800390F9C7E0F9E990FB01F012177879BE
:10180000067A197BFB1241DF90FAFDE4F0A3F0FAAF
:1018100079011231A312316C12183F90FB0BF002C8
:101820001ADC7A837BF9790412136212138422750D
:10183000E10490FBE3E0243A1229F274F0F02290E4
:10184000FB21E024101229F2E4F0A3F02274F1123B
:10185000122275FD00758FFFE5F275F2FF7A0075B3
:101860002101752200EA78211211CDE52145F2F51A
:10187000F20AEAC3940840E775F4C075FEDB75CB45
:101880005075CC2475CE2475F12075F52079127A27
:10189000E87BFA1241DF75F300E490DF08F090F97D
:1018A000C7E0F91215681213E31217091217BE7573
:1018B000210075220075238075243F90F93F78251B
:1018C0001210E978217925120E0490FA1D78211260
:1018D00010F843CB14E5CBD2B9D2A9439A01021A2E
:1018E00030C082C08390FA02E0FA601B90F9DEE01B
:1018F000FBEAC39B5003EA8001EBFC8CCD12226B08
:1019000074D0F0A37407F0D294021ADC74F11212AE
:10191000228A218B228C238D2412193A78251210C9
:10192000E978257921120A4812197978211210E9EB
:1019300078257921120BED021A2890FB4B121941E0
:10194000221219452212194922E0F8A3E0F58388F2
:10195000822274F11212228A218B228C238D24126E
:10196000197978251210E978257921120BC81219F6
:101970003A78211210E9021A2190FB4B12259B2282
:1019800074F1121222892175220074027821121139
:10199000CD12363378211210E9782112089990F986
:1019A0003F78251210E978217925120A4890FB4DDD
:1019B00078251210E978217925120A48AA21AB224C
:1019C000AC23AD24121952021A3074F112122212F1
:1019D000193A78211210E97D018A828B83782512C9
:1019E00010E978217925120A488D257526007402A0
:1019F00078251211CD90FB4BE02525FCA3E0352680
:101A00008C82F58378251210E978217925120BED67
:101A10000DEDC3940440C2AA21AB22AC23AD2480B7
:101A20000F78257921120A48AA25AB26AC27AD28C4
:101A30007F08021281C082C08379F07C007D5C7ACD
:101A4000237BF91241F990F923E064AA7004A3E022
:101A500064AA601912223A9003DCE090F9DEF0905B
:101A600003DDE090F9DFF0746490FA02F0E490FB9B
:101A700011F08068C082C08374FF90F9C7F090FBBA
:101A800001F090F9E5E0C2E4F0D2E2F090F9FEE076
:101A9000C2E4F090F9E5E0541FF0E490F97FF079AA
:101AA000207CF77DFB7A837BF91241F979107C1A4F
:101AB0007DFC7A2F7BF91241F990F97B74F0123A90
:101AC00080790C7CD07D037A237BF91241F9740173
:101AD00090FB11F01217C7800312316CD083D082B3
:101AE0002274F112122290F93F78251210E990FB2E
:101AF0005D121D021208B478257921120E0490FBA4
:101B00005178251210F890FB4B7463F0A374F9F030
:101B100090FB5F121D021208B490FB517825121041
:101B2000E978217925120A48121CC9E490FB0FF0CC
:101B300090F97FE0FA602175F0E8A4CAACF075F086
:101B400003A42CFCE42CFBE89AE99B50047A018066
:101B5000027A00EA90FB0FF090FB11E0C3700DE8F1
:101B60009431E99475401E121A748019E89454E96E
:101B7000946F5011121A3590F9E5E0A2E650031265
:101B80001CE81217C790FB4B746BF0A374F9F0902C
:101B9000FB61121D021208B490FB5178251210E966
:101BA00078217925120A48AA21AB22AC23AD241250
:101BB00019528A218B228C238D247821120911AA93
:101BC00021AB2290FA06E0F5217003021C6874FF35
:101BD00065217003021C6890FB67E07002A3E0605F
:101BE0000990FB67122252F0807E75220074037800
:101BF000211211CD90FB67E521F0A3E522F090FBC7
:101C000069E0602F90FA05E0F8C3EA9812170550D2
:101C100014A29440031218E190FB09E0121CE0E4C6
:101C200090FB6980C2A294503F90FB08E060391499
:101C3000F08032A294503190FA04E0C39AE49BA25F
:101C4000D265D033502290FA09E0FB90FB08E0FA0D
:101C5000EBC39A5003EB8002E014F0740190FB692F
:101C6000F090FB08E0121CFA90F982E06052A29416
:101C7000504E90FB4B744BF0A374F9F090FB55124F
:101C80001D021208B490FB5178251210E9782179D1
:101C900025120A48121CC990FBE1E064FFC3600FE3
:101CA000E89441E9941F401E74FF121CF18017E86C
:101CB0009470E99417500F90F982E090FBE180EA6C
:101CC00074FF90FBE1F0021A30AA21AB22AC23ADE5
:101CD0002412190C1242AE8A218B22A821A9222299
:101CE00090FB08F0121CFA2290F9FDE090FB01F045
:101CF00022F090FB08E0121CFA22F912164AE9F5CC
:101D0000CF22E0F521A3E0F52275230075240078A9
:101D10002122C082C08312365AC3E89AE99B500838
:101D200074FF281874FF39F9E8C39AFAE99BFB029B
:101D30001ADC74F712122290FB21E0241CFAA3E0B3
:101D40003400FB892174012521F8E43400123A9013
:101D50008005639004E5908A828B83C3E09401A39D
:101D6000E09400C365D03350E98A828B83E4F0A30A
:101D7000F07F0202128174F5121222752100C294C2
:101D800075FEDB7E008E23752400740A7823121101
:101D9000CD2400F874083524F9741090FFFFF07C0E
:101DA000007D00E8FAE9FB8A828B83A3A882A983DD
:101DB0008A828B83E064FF70047A0180027A0012C9
:101DC00025656006C3ED940440D9EB42210EEEC3B5
:101DD000940F40B1E521600312603F7F040212813D
:101DE000C082C0838A828B8312224D8A828B83E0D9
:101DF0007004790180027900021ADC74F512122253
:101E00007E03EE1E7003021EF2742090FFFFF07539
:101E10002100804990FB0CE0600214F07ADC7BFB2F
:101E2000121DE0E960061217C71225F090FBDEC311
:101E3000E0940AA3E09400500312223A90FAFF12B1
:101E4000224390FAFFC3E094E9A3E094034005E441
:101E500090FC2AF00521E521C3941050A5A82190FB
:101E6000FB1FE028123AA860EBE4F0E5211213030F
:101E7000000501A31E02831E039E1E09141E0BA84B
:101E80001E541E90F9E5E054606420700790FB0D2D
:101E9000E0F98002790012179212312480B61229DB
:101EA0007880B1122A0180AC123AAC123660C3E8D5
:101EB0009411E91222635006E87001E970097A0171
:101EC00079001231A3800990FB1FE0240B12257AC0
:101ED00090F97D1236607583FA7582DA12225B40C2
:101EE00003021E54E490FB08F075CF001225AE02E9
:101EF0001E53742090FFFFF0752100E521C333F8D5
:101F0000E433F990FB211230CE1230AF40030222AD
:101F10002B88828983E4F0A3F0E5211212CD020D13
:101F20002B223E1F4B1F832001200E202B22392005
:101F3000E92006208E205C21BD212B22272175C996
:101F4000A875C958122590E402222A90FB0CE07073
:101F50000302222B90DF05E0FA90F9E2E06A7004B8
:101F60007A0180027A00EA90FB70F090FB12E07038
:101F700003021FF490FB05E0600C14F0701090FA5F
:101F80001BE4F0A3800790FB0AE0600214F07900E4
:101F90007A4A7BF81229AE90F981E0FA70030222A6
:101FA0002B90F980E0FBEAC394084009EBC3940846
:101FB000400302222BEB6008C39A50048B2380025B
:101FC0008A2312310490F9E5E0A2E25010E523C320
:101FD0009408400302222B12227502221974016513
:101FE00023600302222B90FBD2E024FFFAA3E0340B
:101FF000FF02222190FB1F12193DA3A374010222AC
:102000002AC29302222B740190FB1002222A90F91B
:10201000DCE0700E90F9DDE06008D293123AD4F063
:10202000800890F9DCE0A2E0929390F9DDE0700383
:1020300002222B1218E102222B90F9E5E0545064A1
:1020400010704090FB0BE0FA74FF2AF0EA602390D6
:10205000FB01E090DF06F0121602121CEB90FBD29F
:102060001230EE90FB21E024101229EEEAF0A3EBEF
:10207000800990F9C7121CEB90DF06F0123ABFE41A
:10208000F0A3F0790012179212312402222B1225AC
:10209000A390FB6C12224390FB6CC3E094E8A3E096
:1020A0009403500302222B90FBDE12224D90FB6C16
:1020B000E4F0A3F090FB6EE004F0C3943C50030204
:1020C000222BE4F090FB6FE004F0600E75F00F84BB
:1020D000E5F07006740190FBE2F090FB6FE0C394B2
:1020E0003C500302222B021F4712228C90FBC91284
:1020F00036607583FB7582D2E0C398F8A3E099F946
:1021000074F628F874FF39F990FB211230D6A3A396
:10211000A3A3A31230A2123115F090FB0DE07003BF
:1021200002222B1402222A90F9DEE0FBE5CDC39BAC
:10213000400302222B90FA0DE0FCE5CDFAEC70058D
:102140007C0180010AEC1C6005EAC39B40F68ACD45
:1021500012226B74D0F0A3740702222A90FB21E0B4
:10216000241812310EE8FEE9FF90FADA1236607593
:1021700083F975827D12225B503990FB08E0C0E044
:1021800090FB09E0FAD0E0C39A400302222B90FAB8
:102190000AE0FC90FB08E0FBEC70057C0A80010B78
:1021A000EC1C6005EBC39A40F6EB121CE38E828FA9
:1021B0008380A0E490FB08F075CF0080F012365ABF
:1021C00090FB171230A212276990FB171230EE1203
:1021D0001D1290FB1712229D90F981E0F523604BB0
:1021E0001230B990F9E5E0A2E2501BE523C3940850
:1021F0005039122275FB90FB17E0FCA3E0FDEAC307
:102200009CFAEB9D801374016523701F7583FB7529
:1022100082D2E0C39AFAA3E09BFB74FF2A1A74FFF0
:102220003BFB88828983EAF0A3EBF00521E521C31B
:1022300094105003021EFB021DDB121A74E490FB83
:1022400011F022E02401F0A3E03400F02212225227
:10225000F022E024FFF0A3E034FF22C3E098A3E0E3
:102260009980029400A2D265D0332290FB21E02411
:102270001E1229F22290FBD2E0FAA3E0FBEA8523AA
:10228000F0A4FAACF08523F0EBA42C2290FBD2E072
:10229000FAA3E0FB90FB21E024121229F2EAF0A35A
:1022A000EBF022EEC0E0E9FE80057964121D32EE0B
:1022B0001E70F7D0E0FE22741090FFFFF090DF3622
:1022C000E06481600312410C75C9A875C958123BBE
:1022D000D8D2B97E007F008E218F22740A78211215
:1022E00011CD2400F874083522F9741090FFFFF026
:1022F0007C007D00E8FAE9FB8A828B83A3A882A98F
:10230000838A828B83E064FF70047A0180027A0002
:102310001225656009C3ED940440D9121D76EE24A0
:10232000010EEF3400FFC3EE940FEF940040A8902D
:10233000FBE3E024301229EE74BEF0A374251225CD
:102340007424321229EE7409F0A374261225742421
:10235000341229EE7409F0A374151225742437126F
:10236000257A123C037478122571245D1229EE74CB
:1023700028122571242012310E90FB1F1230A290DA
:10238000FBE312366090FB211230A290FBE3E024C5
:102390003812310E90FB6A1230A2741855BEC31366
:1023A000131390FB07F079F07A237BF91241DF12C7
:1023B0001A3579047CBB7D437ADC7BFB1228D45030
:1023C0000590F9FD800390F9C7E0FAEA90FB01F06F
:1023D00012402B90FB07E01212CD00035524162467
:1023E0001624E623162490F9DCE06004D2938002E0
:1023F000C29390F9DDE06004D2948002C29490F917
:10240000DEE0F5CD90F9DFE0F990FB08F090FB09F4
:10241000F0121CFB803F90FA02E0FA60048ACD8043
:102420000690F9DEE0F5CDC293C29490F9DCE0A20B
:10243000E09293E490FB08F075CF0090F9DFE09014
:10244000FB0912308E240C1229EE7470F0A374175D
:10245000F01225AEF079907A227BFA1241DF121841
:102460004D1230F91225A312311E122590E4F012FC
:10247000228C740F55E464067012744465E5700C88
:10248000740265DB7006745765DA600312410C1242
:102490001822123AB2123BEB75DAED123BE2790ADE
:1024A0001222A379047CBB7D437ADC7BFB1242259C
:1024B000E9600312410C90F9E5E0C2E7F0E490FB1B
:1024C000D1F0C2917E7F53BEFB8005790212155C6C
:1024D000E5BEA2E64004EE1E70F10075C68943BE5B
:1024E000041217C7801690FBDCE07002A3E07003B3
:1024F0001225F090FBDEE0700312410C90DF36E015
:102500006481600312410C75C908121DFB90FBD257
:10251000C3E09491A3E09406500A90FBD2E07002CD
:10252000A3E0700A90FBD27490F0A37406F090FBC5
:1025300021E024121230F47583FB7582D2C3E09A35
:10254000A3E09B500312258188828983E07002A357
:10255000E0700312258190FBDCC3E09409A3E094B2
:10256000004083808BEAFBEC24010CED3400FDEB92
:1025700022F0A3E4F090FBE3E0221229F27401F0D0
:102580002290FBD2E0FAA3E0FB8882898302229D9D
:10259000122598747DF0A32290FB21121945A3A364
:1025A000A3A32290FB21E024161229F2804990FB7C
:1025B00021E024181229F274D0F0A3740722C082FB
:1025C000C083E490FB041225FE041225FEC394048C
:1025D000500B90FB2112193DA3A31225F390FB048D
:1025E000E024E5F582E434FBF583E0F5B6021ADC7D
:1025F00090FBDC740880027402F0A3E4F022F090F7
:10260000FBE3E024361236552274F5121222E5BBA4
:10261000F522E5BAF52190FB04E0FC74012CF0747E
:102620000278211211AE90FC2BE02521FAA3E035AF
:1026300022FBECC333F8E433F9E824E8F582E9340B
:10264000FAF583E02AF0A3E03BF090FB04E0C394AA
:10265000095010E024E5F582E434FBF583E0F5B69B
:1026600002271D90FAFAE004F0C3940850030227F1
:102670001890FAEEE0FEA3E0FF7CE87DFA7A557B45
:10268000FB90FB03E0C333F8E433F9E82422F8E9D4
:1026900034FAF97523098C828D83E0F521A3E0F5E6
:1026A0002288828983E521F0A3E522F0E521C39EFB
:1026B000F521E5229FF5228A828B83E521F0A3E5AF
:1026C00022F0E82410F8E93400F9EA24020A0AEBBF
:1026D0003400FBEC24020C0CED3400FD1523E52343
:1026E00070B490FB1FE0240BF8A3E03400F988825B
:1026F00089837401F079127AE87BFA1241DFE49061
:10270000FAFAF090FB03E004F06408700B74019097
:10271000FB0EF0E490FB03F0E490FB04F0021DDB01
:1027200074F71212227A937BF97906121828752110
:102730004C7522F878211212BC7C007DF87A207941
:102740000012138E74021211EF742290F84AF09066
:10275000F9E2E090F84BF0740190FB12021D7079E1
:10276000067C297DF91241F92274F112122274FCBF
:102770001211E090FB05E060061229310228C99091
:10278000FB0EE070030228CC90FA1378211210E9B6
:1027900090FA1778251210E978217925120BED852A
:1027A000418285428378211210F87E327F007A00C0
:1027B00079001231A390F9FEE0A2E7790450067C7B
:1027C000137DFB800A854182854283AC82AD837A8A
:1027D000007BF81241F990FB01E090F804F07418C6
:1027E0005590C333C0E090F925E0540FFAD0E04A89
:1027F000333354FC12292579107CD67DFA7A0C7B70
:10280000F81228D4500A90DF061228DE7434800CA7
:10281000A2E5500D90F9E31228DE743328FEE43966
:10282000FF90F9E5E0A2E75008EE2404FEEF340043
:10283000FF90F9FEE0A2E15008EE2408FEEF34001C
:10284000FF90F81AEEF0A3EFF090FB25E07002A3E2
:10285000E0600790FA21E0FA80027A3FEA90F81CE3
:10286000F090FB25E07002A3E0700B90FB72123633
:102870006090FB25800990FB2512366090FB721258
:1028800030A290FB25E090F81DF0A2945024E5CDF5
:1028900090F81EF090FB08E090F81FF090FBE1E04C
:1028A000C0E090F81FE0FAD0E0C39A501590FBE129
:1028B000800B90F9DEE090F81EF090FB09E090F8B4
:1028C0001FF090FB25E4F0A3F012272074041211EE
:1028D000EF021A301241F990F9E5E0A2E622E07524
:1028E000F064A4F8A9F02274F81212228921EAFEF9
:1028F000EBFF7904EEFCEFFD7A007BF81241F9E57D
:102900002190F804F090F925E0333354FC4403128D
:1029100029257914EE2404FCEF3400FD7A0C7BF8B1
:102920001241F9804E90F805F07A067BF812275F85
:102930002274F812122290FB05E0F874FF28187434
:10294000FF3400F990FBE0E0FA7B0012114DE8FC47
:1029500090F9FF7431F0A37429F0EC75F018A4F825
:10296000A9F090FA1BE028FAA3E039FB74ED2CF9EA
:102970001228E77F01021281C082C08374FF90F8A1
:1029800000F090F801F090F802F090F803F079066A
:102990007C137DFB7A047BF81241F97A0A7BF812EA
:1029A000275F122720741290F84AF0021ADCC082C6
:1029B000C0838A828B83E0FC74226C600574126C85
:1029C000702990FB0FE07023EB90F877F0EA90F815
:1029D00078F0121792C2AF90FBE3E0243A1229EE8E
:1029E0007410F075D60275E103D2AF021ADC122919
:1029F000F2221229F622F8A3E03400F988828983B2
:102A00002274F112122290DF38E0F52190DF08E005
:102A1000F52290FAFBE4F0A3F090F825E090FB7B20
:102A2000F02427F582E434F8F583E0A2E7500D9016
:102A3000FB7BE06422600BE06412600612311E0230
:102A4000308B90F9E5E05460FA90F826E0FB7420B2
:102A50006A701B90F9E2E0FC6B701390DF05E06C8C
:102A6000700C79007A257BF81229AE02308B90F930
:102A7000E1E06B600302307190DF3CE0A2E75004BC
:102A8000D2F08002C2F0A2F0E492E0F52374206A52
:102A9000700979017A257BF81229AE7A937BF9794E
:102AA000061218287525007526F878251212BC7CA8
:102AB000277DF890FB7BE024FEFA790212138E74D6
:102AC000021211EF90F800E090FB7AF090F801E02C
:102AD00090FB71F079067C027DF87A747BFB1241E1
:102AE000F9E0541FC39411400302307190FB78C386
:102AF000E094E8A3E09403400302307190FB747803
:102B0000251210E97583FB75821978251208894012
:102B10002879047C197DFB7A747BFB124225E960DD
:102B20000302307190FB7812366090FB1DE06870F4
:102B300003A3E069700302307190FB7478251210D2
:102B4000E97583FB75821978251208894024790478
:102B50007C197DFB7A747BFB124225E9701890FB8F
:102B6000781236607583FB75821DC3E098A3E099E7
:102B700050047A0180027A008A2490FBE3E0245F0B
:102B80001230F4121D128A258B26AE25AF2690FB3B
:102B90007BE02426F582E434F8F583E0F525C39440
:102BA000805013E525C313FA90FBBB123660EAC3CD
:102BB00098F8E4998017E42525F874FF13E813F8D2
:102BC00090FBBB1230EEE8C39AF8747F9BF990FB40
:102BD00025123A984073E521C39401A2D265D033FF
:102BE000E521400FC39402A2D265D033401A75216B
:102BF000018015C3122263500FE521C394FFA2D2B6
:102C000065D03350037521FFE522F83395E0F9E5EF
:102C100021FA3395E0FBEA28F521EB39F522AA21C8
:102C2000FB1216EBC3EA9461121705401674027882
:102C3000211211CDAA21E522FB3395E0FCFD1241C2
:102C40001B8006E52190DF08F0E523700302307158
:102C500090FBE2E06005E4F01230F9639002E59049
:102C6000740790FB0CF079047CBB7D437ADC7BFB22
:102C70001241F9E524600D79067C747DFB7A197B9D
:102C8000FB1241F990FB71E0A2E750047A01800247
:102C90007A0490FBC91230E290FB71E0F8741F587F
:102CA000F8EA28F8E43400F9E88521F0A4C8AAF08D
:102CB0008522F0A42AFA8521F0E9A42AF990FBCF15
:102CC0001230CE90FBD2123A9850047A0080027AE9
:102CD000041230B9E8FCE9FD90FB7AE0701DE49045
:102CE000FB12F0740AC39AF8E412309479067C74EB
:102CF0007DFB7A137BFB1241F9807590F981E0F539
:102D000021F52390FB7AE0F8E523C398F8E49400DA
:102D1000F990F9E5E0A2E2E52150376053C3E89469
:102D200008E9122263504990FBD2E0F523A3E0F5B5
:102D300024E88523F0A4C885F0218524F0A425216A
:102D4000F5218523F0E9A42521F9740A28F8E4394E
:102D50008015601C7401687001E9701490FBD2E06A
:102D6000240AF8A3E03400F9E8C39AF8E912309491
:102D7000740890FB0D12308E240812310E90FBC99E
:102D80001230EE7583FB7582D2E0C39AFAA3E09B02
:102D9000FB74FA2AFA74FF12364090FB7AE090FB3B
:102DA00002123A9C403D90FB21E02410FAA3E0344B
:102DB00000FB90FB71E0A2E6501D88828983E0242D
:102DC000FAF8A3E034FFF9E8C39EF8E99F123A90BD
:102DD000740890FB0B800BE490FB0BF08A828B83D2
:102DE000F0A3F090FBD2E02401FAA3E03400122219
:102DF0009390F9E5E0A2E690FB25501DC3E094A274
:102E00001230A8400F90FBD874031225F990FBD61E
:102E1000741E801B1231158019C3E0949B1230A8D8
:102E200040F290FBD474B41225F990FBDA7404F0EC
:102E3000A3E4F090FB7AE0FC74FF6C600C90F980E6
:102E4000E06006F5F0EC84ACF090F925E0FD90FB35
:102E5000C9123660E88DF0A4F8AAF08DF0E9A42A32
:102E6000F990FBCD1230CEE8C39EFAE99FFB1231F8
:102E70000490F926E0F52374FF6C6010E5236C7074
:102E80000B88828983EAF0A3EB022FD98523258C56
:102E900021E525C39521F521E49400F52290FB71ED
:102EA000E0541FF52490F981E0F52590F9E5E0A2C2
:102EB000E2E525504A7003022F3B74FF6523607BD7
:102EC000ECC395234003022FDAC3E5219408E522E1
:102ED0001222634003022FDAEDC395244003022F30
:102EE000DA90FBD21230C3CCAEF08522F0A42EFED5
:102EF0008521F0EDA42EFDEA2CFAEB3DFB808260EB
:102F00003A74FF65236034ECC395234003022FDA43
:102F1000740165217002E5226003022FDAEDC3958A
:102F2000244003022FDA90FBD2E02AFAA3E03BFB15
:102F300088828983EAF0A3EB022FD974FF652360AE
:102F400003022FDA74FF6D6003022FDA90FB71E049
:102F5000A2E75003022FDA90FB21E0241A12315F1E
:102F600090FB06E0600314807053B4F3E5B443B4FF
:102F700004E5BDC0E090FA08E0F5F0D0E08490FAF6
:102F800007AAF0E02A90FB06F090FB71E0FA741FAC
:102F90005AF52190FBC91230C3FCAAF08521F0ED4F
:102FA000A42AFDE5BC75F0058485F02190FBCB12C9
:102FB00030EEEAA4FA85F0238521F0EBA42523FB6B
:102FC000EA2CFAEB3DFB90FBCDE02AFAA3E01236A7
:102FD0004090FB1F1230D67401F088828983E07024
:102FE00002A3E0603C7A0A90FB7AE070027AFA90E1
:102FF000FB7BE06412700474162AFA90F9E5E0A2F3
:10300000E6500674F82AFA8008A2E5500474FF2AF4
:103010001AEA3395E0FB88828983E02AF0A3E03B3B
:10302000F090F9E5E05460642070057905121D32D6
:1030300090FB7BE024F6F9123D1D90F9E5E0544841
:103040006408701D90FBD4C3E094C8A3E0940050C2
:103050001090FB7BE02425F582E434F8F583123AE6
:10306000A01231041230AF500888828983E4F0A3A3
:10307000F0790012179290F9E5E05460642070082E
:1030800090FB0DE0F9121792123124021A30F090E1
:10309000FB21E0229400F9E8C39EF8E99FF98C82B5
:1030A0008D83E8F0A3E9F022A3E094FF0222658873
:1030B000828983C3A3E002226390FB21E0241A12D9
:1030C000310E22E0FCA3E0FDEC8521F0A422E028F3
:1030D000F8A3E039F922E0FAA3E0F5838A82A3A3FA
:1030E000A322E0F521A3E0F522228E828F83E0FA6D
:1030F000A3E0FB2212365580F690FB211219417491
:10310000780225F990FB21E0240612310E22F8A363
:10311000E03400F92290FB1F123ADE740122123AC9
:10312000C30225F7C082C08312364B6410700512AB
:10313000316C8028C2AF90FBE3E0245F12315F90D6
:10314000F825F090F826F0742088828983F07422A4
:1031500090DF02F075D60175E102D2AF021ADCFAF7
:10316000A3E03400FB8A828B83021848123AC374AE
:10317000010225F974F112122290FB8078211210BD
:10318000E98A828B8378251210E978217925120A41
:103190004890FC2D78251210E978217925120BED45
:1031A000021A1774E5121222E9FFEAFE90DF08E026
:1031B000F83395E0F990FB231230A27AB27BFA7CC7
:1031C000227DFAEE604290FB03E0F818740758C3C2
:1031D000332422FCE434FAFD7525098C828D831298
:1031E0003660882189227523007524008A828B83AA
:1031F00078211210F812362AEC2410FCED3400FD70
:103200001525E525605C80D3790975250890FC3982
:1032100078211210E990FB8478211210F8801E8C1E
:10322000828D831230E275230075240090FB847830
:10323000211210AAEC24020C0CED3400FD8525218E
:1032400074FF2521F525E52170D590FB84782112A6
:1032500010E98A828B8378211210F812362A19E934
:1032600070A87C0979007AB27BFA12419990FAC26F
:1032700078211210E990FC39782112085F7003025E
:10328000362575250075260075278075283F78211D
:1032900012089978257921120E0490FB4D78251299
:1032A00010F890FB4B746BF0A374F9F079061219C7
:1032B000808A218B228C238D2490FB807821121010
:1032C000F890FB8078211210E990FC3D78251210CF
:1032D000E978217925120A48782112091190FADE3D
:1032E000E521F0A3E522F090FB4B742FF0A374F9D5
:1032F000F07A807BFB1219CA8A218B228C238D24C1
:1033000090FB9078211210F890FB9078211210E930
:10331000782112091190FB8878211210F890FBBDDA
:1033200078211210E990FB23E0F523A3E0F5247443
:103330000278231211CDE5232521FAE5243522FB5D
:1033400090FB8878211210E9EAC39521F521EB95CD
:1033500022F522740278211211AEE52190FA21F0B3
:10336000EF602212364B64F0701B90FB88782112BC
:1033700010E990FBBD78211210BDAA21AB22AC232D
:10338000AD2412411B90FB8078251210E990F9477B
:1033900078211210E978257921120BC890F93F782D
:1033A000291210E9752D00752E00752F8075303F9C
:1033B00090F94378311210E9852521852622852749
:1033C0002385282478217925120A48783179211219
:1033D0000A48782D7931120BC87829792D120A48BC
:1033E00090FB7C78291210F890FB8078211210E96C
:1033F00090FC4178251210E978217925120BED9087
:10340000FB8078211210F890FB4D78211210E99082
:10341000FB7C78251210E978217925120A4890FB67
:103420004D78211210F87525008525828582237537
:103430002400E52324EEF582E434FBF583E0FF74F9
:10344000FF6F70030234F2740278231211CD8523CA
:103450002185242290FB4D78291210E91236337809
:103460002D1210E9782D1208997829792D120A4821
:1034700090FB8C78291210F8740865256006740298
:103480006525702690FB8C78291210E97AD47BF997
:103490001231748A2D8B2E8C2F8D307829792D1234
:1034A0000A4890FB8C78291210F88F237524007439
:1034B0000378231211CDE523244BF8E52434F9F9E0
:1034C00090FB4B1230A290FB8C78291210E9AA29AC
:1034D000AB2AAC2BAD2C12190C8A298B2A8C2B8D84
:1034E0002CE5212494F582E52234FBF5837829121A
:1034F00010F80525E525C39409500302342990FBF3
:103500009478211210E9AA21AB22AC23AD241242F7
:10351000AE90FAD612229D90FB9878211210E9AA5B
:1035200021AB22AC23AD241242AE90FAD812229DD8
:1035300090FBA878211210E9AA21AB22AC23AD247C
:103540001242AE90FADC12229D90FBB47821121048
:10355000E9AA21AB22AC23AD2412426590FAE01215
:10356000229D90FB9C78211210E9AA21AB22AC236A
:10357000AD2412426590FADA12229D90FABE7821AB
:103580001210E990FAE2E521F0A3E522F0EE7003D3
:10359000023625121AE190FBB8E0C333F090FADA54
:1035A000C3E09499A3E0943AA2D265D03340469008
:1035B000FA1778211210E990FB9C78251210E990F7
:1035C000FB9478291210E978257929120A4890FC91
:1035D0004578291210E978257929120A4878217945
:1035E00025120BED90FA1778211210F890FBB8E035
:1035F000D2E0F0803090FBB8E064FE702890FA13BF
:1036000078211210E990FA1778251210E9782179BB
:1036100025120BED90FA1378211210F879047A171D
:103620007BFA1241DF7F14021281EA2404FAEB34A0
:1036300000FB22E52124B2F582E52234FAF583224B
:103640003BFBEAC39EFAEB9F02258890FBE3E02454
:103650003A123655221229F6E02290FB6A121941DD
:10366000E0F8A3E0F92274F61212228A237C237D6B
:10367000F98982858221752200E92423FEE434F948
:10368000FFE9121303080609C339101598372E30C5
:103690002E393D46F939494EF9394F51153A5556AB
:1036A000243A5758563A2201503A040F37055937F1
:1036B0000BDF370CD9370DB7390EE43916873717BA
:1036C0008D371AA5371CE5371D3D3A1F0B382029C9
:1036D00038210538236638257138287C38298F38F9
:1036E0002AB2382B88382C0A392D1B393139393315
:1036F0005139355B39366F39387B393925383AA439
:10370000393BA83852FF395C5C3A64463A7B3AEA66
:10371000C394024003023A7BEA6039D293123ABF63
:10372000A3A3E4F0A3F090FB10E0701290FB21E063
:103730002414123AA87002A3E07003023A7B121814
:10374000E1E490FB1012308E24141229EEE4F0A371
:10375000F0023A7BC293023A7BEAC394024003022E
:103760003A7BEA601074185590700FD2931218E1EA
:10377000123AD480DBC294023A7BA2945003023AFC
:103780007B1218E1023A7B8523CD023A7BEA90FB5B
:1037900009F0121CE0023A7BEE24F6F582EF34FFCA
:1037A000F583EA80ABEA90F9C7F0F912156890F951
:1037B000E5E0A2E6402390F9C7123AA012183F9024
:1037C000FBD4742CF0A37401F090FBDA742CF0A3FA
:1037D0007401F075E1041217C7123AB2023A7B1273
:1037E00014F3023A7BA293E492E090F9DCF0A29405
:1037F000E492E090F9DDF0E5CD90F9DEF090FB0980
:10380000E090F9DFF0123AE3023A7B123AB274FF29
:1038100090F926F090F92512308E241A12184512CC
:103820003AAC02374D7C007D5C90FB05E060030202
:103830003A7B90FA1BE07002A3E07018ECF8EDF907
:1038400090FA1B1230A275F00A90FBE0E0A490FB06
:103850000502375090FBE0E0C0E0EAF5F0D0E0A4CC
:1038600090FB05023750EA90F9E0F090DF2E023726
:103870005090F9E5EAA2E0E092E180E790F9E5EA0C
:10388000A2E0E092E4023750EA90F9E30237509068
:10389000F9E5EAA2E0E092E5F0EA6003023A7B9003
:1038A000FB011217C1023A7B90F9FEEAA2E0E09216
:1038B000E1F0742A69700A90F9E5EAA2E0E092E684
:1038C000F090F9E5E0A2E690FBD65023741E122595
:1038D000F990FBD4F0A3F090FBD874031225F912F1
:1038E0001CE8F912177890FB21E0241002374AE413
:1038F000F0A3F090F9EB12366090FBD41230A29056
:10390000FBDA7404F0A3E4023750EA90F9E4123AC7
:103910009C4003023A7B90F9C78087EA90FBD1F084
:10392000A2E07583F97582E5E092E7023750EE2454
:1039300095F582EF34000237A0E490F9C7F074FFE8
:1039400090F926F090F925F090F927123A80123A72
:10395000E390FB2112193D747880A9EA90F9FD12D9
:103960003A9C4003023A7BEA90FB01F002389F90B8
:10397000F9FEEAA2E0E092E002375079107C277D60
:10398000FB7A837BF91241F979107C377DFB7A93BE
:103990007BF91241F979207A277BFB1241DF12185B
:1039A00022023A7BEA600CC394205007EA90FBE0C5
:1039B000023750740480F690F9FEEAA2E0E092E348
:1039C000023750E975F005A4F521E5F0F522E5216F
:1039D0002485FAE52234F9FB8A828B83E523F0A360
:1039E000AA82AB83740E6970047AB77BF979047C80
:1039F000747DFB1241F9023A7BEE24A1023931EACF
:103A0000700774FF90FBE1800990FBE1E064FF60C8
:103A100004EA121CF1EE240DF582EF3400F583E583
:103A20002302375079047C197DFB7402782112112E
:103A3000CDE5212478FAE52234F8FB80B690F9FE32
:103A4000EAA2E0023928EA90FC49F01217C7802B5D
:103A500090F9E50239BAEE24410239317401652347
:103A600070197E7F43C6408005790212155CE5BE61
:103A7000A2E54004EE1E70F143BE047F03021281F2
:103A8000F0A3F0740290F9E1F0740190F9E2F022F1
:103A9000F98A828B830230A2E8F0A3E9F00228D7EA
:103AA000E090DF06F0021CEC12365522122598A396
:103AB000A32290F92DE0F5BC90F92EE0F5BC22127E
:103AC0003AC32290FB21123ACA22121949A3A3A396
:103AD000A302259E90FB21123ADEA30225B7123ADB
:103AE000CAA322C082C083C2AF75AD2E75AB21754B
:103AF000AE0100D2AF7932121D3279F07C007D5CCC
:103B00007A237BF912149F790A121D3275AD0002D7
:103B10001AD974F8121222EAFEEBFFFAE912130323
:103B200001040C9F3B07013D3B02433B03513B0D0E
:103B30005F3B0E903B10B23B11CD3BD53B90F9273C
:103B4000023BD0EE540F90F925F0EA90F926023BA3
:103B5000D4EE90F9E1F0EA90F9E2123BFA8075793F
:103B600018121D32743F6E700374606F700F123B39
:103B7000D8123C03742CF0A37401F0800A743F6ED9
:103B8000700374086F604E8E828F831212208045FE
:103B9000EE90DF01F0EA90DF00F090F97B8031E9F0
:103BA000C333F8E433F9E824E3F582E934F9F58323
:103BB000801E90FA1BE07002A3E07019C3EF94041A
:103BC0004013C3EF9408500D90FA1B800390F97DC9
:103BD000EEF0A3EFF0022973123BEB75DA57123BBC
:103BE000E22243E406E5E475E5442253E4FCE5E41F
:103BF00075E30075E20075DB0222F090F9E1E090D8
:103C0000DF052290FBE3E0245B1229F22274ED121F
:103C100012228923EAFEEBFF75210075220075242C
:103C2000008925752600740278251211CDE525241A
:103C300023FAE52634F9FB8E828F8378251210E96A
:103C4000E91213030401045B3C0506843C0A158E4B
:103C50003C191AF23C0118D73CFC3CEA2408F52137
:103C6000EB3400F522740465236003023CFC7825E4
:103C700012091174142525F8E43526F990F9E91292
:103C800030A28078EA249DF521EB3400806C740E1C
:103C90006523700C79047A477BFB1241DF752401A0
:103CA00074F62523F523C313F5217403782112112B
:103CB000CDE523A2E0E492E0F525752600740278B4
:103CC000251211CDE525244BF8E434F9F9E5212836
:103CD000F521E522398023752900752A00752B808E
:103CE000752C3F78297925120E0490FA1D78291237
:103CF00010F8EA24BCF521EB34FFF522E52170022F
:103D0000E522600D7904EEFCEFFDAA21AB22124101
:103D1000F9E5246003121CF27F0C02128174F31285
:103D2000122289217E087FF8752201752300802DDB
:103D3000E0F525A30EAF837906EEFCEFFD7A297B33
:103D4000F9124225E9700E740F552490F925F0E51B
:103D50002590F926F0EE2406FEEF3400FF8E828FC8
:103D600083E0FA7003023F85AB2174FF2BF521EB52
:103D70007003023F858A24A3AE82AF8374F055247A
:103D8000F52574F0652560A890FBD1E0640270030E
:103D900012402B8E828F8312366090FBB91230A2B4
:103DA000EE24020E0EEF3400FFEE2402EF3400F991
:103DB00074035524F5261212CD0003313EC53DCAC9
:103DC0003DE63D0E3E75220180671230EA90F927EC
:103DD000E06A7003A3E06B70047A0180027A008AC3
:103DE000220E0EE9804A8E828F83E0FA90F926E057
:103DF0006A70128E828F83A3E0FA90F925E06A70D0
:103E0000047A0180027A008A2285222380D37906EF
:103E1000EEFCEFFD7A297BF9124225E970047A0164
:103E200080027A008A22852223EE2406FEEF3400E7
:103E3000FF90FBB9E07002A3E0603590FAFDC3E0AB
:103E40009401A3E094FF4017C390FBBAE0940150A3
:103E50000E90FBB912366090FAFD1230A28011E587
:103E600022600912403950047A0180027A008A22C5
:103E70008E828F83A3A882A983E5251213030006EF
:103E800010B63E20363F50943E70453F80453F90EF
:103E90008A3F0B40E522601374036526700D790696
:103EA000EEFCEFFD7A297BF91241F9EE2406FEEFD4
:103EB0003400FF02400B90FBD1E0FA90F9E5E0A25C
:103EC000E7E492E06A601090FBD1E0A2E07583F92C
:103ED0007582E5E092E7F08E828F83E0F525E8FEBB
:103EE000E9FF740C5524121303000300F63E040886
:103EF0003F08223F0B40E5226009EEFAEFFBA925BF
:103F0000123C0DEE240480A6E522600B8E828F8386
:103F1000E0FAA9251236668E828F83A30EAF830244
:103F2000400BE52260081230EAA925123B12EE246C
:103F3000020E0E023EAFE522700302400B7918120A
:103F40001D3212410CE523603C7AE07B03121826F7
:103F50007AF07B037906121828748065257008753D
:103F600021377522FB80067521277522FB782112E7
:103F700012BCEEFCEFFD7A10790212138E7402125D
:103F800011EF1218227F06021281E523607D8E82D6
:103F90008F83E0F524E8FEE9FF8E828F83E0A30E95
:103FA000AF8390F9FDF090F9C7F08E828F83E09097
:103FB000F9E112401C90F9E212401C90F9261240DF
:103FC0002112366090F9271230A2740F552490F90F
:103FD00025F090F9E5E524A2E4E092E2F090F9FE04
:103FE000E524A2E5E092E4F0E524A2E6E092E1F027
:103FF00079047C197DFB7AB77BF91241F9123AE317
:1040000090F9C7E0F91215681217C1124039400340
:10401000023D5D90FAFD1230A2023D5D124021E0AA
:1040200022F08E828F83A30EAF832290F9E5E0A267
:10403000E7E492E090FBD1F02290FBB9E0F8A3E036
:10404000F97583FA7582FDC3E098A3E0992274F8AC
:10405000121222E9FE79147C4F7DFC7A0C7BDF1270
:1040600041F990FBC912410590FBCB743012410716
:1040700090FBCD743C12410790FBCF12410590FBA1
:10408000BB744A124107740A90DF07F0EEC3940D27
:10409000404B79067C497DFC7A0C7BDF1241F97438
:1040A00010F090FBBB744812410779037C667DFCDD
:1040B0007A237BDF1241F979087C697DFC7A157BD4
:1040C000DF1241F974196E7021740A90DF07F074E1
:1040D000A990DF1CF0741D90DF0CF0800D79037C3B
:1040E000637DFC7A237BDF1241F979037A2F7BDF32
:1040F0001241DF79037C717DFC7A027BDF1241F98A
:104100007F010212817450F0A3E4F022C082C083C8
:1041100075C90B748090FFFFF080F574F5121222C0
:1041200074FC1211E08A218B228C238D24C2AF9063
:10413000DF0BE0854182854283F090DF0AE0C0E03A
:104140007401121216D0E0F090DF09E0C0E07402B2
:10415000121216D0E0F08541828542837821121038
:10416000AA854182854283E090DF0BF07401121230
:1041700016E090DF0AF07402121216E090DF09F0E8
:1041800090FBBD78211210AAE490DF08F0D2AF7442
:10419000041211EF7F0402128174F312122280358F
:1041A000740369602F740969602AEA240CF582EBB4
:1041B0003400F58378211210E989257526007402F0
:1041C00078251211CDEA2525F582EB3526F5837881
:1041D000211210D509E9C39C40C67F06021281C096
:1041E00082C083800BE48A828B83F0A3AA82AB8394
:1041F000E91970F1D083D0822274F8121222801C47
:104200008C828D83E08A828B83F08C828D83A3AC39
:1042100082AD838A828B83A3AA82AB83E91970E083
:104220007F0102128174F6121222E91960308A218C
:104230008B22852182852283A3AA82AB83ECFEEDAB
:10424000FF8E828F83A3AC82AD83852182852283FA
:10425000E0F88E828F83E06860D079018002790077
:104260007F0302128174F11212228A218B228C2385
:104270008D24782112091190FC7478251210E978A8
:1042800025792112087440067AFF7B7F801B90FC01
:104290007878251210E97825792112087450067A69
:1042A000017B808004AA21AB227F0802128174F175
:1042B0001212228A218B228C238D2478211209113B
:1042C00090FC7C78251210E9782579211208744039
:1042D000067AFF7BFF801B90FC3978251210E97865
:1042E00025792112087450067A007B008004AA21E7
:1042F000AB2280B56D4EC641393000005000300011
:104300003C0050000290067800DC0014001E0008FB
:1043100000500004FF0100F5B1B2B3B4B7B0B5BEB0
:10432000B6000102FFFF03FFFF05414E4453006C3E
:1043300061724175677573740007417567757374B1
:1043400000074175677573740007646AAA0000006E
:10435000000000000000000000000048C30132001F
:104360000000803F000080C00000003F000000000F
:104370000000C8420000C8C131E33E300E5573430F
:104380005900790701235945070014166C434091E1
:104390005610A90A00118135098831091D1CC74032
:1043A000B2B610EA228545008000000180FFFF00C0
:1043B000000100B4001E000300040008005000FFCC
:1043C000FFFFFFFFFFFFFFFFFFFFFFFFFFFFFFFFFD
:1043D000FFFFFFFFFFFFFFFFFFFFFFFFFFFFFFFFED
:1043E000FFFFFFFFFFFFFFFFFFFFFFFFFFFFFFFFDD
:1043F000FFFFFFFFFFFFFFFFFFFFFFFFFFFFFFFFCD
:105C0000AAAA0800FFFF986BC000003B71AA35BA32
:105C1000D3BC633D91ED1C3F000028C300001C4530
:105C200095BFD63400009242FDF65D413373DFC468
:105C30003789494100000000643BF94066E60EC424
:105C40006FF045410000000052B8DE3E00401C44A9
:105C50009EEFF940333313C4F0F018FC000000AAA3
:105C6000414E4453006C617241756775737400074F
:105C70004175677573740007417567757374000724
:105C80000000000000000000000000000000000014
:105C900000000000FFFFFFFFFFFFFFFFFFFFFFFF10
:105CA000FFFFFFFF0349F0E25249F0E25249F0E200
:105CB00052ACC5A73717B751380101C8D2FF4140D0
:105CC00000FF1701A49A6CFF28001E0003000400C7
:105CD000080050003F08F100F100008BFFFF198C15
:105CE0006E645A0A070B3C0A00000A00010000001B
:105CF000FFFFFFFFFFFFFFFFFFFFFFFFFFFFFFFFB4
:105D0000FFFFFFFFFFFFFFFFFFFFFFFFFFFFFFFFA3
:105D1000FFFFFFFFFFFFFFFFFFFFFFFFFFFFFFFF93
:105D2000FFFFFFFFFFFFFFFFFFFFFFFFFFFFFFFF83
:10600000E490F80078E879028002F0A3D8FCD9FA8D
:1060100090F9E7AA82AB83907F8078487901801558
:10602000E493A3AC82AD838A828B83F0A3AA82AB74
:10603000838C828D83D8E9D9E7126CA112606B75CD
:10604000D0007581507541007542F802600043AE82
:106050000222E5AE20E7FBC2AF89AD75AB2143AEAE
:106060000100D2AF22E5AE20E7FB2280FEC3E0961E
:1060700008A3E09608A3E09608A3E0962208080883
:10608000EAC0E0EBC0E086F0E7A4FA180986F0E782
:10609000A42AFA180986F0E7A42AFA180986F0E774
:1060A000A42AFA1986F0E7A4FBE5F02AFA19088673
:1060B000F0E7A42BFBE5F03AFA190886F0E7A42BE9
:1060C000FBE5F03AFA18180986F0E7A4C5F02BFBB7
:1060D000E43AFA1908E7C5F0C6A426F6E5F03BFB5A
:1060E000E43AFA1886F0E7A4F6E5F00826F6E43B71
:1060F00008F6E43A08F6D0E0FBD0E0FA2260160891
:106100000808C6C313C618C613C618C613C618C6D1
:1061100013C6D5E0EA22E026F608A3E036F608A387
:10612000E036F608A3E036F622E026F008A3E036D3
:10613000F008A3E036F008A3E036F022C3E0C696EC
:10614000F608A3E0C696F608A3E0C696F608A3E014
:10615000C696F622E0F608A3E0F608A3E0F608A348
:10616000E0F622C3E498F8E499F91261A48026C30A
:10617000E49AFAE49BFBE920E7E91261A4E498F8C9
:10618000E499F922C3E498F8E499F91261A4E49837
:10619000F8E499F9C3E49AFAE49BFB22EB20E7CFF9
:1061A000E920E7E0B90010BB0008E88AF084F8AA0B
:1061B000F022E4FBC8FA22EB70227B10C833C8C976
:1061C00033C9335007C39AC3DBF280069A50012AC1
:1061D000DBEAC833F4C8C933F4C9FA2275F008E41D
:1061E000C833C8C933C933C99AC99B5004C92AC91D
:1061F0003BD5F0ECFBC833F4C8E4C9FA22600D08C3
:10620000C6A2E713C618C613C6D5E0F322600C0871
:10621000C6C313C618C613C6D5E0F42270042260A4
:106220000D18C6C333C608C633C6D5E0F4182225F8
:1062300041C0A8C2AF40021542F541D0A822C0D04B
:106240002541C0A8C2AF50020542F541D0A8D0D028
:10625000222541F582E43542F58322E4732541C5C8
:1062600082C0E0E54234FFC583C0E0E541C39582CA
:1062700024F9C0A8C2AF858342858241D0A8CEF060
:10628000A3E520F0A37821E608F0A3DEFAEFF0A35F
:10629000E58124FBF8E608F0A3E608F0A30808E689
:1062A00008F0A3E608F0A315811581D0E0FED0E048
:1062B000F815811581E8C0E0EEC0E02285428385B3
:1062C0004182E0A3FEE0A3F5207821E0A3F608DFF9
:1062D000FAE0A3FFE0A3C0E0E0A3C0E0E0A3C0E0D9
:1062E000E0A3C0E085A8F0C2AF85824185834285E6
:1062F000F0A8D083D08222D083D082C5F0E493A3CB
:10630000C5F0C395F0F5F0E493A3C395F04005E51F
:10631000F0048001E475F002A42582F582E5F035F1
:1063200083F583E493A3C0E0E493C0E022D083D05C
:1063300082CCC0E0E493A360061263571470FAE4C1
:1063400093A360061263761470FAD0E0FCE493A382
:10635000C0E0E493C0E022C0E0E493A3D39C5010DB
:10636000E493A3C39C400AD0E0D0E0D0E002634AAB
:10637000A3A3A3D0E022C0E0E493A36C7009D0E013
:10638000D0E0D0E002634AA3A3D0E022C082C08361
:10639000740149F5B37C10800C8A828B83E0F5B1DF
:1063A000A3AA82AB83EC1C70F0D083D08222800140
:1063B00000E5B3A2E350F922C082C0838C828D83B2
:1063C00012638C7A0C800100EA1A70FB7A10800448
:1063D000E5B2F0A3EA1A70F81263AE80CCC082C0B6
:1063E0008390F876E054F0F0741390F875F074DF51
:1063F00090F86FF074D990F870F074F890F871F02C
:10640000742590F872F0748090F873F0742590F809
:1064100074F0741090F876F074F8F5D575D46F9028
:10642000F87EE054F0F0741390F87DF074F890F872
:1064300077F0744A90F878F074DF90F879F074D9B6
:1064400090F87AF0742090F87BF0742390F87CF048
:10645000744090F87EF090F886E054F84408FAF022
:10646000741290F885F090F883E0541FF074DF9078
:10647000F881F074AF90F882F0E490F883F074F84B
:1064800090F884F0740F5A444090F886F074F8F550
:10649000D375D277D083D0822274F612625DEAFE81
:1064A000EBFF8C218D22892312606575AB2AEF905A
:1064B000F87FF0EE90F880F090F883E054E0F0E59B
:1064C0002390F884F0AA21AB227409782112620D7E
:1064D000E521F5ADEBC313EA13F5AC53D1FB75D64B
:1064E0000412604E79017F030262BCEEC0E07E7F41
:1064F000E9601643C6408005790212652AE5BEA20E
:10650000E54020EE1E70F1801A53BEFB8005790233
:1065100012652AE5BEA2E64004EE1E70F10053C6E5
:1065200080E5C643BE04D0E0FE227A177BFF00DB85
:10653000FDDAF9D9F52274F112625D7C19800F75CC
:10654000F00AECA429C0E0EC12660ED0E0F0EC1CDE
:1065500070EDE9F5257526007527007528007C008B
:1065600090F9E778211261547825792112607D90A5
:10657000F9EB7825126116852521852622852723AA
:10658000852824741078211260FD74FF5521F87459
:106590007F5522F97A197B001261A48C23E523240C
:1065A00087F8E434F8F988828983E0FDEA2487FAE1
:1065B000E434F8FB8A828B83E088828983F0ED8A59
:1065C000828B83F00CECC3941940957F080262BC67
:1065D000C082C0837B19EB1B8B82A882600C90DF8A
:1065E00006E0FAE81266096A70EC75E104740128A5
:1065F00008E43400F97A197B0012619CEA126609FA
:1066000090DF06F0D083D0822212660EE02224872B
:10661000F582E434F8F58322C3EA940112769640B9
:1066200005EAF8EB8006C3E49AF8E49BF9E8FAE996
:10663000FB2279037CFF7DF97A097BDF127F14222C
:10664000C082C08375C9A875C958741090FFFFF047
:1066500002685974F812625DE9FEEAFFC2AF75E1A3
:106660000474F090F53AF0539BFCE59B53E9EF7509
:10667000911074326E700A90F97BE0A2E1500279B9
:1066800019127DD0EF90DF06F074326E700590F92C
:1066900061800390F95DE090DF2EF090F95EE0906C
:1066A000DF05F090F8F8E090DF01F090F8F9E09065
:1066B000DF00F0439A01D2AF027002C082C083E9CA
:1066C000FA790C90F962E0A2E65002793212665330
:1066D000026859C082C08375D68375E10474F09056
:1066E000F53AF079047AE37BF9127EFAE490DF0858
:1066F000F012663290F962E0A2E6400890F944E0B8
:1067000090F9A8F01267A779067ABE7BF9127EFA93
:1067100090F9A4E4F0A3F079011276D7026856C08C
:1067200082C083E9601C90F962E0A2E6401490F90F
:1067300060E0FA793212665390F95FE090DF05F07D
:1067400080031267A7026859C082C08375FD007577
:10675000FEDB758FFF75F12075F2FF75F30075F4A0
:10676000C075F52075CB7075CC2475CE2479107A60
:10677000937BF9127EFA79001264EB90F944E0F908
:106780001265361263DD1266321267A790F95BE07C
:10679000F5CD90F95CE0F5CF43CB14E5CBD2B9D27F
:1067A000A9439A0102685990F9A8E0F91266BB2240
:1067B000C082C08390F97FE0FA600C8ACD126C0B26
:1067C0007488F0A37413F0D294026859C082C08315
:1067D00079F07C007D047AA07BF8127F1490F8A0F9
:1067E000E064AA7004A3E064AA6069741790F96277
:1067F000F0740990F97BF074FF90F944F090F95D22
:10680000F090F96674F7F0A374FEF0740290F95EEC
:10681000F0740190F95FF090F8F874F0F0A3F0E4F0
:1068200090F98DF079207CCF7D7F7A007BF9127F03
:1068300014790C7CD07D037AA07BF8127F1490032E
:10684000DCE090F95BF09003DDE090F95CF07464BB
:1068500090F97FF080031276C4D083D0822274F73F
:1068600012625D90F9D6E0241CFAA3E03400FB89A3
:106870002174012521F8E43400F98A828B83126C9B
:10688000798005639004E5908A828B83C3E094014C
:10689000A3E09400C365D03350E98A828B83E4F08F
:1068A000A3F07F020262BCC082C0838A828B83E035
:1068B0007002A3E0601C8A828B83E024FFF0A3E0D7
:1068C00034FFF08A828B83E07002A3E070047901C8
:1068D0008002790002685974F712625D7E101EEE24
:1068E000F890F9D4E028127A5D7003026A37E4F078
:1068F000EE12632D0004010A69021069030469099C
:106900002469376A1270FE026A37127151026A37BF
:10691000127633700790F9B3E0F9800279001277AC
:1069200093026A3790F9B3E0600214F090F9B2E094
:10693000600214F07AFA7BF9126C06600F1266D3CB
:1069400090F970126FAD90F9FA126C797AFC7BF9BC
:10695000126C06600B90F962E0A2E05003127E6DAB
:1069600090F9A6E02401F0A3E03400F090F9A6C36A
:10697000E094E9A3E094034007E490FA02F0800970
:1069800090FA02E06003026A3790F962E0A2E74001
:1069900003026A37A2E650527AF47BF9126C066061
:1069A0001D127A87126C7990F962E0C2E6126C7659
:1069B00090F944E090F9A8F0F91266BB80797AF674
:1069C0007BF9126C066070126FC090F9A8E0F89025
:1069D000F97EE028F8E43400F97AFA7B0012619C31
:1069E000EA90F9A8F090F97A80CD7AF27BF9126CEE
:1069F00006603512763C126C7990F9F8E4F0A3F059
:106A000090F962E0D2E6127AB064FF700890F9441F
:106A1000E090F97AF0E090F9A81276682410127AE2
:106A200067F090F9A8E080907AF87BF9126C066024
:106A300006126C48126C76EE60030268DE7E101E51
:106A4000EEC333F8E433F990F9D6E028F8A3E0393F
:106A5000F988828983C3A3E01276974003026BFD15
:106A600088828983E4F0A3F0EE12632D0008028887
:106A70006A039B6A04666B08236B09766B0B6C6B6D
:106A80000D926B0FB36BFD6B12664090F9D6127AC4
:106A900062A37438F0A37401026BFC90F9B2E07049
:106AA00003026BFD90F9B6E0602590F9ACE0600C54
:106AB00014F0701090F990E4F0A3800790F9AFE023
:106AC000600214F079007A4A7BF8127127800990ED
:106AD000F9D4126DBD7401F090F8FEE0FA70030273
:106AE0006BFD90F8FDE0FBEAC394084009EBC3940A
:106AF000084003026BFDEB6008C39A50048B2180B1
:106B0000028A21E521C394084003026BFD126C3216
:106B100074FD2818181874FF39126C20E8F0A3E9E6
:106B2000026BFC90F962E054506410703990F9B037
:106B3000E0FA74FF2AF0EA6021126C48F090F9F054
:106B4000E024F6FAA3E034FFFB90F9D6E02410121B
:106B50007646126D8CE4F0A3800B90F944E090F936
:106B6000A8F090DF06F0127791026BFD90F9D6E065
:106B7000126D81026BFC126C5890F9F0E0241FF842
:106B8000A3E034FF126C20A3A3126C79126C2B02C9
:106B90006A95126EC690F8FEE0F5216060C3940815
:106BA000505B126C3274D428FA74FF12762A127673
:106BB0004680497B00E5CDC0E090F95BE0FAD0E08B
:106BC000C39A500505CDE5CD0B90F9C8C3E09437C5
:106BD000A3E01276974016E5CFC0E090F9B1E0FA55
:106BE000D0E0C39A500A05CFE5CF0B800375CF00E4
:106BF000EB600A126C0B7471F0A37402F0EE600388
:106C0000026A3F0268A21268A7E92290F9D6E0243E
:106C10001E126C1522F8A3E03400F98882898322C1
:106C2000F990F9D6127610A3A3A32290F9D4127684
:106C3000D12290F9F0126FADE88521F0A4F8AAF006
:106C40008521F0E9A42AF92290F9A8E090DF06F066
:106C50001265D0E090F9A82290F9F0E0FAA3E0FBE9
:106C600090F9D6E02412F8A3E03400F988828983F1
:106C7000EAF0A3EBF022127A91E8F0A3E9F022EE19
:106C8000C0E0E9FE800579FA12685EEE1E70F7D06A
:106C9000E0FE2279047C707DF97AFA7BF9127F1488
:106CA0002290DF36E064816003127E6D741090FFE5
:106CB000FFF090F5307494F0A3746DF090F5327499
:106CC000D4F0A3746DF0740190F537F090F9D4749A
:106CD00020F0A374F5F090F9D6E4F0A374F5F07405
:106CE0001855BEC313131390F9AEF01267CC126C93
:106CF0009390F962E0A2E6500590F97A800390F94A
:106D000044E0FAEA90F9A8F0127DC2D294D29390AE
:106D1000F9AEE06402701090F95CE090F9B1F09087
:106D2000F95BE0F5CD800E75CF0090F95CE090F94D
:106D3000B1F01267B012674890F9D6126DC7743877
:106D4000F0A37401127668126D81126D8C7405F0D7
:106D5000127A9C7438F0A37401F0126C587A007B9C
:106D6000F97904126EB5127A50790A126C7F1266A4
:106D7000D390DF36E064816003127E6D1268D780A5
:106D8000F02416126C157405F0A3E422127AA2A363
:106D9000A3A3A322C082C083E490F9ABF090F536A0
:106DA000E004F0C39404500C90F9D6126DBD743217
:106DB000F0A3E4F090F9AB126E69026859126DC14C
:106DC00022126DC7A3A322126DCB22E0F8A3E0F537
:106DD0008388822274F712625DE5BBF9E5BAF87424
:106DE000C828F521E439F522740678211261FDA83E
:106DF00021A92290F9ABE064FF7008E490F9ABF0B0
:106E00000268A2E0FA74012AF0EAC333FAE433FB21
:106E1000EA2493F582EB34F9F583E028F0A3E03916
:106E2000F090F9ABE0C394085005126E6980D190E0
:106E3000F9A3E004F0C3940840C179107C937DF974
:106E40007AC47BF9127F1479107A937BF9127EFA57
:106E5000E4F090F9AAE004F06408709F740190F9DE
:106E6000B4F0E490F9AAF08092E024C7F582E4340B
:106E70007FF583E0F5B622C082C083126EAF7C4CF2
:106E80007DF87A007BF879001263B87C5C7DF87A33
:106E9000107BF879001263B8742290F84AF090F9E8
:106EA0005FE090F84BF0740190F9B6F00268597AFF
:106EB000107BF9790612638C1263AE2279067CA6E8
:106EC0007DF8127F142274F812625D90F9ACE060D4
:106ED000061270B5026FA890F9AFE0600612701349
:106EE000026FA890F9B4E07003026FAB7E1E7F00C2
:106EF00079001276D790F9D2126FAD90F800126C2B
:106F00007990F800126C7990DF06E090F804F07444
:106F1000185590C333C0E090F8A2E0540FFAD0E0C7
:106F20004A333354FC12700779107CC47DF97A0C13
:106F30007BF8127F1490F962E0A2E6500A90DF0617
:106F4000126FB77420800CA2E5500D90F960126F9B
:106F5000B7741F28FEE439FF90F962E0A2E75008F9
:106F6000EE2404FEEF3400FF90F97BE0A2E150082C
:106F7000EE2408FEEF3400FF90F81AEEF0A3EFF0D5
:106F800090F9DAE0600790F992E0FA80027A7FEAFD
:106F900090F81CF090F9DAE090F81DF0E5CD90F84B
:106FA0001EF0E5CF90F81FF0126E778055126FB18A
:106FB00022E0F8A3E0F922E075F064A4F8A9F02239
:106FC000127ABE026C7974F812625D8921EAFEEBD6
:106FD000FF7904EEFCEFFD7A007BF8127F14E521C7
:106FE00090F804F090F8A2E0333354FC440312709C
:106FF000077914EE2404FCEF3400FD7A0C7BF812C0
:107000007F147F010262BC90F805F07A067BF812CB
:107010006EBC2274F612625D74EC12622F90F9AFAE
:107020001270EB12619CE8F52375F00CA4FAE42AC7
:107030007A003408FB7E008E21854182854283E5FB
:10704000822521F8E5833400F9E8FCE9FD74FF8C22
:10705000828D83F07F007810188821EA2521F5823F
:10706000EB3400F583E064FF6016752101752200A2
:10707000EF782112621C8C828D83E06521F0800301
:10708000E870D5EA2410FAEB3400FB0FEFC3940844
:1070900040C40EEEC39418409E854182854283AA67
:1070A00082AB8374F82523F9126FC6741412623E02
:1070B0007F030262BC74F812625D90F9AC1270EB4F
:1070C00012619CE8FC90F97C74B5F0A37470F0EC4C
:1070D00075F018A4F8A9F090F990E028FAA3E03927
:1070E000FB74ED2CF9126FC6027002E0F874FF28F1
:1070F0001874FF3400F990F9FEE0FA7B0022C08298
:10710000C08374FF90F800F090F801F090F802F05E
:1071100090F803F07A0A7BF8126EBC126E77741244
:1071200090F84AF0026859C082C08390F9B5E070C7
:107130001DEB90F877F0EA90F878F012671FC2AF75
:10714000741090F53AF075D60275E103D2AF02687B
:107150005974ED12625D74DB12622F90DF38E0F536
:107160002590DF08E0FE90DF3AE0F52790F825E073
:10717000F52390F826E0FA127633701B90F95FE061
:10718000FB6A701390DF05E06B700C79007A257B49
:10719000F812712702760690F95EE06A60030275C4
:1071A000F190DF3CE0A2E75004D2F08002C2F0A2EE
:1071B000F0E492E0F52490F825E02403F97C257DA5
:1071C000F8854182854283AA82AB83127F14EE3315
:1071D00095E0FF90F962E0A2E6402A12764E500454
:1071E0008C25800A12766E5005ECF404F525127693
:1071F0007D400C7402782112621C12761C8006E518
:107200002190DF08F0740790F9B2F0E527C394806D
:107210005005E527C38008E42527F874FF13E81319
:10722000F890F9E1E0FAE8C39A90F9DAF0126EAF5B
:107230007C007DF87402126251AA82AB837902123B
:1072400063B87C107DF87412126251AA82AB837904
:10725000021263B890F800E0F52690F801E0F527F7
:1072600079067C027DF87ADB7BF9127F14741F5556
:1072700027C3941140030275F190F9BE7829126179
:10728000547583F97582DB782912606D500302759D
:10729000F1639002E59090F962E0A2E6402A12764E
:1072A0004E50048C25800A12766E5005ECF404F5DD
:1072B0002512767D400C7402782112621C12761C15
:1072C0008006E52190DF08F0E52470030275F17473
:1072D0000890F9B3F0127633700979017A257BF8BA
:1072E000127127126C9390F9C2E4F0A3F090F9DFC9
:1072F000F0A3F090F9BCF0A3F079067CDB7DF97A7D
:10730000BE7BF9127F14E527A2E7500478018002C2
:107310007804F521741F5521FEE82EF8E43400F9B5
:10732000E875F0C8A4F8AAF075F0C8E9A42AF974C1
:10733000C828F8E439F990F9F0126C79852682A80A
:1073400082E8601690F8FEE06060C398FAE494006A
:10735000FBC3EA94081276965050E490F9B6F0E830
:10736000602C90F9F0E0F521A3E0F52290F8FEE022
:10737000C398F8E49400F9E88521F0A4C8AAF08540
:1073800022F0A42AFA8521F0E9A42AF980047800E1
:107390007900741E28FAE412762A126C6679067C4B
:1073A000DB7DF97AB87BF9127F1490F9D6E02408D6
:1073B000F8A3E03400F990F9F0E0242EFAA3E034C9
:1073C000FFFB126C6CE52690F9A9127A7440399093
:1073D000F9D6E02410FAA3E03400FBE527A2E6503A
:1073E0001B88828983E024F6F8A3E034FFF98A82BF
:1073F0008B83126C79740890F9B0800BE490F9B02B
:10740000F08A828B83F0A3F090F9F0E02405FAA3D0
:10741000E03400FB90F9D6E02412127646127A741A
:10742000502690F964E0C0E090F9DAE0FAD0E0C3C9
:107430009AA2D265D0335008126FC012763C8021D8
:10744000126C2BA37401801D90F965E0C0E090F9E7
:10745000DAE0FAD0E0C39AA2D265D03350E2127AD1
:107460007CE8F0A3E91276682406F8A3E03400F97A
:1074700074FF6526700302757285262190F8A2E0DC
:1074800075F0C8A4FAABF074962AFAE43BFB90F8C6
:10749000FDE06009F5F0E52184E5F0F52190F8A321
:1074A000E0FC6521700302756974FF6C7075E52757
:1074B000A2E7406F90F9D6E0241AFAA3E03400FB6B
:1074C0008A828B83E4F0A3F090F9ADE060041402AB
:1074D000757153B4F3E5B443B404E5BDC0E090F96D
:1074E00085E0F5F0D0E08490F984AAF0E02A90F9E4
:1074F000ADF0E5BC75F00384E5F02EFAE43400FB52
:10750000EA75F0C8A4FAACF075F0C8EBA42CFB74D3
:10751000962AFAE43BFB126C6C90F9D41276107444
:1075200001804E90F8FEE06049E521C39C5043EC99
:10753000C39521F521E49400F522C3E5219407E5E4
:1075400022127697502C90F9F0E0FCA3E0FDEC8538
:1075500021F0A4CCAEF08522F0A42EFE8521F0ED22
:10756000A42EFDEA2CFAEB3DFB88828983EAF0A386
:10757000EBF088828983E07002A3E060397A18E535
:107580002670027AEF74126523700474392AFA9017
:10759000F962E0A2E6500674EA2AFA8009A2E550F0
:1075A0000574FE2A1A1AEA3395E0FB88828983E083
:1075B0002AF0A3E03BF0790A12685E854182854299
:1075C00083E0F9127B8890F962E0544864087021E6
:1075D00090F9F2C3E094C8A3E094005014E523248A
:1075E00025F582E434F8F583E090DF06F090F9A801
:1075F000F0790012671F127633700890F9B3E0F942
:1076000012671F12769B742512623E7F0C0262BCC9
:10761000E0FAA3E0F5838A82A3A3A322AA21E522AC
:10762000FB3395E0FCFD127E7C2239FB90F9D6E01D
:10763000241A2290F962E0546064202290F96A12C0
:107640006FAD90F9F422126C15EAF0A3EB2290F9D9
:107650008CE0F582AC82E525F83395E0F9C3EC982F
:10766000E499A2D265D03322F090F9D6E022C3E4A7
:107670009CFAE49400FBC3E89AE99B80E5E525F8D1
:107680003395E0F9E82EF521E93FF522AA21FB1216
:107690006618C3EA9461EB940080C7C082C08390EF
:1076A000F53AE0641070051276C48015C2AFE4901C
:1076B000F826F0742090F53AF075D60175E102D203
:1076C000AF0268591276CE7401F0A3E4F02290F96B
:1076D000D6127AAA026D8F74F112625D90DF08E013
:1076E000FA3395E0FB90F9D8126C7090F9D0E0FC79
:1076F000A3E0FD7E0874FF2EFA1E3395E0FBEAC37B
:1077000033FAEB33FBEA24C4F582EB34F9F583C397
:10771000E09CF0A3E09DF0EE70DB90F9D0ECF0A3DC
:10772000EDF090F966E0F521A3E0F52290F9E37819
:107730002512615490F9D8E0F523A3E0F5247402F2
:10774000782312621CE5232525FAE5243526FBEA79
:10775000C39521F523EB9522F52474027823126159
:10776000FDE52390F992F0E9602275E104E522330A
:1077700095E0F523F52490F9E3782112613CAA21E4
:10778000AB22AC23AD24127E7C1277917F0802627B
:10779000BC790012671F12769B2274F712625DEAB1
:1077A000FE7CA07DF8E924A0FAE434F8FBE912633A
:1077B0002D042F30F37943442C7A4F52317A5758A5
:1077C000417A1A01367A041378054E780A097A1636
:1077D0007A78178A781A9A781CB9781FE77820087F
:1077E0007921E178235079245B79268479296E798F
:1077F0002A9A792B67792DE17935F87937407939EB
:1078000004793A1D7A3B90793D2C7A462C7A4B2CA0
:107810007A4D7AEE6033D293127A6EE4F0A3F09050
:10782000F9B7E0701290F9D6E02414127A5D700274
:10783000A3E07003027A4D1267B0E490F9B71276B4
:10784000682414127A67027A4CC293027A4DEE6071
:1078500017741855907016D2931267B0127A6E741E
:1078600088F0A37413027A4CC294027A4DA2945009
