:10080000E490F80078C679048002F0A3D8FCD9FA05
:1008100090FBC5AA82AB839044E078D8790180151B
:10082000E493A3AC82AD838A828B83F0A3AA82ABCC
:10083000838C828D83D8E9D9E712250312086B7562
:10084000D0007581507541007542F802080043AE32
:100850000222E5AE20E7FBC2AF89AD75AB2143AE06
:100860000100D2AF22E5AE20E7FB2280FEE06670F9
:100870001008A3E066700A08A3E066700408A3E00D
:100880006622C3E7960809E7960809E7960809E78C
:1008900096A2D265D03322C3E09608A3E09608A3BF
:1008A000E09608A3E09622080808E630E711121047
:1008B000781208BF080808C64480C61818182218FD
:1008C0001818E9799EC608CAC608CBC608CCC6C3A4
:1008D00070207996CACBCC7019798ECBCC701379F5
:1008E00086CC700EF9802ACA33CACB33CBCC33CC3A
:1008F000331930E7F2CCCBCA3350147004EA30E03D
:100900000DE4CA3ACACB3BCBCC3CCC500209C3E97C
:1009100013C6CC182313C6CB18C6CA18C6F92212A0
:10092000095F20F01430E72B74FFFCFBFA747F8022
:1009300022E4FCFBFA7480801AB48008BC00F2BB8D
:1009400000EF800F50EBF9E4C39AFAE49BFBE49CC0
:10095000FCE499C6CC18C6CB18C6CA18C6F922E45E
:10096000C9C608CAC608CBC6D3330308CCC633925F
:10097000F0C3947F402E94184019C9B90704CACB1C
:10098000CC225025C309CA33CACB33CBCC33CC33AA
:10099000D9F422F4600DC9CCC313CB13CBCA13CA4C
:1009A000D9F6CC22E4FCFBFA2214FCFBFA22E6C3C3
:1009B0003318461846184622E7C333194719471912
:1009C0004722181818E6084608700AE608C333706C
:1009D00005E633F4220822191919E7094709700AB4
:1009E000E709C3337005E733F4220922E608460815
:1009F000C3134608336002E633F422E7094709C30C
:100A0000134709336002E733F4221209EC601B122A
:100A100009FB60161209AE70071209B8600CB32208
:100A2000C0D01209B87005D0D022C32233D0D05024
:100A30001330E0EBC3E7960809E7960809E7960844
:100A400009E7962220E0E4E6970809E6970809E618
:100A5000970809E69722001209EC604F1209FB6023
:100A600012E7548066F61209C270111209B8703B81
:100A7000090909F4F618F618F618F6221209D770C3
:100A8000151209AE08080860EAE6447FF618768079
:100A900018E4F618F6221209AE60161209B87012A0
:100AA000E4F608F608F608E65480F609090918186D
:100AB0001822EAC0E0EBC0E0ECC0E0EDC0E0E68761
:100AC000F0A4FBACF008E687F0A42CFCE435F0FAC7
:100AD0001809E687F0A42C4B60027401CA35F0FCBB
:100AE000E433FB09E687F0D2F7A42CCB35F0FC19F0
:100AF00008E687F0A42BCC35F0FBE433FD0819E6BB
:100B000087F0D2E7A42C4ACB35F0CD3400FC09E6BF
:100B100087F0D2E7A42DCC35F0FDE433FA0918E6CE
:100B200087F0D2F7A42CCD35F0CA3400FC08E68754
:100B3000F0D2E7D2F7A42ACC35F07A7E20E70B0A70
:100B4000CB33CBCD33CDCC33CC33CB33501470043B
:100B5000ED30E00ED2F1E4CD3DCDCC3CCC3B5005A8
:100B6000DA05C2F1EB547FC63308E63392F0FBE7B7
:100B70003309E733C39A502D2B70190C0D4C4D706F
:100B8000151806E608C333700D20F10AA2F013F61B
:100B9000E418800B4024E4F630F002768018F61852
:100BA000F618F68024D33B14501074FFA2F013F60D
:100BB000187680E418F618F6800FA2F013F618E6FF
:100BC0003303F618ECF618EDF6D0E0FDD0E0FCD0DB
:100BD000E0FBD0E0FA221209FB60461209EC603D0E
:100BE000E9687008F618F618F618F622748067F7A8
:100BF000120C0A090909748067F7221209EC601DBA
:100C00001209FB7005191919801A1209C2701F12F6
:100C100009D7C37003E66733191919400718181864
:100C20002208080874FFF618F618F618F6221209BA
:100C3000D760171209B8702192F01209AE701950DE
:100C40001720F014080808090909E7F61819E7F64B
:100C50001819E7F61819E7F6221209AE60E6E869F6
:100C6000701F0808E62480F608E436F618547FB4AE
:100C70007F0CE654806007F6E418F618F622181880
:100C800022E9C6CC08C6CD08C6CE08C6CFC0E0E86B
:100C9000C0E0EAC0E0EBC0E009E9F809E7FA09E7DB
:100CA000FBE6F918E6F8C3EC98ED99EE9AEBC2E78B
:100CB000F5F0EFC2E795F0500E600CEBCFFBEACEFB
:100CC000FAE9CDF9E8CCF8EAA2E7D2E7FAEB33FB90
:100CD00013F5F0EEA2E7D2E7FEEF33FFC5F013A263
:100CE000E730E601B313C5F0C3C0E0C0F07F00C336
:100CF0009BFB605B9418600C401AD0E023F9D0E0B5
:100D0000F8020DD98AF0E9486003D2F0E4AFF0FAB6
:100D1000F9F8803BEB30E40D89F0EA6003D2F0E4AF
:100D2000AFF0F9CAF8EB30E30D88F0EF6002D2F0D3
:100D3000AFF0E4CAC9F8EB54076014FBC3EA13FA36
:100D4000E913F9E813F8EF135002D2E0FFDBEDD01E
:100D5000E0C0E030E739C3E49FFFF5F0EC98FC42D7
:100D6000F0ED99FD42F0EE9AFE42F0D0E0F9D0E0CD
:100D7000F8E5F0607AE923F9EE20E742D8028067CF
:100D8000C3EF33FFEC33FCED33FDEE33FE80EAECD2
:100D900028FCED39FDEE3AFED0E023F9D0E0F84032
:100DA00002801BC3EE13FEED13FDEC13FCEF13509A
:100DB00002D2E0FF08B800067F7F74FF802EEF3379
:100DC00050178CF020F00260100CBC000C0DBD0020
:100DD000080EBE000408E860DFE933E813FFEE23E5
:100DE00013FE4F4D4C8008E95480FFE4FEFDFCEEFD
:100DF00033EF33F47004FCFD7E80D0E0FBD0E0FAEA
:100E0000D0E0F8D0E0CFC618CEC618CDC618CCC6F4
:100E1000F9221209EC7004181818221209FB700D3F
:100E200074FFF61819F61819F61819F622E7548007
:100E300066F61209AE700F1209B870F014F608F6D3
:100E400008F608F680D11209B8700CF608F6087694
:100E50008008E6447F80EC1209DA700C1209C56044
:100E6000BFE65480F6E480BB1209C5700519191954
:100E700080A5E869700C763F18768018F618F6E8B9
:100E8000F922E6CDC0E018ECC0E0E633CD33CDD397
:100E900013F6E719FCE7191933CC33C3947F400EDE
:100EA000CD9D502408E65480F6E418F6800FF40433
:100EB0003D14501408E6447FF6187680E418F618BE
:100EC000F6D0E0FCD0E0FD22CCD313CCFD18E4C674
:100ED000CBC0E018E4C6CAC0E00808ED08C633E697
:100EE00013F618E433C675F003C3CA97CA09CB9743
:100EF000CB199C40047D08802EBD0003020FBB1659
:100F0000B6FF050606081618C3CA33CACB33CB335F
:100F1000CA27CA09CB37CB193CC37D08803E187D50
:100F20000820E75CC633C6CA33CACB33CB33DDF106
:100F3000D5F0EB30E77BCA97CA09CB974ACB199C0F
:100F4000406F4B7025E620E0218066187D08C3CAFB
:100F500097CA09CB97CB199CD3C633C6CA33CACB21
:100F600033CB3350C9DDE7D5F0E1D3E4C636C6084C
:100F7000C636C608C636C608C636C6181818803122
:100F8000C3CA97CA09CB97CB199CB34097C633C63F
:100F9000CA33CACB33CB33DD34D5F02EC6A2E0C67C
:100FA00040C8CA27CA09CB37194A70BECB3CB480A7
:100FB000B90808E63308E633601F181818D0E0FABD
:100FC000D0E0FBD0E0FCD0E0FD22187D08CA27CAA3
:100FD00009CB37CB193CD3808013F618E4B67F11C8
:100FE000F618B6FF0EF618C60470D2080876808090
:100FF000CAF618F618F680C5080808EAC0E0EBC083
:10100000E086F0E7A4FA180986F0E7A42AFA18099E
:1010100086F0E7A42AFA180986F0E7A42AFA1986C6
:10102000F0E7A4FBE5F02AFA190886F0E7A42BFB09
:10103000E5F03AFA190886F0E7A42BFBE5F03AFA56
:1010400018180986F0E7A4C5F02BFBE43AFA190852
:10105000E7C5F0C6A426F6E5F03BFBE43AFA1886AD
:10106000F0E7A4F6E5F00826F6E43B08F6E43A08D3
:10107000F6D0E0FBD0E0FA22181818E4C396F60880
:10108000E496F608E496F608E496F6226016080858
:1010900008C6C313C618C613C618C613C618C61387
:1010A000C6D5E0EA22E026F608A3E036F608A3E07B
:1010B00036F608A3E036F622E026F008A3E036F084
:1010C00008A3E036F008A3E036F022C3E0C696F6A7
:1010D00008A3E0C696F608A3E0C696F608A3E0C605
:1010E00096F622C3E096F008A3E096F008A3E096F7
:1010F000F008A3E096F022E0F608A3E0F608A3E0EB
:10110000F608A3E0F622E6F008A3E6F008A3E6F06E
:1011100008A3E6F022CAC0E0E6F0A308DAFAD0E0BD
:10112000FA22C3E498F8E499F91211638026C3E423
:101130009AFAE49BFBE920E7E9121163E498F8E4EA
:1011400099F922C3E498F8E499F9121163E498F844
:10115000E499F9C3E49AFAE49BFB22EB20E7CFE998
:1011600020E7E0B90010BB0008E88AF084F8AAF094
:1011700022E4FBC8FA22EB70227B10C833C8C933C3
:10118000C9335007C39AC3DBF280069A50012ADBA9
:10119000EAC833F4C8C933F4C9FA2275F008E4C8C0
:1011A00033C8C933C933C99AC99B5004C92AC93B3A
:1011B000D5F0ECFBC833F4C8E4C9FA22600D08C6C8
:1011C000A2E713C618C613C6D5E0F322600C08C602
:1011D000C313C618C613C6D5E0F422700422600DEE
:1011E00018C6C333C608C633C6D5E0F41822254155
:1011F000C0A8C2AF40021542F541D0A822C0D025F8
:1012000041C0A8C2AF50020542F541D0A8D0D022BB
:101210002541F582C0A8C2AF40021542F541D0A8D1
:10122000854283222541F582E43542F58322E47329
:101230002541C582C0E0E54234FFC583C0E0E541F9
:10124000C3958224F9C0A8C2AF858342858241D06C
:10125000A8CEF0A3E520F0A37821E608F0A3DEFAFB
:10126000EFF0A3E58124FBF8E608F0A3E608F0A37D
:101270000808E608F0A3E608F0A315811581D0E080
:10128000FED0E0F815811581E8C0E0EEC0E02285CF
:101290004283854182E0A3FEE0A3F5207821E0A30C
:1012A000F608DFFAE0A3FFE0A3C0E0E0A3C0E0E0BF
:1012B000A3C0E0E0A3C0E085A8F0C2AF858241856D
:1012C000834285F0A8D083D0822274028000C0E0DF
:1012D000F404121210D0E012111522D083D082C56E
:1012E000F0E493A3C5F0C395F0F5F0E493A3C395A0
:1012F000F04005E5F0048001E475F002A42582F5D4
:1013000082E5F03583F583E493A3C0E0E493C0E085
:1013100022D083D082CCC0E0E493A3600612133BBA
:101320001470FAE493A3600612135A1470FAD0E012
:10133000FCE493A3C0E0E493C0E022C0E0E493A304
:10134000D39C5010E493A3C39C400AD0E0D0E0D0DB
:10135000E002132EA3A3A3D0E022C0E0E493A36C89
:101360007009D0E0D0E0D0E002132EA3A3D0E02299
:10137000C082C083740149F5B37C10800C8A828BD3
:1013800083E0F5B1A3AA82AB83EC1C70F0D083D0CC
:101390008222800100E5B3A2E350F92274F7121211
:1013A000308922ECFEEDFF7409121224E0F8A3E06C
:1013B000F988828983EAC4540FF5218015E5B2F0DB
:1013C000A3EB1B70F81213921521EE2410FEEF34DC
:1013D00000FFE5216016EEFAEFFBA9221213707BE5
:1013E0000C800100EB1B70FB7B1080D57F0202128A
:1013F0008FC082C08390F876E054F0F0741390F8B8
:1014000075F074DF90F86FF074D990F870F074F89C
:1014100090F871F0742590F872F0748090F873F081
:10142000742590F874F0741090F876F074F8F5D58F
:1014300075D46F90F87EE054F0F0741390F87DF05E
:1014400074F890F877F0744A90F878F074DF90F8B8
:1014500079F074D990F87AF0742090F87BF07423C6
:1014600090F87CF0744090F87EF090F886E054F8A4
:101470004408FAF0741290F885F090F883E0541F55
:10148000F074DF90F881F074AF90F882F0E490F897
:1014900083F074F890F884F0740F5A444090F88602
:1014A000F074F8F5D375D277D083D0822274F61217
:1014B0001230EAFEEBFF8C218D228923120865751C
:1014C000AB2AEF90F87FF0EE90F880F090F883E090
:1014D00054E0F0E52390F884F0AA21AB2274097857
:1014E000211211CCE521F5ADEBC313EA13F5AC5392
:1014F000D1FBD2B875D60412084E79017F030212CF
:101500008FC082C08390F888E4F0A3F07980FC1249
:10151000154BD083D08222C082C083C2B890F88796
:10152000E0602690F888E02480F0A3E03400F0E446
:1015300090F887F0C390F889E09480500C798090FF
:10154000F888E0FCA3E012154B80C7FD7A8A7BF88F
:101550001243E5798090F888E0FCA3E0FD7A8A7B6D
:10156000F81214ADE990F887F022EEC0E07E7FE932
:10157000601643C640800579021215A9E5BEA2E5B2
:101580004020EE1E70F1801A53BEFB8005790212D6
:1015900015A9E5BEA2E64004EE1E70F10053C68018
:1015A000E5C643BE04D0E0FE227A177BFF00DBFDD8
:1015B000DAF9D9F52274F11212307C19800F75F026
:1015C0000AECA429C0E0EC12168DD0E0F0EC1C70FF
:1015D000EDE9F5257526007527007528007C00903B
:1015E000FBC578211210F778257921120FF890FBAE
:1015F000C978251210A585252185262285272385D2
:1016000028247410782112108C74FF5521F8747FEF
:101610005522F97A197B001211638C23E523240AE1
:10162000F8E434F9F988828983E0FDEA240AFAE4CF
:1016300034F9FB8A828B83E088828983F0ED8A8289
:101640008B83F00CECC3941940957F0802128FC075
:1016500082C0837B19EB1B8B82A882600C90DF0613
:10166000E0FAE81216886A70EC75E1047401280843
:10167000E43400F97A197B0012115BEA12168890A3
:10168000DF06F0D083D0822212168DE022240AF5E4
:1016900082E434F9F5832274E9121230892190FB37
:1016A000E5E0C395215003E0F52190FB4B7825122E
:1016B00010F790FC2178291210F778257929120A61
:1016C0000A503275251F75268575277B7528409031
:1016D000F95B78291210F790FC25782D1210F77815
:1016E00029792D120BFB78257929120E1290FB4BCC
:1016F00078251211067522007523007524007821C3
:101700001208C290FB4B78251210F7782179251228
:101710000A5690FC2978251210F778217925120BAA
:10172000FB782112091FA821C3E522940140027809
:10173000FFE8F97F1002128FC3EA9401121752409A
:1017400005EAF8EB8006C3E49AF8E49BF9E8FAE9C5
:10175000FB22EB9400A2D265D0332279037C1B7D5F
:10176000FC7A097BDF1243E52274F8121230E9FE9D
:10177000EAFFC2AF121888539BFCE59B53E9EF7553
:10178000911074326E700C90F9FEE0A2E150047971
:10179000198002EEF91241FBEF90DF06F074326E11
:1017A000700590F9E4800390F9E0E090DF2E123D9F
:1017B000C0F090F97BE090DF01F090F97CE090DFE1
:1017C00000F0439A01D2AF022AB8C082C083E9FA7E
:1017D00090F9E5E0A2E6500479328002790C121704
:1017E00069021EBCC082C08375D683E9601C90F973
:1017F000E5E0A2E6401490F9E3E0FA7932121769C5
:1018000090F9E2E090DF05F08003121810021EBC90
:1018100090FB01E0F91217CA22C082C08375D683FB
:1018200012188879047AC17BFB1243CBE490DF085D
:10183000F012175B12187B90F9E5E0A2E6500590D4
:10184000FB01800390F9C7E0F9E990FB01F0121762
:10185000CA79067A1D7BFB1243CB90FAFDE4F0A314
:10186000F090FB0EE060077A0079011233421233E8
:10187000091224CA90FB0BF0021EBC7A837BF97913
:10188000041213701213922275E10490FBE7E02416
:101890003A122B3F74F0F02274F112123075FD00F1
:1018A000758FFFE5F275F2FF7A0075210175220050
:1018B000EA78211211DBE52145F2F5F20AEAC39438
:1018C0000840E775F4C075FEDB75CB7075CC2475E8
:1018D000CE2475F12075F52079127AE87BFA12434F
:1018E000CB75F300790012156AE490DF08F090F9E7
:1018F000C7E0F91215B51213F112175B1218107523
:10190000210075220075238075243F90F93F7825CA
:101910001210F778217925120E1290FA1D782112F3
:10192000110643CB14E5CBD2B9D2A9439A01021ACE
:10193000AFC082C08390FA02E0FA601E90F9DEE048
:10194000FBEAC39B5003EA8001EBFC8CCD12248D93
:101950007488F0A37413F0121DE5D294021EBC74B7
:10196000F11212308A218B228C238D2412198D784A
:10197000251210F778257921120A561219CC7821F0
:101980001210F778257921120BFB021AA790FB4F52
:10199000121994221219982212199C22E0F8A3E03D
:1019A000F58388822274F11212308A218B228C23D3
:1019B0008D241219CC78251210F778257921120B75
:1019C000D612198D78211210F7021AA090FB4F122F
:1019D00026F12274F11212308921752200740278E6
:1019E000211211DB1237F778211210F77821120833
:1019F000A790F93F78251210F778217925120A5619
:101A000090FB5178251210F778217925120A56AAF1
:101A100021AB22AC23AD241219A5021AAF74F11226
:101A2000123012198D78211210F77D018A828B8372
:101A300078251210F778217925120A568D257526FA
:101A400000740278251211DB90FB4FE02525FCA3E2
:101A5000E035268C82F58378251210F778217925D8
:101A6000120BFB0DEDC3940440C2AA21AB22AC23A0
:101A7000AD24803B74F11212308A21EBF522121A48
:101A8000B41208A790FB5578251210F77821792514
:101A9000120A56AA21AB22AC23AD2412195F800F83
:101AA00078257921120A56AA25AB26AC27AD287FC6
:101AB0000802128F3395E0F523F52478212274F77C
:101AC00012123079F47C007D047A237BF91243E50D
:101AD00090F923E064AA7004A3E064AA702B123288
:101AE00076EA7001EB601AC3EA94F5EB94044011B6
:101AF0007904EA24FCFCEB34FFFD7A137BFA1243F1
:101B0000E579047A177BFA802C74FF90F9C7F0907E
:101B1000F9E9747EF0A374FF121DB6E490FA101276
:101B20001DA5790C7CD47D037A237BF91243E579DA
:101B3000087A137BFA1243CBE490FB1102289E74BF
:101B4000F112123090F93F78251210F790FB6112D4
:101B50001DD51208C278257921120E1290FB5578F6
:101B60002512110690FB4F7463F0A374F9F090FBFB
:101B700063123253121A748A218B228C238D24789B
:101B80002112091FA821A922E490FB0FF090F97FF0
:101B9000E0FA602175F0E8A4CAACF075F003A42C5B
:101BA000FCE42CFBE89AE99B50047A0180027A005D
:101BB000EA90FB0FF090FA10E0FD607275F064A4FB
:101BC000FAACF0E42CFBE89AE99B50047A0180021D
:101BD0007A00EAFB90FB11E07049EB606574FF90BE
:101BE000F9C7F090FB01122450C2E4F0D2E2F09069
:101BF000F9FEE0C2E4122450541FF0E490F926F0FC
:101C000090F925F090F97F122450C2E0F090F9FE8F
:101C1000E0549F121DA590F97B74F0121DB490FB47
:101C200011801BEB701CEDFE121ABEEE800A90FBB9
:101C300011E0600E121ABEE490FA10122447F0125E
:101C4000181990FB4F746BF0A374F9F090FB6512B8
:101C50001DD51208C290FB5578251210F77821790E
:101C600025120A56AA21AB22AC23AD241219A58A4B
:101C7000218B228C238D24782112091FAA21AB22CB
:101C800090FA06E0F5217003021D2974FF652170AA
:101C900003021D2990FB6BE07002A3E0600990FB3A
:101CA0006B121F53021D2975220074037821121133
:101CB000DB90FB6BE521F0A3E522F090FB6DE0608B
:101CC0003090FA05E0F8C3EA981217525015A29422
:101CD000400312193190FB09E0121D9DE490FB6D49
:101CE000F08043A294503F90FB08E0603914F080EC
:101CF00032A294503190FA04E0C39AE49BA2D265D8
:101D0000D033502290FA09E0FB90FB08E0FAEBC3D5
:101D10009A5003EB8002E014F0740190FB6DF09098
:101D2000FB08E0121DCD121DE590F982E06065A26E
:101D300094506190FB4F744BF0A374F9F090FB59F1
:101D4000121DD51208C290FB5578251210F7782184
:101D50007925120A56AA21AB22AC23AD2412195FB1
:101D600012449A8A218B22A821A92290FBE5E064E3
:101D7000FFC3600FE89441E9941F401E74FF121DD9
:101D8000C48017E89470E99417500F90F982E0909E
:101D9000FBE580EA74FF90FBE5F0021AAF90FB08C8
:101DA000F0121DCD22F079207CFB7DFB7A837BF93C
:101DB0001243E522F0A3F0740290F9E1F07401906F
:101DC000F9E2F022F090FB08E0121DCD22F9121684
:101DD00097E9F5CF22E0F521A3E0F5227523007500
:101DE000240078212274ED12123090F9BC121EB03A
:101DF0001208C290FB08E0F52575260075270075CE
:101E0000280078251208C290FC2D78291210F77846
:101E1000257929120A5690FC3178291210F7782575
:101E20007929120BFB78217925120A5690FC357816
:101E3000251210F778217925120A56AA21AB22AC77
:101E400023AD2412445190FB151224E990F9BB12E2
:101E50001EB01208C285CD2575260075270075288D
:101E60000078251208C290FC3978291210F77825DD
:101E70007929120A5690FC3D78291210F7782579B5
:101E800029120BFB78217925120A5690FC3578250A
:101E90001210F778217925120A56AA21AB22AC2319
:101EA000AD2412449A90FB131224E97F0C02128F86
:101EB000E0F521752200021DDC123309D083D082A7
:101EC00022C082C083122483C3E89AE99B5008741D
:101ED000FF281874FF39F9E8C39AFAE99BFB80DC04
:101EE00074F712123090FB25E0241CFAA3E03400B2
:101EF000FB892174012521F8E43400F98A828B835F
:101F0000E8F0A3E9800B75C9A875C958741090FF53
:101F1000FFF08A828B83C3E0940112247E50E78A0B
:101F2000828B83E4F0A302289EC082C0838A828BC6
:101F300083E07002A3E060168A828B83121F538AAB
:101F4000828B83E07002A3E0700479018002790043
:101F5000021EBCE024FFF0A3E034FFF02274F5126F
:101F600012307E03EE1E7003022116741090FFFFE4
:101F7000F075210080197ADE7BFB12244260071283
:101F80002468122460F00521E521C3941050D5A8DF
:101F90002190FB23E02812384160EBE4F0E52112A8
:101FA0001311000501D51F02B51F03D01F092420FE
:101FB0000BDA1F861F90F9E5E054606420700790EB
:101FC000FB0DE0F9800279001217E41232B380B6FB
:101FD000122ABD80B1122B4A80AC123CB312320AD5
:101FE000C3E89429E91217535006E87001E9700913
:101FF0007A017900123342800990FB23E0240B120E
:1020000026E090F97D12320A7583FA7582DA123869
:102010002D4003021F86E490FB08F075CF001227C5
:1020200006021F8590FB0CE0600214F07AE07BFB57
:10203000122442600F12181990F9F312320A90FB21
:10204000E01238177AE27BFB122442600B90F9E52C
:10205000E0A2E050031242F890FAFF12245690FAE0
:10206000FFC3E094E9A3E094034007E490FC1EF072
:10207000800990FC1EE06003021F8690F9E5E0A253
:10208000E74003021F86A2E650597ADA7BFB12244E
:1020900042602190F9EB12320A90FBD81238179067
:1020A000F9E5E0C2E6F0122460122447F0F91217B5
:1020B000CA021F867ADC7BFB1224427003021F8651
:1020C00012321490FB01E0F890FA01E028F8E434B1
:1020D00000F97AFA7B0012115BEA90FB01F090F9AB
:1020E000FD80C97AD87BFB1224427003021F76124E
:1020F0003CA790FBDEE4F0A3122450D2E6123CC6CB
:1021000064FF700890F9C7E090F9FDF0E01224C672
:1021100090FB01E08097741090FFFFF0752100E5BF
:1021200021C333F8E433F990FB251231EB12247903
:10213000400302243188828983E4F0A3F0E5211270
:1021400012DB020D3124622171219C2224223122D2
:1021500031245C22FE222922A7226F23C1233124AD
:10216000392375C9A875C9581226E7A3740102243A
:102170003090FB0CE0700302243190DF05E0FA9010
:10218000F9E2E06A70047A0180027A00EA90FB7456
:10219000F090FB12E0700302221A90FB05E0600C45
:1021A00014F0701090FA1BE4F0A3800790FB0AE093
:1021B000600214F079007A4A7BF8122AF390F981D0
:1021C000E0FA700302243190F980E0FBEAC394083E
:1021D0004009EBC394084003022431EB6008C39A22
:1021E00050048B2380028A2312323090F9E5E0A25A
:1021F000E25010E523C3940840030224311224AFB7
:1022000002241D74016523600302243190FBD6E093
:1022100024FDFAA3E034FF02242790FB2312199037
:10222000A302216BC293022431740190FB1002249B
:102230003090F9DCE0700E90F9DDE06008D2931286
:102240003CEDF0800890F9DCE0A2E0929390F9DD9B
:10225000E0700302243112193102243190F9E5E0D3
:1022600054506410703690FB0BE0FA74FF2AF0EAC9
:10227000601812246890FBD612325390FB25E0249C
:1022800010122B3BEAF0A3EB800B90F9C7E090FB18
:1022900001F090DF06122497E4F0A3F07900121702
:1022A000E41232B30224311226F7F090FB701224AC
:1022B0005690FB70C3E094E8A3E09403500302241B
:1022C0003190FB70E4F0A3F090FB72E004F0C39453
:1022D0003C5003022431E4F090FB73E004F0600E04
:1022E00075F00F84E5F07006740190FBE6F090FB4A
:1022F00073E0C3943C5003022431E40224301224DE
:10230000D81232077583FB7582D6E0C398F8A3E034
:1023100099F974E728F874FF39F990FB251231F325
:10232000A3A3A3A3A3123817123259F090FB0DE018
:1023300070030224311402243090F9DEE0FBE5CD75
:10234000C39B502590FA0DE0FCE5CDFAEC70057CBE
:102350000180010AEC1C6005EAC39B40F68ACD129D
:10236000248D7488F0A37413F0121DE502243190BB
:10237000FB25E0241812323AE8FEE9FF12381D501E
:102380003690FB08E0C0E090FB09E0FAD0E0C39A89
:1023900050D790FA0AE0FC90FB08E0FBEC70057C5B
:1023A0000A80010BEC1C6005EBC39A40F6EB121D92
:1023B000A08E828F8380ABE490FB08F075CF008005
:1023C000F012248390FB1B1238171228AE90FB1BCF
:1023D000123253121EC190FB1B1224E990F981E0C6
:1023E000F523604D12322690F9E5E0A2E2501BE59C
:1023F00023C39408503B1224AFFB90FB1BE0FCA3CB
:10240000E0FDEAC39CFAEB9D801374016523702103
:102410007583FB7582D6E0C39AFAA3E09BFB74FD3B
:102420002A1A1A1A74FF3BFB88828983EAF0A3EB0D
:10243000F00521E521C39410500302211F7F0402FF
:10244000128F121F29E922F090F9C7E090FB0122B8
:10245000F090F9E5E022E02401F0A3E03400F0225E
:10246000123CE1E8F0A3E92290FB01E090DF06F0E6
:1024700012164FE090FB01F02288828983C3A3E00B
:1024800002175390FB6E12199412320E2290FB2504
:10249000E0241E122B3F22F012249C2290FB2512D6
:1024A00024A32212199CA3A3A3A3A3A3A3A32290B2
:1024B000FBD6E0FAA3E0FBEA8523F0A4FAACF085B2
:1024C00023F0EBA42C2290FB01F090FB25E02410DC
:1024D000122B3FE4F0A3F02290FBD6E0FAA3E0FB3E
:1024E00090FB25E02412122B3FEAF0A3EBF022EE42
:1024F000C0E0E9FE800579FA121EE0EE1E70F7D00A
:10250000E0FE22748090FFFFF090DF36E06481608F
:10251000031242F875C9A875C958D2B97E007F0068
:102520008E218F22740A78211211DB2400F874089E
:102530003522F9741090FFFFF07C007D00E8FAE985
:10254000FB8A828B83A3A882A9838A828B83E0641F
:10255000FF70047A0180027A00EAFBEC24010CEDA2
:102560003400FDEB6009C3ED940440D112603FEEEE
:1025700024010EEF3400FFC3EE940FEF940040A04F
:1025800090FBE7E02430122B3B7416F0A374271263
:1025900026DA2432122B3B744BF0A374271226DA6E
:1025A0002434122B3B7417F0A374151226DA243747
:1025B0001226E090FBE7E0245B122B3B742CF0A387
:1025C00074011226DA242012323A90FB23123817B3
:1025D00090FBE712320A90FB2512381790FBE7E0D8
:1025E000243812323A90FB6E123817741855BEC355
:1025F00013131390FB07F0121ABE79047CF37DF9D4
:102600007AE07BFB122A19500590F9FD800390F9BE
:10261000C7E0FAEA90FB01F01241DA90FB07E01202
:1026200012DB00039F265E265E262E265E2690F98C
:10263000DCE06004D2938002C29390F9DDE0600494
:10264000D2948002C29490F9DEE0F5CD90F9DFE0FB
:10265000F990FB08F090FB09F0121DCE804190FA32
:1026600002E0FA60048ACD800690F9DEE0F5CDC282
:1026700093C29490F9DCE0A2E09293E490FB08F01E
:1026800075CF0090F9DFE090FB09F090FB25E02486
:102690000C122B3B7498F0A3743AF0122706F01238
:1026A0001898790C1224EF1232411226F71224974F
:1026B0007405F0A3E4F01226E7A37401F01224D805
:1026C00012187B123CB9121DE5C29179141224EF45
:1026D000121819D291121F5D80FBF090FBE7E022E7
:1026E000122B3F7401F0221226EE7438F02290FB78
:1026F000251219980224AA90FB25E02416122B3FDC
:102700007405F0A3E42290FB25E02418122B3F74FB
:1027100088F0A3741322C082C083E490FB041238B3
:102720003A0412383AC39404500E90FB25121990C3
:10273000A3A37414F0A3E4F090FB04E024E9F58271
:10274000E434FBF583E0F5B6021EBC74F5121230DA
:10275000E5BBF522E5BAF52190FB04E0FC74012C01
:10276000F0740278211211BC90FC1FE02521FAA31D
:10277000E03522FBECC333F8E433F9E824E8F582D2
:10278000E934FAF583E02AF0A3E03BF090FB04E0A3
:10279000C394095010E024E9F582E434FBF583E0AA
:1027A000F5B602285F90FAFAE004F0C394085003EB
:1027B00002285A90FAEEE0FEA3E0FF7CE87DFA7A68
:1027C000597BFB90FB03E0C333F8E433F9E82422A0
:1027D000F8E934FAF97523098C828D83E0F521A399
:1027E000E0F52288828983E521F0A3E522F0E52146
:1027F000C39EF521E5229FF5228A828B83E521F095
:10280000A3E522F0E82410F8E93400F9EA24020AEA
:102810000AEB3400FBEC24020C0CED3400FD152314
:10282000E52370B490FB23E0240BF8A3E03400F917
:10283000888289837401F079127AE87BFA1243CB9B
:10284000E490FAFAF090FB03E004F06408700B7473
:102850000190FB0EF0E490FB03F0E490FB04F00227
:10286000243D74F71212307A937BF979061218819D
:1028700075214C7522F878211212CA7C007DF87AF5
:1028800020790012139C74021211FD742290F84AF0
:10289000F090F9E2E090F84BF0740190FB12F07FB9
:1028A0000202128F79067C297DF91243E52274F128
:1028B00012123074FC1211EE90FB05E06006122A31
:1028C00076022A0E90FB0EE07003022A1190FA1392
:1028D00078211210F790FA1778251210F7782179DD
:1028E00025120BFB85418285428378211211067ED9
:1028F000327F007A00790012334290F9FEE0A2E7BD
:10290000790450067C177DFB800A854182854283CD
:10291000AC82AD837A007BF81243E590FB01E09036
:10292000F804F074185590C333C0E090F925E054D2
:102930000FFAD0E04A333354FC122A6A79107CD65D
:102940007DFA7A0C7BF8122A19500A90DF06122AB7
:10295000237434800CA2E5500D90F9E3122A2374FD
:102960003328FEE439FF90F9E5E0A2E75008EE24B1
:1029700004FEEF3400FF90F9FEE0A2E15008EE24DF
:1029800008FEEF3400FF90F81AEEF0A3EFF090FB92
:1029900029E07002A3E0600790FA21E0FA80027A51
:1029A0003FEA90F81CF090FB29E07002A3E0700B66
:1029B00090FB7612320A90FB29800990FB29123293
:1029C0000A90FB7612381790FB29E090F81DF0A2D0
:1029D000945024E5CD90F81EF090FB08E090F81F8D
:1029E000F090FBE5E0C0E090F81FE0FAD0E0C39A79
:1029F000501590FBE5800B90F9DEE090F81EF0900A
:102A0000FB09E090F81FF090FB29E4F0A3F01228F6
:102A10006274041211FD021AAF1243E590F9E5E069
:102A2000A2E622E075F064A4F8A9F02274F812126C
:102A3000308921EAFEEBFF7904EEFCEFFD7A007BA2
:102A4000F81243E5E52190F804F090F925E03333DE
:102A500054FC4403122A6A7914EE2404FCEF340077
:102A6000FD7A0C7BF81243E5804E90F805F07A066B
:102A70007BF81228A42274F812123090FB05E0F8BB
:102A800074FF281874FF3400F990FBE4E0FA7B002F
:102A900012115BE8FC90F9FF7476F0A3742AF0EC55
:102AA00075F018A4F8A9F090FA1BE028FAA3E03911
:102AB000FB74ED2CF9122A2C7F0102128FC082C008
:102AC0008374FF90F800F090F801F090F802F09015
:102AD000F803F079067C177DFB7A047BF81243E556
:102AE0007A0A7BF81228A4122862741290F84AF02D
:102AF000021EBCC082C08390F9FEE0A2E640398A83
:102B0000828B83E0FC74226C600574126C702990D7
:102B1000FB0FE07023EB90F877F0EA90F878F01272
:102B200017E4C2AF90FBE7E0243A122B3B7410F09D
:102B300075D60275E103D2AF021EBC122B3F22F8FC
:102B4000A3E03400F9888289832274F11212309054
:102B5000DF38E0F52190DF08E0F52290F9FEE0A2F1
:102B6000E650030231CC90FAFBE4F0A3F090F82594
:102B7000E090FB7F1224505460FA90F826E0FB743A
:102B8000206A701B90F9E2E0FC6B701390DF05E0A7
:102B90006C700C79007A257BF8122AF30231CC9004
:102BA000F9E1E06B60030231B290DF3CE0A2E75054
:102BB00004D2F08002C2F0A2F0E492E0F523742087
:102BC0006A700979017A257BF8122AF37A937BF9E6
:102BD00079061218817525007526F878251212CA13
:102BE0007C277DF890FB7FE024FEFA790212139C8B
:102BF00074021211FD90F800E090FB7EF090F80155
:102C0000E090FB75F0A2E550047905800279067C1E
:102C1000027DF87A787BFB1243E5E0541FC39411E0
:102C200040030231B290FB7878251210F77583FBD0
:102C300075821D7825120897402879047C1D7DFB3C
:102C40007A787BFB124411E960030231B290FB7C7D
:102C500012320A90FB21E0687003A3E0697003025E
:102C600031B290FB7878251210F77583FB75821DC1
:102C70007825120897402479047C1D7DFB7A787BA7
:102C8000FB124411E9701890FB7C12320A7583FB29
:102C9000758221C3E098A3E09950047A0180027AFA
:102CA000008A2490FBE7E0245F123841FAA3E0FB9E
:102CB000121EC18A258B26AE25AF2690FB7FE0240D
:102CC00026F582E434F8F583E0F525C394805013AB
:102CD000E525C313FA90FBBF12320AEAC398F8E461
:102CE000998017E42525F874FF13E813F890FBBFCB
:102CF000123253E8C39AF8747F9BF990FB29123C77
:102D00009F5003022D8E90FA0FE0F582AC82E521F0
:102D1000F83395E0F9E8C39401A2D265D033400DB1
:102D2000C3EC98E412383650248C218020E8C3127A
:102D300017535019C3E49CFAE49400FBC3E89AE9E2
:102D40009BA2D265D0335005ECF404F521E522F8BE
:102D50003395E0F9E521FA3395E0FBEA28F521EB1C
:102D600039F522AA21FB121738C3EA9461121752CF
:102D70004016740278211211DBAA21E522FB33955B
:102D8000E0FCFD1243078006E52190DF08F0E52313
:102D900070030231B290FBE6E06005E4F0123241CC
:102DA000639002E590740790FB0CF079047CF37D4E
:102DB000F97AE07BFB1243E5E524600D79067C7827
:102DC0007DFB7A1D7BFB1243E590FB75E0A2E7508B
:102DD000047A0180027A0490FBCD1231FF90FB75DA
:102DE000E0F8741F58F8EA28F8E43400F9E885217F
:102DF000F0A4C8AAF08522F0A42AFA8521F0E9A45B
:102E00002AF990FBD31231EB90FBD6123C9F500471
:102E10007A0080027A0B123226E8FCE9FD90FB7EF4
:102E2000E0701DE490FB12F07428C39AF8E41231AC
:102E3000CF79067C787DFB7A177BFB1243E58075A2
:102E400090F981E0F521F52390FB7EE0F8E523C3BE
:102E500098F8E49400F990F9E5E0A2E2E521503712
:102E60006053C3E89408E9121753504990FBD6E029
:102E7000F523A3E0F524E88523F0A4C885F0218597
:102E800024F0A42521F5218523F0E9A42521F97456
:102E90002828F8E4398015601C7401687001E97015
:102EA0001490FBD6E02428F8A3E03400F9E8C39A94
:102EB000F8E91231CF740890FB0DF090FB25E02467
:102EC0000812323A90FBCD1232537583FB7582D6CD
:102ED000E0C39AFAA3E09BFB74F12AFA74FF12385C
:102EE0000490FB7EE090FB02123CA3404290FB2545
:102EF000E02410FAA3E03400FB90FB75E0A2E6505A
:102F00002288828983E024F1F8A3E034FFF9E8C342
:102F10009EF8E99FF98A828B83123817740890FB18
:102F20000B800BE490FB0BF08A828B83F0A3F09074
:102F3000FBD6E02401FAA3E034001224DF90F9E587
:102F4000E0A2E6501B90F9E7123262500E123214E2
:102F500090F9ED12320A90FBDA8010123259800F8C
:102F600090F9E812326250F3123CCFE8F0A3E9F096
:102F700090FB7EE0FC74FF6C600C90F980E06006D2
:102F8000F5F0EC84ACF090F925E0FD123207E88D05
:102F9000F0A4F8AAF08DF0E9A42AF990FBD112313F
:102FA000EBE8C39EFAE99FFB12323090F926E0F578
:102FB0002374FF6C6010E5236C700B88828983EAB0
:102FC000F0A3EB0231138523258C21E525C3952140
:102FD000F521E49400F52290FB75E0541FF5249050
:102FE000F981E0F52590F9E5E0A2E2E525504A7087
:102FF0000302307574FF6523607BECC395234003A7
:10300000023114C3E5219408E5221217534003024C
:103010003114EDC39524400302311490FBD61231D4
:10302000E0CCAEF08522F0A42EFE8521F0EDA42E9A
:10303000FDEA2CFAEB3DFB8082603A74FF65236069
:1030400034ECC395234003023114740165217002EE
:10305000E5226003023114EDC395244003023114CC
:1030600090FBD6E02AFAA3E03BFB88828983EAF052
:10307000A3EB02311374FF6523600302311474FF64
:103080006D600302311490FB75E0A2E7500302313A
:103090001490FB25E0241A1232FC90FB06E060033A
:1030A00014807053B4F3E5B443B404E5BDC0E090BC
:1030B000FA08E0F5F0D0E08490FA07AAF0E02A9050
:1030C000FB06F090FB75E0FA741F5AF52190FBCDDA
:1030D0001231E0FCAAF08521F0EDA42AFDE5BC75D3
:1030E000F0058485F02190FBCF123253EAA4FA85D3
:1030F000F0238521F0EBA42523FBEA2CFAEB3DFB22
:1031000090FBD1E02AFAA3E012380490FB2312319D
:10311000F37401F088828983E07002A3E0603D7A55
:103120001890FB7EE070027AEF90FB7FE0641270F3
:103130000474392AFA90F9E5E0A2E6500674EA2A06
:10314000FA8009A2E5500574FE2A1A1AEA3395E0BE
:10315000FB88828983E02AF0A3E03BF090F9E5E068
:10316000546064207005790C121EE090FB7FE0240F
:10317000F6F9123ED290F9E5E054486408702390C5
:10318000FBD8C3E094C8A3E09400501690FB7FE006
:103190002425F582E434F8F583E090DF06F090FB17
:1031A00001F0123230122479500888828983E4F0C9
:1031B000A3F079001217E490F9E5E0546064207000
:1031C0000890FB0DE0F91217E41232B3021AAF9423
:1031D00000F9E8C39EF8E99FF98C828D83023817C5
:1031E000E0FCA3E0FDEC8521F0A422E028F8A3E0B8
:1031F00039F922E0FAA3E0F5838A82A3A3A322E0AF
:10320000F521A3E0F5222290FBCD12320E22E0F848
:10321000A3E0F9221232182290F9EFE0F8A3E0F9C6
:1032200090FBDC02381790FB25E0241A12323A2278
:1032300090FB25E0240612323A22F8A3E03400F98C
:103240002290FB25121994742CF0A37401F0228EA5
:10325000828F83E0FAA3E0FB2290FB23123CF774F9
:103260000122E0FA3395E0FB90FB2912320EC3EA0B
:1032700098EB1238362274F71212307AF07B048001
:10328000091237EEEA7001EB6022C3EB9408501C80
:103290007C041C8C21EA2521F582EB3400F583E0C7
:1032A00064FF7003EC70EBEC70D780047A007B0055
:1032B00002289FC082C08390F9FEE0A2E6403A90C7
:1032C000FBE7E0243A12384164107005123309809C
:1032D00028C2AF90FBE7E0245F1232FC90F825F0A3
:1032E00090F826F0742088828983F0742290DF029F
:1032F000F075D60175E102D2AF021EBCFAA3E0342C
:1033000000FB8A828B830224D312249C7401F0A3D5
:10331000E4F02274F112123090FB8478211210F73D
:103320008A828B8378251210F778217925120A5624
:1033300090FC2178251210F778217925120BFB02D9
:103340001A6A74E5121230E9FFEAFE90DF08E0F82D
:103350003395E0F990FB271238177AB27BFA7C227A
:103360007DFAEE604290FB03E0F818740758C3330F
:103370002422FCE434FAFD7525098C828D831232F7
:103380000A882189227523007524008A828B83781C
:10339000211211061237EEEC2410FCED3400FD155D
:1033A00025E525605C80D3790975250890FC417876
:1033B000211210F790FB887821121106801E8C8252
:1033C0008D831231FF75230075240090FB887821CE
:1033D0001210B8EC24020C0CED3400FD852521748C
:1033E000FF2521F525E52170D590FB887821121065
:1033F000F78A828B8378211211061237EE19E97051
:10340000A87C0979007AB27BFA12438590FAC278D7
:10341000211210F790FC41782112086D70030237D9
:10342000E975250075260075278075283F782112DB
:1034300008A778257921120E1290FB5178251211D8
:103440000690FB4F746BF0A374F9F079061219D350
:103450008A218B228C238D2490FB847821121106E3
:1034600090FB8478211210F790FC4578251210F714
:1034700078217925120A56782112091F90FADEE583
:1034800021F0A3E522F090FB4F742FF0A374F9F024
:103490007A847BFB121A1D8A218B228C238D249027
:1034A000FB94782112110690FB9478211210F77882
:1034B0002112091F90FB8C782112110690FBC17814
:1034C000211210F790FB27E0F523A3E0F524740206
:1034D00078231211DBE5232521FAE5243522FB9020
:1034E000FB8C78211210F7EAC39521F521EB952288
:1034F000F522740278211211BCE52190FA21F0EF37
:10350000602890FBE7E0243A12384164F0701B9089
:10351000FB8C78211210F790FBC178211210CBAAF6
:1035200021AB22AC23AD2412430790FB84782512F3
:1035300010F790F94778211210F778257921120BAE
:10354000D690F93F78291210F7752D00752E007569
:103550002F8075303F90F94378311210F78525217F
:1035600085262285272385282478217925120A5645
:1035700078317921120A56782D7931120BD67829B3
:10358000792D120A5690FB80782912110690FB843F
:1035900078211210F790FC4978251210F7782179DC
:1035A00025120BFB90FB84782112110690FB5178B9
:1035B000211210F790FB8078251210F778217925D9
:1035C000120A5690FB5178211211067525008525A7
:1035D00082858223752400E52324F2F582E434FBFE
:1035E000F583E0FF74FF6F7003023697740278234F
:1035F0001211DB85232185242290FB51782912109A
:10360000F71237F7782D1210F7782D1208A77829BE
:10361000792D120A5690FB907829121106740865CC
:1036200025600674026525702690FB90782912109B
:10363000F77AD47BF91233138A2D8B2E8C2F8D3091
:103640007829792D120A5690FB9078291211068F4D
:1036500023752400740378231211DBE523244BF82F
:10366000E52434F9F990FB4F12381790FB90782934
:103670001210F7AA29AB2AAC2BAD2C12195F8A299C
:103680008B2A8C2B8D2CE5212498F582E52234FBA6
:10369000F58378291211060525E525C39409500301
:1036A0000235CE90FB9878211210F7AA21AB22ACFC
:1036B00023AD2412449A90FAD61224E990FB9C7808
:1036C000211210F7AA21AB22AC23AD2412449A9008
:1036D000FAD81224E990FBAC78211210F7AA21AB9A
:1036E00022AC23AD2412449A90FADC1224E990FB18
:1036F000B878211210F7AA21AB22AC23AD241244D2
:103700005190FAE01224E990FBA078211210F7AA58
:1037100021AB22AC23AD2412445190FADA1224E9F1
:1037200090FABE78211210F790FAE2E521F0A3E5B5
:1037300022F0EE70030237E9121B3F90FBBCE0C39E
:1037400033F012381D504690FA1778211210F79076
:10375000FBA078251210F790FB9878291210F778C3
:10376000257929120A5690FC4D78291210F77825F0
:103770007929120A5678217925120BFB90FA1778CD
:103780002112110690FBBCE0D2E0F0805C90FBBC03
:10379000E064FE70541232768A218B22AE21AF2271
:1037A00090FA1378211210F790FA1778251210F773
:1037B00078217925120BFB90FA13782112110679E2
:1037C000047A177BFA1243CBC3EE94F1EF940740CF
:1037D00005123CFC8013EE7001EF600D7904EEFCE5
:1037E000EFFD7A137BFA1214AD7F1402128FEA24D4
:1037F00004FAEB3400FB22E52124B2F582E5223401
:10380000FAF583223BFBEAC39EFAEB9FFB88828991
:10381000830224E990FAFDE8F0A3E9F02290FADAB5
:1038200012320E7583F975827D12382D22C3E0980D
:10383000A3E01238362299021755F090FBE7E024F6
:1038400036122B3FE02274F61212308A237C237D3D
:10385000F98982858221752200E92423FEE434F966
:10386000FFE9121311090609F93B1015A8392E308A
:103870006A3B3D3E2E3C3F44363C4A4E363C4F511F
:10388000513C55565F3C57588E3C2801883C0405F6
:10389000390550390BEF390CE9390DED3B0E1A3C67
:1038A000167F391793391AB3391C0D3A1D783C1F0E
:1038B0003B3A20603A21353A23983A24A33A25AF7F
:1038C0003A26BB3A28CB3A29DE3A2A013B2BD73A93
:1038D0002C463B2D573B31703B33883B35973B366D
:1038E000AB3B38B13B395C3A3ADA3B3BF73A452ED1
:1038F0003C46363C492E3C523B3C53F53954FD394D
:1039000064813C9A3CEAC394024003023C9AEA6018
:103910003AD293122498A3A3E4F0A3F090FB10E012
:10392000701290FB25E024141238417002A3E0705D
:1039300003023C9A121931E490FB10F090FB25E051
:103940002414122B3BE4F0A3023C99C293023C9A4C
:10395000EAC394024003023C9AEA6011741855903D
:103960007010D293121931123CED023C99C29402AC
:103970003C9AA2945003023C9A121931023C9A904C
:10398000F9FEE0A2E55003023C9A8523CD121DE525
:10399000023C9A90F9FEE0A2E55003023C9AEA90BC
:1039A000FB09F0121D9D80E5EE24F6F582EF34FF51
:1039B000023C96EA90F9C7F0F91215B590F9E5E0E6
:1039C000A2E6402590F9C7E090DF06F01224C690E9
:1039D000FBD8742CF0A37401F090FBDE742CF0A3E0
:1039E0007401F075E104121819123CB9023C9A12E4
:1039F0001501023C9A90F9FEE0D2E6803790F9FE7C
:103A0000E0A2E55003023C9AD2E5F0801AA293E4CA
:103A100092E090F9DCF0A294E492E090F9DDF0906D
:103A2000F9FEE0A2E5400EE5CD90F9DEF090FB094D
:103A3000E090F9DFF0123CFC023C9A123CB974FFB2
:103A400090F926F090F925F0123CFC12322688827B
:103A50008983E4F0A3F0123CB30239457C007D0475
:103A600090FB05E06003023C9A90FA1BE07002A311
:103A7000E07018ECF8EDF990FA1B12381775F00A9F
:103A800090FBE4E0A490FB05023C9990FBE4E0C0CD
:103A9000E0EAF5F0D0E080ECEA90F9E0F090DF2E7B
:103AA000023C9990F9E5EAA2E0E092E0023C9990AC
:103AB000F9E5EAA2E0E092E1023C9990F9E5EAA298
:103AC000E0E092E2F0121819023C9A90F9E5EAA2BD
:103AD000E0E092E4023C99EA90F9E3023C9990F923
:103AE000E5EAA2E0E092E5F0EA6003023C9A90FB8E
:103AF00001121813023C9A90F9FEEAA2E0E092E16A
:103B0000F0742A69700A90F9E5EAA2E0E092E6F022
:103B100090F9E5E0A2E6501D123CA790FBD8E4F036
:103B2000A3123CC690FB01F0F91217CA90FB25E0E6
:103B3000241002394290FBDAE4F0A3F0123CCFE803
:103B4000F0A3E9023C99EA90F9E4123CA340030295
:103B50003C9A90F9C7809AEA90FBD5F0A2E0758371
:103B6000F97582E5E092E7023C99EE2495023C91DA
:103B7000E490F9C7F074FF90F926F090F925F090E1
:103B8000F927121DB4123CFC90FB25121990742CDD
:103B9000F0A37401023C99EA90F9FD123CA34003A2
:103BA000023C9AEA90FB01F0023AEE90F9FE023AEA
:103BB000A679107C2B7DFB7A837BF91243E5791083
:103BC0007C3B7DFB7A937BF91243E579207A2B7B52
:103BD000FB1243CB12187B023C9AEA600CC3942080
:103BE0005007EA90FBE4023C99740480F690F9FED9
:103BF000EAA2E0E092E3023C99E975F005A4F52120
:103C0000E5F0F522E5212485FAE52234F9FB8A82E4
:103C10008B83E523F0A3AA82AB83740E6970047AC8
:103C2000B77BF979047C787DFB1243E5806C90F9D1
:103C3000FEE0A2E54064EE24A18056EA700774FF1E
:103C400090FBE5800990FBE5E064FF6004EA121D4B
:103C5000C4EE240DF582EF3400F583E523803A7934
:103C6000047C1D7DFB740278211211DBE521247890
:103C7000FAE52234F8FB80B190F9FEEAA2E0023BBB
:103C800064EA90FC51023AC490F9E5023BF0EE245C
:103C900041F582EF3400F583EAF07F0302128FE8EA
:103CA000F0A3E9F0022A1C90F9ED12320E90FBDA33
:103CB0000238171226EEA3A32290F92DE0F5BC904E
:103CC000F92EE0F5BC22F012321890F9FDE02290B6
:103CD000F9EB12320E90FBD8E8F0A3E9F0123CE1C8
:103CE0002290F9F1E0F8A3E0F990FBDE2290FB25A9
:103CF000123CF7A302270F1224A3A322C082C08381
:103D00007902120852797D121EE079F87C007D0458
:103D10007A237BF91214AD7919121EE0021EB974D0
:103D2000F8121230EAFEEBFFFAE912131101040C4B
:103D3000873D07014A3D024F3D035C3D0D6A3D0E44
:103D4000783D109A3D11B53DBD3D90F9278069EE53
:103D5000540F90F925F0EA90F9268060EE90F9E191
:103D6000F0EA90F9E2123DC08052793C121EE08EDA
:103D7000828F8312122E8045EE90DF01F0EA90DFF1
:103D800000F090F97B8031E9C333F8E433F9E8249B
:103D9000E3F582E934F9F583801E90FA1BE07002A6
:103DA000A3E07019C3EF94044013C3EF9408500DBF
:103DB00090FA1B800390F97DEEF0A3EFF0022AB891
:103DC000F090F9E1E090DF052274F11212308923BE
:103DD000EAFEEBFF75210075220089257526007427
:103DE0000278251211DBE5252423FAE52634F9FBB8
:103DF0008E828F8378251210F7E9121311040104C3
:103E0000143E05063D3E0A15473E191AB03E0118FC
:103E10009B3EBA3EEA2408F521EB3400F5227404F7
:103E200065236003023EBA782512091F7414252504
:103E3000F8E43526F990F9E9123817807DEA249DD7
:103E4000F521EB34008071740E6523700979047AD2
:103E50004B7BFB1243CB74F62523F523C313F521CB
:103E6000740378211211DBE523A2E0E492E0F5254A
:103E7000752600740278251211DBE525244BF8E441
:103E800034F9F9E52128F521E52239F52274046594
:103E9000237027121DC5121DE5801F752380752410
:103EA0003F78217925120E1290FA1D782112110601
:103EB000EA24BCF521EB34FFF522E5217002E5226E
:103EC000600D7904EEFCEFFDAA21AB221243E5025E
:103ED0001AAF74F312123089217E087FF87522011F
:103EE000752300802DE0F525A30EAF837906EEFC47
:103EF000EFFD7A297BF9124411E9700E740F5524F5
:103F000090F925F0E52590F926F0EE2406FEEF3431
:103F100000FF8E828F83E0FA7003024137AB217479
:103F2000FF2BF521EB70030241378A24A3AE82AF49
:103F30008374F05524F52574F0652560A890FBD5B1
:103F4000E0640270031241DA8E828F8312320A908B
:103F5000FBBD123817EE24020E0EEF3400FFEE24E4
:103F600002EF3400F974035524F5261212DB000326
:103F7000E63F7A3F7F3F9B3FC33F75220180671238
:103F8000324F90F927E06A7003A3E06B70047A0166
:103F900080027A008A220E0EE9804A8E828F83E0A8
:103FA000FA90F926E06A70128E828F83A3E0FA906D
:103FB000F925E06A70047A0180027A008A2285225B
:103FC0002380D37906EEFCEFFD7A297BF9124411A8
:103FD000E970047A0180027A008A22852223EE2485
:103FE00006FEEF3400FF90FBBDE07002A3E06032FC
:103FF00090FAFDC3E09401A3E094FF4014C390FB4A
:10400000BEE09401500B90FBBD12320A12381480AE
:1040100011E52260091241E850047A0180027A0019
:104020008A228E828F83A3A882A983E52512131189
:10403000000610684020E84050464070F74080F786
:1040400040903C41BD41E522601374036526700D2C
:104050007906EEFCEFFD7A297BF91243E5EE2406A2
:10406000FEEF3400FF0241BD90FBD5E0FA90F9E588
:10407000E0A2E7E492E06A601090FBD5E0A2E07570
:1040800083F97582E5E092E7F08E828F83E0F52573
:10409000E8FEE9FF740C5524121311000300A84038
:1040A00004BA4008D440BD41E5226009EEFAEFFBB6
:1040B000A925123DC9EE240480A6E522600B8E825C
:1040C0008F83E0FAA9251238468E828F83A30EAF24
:1040D000830241BDE522600812324FA925123D1F1F
:1040E000EE24020E0E024061E52270030241BD790A
:1040F0003C121EE01242F8E523603C7AE07B03129A
:10410000187F7AF07B037906121881748065257018
:104110000875213B7522FB800675212B7522FB78E3
:10412000211212CAEEFCEFFD7A10790212139C7470
:10413000021211FD12187B7F0602128FE523607DAB
:104140008E828F83E0F524E8FEE9FF8E828F83E084
:10415000A30EAF8390F9FDF090F9C7F08E828F83A4
:10416000E090F9E11241CB90F9E21241CB90F926AF
:104170001241D012320A90F927123817740F5524C1
:1041800090F925F090F9E5E524A2E4E092E2F090C0
:10419000F9FEE524A2E5E092E4F0E524A2E6E0924F
:1041A000E1F079047C1D7DFB7AB77BF91243E512BF
:1041B0003CFC90F9C7E0F91215B51218131241E84A
:1041C0004003023F12123814023F121241D0E02283
:1041D000F08E828F83A30EAF832290F9E5E0A2E7F1
:1041E000E492E090FBD5F02290FBBD12320E758375
:1041F000FA7582FDC3E098A3E0992274F812123098
:10420000E9FE90F9E5E0A2E2791450307C577DFC9C
:104210007A0C7BDF1243E590FBCD74C8F0A3E4F089
:1042200090FBCF7478F0A3E4F090FBD17496F0A3E8
:10423000E4F090FBD374C8F0A3E480327C6B7DFC87
:104240007A0C7BDF1243E590FBCD74E8F0A3740396
:10425000F090FBCF7458F0A37402F090FBD174EE91
:10426000F0A37402F090FBD374E8F0A37403F09011
:10427000FBBF744AF0A3E4F0740A90DF07F0EEC3CA
:10428000940D404C79067C517DFC7A0C7BDF124307
:10429000E57410F090FBBF7448F0A3E4F079037C60
:1042A000827DFC7A237BDF1243E579087C857DFCE7
:1042B0007A157BDF1243E574196E7021740A90DF62
:1042C00007F074A990DF1CF0741D90DF0CF0800DD6
:1042D00079037C7F7DFC7A237BDF1243E579037AC7
:1042E0002F7BDF1243CB79037C8D7DFC7A027BDF51
:1042F0001243E57F0102128FC082C08375C90B741F
:104300008090FFFFF080F874F512123074FC1211E7
:10431000EE8A218B228C238D24C2AF90DF0BE085A7
:104320004182854283F090DF0AE0C0E074011212FE
:1043300024D0E0F090DF09E0C0E07402121224D033
:10434000E0F085418285428378211210B885418250
:10435000854283E090DF0BF07401121224E090DFBD
:104360000AF07402121224E090DF09F090FBC17889
:10437000211210B8E490DF08F0D2AF74041211FDDE
:104380007F0402128F74F312123080357403696057
:104390002F740969602AEA240CF582EB3400F58356
:1043A00078211210F78925752600740278251211DC
:1043B000DBEA2525F582EB3526F58378211210E31B
:1043C00009E9C39C40C67F0602128FC082C0838069
:1043D0000BE48A828B83F0A3AA82AB83E91970F184
:1043E000D083D0822274F8121230801C8C828D838C
:1043F000E08A828B83F08C828D83A3AC82AD838A2A
:10440000828B83A3AA82AB83E91970E07F01021239
:104410008F74F6121230E91960308A218B228521BF
:1044200082852283A3AA82AB83ECFEEDFF8E828F6E
:1044300083A3AC82AD83852182852283E0F88E82BE
:104440008F83E06860D07901800279007F030212D7
:104450008F74F11212308A218B228C238D247821C3
:1044600012091F90FC9078251210F77825792112F7
:10447000088240067AFF7B7F801B90FC947825128F
:1044800010F77825792112088250067A017B808006
:1044900004AA21AB227F0802128F74F11212308A13
:1044A000218B228C238D24782112091F90FC98786F
:1044B000251210F77825792112088240067AFF7BB1
:1044C000FF801B90FC4178251210F7782579211286
:1044D000088250067A007B008004AA21AB2280B5B6
:1044E0006D4EC64139300000C80078009600C80003
:1044F0000268107800DC0014001E00030090010424
:10450000FF0100F5B1B2B3B4B7B0B5BEB600010259
:10451000FFFF03FFFF05414E4453006C617241757C
:10452000677573740007417567757374000741758B
:10453000677573740007646AAA0132000000803F47
:10454000000080C00000003F66661A4200F09145FE
:104550000AD7A33B6666884200E0264600000000BA
:104560000000C8420000C8C131E33E300E5573431D
:104570005900790701235945070014166C434091EF
:104580005610A90A001176A30123595107001416E9
:104590006C0340915610A90A001181350988310930
:1045A0001D1CC740B2B610EA2285450080000001FC
:0745B00080FFFF0000010085
