:1000000002008BFFFFFFFFFFFFFFFF0202F5FFFF74
:10001000FFFFFFFFFFFFFFFFFFFFFFFFFFFFFFFFF0
:10002000FFFFFFFFFFFFFFFFFFFFFFFFFFFFFFFFE0
:10003000FFFFFFFFFFFFFFFFFFFFFFFFFFFFFFFFD0
:10004000FFFFFF0203B0FFFFFFFFFF02030BFFFFF5
:10005000FFFFFFFFFFFFFFFFFFFFFFFFFFFFFFFFB0
:10006000FFFFFFFFFFFFFFFFFFFFFFFFFFFFFFFFA0
:10007000FFFFFFFFFFFFFFFFFFFFFFFFFFFFFFFF90
:10008000FFFFFF0202D912018080FB75C90875D0FD
:10009000007581A07541B07542F1020086FFE473DE
:1000A000C0D02541C582C0E0E54234FFC583C0E031
:1000B000E541C3958224F3C0A8C2AF8583428582FF
:1000C00041D0A8C8F0A3E9F0A3EAF0A3EBF0A3792C
:1000D00021E709F0A3D8FAECF0A3EDF0A3EEF0A32A
:1000E000EFF0A3D0E0F0A3D0E0F0A3D0E0F0A3E5E0
:1000F00020F0A3E5F0F0A322854283854182E0C091
:10010000E0A3E0F9A3E0FAA3E0FBA37821E0F6087E
:10011000A3DFFAE0FCA3E0FDA3E0FEA3E0FFA3E081
:10012000C0E0A3E0C0E0A3E0F5D0A3E0F520A3E0A9
:10013000A3F5F0E5A8C2AF858241858342F5A8D03A
:1001400082D083D0E0F8D0E032D083D082C5F0E412
:1001500093A3C5F0C395F0F5F0E493A3C395F040E5
:1001600005E5F0048001E475F002A42582F582E53E
:10017000F03583F583E493A3C0E0E493C0E022006C
:1001800043C649741043BE0490FFFEF0A3F075DB34
:100190000275DAED75E40675E5447500027501AA8D
:1001A00075025585000375835C758200E0B5011307
:1001B000A3E0B5010E7582F0E0B50207A3E0B50239
:1001C000028015758304D8E1750701750601900357
:1001D000DCE0FDA3E0FC800F7582B9E0FFA3E0FE48
:1001E000A3E0FDA3E0FCA38DCD8CCFE5076004D296
:1001F000938002C293E5066004D2948002C2947593
:10020000F4C075FEDB75CB5075CC2475CE2475F12A
:100210002075F52043CB1490F502E479FFF0A3D9C3
:10022000FC90F5007495F090F55B7495F0A3740064
:10023000F0A37464F075C908D2B9D2AF74FFF5BCED
:10024000F5BC9008007F547EFEE0A3F5BDDEFADF2A
:10025000F8E0B5BC15A3E0B5BD109004D5E0B40836
:10026000097F3FC0077F08C007227F3FC0077F602C
:10027000C007320063900190F50063920190F55B36
:100280007904E0A3639201F0A3639201D9F463922D
:100290000190F536E4F022C082C08390F53AE06424
:1002A000207017740190F521F090F538E090F55F1B
:1002B000F090F539E090F5608013E06410700FE481
:1002C00090F50EF090F50FF0740190F522F074F0B7
:1002D00090F53AF0D083D08222C0E074F21200A0F0
:1002E000C2AF53E9EF539BFCE59B75D6831202978F
:1002F000D2AF0203A1C0E074F21200A085888890FA
:10030000F5321203A612009E0203A1C0E074F2129D
:1003100000A07521007E007FF5C2DC90F55BE070E7
:10032000067478F0A3E4F090F500E07002A3E070AA
:10033000031202748E828F83C3E09401A3E09400C1
:10034000A2D265D03340488E828F83E024FFF0A391
:10035000E034FFF08E828F83E07002A3E07030E51E
:1003600021120149000186036C037103120274809B
:100370001E90F530E07002A3E0601490F530120397
:10038000A612009E80098E828F8374FFF0A3F0EE88
:100390002402EF34000E0EFF0521E521C394104026
:1003A000937F010200F8E0F8A3E0F98882898322B4
:1003B000C0E074F21200A085C0C0E5D1A2E25009ED
:1003C00090F5341203A612009E80D6FFFFFFFFFFB8
:1003D000AAAA00000000506BC0000012D282C80A16
:1003E000340B43E4C5B2D3D24F225398DB6FC8ED30
:1003F000B4C390CEFF4D7F93F9F00FAD198312C5B2
:10040000AAAA0C00FFFF506BC000001271AA35BAF7
:10041000D3BC633D91ED1C3F000034C300001C457C
:1004200095BFD6340000924285EB5D4100C0D0C438
:100430009A994941000000008FC2FD40000012C49B
:100440000AD747410000000052B8DE3E00401C447D
:10045000EC51F84000C013C4F0F018FC0000006438
:10046000414E4453006C61724175677573740007A7
:10047000417567757374000741756775737400077C
:10048000000000000000000000000000000000006C
:1004900000000000FFFFFFFFFFFFFFFFFFFFFFFF68
:1004A000FFFFFFFF0345920753459207534592070D
:1004B00053ACC5A73717B751380101D282FF41406D
:1004C00003FF1701A49A38FF28001E000300040050
:1004D000080050003F08F100F1000389FFFF19C830
:1004E0006E645A0A070B3C0A00000A000100000073
:1004F0005555FFFFFFFFFFFFFFFFFFFFFFFFFFFF60
:10050000FFFFFFFFFFFFFFFFFFFFFFFFFFFFFFFFFB
:10051000FFFFFFFFFFFFFFFFFFFFFFFFFFFFFFFFEB
:10052000FFFFFFFFFFFFFFFFFFFFFFFFFFFFFFFFDB
:10053000FFFFFFFFFFFFFFFFFFFFFFFFFFFFFFFFCB
:10080000E490F80078C779048002F0A3D8FCD9FA04
:1008100090FBC6AA82AB8390435D78C079018015B6
:10082000E493A3AC82AD838A828B83F0A3AA82ABCC
:10083000838C828D83D8E9D9E71222C40080FA75AF
:10084000FE02D29175D0007581507541007542F855
:1008500002080043AE0222E5AE20E7FB22E066700C
:100860001008A3E066700A08A3E066700408A3E01D
:100870006622C3E7960809E7960809E7960809E79C
:1008800096A2D265D03322C3E09608A3E09608A3CF
:10089000E09608A3E09622080808E630E711121057
:1008A000681208AF080808C64480C618181822182D
:1008B0001818E9799EC608CAC608CBC608CCC6C3B4
:1008C00070207996CACBCC7019798ECBCC70137905
:1008D00086CC700EF9802ACA33CACB33CBCC33CC4A
:1008E000331930E7F2CCCBCA3350147004EA30E04D
:1008F0000DE4CA3ACACB3BCBCC3CCC500209C3E98D
:1009000013C6CC182313C6CB18C6CA18C6F92212B0
:10091000094F20F01430E72B74FFFCFBFA747F8042
:1009200022E4FCFBFA7480801AB48008BC00F2BB9D
:1009300000EF800F50EBF9E4C39AFAE49BFBE49CD0
:10094000FCE499C6CC18C6CB18C6CA18C6F922E46E
:10095000C9C608CAC608CBC6D3330308CCC633926F
:10096000F0C3947F402E94184019C9B90704CACB2C
:10097000CC225025C309CA33CACB33CBCC33CC33BA
:10098000D9F422F4600DC9CCC313CB13CBCA13CA5C
:10099000D9F6CC22E4FCFBFA2214FCFBFA22E6C3D3
:1009A0003318461846184622E7C333194719471922
:1009B0004722181818E6084608700AE608C333707C
:1009C00005E633F4220822191919E7094709700AC4
:1009D000E709C3337005E733F4220922E608460825
:1009E000C3134608336002E633F422E7094709C31C
:1009F000134709336002E733F4221209DC601B124B
:100A000009EB601612099E70071209A8600CB32248
:100A1000C0D01209A87005D0D022C32233D0D05044
:100A20001330E0EBC3E7960809E7960809E7960854
:100A300009E7962220E0E4E6970809E6970809E628
:100A4000970809E69722001209DC604F1209EB6053
:100A500012E7548066F61209B270111209A8703BB1
:100A6000090909F4F618F618F618F6221209C770E3
:100A70001512099E08080860EAE6447FF618768099
:100A800018E4F618F62212099E60161209A87012D0
:100A9000E4F608F608F608E65480F609090918187D
:100AA0001822EAC0E0EBC0E0ECC0E0EDC0E0E68771
:100AB000F0A4FBACF008E687F0A42CFCE435F0FAD7
:100AC0001809E687F0A42C4B60027401CA35F0FCCB
:100AD000E433FB09E687F0D2F7A42CCB35F0FC1900
:100AE00008E687F0A42BCC35F0FBE433FD0819E6CB
:100AF00087F0D2E7A42C4ACB35F0CD3400FC09E6D0
:100B000087F0D2E7A42DCC35F0FDE433FA0918E6DE
:100B100087F0D2F7A42CCD35F0CA3400FC08E68764
:100B2000F0D2E7D2F7A42ACC35F07A7E20E70B0A80
:100B3000CB33CBCD33CDCC33CC33CB33501470044B
:100B4000ED30E00ED2F1E4CD3DCDCC3CCC3B5005B8
:100B5000DA05C2F1EB547FC63308E63392F0FBE7C7
:100B60003309E733C39A502D2B70190C0D4C4D707F
:100B7000151806E608C333700D20F10AA2F013F62B
:100B8000E418800B4024E4F630F002768018F61862
:100B9000F618F68024D33B14501074FFA2F013F61D
:100BA000187680E418F618F6800FA2F013F618E60F
:100BB0003303F618ECF618EDF6D0E0FDD0E0FCD0EB
:100BC000E0FBD0E0FA221209EB60461209DC603D3E
:100BD000E9687008F618F618F618F622748067F7B8
:100BE000120BFA090909748067F7221209DC601DEB
:100BF0001209EB7005191919801A1209B2701F1227
:100C000009C7C37003E66733191919400718181884
:100C10002208080874FFF618F618F618F6221209CA
:100C2000C760171209A8702192F012099E7019501E
:100C30001720F014080808090909E7F61819E7F65B
:100C40001819E7F61819E7F62212099E60E6E86916
:100C5000701F0808E62480F608E436F618547FB4BE
:100C60007F0CE654806007F6E418F618F622181890
:100C700022E9C6CC08C6CD08C6CE08C6CFC0E0E87B
:100C8000C0E0EAC0E0EBC0E009E9F809E7FA09E7EB
:100C9000FBE6F918E6F8C3EC98ED99EE9AEBC2E79B
:100CA000F5F0EFC2E795F0500E600CEBCFFBEACE0B
:100CB000FAE9CDF9E8CCF8EAA2E7D2E7FAEB33FBA0
:100CC00013F5F0EEA2E7D2E7FEEF33FFC5F013A273
:100CD000E730E601B313C5F0C3C0E0C0F07F00C346
:100CE0009BFB605B9418600C401AD0E023F9D0E0C5
:100CF000F8020DC98AF0E9486003D2F0E4AFF0FAD7
:100D0000F9F8803BEB30E40D89F0EA6003D2F0E4BF
:100D1000AFF0F9CAF8EB30E30D88F0EF6002D2F0E3
:100D2000AFF0E4CAC9F8EB54076014FBC3EA13FA46
:100D3000E913F9E813F8EF135002D2E0FFDBEDD02E
:100D4000E0C0E030E739C3E49FFFF5F0EC98FC42E7
:100D5000F0ED99FD42F0EE9AFE42F0D0E0F9D0E0DD
:100D6000F8E5F0607AE923F9EE20E742D8028067DF
:100D7000C3EF33FFEC33FCED33FDEE33FE80EAECE2
:100D800028FCED39FDEE3AFED0E023F9D0E0F84042
:100D900002801BC3EE13FEED13FDEC13FCEF1350AA
:100DA00002D2E0FF08B800067F7F74FF802EEF3389
:100DB00050178CF020F00260100CBC000C0DBD0030
:100DC000080EBE000408E860DFE933E813FFEE23F5
:100DD00013FE4F4D4C8008E95480FFE4FEFDFCEE0D
:100DE00033EF33F47004FCFD7E80D0E0FBD0E0FAFA
:100DF000D0E0F8D0E0CFC618CEC618CDC618CCC605
:100E0000F9221209DC7004181818221209EB700D6F
:100E100074FFF61819F61819F61819F622E7548017
:100E200066F612099E700F1209A870F014F608F603
:100E300008F608F680D11209A8700CF608F60876B4
:100E40008008E6447F80EC1209CA700C1209B56074
:100E5000BFE65480F6E480BB1209B5700519191974
:100E600080A5E869700C763F18768018F618F6E8C9
:100E7000F922E6CDC0E018ECC0E0E633CD33CDD3A7
:100E800013F6E719FCE7191933CC33C3947F400EEE
:100E9000CD9D502408E65480F6E418F6800FF40443
:100EA0003D14501408E6447FF6187680E418F618CE
:100EB000F6D0E0FCD0E0FD22CCD313CCFD18E4C684
:100EC000CBC0E018E4C6CAC0E00808ED08C633E6A7
:100ED00013F618E433C675F003C3CA97CA09CB9753
:100EE000CB199C40047D08802EBD0003020FAB1679
:100EF000B6FF050606081618C3CA33CACB33CB3370
:100F0000CA27CA09CB37CB193CC37D08803E187D60
:100F10000820E75CC633C6CA33CACB33CB33DDF116
:100F2000D5F0EB30E77BCA97CA09CB974ACB199C1F
:100F3000406F4B7025E620E0218066187D08C3CA0B
:100F400097CA09CB97CB199CD3C633C6CA33CACB31
:100F500033CB3350C9DDE7D5F0E1D3E4C636C6085C
:100F6000C636C608C636C608C636C6181818803132
:100F7000C3CA97CA09CB97CB199CB34097C633C64F
:100F8000CA33CACB33CB33DD34D5F02EC6A2E0C68C
:100F900040C8CA27CA09CB37194A70BECB3CB480B7
:100FA000B90808E63308E633601F181818D0E0FACD
:100FB000D0E0FBD0E0FCD0E0FD22187D08CA27CAB3
:100FC00009CB37CB193CD3808013F618E4B67F11D8
:100FD000F618B6FF0EF618C60470D20808768080A0
:100FE000CAF618F618F680C5080808EAC0E0EBC093
:100FF000E086F0E7A4FA180986F0E7A42AFA1809AF
:1010000086F0E7A42AFA180986F0E7A42AFA1986D6
:10101000F0E7A4FBE5F02AFA190886F0E7A42BFB19
:10102000E5F03AFA190886F0E7A42BFBE5F03AFA66
:1010300018180986F0E7A4C5F02BFBE43AFA190862
:10104000E7C5F0C6A426F6E5F03BFBE43AFA1886BD
:10105000F0E7A4F6E5F00826F6E43B08F6E43A08E3
:10106000F6D0E0FBD0E0FA22181818E4C396F60890
:10107000E496F608E496F608E496F6226016080868
:1010800008C6C313C618C613C618C613C618C61397
:10109000C6D5E0EA22E026F608A3E036F608A3E08B
:1010A00036F608A3E036F622E026F008A3E036F094
:1010B00008A3E036F008A3E036F022C3E0C696F6B7
:1010C00008A3E0C696F608A3E0C696F608A3E0C615
:1010D00096F622C3E096F008A3E096F008A3E09607
:1010E000F008A3E096F022E0F608A3E0F608A3E0FB
:1010F000F608A3E0F622E6F008A3E6F008A3E6F07F
:1011000008A3E6F022CAC0E0E6F0A308DAFAD0E0CD
:10111000FA22C3E498F8E499F91211538026C3E443
:101120009AFAE49BFBE920E7E9121153E498F8E40A
:1011300099F922C3E498F8E499F9121153E498F864
:10114000E499F9C3E49AFAE49BFB22EB20E7CFE9A8
:1011500020E7E0B90010BB0008E88AF084F8AAF0A4
:1011600022E4FBC8FA22EB70227B10C833C8C933D3
:10117000C9335007C39AC3DBF280069A50012ADBB9
:10118000EAC833F4C8C933F4C9FA2275F008E4C8D0
:1011900033C8C933C933C99AC99B5004C92AC93B4A
:1011A000D5F0ECFBC833F4C8E4C9FA22600D08C6D8
:1011B000A2E713C618C613C6D5E0F322600C08C612
:1011C000C313C618C613C6D5E0F422700422600DFE
:1011D00018C6C333C608C633C6D5E0F41822254165
:1011E000C0A8C2AF40021542F541D0A822C0D02508
:1011F00041C0A8C2AF50020542F541D0A8D0D022CC
:101200002541F582C0A8C2AF40021542F541D0A8E1
:10121000854283222541F582E43542F58322E47339
:101220002541C582C0E0E54234FFC583C0E0E54109
:10123000C3958224F9C0A8C2AF858342858241D07C
:10124000A8CEF0A3E520F0A37821E608F0A3DEFA0B
:10125000EFF0A3E58124FBF8E608F0A3E608F0A38D
:101260000808E608F0A3E608F0A315811581D0E090
:10127000FED0E0F815811581E8C0E0EEC0E02285DF
:101280004283854182E0A3FEE0A3F5207821E0A31C
:10129000F608DFFAE0A3FFE0A3C0E0E0A3C0E0E0CF
:1012A000A3C0E0E0A3C0E085A8F0C2AF858241857D
:1012B000834285F0A8D083D0822274028000C0E0EF
:1012C000F404121200D0E012110522D083D082C59E
:1012D000F0E493A3C5F0C395F0F5F0E493A3C395B0
:1012E000F04005E5F0048001E475F002A42582F5E4
:1012F00082E5F03583F583E493A3C0E0E493C0E096
:1013000022D083D082CCC0E0E493A3600612132BDA
:101310001470FAE493A3600612134A1470FAD0E032
:10132000FCE493A3C0E0E493C0E022C0E0E493A314
:10133000D39C5010E493A3C39C400AD0E0D0E0D0EB
:10134000E002131EA3A3A3D0E022C0E0E493A36CA9
:101350007009D0E0D0E0D0E002131EA3A3D0E022B9
:10136000C082C083740149F5B37C10800C8A828BE3
:1013700083E0F5B1A3AA82AB83EC1C70F0D083D0DC
:101380008222800100E5B3A2E350F92274F7121221
:10139000208922ECFEEDFF7409121214E0F8A3E09C
:1013A000F988828983EAC4540FF5218015E5B2F0EB
:1013B000A3EB1B70F81213821521EE2410FEEF34FC
:1013C00000FFE5216016EEFAEFFBA9221213607B05
:1013D0000C800100EB1B70FB7B1080D57F0202129A
:1013E0007FC082C08390F876E054F0F0741390F8D8
:1013F00075F074DF90F86FF074D990F870F074F8AD
:1014000090F871F0742590F872F0748090F873F091
:10141000742590F874F0741090F876F074F8F5D59F
:1014200075D46F90F87EE054F0F0741390F87DF06E
:1014300074F890F877F0744A90F878F074DF90F8C8
:1014400079F074D990F87AF0742090F87BF07423D6
:1014500090F87CF0744090F87EF090F886E054F8B4
:101460004408FAF0741290F885F090F883E0541F65
:10147000F074DF90F881F074AF90F882F0E490F8A7
:1014800083F074F890F884F0740F5A444090F88612
:10149000F074F8F5D375D277D083D0822274F61227
:1014A0001220EAFEEBFF8C218D228923120857754A
:1014B000AB2AEF90F87FF0EE90F880F090F883E0A0
:1014C00054E0F0E52390F884F0AA21AB2274097867
:1014D000211211BCE521F5ADEBC313EA13F5AC53B2
:1014E000D1FBD2B875D60412085379017F030212DA
:1014F0007FC082C08390F888E4F0A3F07980FC126A
:10150000153BD083D08222C082C083C2B890F887B6
:10151000E0602690F888E02480F0A3E03400F0E456
:1015200090F887F0C390F889E09480500C7980900F
:10153000F888E0FCA3E012153B80C7FD7A8A7BF8AF
:10154000124259798090F888E0FCA3E0FD7A8A7B0A
:10155000F812149DE990F887F0227A177BFF00DBE0
:10156000FDDAF9D9F52274F11212207C19800F7579
:10157000F00AECA429C0E0EC12163ED0E0F0EC1C1E
:1015800070EDE9F5257526007527007528007C00AB
:1015900090FBC678211210E778257921120FE89088
:1015A000FBCA7825121095852521852622852723BB
:1015B0008528247410782112107C74FF5521F8744A
:1015C0007F5522F97A197B001211538C23E52324CD
:1015D0000AF8E434F9F988828983E0FDEA240AFAFA
:1015E000E434F9FB8A828B83E088828983F0ED8A78
:1015F000828B83F00CECC3941940957F0802127F14
:10160000C082C0837B19EB1B8B82A882600C90DFA9
:1016100006E0FAE81216396A70EC75E104740128E4
:1016200008E43400F97A197B0012114BEA121639DA
:1016300090DF06F0D083D0822212163EE022240AE8
:10164000F582E434F9F5832274E91212208921909D
:10165000FBE6E0C395215003E0F52190FB4C782593
:101660001210E790FC3278291210E77825792912B8
:1016700009FA503275251F75268575277B75284018
:1016800090F95B78291210E790FC36782D1210E75C
:101690007829792D120BEB78257929120E0290FB0F
:1016A0004C78251210F675220075230075240078F9
:1016B000211208B290FB4C78251210E77821792589
:1016C000120A4690FC3A78251210E7782179251203
:1016D0000BEB782112090FA821C3E52294014002E7
:1016E00078FFE8F97F1002127FC3EA9401123111EA
:1016F0004005EAF8EB8006C3E49AF8E49BF9E8FABF
:10170000E9FB2279037C1C7DFC7A097BDF124259BC
:101710002274F8121220E9FEEAFF121824539BFCEF
:10172000E59B53E9EF75911074326E700C90F9FEE1
:10173000E0A2E1500479198002EEF91240A5EF9081
:10174000DF06F074326E700590F9E4800390F9E0E2
:10175000E090DF2E123C4BF090F97BE090DF01F03F
:1017600090F97CE090DF00F0439A010229A7C08243
:10177000C083E9FA90F9E5E0A2E6500479328002EC
:10178000790C1217110218EDC082C08375D683E957
:10179000601C90F9E5E0A2E6401490F9E3E0FA79E4
:1017A0003212171190F9E2E090DF05F08003121772
:1017B000B40218ED90FB03E0F912176E22C082C04C
:1017C0008375D68312182479047AC27BFB124236C1
:1017D000E490DF08F012170312181790F9E5E0A261
:1017E000E6500590FB03800390F9C7E0F9E990FB10
:1017F00003F012176E79067A1E7BFB12423690FABE
:10180000FFE4F0A3F0FA790112323A123203123BEC
:101810005090FB0D0218EC7A837BF9790412136067
:101820001213822275E1041231E974F0F02274F18E
:1018300012122075FD00758FFFE5F275F2FF7A0038
:10184000752101752200EA78211211CBE52145F2BC
:10185000F5F20AEAC3940840E775F4C075FEDB753B
:10186000CB5075CC2475CE2475F12075F5207912F6
:101870007AEA7BFA12423675F300E490DF08F090C2
:10188000F9C7E0F91215661213E11217031217B423
:1018900075210075220075238075243F90F93F78EB
:1018A000251210E778217925120E0290FA1F78216F
:1018B0001210F643CB14E5CBD2B9D2A9439A010258
:1018C0001A16C082C08390FA02E0FA601B90F9DE1B
:1018D000E0FBEAC39B5003EA8001EBFC8CCD1222B3
:1018E0006674D0F0A37407F0D2948001F0D083D056
:1018F000822274F11212208A218B228C238D2412D1
:10190000192078251210E778257921120A46121934
:101910005F78211210E778257921120BEB021A0E5D
:1019200090FB501219272212192B2212192F22E094
:10193000F8A3E0F58388822274F11212208A218BA9
:10194000228C238D2412195F78251210E7782579CF
:1019500021120BC612192078211210E7021A0790E3
:10196000FB501225CB2274F112122089217522001E
:10197000740278211211CB1236CA78211210E7783E
:101980002112089790F93F78251210E778217925E0
:10199000120A4690FB5278251210E7782179251219
:1019A0000A46AA21AB22AC23AD24121938021A161A
:1019B00074F112122012192078211210E77D018A89
:1019C000828B8378251210E778217925120A468DBB
:1019D00025752600740278251211CB90FB50E02566
:1019E00025FCA3E035268C82F58378251210E77854
:1019F000217925120BEB0DEDC3940440C2AA21AB53
:101A000022AC23AD24800F78257921120A46AA251D
:101A1000AB26AC27AD287F0802127FC082C0837935
:101A2000F27C007D5C7A237BF912425990F923E025
:101A300064AA7004A3E064AA700E90FA13E06455DF
:101A40007004A3E06455602990F92374AAF0A3F010
:101A500090FA137455F0A3F01222439003DCE09047
:101A6000F9DEF09003DDE090F9DFF0746490FA02A3
:101A7000F0E490FB160218ECC082C08374FF90F96A
:101A8000C7F090FB03F090F9E5E0C2E4F0D2E2F099
:101A900090F9FEE0C2E4F090F9E5E0541FF0E49024
:101AA000F97FF079207CFC7DFB7A837BF912425927
:101AB00079107C1F7DFC7A2F7BF912425990F97BBB
:101AC00074F0123AED790C7CD07D037A237BF91205
:101AD0004259740190FB16F01217BD0218ED74F113
:101AE00012122090F93F78251210E790FB62121C29
:101AF000FF1208B278257921120E0290FB56782544
:101B00001210F690FB507463F0A374F9F090FB642C
:101B1000121CFF1208B290FB5678251210E77821AC
:101B20007925120A46121CC6E490FB12F090F97F48
:101B3000E0FA602175F0E8A4CAACF075F003A42CBB
:101B4000FCE42CFBE89AE99B50047A0180027A00BD
:101B5000EA90FB12F090FB16E0C3700DE89431E9B7
:101B60009475401E121A788019E89454E9946F50C5
:101B700011121A1B90F9E5E0A2E65003121CE512BF
:101B800017BD90FB50746BF0A374F9F090FB6612D4
:101B90001CFF1208B290FB5678251210E7782179C5
:101BA00025120A46AA21AB22AC23AD241219388A89
:101BB000218B228C238D24782112090FAA21AB229C
:101BC00090FA06E0F5217003021C6574FF65217030
:101BD00003021C6590FB6CE07002A3E0600990FBBF
:101BE0006C122275F0807E75220074037821121128
:101BF000CB90FB6CE521F0A3E522F090FB6EE0605A
:101C00002F90FA05E0F8C3EA981231115014A2940B
:101C100040031218C290FB0BE0121CDDE490FB6E37
:101C200080C2A294503F90FB0AE0603914F08032E9
:101C3000A294503190FA04E0C39AE49BA2D265D0FA
:101C400033502290FA09E0FB90FB0AE0FAEBC39ACA
:101C50005003EB8002E014F0740190FB6EF090FBF7
:101C60000AE0121CF790F982E06052A294504E9064
:101C7000FB50744BF0A374F9F090FB5A121CFF1246
:101C800008B290FB5678251210E778217925120AC0
:101C900046121CC690FBE6E064FFC3600FE8944167
:101CA000E9941F401E74FF121CEE8017E89470E93F
:101CB0009417500F90F982E090FBE680EA74FF9051
:101CC000FBE6F0021A16AA21AB22AC23AD241218AF
:101CD000F21243178A218B22A821A9222290FB0A03
:101CE000F0121CF72290F9FDE090FB03F022F09037
:101CF000FB0AE0121CF722F9121648E9F5CF22E0A0
:101D0000F521A3E0F522752300752400782122C077
:101D100082C08390FB6F1225B59AE99B500874FF2F
:101D2000281874FF39F9E8C39AFAE99BFB0218ED09
:101D300074F712122090FB26E0241CFAA3E0340072
:101D4000FB892174012521F8E43400123D648005EB
:101D5000639004E5908A828B83C3E09401A3E094AE
:101D600000C365D03350E98A828B83E4F0A3804BB3
:101D700074F7121220C29475FEDB7E008E2175224C
:101D800000740A78211211CB122589E8FAE9FB8A3E
:101D9000828B83A3A882A9838A828B83E064FF70ED
:101DA000047A0180027A0012257D6006C3ED940456
:101DB00040D90EEEC3940F40C38001F07F0202129F
:101DC0007FC082C0838A828B831222708A828B8337
:101DD000E070047901800279000218ED74F51212A6
:101DE000207E03EE1E7003021ED9742090FFFFF0C8
:101DF000752100804990FB0EE0600214F07AE17BCF
:101E0000FB121DC1E960061217BD123AE590FBE313
:101E1000C3E0940AA3E09400500312224390FB0114
:101E200012224C90FB01C3E094E9A3E09403400527
:101E3000E490FC2FF00521E521C3941050A5A821C2
:101E400090FB24E028123B3C60EBE4F0E521121308
:101E5000010005018A1E02641E03851E09F51D0B83
:101E60008F1E351E12409D90F9E5E054606420708D
:101E70000A90FB0FE0F91230F080BA90FB14E0609A
:101E8000B4790080F11229AC80AB122A5780A612D7
:101E90003B0D123184C3E89411E912225E5006E82A
:101EA0007001E970097A01790012323A800990FBD9
:101EB00024E0240B1225A490F97D1231847583FA55
:101EC0007582DC1222564003021E35E490FB0AF0B4
:101ED00075CF001225DF021E34742090FFFFF075CD
:101EE0002100E521C333F8E433F990FB2612313B9E
:101EF00012311C400302223288828983E4F0A3F06D
:101F0000E5211212CB020D3222251F321F82200042
:101F1000200D2032223820E52005208A205D21BEB8
:101F2000213222282175C9A875C9581225C0E4029A
:101F3000223190FB0EE0700302223290DF05E0FABE
:101F400090F9E2E06A70047A0180027A00EA90FB7C
:101F500075F090FB17E07003021FF390FB75E070C3
:101F6000121231FE642070047A0180027A00EA9035
:101F7000FB14F090FB07E0600C14F0701090FA1D59
:101F8000E4F0A3800790FB0CE0600214F079007A83
:101F90004A7BF8122A0B90F981E0FA700302223290
:101FA00090F980E0FBEAC394084009EBC394084031
:101FB00003022232EB6008C39A50048B2380028A0A
:101FC0002312317090F9E5E0A2E25010E523C394AA
:101FD00008400302223212227E022220740165236D
:101FE000600302223290FBD7E024FFFAA3E034FF23
:101FF00002222890FB24121923A3A3740102223188
:10200000C293022232740190FB1302223190F9DC58
:10201000E0700E90F9DDE06008D293123B41F08051
:102020000890F9DCE0A2E0929390F9DDE070030201
:1020300022321218C202223290F9E5E054506410A4
:10204000704090FB0DE0FA74FF2AF0EA602390FBE9
:1020500003E090DF06F0121600121CE890FBD71286
:10206000316C90FB26E0241012259CEAF0A3EB8053
:102070000990F9C7121CE890DF06F0123B20E4F04B
:10208000A3F079001230F00222321225D390FB71B6
:1020900012224C90FB71C3E094E8A3E09403500338
:1020A00002223290FBE312227090FB71E4F0A3F065
:1020B00090FB73E004F0C3943C5003022232E4F03E
:1020C00090FB74E004F0600E75F00F84E5F070068C
:1020D000740190FBE7F090FB74E0C3943C50030262
:1020E0002232021F2E1222991231817583FB7582D2
:1020F000D7E0C398F8A3E099F974F628F874FF398B
:10210000F990FB26123143A3A3A3A3A312310B1210
:10211000318AF090FB0FE0600214F090FB10E07049
:10212000030222321402223190F9DEE0FBE5CDC336
:102130009B400302223290FA0DE0FCE5CDFAEC70F0
:10214000057C0180010AEC1C6005EAC39B40F68A0D
:10215000CD12226674D0F0A3740702223190FB26C0
:10216000E0241812317AE8FEE9FF90FADC1231849B
:102170007583F975827D122256503990FB0AE0C0B2
:10218000E090FB0BE0FAD0E0C39A400302223290C9
:10219000FA0AE0FC90FB0AE0FBEC70057C0A800187
:1021A0000BEC1C6005EBC39A40F6EB121CE08E8230
:1021B0008F8380A0E490FB0AF075CF0080F090FB45
:1021C0006F12192312318490FB1C12310B122781DC
:1021D00090FB1C12316C121D0F90FB1C1222AA9056
:1021E000F981E0F523604B12312690F9E5E0A2E297
:1021F000501BE523C39408503912227EFB90FB1C30
:10220000E0FCA3E0FDEAC39CFAEB9D80137401653A
:1022100023701F7583FB7582D7E0C39AFAA3E09BF6
:10222000FB74FF2A1A74FF3BFB88828983EAF0A3C0
:10223000EBF00521E521C394105003021EE27F0458
:1022400002127F121A78E490FB16F022E02401F0CB
:10225000A3E03400F022C3E098A3E0998002940048
:10226000A2D265D0332290FB26E0241E1225A022A4
:10227000122275F022E024FFF0A3E034FF221222A4
:1022800090EA8523F0A4FAACF08523F0EBA42C228D
:1022900090FBD7E0FAA3E0FB2290FBD7E0FAA3E0A3
:1022A000FB90FB26E024121225A0EAF0A3EBF0221B
:1022B000EEC0E0E9FE80057964121D30EE1E70F775
:1022C000D0E0FE22741090FFFFF090DF36E06481D2
:1022D000600312416390FFFEE0645A70030224BD64
:1022E000745AF0D2B97E007F008E218F22740A7852
:1022F000211211CB122589E8FAE9FB8A828B83A38C
:10230000A882A9838A828B83E064FF70047A0180AB
:10231000027A0012257D6009C3ED940440D9121D94
:1023200070EE24010EEF3400FFC3EE940FEF940023
:1023300040B790FBE8E0243012259C74EFF0A374C2
:10234000251231DC243212259C7421F0A37426124C
:1023500031DC243412259C7407F0A374151231DC8F
:1023600024371225A490FBE8E0245B12259C7478A6
:102370001231D9245D12259C74281231D9242012DF
:10238000317A90FB2412310B90FBE812318490FBE0
:1023900026E8F0A3E91231DC243812317A90FB6F81
:1023A00012310B741855BEC313131390FB09F07947
:1023B000F07A237BF9124236121A1B79047C247DB1
:1023C000447AE17BFB122908500590F9FD800390C7
:1023D000F9C7E0FAEA90FB03F012407A90FB09E0BB
:1023E0001212CB00035E241F241F24EF231F24900E
:1023F000F9DCE06004D2938002C29390F9DDE060E2
:1024000004D2948002C29490F9DEE0F5CD90F9DF19
:10241000E0F990FB0AF090FB0BF0121CF8803F9063
:10242000FA02E0FA60048ACD800690F9DEE0F5CD8C
:10243000C293C29490F9DCE0A2E09293E490FB0A8C
:10244000F075CF0090F9DFE090FB0B1230F7240C11
:1024500012259C7470F0A37417F01225DFF07990A8
:102460007A247BFA12423612182E1225D312319397
:102470001225C0E4F0122299121817123B1353E4EC
:10248000FCE5E475E30075E20075DB0275DAED4307
:10249000E406E5E475E544790A1222B079047C2467
:1024A0007D447AE17BFB12428EE960031241639026
:1024B000F9E5E0C2E7F0E490FBD6F0C2911217BD57
:1024C000800FEA7001EB70098882898374021231EF
:1024D0006390DF36E06481600312416375C90812BE
:1024E0001DDC90FBD7C3E09491A3E09406500A90C2
:1024F000FBD7E07002A3E0700A90FBD77490F0A3C2
:102500007406F090FB26E024121231987583FB7557
:1025100082D7C3E09AA3E09B50031225AB8882893F
:1025200083E07002A3E070031225AB90FBE1C3E0EF
:102530009409A3E09400500A90FBE1E07002A3E04C
:102540007003123AE590FBE3E0700312416390FBE5
:10255000261225B59479E912225E5006E87001E949
:10256000700312315790FB26E02416123198C3EA0B
:10257000940312311150030224C20224C8EAFBEC76
:1025800024010CED3400FDEB222400F87408352200
:10259000F9741090FFFFF07C007D00221225A0222C
:1025A0001231F3221225A07401F0221222908882A7
:1025B00089830222AA121927E0F8A3E0F9C3E822CE
:1025C0001225C8747DF0A32290FB2612192BA3A319
:1025D000A3A32290FB26E024161225A002316190CD
:1025E000FB26E024181225A074D0F0A3740722C0A3
:1025F00082C083E490FB06123B3504123B35C39442
:1026000004500B90FB26121923A3A3123AE890FB67
:1026100006E024EAF582E434FBF583E0F5B602181F
:10262000ED74F5121220E5BBF522E5BAF52190FB19
:1026300006E0FC74012CF0740278211211AC90FCBD
:1026400030E02521FAA3E03522FBECC333F8E43374
:10265000F9E824EAF582E934FAF583E02AF0A3E008
:102660003BF090FB06E0C394095010E024EAF582A9
:10267000E434FBF583E0F5B602273590FAFCE0047C
:10268000F0C39408500302273090FAF0E0FEA3E074
:10269000FF7CEA7DFA7A5A7BFB90FB05E0C333F8B6
:1026A000E433F9E82424F8E934FAF97523098C8233
:1026B0008D83E0F521A3E0F52288828983E521F06E
:1026C000A3E522F0E521C39EF521E5229FF5228AAC
:1026D000828B83E521F0A3E522F0E82410F8E934A9
:1026E00000F9EA24020A0AEB3400FBEC24020C0C89
:1026F000ED3400FD1523E52370B490FB24E0240B9A
:10270000F8A3E03400F9888289837401F079127AA1
:10271000EA7BFA124236E490FAFCF090FB05E00402
:10272000F06408700B740190FB11F0E490FB05F06D
:10273000E490FB06F002223E74F71212207A937B9B
:10274000F9790612181D75214C7522F8782112129C
:10275000BA7C007DF87A20790012138C7402121171
:10276000ED742290F84AF090F9E2E090F84BF074A2
:102770000190FB17021DBB79067C297DF912425995
:102780002274F112122074FC1211DE90FB07E0603B
:10279000061229650228F390FB11E070030228F667
:1027A00090FA1578211210E790FA1978251210E79F
:1027B00078217925120BEB8541828542837821129D
:1027C00010F67E327F007A00790012323A90F9FEDC
:1027D000E0A2E7790450067C187DFB800A854182DF
:1027E000854283AC82AD837A007BF812425990FB1C
:1027F00003E090F804F074185590C333C0E090F9EA
:1028000025E0540FFAD0E04A333354FC12295979A9
:10281000107CD87DFA7A0C7BF8122908500A90DFD8
:10282000061229127434800CA2E5500D90F9E312BF
:102830002912743328FEE439FF90F9E5E0A2E7504D
:1028400008EE2404FEEF3400FF90F9FEE0A2E15010
:1028500008EE2408FEEF3400FF90FB10E06008EE65
:102860002410FEEF3400FF90F81AEEF0A3EFF09082
:10287000FAFF12318490F8181228FE7002A3E0606B
:102880000790FA23E0FA80027A3FEA90F81CF09071
:10289000FB2AE07002A3E0700B90FB77123184906A
:1028A000FB2A800990FB2A12318490FB771228FEC4
:1028B00090F81DF0A2945024E5CD90F81EF090FB06
:1028C0000AE090F81FF090FBE6E0C0E090F81FE00F
:1028D000FAD0E0C39A501590FBE6800B90F9DEE049
:1028E00090F81EF090FB0BE090F81FF090FB2AE4AC
:1028F000F0A3F012273874041211ED021A16E8F052
:10290000A3E9F090FB2AE02212425990F9E5E0A2F7
:10291000E622E075F064A4F8A9F02274F8121220FF
:102920008921EAFEEBFF7904EEFCEFFD7A007BF8EB
:10293000124259E52190F804F090F925E033335420
:10294000FC44031229597914EE2404FCEF3400FDF1
:102950007A0C7BF8124259804E90F805F07A067B8B
:10296000F81227772274F812122090FB07E0F8740F
:10297000FF281874FF3400F990FBE5E0FA7B0012A1
:10298000114BE8FC90F9FF7465F0A37429F0EC7525
:10299000F018A4F8A9F090FA1DE028FAA3E039FB9A
:1029A00074ED2CF912291B7F0102127FC082C083B3
:1029B00074FF90F800F090F801F090F802F090F8B1
:1029C00003F079067C187DFB7A047BF81242597A71
:1029D0000A7BF8122777122738741290F84A0218E7
:1029E000EC74F81212207E7F90FB15E0701B53BE32
:1029F000FB8005790212155AE5BEA2E64004EE1EE0
:102A000070F10075C68943BE04809CC082C0838A71
:102A1000828B83E0FC74226C600574126C703590BC
:102A2000FB12E0702F75E10490FBE8E0243AFCA370
:102A3000E03400FD8C828D8374F0F0EB90F877F039
:102A4000EA90F878F01217881231E27410F075D617
:102A50000275E1030218ED74F112122090DF38E0E4
:102A6000F52190DF08E0F52212409D90FAFDE4F098
:102A7000A3F090F825E090FB80F02427F582E43461
:102A8000F8F583E0A2E7500D90FB80E06422600B34
:102A9000E0641260061231930230ED90F9E5E054E3
:102AA00060FA90F826E0FB74206A701B90F9E2E06F
:102AB000FC6B701390DF05E06C700C79007A257B5D
:102AC000F8122A0B0230ED90F9E1E06B600302305E
:102AD000D690DF3CE0A2E75004D2F08002C2F0A220
:102AE000F0E492E0F52374206A700979017A257B7D
:102AF000F8122A0B7A937BF9790612181D752500B6
:102B00007526F878251212BA7C277DF890FB80E0B4
:102B100024FEFA790212138C74021211ED90F8005F
:102B2000E090FB7FF090F801E090FB76F079067C76
:102B3000027DF87A797BFB124259E0541FC394114D
:102B400040030230D690FB7DC3E094E8A3E09403F9
:102B500040030230D690FB7978251210E77583FB8D
:102B600075821E7825120887402879047C1E7DFB1B
:102B70007A797BFB12428EE960030230D690FB7DAE
:102B800012318490FB22E0687003A3E069700302B5
:102B900030D690FB7978251210E77583FB75821E7D
:102BA0007825120887402479047C1E7DFB7A797B86
:102BB000FB12428EE9701890FB7D1231847583FB05
:102BC000758222C3E098A3E09950047A0180027ACA
:102BD000008A2490FBE8E0245F123198121D0F8ACE
:102BE000258B26AE25AF2690FB80E02426F582E4D7
:102BF00034F8F583E0F525C394805013E525C3131D
:102C0000FA90FBC0123184EAC398F8E4998017E483
:102C10002525F874FF13E813F890FBC012316CE817
:102C2000C39AF8747F9BF990FB2A123AFD4073E532
:102C300021C39401A2D265D033E521400FC3940291
:102C4000A2D265D033401A7521018015C312225ECD
:102C5000500FE521C394FFA2D265D03350037521F4
:102C6000FFE522F83395E0F9E521FA3395E0FBEA38
:102C700028F521EB39F522AA21FB1216E9C3EA94C3
:102C8000611231114016740278211211CBAA21E58C
:102C900022FB3395E0FCFD1241728006E52190DFB6
:102CA00008F0E52370030230D690FB10E0600814B2
:102CB000F090FAFF12227090FBE7E06005E4F0125A
:102CC0003157639002E590740790FB0EF079047C15
:102CD000247D447AE17BFB124259E524600D79069C
:102CE0007C797DFB7A1E7BFB12425990FB76E0A239
:102CF000E750047A0180027A0490FBCE12314F90A3
:102D0000FB76E0F8741F58F8EA28F8E43400F9E894
:102D10008521F0A4C8AAF08522F0A42AFA8521F022
:102D2000E9A42AF990FBD412313B90FBD7123AFD6B
:102D300050047A0080027A04123126E8FCE9FD9002
:102D4000FB7FE0701DE490FB17F0740AC39AF8E46F
:102D50001230FD79067C797DFB7A187BFB12425993
:102D6000807590F981E0F521F52390FB7FE0F8E58F
:102D700023C398F8E49400F990F9E5E0A2E2E52194
:102D800050376053C3E89408E912225E504990FB23
:102D9000D7E0F523A3E0F524E88523F0A4C885F067
:102DA000218524F0A42521F5218523F0E9A42521FE
:102DB000F9740A28F8E4398015601C740168700100
:102DC000E9701490FBD7E0240AF8A3E03400F9E896
:102DD000C39AF8E91230FD740890FB0F1230F72403
:102DE0000812317A90FBCE12316C7583FB7582D755
:102DF000E0C39AFAA3E09BFB74FA2AFA74FF123636
:102E0000D790FB7FE090FB04123B01403D90FB26F6
:102E1000E02410FAA3E03400FB90FB76E0A2E65039
:102E20001D88828983E024FAF8A3E034FFF9E8C31F
:102E30009EF8E99F123D64740890FB0D800BE490AE
:102E4000FB0DF08A828B83F0A3F090FBD7E0240186
:102E5000FAA3E034001222A090F9E5E0A2E690FB8C
:102E60002A501DC3E094A2123115400F90FBDD746F
:102E70000312316390FBDB741E801B12318A8019B0
:102E8000C3E0949B12311540F290FBD974B4123117
:102E90006390FBDF7404F0A3E4F090FB7FE0FC742C
:102EA000FF6C600C90F980E06006F5F0EC84ACF00B
:102EB00090F925E0FD123181E88DF0A4F8AAF08D9B
:102EC000F0E9A42AF990FBD212313BE8C39EFAE95B
:102ED0009FFB12317090F926E0F52374FF6C6010AF
:102EE000E5236C700B88828983EAF0A3EB023048FB
:102EF0008523258C21E525C39521F521E49400F552
:102F00002290FB76E0541FF52490F981E0F525909E
:102F1000F9E5E0A2E2E525504A7003022F9F74FF15
:102F20006523607BECC395234003023049C3E52150
:102F30009408E52212225E4003023049EDC3952435
:102F4000400302304990FBD7123130CCAEF08522DD
:102F5000F0A42EFE8521F0EDA42EFDEA2CFAEB3D27
:102F6000FB8082603A74FF65236034ECC395234094
:102F700003023049740165217002E52260030230CA
:102F800049EDC39524400302304990FBD7E02AFA6B
:102F9000A3E03BFB88828983EAF0A3EB023048740C
:102FA000FF6523600302304974FF6D6003023049FE
:102FB00090FB76E0A2E7500302304990FB26E02424
:102FC0001AFAA3E03400FB8A828B83E4F0A3F0902A
:102FD000FB08E0600314807053B4F3E5B443B40419
:102FE000E5BDC0E090FA08E0F5F0D0E08490FA0783
:102FF000AAF0E02A90FB08F090FB76E0FA741F5AE2
:10300000F52190FBCE123130FCAAF08521F0EDA421
:103010002AFDE5BC75F0058485F02190FBD01231C6
:103020006CEAA4FA85F0238521F0EBA42523FBEAC2
:103030002CFAEB3DFB90FBD2E02AFAA3E01236D744
:1030400090FB241231437401F088828983E070027E
:10305000A3E060327A0A90FB7FE070027AFA90FB7C
:1030600080E06412700474162AFA90F9E5E0A2E692
:10307000500474F82AFAEA3395E0FB88828983E0E9
:103080002AF0A3E03BF090F9E5E05460642070057D
:103090007905121D3090FB80E024F6F9123D6C900A
:1030A000F9E5E054486408701D90FBD9C3E094C86A
:1030B000A3E09400501090FB80E02425F582E434D6
:1030C000F8F583123B0512317012311C50088882CA
:1030D0008983E4F0A3F0790012178890F9E5E054B1
:1030E000606420700890FB0FE0F91230F0021A16AD
:1030F00012178812319F22F090FB26E0229400F9EB
:10310000E8C39EF8E99FF98C828D83E8F0A3E9F08B
:1031100022EB02225EA3E094FF0222608882898370
:10312000C3A3E002225E90FB26E0241A12317A2229
:10313000E0FCA3E0FDEC8521F0A422E028F8A3E068
:1031400039F922E0FAA3E0F5838A82A3A3A322E05F
:10315000F521A3E0F5222290FB261219277478802E
:10316000027402F0A3E4F0228E828F831222932253
:1031700090FB26E0240612317A22F8A3E03400F90D
:103180002290FBCEE0F8A3E0F92290FB24123B4B07
:10319000740122123B2480C91225A012229322C05E
:1031A00082C0831231FE64107005123203802775CD
:1031B000E10474F01231DC245F123B5690F825F0E4
:1031C00090F826F01231E27420F0742290DF02F0C1
:1031D00075D60175E1020218EDF0A3E4F090FBE86A
:1031E000E0221229E11231E92290FBE8E0243A12B0
:1031F00031F322F8A3E03400F98882898322123166
:10320000E9E022123B24740102316374F1121220AE
:1032100090FB8578211210E78A828B837825121023
:10322000E778217925120A4690FC3278251210E7BA
:1032300078217925120BEB0219FD74E5121220E9B1
:10324000FFEAFE90DF08E0F83395E0F990FB2812E2
:10325000310B7AB47BFA7C247DFAEE604290FB0558
:10326000E0F818740758C3332424FCE434FAFD75DD
:1032700025098C828D83123184882189227523004F
:103280007524008A828B8378211210F61236C1ECE5
:103290002410FCED3400FD1525E525605C80D37914
:1032A0000975250890FC3E78211210E790FB89787B
:1032B000211210F6801E8C828D8312314F752300EF
:1032C00075240090FB8978211210A8EC24020C0CC4
:1032D000ED3400FD85252174FF2521F525E52170BC
:1032E000D590FB8978211210E78A828B837821128E
:1032F00010F61236C119E970A87C0979007AB47BFE
:10330000FA1241F090FAC478211210E790FC3E784E
:103310002112085D70030236BC7525007526007504
:10332000278075283F782112089778257921120E79
:103330000290FB5278251210F690FB50746BF0A3AC
:1033400074F9F079061219668A218B228C238D2458
:1033500090FB8578211210F690FB8578211210E7FA
:1033600090FC4278251210E778217925120A4678D8
:103370002112090F90FAE0E521F0A3E522F090FB7D
:1033800050742FF0A374F9F07A857BFB1219B08A80
:10339000218B228C238D2490FB9578211210F6909E
:1033A000FB9578211210E7782112090F90FB8D7898
:1033B000211210F690FBC278211210E790FB28E052
:1033C000F523A3E0F524740278231211CBE523251D
:1033D00021FAE5243522FB90FB8D78211210E7EAD3
:1033E000C39521F521EB9522F52274027821121163
:1033F000ACE52190FA23F0EF60221231FE64F07008
:103400001B90FB8D78211210E790FBC278211210DF
:10341000BBAA21AB22AC23AD2412417290FB85786C
:10342000251210E790F94778211210E778257921C5
:10343000120BC690F93F78291210E7752D00752EF2
:1034400000752F8075303F90F94378311210E78571
:103450002521852622852723852824782179251270
:103460000A4678317921120A46782D7931120BC635
:103470007829792D120A4690FB8178291210F6904E
:10348000FB8578211210E790FC4678251210E7782A
:10349000217925120BEB90FB8578211210F690FB19
:1034A0005278211210E790FB8178251210E77821DD
:1034B0007925120A4690FB5278211210F6752500E4
:1034C000852582858223752400E52324F3F582E493
:1034D00034FBF583E0FF74FF6F70030235897402DB
:1034E00078231211CB85232185242290FB52782941
:1034F0001210E71236CA782D1210E7782D120897AD
:103500007829792D120A4690FB9178291210F674C9
:10351000086525600674026525702690FB91782960
:103520001210E77AD47BF912320B8A2D8B2E8C2F56
:103530008D307829792D120A4690FB917829121046
:10354000F68F23752400740378231211CBE523240E
:103550004BF8E52434F9F990FB5012310B90FB91B4
:1035600078291210E7AA29AB2AAC2BAD2C1218F23D
:103570008A298B2A8C2B8D2CE5212499F582E52232
:1035800034FBF58378291210F60525E525C3940947
:1035900050030234C090FB9978211210E7AA21ABA6
:1035A00022AC23AD2412431790FAD81222AA90FB22
:1035B0009D78211210E7AA21AB22AC23AD2412433F
:1035C0001790FADA1222AA90FBAD78211210E7AA1E
:1035D00021AB22AC23AD2412431790FADE1222AAAB
:1035E00090FBB978211210E7AA21AB22AC23AD24BD
:1035F0001242CE90FAE21222AA90FBA17821121078
:10360000E7AA21AB22AC23AD241242CE90FADC1201
:1036100022AA90FAC078211210E790FAE4E521F08E
:10362000A3E522F0EE70030236BC121ADE90FBBD59
:10363000E0C333F090FADCC3E09499A3E0943AA29B
:10364000D265D033404690FA1978211210E790FBEA
:10365000A178251210E790FB9978291210E77825B8
:103660007929120A4690FC4A78291210E7782579C0
:1036700029120A4678217925120BEB90FA19782144
:103680001210F690FBBDE0D2E0F0803090FBBDE080
:1036900064FE702890FA1578211210E790FA1978D4
:1036A000251210E778217925120BEB90FA15782175
:1036B0001210F679047A197BFA1242367F1402123C
:1036C0007FEA2404FAEB3400FB22E52124B4F582DE
:1036D000E52234FAF583223BFBEAC39EFAEB9FFB1B
:1036E0000225AE74F61212208A237C237DF989828A
:1036F000858221752200E92423FEE434F9FFE912D2
:1037000013010806093D3A101515382E30A8393D29
:1037100046723A494E723A4F518E3A55569C3A5734
:1037200058CE3A2201C83A048C3705D5370B5D389C
:103730000C57380D313A0E5E3A160438170A381A0B
:1037400023381C63381DB53A1F893820A7382183D8
:103750003823DF3825EA3828F6382909392A2C3960
:103760002B02392C84392D953931B33933CB393586
:10377000D53936E93938F53939A3383A1E3A3B227A
:103780003952783A5CD43A64BE3AE03AEAC39402D9
:103790004003023AE0EA6038D293123B20A3A3E44C
:1037A000F0A3F090FB13E0701290FB26E0241412BB
:1037B0003B3C7002A3E07003023AE01218C2E490AE
:1037C000FB131230F7241412259CE4F0A3023ADF15
:1037D000C293023AE0EAC394024003023AE0EA608C
:1037E00011741855907010D2931218C2123B4102F6
:1037F0003ADFC294023AE0A2945003023AE012186F
:10380000C2023AE08523CD023AE0EA90FB0BF012C7
:103810001CDD023AE0EE24F6F582EF34FFF583EA90
:10382000023ADFEA90F9C7F0F912156690F9E5E07F
:10383000A2E6402390F9C7123B05123B5090FBD9FA
:10384000742CF0A37401F090FBDF742CF0A37401CE
:10385000F075E1041217BD123B13023AE01214F1A5
:10386000023AE0A293E492E090F9DCF0A294E492B0
:10387000E090F9DDF0E5CD90F9DEF090FB0BE09003
:10388000F9DFF0123B5E023AE0123B1374FF90F94D
:1038900026F090F9251230F7241A123B56123B0DF0
:1038A0000237CA7C007D5C90FB07E06003023AE0CF
:1038B00090FA1DE07002A3E07018ECF8EDF990FAB0
:1038C0001D12310B75F00A90FBE5E0A490FB070296
:1038D0003ADF90FBE5E0C0E0EAF5F0D0E080ECEA0A
:1038E00090F9E0F090DF2E023ADF90F9E5EAA2E0ED
:1038F000E092E1023ADF90F9E5EAA2E0E092E40228
:103900003ADFEA90F9E3023ADF90F9E5EAA2E0E073
:1039100092E5F0EA6003023AE090FB031217B70267
:103920003AE090F9FEEAA2E0E092E1F0742A6970D0
:103930000A90F9E5EAA2E0E092E6F090F9E5E0A26B
:10394000E690FBDB5023741E12316390FBD9F0A389
:10395000F090FBDD7403123163121CE5F912176E4F
:1039600090FB26E024100237C7E4F0A3F090F9EBB7
:1039700012318490FBD912310B90FBDF7404F0A359
:10398000E4023ADFEA90F9E4123B014003023AE034
:1039900090F9C78087EA90FBD6F0A2E07583F975AD
:1039A00082E5E092E7023ADFEE2495F582EF3400FB
:1039B00002381DE490F9C7F074FF90F926F090F9F1
:1039C00025F090F927123AED123B5E90FB26121972
:1039D00023747880A9EA90F9FD123B014003023A72
:1039E000E0EA90FB03F002391990F9FEEAA2E0E068
:1039F00092E0023ADF79107C2C7DFB7A837BF9120E
:103A0000425979107C3C7DFB7A937BF912425979BB
:103A1000207A2C7BFB124236121817023AE0EA6039
:103A20000CC394205007EA90FBE5023ADF7404804F
:103A3000F690F9FEEAA2E0E092E3023ADFE975F0DF
:103A400005A4F521E5F0F522E5212485FAE52234E7
:103A5000F9FB8A828B83E523F0A3AA82AB83740EE1
:103A60006970047AB77BF979047C797DFB1242593D
:103A7000806EEE24A10239ABEA700774FF90FBE67A
:103A8000800990FBE6E064FF6004EA121CEEEE247D
:103A90000DF582EF3400F583E523804379047C1E25
:103AA0007DFB740278211211CBE5212478FAE522FE
:103AB00034F8FB80B890F9FEEAA2E00239A2EA905D
:103AC000FC4EF01217BD801890F9E5023A34EE244E
:103AD000410239AB740165237006740190FB15F047
:103AE0007F0302127F90FBE17408023163F0A3F0C0
:103AF000740290F9E1F0740190F9E2F022E8F0A389
:103B0000E9F002290BE090DF06F0021CE91225C85B
:103B1000A3A32290F92DE0F5BC90F92EE0F5BC228C
:103B2000123B242290FB26123B2B2212192FA3A317
:103B3000A3A30225CEF090FBE8E024361225A0E0F6
:103B40002290FB26123B4BA30225E8123B2BA3221B
:103B500090FB26E024101225A0E4F0A3F022C082FE
:103B6000C08312409D90FB10E070047414802EC23C
:103B7000AF75AD2E75AB2175AE010075AD00D2AF3E
:103B80007932121D3079F27C007D5C7A237BF91248
:103B9000149D790A121D3012320390FB100218ECAA
:103BA00074F8121220EAFEEBFFFAE9121301010485
:103BB0000C123C0701CB3B02D03B03DD3B0DEB3B42
:103BC0000E033C10253C11403C483C90F927807383
:103BD000EE540F90F925F0EA90F926806AEE90F9FC
:103BE000E1F0EA90F9E2123C4B805C7918121D304A
:103BF000743F6E700374086F604E8E828F83121252
:103C00001E8045EE90DF01F0EA90DF00F090F97B36
:103C10008031E9C333F8E433F9E824E3F582E93489
:103C2000F9F583801E90FA1DE07002A3E07019C3BD
:103C3000EF94044013C3EF9408500D90FA1D8003D5
:103C400090F97DEEF0A3EFF00229A7F090F9E1E002
:103C500090DF052274ED1212208923EAFEEBFF7536
:103C600021007522007524008925752600740278CC
:103C7000251211CBE5252423FAE52634F9FB8E82A3
:103C80008F8378251210E7E9121301040104A23C86
:103C90000506CB3C0A15D53C191A393D01181E3DC5
:103CA000433DEA2408F521EB3400F5227404652332
:103CB0006003023D43782512090F74142525F8E4AA
:103CC0003526F990F9E912310B8078EA249DF52127
:103CD000EB3400806C740E6523700C79047A4C7B95
:103CE000FB12423675240174F62523F523C313F520
:103CF00021740378211211CBE523A2E0E492E0F5D0
:103D000025752600740278251211CBE525244BF881
:103D1000E434F9F9E52128F521E5223980237529D4
:103D200000752A00752B80752C3F78297925120E95
:103D30000290FA1F78291210F6EA24BCF521EB3420
:103D4000FFF522E5217002E522600D7904EEFCEF1B
:103D5000FDAA21AB22124259E5246003121CEF7F19
:103D60000C02127FF98A828B8302310B74F31212D8
:103D70002089217E087FF8752201752300802DE0BF
:103D8000F525A30EAF837906EEFCEFFD7A297BF9CA
:103D900012428EE9700E740F552490F925F0E52536
:103DA00090F926F0EE2406FEEF3400FF8E828F831A
:103DB000E0FA7003023FD4AB2174FF2BF521EB70C6
:103DC00003023FD48A24A3AE82AF8374F05524F556
:103DD0002574F0652560A890FBD6E064027003129C
:103DE000407A8E828F8312318490FBBE12310BEEAB
:103DF00024020E0EEF3400FFEE2402EF3400F974BB
:103E0000035524F5261212CB0003803E143E193EC2
:103E1000353E5D3E752201806712316890F927E0DA
:103E20006A7003A3E06B70047A0180027A008A2230
:103E30000E0EE9804A8E828F83E0FA90F926E06ABE
:103E400070128E828F83A3E0FA90F925E06A7004E5
:103E50007A0180027A008A2285222380D37906EEB5
:103E6000FCEFFD7A297BF912428EE970047A018019
:103E7000027A008A22852223EE2406FEEF3400FF18
:103E800090FBBEE07002A3E0603590FAFFC3E094BF
:103E900001A3E094FF4017C390FBBFE09401500ED4
:103EA00090FBBE12318490FAFF12310B8011E52293
:103EB000600912408850047A0180027A008A228EBA
:103EC000828F83A3A882A983E5251213010006101F
:103ED000053F20853F50E33E70943F80943F90D94A
:103EE0003F5A40E522601374036526700D7906EE93
:103EF000FCEFFD7A297BF9124259EE2406FEEF34DD
:103F000000FF02405A90FBD6E0FA90F9E5E0A2E704
:103F1000E492E06A601090FBD6E0A2E07583F97548
:103F200082E5E092E7F08E828F83E0F525E8FEE9F6
:103F3000FF740C5524121301000300453F04573F42
:103F400008713F5A40E5226009EEFAEFFBA92512FD
:103F50003C54EE240480A6E522600B8E828F83E021
:103F6000FAA9251236E38E828F83A30EAF83024017
:103F70005AE5226008123168A925123BA0EE2402FE
:103F80000E0E023EFEE522700302405A7918121D01
:103F900030124163E523603C7AE07B0312181B7A00
:103FA000F07B03790612181D748065257008752151
:103FB0003C7522FB800675212C7522FB782112129C
:103FC000BAEEFCEFFD7A10790212138C7402121112
:103FD000ED1218177F0602127FE523607D8E828F17
:103FE00083E0F524E8FEE9FF8E828F83E0A30EAF25
:103FF0008390F9FDF090F9C7F08E828F83E090F9FD
:10400000E112406B90F9E212406B90F92612407079
:1040100012318490F92712310B740F552490F92531
:10402000F090F9E5E524A2E4E092E2F090F9FEE5F3
:1040300024A2E5E092E4F0E524A2E6E092E1F07942
:10404000047C1E7DFB7AB77BF9124259123B5E90CD
:10405000F9C7E0F91215661217B71240884003023B
:104060003DAC90FAFF12310B023DAC124070E022E1
:10407000F08E828F83A30EAF832290F9E5E0A2E752
:10408000E492E090FBD6F02290FBBEE0F8A3E0F9CA
:104090007583FA7582FFC3E098A3E0992243C64076
:1040A0000043BE042274F8121220E9FE79147C54F5
:1040B0007DFC7A0C7BDF12425990FBCE12415C9062
:1040C000FBD0743012415E90FBD2743C12415E9082
:1040D000FBD412415C90FBC0744A12415E740A909A
:1040E000DF07F0EEC3940D404B79067C4E7DFC7AE1
:1040F0000C7BDF1242597410F090FBC074481241DF
:104100005E79037C6B7DFC7A237BDF124259790850
:104110007C6E7DFC7A157BDF12425974196E70211A
:10412000740A90DF07F074A990DF1CF0741D90DF13
:104130000CF0800D79037C687DFC7A237BDF1242D2
:104140005979037A2F7BDF12423679037C767DFC26
:104150007A027BDF1242597F0102127F7450F0A372
:10416000E4F022C082C08375C90B748090FFFFF019
:1041700080F574F512122074FC1211DE8A218B2254
:104180008C238D24C2AF90DF0BE085418285428372
:10419000F090DF0AE0C0E07401121214D0E0F09059
:1041A000DF09E0C0E07402121214D0E0F085418211
:1041B00085428378211210A8854182854283E09050
:1041C000DF0BF07401121214E090DF0AF074021297
:1041D0001214E090DF09F090FBC278211210A8E4DD
:1041E00090DF08F0D2AF74041211ED7F0402127F49
:1041F00074F31212208035740369602F74096960AA
:104200002AEA240CF582EB3400F58378211210E7BA
:104210008925752600740278251211CBEA2525F52B
:1042200082EB3526F58378211210D309E9C39C402F
:10423000C67F0602127FC082C083C3EA9401EB945A
:10424000804011800BE48A828B83F0A3AA82AB8327
:10425000E91970F1D083D0822274F8121220C3EAD7
:104260009401EB94804022801C8C828D83E08A82B2
:104270008B83F08C828D83A3AC82AD838A828B8307
:10428000A3AA82AB83E91970E07F0102127F74F662
:10429000121220E91960308A218B22852182852221
:1042A00083A3AA82AB83ECFEEDFF8E828F83A3AC47
:1042B00082AD83852182852283E0F88E828F83E020
:1042C0006860D07901800279007F0302127F74F167
:1042D0001212208A218B228C238D24782112090F1F
:1042E00090FC7978251210E7782579211208724020
:1042F000067AFF7B7F801B90FC7D78251210E77883
:1043000025792112087250067A017B808004AA2147
:10431000AB227F0802127F74F11212208A218B22B5
:104320008C238D24782112090F90FC81782512109E
:10433000E77825792112087240067AFF7BFF801BFF
:1043400090FC3E78251210E77825792112087250EA
:10435000067A007B008004AA21AB2280B56D4EC690
:104360004139300000500030003C005000029006FF
:104370007800DC0014001E000800500004FF01005B
:10438000F5B1B2B3B4B7B0B5BEB6000102FFFF03DA
:10439000FFFF05414E4453006C61724175677573B0
:1043A000740007417567757374000741756775730D
:1043B000740007646AAA000000000000000000000A
:1043C0000000000048C30132000000803F00008070
:1043D000C00000003F000000000000C8420000C80C
:1043E000C131E33E300E557343590079070123591B
:1043F00045070014166C4340915610A90A0011811C
:1044000035098831091D1CC740B2B610EA2285451E
:10441000008000000180FFFF00000100B4001E00CA
:104420000300040008005000FFFFFFFFFFFFFFFF35
:10443000FFFFFFFFFFFFFFFFFFFFFFFFFFFFFFFF8C
:10444000FFFFFFFFFFFFFFFFFFFFFFFFFFFFFFFF7C
:10445000FFFFFFFFFFFFFFFFFFFFFFFFFFFFFFFF6C
:10446000FFFFFFFFFFFFFFFFFFFFFFFFFFFFFFFF5C
:105BF000020000FFFFFFFFFFFFFFFFFFFFFF04D8D2
:105C0000AAAA00000000506BC000001200000000B3
:105C10000000000000000000000048C300001C4518
:105C200095BFD634000092420000204100000000E1
:105C300000002041000000000000204100000000A2
:105C40000000A0400000000052B8DE3E00401C44AE
:105C50000000204100000000F0F018FC0001016489
:105C6000414E4453006C617241756775737400074F
:105C70004175677573740007417567757374000724
:105C80000000000000000000000000000000000014
:105C900000000000FFFFFFFFFFFFFFFFFFFFFFFF10
:105CA000FFFFFFFF034592075345920753459207B5
:105CB00053ACC5A73717B751380101D282FF414015
:105CC00003FF0F01A49A38FF28001E000300040000
:105CD000080050003F08F100F100038B652919C846
:105CE0006E645A0A070B3C0A00000A00010000001B
:105CF0005555FFFFFFFFFFFFFFFFFFFFFFFFFFFF08
:105D0000FFFFFFFFFFFFFFFFFFFFFFFFFFFFFFFFA3
:105D1000FFFFFFFFFFFFFFFFFFFFFFFFFFFFFFFF93
:105D2000FFFFFFFFFFFFFFFFFFFFFFFFFFFFFFFF83
:105D3000FFFFFFFFFFFFFFFFFFFFFFFFFFFFFFFF73
:10600000E490F80078EB79028002F0A3D8FCD9FA8A
:1060100090F9EAAA82AB83907F7D784A7901801556
:10602000E493A3AC82AD838A828B83F0A3AA82AB74
:10603000838C828D83D8E9D9E7126C5C0080FA7575
:10604000D0007581507541007542F802600043AE82
:106050000222E5AE20E7FB22C3E09608A3E0960803
:10606000A3E09608A3E09622080808EAC0E0EBC087
:10607000E086F0E7A4FA180986F0E7A42AFA1809DE
:1060800086F0E7A42AFA180986F0E7A42AFA198606
:10609000F0E7A4FBE5F02AFA190886F0E7A42BFB49
:1060A000E5F03AFA190886F0E7A42BFBE5F03AFA96
:1060B00018180986F0E7A4C5F02BFBE43AFA190892
:1060C000E7C5F0C6A426F6E5F03BFBE43AFA1886ED
:1060D000F0E7A4F6E5F00826F6E43B08F6E43A0813
:1060E000F6D0E0FBD0E0FA226016080808C6C31319
:1060F000C618C613C618C613C618C613C6D5E0EA16
:1061000022E026F608A3E036F608A3E036F608A358
:10611000E036F622E026F008A3E036F008A3E036E9
:10612000F008A3E036F022C3E0C696F608A3E0C666
:1061300096F608A3E0C696F608A3E0C696F622E017
:10614000F608A3E0F608A3E0F608A3E0F622C3E40D
:1061500098F8E499F912618F8026C3E49AFAE49BD7
:10616000FBE920E7E912618FE498F8E499F922C38A
:10617000E498F8E499F912618FE498F8E499F9C386
:10618000E49AFAE49BFB22EB20E7CFE920E7E0B9B1
:106190000010BB0008E88AF084F8AAF022E4FBC8EB
:1061A000FA22EB70227B10C833C8C933C9335007B9
:1061B000C39AC3DBF280069A50012ADBEAC833F4A3
:1061C000C8C933F4C9FA2275F008E4C833C8C93322
:1061D000C933C99AC99B5004C92AC93BD5F0ECFB05
:1061E000C833F4C8E4C9FA22600D08C6A2E713C692
:1061F00018C613C6D5E0F322600C08C6C313C61830
:10620000C613C6D5E0F422700422600D18C6C3334D
:10621000C608C633C6D5E0F418222541C0A8C2AFCF
:1062200040021542F541D0A822C0D02541C0A8C2E5
:10623000AF50020542F541D0A8D0D0222541F582C9
:10624000E43542F58322E4732541C582C0E0E5428E
:1062500034FFC583C0E0E541C3958224F9C0A8C2DC
:10626000AF858342858241D0A8CEF0A3E520F0A37C
:106270007821E608F0A3DEFAEFF0A3E58124FBF82D
:10628000E608F0A3E608F0A30808E608F0A3E6088D
:10629000F0A315811581D0E0FED0E0F815811581BD
:1062A000E8C0E0EEC0E022854283854182E0A3FEA3
:1062B000E0A3F5207821E0A3F608DFFAE0A3FFE0F1
:1062C000A3C0E0E0A3C0E0E0A3C0E0E0A3C0E0859D
:1062D000A8F0C2AF85824185834285F0A8D083D0E3
:1062E0008222D083D082C5F0E493A3C5F0C395F099
:1062F000F5F0E493A3C395F04005E5F0048001E4D4
:1063000075F002A42582F582E5F03583F583E493E8
:10631000A3C0E0E493C0E022D083D082CCC0E0E40C
:1063200093A360061263421470FAE493A36006120A
:1063300063611470FAD0E0FCE493A3C0E0E493C07E
:10634000E022C0E0E493A3D39C5010E493A3C39C49
:10635000400AD0E0D0E0D0E0026335A3A3A3D0E0B0
:1063600022C0E0E493A36C7009D0E0D0E0D0E0025A
:106370006335A3A3D0E022C082C083740149F5B382
:106380007C10800C8A828B83E0F5B1A3AA82AB8358
:10639000EC1C70F0D083D08222800100E5B3A2E330
:1063A00050F922C082C0838C828D831263777A0C6D
:1063B000800100EA1A70FB7A108004E5B2F0A3EACB
:1063C0001A70F812639980CCC082C08390F876E08E
:1063D00054F0F0741390F875F074DF90F86FF07467
:1063E000D990F870F074F890F871F0742590F87204
:1063F000F0748090F873F0742590F874F074109035
:10640000F876F074F8F5D575D46F90F87EE054F016
:10641000F0741390F87DF074F890F877F0744A9067
:10642000F878F074DF90F879F074D990F87AF07415
:106430002090F87BF0742390F87CF0744090F87E04
:10644000F090F886E054F84408FAF0741290F88559
:10645000F090F883E0541FF074DF90F881F074AF8F
:1064600090F882F0E490F883F074F890F884F07477
:106470000F5A444090F886F074F8F5D375D277D06F
:1064800083D0822274F6126248EAFEEBFF8C218DE3
:1064900022892312605275AB2AEF90F87FF0EE90BC
:1064A000F880F090F883E054E0F0E52390F884F071
:1064B000AA21AB22740978211261F8E521F5ADEB30
:1064C000C313EA13F5AC53D1FB75D60412604E79B1
:1064D000017F030262A77A177BFF00DBFDDAF9D99F
:1064E000F52274F11262487C19800F75F00AECA451
:1064F00029C0E0EC1265BAD0E0F0EC1C70EDE9F5D3
:10650000257526007527007528007C0090F9EA782B
:106510002112613F7825792112606890F9EE782583
:10652000126101852521852622852723852824744B
:106530001078211260E874FF5521F8747F5522F914
:106540007A197B0012618F8C23E5232487F8E434C9
:10655000F8F988828983E0FDEA2487FAE434F8FBBD
:106560008A828B83E088828983F0ED8A828B83F034
:106570000CECC3941940957F080262A7C082C083C7
:106580007B19EB1B8B82A882600C90DF06E0FAE897
:106590001265B56A70EC75E10474012808E43400F2
:1065A000F97A197B00126187EA1265B590DF06F06F
:1065B000D083D082221265BAE0222487F582E434A7
:1065C000F8F58322C3EA94011276514005EAF8EB0C
:1065D0008006C3E49AF8E49BF9E8FAE9FB22790320
:1065E0007C047DFA7A097BDF127F082274F812623C
:1065F00048E9FEEAFF75E10474F090F53AF0539B28
:10660000FCE59B53E9EF75911074326E700A90F9B6
:106610007BE0A2E150027919127DBBEF90DF06F01A
:1066200074326E700590F961800390F95DE090DF3F
:106630002EF090F95EE090DF05F090F8F8E090DF42
:1066400001F090F8F9E090DF00F0439A01026FBD8D
:10665000C082C083E9FA790C90F962E0A2E65002A8
:1066600079321265EC026800C082C08375D68375EA
:10667000E10474F090F53AF079047AE67BF9127E41
:10668000E5E490DF08F01265DE90F962E0A2E640F2
:106690000890F944E090F9AAF012673079067AC1BF
:1066A0007BF9127EE590F9A6E4F0A3F07901127669
:1066B000810267FD127A0EA3A3A3A37401F0A3E4E1
:1066C000F022C082C083E9601C90F962E0A2E6403B
:1066D0001490F960E0FA79321265EC90F95FE0907D
:1066E000DF05F08003126730026800C082C0837546
:1066F000FD00758FFF75F2FF75F30079107A957BB9
:10670000F9127EE590F944E0F91264E21263C812CE
:1067100065DE12673090F95BE0F5CD90F95CE0F54D
:10672000CF43CB14E5CBD2B9D2A9439A010268007A
:1067300090F9AAE0F912665022C082C08390F97FD6
:10674000E0FA600C8ACD126BCD74D0F0A37407F020
:10675000D294026800C082C08379F27C007D047A02
:10676000A07BF8127F0890F8A0E064AA7004A3E070
:1067700064AA700E90F990E064557004A3E064552B
:106780006079741790F962F090F8A074AAF0A3F001
:1067900090F9907455F0A3F0740990F97BF074FFB0
:1067A00090F944F090F95DF090F96674F7F0A374F5
:1067B000FEF0740290F95EF0740190F95FF090F8C9
:1067C000F874F0F0A3F0E490F98DF079207CCE7DA0
:1067D0007F7A007BF9127F08790C7CD07D037AA048
:1067E0007BF8127F089003DCE090F95BF09003DD0A
:1067F000E090F95CF0746490F97FF080031266B465
:10680000D083D0822274F712624890F9D9E0241C18
:10681000FAA3E03400FB892174012521F8E4340057
:10682000F98A828B83126C348005639004E5908A28
:10683000828B83C3E09401A3E09400C365D03350FE
:10684000E98A828B83E4F0A3F07F020262A7C08210
:10685000C0838A828B83E07002A3E0601C8A828BF3
:1068600083E024FFF0A3E034FFF08A828B83E070A2
:1068700002A3E07004790180027900808374F7122A
:1068800062487E101EEEF890F9D7E028127A207048
:10689000030269E1E4F0EE126318000401B068023B
:1068A000B66803AA6809D668E1691270B90269E19D
:1068B00012710E0269E1127DB31275EB700B90F943
:1068C000B5E0F91275E40269E190F9B9E0700302EC
:1068D00069E1790080ED90F9B5E0600214F090F97B
:1068E000B4E0600214F07AFD7BF9126BBA600F120B
:1068F000666890F970126F6890F9FD126C347AFF37
:106900007BF9126BBA6003127E5890F9A8E024015B
:10691000F0A3E03400F090F9A8C3E094E9A3E09478
:10692000034007E490FA07F0800990FA07E060035B
:106930000269E190F962E0A2E740030269E1A2E6A0
:1069400050527AF77BF9126BBA601D127A47126CBB
:106950003490F962E0C2E6126C3190F944E090F9AB
:10696000AAF0F912665080797AF97BF9126BBA6055
:1069700070126F7B90F9AAE0F890F97EE028F8E4B5
:106980003400F97AFA7B00126187EA90F9AAF09054
:10699000F97A80CD7AF57BF9126BBA60351275F40D
:1069A000126C3490F9FBE4F0A3F090F962E0D2E6C7
:1069B000127A6964FF700890F944E090F97AF0E087
:1069C00090F9AA1279F02410127A03F090F9AAE053
:1069D00080907AFB7BF9126BBA6006126C03126C22
:1069E00031EE60030268847E101EEEC333F8E43398
:1069F000F990F9D9E028F8A3E039F988828983C3AE
:106A0000A3E01276524003026BB188828983E4F0DE
:106A1000A3F0EE126318000802326A03406A0420F1
:106A20006B08DD6A092C6B0B266B0D476B0F686BCF
:106A3000B16B75C9A875C958127A0A747D026BAD1D
:106A400090F9B4E07003026BB190F9B8E0603D904A
:106A5000F9AEE0600C14F0701090F992E4F0A380AD
:106A60000790F9B1E0600214F090FA02E0243A12C3
:106A70007A20642070047A0180027A00EA90F9B9E1
:106A8000F079007A4A7BF81270E28006126BBF74CC
:106A900001F090F8FEE0FA7003026BB190F8FDE0AF
:106AA000FBEAC394084009EBC394084003026BB1AE
:106AB000EB6008C39A50048B2180028A21E521C330
:106AC00094084003026BB1126BED74FD281818187E
:106AD00074FF39126BE2E8F0A3E9026BB090F9623F
:106AE000E054506410703990F9B2E0FA74FF2AF063
:106AF000EA6021126C03F090F9F3E024F6FAA3E0C7
:106B000034FFFB90F9D9E02410127607126D5FE490
:106B1000F0A3800B90F944E090F9AAF090DF06F022
:106B20001275E2026BB1126D53026BAD126C1390D1
:106B3000F9F3E02497F8A3E034FF126BE2A3A31269
:106B40006C341275FE8069126E8190F8FEE0F521BA
:106B5000605FC39408505A126BED74D428FA74FF26
:106B60001275D912760780487B00E5CDC0E090F918
:106B70005BE0FAD0E0C39A500505CDE5CD0B90F966
:106B8000CBC3E09437A3E01276524016E5CFC0E0C5
:106B900090F9B3E0FAD0E0C39A500A05CFE5CF0BE5
:106BA000800375CF00EB6009126BCD74FAF0A3E49B
:106BB000F0EE60030269E902684912684EE922902A
:106BC000F9D7E0F8A3E0F5838882A3A32290F9D94E
:106BD000E0241E126BD722F8A3E03400F9888289E2
:106BE0008322F990F9D91275BFA3A3A32290F9F3D8
:106BF000126F68E88521F0A4F8AAF08521F0E9A4D5
:106C00002AF92290F9AAE090DF06F012657CE09064
:106C1000F9AA2290F9F3E0FAA3E0FB90F9D9E02475
:106C200012F8A3E03400F988828983EAF0A3EBF03C
:106C300022127A51E8F0A3E9F022EEC0E0E9FE80EA
:106C4000057964126805EE1E70F7D0E0FE22790423
:106C50007C707DF97AFD7BF9127F082290F5307403
:106C600067F0A3746DF090F532748FF0A3746DF03B
:106C700090F55B74781266BD740190F537F090F969
:106C8000D77420F0A374F5F090F9D9E4F0A374F56B
:106C9000F0741855BEC313131390F9B0F012675572
:106CA000126C4E90F962E0A2E6500590F97A8003EA
:106CB00090F944E0FAEA90F9AAF0127D65D294D2F4
:106CC0009390F9B0E06402701090F95CE090F9B331
:106CD000F090F95BE0F5CD800E75CF0090F95CE0A7
:106CE00090F9B3F01267391266EB126D53F0A3E41A
:106CF000126D5F7402F0127A5C747D1266BD126CC4
:106D0000137A007BF97904126E701279F6790A12FF
:106D10006C3A12666890DF36E064816003127E5838
:106D200012687D90F9F3C3E09491A3E09406400AC1
:106D300090F9F37490F0A37406F090F9FFC3E09417
:106D400091A3E0940140CE90F9FF7490F0A37401F8
:106D5000F080C290F9D9E02416126BD77402221287
:106D60007A62A3A3A3A322C082C083E490F9ADF00A
:106D700090F536E004F0C39404500B90F9D9126BEF
:106D8000C274141266BD90F9AD126E2402680074CC
:106D9000F7126248E5BBF9E5BAF874C828F521E4B2
:106DA00039F522740678211261E8A821A92290F908
:106DB000ADE064FF7008E490F9ADF0026849E0FAD4
:106DC00074012AF0EAC333FAE433FBEA2495F5822E
:106DD000EB34F9F583E028F0A3E039F090F9ADE069
:106DE000C394085005126E2480D190F9A5E004F0F8
:106DF000C3940840C179107C957DF97AC77BF9125C
:106E00007F0879107A957BF9127EE5E4F090F9AC71
:106E1000E004F06408709F740190F9B6F0E490F912
:106E2000ACF08092E024C6F582E4347FF583E0F58F
:106E3000B622C082C083126E6A7C4C7DF87A007BD9
:106E4000F879001263A37C5C7DF87A107BF87900F6
:106E50001263A3742290F84AF090F95FE090F84B27
:106E6000F0740190F9B8F00268007A107BF97906A5
:106E70001263771263992279067CA67DF8127F0847
:106E80002274F812624890F9AEE060061270700247
:106E90006F6390F9B1E06006126FCE026F6390F9F4
:106EA000B6E07003026F667E1E7F00790012768165
:106EB00090F9D5126F6890F800126C3490F80012B7
:106EC0006C3490DF06E090F804F074185590C333EA
:106ED000C0E090F8A2E0540FFAD0E04A333354FCFB
:106EE000126FC279107CC77DF97A0C7BF8127F088B
:106EF00090F962E0A2E6500A90DF06126F727420E9
:106F0000800CA2E5500D90F960126F72741F28FE7C
:106F1000E439FF90F962E0A2E75008EE2404FEEFA6
:106F20003400FF90F97BE0A2E15008EE2408FEEF68
:106F30003400FF90F81AEEF0A3EFF090F9DDE06076
:106F40000790F994E0FA80027A7FEA90F81CF090BA
:106F5000F9DDE090F81DF0E5CD90F81EF0E5CF905A
:106F6000F81FF0126E328055126F6C22E0F8A3E029
:106F7000F922E075F064A4F8A9F022127A77026C85
:106F80003474F81262488921EAFEEBFF7904EEFCC2
:106F9000EFFD7A007BF8127F08E52190F804F0906D
:106FA000F8A2E0333354FC4403126FC27914EE2488
:106FB00004FCEF3400FD7A0C7BF8127F087F01029D
:106FC00062A790F805F07A067BF8126E772274F6C5
:106FD00012624874EC12621A90F9B11270A6126132
:106FE00087E8F52375F00CA4FAE42A7A003408FB4C
:106FF0007E008E21854182854283E5822521F8E548
:10700000833400F9E8FCE9FD74FF8C828D83F07F06
:10701000007810188821EA2521F582EB3400F583E9
:10702000E064FF6016752101752200EF782112627D
:10703000078C828D83E06521F08003E870D5EA2417
:1070400010FAEB3400FB0FEFC3940840C40EEEC3FC
:107050009418409E854182854283AA82AB8374F84E
:107060002523F9126F8174141262297F030262A72B
:1070700074F812624890F9AE1270A6126187E8FCAB
:1070800090F97C7470F0A37470F0EC75F018A4F8AB
:10709000A9F090F992E028FAA3E039FB74ED2CF9FD
:1070A000126F81026FBDE0F874FF281874FF34007E
:1070B000F990FA01E0FA7B0022C082C08374FF904D
:1070C000F800F090F801F090F802F090F803F07AF0
:1070D0000A7BF8126E77126E32741290F84AF00240
:1070E0006800C082C08390F9B7E0701F75E104EBBF
:1070F00090F877F0EA90F878F01266C2741090F584
:107100003AF075D602127D8F75E10302680074EDC6
:1071100012624874DB12621A90DF38E0F52590DFC6
:1071200008E0FE90DF3AE0F527127DB390F825E005
:10713000F52390F826E0FA1275EB701B90F95FE0EA
:10714000FB6A701390DF05E06B700C79007A257B89
:10715000F81270E20275B590F95EE06A600302759C
:10716000A390DF3CE0A2E75004D2F08002C2F0A27C
:10717000F0E492E0F52490F825E02403F97C257DE5
:10718000F8854182854283AA82AB83127F08EE3361
:1071900095E0FF90F962E0A2E6402A12760F5004D3
:1071A0008C25800A1276295005ECF404F525127618
:1071B00038400C740278211262071275CB8006E504
:1071C0002190DF08F0740790F9B4F0E527C39480AC
:1071D0005005E527C38008E42527F874FF13E8135A
:1071E000F890F9E4E0FAE8C39A90F9DDF0126E6ADB
:1071F0007C007DF8740212623CAA82AB8379021291
:1072000063A37C107DF8741212623CAA82AB83796E
:10721000021263A390F800E0F52690F801E0F5274C
:1072200079067C027DF87ADE7BF9127F08741F559F
:1072300027C3941140030275A390F9C17829126104
:107240003F7583F97582DE78291260585003027504
:10725000A3639002E59090F962E0A2E6402A1276DC
:107260000F50048C25800A1276295005ECF404F5A1
:1072700025127638400C740278211262071275CB01
:107280008006E52190DF08F0E52470030275A37401
:107290000890F9B5F01275EB700979017A257BF841
:1072A0001270E2126C4E90F9C5E4F0A3F090F9E28E
:1072B000F0A3F090F9BFF0A3F079067CDE7DF97AB7
:1072C000C17BF9127F08E527A2E75004780180020C
:1072D0007804F521741F5521FEE82EF8E43400F9F6
:1072E000E875F050A4F8AAF075F050E9A42AF974F2
:1072F0005028F8E439F990F9F3126C34852682A805
:1073000082E8601690F8FEE06060C398FAE49400AA
:10731000FBC3EA94081276515050E490F9B8F0E8B3
:10732000602C90F9F3E0F521A3E0F52290F8FEE05F
:10733000C398F8E49400F9E88521F0A4C8AAF08580
:1073400022F0A42AFA8521F0E9A42AF98004780021
:107350007900740C28FAE41275D9126C2179067C34
:10736000DE7DF97ABB7BF9127F0890F9D9E0240819
:10737000F8A3E03400F990F9F3E024A6FAA3E0348E
:10738000FFFB126C27E52690F9AB127A3440399056
:10739000F9D9E02410FAA3E03400FBE527A2E65077
:1073A0001B88828983E024FCF8A3E034FFF98A82F9
:1073B0008B83126C34740890F9B2800BE490F9B2AC
:1073C000F08A828B83F0A3F090F9F3E02402FAA311
:1073D000E03400FB90F9D9E02412127607127A34D7
:1073E000502390F964E0C0E090F9DDE0FAD0E0C30A
:1073F0009AA2D265D0335008126F7B1275F4801EAA
:107400001275FE801D90F965E0C0E090F9DDE0FAAC
:10741000D0E0C39AA2D265D03350E5127A3CE8F0AE
:10742000A3E91279F02406F8A3E03400F974FF65AB
:1074300026700302752F85262190F8A2E075F05082
:10744000A4FAABF0743C2AFAE43BFB90F8FDE06050
:1074500009F5F0E52184E5F0F52190F8A3E0FC655D
:1074600021700302752674FF6C7075E527A2E74052
:107470006F90F9D9E0241AFAA3E03400FB8A828BDA
:1074800083E4F0A3F090F9AFE060041402752E538A
:10749000B4F3E5B443B404E5BDC0E090F985E0F58C
:1074A000F0D0E08490F984AAF0E02A90F9AFF0E5FA
:1074B000BC75F00384E5F02EFAE43400FBEA75F0C5
:1074C00050A4FAACF075F050EBA42CFB743C2AFAF3
:1074D000E43BFB126C2790F9D71275BF7401804E04
:1074E00090F8FEE06049E521C39C5043ECC3952130
:1074F000F521E49400F522C3E5219407E5221276F4
:1075000052502C90F9F3E0FCA3E0FDEC8521F0A4AF
:10751000CCAEF08522F0A42EFE8521F0EDA42EFD48
:10752000EA2CFAEB3DFB88828983EAF0A3EBF08832
:10753000828983E07002A3E0602E7A0BE526700258
:107540007AFB74126523700474162AFA90F962E0CB
:10755000A2E6500474F82AFAEA3395E0FB8882899F
:1075600083E02AF0A3E03BF0790A126805854182A6
:10757000854283E0F9127B2B90F962E0544864085D
:10758000702190F9F5C3E094C8A3E094005014E58D
:10759000232425F582E434F8F583E090DF06F090AB
:1075A000F9AAF079001266C21275EB700890F9B56D
:1075B000E0F91275E474251262297F0C0262A7E0DB
:1075C000FAA3E0F5838A82A3A3A322AA21E522FBE2
:1075D0003395E0FCFD127E672239FB90F9D9E02457
:1075E0001A2279001266C21276562290F962E0548D
:1075F0006064202290F96A126F6890F9F72290F97E
:10760000D7127A2D740122126BD7EAF0A3EB2290E5
:10761000F98CE0F582AC82E525F83395E0F9C3EC0E
:1076200098E499A2D265D03322C3E49CFAE4940092
:10763000FBC3E89AE99B80EBE525F83395E0F9E890
:107640002EF521E93FF522AA21FB1265C4C3EA9475
:1076500061EB940080CDC082C08390F53AE0641065
:1076600070051266B4801775E104E490F826F07492
:107670002090F53AF075D601127D8F75E10202680F
:107680000074F112624890DF08E0FA3395E0FB9055
:10769000F9DB126C2B90F9D3E0FCA3E0FD7E0874BB
:1076A000FF2EFA1E3395E0FBEAC333FAEB33FBEA15
:1076B00024C7F582EB34F9F583C3E09CF0A3E09D89
:1076C000F0EE70DB90F9D3ECF0A3EDF090F966E00A
:1076D000F521A3E0F52290F9E6782512613F90F9B3
:1076E000DBE0F523A3E0F52474027823126207E5BA
:1076F000232525FAE5243526FBEAC39521F523EB5E
:107700009522F524740278231261E8E52390F99418
:10771000F0E9602275E104E5223395E0F523F524D4
:1077200090F9E67821126127AA21AB22AC23AD247F
:10773000127E671275E27F080262A774F712624830
:10774000EAFE7CA07DF8E924A0FAE434F8FBE91213
:107750006318042F3092794344CC794F52D1795732
:1077600058E1791A01D67904B47705EF770AA87938
:10777000161B78172B781A3B781C5A781F887820AC
:10778000A77821827823EF7824FA78262379290DA7
:10779000792A39792B06792D807935977937DF78F1
:1077A00039A3783ABD793B2F793DCC7946CC794BDA
:1077B000CC79ED79EE6033D293127A25E4F0A3F020
:1077C00090F9BAE0701290F9D9E02414127A20707E
:1077D00002A3E070030279ED126739E490F9BA125E
