:100000000200ECFFFFFFFFFFFFFFFF0202C9FFFF3F
:10001000FFFFFFFFFFFFFFFFFFFFFFFFFFFFFFFFF0
:10002000FFFFFFFFFFFFFFFFFFFFFFFFFFFFFFFFE0
:10003000FFFFFFFFFFFFFFFFFFFFFFFFFFFFFFFFD0
:10004000FFFFFF02038DFFFFFFFFFF0202E2FFFF42
:10005000FFFFFFFFFFFFFFFFFFFFFFFFFFFFFFFFB0
:10006000FFFFFFFFFFFFFFFFFFFFFFFFFFFFFFFFA0
:10007000FFFFFFFFFFFFFFFFFFFFFFFFFFFFFFFF90
:10008000FFFFFF0202AD00000080FB1200FBB90081
:10009000030200E690F130AA82AB839003B77803A5
:1000A00079018015E493A3AC82AD838A828B83F0BF
:1000B000A3AA82AB838C828D83D8E9D9E790F130F3
:1000C000AA82AB839003B7780179018015E493A3EA
:1000D000AC82AD838A828B83F0A3AA82AB838C82AD
:1000E0008D83D8E9D9E712026012008675D00075B9
:1000F00081E07510307511F102008B790122907C3E
:10010000D4E0F507C007A3E0C4F507C0073275DBEC
:100110000275DA5775E40675E54490F500E479FF59
:10012000F0A3D9FC90F5007405F090F55B7438F0FD
:10013000A37401F0A37464F075C908D2B9D2AF906A
:100140007CD4E0F507C007A3E0F507C0072290F5CF
:1001500038E004F07004A3E004F022006390019002
:10016000F50063920190F55B7904E0A3639201F0DE
:10017000A3639201D9F463920190F536E4F022E48E
:1001800073C0D02510C582C0E0E51134FFC583C01F
:10019000E0E510C3958224F3C0A8C2AF8583118522
:1001A0008210D0A8C8F0A3E9F0A3EAF0A3EBF0A373
:1001B0007908E709F0A3D8FAECF0A3EDF0A3EEF08C
:1001C000A3EFF0A3D0E0F0A3D0E0F0A3D0E0F0A341
:1001D000E520F0A3E5F0F0A322851183851082E0ED
:1001E000C0E0A3E0F9A3E0FAA3E0FBA37808E0F6FF
:1001F00008A3DFFAE0FCA3E0FDA3E0FEA3E0FFA379
:10020000E0C0E0A3E0C0E0A3E0F5D0A3E0F520A3C8
:10021000E0A3F5F0E5A8C2AF858210858311F5A8AB
:10022000D082D083D0E0F8D0E032D083D082C5F045
:10023000E493A3C5F0C395F0F5F0E493A3C395F060
:100240004005E5F0048001E475F002A42582F58202
:10025000E5F03583F583E493A3C0E0E493C0E022A6
:1002600012010E22C082C0831202A3E0FA74206A37
:10027000700890F130E02421801874106A70199091
:10028000F130E0240E12037EE4F0A3F090F130E0B0
:10029000242212037E7401F01202A374F0F0D083C2
:1002A000D0822290F130E0243A12038222C0E0741E
:1002B000F2120181C2AF53E9EF539BFCE59B75D667
:1002C00083120264D2AF020379C0E074F21201819A
:1002D00085888890F130E024321203AB12017F024E
:1002E0000379C0E074F212018175080090F130E0EA
:1002F000F8A3E0F9E8FEE9FFC2DC12014E8E828F1E
:1003000083C3E09401A3E09400A2D265D0334057A8
:100310008E828F83E024FFF0A3E034FFF08E828F83
:1003200083E07002A3E0703FE50812022A00015E3C
:100330000335033A0312015C802D90F130E0243044
:1003400012037EE0F8A3E0F988828983E5827002D7
:10035000E583600512017F800E1200FE80098E8207
:100360008F8374FFF0A3F0EE24020E0EEF3400FF33
:100370000508E508C3941040847F010201D91203E7
:100380008222F8A3E03400F98882898322C0E074D5
:10039000F212018185C0C0E5D1A2E2500C90F1308B
:1003A000E024341203AB12017F80CE120382E0F806
:1003B000A3E0F58388822200F5FFFFFFFFFFFFFF28
:1003C000FFFFFFFFFFFFFFFFFFFFFFFFFFFFFFFF3D
:1003D000FFFFFFFFFFFFFFFFFFFFFFFFFFFFFFFF2D
:1003E000E0C5305B523AEC5DD322B3EC713F158D22
:1003F000C4EFA9BFDA9ECC97D4D5C4369EBFBD1634
:10040000E490F69078E779048002F0A3D8FCD9FA5A
:1004100090FA76AA82AB83903D1E78A07901801570
:10042000E493A3AC82AD838A828B83F0A3AA82ABD0
:10043000838C828D83D8E9D9E7121EE012046B7594
:10044000D0007581807510907511F602040043AEDE
:100450000222E5AE20E7FBC2AF89AD75AB2143AE0A
:100460000100D2AF22E5AE20E7FB2280FEFFFFFFB6
:10047000FFFFFFFFFFFF02043FE066701008A3E0EC
:1004800066700A08A3E066700408A3E06622C3E76A
:10049000960809E7960809E7960809E796A2D26543
:1004A000D03322C3E09608A3E09608A3E09608A301
:1004B000E09622080808E630E711120C841204CBFB
:1004C000080808C64480C618181822181818E979B0
:1004D0009EC608CAC608CBC608CCC6C3702079968B
:1004E000CACBCC7019798ECBCC70137986CC700EB8
:1004F000F9802ACA33CACB33CBCC33CC331930E79B
:10050000F2CCCBCA3350147004EA30E00DE4CA3A9E
:10051000CACB3BCBCC3CCC500209C3E913C6CC18A8
:100520002313C6CB18C6CA18C6F92212056B20F0D1
:100530001430E72B74FFFCFBFA747F8022E4FCFB91
:10054000FA7480801AB48008BC00F2BB00EF800F00
:1005500050EBF9E4C39AFAE49BFBE49CFCE499C6F3
:10056000CC18C6CB18C6CA18C6F922E4C9C608CA30
:10057000C608CBC6D3330308CCC63392F0C3947FEE
:10058000402E94184019C9B90704CACBCC22502573
:10059000C309CA33CACB33CBCC33CC33D9F422F41E
:1005A000600DC9CCC313CB13CBCA13CAD9F6CC2266
:1005B000E4FCFBFA2214FCFBFA22E6C333184618CB
:1005C00046184622E7C33319471947194722181816
:1005D00018E6084608700AE608C3337005E633F4E7
:1005E000220822191919E7094709700AE709C333D4
:1005F0007005E733F4220922E6084608C3134608CB
:10060000336002E633F422E7094709C3134709338D
:100610006002E733F4221205F8601B120607601629
:100620001205BA70071205C4600CB322C0D01205BF
:10063000C47005D0D022C32233D0D0501330E0EBA9
:10064000C3E7960809E7960809E7960809E796229E
:1006500020E0E4E6970809E6970809E6970809E626
:100660009722001205F8604F1206076012E75480C7
:1006700066F61205CE70111205C4703B090909F423
:10068000F618F618F618F6221205E370151205BAD8
:1006900008080860EAE6447FF618768018E4F61841
:1006A000F6221205BA60161205C47012E4F608F6B6
:1006B00008F608E65480F609090918181822EAC055
:1006C000E0EBC0E0ECC0E0EDC0E0E687F0A4FBACFE
:1006D000F008E687F0A42CFCE435F0FA1809E68768
:1006E000F0A42C4B60027401CA35F0FCE433FB0922
:1006F000E687F0D2F7A42CCB35F0FC1908E687F09A
:10070000A42BCC35F0FBE433FD0819E687F0D2E7E3
:10071000A42C4ACB35F0CD3400FC09E687F0D2E7B3
:10072000A42DCC35F0FDE433FA0918E687F0D2F7B2
:10073000A42CCD35F0CA3400FC08E687F0D2E7D20D
:10074000F7A42ACC35F07A7E20E70B0ACB33CBCD49
:1007500033CDCC33CC33CB3350147004ED30E00EBA
:10076000D2F1E4CD3DCDCC3CCC3B5005DA05C2F115
:10077000EB547FC63308E63392F0FBE73309E733E7
:10078000C39A502D2B70190C0D4C4D70151806E6A0
:1007900008C333700D20F10AA2F013F6E418800BA1
:1007A0004024E4F630F002768018F618F618F68049
:1007B00024D33B14501074FFA2F013F6187680E493
:1007C00018F618F6800FA2F013F618E63303F618A1
:1007D000ECF618EDF6D0E0FDD0E0FCD0E0FBD0E088
:1007E000FA2212060760461205F8603DE9687008B3
:1007F000F618F618F618F622748067F7120816092C
:100800000909748067F7221205F8601D1206077047
:1008100005191919801A1205CE701F1205E3C3704D
:1008200003E6673319191940071818182208080831
:1008300074FFF618F618F618F6221205E360171280
:1008400005C4702192F01205BA7019501720F014E7
:10085000080808090909E7F61819E7F61819E7F66C
:100860001819E7F6221205BA60E6E869701F080851
:10087000E62480F608E436F618547FB47F0CE6547C
:10088000806007F6E418F618F622181822E9C6CC9C
:1008900008C6CD08C6CE08C6CFC0E0E8C0E0EAC0B2
:1008A000E0EBC0E009E9F809E7FA09E7FBE6F91827
:1008B000E6F8C3EC98ED99EE9AEBC2E7F5F0EFC2DB
:1008C000E795F0500E600CEBCFFBEACEFAE9CDF9DC
:1008D000E8CCF8EAA2E7D2E7FAEB33FB13F5F0EE47
:1008E000A2E7D2E7FEEF33FFC5F013A2E730E6013F
:1008F000B313C5F0C3C0E0C0F07F00C39BFB605BD7
:100900009418600C401AD0E023F9D0E0F80209E511
:100910008AF0E9486003D2F0E4AFF0FAF9F8803BDE
:10092000EB30E40D89F0EA6003D2F0E4AFF0F9CAED
:10093000F8EB30E30D88F0EF6002D2F0AFF0E4CADC
:10094000C9F8EB54076014FBC3EA13FAE913F9E89A
:1009500013F8EF135002D2E0FFDBEDD0E0C0E0303F
:10096000E739C3E49FFFF5F0EC98FC42F0ED99FD08
:1009700042F0EE9AFE42F0D0E0F9D0E0F8E5F06007
:100980007AE923F9EE20E742D8028067C3EF33FF0C
:10099000EC33FCED33FDEE33FE80EAEC28FCED3960
:1009A000FDEE3AFED0E023F9D0E0F84002801BC310
:1009B000EE13FEED13FDEC13FCEF135002D2E0FF3B
:1009C00008B800067F7F74FF802EEF3350178CF03D
:1009D00020F00260100CBC000C0DBD00080EBE0023
:1009E0000408E860DFE933E813FFEE2313FE4F4D00
:1009F0004C8008E95480FFE4FEFDFCEE33EF33F455
:100A00007004FCFD7E80D0E0FBD0E0FAD0E0F8D0AE
:100A1000E0CFC618CEC618CDC618CCC6F92212052E
:100A2000F8700418181822120607700D74FFF618D3
:100A300019F61819F61819F622E7548066F6120509
:100A4000BA700F1205C470F014F608F608F608F62E
:100A500080D11205C4700CF608F608768008E644CA
:100A60007F80EC1205E6700C1205D160BFE6548061
:100A7000F6E480BB1205D1700519191980A5E86943
:100A8000700C763F18768018F618F6E8F922E6CD55
:100A9000C0E018ECC0E0E633CD33CDD313F6E71950
:100AA000FCE7191933CC33C3947F400ECD9D5024FD
:100AB00008E65480F6E418F6800FF4043D14501450
:100AC00008E6447FF6187680E418F618F6D0E0FCC5
:100AD000D0E0FD22CCD313CCFD18E4C6CBC0E01887
:100AE000E4C6CAC0E00808ED08C633E613F618E409
:100AF00033C675F003C3CA97CA09CB97CB199C407C
:100B0000047D08802EBD0003020BC716B6FF050644
:100B100006081618C3CA33CACB33CB33CA27CA094F
:100B2000CB37CB193CC37D08803E187D0820E75C9D
:100B3000C633C6CA33CACB33CB33DDF1D5F0EB3085
:100B4000E77BCA97CA09CB974ACB199C406F4B7079
:100B500025E620E0218066187D08C3CA97CA09CB24
:100B600097CB199CD3C633C6CA33CACB33CB3350C9
:100B7000C9DDE7D5F0E1D3E4C636C608C636C608F7
:100B8000C636C608C636C61818188031C3CA97CAF2
:100B900009CB97CB199CB34097C633C6CA33CACB8F
:100BA00033CB33DD34D5F02EC6A2E0C640C8CA2709
:100BB000CA09CB37194A70BECB3CB480B90808E6E5
:100BC0003308E633601F181818D0E0FAD0E0FBD0E5
:100BD000E0FCD0E0FD22187D08CA27CA09CB37CB3C
:100BE000193CD3808013F618E4B67F11F618B6FFCF
:100BF0000EF618C60470D20808768080CAF618F679
:100C000018F680C5080808EAC0E0EBC0E086F0E707
:100C1000A4FA180986F0E7A42AFA180986F0E7A4CE
:100C20002AFA180986F0E7A42AFA1986F0E7A4FB45
:100C3000E5F02AFA190886F0E7A42BFBE5F03AFA6A
:100C4000190886F0E7A42BFBE5F03AFA1818098694
:100C5000F0E7A4C5F02BFBE43AFA1908E7C5F0C6A3
:100C6000A426F6E5F03BFBE43AFA1886F0E7A4F692
:100C7000E5F00826F6E43B08F6E43A08F6D0E0FB97
:100C8000D0E0FA22181818E4C396F608E496F6089D
:100C9000E496F608E496F6226016080808C6C31320
:100CA000C618C613C618C613C618C613C6D5E0EABA
:100CB00022E026F608A3E036F608A3E036F608A3FD
:100CC000E036F622E026F008A3E036F008A3E0368E
:100CD000F008A3E036F022C3E0C696F608A3E0C60B
:100CE00096F608A3E0C696F608A3E0C696F622C3D9
:100CF000E096F008A3E096F008A3E096F008A3E0E1
:100D000096F022E0F608A3E0F608A3E0F608A3E0D8
:100D1000F622E6F008A3E6F008A3E6F008A3E6F062
:100D200022CAC0E0E6F0A308DAFAD0E0FA22C3E46F
:100D300098F8E499F9120D6F8026C3E49AFAE49BBF
:100D4000FBE920E7E9120D6FE498F8E499F922C372
:100D5000E498F8E499F9120D6FE498F8E499F9C36E
:100D6000E49AFAE49BFB22EB20E7CFE920E7E0B925
:100D70000010BB0008E88AF084F8AAF022E4FBC85F
:100D8000FA22EB70227B10C833C8C933C93350072D
:100D9000C39AC3DBF280069A50012ADBEAC833F417
:100DA000C8C933F4C9FA2275F008E4C833C8C93396
:100DB000C933C99AC99B5004C92AC93BD5F0ECFB79
:100DC000C833F4C8E4C9FA22600D08C6A2E713C606
:100DD00018C613C6D5E0F322600C08C6C313C618A4
:100DE000C613C6D5E0F422700422600D18C6C333C2
:100DF000C608C633C6D5E0F418222510C0A8C2AF75
:100E000040021511F510D0A822C0D02510C0A8C2EC
:100E1000AF50020511F510D0A8D0D0222510F582D0
:100E2000C0A8C2AF40021511F510D0A885118322C9
:100E30002510F582E43511F58322E4732510C5826F
:100E4000C0E0E51134FFC583C0E0E510C3958224FE
:100E5000F9C0A8C2AF858311858210D0A8CEF0A3B7
:100E6000E520F0A37808E608F0A3DEFAEFF0A3E5AA
:100E70008124FBF8E608F0A3E608F0A30808E608DA
:100E8000F0A3E608F0A315811581D0E0FED0E0F8CC
:100E900015811581E8C0E0EEC0E022851183851040
:100EA00082E0A3FEE0A3F5207808E0A3F608DFFACD
:100EB000E0A3FFE0A3C0E0E0A3C0E0E0A3C0E0E067
:100EC000A3C0E085A8F0C2AF85821085831185F0AC
:100ED000A8D083D0822274028000C0E0F404120EF5
:100EE0001CD0E0120D2122D083D082C5F0E493A360
:100EF000C5F0C395F0F5F0E493A3C395F04005E584
:100F0000F0048001E475F002A42582F582E5F03555
:100F100083F583E493A3C0E0E493C0E022D083D0C0
:100F200082CCC0E0E493A36006120F471470FAE489
:100F300093A36006120F661470FAD0E0FCE493A34A
:100F4000C0E0E493C0E022C0E0E493A3D39C50103F
:100F5000E493A3C39C400AD0E0D0E0D0E0020F3A73
:100F6000A3A3A3D0E022C0E0E493A36C7009D0E077
:100F7000D0E0D0E0020F3AA3A3D0E022C082C08329
:100F8000740149F5B37C10800C8A828B83E0F5B143
:100F9000A3AA82AB83EC1C70F0D083D082228001A4
:100FA00000E5B3A2E350F92274F7120E3C8908EC75
:100FB000FEEDFF7409120E30E0F8A3E0F988828993
:100FC00083EAC4540FF5098015E5B2F0A3EB1B705A
:100FD000F8120F9E1509EE2410FEEF3400FFE5090C
:100FE0006016EEFAEFFBA908120F7C7B0C80010063
:100FF000EB1B70FB7B1080D57F02020E9BC082C072
:1010000083EB90F707F0EA90F708F0D083D08222C4
:10101000C082C08390F706E054F0F0741390F70597
:10102000F074DF90F6FFF074D990F700F074F6904A
:10103000F701F074B590F702F0748090F703F07444
:101040002590F704F0741090F706F074F6F5D57556
:10105000D4FF90F70EE054F0F0741390F70DF07495
:10106000F690F707F074DA90F708F074DF90F7095C
:10107000F074D990F70AF0742090F70BF074239075
:10108000F70CF0744090F70EF090F716E054F84427
:1010900008FAF0741290F715F090F713E0541FF06F
:1010A00074DF90F711F074AF90F712F0E490F7133B
:1010B000F090FA7FE090F714F0740F5A444090F7E4
:1010C00016F074F7F5D375D20702100B74F6120EF2
:1010D0003CEAFEEBFF8C088D09890A90F718E06066
:1010E000047900804612046575AB2AEF90F70FF083
:1010F000EE90F710F090F713E054E0F0E50A90F767
:1011000014F0AA08AB0974097808120DD8E508F59F
:10111000ADEBC313EA13F5AC53D1FBD2B875D604CB
:10112000740190F718F012044E79017F03020E9BB0
:10113000C082C08390F719E4F0A3F07980FC12110B
:101140007FD083D08222C082C083C2B8E490F718D7
:10115000F090F717E0602690F719E02480F0A3E004
:101160003400F0E490F717F0C390F71AE094805041
:101170000C798090F719E0FCA3E012117F80C2FD8A
:101180007A1B7BF7123C1F798090F719E0FCA3E0F3
:10119000FD7A1B7BF71210CCE990F717F022EEC016
:1011A000E07E7FE9601643C640800579021211DDBA
:1011B000E5BEA2E54020EE1E70F1801A53BEFB8012
:1011C0000579021211DDE5BEA2E64004EE1E70F1C3
:1011D0000053C680E5C643BE04D0E0FE227A177BEA
:1011E000FF00DBFDDAF9D9F52274F1120E3C7C190F
:1011F000800F75F00AECA429C0E0EC1212C1D0E017
:10120000F0EC1C70EDE9F508750900750A00750B26
:10121000007C0090FA76780C120D037808790C1295
:101220000C0490FA7A7808120CB185080C85090D27
:10123000850A0E850B0F7410780C120C9874FF55EC
:101240000CF8747F550DF97A197B00120D6F8C0C18
:10125000E50C249BF8E434F7F988828983E0FDEA01
:10126000249BFAE434F7FB8A828B83E088828983AB
:10127000F0ED8A828B83F00CECC3941940957F08C3
:10128000020E9BC082C0837B19EB1B8B82A88260FD
:101290000C90DF06E0FAE81212BC6A70EC75E1040B
:1012A00074012808E43400F97A197B00120D67EA0A
:1012B0001212BC90DF06F0D083D082221212C1E05D
:1012C00022249BF582E434F7F5832274F1120E3C5C
:1012D000E9FA90F9DB780C120D0390FAC87808123D
:1012E0000D03780C7908120616503290F7EC780C42
:1012F000120D0390FACC7808120D03780C790812BD
:101300000807750B40750A7B75098575081F7808F5
:10131000790C120A1E90F9DB7808120D128A0875F2
:101320000900750A00750B0078081204CE90F9DBED
:10133000780C120D037808790C12066290FAD078B6
:101340000C120D037808790C120807780812052B87
:10135000A808C3E5099401400278FFE8F902167570
:10136000C3EA940112137A4005EAF8EB8006C3E45D
:101370009AF8E49BF9E8FAE9FB22EB9400A2D26523
:10138000D0332279037CC27DFA7A097BDF123C1FBD
:101390002274F8120E3CE9FEEAFF8B08C2AF121469
:1013A0009B539BFCE59B53E9EF75911074326E7073
:1013B0000C90F88FE0A2E1500479198002EEF91246
:1013C0003A21EF90DF06F074326E700590F8758068
:1013D0000390F871E090DF2EF0E50890DF0F6005D4
:1013E000E0D2E78003E0C2E71235DCF090F80CE0D1
:1013F00090DF01F090F80DE090DF00F0439A01D209
:10140000AF022493C082C08390F876E0A2E6500435
:101410007432800AA2E25004740C8002741E90FAA6
:101420007E121E92544860047B0180027B00E9FA20
:1014300090FA7EE0F912139102199DC082C0837563
:10144000D68312149B79047A727BFA123C05E490DD
:10145000DF08F0121383741490DF14F01214851255
:10146000149279067A957BF9123C0590F978E4F0AC
:10147000A3F090F988E060077A007901122CA71296
:101480002B2B02199D7A147BF87904120F7C120F12
:101490009E2290F97CE0F91214042275E1041225D1
:1014A0007974F0F022C082C08375D683E9601E9003
:1014B000F876E0A2E640167B0190F874E0FA793203
:1014C00012139190F873E090DF05F08003121492EC
:1014D00002199D74F1120E3C75FD00758FFFE5F247
:1014E00075F2FF7A00750801750900EA7808120D97
:1014F000E7E50845F2F5F20AEAC3940840E775F417
:10150000C075FEDB75CB7075CC2475CE2475F120CB
:1015100075F520D29379107A597BF9123C0575F351
:1015200000790012119EE490DF08F090F858E0F97D
:101530001211E9121010121383121492750800751B
:101540000900750A80750B3F90F7D0780C120D03D7
:101550007808790C120A1E90F8A47808120D12125D
:10156000197143CB14E5CBD2B9D2A9439A01021623
:1015700075C082C08390F893E0FA601590F86FE030
:10158000FBEAC39B5003EA8001EBFC8CCD121EBB2F
:10159000F0D29402199DAA0CAB0DAC0EAD0F021641
:1015A0007574F1120E3C8A0C8B0D8C0E8D0F12157A
:1015B000C37808120D037808790C1206621215DB45
:1015C00002166190F9DF1215CA221215CE221215E9
:1015D000D222E0F8A3E0F58388822290F9DF123569
:1015E000162274F1120E3C8A0C8B0D8C0E8D0F128C
:1015F00015DB7808120D037808790C1207E2121532
:10160000C3780C120D037808790C120662805E74A0
:10161000F1120E3C890875090074027808120DE772
:10162000E5082429F582E50934F9F5837808120DD7
:101630000378081204B390F7D0780C120D037808E1
:10164000790C12066290F9E1780C120D0378087992
:101650000C120662AA08AB09AC0AAD0B1215E280A7
:1016600014780C120D037808790C120807AA08AB3D
:1016700009AC0AAD0B7F08020E9B74F1120E3CEA16
:10168000FCEBFD1215C3780C120D037A018C828DD0
:10169000837808120D03780C79081206628A08759F
:1016A000090074027808120DE790F9DFE02508FBC5
:1016B000A3E035098B82F5837808120D03780C7945
:1016C000081208070AEAC3940440C202159674F18E
:1016D000120E3C8A08EBF5093395E0F50AF50B7814
:1016E000081204B390F9E5780C120D037808790C10
:1016F000120662AA08AB09AC0AAD0B1215A10216BC
:1017000075C082C08390FA7FE0A2E0500204F0121C
:101710001E98123C1F90F80CE07002A3E07028792C
:10172000087A0C7BF8123C0590F80C74F0F0A3F0EA
:10173000740690F810F0E490F8A1F0747890F8A294
:10174000F0746490F8A3F0E490F98E02199C74F19F
:10175000120E3C90F7D0780C120D0390F9F112198B
:10176000811204B3780C7908120A1E90F9E5780CFE
:10177000120D1290F9DF74F4F0A374F7F090F9F3FE
:101780001234E91216CE8A088B098C0A8D0B780860
:1017900012052BAE08AF09A2934041A294501A90B3
:1017A000F8A3121965EE98EF99500E12353E749811
:1017B000F0A3743AF0C2948023A294401F90F98D54
:1017C000E0601990F8A2121965E89EE99F500DE4B7
:1017D00090F98DF0121ED5D293121571E490F9890B
:1017E000F090F810E06022F875F0E8A4C8AAF0754F
:1017F000F003A42AFAE42AF9EE98EF9950047A014A
:1018000080027A00EA90F989F090F8A1E0607275A0
:10181000F064A4F8AAF0E42AF9EE98EF9950047A5B
:101820000180027A00EAFB90F98EE07045EB605788
:1018300074FF90F858F090F97C121E9254074404FB
:10184000F0E490F7B7F090F7B6F090F810121E920F
:10185000C2E0F079207CA27DFA7A147BF8123C1F5A
:1018600090F80C74F01234D6F090F98EF012143B0C
:101870008015EB701212170190F858E090F97C80F7
:10188000EB90F98EE070EE90F9DF74FCF0A374F742
:10189000F090F9F51219811204B390F9E5780C1261
:1018A0000D037808790C120662AA08AB09AC0AADE0
:1018B0000B1215E28A088B098C0A8D0B7808120529
:1018C0002BAA08AB0990F897E0F50870030219629B
:1018D00074FF6508700302196290F9F9E07002A3C1
:1018E000E0600990F9F9121A5BF0807675090074CE
:1018F000037808120DE790F9F91230D190F9FBE066
:10190000602B90F896E0F8C3EA9812137A5010A270
:10191000944003121571121971E490F9FB80CAA268
:1019200094503F90F985E0603914F08032A29450D1
:101930003190F895E0C39AE49BA2D265D03350224F
:1019400090F89AE0FB90F985E0FAEBC39A5003EB2C
:101950008002E014F0740190F9FBF090F985E01238
:101960001979021675E075F064A4F8AAF0E42AF972
:101970002290F870E090F985F0F91212CBE9F5CFDA
:10198000221230B8780822C082C0838A828B83E01A
:101990006006E4F07901800279008001F0D083D004
:1019A0008222C082C08312045290F9B5E024101242
:1019B00030F37002A3E0600D90F876E054506410AC
:1019C0007003122AC480D6C082C083121ECBC3E823
:1019D0009AE99B500874FF281874FF39F9E8C39AF4
:1019E000FAE99BFB80B774F7120E3C90F9B5E0243E
:1019F0001CFAA3E03400FB890874012508F8E434DC
:101A000000F98A828B83122A61800675C9A875C97C
:101A1000588A828B83C3E09401A3E09400C365D00D
:101A20003350E88A828B83E4F0A3F07F02020E9B9E
:101A3000C082C0838A828B83E07002A3E060178A31
:101A4000828B83121A5BF08A828B83E07002A3E0A0
:101A5000700479018002790002199DE024FFF0A34F
:101A6000E034FF2274F5120E3C7F03EF1F7E0070FE
:101A700003021D1C80177A897BFA121E8D600712E3
:101A80002AE3121EACF00EEEC3941050DEEEF89076
:101A9000F9B3E0281230F360EDE4F0EE120EE70146
:101AA0000A861A851BBE1A6C1B721B861A551B866A
:101AB0001AB91AA51B861A9F1B12113080C87A8A80
:101AC0007BF9121987E96005E490F6DAF090F89D49
:101AD000E0604C90F9FFE060467AC57BFA120FFD9A
:101AE000C2AF740190FA00F090DF06E090F9FEF0CA
:101AF000740490DF14F090F89DE0FA90DF06E06A3D
:101B0000F012257290F9B5E0240E12201C7405F035
:101B1000A3E4F075D60290F9FFF0D2AF021A8690D6
:101B2000FA00E0600E90F9FEE090DF06F074149089
:101B3000DF14F090F876E0546064207007790112A9
:101B400014A5800B90F88FE0A2E34003021A8612DE
:101B50002AF3021A8690F9B5E0241812201C747D2D
:101B6000F0A3E4F0793E1219A2021A861224AB0205
:101B70001A861221F490F99D122A2A90F99BEAF014
:101B8000A3EB021A8590F88FE0A2E35003122AF328
:101B9000121ECB90F99D122A61122583021A861219
:101BA000174E021A8690F988E0607790F97DE0641C
:101BB000FF606FE0FA90F97EE06A705A90F98CE06D
:101BC00060547A0090FA81122A3D90F993E028F04F
:101BD000A3E039F090F993C3E094E9A3E0940340C3
:101BE0001C90FAD47808120D0390F98F7808120C23
:101BF000C490F993E02418F0A3E034FCF00A90F9C3
:101C00007EE0C39A50BE90F9B9E4F0A3F01221F43B
:101C1000E490F97D800590F97DE004F0740190F97D
:101C20008CF07A8B7BFA121E8D600F12143B90F8A9
:101C300084122A3D90FA8B122A617A8D7BFA121E49
:101C40008D600B90F876E0A2E05003123B4190F9D2
:101C50007AE02401F0A3E03400F090F97AC3E09434
:101C6000E9A3E094034007E490FAC7F0800990FAF2
:101C7000C7E06003021A8690F876E0A2E74003020C
:101C80001A86A2E650547A857BFA121E8D601C12C9
:101C90002A5890F876E0C2E6121EACF090F858E0B0
:101CA00090F97CF0F9121404021A867A877BFA12F2
:101CB0001E8D7003021A86122A4790F97CE0F89074
:101CC000F892E028F8E43400F97AFA7B00120D6704
:101CD000EA90F97CF090F88E80C97A837BFA121E24
:101CE0008D7003021A7612350190FA89E4F0A3127E
:101CF0001E92D2E6123529E064FF700890F858E091
:101D000090F88EF0E090F97CF090F9B5E024101294
:101D1000201CE4F0A3F090F97CE08088EEC333F857
:101D2000E433F990F9B5E028F8A3E039F98882891D
:101D300083C3A3E012137B4003021E7E8882898343
:101D4000E4F0A3F0EE120EE7020D7E1E681D771D73
:101D5000361EA01DAD1DD51D091E451EA51D401E0C
:101D6000FE1D7E1E7E1E541E75C9A875C958122000
:101D700012A37401021E7D90F982E0600A14F070D3
:101D80000EE490F98B800790F986E0600214F079F8
:101D9000007ADA7BF61224E0740190F98A021E7D43
:101DA000C293021E7E740190F98D021E7D90F86D23
:101DB000E0700D90F86EE0600BD293121ED5800695
:101DC000D2938002C29390F86EE07003021E7E12DE
:101DD0001571021E7E122B246003021E7EC2AF7498
:101DE000F0F053E9EF539BFCE59B75911075E1040E
:101DF00075D682121EA37401F0D2AF021E7E90FA35
:101E00007F121E981210CC807590F876E0545064C2
:101E100010702390F987E0FA74FF2AF0EA600B1241
:101E20002AC4122A7BE4F0A3800B90F858E090F9C2
:101E30007CF090DF06F079001214A5122AF3803EA0
:101E4000122020803812200C122ACD90F9B3122AC9
:101E50007E021D7190F86FE0FBE5CDC39B501F9093
:101E6000F89EE0FCE5CDFAEC70057C0180010AECFF
:101E70001C6005EAC39B40F68ACD121EBBF00EEE35
:101E8000C394105003021D1C7F04020E9B121A30D3
:101E9000E922F090F876E022E0F97C007D7C7AB4CB
:101EA0007BF72290F9B31215CAA3A322F090F8820F
:101EB000122A4190FA89E8F0A3E92290F9B5E024CA
:101EC0001E1235487488F0A374132290F9FC121581
:101ED000CA122A41221235357488F0A37413F022F5
:101EE00090DF36E064816003123B4190FA90E02479
:101EF0003012201C742FF0A37420122006243212FA
:101F0000201C7462F0A37420122006243412201CBA
:101F10007446F0A37411122006243712201C740199
:101F20001220062420F8A3E03400F990F9B3122A15
:101F30006190FA90122A3D90F9B5122A6190FA90B8
:101F4000E02438F8A3E03400F990F9FC122A617417
:101F50001855BEC313131390F984F012170190F8AB
:101F600076E0A2E6500590F88E800390F858E0FAEB
:101F7000EA90F97CF0123A001214D390F984E0123E
:101F80000EE70003D81F9E1F9E1F8E1F9E1FD29319
:101F9000D29490F86FE0F5CDE490FAC7803990F8CC
:101FA00093E0FA60048ACD800690F86FE0F5CDC228
:101FB00093C2947E08800B75C9A875C958797D12A3
:101FC00011DDEE1E70F1D29390F9B5E0240C1220D1
:101FD0001C7498F0A3743AF01234F7A37401F01251
:101FE0002020F0122A82A3E4F0122012A37401F040
:101FF00012200C122ACD12148512351C639002E5B2
:1020000090121A6480FBF090FA90E022122AD624F3
:10201000122290F9B51235167438F0221235482282
:1020200090F9B5E024161235487405F0A3E422C0F7
:1020300082C083E490F9811230EC041230ECC39436
:1020400004500C90F9B5121EA67432F0A3E4F0907F
:10205000F981E02492F582E434FAF583E0F5B602E2
:10206000199D74F2120E3CE5BBF9E5BAF87A107BC3
:1020700000120D6790F981E064FF7008E490F98127
:10208000F00221ACE0FA74012AF0EAC333FAE43337
:10209000FBEA2459F582EB34F9F583E028F0A3E05C
:1020A00039F090F981E0C39408500FE02492F58252
:1020B000E434FAF583E0F5B680C790F969E004F0FE
:1020C000C3940840B779007A597BF97CE97DF97EA1
:1020D0009F7FF990F980E0C333F508E433F509E513
:1020E0000824A9F50CE50934F8F50D8A828B83E004
:1020F000F508A3E0F509850C82850D83E508F0A3BA
:10210000E509F090F95FE0F50AA3E0F50BE508C3F7
:10211000950AF50AE509950BF50B8C828D83E50A86
:10212000F0A3E50BF0E9C394055015E96012E50949
:102130003395E0F50AF50B8E828F837808120CC474
:1021400009E50C2410F50CE50D3400F50DEE240422
:10215000FEEF3400FFEC24020C0CED3400FDEA2409
:10216000020A0AEB3400FBE9C3940850030220EB97
:1021700090F9B3E0240BF8A3E03400F98882898356
:102180007401F079107A597BF9123C05E490F969F1
:10219000F090F980E004F06408600302207C740190
:1021A00090F988F0E490F980F002207C7F07020E1D
:1021B0009B74F7120E3C7A247BF8790612148B7507
:1021C00008DC7509F67808120ED67C907DF67A2028
:1021D0007900120FA87402120E09742290F6DAF038
:1021E00090F873E090F6DB021A2A79067CBA7DF744
:1021F000123C1F22C082C08390F982E06006122444
:102200005402236C90F986E060061223C302236C0B
:1022100090F988E0700302236F7A0190F876E0A2CB
:10222000E6E492E0F9122CA779047C8F7DF97A908C
:102230007BF6123C1F90F993E090F694F0741855D9
:1022400090C333C0E090F7B6E0540FFAD0E04A33C1
:102250003354FCC0E090F994E05403FAD0E04A9083
:10226000F6951223BA79107C497DF97A9C7BF61297
:102270003C1F90F877E0120EE70005F422D6228981
:10228000220123F422012301237832790090F87689
:10229000E0A2E6500A90DF061223727434800CA28A
:1022A000E5500D90F874122372743328F8E439F96C
:1022B00090F876E0A2E75008E82404F8E93400F941
:1022C00090F88FE0A2E15008E82408F8E93400F91A
:1022D00090F6AA122A6190F9B9E07002A3E06007B3
:1022E00090F8A8E0FA80027A7FEA90F6ACF090F9D4
:1022F000B9E0806679047C727DF97A9E7BF6123CA7
:102300001F79087C6A7DF97AA47BF6123C1F90F84D
:1023100077E0FA74046A700B90F972122A3D90F615
:10232000A8800E74056A700C90F974122A3D90F61C
:10233000A6122A6190F9B9E07002A3E0600790F854
:10234000A8E0FA80027A7FEA90F6ACF090F9511298
:102350002A3D7A647B00120D6FE890F6ADF0E5CD72
:1023600090F6AEF090F985E090F6AFF01221B10250
:10237000199DE075F064A4F8A9F02274F8120E3CDF
:10238000EAFEEBFF90F7B6E0333354FC440390F6DB
:1023900095F0E990F6941223BA7904EEFCEFFD7AF9
:1023A000907BF6123C1F7914EE2404FCEF3400FD00
:1023B0007A9C7BF6123C1F022493F07A967BF612ED
:1023C00021EA2274F7120E3C90F986122498120D1D
:1023D00067E8FEFA75F000A4CA75F00CA4FCE42CC2
:1023E000FB90F889E0F9EB39FB7F008F08E50824C2
:1023F00002F8E434FAF9E8FCE9FD74FF8C828D837D
:10240000F079007810188808EA2508F582EB340086
:10241000F583E064FF6016750801750900E9780826
:10242000120DE78C828D83E06508F08003E870D59B
:10243000EA2410FAEB3400FB09E9C3940840C40F06
:10244000EFC3941840A57A027BFA74FB2EF912238D
:102450007B021A2B74F8120E3C90F9821224981207
:102460000D67E8FD90F8907454F0A37424F090F98F
:102470008BE060067A007B7C80047AB47BF7ED7594
:10248000F018A4F8A9F0EA28FAEB39FB74ED2DF95D
:1024900012237B7F01020E9BE0F874FF281874FF63
:1024A0003400F990FA8FE0FA7B0022C082C0837476
:1024B000FF90F690F090F691F090F692F090F693EF
:1024C000F079067C8F7DF97A947BF6123C1F7A9A1C
:1024D0007BF61221EA1221B1741290F6DA02199CED
:1024E00074F8120E3CE9FE8A828B83E0FC74226C45
:1024F000600574126C700F90F989E0700990F97F93
:10250000E0C394035007E490F98AF08062120FFD53
:10251000EEF91214A590F9B5E0240EF8A3E034000A
:10252000F990F876E0A2E64007A2E5501CEE6019AB
:10253000888289837419F0A3E4F090F88FE0A2E117
:102540005020740190F9FF8018E0540C640C8882CC
:1025500089837008748BF0A37401800574C3F0A3A1
:10256000E4F0C2AF12257275D60275E103D2AF0254
:1025700024931225797410F02290FA90E0243A12F4
:10258000354C2274F5120E3C90DF38E0FE90DF08E7
:10259000E0FF90F6B5E090FA21F024B7F582E4343C
:1025A000F6F583E0A2E7500D90FA21E06422600B7B
:1025B000E064126006122A82022A2490F876E0541F
:1025C00060FA90F6B6E0FB74206A701390F873E03E
:1025D0006B700C79007AB57BF61224E0022A1B900E
:1025E000F872E06B6003022A1B74206A700E790F88
:1025F0001219E679017AB57BF61224E07A247BF889
:10260000790612148B7508907509F67808120ED6A3
:102610007CB77DF690FA21E024FEFA7902120FA829
:102620007402120E0990F690E090FA20F090F69164
:10263000E090FA01F079067C927DF67A1A7BFA1224
:102640003C1FE0543FC394114003022A1290FA1E2B
:10265000C3E094E8A3E094034003022A1290FA1A1C
:102660007808120D037583F975829578081204A312
:10267000402A79047C957DF97A1A7BFA123C4BE961
:102680006003022A1290FA1E122A3D7583F97582A0
:1026900099C3E098A3E0994003022A12639002E5EF
:1026A0009090FA21E024B6F582E434F6F583E0F563
:1026B00008C394805013E508C313FA90FA70122AE5
:1026C0003DEAC398F8E4998017E42508F874FF13ED
:1026D000E813F890FA701234E9E8C39AF8747F9B13
:1026E000F990F9B9122A6179047C847DF87A8B7BA0
:1026F000FA123C1F90F97FE0C394035003E004F00A
:1027000079067C1A7DFA7A957BF9123C1F90FA20A3
:10271000E0702390F7B7E064FF601B90F9B31215E7
:10272000DE7401F079067C1A7DFA7A8F7BF9123C0F
:102730001FE490F98CF090FA01E0A2E750047A01CE
:1027400080027A04F8743F58F8EA28F8E43400F973
:10275000E875F0C8A4F8AAF075F0C8E9A42AF974DD
:10276000C828F8E439F990FA81122A6190FA81E0D8
:102770002438F8A3E034FFF9122A67122A6190FA8C
:1027800020E090F97DF064FF601690F97EE0C0E0F3
:1027900090F97DE0FAD0E0C39A5005E090F97EF020
:1027A00090F876E0A2E6500302286E90F8A0E0F5DB
:1027B00008F582AC82EEF83395E0F9EEC39401A2FD
:1027C000D265D0334010C3EC98E499A2D265D033DF
:1027D0005023AE08801FEEC312137B5018C3E49C35
:1027E000FAE49400FBC3E89AE99BA2D265D0335087
:1027F00004ECF404FEEFF83395E0F9EEFA3395E0DB
:10280000FBEA28F508EB39F509AA08FB121360C3A7
:10281000EA946112137A401674027808120DE7AA3E
:1028200008E509FB3395E0FCFD123B468006E50810
:1028300090DF08F090F9B5E02410F8A3E03400F937
:1028400090FA01E0A2E6501A122A67E024FBFAA3EC
:10285000E034FFFB88828983122AD0740F90F987B5
:10286000800BE490F987F088828983F0A3F090FAD6
:1028700081E02405FAA3E03400FB90F9B5E02412CE
:10288000122ACD90F876E0A2E6502190F878122A2C
:10289000B0500E122A4790F87E122A3D90FA858099
:1028A0001F90F9B3122A7EA37401801890F8791250
:1028B0002AB050ED122A5890F882122A3D90FA89D7
:1028C000E8F0A3E9F0121ECB90F976122A6190FA93
:1028D00021E024F6F91236DF90F976122A2A90F9CF
:1028E00076122AD090F7B6E0FE75F0C8A4F8A9F0E9
:1028F00090F9B5E02406FAA3E03400FB90F7B7E0C6
:10290000FF90F88FE0A2E2504D74FF6F604890FA9C
:1029100020E0C39F5040E0FCEFC39CF508E4940026
:10292000F509C3E5089406E50912137B502890FACF
:1029300081E0FCA3E0FDEC8508F0A4CCAEF08509B5
:10294000F0A42EFE8508F0EDA42EFDE82CF8E93D5C
:10295000F9122A95807490FA20E064FF6004E06F19
:1029600060EF74FF6F706474FF6E705F90FA01E047
:10297000A2E7405712350D90F983E0600314804AB6
:1029800053B4F3E5B443B404E5BDC0E090F899E076
:10299000F5F0D0E08490F898ACF0E02C90F983F05A
:1029A00090FA01E0F8743F5875F0C8A4F8A9F0E572
:1029B000BC75F00584E5F075F078A428F8E5F039E9
:1029C000F9122A95F0122A337401F08A828B83E07F
:1029D0007002A3E060457C0090FA21E0641270026E
:1029E0007C2890F876E0A2E6501090F88FE0A2E103
:1029F00050047CE4800A7CEA8006A2E550027CF662
:102A0000ECF83395E0F98A828B83E028F0A3E03973
:102A10008008122A7B7402F0A3E4F090F988E07039
:102A200006122A33A3E4F0021E88E0FAA3E0FB12A8
:102A300019C72290F9B31215CAA3A3A322122A41DF
:102A400022E0F8A3E0F922122A4B2290F880E0F865
:102A5000A3E0F990FA87800990F87C122A4190FA55
:102A600083E8F0A3E9F02290F9B5E0FAA3E0F5835A
:102A70008A82A3A3A3A3A3A3A3A32290F9B5122A96
:102A80008C22122A897405F02290F9B5122A90221C
:102A90001215D280DD749628FCE439FD90F9761287
:102AA0002A41ECC398F8ED99F98A828B83021EB60D
:102AB000E0FA3395E0FB90F9B9122A41C3EA98EBAA
:102AC0009902137D122AE3F0122AD62410123548F7
:102AD000EAF0A3EBF02290FA81E0FAA3E0FB90F990
:102AE000B5E02290F97CE090DF06F0121283E090CE
:102AF000F97C22C082C083122B247005122B2B80FC
:102B000020C2AFE490F6B5F090F6B6F0742088825B
:102B10008983F0742290DF02F075D60175E102D24C
:102B2000AF02199D122579E0641022122A897401DE
:102B3000F0A3E4F02274F1120E3C90FA36780812F9
:102B40000D038A828B83780C120D037808790C129E
:102B5000066290FAC802166174F1120E3C8A828BEA
:102B6000837808120D0378081204B390F9E1780C09
:102B7000120D037808790C1206628C828D8302167E
:102B80000174F1120E3C90F970122A3D90F9741202
:102B90002A6190F96C122A3D90F972122A6190F91B
:102BA0006E122A3D90F970122A6190F96A122A3D3C
:102BB00090F96C122A617C0579017A9F7BF9123BAE
:102BC000C47A697BF81230CB90FA32780C120D037C
:102BD0007808790C12066290F8A4780C120D03782C
:102BE00008790C12066290FA2A7808120D12123037
:102BF000C790FA2E7808120D1290FA327808120D4A
:102C00000390F9AF780C120D03780C1204B3780816
:102C1000790C120A1E90F9E17808120D127C2A7DB7
:102C2000FA7AA37BF9122C9B90FA227808120D12E3
:102C30007C2E7DFA7AA77BF9122C9B90FA267808D5
:102C4000120D1290F9DF74E4F0A374F7F090FA22F9
:102C50007808120D03AA08AB09AC0AAD0B1215A136
:102C6000123CD890F96A122AD090F9DF74ECF0A3E4
:102C700074F7F090FA267808120D03AA08AB09AC95
:102C80000AAD0B1215A1123C8F90F96E122AD07961
:102C9000147A9F7BF9123C05021675122B588A088C
:102CA0008B098C0A8D0B2274F1120E3C74FC120DF0
:102CB000FAE9851082851183F07401120E30EAF072
:102CC00090DF08E0F83395E0F990F9B7122A617EB9
:102CD000297FF97CA97DF87B087A0890FAD87808D2
:102CE000120D0390FA3A7808120D1280188C828D1A
:102CF000831230B890FA3A7808120CC4EC24020C13
:102D00000CED3400FD8A0874FF25081AE50870DD13
:102D100090FA3A7808120D038E828F837808120D8C
:102D200012EE2404FEEF3400FF1BEB70AC7C08793C
:102D3000007A297BF9123BC490F9397808120D0307
:102D400090FAD8780812047970030230B0750C003C
:102D5000750D00750E80750F3F78081204B3780C5E
:102D60007908120A1E90F9E1780C120D1290F9DF21
:102D700074FCF0A374F7F0790612160F8A088B0919
:102D80008C0A8D0B90FA367808120D1290FA36786C
:102D900008120D0390FADC780C120D037808790CF8
:102DA000120662780812052B90F9511230D190FA70
:102DB000467808120D0390FADC780C120D0378089F
:102DC000790C120662780812052B90F9531230D153
:102DD00090F9DF74C0F0A374F7F07A367BFA12161C
:102DE0007A8A088B098C0A8D0B90FA4A7808120DA2
:102DF0001290FA4A7808120D03780812052B90FAFF
:102E00003E7808120D1290FA727808120D0390F9AC
:102E1000B71234EF7402780A120DE7E50A2508FAB2
:102E2000E50B3509FB90FA3E7808120D03EAC395CD
:102E300008F508EB9509F50974027808120DC8E544
:102E40000890F8A8F0851082851183E0602890FA38
:102E500090E0243A1230F364F0701B90FA3E780848
:102E6000120D0390FA727808120CD7AA08AB09ACBD
:102E70000AAD0B123B4690FA367808120D0390F714
:102E8000D8780C120D037808790C1207E290F7D06D
:102E9000780C120D03C00CC00DC00EC00F750C00D5
:102EA000750D00750E80750F3FC00CC00DC00EC0B3
:102EB0000F90F7D4780C120D03C00CC00DC00EC0DB
:102EC0000F85080C85090D850A0E850B0F780C7986
:102ED00008120662D00BD00AD009D0087808790C05
:102EE000120662D00FD00ED00DD00C780C790812DB
:102EF00007E2D00BD00AD009D0087808790C120666
:102F00006290FA327808120D1290FA367808120D93
:102F10000390FAE0780C120D037808790C12080778
:102F200090FA367808120D1290F9E17808120D0324
:102F300090FA32780C120D037808790C1206629020
:102F4000F9E17808120D127E008E828582087509DB
:102F500000E508249AF582E434FAF583E0FF74FF73
:102F60006F700302301074027808120DE7740212B9
:102F70000E301230D190F9E1780C120D0374021268
:102F80000E30E02429F8A3E034F9F98882898378A7
:102F900008120D0378081204B3780C79081206623F
:102FA0001230D974076E600574026E701590FA4283
:102FB000780C120D031230C7780C790812066212D1
:102FC00030D98F0875090074037808120DE7E508F9
:102FD00024DCF8E50934F7F990F9DF122A6190FA58
:102FE000427808120D03AA08AB09AC0AAD0B121502
:102FF000A18A088B098C0A8D0B7402120E30E02412
:103000004EF8A3E034FAF9888289837808120D1209
:103010000EEEC394085003022F497401120E30E0E3
:103020006003122B8190FA4E7808120D03AA08ABA8
:1030300009AC0AAD0B123CD890F949122AD090FA8B
:10304000527808120D03AA08AB09AC0AAD0B123C6A
:10305000D890F94B122AD090FA627808120D03AA80
:1030600008AB09AC0AAD0B123CD890F94F122AD02C
:1030700090FA6A7808120D03AA08AB09AC0AAD0BE6
:10308000123C8F90F953122AD090FA567808120DFC
:1030900003AA08AB09AC0AAD0B123C8F90F94D1294
:1030A0002AD090F9357808120D0390F9551230D1D5
:1030B0007404120E09021675E0F508A3E0F5093351
:1030C00095E0F50AF50B227A657BF8122B35022C78
:1030D0009EE508F0A3E509F02290FA42E50CF0A382
:1030E000E50DF0A3E50EF0A3E50FF022F090FA90C5
:1030F000E02436123548E02274F5120E3C8A088925
:1031000082AC82EC24B4FEE434F7FFE9120F1D0414
:1031100006099534101507322E30C3333D4EC234A4
:103120002604953105CA310A00340B29320C2332AA
:103130000D8A340EAE3416F63117FC311A12321CD9
:1031400037321E5F321F753220A33221573223C01F
:103150003224CB3225D73226E33227FA32281633EF
:103160002929332A47332B22332C9D332DB0333179
:10317000C93332E13333E83335EE33363F3437B1D8
:10318000323845343997323A6D343B42333C7F34E0
:103190004FC734D334EA602DD293123531E4F0A313
:1031A000F090F98DE0700D12353EE07002A3E070F2
:1031B000030234D3121571E490F98DF012353EE418
:1031C000F0A30234D2C2930234D3EA6017741855C4
:1031D000907016D2931215711235317488F0A37461
:1031E000130234D2C2940234D3A29450030234D3D3
:1031F0001215710234D38508CD0234D3EA90F985D3
:10320000F01219790234D3EE24F6F582EF34FF027E
:1032100034CFEA90DF06F090F858F090F97CF0F99E
:103220001211E912351C0234D3121EA3A3A3A3A3C7
:10323000A3A374010234D2A293E492E090F86DF05B
:10324000A294E492E090F86EF0E5CD90F86FF090E3
:10325000F985E090F870F090F9B31215C680CDE4CE
:1032600090F980F074FF90F981F0E490F969F090A2
:10327000F9880234D212351C74FF90F7B7F090F73A
:10328000B6123557E490F97EF012350D90F9B5126B
:1032900015DEA3A30231BF90F982E070067401909D
:1032A000F98BF075F00A90FA8FE0A490F98202345D
:1032B000D275F00590FA8FE0A40490F9860234D21A
:1032C000EA90F871F090DF2E0234D290F876EAA2FC
:1032D000E0E092E00234D290F876EAA2E0E092E1F7
:1032E0000234D290F876EAA2E0E092E21235577901
:1032F000281219E612143B0234D390F876EAA2E0C1
:10330000E092E3F0A2E390DF0FE05005D2E7023451
:10331000D2C2E70234D290F876EAA2E0E092E40268
:1033200034D2EA90F8740234D290F876EAA2E0E05F
:1033300092E5F0EA60030234D390F97C121495020E
:1033400034D390F88F8093742A69700A90F876EAE3
:10335000A2E0E092E6F090F876E0A2E65013123593
:103360000190FA83E4F0A3123529E090F97CF08013
:10337000C890FA85E4F0A3F090F87C1234E990FA52
:1033800083122AD090F8821234E990FA89122AD056
:10339000742A6960030234D390F85880CDEA90F81B
:1033A00075121E92A2E640030234D390F858808C26
:1033B000EA90FA80F0A2E07583F8758276E092E7F1
:1033C0000234D2EE24950234CAE490F858F074FF27
:1033D00090F7B7F090F7B6F090F7B81234D61235F0
:1033E00057E490F97E0234D21234F7023231EA9077
:1033F000F88E121E92A2E640030234D3EA02336B27
:10340000EAC333F50870030234D3C3943E40030289
:1034100034D390F8881234EF7409780A120DD8E585
:103420000A6508542070030234D379281219E6A9DA
:10343000081219A2122A7B747DF0A3E40234D29000
:10344000F88F0232CE79107CBB7DF97A147BF812AA
:103450003C1F79107CCB7DF97A247BF8123C1F79D4
:10346000207ABB7BF9123C051214858066EA600B5A
:10347000C394205006EA90FA8F8057740480F79026
:10348000F88FEAA2E0E092E2804890F88FEAA2E0AA
:10349000E092E3803DEC75F005A42416FAE5F034E3
:1034A000F8FB8A828B83E508F0A3AA82AB83740EB3
:1034B0006970047A487BF879047C1A7DFA123C1F03
:1034C0008011EE24A18003EE240DF582EF3400F587
:1034D00083EAF0021E88F0A3F0740290F872F07490
:1034E0000190F873228E828F83E0FAA3E0FB22E042
:1034F000F50AA3E0F50B2290F9B51215CA7438F05D
:103500002290F87E122A4190FA85022A6112351320
:10351000E4F02290F9B31215CE022A7690F7BEE0BD
:10352000F5BC90F7BFE0F5BC22F0122A4B90F88E64
:10353000221235352290F9B5122A90A3A32290F9D0
:10354000B5E024141235482212354C22F8A3E03499
:1035500000F98882898322F0123513A3A37401F045
:103560002274F8120E3CEAFEEBFFFAE9120F1D017D
:10357000040CC33505018635028B350398350DA63D
:10358000350EB435D93590F7B88049EE540F90F721
:10359000B6F0EA90F7B78040EE90F872F0EA90F853
:1035A000731235DC8032793C1219E68E828F8312D9
:1035B0000E3A8025EE90DF01F0EA90DF00F090F8FF
:1035C0000C8011E9C333F8E433F9E82474F582E997
:1035D00034F8F583EEF0A3EFF0022493F090F87244
:1035E000E090DF052274F1120E3C74FE120DFA8594
:1035F0001082851183122AD089087E007F00890AF3
:103600008E0B7402780A120DE7E50A24B4FAE50B72
:1036100034F7FBE9120F1D0401042E360506383677
:103620000A153D36191AB83601189136C036EA2403
:1036300008FEEB34000236BFEA249D80F4740E6568
:1036400008700979047ADB7BF9123C0574F62508C9
:10365000F508C313F50A8E0B7403780A120DE7E51B
:1036600008A2E0E492E0F50C8E0D7402780C120DC5
:10367000E7E50C24DCF8E434F7F9E50A28FEE50B6D
:1036800039FF74046508703890F985E01219798063
:103690002F8E0C8E0D750E80750F3F851082851153
:1036A000831215C67808120D03780C7908120A1EC9
:1036B00090F8A4780C120D12EA24BCFEEB34FFFF44
:1036C000EE7001EF60147904851082851183E0FCAF
:1036D000A3E0FDEEFAEFFB123C1F74020230B2745D
:1036E000F2120E3C890C7E987FF6750901750B006D
:1036F000802DE0F508A30EAF837906EEFCEFFD7A8E
:10370000BA7BF7123C4BE9700E740F550A90F7B66E
:10371000F0E50890F7B7F0EE2406FEEF3400FF8ED8
:10372000828F83E0FA7003023915AB0C74FF2BF51E
:103730000CEB70030239158A0AA3AE82AF8374F0D2
:10374000550AF50874F0650860A890FA80E06402F4
:103750007003123A008E828F83122A3D90FA6E1205
:103760002A611239DAEE2402EF3400F97403550AA3
:10377000F50E120EE70003ED3781378637A237CA00
:103780003775090180671234E590F7B8E06A700375
:10379000A3E06B70047A0180027A008A090E0EE9B8
:1037A000804A8E828F83E0FA90F7B7E06A70128EBB
:1037B000828F83A3E0FA90F7B6E06A70047A018002
:1037C000027A008A0985090B80D37906EEFCEFFDA9
:1037D0007ABA7BF7123C4BE970047A0180027A00D6
:1037E0008A0985090BEE2406FEEF3400FF85090DDA
:1037F000E5096009123A0E50047A0180027A008AC3
:1038000009E508120F1D000710443820BB38501F6F
:103810003860CA38701839801839905A39C939E572
:103820000960167403650E70107906EEFCEFFD7AE0
:10383000BA7BF7123C1F123558EE2406FEEF340017
:10384000FF0239C990FA80E0FA90F876E0A2E7E446
:1038500092E06A601090FA80E0A2E07583F87582C9
:1038600076E092E7F01239F3740C550A120F1D003E
:1038700003007C38048E3808A838C939E509600986
:10388000EEFAEFFBA9081235E5EE240480AEE50957
:10389000600B8E828F83E0FAA9081230F88E828F37
:1038A00083A30EAF830239C9E50960081234E5A984
:1038B00008123561EE24020E0E8082E509700302C3
:1038C00039C9793C1219E6123B41E50D604790F881
:1038D00076E0C2E7F01239F31234EFC394044035B6
:1038E00090F889E0650BF9744059F9E47001E960DA
:1038F00024C3E50B947C501D1239DAE508A2E05090
:10390000020508793C1219E6A908AC0AAD0BEEFADB
:10391000EFFB1210CC0221ACE50B60F97AE07B03DF
:103920001214897AF07B03790612148B748065086F
:1039300070087508CB7509F980067508BB7509F91B
:103940007808120ED6EEFCEFFD7A107902120FA85D
:103950007402120E0912148580BBE50B606B8E8217
:103960008F83E0F50AA3E0A3AE82AF8390F88EF0D8
:1039700090F858F08E828F83E090F8721239E490BC
:10398000F8731239E490F7B71239E9122A3D90F72B
:10399000B8122A61740F550A90F7B6F0E50A1313AE
:1039A000543F540CC0E090F876E054F3FAD0E04A6B
:1039B000F090F88FE50AA2E6E092E112355790F810
:1039C00058E0F91211E9121495123A0E4003023729
:1039D0001F90F978122A6102371FEE24020E0EEFB3
:1039E0003400FF221239E9E022F08E828F83A30E89
:1039F000AF83228E828F83E0F508A3AE82AF83224D
:103A000090F876E0A2E7E492E090FA80F02290FA53
:103A10006E122A417583F9758278C3E098A3E09904
:103A20002274F8120E3CE9FE742390DF0FF07459F3
:103A300090DF10F079097CF57DFA7A177BDF123C74
:103A40001F79037C037DFB7A237BDF123C1F7445C7
:103A500090DF11F0740A90DF07F090FA707447F06D
:103A6000A3E4F0EE120F1D00040CCA3A19773A1EB7
:103A7000F93A32773A193B79037CE47DFA7A0C7B88
:103A8000DF123C1F74196E6021741090DF07F07410
:103A90000E90DF0CF0744390DF0FF074EA90DF1C9F
:103AA000F090FA707448F0A3E4F0E490DF11F07441
:103AB0008890DF23F0743190DF24F079057CFE7D5F
:103AC000FA7A157BDF123C1F804F740890DF07F0F5
:103AD00079037CE77DFA7A0C7BDF123C1F745690E9
:103AE000DF1AF0741690DF15F0746C90DF16F0900A
:103AF000FA70744AF0A3E4801F79037CEA7DFA7AB5
:103B00000C7BDF123C1F79057CED7DFA7A157BDF9B
:103B1000123C1F74EA90DF1CF079037CF27DFA7A84
:103B2000127BDF123C1F79037A2F7BDF123C057971
:103B3000037C067DFB7A027BDF123C1F7F01020EB5
:103B40009B75C90B80FE74F5120E3C74FC120DFAC5
:103B50008A088B098C0A8D0BC2AF90DF0BE08510B1
:103B600082851183F090DF0AE0C0E07401120E300C
:103B7000D0E0F090DF09E0C0E07402120E30D0E037
:103B8000F08510828511837808120CC48510828517
:103B90001183E090DF0BF07401120E30E090DF0A29
:103BA000F07402120E30E090DF09F090FA7278089B
:103BB000120CC4E490DF08F0D2AF7404120E097F37
:103BC00004020E9B74F3120E3C8030740369602A69
:103BD000EA240CF582EB3400F5837808120D038992
:103BE0000C750D007402780C120DE7EA250CF582B5
:103BF000EB350DF5837808120CEF09E9C39C40CB37
:103C00007F06020E9BC082C083800BE48A828B8376
:103C1000F0A3AA82AB83E91970F1D083D082227419
:103C2000F8120E3C801C8C828D83E08A828B83F09C
:103C30008C828D83A3AC82AD838A828B83A3AA827C
:103C4000AB83E91970E07F01020E9B74F7120E3C02
:103C50008908AE0874FF2EF508EE602CEAF8EBF93F
:103C600088828983A3AA82AB83ECFEEDFF8E828FCC
:103C700083A3AC82AD8388828983E0F88E828F83B0
:103C8000E06860CE7901800279007F02020E9B74A9
:103C9000F1120E3C8A088B098C0A8D0B78081205EC
:103CA0002B90FB09780C120D03780C790812048E06
:103CB00040067AFF7B7F801B90FB0D780C120D0372
:103CC000780C790812048E50067A017B808004AA51
:103CD00008AB097F08020E9B74F1120E3C8A088B18
:103CE000098C0A8D0B780812052B90FB11780C12A9
:103CF0000D03780C790812048E40067AFF7BFF8052
:103D00001B90FAD8780C120D03780C790812048EE7
:103D100050067A007B008004AA08AB0980B56D4E7E
:103D2000C641393000001EF00268107800DC001433
:103D3000001E00030090010400F5B1B2B3B4B7B0A7
:103D4000B5B6000102FFFF03FF05414E4453006C6E
:103D50006172417567757374000741756775737497
:103D600000074175677573740007646AAA04FE0151
:103D70000000803F000080C00000003F0100000004
:103D8000000000000000C8420000C8C11D55736952
:103D900007026A48131D1CC700B207301443409144
:103DA000B610A90A00111D1CC740B2813509228531
:103DB00045008000000180FFFF00000100FFFFFFC1
:103DC000FFFFFFFFFFFFFFFFFFFFFFFFFFFFFFFF03
:103DD000FFFFFFFFFFFFFFFFFFFFFFFFFFFFFFFFF3
:103DE000FFFFFFFFFFFFFFFFFFFFFFFFFFFFFFFFE3
:103DF000FFFFFFFFFFFFFFFFFFFFFFFFFFFFFFFFD3
:10400000E490F69078E779048002F0A3D8FCD9FA1E
:1040100090FA76AA82AB8390791E78A079018015F8
:10402000E493A3AC82AD838A828B83F0A3AA82AB94
:10403000838C828D83D8E9D9E7125AE012406B75E0
:10404000D0007581807510907511F602400043AE66
:104050000222E5AE20E7FBC2AF89AD75AB2143AECE
:104060000100D2AF22E5AE20E7FB2280FEFFFFFF7A
:10407000FFFFFFFFFFFF02403FE066701008A3E074
:1040800066700A08A3E066700408A3E06622C3E72E
:10409000960809E7960809E7960809E796A2D26507
:1040A000D03322C3E09608A3E09608A3E09608A3C5
:1040B000E09622080808E630E7111248841240CB47
:1040C000080808C64480C618181822181818E97974
:1040D0009EC608CAC608CBC608CCC6C3702079964F
:1040E000CACBCC7019798ECBCC70137986CC700E7C
:1040F000F9802ACA33CACB33CBCC33CC331930E75F
:10410000F2CCCBCA3350147004EA30E00DE4CA3A62
:10411000CACB3BCBCC3CCC500209C3E913C6CC186C
:104120002313C6CB18C6CA18C6F92212416B20F059
:104130001430E72B74FFFCFBFA747F8022E4FCFB55
:10414000FA7480801AB48008BC00F2BB00EF800FC4
:1041500050EBF9E4C39AFAE49BFBE49CFCE499C6B7
:10416000CC18C6CB18C6CA18C6F922E4C9C608CAF4
:10417000C608CBC6D3330308CCC63392F0C3947FB2
:10418000402E94184019C9B90704CACBCC22502537
:10419000C309CA33CACB33CBCC33CC33D9F422F4E2
:1041A000600DC9CCC313CB13CBCA13CAD9F6CC222A
:1041B000E4FCFBFA2214FCFBFA22E6C3331846188F
:1041C00046184622E7C333194719471947221818DA
:1041D00018E6084608700AE608C3337005E633F4AB
:1041E000220822191919E7094709700AE709C33398
:1041F0007005E733F4220922E6084608C31346088F
:10420000336002E633F422E7094709C31347093351
:104210006002E733F4221241F8601B124207601675
:104220001241BA70071241C4600CB322C0D01241CF
:10423000C47005D0D022C32233D0D0501330E0EB6D
:10424000C3E7960809E7960809E7960809E7962262
:1042500020E0E4E6970809E6970809E6970809E6EA
:104260009722001241F8604F1242076012E7548013
:1042700066F61241CE70111241C4703B090909F46F
:10428000F618F618F618F6221241E370151241BA24
:1042900008080860EAE6447FF618768018E4F61805
:1042A000F6221241BA60161241C47012E4F608F602
:1042B00008F608E65480F609090918181822EAC019
:1042C000E0EBC0E0ECC0E0EDC0E0E687F0A4FBACC2
:1042D000F008E687F0A42CFCE435F0FA1809E6872C
:1042E000F0A42C4B60027401CA35F0FCE433FB09E6
:1042F000E687F0D2F7A42CCB35F0FC1908E687F05E
:10430000A42BCC35F0FBE433FD0819E687F0D2E7A7
:10431000A42C4ACB35F0CD3400FC09E687F0D2E777
:10432000A42DCC35F0FDE433FA0918E687F0D2F776
:10433000A42CCD35F0CA3400FC08E687F0D2E7D2D1
:10434000F7A42ACC35F07A7E20E70B0ACB33CBCD0D
:1043500033CDCC33CC33CB3350147004ED30E00E7E
:10436000D2F1E4CD3DCDCC3CCC3B5005DA05C2F1D9
:10437000EB547FC63308E63392F0FBE73309E733AB
:10438000C39A502D2B70190C0D4C4D70151806E664
:1043900008C333700D20F10AA2F013F6E418800B65
:1043A0004024E4F630F002768018F618F618F6800D
:1043B00024D33B14501074FFA2F013F6187680E457
:1043C00018F618F6800FA2F013F618E63303F61865
:1043D000ECF618EDF6D0E0FDD0E0FCD0E0FBD0E04C
:1043E000FA2212420760461241F8603DE9687008FF
:1043F000F618F618F618F622748067F712441609B4
:104400000909748067F7221241F8601D1242077093
:1044100005191919801A1241CE701F1241E3C37099
:1044200003E66733191919400718181822080808F5
:1044300074FFF618F618F618F6221241E360171208
:1044400041C4702192F01241BA7019501720F01433
:10445000080808090909E7F61819E7F61819E7F630
:104460001819E7F6221241BA60E6E869701F0808D9
:10447000E62480F608E436F618547FB47F0CE65440
:10448000806007F6E418F618F622181822E9C6CC60
:1044900008C6CD08C6CE08C6CFC0E0E8C0E0EAC076
:1044A000E0EBC0E009E9F809E7FA09E7FBE6F918EB
:1044B000E6F8C3EC98ED99EE9AEBC2E7F5F0EFC29F
:1044C000E795F0500E600CEBCFFBEACEFAE9CDF9A0
:1044D000E8CCF8EAA2E7D2E7FAEB33FB13F5F0EE0B
:1044E000A2E7D2E7FEEF33FFC5F013A2E730E60103
:1044F000B313C5F0C3C0E0C0F07F00C39BFB605B9B
:104500009418600C401AD0E023F9D0E0F80245E599
:104510008AF0E9486003D2F0E4AFF0FAF9F8803BA2
:10452000EB30E40D89F0EA6003D2F0E4AFF0F9CAB1
:10453000F8EB30E30D88F0EF6002D2F0AFF0E4CAA0
:10454000C9F8EB54076014FBC3EA13FAE913F9E85E
:1045500013F8EF135002D2E0FFDBEDD0E0C0E03003
:10456000E739C3E49FFFF5F0EC98FC42F0ED99FDCC
:1045700042F0EE9AFE42F0D0E0F9D0E0F8E5F060CB
:104580007AE923F9EE20E742D8028067C3EF33FFD0
:10459000EC33FCED33FDEE33FE80EAEC28FCED3924
:1045A000FDEE3AFED0E023F9D0E0F84002801BC3D4
:1045B000EE13FEED13FDEC13FCEF135002D2E0FFFF
:1045C00008B800067F7F74FF802EEF3350178CF001
:1045D00020F00260100CBC000C0DBD00080EBE00E7
:1045E0000408E860DFE933E813FFEE2313FE4F4DC4
:1045F0004C8008E95480FFE4FEFDFCEE33EF33F419
:104600007004FCFD7E80D0E0FBD0E0FAD0E0F8D072
:10461000E0CFC618CEC618CDC618CCC6F9221241B6
:10462000F8700418181822124207700D74FFF6185B
:1046300019F61819F61819F622E7548066F6124191
:10464000BA700F1241C470F014F608F608F608F6B6
:1046500080D11241C4700CF608F608768008E64452
:104660007F80EC1241E6700C1241D160BFE65480AD
:10467000F6E480BB1241D1700519191980A5E869CB
:10468000700C763F18768018F618F6E8F922E6CD19
:10469000C0E018ECC0E0E633CD33CDD313F6E71914
:1046A000FCE7191933CC33C3947F400ECD9D5024C1
:1046B00008E65480F6E418F6800FF4043D14501414
:1046C00008E6447FF6187680E418F618F6D0E0FC89
:1046D000D0E0FD22CCD313CCFD18E4C6CBC0E0184B
:1046E000E4C6CAC0E00808ED08C633E613F618E4CD
:1046F00033C675F003C3CA97CA09CB97CB199C4040
:10470000047D08802EBD00030247C716B6FF0506CC
:1047100006081618C3CA33CACB33CB33CA27CA0913
:10472000CB37CB193CC37D08803E187D0820E75C61
:10473000C633C6CA33CACB33CB33DDF1D5F0EB3049
:10474000E77BCA97CA09CB974ACB199C406F4B703D
:1047500025E620E0218066187D08C3CA97CA09CBE8
:1047600097CB199CD3C633C6CA33CACB33CB33508D
:10477000C9DDE7D5F0E1D3E4C636C608C636C608BB
:10478000C636C608C636C61818188031C3CA97CAB6
:1047900009CB97CB199CB34097C633C6CA33CACB53
:1047A00033CB33DD34D5F02EC6A2E0C640C8CA27CD
:1047B000CA09CB37194A70BECB3CB480B90808E6A9
:1047C0003308E633601F181818D0E0FAD0E0FBD0A9
:1047D000E0FCD0E0FD22187D08CA27CA09CB37CB00
:1047E000193CD3808013F618E4B67F11F618B6FF93
:1047F0000EF618C60470D20808768080CAF618F63D
:1048000018F680C5080808EAC0E0EBC0E086F0E7CB
:10481000A4FA180986F0E7A42AFA180986F0E7A492
:104820002AFA180986F0E7A42AFA1986F0E7A4FB09
:10483000E5F02AFA190886F0E7A42BFBE5F03AFA2E
:10484000190886F0E7A42BFBE5F03AFA1818098658
:10485000F0E7A4C5F02BFBE43AFA1908E7C5F0C667
:10486000A426F6E5F03BFBE43AFA1886F0E7A4F656
:10487000E5F00826F6E43B08F6E43A08F6D0E0FB5B
:10488000D0E0FA22181818E4C396F608E496F60861
:10489000E496F608E496F6226016080808C6C313E4
:1048A000C618C613C618C613C618C613C6D5E0EA7E
:1048B00022E026F608A3E036F608A3E036F608A3C1
:1048C000E036F622E026F008A3E036F008A3E03652
:1048D000F008A3E036F022C3E0C696F608A3E0C6CF
:1048E00096F608A3E0C696F608A3E0C696F622C39D
:1048F000E096F008A3E096F008A3E096F008A3E0A5
:1049000096F022E0F608A3E0F608A3E0F608A3E09C
:10491000F622E6F008A3E6F008A3E6F008A3E6F026
:1049200022CAC0E0E6F0A308DAFAD0E0FA22C3E433
:1049300098F8E499F912496F8026C3E49AFAE49B47
:10494000FBE920E7E912496FE498F8E499F922C3FA
:10495000E498F8E499F912496FE498F8E499F9C3F6
:10496000E49AFAE49BFB22EB20E7CFE920E7E0B9E9
:104970000010BB0008E88AF084F8AAF022E4FBC823
:10498000FA22EB70227B10C833C8C933C9335007F1
:10499000C39AC3DBF280069A50012ADBEAC833F4DB
:1049A000C8C933F4C9FA2275F008E4C833C8C9335A
:1049B000C933C99AC99B5004C92AC93BD5F0ECFB3D
:1049C000C833F4C8E4C9FA22600D08C6A2E713C6CA
:1049D00018C613C6D5E0F322600C08C6C313C61868
:1049E000C613C6D5E0F422700422600D18C6C33386
:1049F000C608C633C6D5E0F418222510C0A8C2AF39
:104A000040021511F510D0A822C0D02510C0A8C2B0
:104A1000AF50020511F510D0A8D0D0222510F58294
:104A2000C0A8C2AF40021511F510D0A8851183228D
:104A30002510F582E43511F58322E4732510C58233
:104A4000C0E0E51134FFC583C0E0E510C3958224C2
:104A5000F9C0A8C2AF858311858210D0A8CEF0A37B
:104A6000E520F0A37808E608F0A3DEFAEFF0A3E56E
:104A70008124FBF8E608F0A3E608F0A30808E6089E
:104A8000F0A3E608F0A315811581D0E0FED0E0F890
:104A900015811581E8C0E0EEC0E022851183851004
:104AA00082E0A3FEE0A3F5207808E0A3F608DFFA91
:104AB000E0A3FFE0A3C0E0E0A3C0E0E0A3C0E0E02B
:104AC000A3C0E085A8F0C2AF85821085831185F070
:104AD000A8D083D0822274028000C0E0F404124A7D
:104AE0001CD0E012492122D083D082C5F0E493A3E8
:104AF000C5F0C395F0F5F0E493A3C395F04005E548
:104B0000F0048001E475F002A42582F582E5F03519
:104B100083F583E493A3C0E0E493C0E022D083D084
:104B200082CCC0E0E493A36006124B471470FAE411
:104B300093A36006124B661470FAD0E0FCE493A3D2
:104B4000C0E0E493C0E022C0E0E493A3D39C501003
:104B5000E493A3C39C400AD0E0D0E0D0E0024B3AFB
:104B6000A3A3A3D0E022C0E0E493A36C7009D0E03B
:104B7000D0E0D0E0024B3AA3A3D0E022C082C083B1
:104B8000740149F5B37C10800C8A828B83E0F5B107
:104B9000A3AA82AB83EC1C70F0D083D08222800168
:104BA00000E5B3A2E350F92274F7124A3C8908ECFD
:104BB000FEEDFF7409124A30E0F8A3E0F98882891B
:104BC00083EAC4540FF5098015E5B2F0A3EB1B701E
:104BD000F8124B9E1509EE2410FEEF3400FFE50994
:104BE0006016EEFAEFFBA908124B7C7B0C800100EB
:104BF000EB1B70FB7B1080D57F02024A9BC082C0FA
:104C000083EB90F707F0EA90F708F0D083D0822288
:104C1000C082C08390F706E054F0F0741390F7055B
:104C2000F074DF90F6FFF074D990F700F074F6900E
:104C3000F701F074B590F702F0748090F703F07408
:104C40002590F704F0741090F706F074F6F5D5751A
:104C5000D4FF90F70EE054F0F0741390F70DF07459
:104C6000F690F707F074DA90F708F074DF90F70920
:104C7000F074D990F70AF0742090F70BF074239039
:104C8000F70CF0744090F70EF090F716E054F844EB
:104C900008FAF0741290F715F090F713E0541FF033
:104CA00074DF90F711F074AF90F712F0E490F713FF
:104CB000F090FA7FE090F714F0740F5A444090F7A8
:104CC00016F074F7F5D375D207024C0B74F6124A3E
:104CD0003CEAFEEBFF8C088D09890A90F718E0602A
:104CE000047900804612406575AB2AEF90F70FF00B
:104CF000EE90F710F090F713E054E0F0E50A90F72B
:104D000014F0AA08AB09740978081249D8E508F527
:104D1000ADEBC313EA13F5AC53D1FBD2B875D6048F
:104D2000740190F718F012404E79017F03024A9BFC
:104D3000C082C08390F719E4F0A3F07980FC124D93
:104D40007FD083D08222C082C083C2B8E490F7189B
:104D5000F090F717E0602690F719E02480F0A3E0C8
:104D60003400F0E490F717F0C390F71AE094805005
:104D70000C798090F719E0FCA3E0124D7F80C2FD12
:104D80007A1B7BF712781F798090F719E0FCA3E07B
:104D9000FD7A1B7BF7124CCCE990F717F022EEC09E
:104DA000E07E7FE9601643C64080057902124DDD42
:104DB000E5BEA2E54020EE1E70F1801A53BEFB80D6
:104DC000057902124DDDE5BEA2E64004EE1E70F14B
:104DD0000053C680E5C643BE04D0E0FE227A177BAE
:104DE000FF00DBFDDAF9D9F52274F1124A3C7C1997
:104DF000800F75F00AECA429C0E0EC124EC1D0E09F
:104E0000F0EC1C70EDE9F508750900750A00750BEA
:104E1000007C0090FA76780C1249037808790C121D
:104E2000480490FA7A78081248B185080C85090D73
:104E3000850A0E850B0F7410780C12489874FF5574
:104E40000CF8747F550DF97A197B0012496F8C0CA0
:104E5000E50C249BF8E434F7F988828983E0FDEAC5
:104E6000249BFAE434F7FB8A828B83E0888289836F
:104E7000F0ED8A828B83F00CECC3941940957F0887
:104E8000024A9BC082C0837B19EB1B8B82A8826085
:104E90000C90DF06E0FAE8124EBC6A70EC75E10493
:104EA00074012808E43400F97A197B00124967EA92
:104EB000124EBC90DF06F0D083D08222124EC1E0A9
:104EC00022249BF582E434F7F5832274F1124A3CE4
:104ED000E9FA90F9DB780C12490390FAC8780812C5
:104EE0004903780C7908124216503290F7EC780C8E
:104EF00012490390FACC7808124903780C79081209
:104F00004407750B40750A7B75098575081F78087D
:104F1000790C12461E90F9DB78081249128A08753E
:104F20000900750A00750B0078081240CE90F9DB75
:104F3000780C1249037808790C12426290FAD07802
:104F40000C1249037808790C124407780812412B97
:104F5000A808C3E5099401400278FFE8F9025275F8
:104F6000C3EA9401124F7A4005EAF8EB8006C3E4E5
:104F70009AF8E49BF9E8FAE9FB22EB9400A2D265E7
:104F8000D0332279037CC27DFA7A097BDF12781F45
:104F90002274F8124A3CE9FEEAFF8B08C2AF1250B5
:104FA0009B539BFCE59B53E9EF75911074326E7037
:104FB0000C90F88FE0A2E1500479198002EEF9120A
:104FC0007621EF90DF06F074326E700590F87580F0
:104FD0000390F871E090DF2EF0E50890DF0F600598
:104FE000E0D2E78003E0C2E71271DCF090F80CE059
:104FF00090DF01F090F80DE090DF00F0439A01D2CD
:10500000AF026093C082C08390F876E0A2E65004BD
:105010007432800AA2E25004740C8002741E90FA6A
:105020007E125A92544860047B0180027B00E9FAA8
:1050300090FA7EE0F9124F9102559DC082C08375AF
:10504000D68312509B79047A727BFA127805E49029
:10505000DF08F0124F83741490DF14F012508512A1
:10506000509279067A957BF912780590F978E4F0F8
:10507000A3F090F988E060077A0079011268A7121E
:10508000672B02559D7A147BF87904124B7C124BE6
:105090009E2290F97CE0F91250042275E10412611D
:1050A0007974F0F022C082C08375D683E9601E90C7
:1050B000F876E0A2E640167B0190F874E0FA7932C7
:1050C000124F9190F873E090DF05F0800312509238
:1050D00002559D74F1124A3C75FD00758FFFE5F293
:1050E00075F2FF7A00750801750900EA780812491F
:1050F000E7E50845F2F5F20AEAC3940840E775F4DB
:10510000C075FEDB75CB7075CC2475CE2475F1208F
:1051100075F520D29379107A597BF912780575F3D9
:10512000007900124D9EE490DF08F090F858E0F905
:10513000124DE9124C10124F8312509275080075EF
:105140000900750A80750B3F90F7D0780C1249035F
:105150007808790C12461E90F8A4780812491212A9
:10516000557143CB14E5CBD2B9D2A9439A0102526F
:1051700075C082C08390F893E0FA601590F86FE0F4
:10518000FBEAC39B5003EA8001EBFC8CCD125ABBB7
:10519000F0D29402559DAA0CAB0DAC0EAD0F02528D
:1051A0007574F1124A3C8A0C8B0D8C0E8D0F1251C6
:1051B000C378081249037808790C1242621251DB55
:1051C00002526190F9DF1251CA221251CE221251BD
:1051D000D222E0F8A3E0F58388822290F9DF1271F1
:1051E000162274F1124A3C8A0C8B0D8C0E8D0F1214
:1051F00051DB78081249037808790C1243E2125106
:10520000C3780C1249037808790C124262805E74EC
:10521000F1124A3C8908750900740278081249E7BE
:10522000E5082429F582E50934F9F583780812495F
:105230000378081240B390F7D0780C12490378082D
:10524000790C12426290F9E1780C124903780879DE
:105250000C124262AA08AB09AC0AAD0B1251E280F3
:1052600014780C1249037808790C124407AA08AB89
:1052700009AC0AAD0B7F08024A9B74F1124A3CEA62
:10528000FCEBFD1251C3780C1249037A018C828D1C
:10529000837808124903780C79081242628A0875EB
:1052A0000900740278081249E790F9DFE02508FB4D
:1052B000A3E035098B82F5837808124903780C79CD
:1052C000081244070AEAC3940440C202519674F1DA
:1052D000124A3C8A08EBF5093395E0F50AF50B789C
:1052E000081240B390F9E5780C1249037808790C5C
:1052F000124262AA08AB09AC0AAD0B1251A10252CC
:1053000075C082C08390FA7FE0A2E0500204F012E0
:105310005A9812781F90F80CE07002A3E070287978
:10532000087A0C7BF812780590F80C74F0F0A3F072
:10533000740690F810F0E490F8A1F0747890F8A258
:10534000F0746490F8A3F0E490F98E02559C74F127
:10535000124A3C90F7D0780C12490390F9F112559B
:10536000811240B3780C790812461E90F9E5780C4A
:1053700012491290F9DF74F4F0A374F7F090F9F386
:105380001270E91252CE8A088B098C0A8D0B7808AC
:1053900012412BAE08AF09A2934041A294501A903B
:1053A000F8A3125565EE98EF99500E12713E74985D
:1053B000F0A3743AF0C2948023A294401F90F98D18
:1053C000E0601990F8A2125565E89EE99F500DE43F
:1053D00090F98DF0125AD5D293125171E490F98957
:1053E000F090F810E06022F875F0E8A4C8AAF07513
:1053F000F003A42AFAE42AF9EE98EF9950047A010E
:1054000080027A00EA90F989F090F8A1E060727564
:10541000F064A4F8AAF0E42AF9EE98EF9950047A1F
:105420000180027A00EAFB90F98EE07045EB60574C
:1054300074FF90F858F090F97C125A925407440483
:10544000F0E490F7B7F090F7B6F090F810125A9297
:10545000C2E0F079207CA27DFA7A147BF812781FE2
:1054600090F80C74F01270D6F090F98EF012503B58
:105470008015EB701212530190F858E090F97C807F
:10548000EB90F98EE070EE90F9DF74FCF0A374F706
:10549000F090F9F51255811240B390F9E5780C12AD
:1054A00049037808790C124262AA08AB09AC0AAD2C
:1054B0000B1251E28A088B098C0A8D0B7808124175
:1054C0002BAA08AB0990F897E0F508700302556223
:1054D00074FF6508700302556290F9F9E07002A349
:1054E000E0600990F9F912565BF080767509007456
:1054F0000378081249E790F9F9126CD190F9FBE0B2
:10550000602B90F896E0F8C3EA98124F7A5010A2F8
:10551000944003125171125571E490F9FB80CAA2B4
:1055200094503F90F985E0603914F08032A2945095
:105530003190F895E0C39AE49BA2D265D033502213
:1055400090F89AE0FB90F985E0FAEBC39A5003EBF0
:105550008002E014F0740190F9FBF090F985E012FC
:105560005579025275E075F064A4F8AAF0E42AF9BE
:105570002290F870E090F985F0F9124ECBE9F5CF62
:1055800022126CB8780822C082C0838A828B83E0A2
:105590006006E4F07901800279008001F0D083D0C8
:1055A0008222C082C08312405290F9B5E0241012CA
:1055B0006CF37002A3E0600D90F876E05450641034
:1055C00070031266C480D6C082C083125ACBC3E86F
:1055D0009AE99B500874FF281874FF39F9E8C39AB8
:1055E000FAE99BFB80B774F7124A3C90F9B5E024C6
:1055F0001CFAA3E03400FB890874012508F8E434A0
:1056000000F98A828B83126661800675C9A875C904
:10561000588A828B83C3E09401A3E09400C365D0D1
:105620003350E88A828B83E4F0A3F07F02024A9B26
:10563000C082C0838A828B83E07002A3E060178AF5
:10564000828B8312565BF08A828B83E07002A3E028
:10565000700479018002790002559DE024FFF0A3D7
:10566000E034FF2274F5124A3C7F03EF1F7E007086
:105670000302591C80177A897BFA125A8D6007122F
:1056800066E3125AACF00EEEC3941050DEEEF890C2
:10569000F9B3E028126CF360EDE4F0EE124AE70192
:1056A0000A86568557BE566C57725786565557868A
:1056B00056B956A55786569F57124D3080C87A8ADC
:1056C0007BF9125587E96005E490F6DAF090F89DD1
:1056D000E0604C90F9FFE060467AC57BFA124BFD22
:1056E000C2AF740190FA00F090DF06E090F9FEF08E
:1056F000740490DF14F090F89DE0FA90DF06E06A01
:10570000F012617290F9B5E0240E125C1C7405F081
:10571000A3E4F075D60290F9FFF0D2AF025686905E
:10572000FA00E0600E90F9FEE090DF06F07414904D
:10573000DF14F090F876E05460642070077901126D
:1057400050A5800B90F88FE0A2E34003025686122A
:1057500066F302568690F9B5E02418125C1C747D3D
:10576000F0A3E4F0793E1255A20256861260AB0215
:105770005686125DF490F99D12662A90F99BEAF024
:10578000A3EB02568590F88FE0A2E350031266F374
:10579000125ACB90F99D12666112618302568612ED
:1057A000534E02568690F988E0607790F97DE06468
:1057B000FF606FE0FA90F97EE06A705A90F98CE031
:1057C00060547A0090FA8112663D90F993E028F0D7
:1057D000A3E039F090F993C3E094E9A3E094034087
:1057E0001C90FAD4780812490390F98F780812486F
:1057F000C490F993E02418F0A3E034FCF00A90F987
:105800007EE0C39A50BE90F9B9E4F0A3F0125DF4C3
:10581000E490F97D800590F97DE004F0740190F941
:105820008CF07A8B7BFA125A8D600F12503B90F8F5
:105830008412663D90FA8B1266617A8D7BFA125A59
:105840008D600B90F876E0A2E0500312774190F95A
:105850007AE02401F0A3E03400F090F97AC3E094F8
:10586000E9A3E094034007E490FAC7F0800990FAB6
:10587000C7E0600302568690F876E0A2E740030294
:105880005686A2E650547A857BFA125A8D601C1215
:10589000665890F876E0C2E6125AACF090F858E0FC
:1058A00090F97CF0F91250040256867A877BFA123E
:1058B0005A8D700302568612664790F97CE0F89084
:1058C000F892E028F8E43400F97AFA7B001249678C
:1058D000EA90F97CF090F88E80C97A837BFA125AAC
:1058E0008D700302567612710190FA89E4F0A312CA
:1058F0005A92D2E6127129E064FF700890F858E0DD
:1059000090F88EF0E090F97CF090F9B5E024101258
:105910005C1CE4F0A3F090F97CE08088EEC333F8DF
:10592000E433F990F9B5E028F8A3E039F9888289E1
:1059300083C3A3E0124F7B4003025A7E888289838F
:10594000E4F0A3F0EE124AE7020D7E5A6859775947
:10595000365AA059AD59D559095A455AA559405AF0
:10596000FE597E5A7E5A545A75C9A875C958125C98
:1059700012A37401025A7D90F982E0600A14F0705B
:105980000EE490F98B800790F986E0600214F079BC
:10599000007ADA7BF61260E0740190F98A025A7D8F
:1059A000C293025A7E740190F98D025A7D90F86D6F
:1059B000E0700D90F86EE0600BD293125AD580061D
:1059C000D2938002C29390F86EE07003025A7E1266
:1059D0005171025A7E1267246003025A7EC2AF746C
:1059E000F0F053E9EF539BFCE59B75911075E104D2
:1059F00075D682125AA37401F0D2AF025A7E90FA81
:105A00007F125A98124CCC807590F876E05450640E
:105A100010702390F987E0FA74FF2AF0EA600B1205
:105A200066C412667BE4F0A3800B90F858E090F90E
:105A30007CF090DF06F079001250A51266F3803EEC
:105A4000125C208038125C0C1266CD90F9B312669D
:105A50007E02597190F86FE0FBE5CDC39B501F901B
:105A6000F89EE0FCE5CDFAEC70057C0180010AECC3
:105A70001C6005EAC39B40F68ACD125ABBF00EEEBD
:105A8000C39410500302591C7F04024A9B125630E3
:105A9000E922F090F876E022E0F97C007D7C7AB48F
:105AA0007BF72290F9B31251CAA3A322F090F88297
:105AB00012664190FA89E8F0A3E92290F9B5E02452
:105AC0001E1271487488F0A374132290F9FC1251CD
:105AD000CA126641221271357488F0A37413F02241
:105AE00090DF36E06481600312774190FA90E02401
:105AF00030125C1C742FF0A3745C125C062432120A
:105B00005C1C7462F0A3745C125C062434125C1C8E
:105B10007446F0A3744D125C062437125C1C7401A9
:105B2000125C062420F8A3E03400F990F9B3126661
:105B30006190FA9012663D90F9B512666190FA9004
:105B4000E02438F8A3E03400F990F9FC126661749F
:105B50001855BEC313131390F984F012530190F833
:105B600076E0A2E6500590F88E800390F858E0FAAF
:105B7000EA90F97CF01276001250D390F984E0128A
:105B80004AE70003D85B9E5B9E5B8E5B9E5BD29375
:105B9000D29490F86FE0F5CDE490FAC7803990F890
:105BA00093E0FA60048ACD800690F86FE0F5CDC2EC
:105BB00093C2947E08800B75C9A875C958797D1267
:105BC0004DDDEE1E70F1D29390F9B5E0240C125C1D
:105BD0001C7498F0A3743AF01270F7A37401F012D9
:105BE0005C20F0126682A3E4F0125C12A37401F050
:105BF000125C0C1266CD12508512711C639002E586
:105C00009012566480FBF090FA90E0221266D6243F
:105C1000122290F9B51271167438F02212714822CE
:105C200090F9B5E024161271487405F0A3E422C07F
:105C300082C083E490F981126CEC04126CECC39482
:105C400004500C90F9B5125AA67432F0A3E4F09007
:105C5000F981E02492F582E434FAF583E0F5B602A6
:105C6000559D74F2124A3CE5BBF9E5BAF87A107B0F
:105C70000012496790F981E064FF7008E490F981AF
:105C8000F0025DACE0FA74012AF0EAC333FAE433BF
:105C9000FBEA2459F582EB34F9F583E028F0A3E020
:105CA00039F090F981E0C39408500FE02492F58216
:105CB000E434FAF583E0F5B680C790F969E004F0C2
:105CC000C3940840B779007A597BF97CE97DF97E65
:105CD0009F7FF990F980E0C333F508E433F509E5D7
