:10080000E490F80078DF79048002F0A3D8FCD9FAEC
:1008100090FBDEAA82AB83904BD778AF790180152D
:10082000E493A3AC82AD838A828B83F0A3AA82ABCC
:10083000838C828D83D8E9D9E71226410080FA752E
:10084000FE02D29175D0007581467541007542F85F
:1008500002080043AE0222E5AE20E7FB22A2E792A7
:10086000D65002F40430F70663F0FF05F0B34003FE
:1008700084800384F40430D60563F0FF05F022E0A1
:1008800066701008A3E066700A08A3E066700408AA
:10089000A3E06622C3E7960809E7960809E79608E9
:1008A00009E796A2D265D03322C3E09608A3E0966A
:1008B00008A3E09608A3E09622080808E630E711AE
:1008C00012108A1208D1080808C64480C6181818E1
:1008D00022181818E9799EC608CAC608CBC608CCE3
:1008E000C6C370207996CACBCC7019798ECBCC70E8
:1008F000137986CC700EF9802ACA33CACB33CBCC9D
:1009000033CC331930E7F2CCCBCA3350147004EA3D
:1009100030E00DE4CA3ACACB3BCBCC3CCC50020908
:10092000C3E913C6CC182313C6CB18C6CA18C6F918
:100930002212097120F01430E72B74FFFCFBFA74CB
:100940007F8022E4FCFBFA7480801AB48008BC002B
:10095000F2BB00EF800F50EBF9E4C39AFAE49BFB83
:10096000E49CFCE499C6CC18C6CB18C6CA18C6F9D4
:1009700022E4C9C608CAC608CBC6D3330308CCC60E
:100980003392F0C3947F402E94184019C9B90704DC
:10099000CACBCC225025C309CA33CACB33CBCC3304
:1009A000CC33D9F422F4600DC9CCC313CB13CBCA1A
:1009B00013CAD9F6CC22E4FCFBFA2214FCFBFA227F
:1009C000E6C33318461846184622E7C333194719B9
:1009D00047194722181818E6084608700AE608C39F
:1009E000337005E633F4220822191919E70947097B
:1009F000700AE709C3337005E733F4220922E608D9
:100A00004608C3134608336002E633F422E7094779
:100A100009C3134709336002E733F4221209FE6069
:100A20001B120A0D60161209C070071209CA600C69
:100A3000B322C0D01209CA7005D0D022C32233D04D
:100A4000D0501330E0EBC3E7960809E7960809E7B2
:100A5000960809E7962220E0E4E6970809E6970859
:100A600009E6970809E69722001209FE604F120A6C
:100A70000D6012E7548066F61209D470111209CA8B
:100A8000703B090909F4F618F618F618F62212094F
:100A9000E970151209C008080860EAE6447FF618F4
:100AA000768018E4F618F6221209C060161209CAF8
:100AB0007012E4F608F608F608E65480F60909090B
:100AC00018181822EAC0E0EBC0E0ECC0E0EDC0E08E
:100AD000E687F0A4FBACF008E687F0A42CFCE43534
:100AE000F0FA1809E687F0A42C4B60027401CA35AD
:100AF000F0FCE433FB09E687F0D2F7A42CCB35F009
:100B0000FC1908E687F0A42BCC35F0FBE433FD0894
:100B100019E687F0D2E7A42C4ACB35F0CD3400FC9F
:100B200009E687F0D2E7A42DCC35F0FDE433FA09CD
:100B300018E687F0D2F7A42CCD35F0CA3400FC08B3
:100B4000E687F0D2E7D2F7A42ACC35F07A7E20E708
:100B50000B0ACB33CBCD33CDCC33CC33CB3350148A
:100B60007004ED30E00ED2F1E4CD3DCDCC3CCC3B79
:100B70005005DA05C2F1EB547FC63308E63392F034
:100B8000FBE73309E733C39A502D2B70190C0D4C3A
:100B90004D70151806E608C333700D20F10AA2F057
:100BA00013F6E418800B4024E4F630F00276801847
:100BB000F618F618F68024D33B14501074FFA2F0F8
:100BC00013F6187680E418F618F6800FA2F013F6E4
:100BD00018E63303F618ECF618EDF6D0E0FDD0E099
:100BE000FCD0E0FBD0E0FA22120A0D60461209FEAA
:100BF000603DE9687008F618F618F618F622748059
:100C000067F7120C1C090909748067F7221209FEA4
:100C1000601D120A0D7005191919801A1209D47075
:100C20001F1209E9C37003E6673319191940071841
:100C300018182208080874FFF618F618F618F62295
:100C40001209E960171209CA702192F01209C070E6
:100C500019501720F014080808090909E7F61819AF
:100C6000E7F61819E7F61819E7F6221209C060E648
:100C7000E869701F0808E62480F608E436F6185480
:100C80007FB47F0CE654806007F6E418F618F6226D
:100C9000181822E9C6CC08C6CD08C6CE08C6CFC0F3
:100CA000E0E8C0E0EAC0E0EBC0E009E9F809E7FAF3
:100CB00009E7FBE6F918E6F8C3EC98ED99EE9AEB34
:100CC000C2E7F5F0EFC2E795F0500E600CEBCFFBFA
:100CD000EACEFAE9CDF9E8CCF8EAA2E7D2E7FAEBF6
:100CE00033FB13F5F0EEA2E7D2E7FEEF33FFC5F0DA
:100CF00013A2E730E601B313C5F0C3C0E0C0F07F34
:100D000000C39BFB605B9418600C401AD0E023F991
:100D1000D0E0F8020DEB8AF0E9486003D2F0E4AFCE
:100D2000F0FAF9F8803BEB30E40D89F0EA6003D289
:100D3000F0E4AFF0F9CAF8EB30E30D88F0EF6002B1
:100D4000D2F0AFF0E4CAC9F8EB54076014FBC3EA71
:100D500013FAE913F9E813F8EF135002D2E0FFDBBE
:100D6000EDD0E0C0E030E739C3E49FFFF5F0EC9848
:100D7000FC42F0ED99FD42F0EE9AFE42F0D0E0F92F
:100D8000D0E0F8E5F0607AE923F9EE20E742D802F6
:100D90008067C3EF33FFEC33FCED33FDEE33FE80B1
:100DA000EAEC28FCED39FDEE3AFED0E023F9D0E084
:100DB000F84002801BC3EE13FEED13FDEC13FCEFB5
:100DC000135002D2E0FF08B800067F7F74FF802E28
:100DD000EF3350178CF020F00260100CBC000C0DAB
:100DE000BD00080EBE000408E860DFE933E813FF29
:100DF000EE2313FE4F4D4C8008E95480FFE4FEFDC6
:100E0000FCEE33EF33F47004FCFD7E80D0E0FBD0C9
:100E1000E0FAD0E0F8D0E0CFC618CEC618CDC6189C
:100E2000CCC6F9221209FE700418181822120A0DF5
:100E3000700D74FFF61819F61819F61819F622E74E
:100E4000548066F61209C0700F1209CA70F014F6C9
:100E500008F608F608F680D11209CA700CF608F6F2
:100E600008768008E6447F80EC1209EC700C1209C9
:100E7000D760BFE65480F6E480BB1209D77005192D
:100E8000191980A5E869700C763F18768018F61855
:100E9000F6E8F922E6CDC0E018ECC0E0E633CD3349
:100EA000CDD313F6E719FCE7191933CC33C3947F7C
:100EB000400ECD9D502408E65480F6E418F6800FCD
:100EC000F4043D14501408E6447FF6187680E418C4
:100ED000F618F6D0E0FCD0E0FD22CCD313CCFD1800
:100EE000E4C6CBC0E018E4C6CAC0E00808ED08C6F6
:100EF00033E613F618E433C675F003C3CA97CA097C
:100F0000CB97CB199C40047D08802EBD0003020FB7
:100F1000CD16B6FF050606081618C3CA33CACB336A
:100F2000CB33CA27CA09CB37CB193CC37D08803ED7
:100F3000187D0820E75CC633C6CA33CACB33CB332F
:100F4000DDF1D5F0EB30E77BCA97CA09CB974ACBE6
:100F5000199C406F4B7025E620E0218066187D08C3
:100F6000C3CA97CA09CB97CB199CD3C633C6CA3319
:100F7000CACB33CB3350C9DDE7D5F0E1D3E4C63675
:100F8000C608C636C608C636C608C636C6181818F5
:100F90008031C3CA97CA09CB97CB199CB34097C677
:100FA00033C6CA33CACB33CB33DD34D5F02EC6A219
:100FB000E0C640C8CA27CA09CB37194A70BECB3C25
:100FC000B480B90808E63308E633601F181818D053
:100FD000E0FAD0E0FBD0E0FCD0E0FD22187D08CAAA
:100FE00027CA09CB37CB193CD3808013F618E4B657
:100FF0007F11F618B6FF0EF618C60470D2080876F0
:101000008080CAF618F618F680C5080808EAC0E01D
:10101000EBC0E086F0E7A4FA180986F0E7A42AFA04
:10102000180986F0E7A42AFA180986F0E7A42AFA34
:101030001986F0E7A4FBE5F02AFA190886F0E7A480
:101040002BFBE5F03AFA190886F0E7A42BFBE5F054
:101050003AFA18180986F0E7A4C5F02BFBE43AFA2F
:101060001908E7C5F0C6A426F6E5F03BFBE43AFA1A
:101070001886F0E7A4F6E5F00826F6E43B08F6E467
:101080003A08F6D0E0FBD0E0FA22181818E4C3962C
:10109000F608E496F608E496F608E496F62260165A
:1010A000080808C6C313C618C613C618C613C61840
:1010B000C613C6D5E0EA22E026F608A3E036F60815
:1010C000A3E036F608A3E036F622E026F008A3E017
:1010D00036F008A3E036F008A3E036F022C3E0C6FD
:1010E00096F608A3E0C696F608A3E0C696F608A30F
:1010F000E0C696F622C3E096F008A3E096F008A3B7
:10110000E096F008A3E096F022E0F608A3E0F608E7
:10111000A3E0F608A3E0F622E6F008A3E6F008A3B1
:10112000E6F008A3E6F022CAC0E0E6F0A308DAFA87
:10113000D0E0FA22C3E498F8E499F91211758026F8
:10114000C3E49AFAE49BFBE920E7E9121175E498FD
:10115000F8E499F922C3E498F8E499F9121175E4D6
:1011600098F8E499F9C3E49AFAE49BFB22EB20E7B0
:10117000CFE920E7E0B90010BB0008E88AF084F866
:10118000AAF022E4FBC8FA22EB70227B10C833C815
:10119000C933C9335007C39AC3DBF280069A5001A2
:1011A0002ADBEAC833F4C8C933F4C9FA2275F00857
:1011B000E4C833C8C933C933C99AC99B5004C92A82
:1011C000C93BD5F0ECFBC833F4C8E4C9FA22600D82
:1011D00008C6A2E713C618C613C6D5E0F322600CF2
:1011E00008C6C313C618C613C6D5E0F4227004227D
:1011F000600D18C6C333C608C633C6D5E0F418223E
:101200002541C0A8C2AF40021542F541D0A822C076
:10121000D02541C0A8C2AF50020542F541D0A8D0A8
:10122000D0222541F582C0A8C2AF40021542F54147
:10123000D0A8854283222541F582E43542F58322F8
:10124000E4732541C582C0E0E54234FFC583C0E0B8
:10125000E541C3958224F9C0A8C2AF858342858247
:1012600041D0A8CEF0A3E520F0A37821E608F0A3B2
:10127000DEFAEFF0A3E58124FBF8E608F0A3E60828
:10128000F0A30808E608F0A3E608F0A3158115818D
:10129000D0E0FED0E0F815811581E8C0E0EEC0E0B6
:1012A00022854283854182E0A3FEE0A3F5207821D8
:1012B000E0A3F608DFFAE0A3FFE0A3C0E0E0A3C0EC
:1012C000E0E0A3C0E0E0A3C0E085A8F0C2AF858263
:1012D0004185834285F0A8D083D0822274028000A9
:1012E000C0E0F404121222D0E012112722D083D0E1
:1012F00082C5F0E493A3C5F0C395F0F5F0E493A3A1
:10130000C395F04005E5F0048001E475F002A425E2
:1013100082F582E5F03583F583E493A3C0E0E4939E
:10132000C0E022D083D082CCC0E0E493A360061258
:10133000134D1470FAE493A3600612136C1470FA40
:10134000D0E0FCE493A3C0E0E493C0E022C0E0E47A
:1013500093A3D39C5010E493A3C39C400AD0E0D045
:10136000E0D0E0021340A3A3A3D0E022C0E0E493C6
:10137000A36C7009D0E0D0E0D0E0021340A3A3D06A
:10138000E022C082C083740149F5B37C10800C8ACE
:10139000828B83E0F5B1A3AA82AB83EC1C70F0D002
:1013A00083D08222800100E5B3A2E350F92274F7D2
:1013B0001212428922ECFEEDFF7409121236E0F897
:1013C000A3E0F988828983EAC4540FF5218015E5EA
:1013D000B2F0A3EB1B70F81213A41521EE2410FE3B
:1013E000EF3400FFE5216016EEFAEFFBA92212139D
:1013F000827B0C800100EB1B70FB7B1080D57F0291
:101400000212A1C082C08390F876E054F0F0741309
:1014100090F875F074DF90F86FF074D990F870F070
:1014200074F890F871F0742590F872F0748090F868
:1014300073F0742590F874F0741090F876F074F8E6
:10144000F5D575D46F90F87EE054F0F0741390F8F1
:101450007DF074F890F877F0744A90F878F074DFC3
:1014600090F879F074D990F87AF0742090F87BF0C5
:10147000742390F87CF0744090F87EF090F886E049
:1014800054F84408FAF0741290F885F090F883E06C
:10149000541FF074DF90F881F074AF90F882F0E49C
:1014A00090F883F074F890F884F0740F5A444090E8
:1014B000F886F074F8F5D375D277D083D082227491
:1014C000F6121242EAFEEBFF8C218D2289231208CC
:1014D0005775AB2AEF90F87FF0EE90F880F090F817
:1014E00083E054E0F0E52390F884F0AA21AB227465
:1014F0000978211211DEE521F5ADEBC313EA13F5EE
:10150000AC53D1FBD2B875D60412085379017F03CE
:101510000212A1C082C08390F888E4F0A3F0798021
:10152000FC12155DD083D08222C082C083C2B890E5
:10153000F887E0602690F888E02480F0A3E034008B
:10154000F0E490F887F0C390F889E09480500C792B
:101550008090F888E0FCA3E012155D80C7FD7A8AD0
:101560007BF8124AD3798090F888E0FCA3E0FD7AFA
:101570008A7BF81214BFE990F887F0227A177BFF74
:1015800000DBFDDAF9D9F52274F11212427C1980E0
:101590000F75F00AECA429C0E0EC121660D0E0F060
:1015A000EC1C70EDE9F525752600752700752800FF
:1015B0007C0090FBDE782112110978257921121028
:1015C0000A90FBE278251210B78525218526228511
:1015D00027238528247410782112109E74FF55212A
:1015E000F8747F5522F97A197B001211758C23E566
:1015F00023240AF8E434F9F988828983E0FDEA2497
:101600000AFAE434F9FB8A828B83E088828983F0CA
:10161000ED8A828B83F00CECC3941940957F08020D
:1016200012A1C082C0837B19EB1B8B82A882600C45
:1016300090DF06E0FAE812165B6A70EC75E104745C
:10164000012808E43400F97A197B0012116DEA12BE
:10165000165B90DF06F0D083D08222121660E02263
:10166000240AF582E434F9F5832274ED12124289DA
:101670002190FBFEE0C395215003E0F52190FB494A
:10168000782512110990FC417829121109782579E1
:1016900029120A1C502375258F7526C27527FD75E2
:1016A000284090F95B782912110978257929120EC2
:1016B0002490FB497825121118E521C394F14003C9
:1016C0007521F07522007523007524007821120819
:1016D000D490FB49782512110978217925120A68DE
:1016E0007821120931A821C3E5229401400278FF34
:1016F000E8F97F0C0212A1C3EA9401121711400508
:10170000EAF8EB8006C3E49AF8E49BF9E8FAE9FB0F
:1017100022EB1225D92279037C397DFC7A097BDF03
:10172000124AD32274F8121242E9FEEAFF800579C8
:1017300001121FBC90F53AE0641060F31218465392
:101740009BFCE59B53E9EF75911074326E700C9021
:10175000F9FEE0A2E1500479198002EEF912491D68
:10176000EF90DF06F074326E700590F9E48003901C
:10177000F9E0E090DF2E124487F090F9BDE090DFB1
:1017800001F090F9BEE090DF00F0439A01022ED8FC
:10179000C082C083E9FA90F9E5E0A2E6500479320C
:1017A0008002790C121724021B02C082C08375D6F6
:1017B00083E9601C90F9E5E0A2E6401490F9E3E0CB
:1017C000FA793212172490F9E2E090DF05F08003F5
:1017D0001217D6021B0290FAFFE0F912179022C0EE
:1017E00082C08375D68312184679047ADA7BFB129D
:1017F0004AB0E490DF08F012171612183990F9E594
:10180000E0A2E6500590FAFF800390F9C7E0F9E9FD
:1018100090FAFFF012179079067A1A7BFB124AB001
:1018200090FAF7E4F0A3F0FA79011237F01237B921
:1018300012427990FB09021B017A837BF979041229
:1018400013821213A42275E10412379E74F0F02261
:1018500074F112124275FD00758FFFE5F275F2FF0B
:101860007A00752101752200EA78211211EDE52137
:1018700045F2F5F20AEAC3940840E775F4C075FE34
:10188000DB75CB5075CC2475CE2475F12075F52011
:1018900079127AE27BFA124AB075F300E490DF081D
:1018A000F090F9C7E0F912158812140312171612F6
:1018B00017D675210075220075238075243F90F995
:1018C0003F782512110978217925120E2490FA17F4
:1018D000782112111843CB14E5CBD2B9D2A9439A7F
:1018E00001021A31C082C08390FFFDE0702390FA9C
:1018F00002E0FA601A90F9DEE0FBEAC39B5003EACB
:101900008001EBFC8CCD90FB23E0241E1229CBD26E
:1019100094021B0274F11212428A218B228C238DB5
:101920002490FB4D122A247825121109782579215B
:10193000120A6812196F782112110978257921127B
:101940000C0D021A2974F11212428A218B228C2367
:101950008D2412196F782512110978257921120B1F
:10196000E890FB4D122A247821121109021A2290C4
:10197000FB4D12298E2274F1121242892175220028
:10198000740278211211EDE52124ACF582E52234B0
:10199000FAF583782112110978211208B990F93FDC
:1019A000782512110978217925120A6890FB4F7861
:1019B0002512110978217925120A68AA21AB22ACD7
:1019C00023AD24121945806974F112124290FB4D27
:1019D000122A2478211211097D018A828B837825AD
:1019E00012110978217925120A688D25752600744F
:1019F0000278251211ED90FB4DE02525FCA3E03582
:101A0000268C82F583782512110978217925120C0C
:101A10000D0DEDC3940440C2AA21AB22AC23AD242A
:101A2000800F78257921120A68AA25AB26AC27AD4C
:101A3000287F080212A1C082C08379F27C007D5CFD
:101A40007A237BF9124AD390F923E064AA7004A3A5
:101A5000E064AA700E90FA13E064557004A3E06489
:101A600055602079F27C857D4C7A237BF9124AD32C
:101A70001225769003DCE090F9DEF09003DDE09033
:101A8000F9DFF090F9FB7458F0A3741BF090F9F9AA
:101A9000740B122A1B743190F9B3F0744290F9B4AC
:101AA000F0744190F9B5F0E490FB148054C082C00A
:101AB0008374FF90F9C7F090FAFF12257FC2E4F01B
:101AC000D2E2F090F9FEE0C2E412257F541FF0E468
:101AD00090F9BFF079207C197DFC7A837BF9124A5A
:101AE000D390F9BD74F0124208790C7CD07D037A52
:101AF000237BF9124AD3740190FB14F01217DF8094
:101B000001F0D083D0822274F112124290FC02E0E4
:101B10007003021BA0122D3E90FADC121F9090FB66
:101B20006B12261490FADA121F9090FB6D12261495
:101B300090F9A5122624505990F9A7122D4190FB37
:101B40006B122624400890FB6D122624504390FB14
:101B50006FE02478F0A3E03400F090FC03740A12E4
:101B60002A1B90F9A3122D417583FB75826F1249D0
:101B700016402DC294740190FB20F0E490FC0212F8
:101B80002A15747E90FFFDF090FB6FE4F0A3021C19
:101B9000BD90FB6FE4F0A3F090FC037432122A1B9B
:101BA00090FB20E06003021CBE90F9AB12374B4063
:101BB0002690FB0DE0A2E6401E90FAD0122D417552
:101BC00083F97582AD124916500D121F6ED2E612BE
:101BD000261A5003123D5790F9AF12374B40279009
:101BE000FB0DE0A2E7401F122D3E7583F97582B10F
:101BF0001226245011121F6ED2E7F090F9AF122670
:101C00001E5003123D5790FB0DE0C3944050030259
:101C10001CBEE0D2E0F0A2E7502B90F9B1E024180E
:101C2000FAA3E034FCFB90FAD412299CA2D265D02E
:101C300033501290FB0DE0C2E0F090F9AF12261E77
:101C40005003123D5790FB0DE0A2E6502290F9ADF3
:101C5000E0247EFAA3E034F9FB90FAD012299C50DC
:101C60000E90FB0DE0C2E012261A5003123D579071
:101C7000FB0DE0A2E0504790FB71E02488F0A3E068
:101C800034FFF090FB7112374B503390FB71E4F04E
:101C9000A3121F77543EF0700DE490FFFDF0122563
:101CA000971218E4801812259790FB0DE0A2E540EA
:101CB00007E490FFFDF080E974A690FFFDF090F935
:101CC0003F782512110990FB5F121FAC1208D478DF
:101CD000257921120E2490FB53782512111890FBC0
:101CE0004D7463F0A374F9F090FB61121FAC1208FD
:101CF000D490FB53782512110978217925120A68AE
:101D0000121F5790FB211236CEE0700D90FB22E09F
:101D1000F5838A82A3A3E0600E90FB21E0240B12DE
:101D200029647401021F53E490FB0FF090F9BFE0A7
:101D3000FA602175F0E8A4CAACF075F003A42CFC9D
:101D4000E42CFBE89AE99B50047A0180027A00EACD
:101D500090FB0FF090F9A912296C90FB14E0C3706E
:101D600029E894D5E994AD400A121AAD90FC0374A9
:101D700050804D90FADCC3E09AA3E0121F8C5043D0
:101D8000121AAD90FC0374518036E89410E994A4C3
:101D9000503190FAC47821121109C3E5219AE52245
:101DA000121F8C401E121A3690F9E5E0A2E6500888
:101DB00090F9FDE090FAFFF01217DF90FC03743207
:101DC000122A1B1229DB6003021D191229B96003B4
:101DD000021D1990FB4D746BF0A374F9F090FB6336
:101DE000121FAC1208D490FB5378251211097821E8
:101DF0007925120A68AA21AB22AC23AD2412194519
:101E00008A218B228C238D247821120931AA21ABBF
:101E10002290FA03E0601A121F855015C29490FFB9
:101E2000FDE0700374A6F090FB0DE04430F0021E5C
:101E3000E690FA06E0F5217003021EE674FF6521C4
:101E40007003021EE690FB69E07002A3E060089058
:101E5000FB6912206E80D67522007403782112115E
:101E6000ED90FB69E521F0A3E522121F77A2E45073
:101E70003B90FA05E0F8C3EA981217115020A2949B
:101E8000400D90FFFDE064A67005E4F01218E490A8
:101E9000FB07E0121F7D90FB0DE054CF808FA294D2
:101EA000504490FB06E0603E14F08037A294503618
:101EB00090FA04E0121F85502D90FA09E0FB90FB88
:101EC00006E0FAEBC39A500F90FB23E0241812426D
:101ED0007FEB90FB068002E014121F77D2E4F090B3
:101EE000FB06E0121FA41229DB6003021D19122950
:101EF000B96003021D1990F9C2E06052A294504EDD
:101F000090FB4D744BF0A374F9F090FB57121FAC8B
:101F10001208D490FB5378251211097821792512E3
:101F20000A68121F5790FBFEE064FFC3600FE8943D
:101F300059E99434401E74FF121F9B8017E89410D7
:101F4000E99427500F90F9C2E090FBFE80EA74FFFD
:101F500090FBFEF0021A31AA21AB22AC23AD241271
:101F60001914124B918A218B22A821A92222C294F2
:101F7000C293746A90FFFDF090FB0DE02290FB0687
:101F8000F0121FA422C39AE4121F8C229B02262760
:101F9000123747E8C39AFAE99BFB22F090FB06E070
:101FA000121FA422F912166AE9F5CF22E0F521A347
:101FB000E0F52275230075240078212274F71212AF
:101FC0004290FB23E0241CFAA3E03400FB89217437
:101FD000012521F8E43400F98A828B83123D5A806E
:101FE00005639004E5908A828B83C3E09401A3E0AB
:101FF0009400C365D03350E98A828B83E4F0A380D8
:102000004B74F7121242C29475FEDB7E008E21756E
:102010002200740A78211211ED122951E8FAE9FB25
:102020008A828B83A3A882A9838A828B83E064FF40
:1020300070047A0180027A001229456006C3ED948B
:102040000440D90EEEC3940F40C38001F07F02021A
:1020500012A1C082C0838A828B8312206EF08A8292
:102060008B83E07004790180027900021B02122048
:102070007222E024FFF0A3E034FF2274F512124232
:10208000752100A82190FB21E0281242187003025C
:102090002237E4F0E521121323000501D72002AC1A
:1020A0002003D1200954210BDD202D2290FB12E0CA
:1020B000600B79001217AA12375902222D90F9E508
:1020C000E054606420600302222D90FB0BE0F98055
:1020D000E3122EDD02222D122F9102222D90DF3CE1
:1020E000E0A2E2501490DF3BE0C3940D400BE0C34C
:1020F000941050051225DD802D1229DB70F612296F
:10210000B970F11242331225CD5006E87001E97022
:10211000E31236D81225CD5006E87001E970D57A61
:102120000179001237F090FA0B122D417583FA7580
:1021300082D4122624400302222DE490FB06F0757F
:10214000CF0090FB23E0241812296474D0F0A3740C
:102150000702222C7AF97BFB122052E96006121743
:10216000DF12297890FBFBC3E0940AA3E0940050AF
:10217000031225761237044007E490FC3CF08009F6
:1021800090FC3CE0600302222D90F9E5E0A2E740DC
:102190000302222DA2E6504F7AF37BFB122052E974
:1021A000601812426290F9E5E0C2E6F090F9C7E0EB
:1021B00090FAFFF0F912179080737AF57BFB1220EA
:1021C00052E960691236E290FAFFE0F890FA01E015
:1021D00028F8E43400F97AFA7B0012116DEA90FADB
:1021E000FFF090F9FD80CC7AF17BFB122052E96080
:1021F0002712422690FBF7E4F0A312257FD2E612C5
:10220000424664FF700890F9C7E090F9FDF0E012D3
:10221000427590FAFFE0809C7AF77BFB122052E92E
:10222000600B1225AA1236A8E8F0A3E9F01229DB08
:1022300070111229B9700C0521E521C394105003C7
:10224000022083752100E521C333F8E433F990FBC4
:1022500023E028F8A3E039F9888289831236984070
:102260000302256588828983E4F0A3F0E521121238
:10227000ED020D65259122A02213248F23A523654D
:1022800025CB23302494232424B1240F25652576DF
:102290002475C9A875C958122985F0A3E4022564DC
:1022A00090FB0AE0700302256514F0E490F538F025
:1022B00090DF05E0FA90F9E2E06A70047A018002AA
:1022C0007A00EA90FB75F090FB15E070030225653B
:1022D00090FB75E07012123D64642070047A0180F6
:1022E000027A00EA90FB12F090FB11E0601C90FB78
:1022F00003E0601690FB11E014F090FB03E014F093
:10230000701090FA15E4F0A3800790FB08E06002DB
:1023100014F079007A4A7BF8122F4590F9C1E0FA5F
:10232000700302256590F9C0E0FBEAC394084009F8
:10233000EBC394084003022565EB6008C39A500480
:102340008B2380028A2390FB23E024061225BB50B6
:1023500013E523C39413502E1225EA74FF2A1A742E
:10236000FF3B801174016523701C90FBEFE024FF9C
:10237000FAA3E034FFFB90F538E0FEEAC39EFAEBE7
:102380009400122585F090FC3DE06401022564C2B2
:102390009302256590FB20E060030225657401909F
:1023A000FB1002256490F9DCE0700E90F9DDE0602E
:1023B00008D29312424FF0800312259790F9DDE086
:1023C00070030225651218E402256590F9E5E054D2
:1023D000506410703E1237B370081225A0740102C9
:1023E000229A90FB09E0FA74FF2AF0EA60121225A3
:1023F000AA90FBEF12296C1225A0EAF0A3EB800B48
:1024000090F9C7E090FAFFF090DF06F01229A5E4FA
:10241000F0A3F079001217AA740190FB12F01237A2
:10242000590225651229C590FBFB12206E02256416
:102430001225FD90FBE6122D417583FB7582EFE0BE
:10244000C398F8A3E099F974F628F874FF39F99065
:10245000FB231236C8A3A3A3A3A3123D5A1236FB33
:10246000F090FB0BE0600214F090FB0CE0700302B4
:1024700025651402256490F9DEE0FBE5CDC39B40A1
:102480000302256590FA0DE0FCE5CDFAEC70057CC1
:102490000180010AEC1C6005EAC39B40F68ACD90DE
:1024A000FB23E0241E12296474D0F0A374070225D4
:1024B0006490FB23E024181236B6E8FEE9FF122DE3
:1024C0003E7583FA75820B122624503990FB06E084
:1024D000C0E090FB07E0FAD0E0C39A400302256514
:1024E00090FA0AE0FC90FB06E0FBEC70057C0A80A9
:1024F000010BEC1C6005EBC39A40F6EB121F808EBB
:10250000828F8380A3E490FB06F075CF0080F0E417
:1025100090F538F0122BB690F9C1E0F523604690A3
:10252000FB23E0241A1225BB5016E523C394135055
:10253000341225EA90F538E0FEEAC39EFAEB8017E4
:1025400074016523701F90F538E0FA7583FB75827E
:10255000EFE0C39AFAA3E09400FB74FF2A1A74FF19
:102560003B122585F00521E521C39410500302227A
:10257000467F040212A1121AADE490FB14F022F07F
:1025800090F9E5E022FBEAC39CFAEB9400FB888219
:102590008983EAF0A3EB2290F9DCE0A2E092932297
:1025A00090FB23E024101237A42290FAFFE090DF82
:1025B00006F0121622E090FAFFF022F8A3E03400B1
:1025C000F990FC3DE0FC90F9E5E0A2E222122D45F5
:1025D000C3E8941DE91225D9229400804A90FB217A
:1025E000E0240B1237A47401F022123744EA852349
:1025F000F0A4FAAEF08523F0EBA42EFB2290FBEFC3
:10260000E0FAA3E0FB90FB23E024121237A480043D
:1026100088828983EAF0A3EBF022F090F9AB122DC7
:102620004590FB71124916A2D265D03322EEC0E06C
:10263000E9FE80057964121FBCEE1E70F7D0E0FE43
:102640002274AA90F53BF0741090FFFFF090DF36F3
:10265000E0648160031249DD90FFFEE0645A70037C
:10266000022876745AF0D2B97E007F008E218F2224
:10267000740A78211211ED122951E8FAE9FB8A82D5
:102680008B83A3A882A9838A828B83E064FF700472
:102690007A0180027A001229456009C3ED94044052
:1026A000D9122001EE24010EEF3400FFC3EE940F87
:1026B000EF940040B790FC05E0243012296474E4E4
:1026C000F0A3742912379424321229647444F0A3BD
:1026D000742A12379424341229647429F0A37415CF
:1026E00012379424371225E312421C747812379162
:1026F000245D122964742812379124201236B69072
:10270000FB21123D5A90FC05122D4190FB23123DF6
:102710005A90FC05E024381236B690FB73123D5AED
:10272000741855BEC313131390FB05F079F07A2388
:102730007BF9124AB0121A3690F9A3E07002A3E0B6
:10274000600474018001E490FC0212368290F9E585
:10275000E0A2E6500590F9FD800390F9C7E0FAEA9F
:1027600090FAFFF01248EA90FB05E01212ED000328
:102770001D28DB27DB277A27DB2790FFFDE0647E1F
:10278000700E740190FB20122A1590FC02F0800557
:10279000E064E77004C294800CE0646A60F7E0646F
:1027A000A660F2E4F090FFFDE0700C90F9DDE060CF
:1027B00004D2948002C29490F9DCE06004D2938049
:1027C00002C29390F9DEE0F5CD90F9DFE0F990FBDD
:1027D00006F090FB07F0121FA58042E490FFFDF089
:1027E00090FA02E0FA60048ACD800690F9DEE0F506
:1027F000CDC293C294122597E490FB06F075CF00EA
:1028000090F9DFE090FB0712367C240C12296474E7
:1028100070F0A3741712367C24181229CB79907AA1
:102820001C7BFA124AB01218501229C51229A5743D
:1028300002122A1B122985122A1B1225FD12183991
:1028400012423953E4FCE5E475E30075E20075DB00
:102850000275DAED43E406E5E475E544790A1226EB
:102860002D79047CF37DF97AF97BFB124B08E96042
:10287000031249DDC291122F121217DF8011EA7084
:1028800001EB700B8882898374D0F0A37407F090F9
:10289000F53BE064AA60031249DD90DF36E0648115
:1028A00060031249DD75C90812207B1229DB70DF35
:1028B0001229B970DA90FBEFC3E09491A3E094067B
:1028C000500A90FBEFE07002A3E0700A90FBEF74F7
:1028D00090F0A37406F090FB23E024121229707587
:1028E00083FB7582EFC3E09AA3E09B500312299605
:1028F00088828983E07002A3E0700312299690F920
:10290000F312296C90FBF912299C500690FBF912E6
:10291000261490FBF9E07002A3E07003122978906E
:10292000FBFBE070031249DD90FB23E02416122923
:1029300070C3EA94D1EB9407A2D265D0335003025E
:10294000287E022884EAFBEC24010CED3400FDEB28
:10295000222400F874083522F9741090FFFFF07CEF
:10296000007D00221237A4228E828F8312374722E5
:10297000123D6EFAA3E0FB2290F9F3122D4590FB75
:10298000F9123D5E2212298B747D2290FB23122ABC
:102990002CA3A3A3A322123744022610122D45C351
:1029A000EA98EB99221229A92290FB231229B0223E
:1029B000122A30A3A3A3A380D890FB22E0F583883A
:1029C00082A3A3E02290FB23E024161237A474D044
:1029D000F0A37407F022EAF0A3EBF090FB21122A97
:1029E00028A3E022C082C083E490FB02122A3904AB
:1029F000122A39C39404500A122A21A3A37408127C
:102A00002A1B90FB02E02407F582E434FCF583E006
:102A1000F5B6021B02F090FC037446F0A3E4F0222A
:102A2000F090FB23122A2822122A2C22122A30226A
:102A3000E0F8A3E0F583888222F090FC05E02436DC
:102A4000123D6E2274F5121242E5BBF522E5BAF58D
:102A50002190FB02E0FC74012CF074027821121129
:102A6000CE90FC3EE02521FAA3E03522FBECC333F7
:102A7000F8E433F9E824E2F582E934FAF583E02A50
:102A8000F0A3E03BF090FB02E0C394095010E02477
:102A900007F582E434FCF583E0F5B6022B6A90FA80
:102AA000F4E004F0C394085003022B6590FAE8E0C8
:102AB000FEA3E0FF7CE27DFA7A577BFB90FB01E00E
:102AC000C333F8E433F9E8241CF8E934FAF9752340
:102AD000098C828D83E0F521A3E0F5228882898329
:102AE000E521F0A3E522F0C3E5219EE5229F5009F0
:102AF0008A828B83E4F0A38015E521C39EF521E54E
:102B0000229FF5228A828B83E521F0A3E522F0E85B
:102B10002410F8E93400F9EA24020A0AEB3400FB35
:102B2000EC24020C0CED3400FD1523E52370A2907B
:102B3000FB21E0240BF8A3E03400F9888289837438
:102B400001F079127AE27BFA124AB0E490FAF4F0DA
:102B500090FB01E004F06408700B740190FB0EF030
:102B6000E490FB01F0E490FB02F002257174F7128F
:102B700012427A937BF9790612183F75214C75221F
:102B8000F878211212DC7C007DF87A20790012138B
:102B9000AE740212120F742290F84AF090F9E2E03B
:102BA00090F84BF0740190FB1502204C79067C29BB
:102BB0007DF9124AD32274F812124290FC03E0FE0F
:102BC000A3E0FFE490FB11F090FB03E0601E90FA9D
:102BD00015E064797004A3E064FB7005122D9A80FF
:102BE00003122E96740190FB11022D2E90FB0EE025
:102BF0007003022D327A0079001237F079047C16C6
:102C00007DFB7A007BF8124AD390FAFFE090F8043B
:102C1000F074185590C333C0E090F925E0540FFAD2
:102C2000D0E04A333354FC122D8E79107CD07DFADB
:102C30007A0C7BF8124AD3C3EE9433EF94005067BA
:102C400090FB0DE06008F874B428FEE4805690F91B
:102C5000E5E0A2E6500C90DF06122D35740228083C
:102C6000800DA2E5501390F9E3122D357401280868
:102C7000E439F9EE28FEEF39FF90F9E5E0A2E750DC
:102C800008EE2404FEEF3400FF90F9FEE0A2E150CC
:102C900008EE2408FEEF3400FF90FB0CE06008EE25
:102CA0002410FEEF3400FF90F81AEEF0A3EFF0903E
:102CB000FB27E07002A3E0600790FA1BE0FA8002B5
:102CC0007A3FEA90F81CF090FB27E07002A3E070D6
:102CD0000B90FB77122D4190FB27800990FB271268
:102CE0002D4190FB77123D5A90FB27E090F81DF0A4
:102CF000A2945024E5CD90F81EF090FB06E090F8E9
:102D00001FF090FBFEE0C0E090F81FE0FAD0E0C3B7
:102D10009A501590FBFE800B90F9DEE090F81EF0C3
:102D200090FB07E090F81FF090FB27E4F0A3F0126F
:102D30002B6D022ED8E075F064A4F8A9F02290FA69
:102D4000D4122D4522122D4922E0F8A3E0F9227475
:102D5000F81212428921EAFEEBFF7904EEFCEFFD46
:102D60007A007BF8124AD3E52190F804F090F92517
:102D7000E0333354FC4403122D8E7914EE2404FC0A
:102D8000EF3400FD7A0C7BF8124AD3022ED890F86B
:102D900005F07A067BF8122BAC2274ED1212427EFB
:102DA000797FFB75210080067404652160488521C8
:102DB00023752400740378231211EDE523244BF5C9
:102DC00082E52434F9F583782512110990FC4578C1
:102DD0002912110978257929120A68AA25AB26AC8F
:102DE00027AD28124B918E828F83122614EE240277
:102DF000EF34000E0EFF0521E521C3940740A99092
:102E0000F94F7821121109AA21AB22AC23AD24126B
:102E10004B4890FB8512261490F95F782112110916
:102E2000AA21AB22AC23AD24124B4890FB8712267B
:102E30001490F9777821121109AA21AB22AC23ADA5
:102E400024124B4890FB8912261490F97F782112A6
:102E50001109AA21AB22AC23AD24124B4890FB8B65
:102E600012261490F93B7821121109AA21AB22AC49
:102E700023AD24124B4890FB8D122614E5CD90FB18
:102E80008FF090FB06E090FB90F07A797BFB79EC79
:102E9000122D4F0216F274F812124290FB03E0F862
:102EA00074FF281874FF3400F990FBFDE0FA7B00F2
:102EB00012116DE8FC90F9FF7496F0A3742EF0ECFB
:102EC00075F018A4F8A9F090FA15E028FAA3E039F3
:102ED000FB74ED2CF9122D4F7F010212A1C082C0AC
:102EE0008374FF90F800F090F801F090F802F090F1
:102EF000F803F079067C167DFB7A047BF8124AD33E
:102F00007A0A7BF8122BAC122B6D741290F84A02DD
:102F10001B0174F81212427E7F90FB91E0702474C2
:102F200001F090FB13E0701B53BEFB800579021289
:102F3000157CE5BEA2E64004EE1E70F10075C68960
:102F400043BE048093C082C0838A828B83E0FC747A
:102F5000226C600574126C703590FB0FE0702F7559
:102F6000E10490FC05E0243AFCA3E03400FD8C82EF
:102F70008D8374F0F0EB90F877F0EA90F878F01227
:102F800017AA12379A7410F075D60275E103021B66
:102F90000274F112124290DF38E0FF90DF08E0F592
:102FA00021E490FB12F090FAF5F0A3F090F825E000
:102FB00090FB9912257F5460FA90FB99E02427F545
:102FC00082E434F8F583E0A2E7500D90FB99E064C9
:102FD00022601CE06412601774206A700790FB0B7B
:102FE000E0F9800279001217AA1237590236799057
:102FF000F826E0FB74206A701B90F9E2E0FC6B702D
:103000001390DF05E06C700C79007A257BF8122FA5
:103010004502367990F9E1E06B600302366790DF94
:103020003CE0A2E75004D2F08002C2F0A2F0E492A9
:10303000E0FE74206A700979017A257BF8122F4529
:1030400090F538E090FAFD122A1B7A937BF9790605
:1030500012183F7523007524F878231212DC7C27A0
:103060007DF890FB99E024FEFA79021213AE740207
:1030700012120F90F800E090FB98F090F801E090A9
:10308000FB76F079067C027DF87A927BFB124AD3BC
:10309000E0541FC39411400302366790FB96C3E0CF
:1030A00094E8A3E09403400302366790FB927825EE
:1030B0001211097583FB75821A78251208A9402818
:1030C00079047C1A7DFB7A927BFB124B08E9600342
:1030D00002366790FB96122D4190FB1EE06870034C
:1030E000A3E069700302366790FB927825121109FC
:1030F0007583FB75821A78251208A9402179047C12
:103100001A7DFB7A927BFB124B08E9701590FB96B7
:10311000122D417583FB75821E12491650047A01E7
:1031200080027A008A2390F538E090FAFB122A1B7D
:103130001237044005E490FC3CF090FB99E0242613
:10314000F582E434F8F583E0F525C394805010E56A
:1031500025C313FA90FBD812369DF8E4998017E442
:103160002525F874FF13E813F890FBD812296CE8B2
:10317000C39AF8747F9BF990FB27123D5A90F9E5AA
:10318000E0A2E6406DEFC39401A2D265D033EF40D8
:103190000EC39402A2D265D03340177F018013C3BF
:1031A000121712500DEFC394FFA2D265D033500214
:1031B0007FFFE521F83395E0F9EFFA3395E0FBEA7C
:1031C00028F521EB39F522AA21FB1216F7C3EA9460
:1031D000611217114016740278211211EDAA21E52F
:1031E00022FB3395E0FCFD1249EC8006E52190DFDF
:1031F00008F0EE700302366790FB0CE0600214F0FA
:1032000090FBFFE06009E4122A207478122A1B6305
:103210009002E590741290FB0A123682E523600D4D
:1032200079067C927DFB7A1A7BFB124AD390FB765F
:10323000E0A2E750047A0180027A0490FBE612369D
:10324000F390FB76E0F8741F58F8EA28F8E43400AD
:10325000F9E88521F0A4C8AAF08522F0A42AFA850D
:1032600021F0E9A42AF990FBECE028F8A3E039F971
:1032700090FBEFE8F0A3E9122A20122D4190FAFD0D
:10328000123D5A90F9C5E0602C90FB76E0541F2463
:103290000275F00312085DE5F0701A90FC40E0142E
:1032A000F0701290F9C4E090F500122A1B90F9C555
:1032B000E090FC40F090F9E5E0A2E650047A00804E
:1032C000027A0490FB23E0241A1236B6E8FCE9FDEA
:1032D00090FB98E0702EE490FB15F0740AC39AFA04
:1032E000E412371CF079067C927DFB7A167BFB1288
:1032F0004AD31236D812374B50738882898374FFB1
:10330000F0A3806890F9C1E0FE90FB98E0F8EEC36E
:1033100098F8E49400F990F9E5E0A2E2EE502F600D
:103320004CC3E89413E9121712504290FBEF123687
:10333000F3E88521F0A4C8AEF08522F0A42EFE8526
:1033400021F0E9A42EF9740A28F8E4398015601DEB
:103350007401687001E9701590FBEFE0240AF8A38E
:10336000E03400F9E8C39AFAE912371CF0740890C7
:10337000FB0B12367C24081236B690FBE612296C41
:103380007583FB7582EFE0C39AFAA3E09BFB74EEB2
:103390002AFC74FF12373290FB98E090FB00124237
:1033A00000403590FB23E02410FAA3E03400FB90AA
:1033B000FB76E0A2E6501588828983122D418A822D
:1033C0008B83123D5A740890FB09800BE490FB0933
:1033D000F08A828B83F0A3F090FBEFE02401FAA344
:1033E000E0340012260490F9E5E0A2E690FB2750B5
:1033F0001CC3E094A2123691400E1236E290F9ED11
:10340000122D4190FBF3801D1236FB801CC3E0940B
:103410009B12369140F290F9EB122D4190FBF11284
:103420003D5A1236A8E8F0A3E9F090FB98E0FC744E
:10343000FF6C600C90F9C0E06006F5F0EC84ACF035
:1034400090F925E0FD90FBE6122D41E88DF0A4F8FF
:10345000AAF08DF0E9A42AF990FBEAE028FAA3E0AB
:1034600039FB90FAFB12369DFAEB99FB90FB23E0B7
:1034700024061236B690F926E0FE74FF6C600FEE5B
:103480006C700B88828983EAF0A3EB0235CB8C2128
:10349000EEC39521F521E49400F52290FB76E054EB
:1034A0001FFF90F9C1E0F52390F9E5E0A2E2E523E2
:1034B0005044607174FF6E606CECC39E4003023533
:1034C000CCC3E5219413E52212171240030235CC38
:1034D000EDC39F40030235CC90FBEF1236BDCCAE5E
:1034E000F08522F0A42EFE8521F0EDA42EFDEA2C1D
:1034F000FAEB3DFB808D602D74FF6E6028ECC39E5F
:1035000040030235CC740165217002E5226003029C
:1035100035CCEDC39F40030235CC90FBEFE02AFA97
:10352000A3E03B80CE74FF6E60030235CC74FF6D68
:1035300060030235CC90FB76E0A2E750030235CC65
:1035400090FB23E0241AFAA3E03400FB8A828B83E9
:10355000E4F0A3F090FB04E0600314806E53B4F336
:10356000E5B443B404E5BDC0E090FA08E0F5F0D05E
:10357000E08490FA07AAF0E02A90FB04F090FB7632
:10358000E0FA741F5AF52190FBE61236BDFCAAF052
:103590008521F0EDA42AFDE5BC75F0058485F021B8
:1035A00090FBE812296CEAA4FAAEF08521F0EBA4B6
:1035B0002EFBEA2CFAEB3DFB90FBEAE02AFCA3E0B1
:1035C00012373290FB211236C87401F08882898349
:1035D000E07002A3E060347AFA90FB99E064127024
:1035E000027A1090F9E5E0A2E6501090F9FEE0A210
:1035F000E1500474F3800274F62AFAEA3395E0FB92
:1036000088828983E02AF0A3E03BF090F9E5E0545A
:1036100060642070057905121FBC90FB99E024F6C8
:10362000F912459E90F9E5E054486408702390FB38
:10363000F1C3E094C8A3E09400501690FB99E024F5
:1036400025F582E434F8F583E090DF06F090FAFF88
:10365000F090FB23E0240612296412369850088863
:10366000828983E4F0A3F079001217AA90F9E5E0CB
:10367000546064207003022FDD021A31F090FB23A6
:10368000E022F079047CF37DF97AF97BFB124AD3CE
:1036900022A3E094FF022627C3123753221236A139
:1036A00022122D49EAC398221236AC2290F9F11267
:1036B0002D4990FBF722F8A3E03400F922E0FCA3A7
:1036C000E0FDEC8521F0A4221236CEA3A322E0FA7D
:1036D000A3E0F5838A82A32290FB23E0241A123709
:1036E000A4221236E62290F9EF122D4990FBF51232
:1036F0003D5E22E0F521A3E0F5222290FB2112425B
:103700005D74012290FAF9E02401F0A3E03400F0A6
:1037100090FAF9C3E09433A3E09400229400FB9064
:10372000FAFB1236A1F8EB99F98C828D83E8F0A3AD
:10373000E9223BFD90FAFB123747ECC39AFAED9B66
:10374000FB02261090FBEFE0022973C3E094011204
:10375000375322A3E01225D922C082C0831237B387
:1037600070051237B9802775E10474F0123794247C
:103770005F12427F90F825F090F826F012379A7485
:1037800020F0742290DF02F075D60175E102021B71
:1037900002F0A3E4F090FC05E02212379E2290FC98
:1037A00005E0243A1237A822F8A3E03400F9888211
:1037B000898322123D686410221229A97401022A09
:1037C0001B74F112124290FB9E78211211098A8219
:1037D0008B83782512110978217925120A6890FCCB
:1037E00041782512110978217925120C0D021A1839
:1037F00074E112124289238A2490DF08E0F833959D
:10380000E0F990FB25123D5A7AAC7BFA75211C75C4
:1038100022FA90FB21E02401F525A3E03400F526EF
:10382000852582F583E0701490FB21E02402123696
:10383000B6882789288882F583E060061225DD0294
:103840003D49E524605490FB01E0F818740758C323
:1038500033241CF521E434FAF52279098521828587
:103860002283E0FCA3E0FD8A828B83ECF0A3ED12BF
:103870002A1BA3F0123D4EE5212410F521E5223448
:1038800000F52219E970D590FC00122D417A087BD1
:103890000012116D8829E902391B7529007C0890F6
:1038A000FC49782D12110990FBA2782D1211188075
:1038B00027852182852283E0F52DA3E0F52E752F43
:1038C0000075300090FBA2782D1210CAE521240269
:1038D000F521E5223400F522EC1C70D58525828582
:1038E0002683E0600302383C8527828983E06003F9
:1038F00002383C90FBA2782D1211098A828B8378C2
:103900002D121118123D4E0529E529C39409408D49
:1039100090FC00E0F521A3E0852129F52A3395E00C
:10392000F52BF52C90FAB878291210CA85258285D6
:103930002683E0600302383C852782852883E06087
:103940000302383C7C0979007AAC7BFA124A6A128D
:103950003D897005123D73600302383C90FABC78D3
:103960002512110990FC49782512087F7003023D49
:1039700049752900752A00752B80752C3F78251212
:1039800008B978297925120E2490FB4F7829121155
:10399000188E828F83E070C1852182852283E0703A
:1039A000B890FB4D746BF0A374F9F0790612197698
:1039B0008A258B268C278D2890FB9E78251211183E
:1039C0008E828F83E07092852182852283E07089C8
:1039D00090FB9E782512110990FC4D78291211094F
:1039E00078257929120A68782512093190FAD8E5E4
:1039F00025F0A3E526F090FB4D742FF0A374F91287
:103A000048DBE0600302383C852182852283E06048
:103A10000302383C7A9E7BFB1219C88A258B268CC0
:103A2000278D2890FBAE782512111890FBAE7825D3
:103A3000121109782512093190FBA6782512111868
:103A40008E828F83E0600302383C85218285228349
:103A5000E0600302383C90FBDA782512110990FBF4
:103A6000251236F3740278211211EDE5212525FA8D
:103A7000E5223526FB90FBA67825121109EAC395AD
:103A800025F521EB9526F522740278211211CEE559
:103A90002190FA1BF0E5236022123D6464F0701B54
:103AA00090FBA6782512110990FBDA78251210DD1B
:103AB000AA25AB26AC27AD281249EC123D8970052A
:103AC000123D73600302383C90FB9E782912110965
:103AD00090F947782512110978297925120BE89079
:103AE000F93F782D12110975310075320075338058
:103AF00075343F90F9437835121109852925852AB7
:103B000026852B27852C2878257929120A6878356F
:103B10007925120A6878317935120BE8782D7931D8
:103B2000120A6890FB9A782D12111890FB9E782546
:103B300012110990FC51782912110978257929125E
:103B40000C0D90FB9E782512111890FB4F782512D2
:103B5000110990FB9A782912110978257929120AFE
:103B60006890FB4F782512111875290085298285E8
:103B7000822785272B752C007402782B1211ED8576
:103B80002B25852C2690FB4F782D121109E5252435
:103B9000ACF582E52634FAF58378311211097831D3
:103BA0001208B9782D7931120A6890FBAA782D1283
:103BB00011188E828F83E0600302383C8521828554
:103BC0002283E0600302383C74086529600C7407A6
:103BD0006529600674026529702690FBAA782D126B
:103BE00011097AD47BF91237C18A318B328C338D2B
:103BF00034782D7931120A6890FBAA782D121118A9
:103C0000E52524B2F8E52634FBF988258926E52741
:103C10002410F582E434FCF583E0F52774FF652772
:103C2000701490FBAA782D1211098525828983785A
:103C30002D1211188056752800740378271211ED83
:103C4000E527244BF8E52834F9F990FB4D123D5A4D
:103C500090FBAA782D121109AA2DAB2EAC2FAD30F6
:103C60001219148A2D8B2E8C2F8D30852582852656
:103C700083782D1211188E828F83E0600302383C06
:103C8000852182852283E0600302383C0529E529ED
:103C9000C394095003023B6C90FBB27825121109C2
:103CA000AA25AB26AC27AD28124B9190FAD012264C
:103CB0001490FBB67825121109AA25AB26AC27ADC6
:103CC00028124B9190FAD21229D670051229B960A8
:103CD0000302383C90FBC67825121109AA25AB26B1
:103CE000AC27AD28124B9190FAD612261490FBD235
:103CF0007825121109AA25AB26AC27AD28124B480E
:103D000090FADA12261490FBCE7825121109AA2512
:103D1000AB26AC27AD28124B4890FADC1226149043
:103D2000FBBA7825121109AA25AB26AC27AD2812BB
:103D30004B4890FAD41229D670971229B960030221
:103D4000383CE5246003121B077F180212A1EA2405
:103D500004FAEB3400FB2290FB71123D5E22E8F086
:103D6000A3E9F022123D682290FC05E0243A1237C4
:103D7000A8E02290FB21E0240208A3E03400F988A7
:103D80002189228882F583E02290FB21E02401F83A
:103D9000A3E03400F9E8FEE9FF8E828F83E022740D
:103DA000F51212428A237C237DF990FB0DE054C06A
:103DB000F5248982858221752200E92423FEE434DA
:103DC000F9FFE91213230710152A3F2E30CC403D8E
:103DD000467741494E77414F5193415556A141573E
:103DE00058EB412801CD41045E3E05AE3E0B743FC9
:103DF0000C6E3F0D56410E624116193F171F3F1AB8
:103E0000383F1C7A3F1DBA411FA03F20BE3F219A78
:103E10003F231340251E40282A40293D402A604068
:103E20002B36402CA8402DB94031D74033EF4035D8
:103E3000FA40360E41381A4139BA3F3A43413B56AF
:103E400040527D415CF1415DD2415ED8415FDE412F
:103E500060C84161E44164C34171F63FFD41EAC37A
:103E6000940240030241FDE52460030241FDEA6043
:103E700038D2931229A5A3A3E4F0A3F090FB10E09D
:103E8000701290FB23E024141242187002A3E07019
:103E9000030241FD1218E4E490FB1012367C241456
:103EA000122964E4F0A30241FCC2930241FDEAC37B
:103EB000940240030241FDE52460030241FD7401C8
:103EC0006523702AE490FFFDF090FB0DF090FB203D
:103ED000F090FC037432122A1B90F9A3E07002A345
:103EE000E06008740190FC02F08006E480F7EA606C
:103EF00011741855907015D2931218E412424F02A3
:103F000041FCC29474E790FFFD0241FCA29450036F
:103F10000241FD1218E40241FD8523CD0241FDEA74
:103F200090FB07F0121F7D0241FDEE24F6F582EFB3
:103F300034FFF583EA0241FCEA90F9C7F0F9121563
:103F40008890F9E5E0A2E6402590F9C7E090DF0609
:103F5000F012427590FBF1742CF0A37401F090FB09
:103F6000F7742CF0A37401F075E1041217DF12420C
:103F7000390241FD1215130241FDA293E492E09033
:103F8000F9DCF0A294E492E090F9DDF0E5CD90F94F
:103F9000DEF090FB07E090F9DFF01242870241FD6E
:103FA00012423974FF90F926F090F92512367C24DC
:103FB0001A12427F124233023EA37C007D5C90FBCA
:103FC00003E060030241FD90FA15E07002A3E07087
:103FD00018ECF8EDF990FA15123D5A75F00A90FBBD
:103FE000FDE0A490FB030241FC90FBFDE0C0E0EA91
:103FF000F5F0D0E080ECEA90FB03F090FA157479CC
:10400000F0A374FBF090FB03E060030241FD740138
:104010000241FCEA90F9E0F090DF2E0241FC90F9B9
:10402000E5EAA2E0E092E10241FC90F9E5EAA2E0D3
:10403000E092E40241FCEA90F9E30241FC90F9E5E8
:10404000EAA2E0E092E5F0EA60030241FD90FAFFA7
:104050001217D90241FD90F9FEEAA2E0E092E1F0E8
:10406000742A69700A90F9E5EAA2E0E092E6F0901D
:10407000F9E5E0A2E6501D12422690FBF1E4F0A320
:1040800012424690FAFFF0F912179090FB23E024B9
:1040900010023EA090FBF3E4F0A3F012426290F90C
:1040A000C7E090FAFF0241FCEA90F9E412420040B6
:1040B000030241FD90F9C78097EA90FBEEF0A2E081
:1040C0007583F97582E5E092E70241FCEE2495F5EF
:1040D00082EF3400023F32E490F9C7F074FF90F9A8
:1040E00026F090F925F090F9271242081242871223
:1040F0002A217478F0A3E40241FCEA90F9FD12420F
:104100000040030241FDEA90FAFFF002404D90F9B1
:10411000FEEAA2E0E092E00241FC79107C297DFBFE
:104120007A837BF9124AD379107C397DFB7A937BB1
:10413000F9124AD379207A297BFB124AB012183936
:104140000241FDEA600CC394205007EA90FBFD0297
:1041500041FC740480F690F9FEEAA2E0E092E302EA
:1041600041FC740E6970047AB77BF979047C927D06
:10417000FB124AD30241FDEE24A10240CFEA7007B0
:1041800074FF90FBFE800990FBFEE064FF6004EA90
:10419000121F9BEE244DF582EF3400F583E523805A
:1041A0005B79047C1A7DFB740278211211EDE52104
:1041B0002478FAE52234F8FB80B790F9FEEAA2E011
:1041C0000240C6EA90FC55F01217DF803090F9E506
:1041D0008087EA90F9C48024EA90F9C5801EEA90AD
:1041E000F9C6801812421CEA0240F4EE2441024053
:1041F000CF740165237006740190FB13F0022571E2
:10420000F090F9E5E0A2E622F0A3F0740290F9E163
:10421000F0740190F9E2F022123D6E2290FC05E06C
:10422000245B1237A42290F9ED122D4590FBF31276
:104230003D5E2212298BA3A32290F92DE0F5BC90BC
:10424000F92EE0F5BC22F01236E690F9FDE022905E
:10425000FB2312425DA374D0F0A37407221229B08D
:10426000A32290F9EB122D4590FBF1123D5E123620
:10427000AC123D5E2290FAFFF090FB23E024101276
:1042800037A4E4F0A3F022C082C08343C6400043B9
:10429000C6400043C6400043C6400043C6400043FA
:1042A000C6400043C6400043C6400043C64000909D
:1042B000FB0CE070051248F8806390F53BE064AABF
:1042C00060031249DDC2AF43C6400043C64000430D
:1042D000C6400043C6400043C6400043C64000906D
:1042E000FB0CE070031249DD75AD2E75AB2175AE88
:1042F000010075AD00D2AF7932121FBC79F27C009B
:104300007D5C7A237BF91214BF7916121FBC123719
:10431000B990FB0CF075C689000000000000021B7C
:104320000274F8121242EAFEEBFF7C237DF9EE5490
:104330000FF521EBFAE912132301040AEC431101F2
:104340007443027E43038B430DC1430EDD431000D3
:1043500044111C44132244183E441978441A9A43C9
:104360001BB7431CBC43212844222D44233344243F
:104370003844844490F927EEF0A3EF024483E5210A
:1043800090F925F0EA90F926024483EE90F9E1F0E5
:10439000EA90F9E212448702448390F9A3EEF0A375
:1043A000EFF090F9A3E07002A3E06008740190FCC4
:1043B00002024483E480F790F9A580BB90F9A780BE
:1043C000B67918121FBC743F6E700374086F7003C7
:1043D0000244848E828F83121240024484EE90DF66
:1043E00001F0EA90DF00F090F9BD808BE9C333F86B
:1043F000E433F9E824E3F582E934F9F583024377FD
:1044000090FA15E07002A3E0707AC3EF9404407450
:10441000C3EF9408506E90FA1502437790FA0B029E
:10442000437790F9A902437790F9AB809290F9AD68
:1044300002437790F9AF80E790F9B102437774F0C7
:104440005FF9E47001E960047C007D5C740F5A75CB
:10445000F018A4F8A9F0EC28F8ED39F990FA151243
:104460003D5AEEC4540F90FBFDF0C0E0E521F5F09D
:10447000D0E0A490FB03800BEA2423F582E434F916
:10448000F583EEF0022ED8F090F9E1E090DF0522FE
:1044900074ED1212428923EAFEEBFF7521007522AA
:1044A000007524008925752600740278251211ED07
:1044B000E5252423FAE52634F9FB8E828F837825BF
:1044C000121109E9121323040104DE44050607450D
:1044D0000A171145191A754501185A457F45EA24EE
:1044E00008F521EB3400F5227404652360030245CE
:1044F0007F782512093174142525F8E43526F990C2
:10450000F9E9123D5A8078EA249DF521EB340080C8
:104510006C740E6523700C79047A497BFB124AB0E7
:1045200075240174F62523F523C313F5217403784C
:10453000211211EDE523A2E0E492E0F525752600B5
:10454000740278251211EDE525244BF8E434F9F9CD
:10455000E52128F521E522398023752900752A00F7
:10456000752B80752C3F78297925120E2490FA1727
:104570007829121118EA24BCF521EB34FFF522E565
:10458000217002E522600D7904EEFCEFFDAA21AB5B
:1045900022124AD3E5246003121F9C0216F274F320
:1045A00012124289257E087FF87523017524008048
:1045B0002DE0F521A30EAF837906EEFCEFFD7A29FD
:1045C0007BF9124B08E9700E740F552690F925F00F
:1045D000E52190F926F0EE2406FEEF3400FF8E82EE
:1045E0008F83E0FA7003024810AB2574FF2BF5258A
:1045F000EB70030248108A26A3AE82AF8374F05595
:1046000026F52174F0652160A890FBEEE06402704D
:10461000031248EA8E828F83122D4190FBD6123D01
:104620005AEE24020E0EEF3400FFEE2402EF3400A7
:10463000F974035526F5221212ED0003B2464646E0
:104640004B4667468F46752301806712296890F9AB
:1046500027E06A7003A3E06B70047A0180027A009D
:104660008A230E0EE9804A8E828F83E0FA90F92623
:10467000E06A70128E828F83A3E0FA90F925E06AD7
:1046800070047A0180027A008A2385232480D379FA
:1046900006EEFCEFFD7A297BF9124B08E970047AEB
:1046A0000180027A008A23852324EE2406FEEF345B
:1046B00000FF90FBD6E07002A3E0603590FAF7C3EC
:1046C000E09401A3E094FF4017C390FBD7E094016E
:1046D000500E90FBD6122D4190FAF7123D5A8011E0
:1046E000E523600912490650047A0180027A008AA3
:1046F00023124906500690FAF7123D5A8E828F8394
:10470000A3A882A983E521121323000610404720A5
:10471000C14750204770D04780D047901548DE45AC
:10472000E52370030245D67403652260030245D673
:104730007906EEFCEFFD7A297BF9124AD30245D6C1
:1047400090FBEEE0FA90F9E5E0A2E7E492E06A601F
:104750001090FBEEE0A2E07583F97582E5E092E748
:10476000F08E828F83E0F521E8FEE9FF740C552678
:10477000121323000300804704934708AD47DE452A
:10478000E5236009EEFAEFFBA921124490EE240420
:104790000245D9E523600B8E828F83E0FAA92112AE
:1047A0003D9F8E828F83A30EAF830245DEE523609B
:1047B00008122968A921124321EE24020E0E024597
:1047C000DAE52370030245DE7918121FBC1249DDB9
:1047D000E524603C7AE07B0312183D7AF07B037994
:1047E0000612183F7480652170087521397522FB07
:1047F00080067521297522FB78211212DCEEFCEF70
:10480000FD7A1079021213AE740212120F121839C7
:104810007F060212A1EE2407F521EF3400F522E510
:1048200024602E43C6400043C6400043C6400043B8
:10483000C6400043C6400043C6400043C640004354
:10484000C6400043C6400090FB0CE0700B1248F8D5
:1048500000AE21AF220245DE8E828F83E0F526E88E
:10486000FEE9FF8E828F83E0A30EAF8390F9FDF007
:1048700090F9C71248DBE090F9E11248E190F9E2C3
:104880001248E190F9261248DBA3122D4190F92736
:10489000123D5A740F552690F925F090F9E5E5265A
:1048A000A2E4E092E2F090F9FEE526A2E5E092E4CF
:1048B000F0E526A2E6E092E1F079047C1A7DFB7A2D
:1048C000B77BF9124AD3124287AE21AF2290F9C7C3
:1048D000E0F91215881217D90245DEF08E828F8317
:1048E000221248DBA30EAF83E02290F9E5E0A2E7B5
:1048F000E492E090FBEEF0227414F090FAF71220AC
:1049000072F075C6892290FBD6122D457583FA7513
:1049100082F712491622C3E098A3E0992274F81294
:104920001242E9FE79147C5B7DFC7A0C7BDF124A33
:10493000D390FBE61249D690FBE874301249D89028
:10494000FBEA743C1249D890FBEC1249D690FBD894
:10495000744A1249D8740A90DF07F0EEC3940D40F0
:104960004D79067C557DFC7A0C7BDF124AD374109E
:10497000F090FBD874481249D879037C727DFC7A98
:10498000237BDF124AD379087C757DFC7A157BDFA7
:10499000124AD374196E7023740A90DF07F074A959
:1049A00090DF1CF090F9C6E090DF0CF0800D7903E9
:1049B0007C6F7DFC7A237BDF124AD379037A2F7BCD
:1049C000DF124AB079037C7D7DFC7A027BDF124ADC
:1049D000D37F010212A17450F0A3E4F022C082C080
:1049E0008375C90B748090FFFFF080F574F5121287
:1049F0004274FC1212008A218B228C238D24C2AFB8
:104A000090DF0BE0854182854283F090DF0AE0C0B1
:104A1000E07401121236D0E0F090DF09E0C0E074DB
:104A200002121236D0E0F08541828542837821124D
:104A300010CA854182854283E090DF0BF074011239
:104A40001236E090DF0AF07402121236E090DF09AD
:104A5000F090FBDA78211210CAE490DF08F0D2AFB0
:104A6000740412120F7F040212A174F31212428016
:104A700035740369602F740969602AEA240CF58291
:104A8000EB3400F58378211211098925752600740D
:104A90000278251211EDEA2525F582EB3526F583FE
:104AA00078211210F509E9C39C40C67F060212A1C5
:104AB000C082C083C3EA9401EB94804011800BE470
:104AC0008A828B83F0A3AA82AB83E91970F1D08329
:104AD000D0822274F8121242C3EA9401EB9480400F
:104AE00022801C8C828D83E08A828B83F08C828D65
:104AF00083A3AC82AD838A828B83A3AA82AB83E932
:104B00001970E07F010212A174F6121242E91960D5
:104B1000308A218B22852182852283A3AA82AB83BE
:104B2000ECFEEDFF8E828F83A3AC82AD8385218264
:104B3000852283E0F88E828F83E06860D0790180DF
:104B40000279007F030212A174F11212428A218BB2
:104B5000228C238D24782112093190FC8078251233
:104B600011097825792112089440067AFF7B7F800D
:104B70001B90FC847825121109782579211208945C
:104B800050067A017B808004AA21AB227F080212A2
:104B9000A174F11212428A218B228C238D24782158
:104BA00012093190FC887825121109782579211293
:104BB000089440067AFF7BFF801B90FC4978251201
:104BC00011097825792112089450067A007B00801B
:104BD00004AA21AB2280B56D4EC641393000005089
:104BE0000030003C0050000290067800DC00140009
:104BF0001E000800500004FF01A8FD01320000F56E
:104C0000B1B2B3BCB7B0B5B4B6000102FFFF03FF49
:104C10000605414E4453006C6172417567757374AB
:104C20000007417567757374000741756775737484
:104C30000007646AAA01013200010000803F000001
:104C40007A44000000000000C8420000C8C10E55B0
:104C500073435900790701235945070014166C4323
:104C600040915610A90A00118135098831091D1C8F
:104C7000C740B2B610EA228545008000000180FFDF
:104C8000FF00000100AAAA0000FFFF2C76400227C7
:104C90004471AA35BAD3BC633D91ED1C3F00004876
:104CA000C300001C4595BFD634000092429A9993E8
:104CB0004100C00FC50AD78541000000006666EEBE
:104CC00040000009C43D0A8541000070C252B8DEB0
:104CD0003E00401C4452BBEE4000800BC41F85F3D5
:104CE000400080FFC3414E4453006C6172417567C0
:104CF00075737400074175677573740007417567B4
:104D000075737400070000BC02500006FF3582C8AE
:104D1000003B8F280001020300FFFFFFFFFFFFF0B1
:104D2000F0000000AAFF78804DFFCB486654CB48C6
:104D30006654CB486654ACC5A73717B75138010144
:104D40005AC8FF0201FFFF1701A49A38FF28001E6E
:104D50000003000400080050003F08F11FF11FFF8E
:104D600089FFFF19466E645A0A070B3C0A18FC0AB1
:104D700014010000005555FFFFFFFFFFFFFFFFFF7D
:105A400043C6490043C6490043C6490043C649000E
:105A500043C6490043C6490043C6490043C64900FE
:105A600043C6490043C6490043C6490043C64900EE
:105A700043C6490043C6490043C6490043C64900DE
:105A800043C6490043C6490043C6490043C64900CE
:105A900043C6490043C6490043C6490043C64900BE
:105AA00043C6490043C6490043C6490043C64900AE
:105AB00043C6490043C6490043C6490043C649009E
:105AC00043C6490043C6490043C6490043C649008E
:105AD00043C6490043C6490043C6490043C649007E
:105AE00043C6490043C6490043C6490043C649006E
:105AF00043C6490043C6490043C6490043C649005E
:105B000043C6490043C6490043C6490043C649004D
:105B100043C6490043C6490043C6490043C649003D
:105B200043C6490043C6490043C6490043C649002D
:105B300043C6490043C6490043C6490043C649001D
:105B400043C6490043C6490043C6490043C649000D
:105B500043C6490043C6490043C6490043C64900FD
:105B600043C6490043C6490043C6490043C64900ED
:105B700043C6490043C6490043C6490043C64900DD
:105B800043C6490043C6490043C6490043C64900CD
:105B900043C6490043C6490043C6490043C64900BD
:105BA00043C6490043C6490043C6490043C64900AD
:105BB00043C6490043C6490043C6490043C649009D
:105BC00043C6490043C6490043C6490043C649008D
:105BD00043C6490043C6490043C6490043C649007D
:105BE00043C6490043C6490043C6490043C649006D
:105BF000020000FFFFFFFFFFFFFFFFFFFFFFC1B33A
