:020000040000FA
:0300000002010AF0
:03000B00020643A7
:030033000217A30E
:030043000211F9AE
:03004B0002067931
:03006B0002180771
:100083000205C300000080FB120119B9000302013D
:1000930004E479217823B800028004F709D8FCE44A
:1000A30090F20178DC79048002F0A3D8FCD9FA90AD
:1000B300F5DCAA82AB83902258780C79018015E491
:1000C30093A3AC82AD838A828B83F0A3AA82AB8392
:1000D3008C828D83D8E9D9E790F1FFAA82AB839014
:1000E3002258780179018015E493A3AC82AD838A09
:1000F300828B83F0A3AA82AB838C828D83D8E9D9C8
:10010300E71207A812008675D0007581C07510FF2D
:100113007511F102008B79012243AE022212011004
:100123000100000020A01132327777010203010998
:10013300022000010100C02009040000020A00009F
:100143000007058502400008070505024000010479
:10015300030904140341004D005000540053004FA1
:10016300004C004100520010034700410054004579
:1001730000570041005900160332003000310030AF
:10018300003000360032003400300031003B010003
:1001930000E066701008A3E066700A08A3E06670CA
:1001A3000408A3E06622BB0102E722C082C0838960
:1001B300828A83BB0003E08002E493D083D082224F
:1001C300BB000EC082C0838A838982F0D083D08231
:1001D30022BB0101F722080808EAC0E0EBC0E08671
:1001E300F0E7A4FA180986F0E7A42AFA180986F0BA
:1001F300E7A42AFA180986F0E7A42AFA1986F0E791
:10020300A4FBE5F02AFA190886F0E7A42BFBE5F036
:100213003AFA190886F0E7A42BFBE5F03AFA181826
:100223000986F0E7A4C5F02BFBE43AFA1908E7C501
:10023300F0C6A426F6E5F03BFBE43AFA1886F0E7AD
:10024300A4F6E5F00826F6E43B08F6E43A08F6D00F
:10025300E0FBD0E0FA22E4C396F608E496F608E45D
:1002630096F608E496F6226016080808C6C313C675
:1002730018C613C618C613C618C613C6D5E0EA2295
:100283007009080808226016181818C6C333C60870
:10029300C633C608C633C608C633C6D5E0EA22E667
:1002A30027F60809E637F60809E637F60809E637B8
:1002B300F622E026F608A3E036F608A3E036F608B1
:1002C300A3E036F622E056F608A3E056F608A3E0CC
:1002D30056F608A3E056F622E647F60809E647F67F
:1002E3000809E647F60809E647F622E0F608A3E020
:1002F300F608A3E0F608A3E0F622E6F008A3E6F08A
:1003030008A3E6F008A3E6F022CAC0E0E6F0A308DB
:10031300DAFAD0E0FA22B90010BB0008E88AF084C8
:10032300F8AAF022E4FBC8FA22EB70227B10C83350
:10033300C8C933C9335007C39AC3DBF280069A5046
:10034300012ADBEAC833F4C8C933F4C9FA2275F0C9
:1003530008E4C833C8C933C933C99AC99B5004C90F
:100363002AC93BD5F0ECFBC833F4C8E4C9FA2260D0
:100373000C08C6C313C618C613C6D5E0F42270040E
:1003830022600D18C6C333C608C633C6D5E0F418B9
:10039300222510C0A8C2AF40021511F510D0A82223
:1003A300C0D02510C0A8C2AF50020511F510D0A8C7
:1003B300D0D0222510F582C0A8C2AF40021511F596
:1003C30010D0A8851183222510F582E43511F58319
:1003D30022E4732510C582C0E0E51134FFC583C054
:1003E300E0E510C3958224F9C0A8C2AF85831185C7
:1003F3008210D0A8CEF0A3E520F0A37808E608F099
:10040300A3DEFAEFF0A3E58124FBF8E608F0A3E608
:1004130008F0A30808E608F0A3E608F0A315811581
:1004230081D0E0FED0E0F815811581E8C0E0EEC090
:10043300E022851183851082E0A3FEE0A3F52078F6
:1004430008E0A3F608DFFAE0A3FFE0A3C0E0E0A31F
:10045300C0E0E0A3C0E0E0A3C0E085A8F0C2AF85A0
:10046300821085831185F0A8D083D08222C0D02545
:1004730010C582C0E0E51134FFC583C0E0E510C3B9
:10048300958224F3C0A8C2AF858311858210D0A8BA
:10049300C8F0A3E9F0A3EAF0A3EBF0A37908E70916
:1004A300F0A3D8FAECF0A3EDF0A3EEF0A3EFF0A3E2
:1004B300D0E0F0A3D0E0F0A3D0E0F0A3E520F0A3D8
:1004C300E5F0F0A322851183851082E0C0E0A3E06C
:1004D300F9A3E0FAA3E0FBA37808E0F608A3DFFAA8
:1004E300E0FCA3E0FDA3E0FEA3E0FFA3E0C0E0A3E4
:1004F300E0C0E0A3E0F5D0A3E0F520A3E0A3F5F08E
:10050300E5A8C2AF858210858311F5A8D082D08378
:10051300D0E0F8D0E0327403800474028000C0E0BD
:10052300F4041203B6D0E012030C22D083D082C5A8
:10053300F0E493A3C5F0C395F0F5F0E493A3C3955A
:10054300F04005E5F0048001E475F002A42582F58E
:1005530082E5F03583F583E493A3C0E0E493C0E040
:1005630022D083D082CCC0E0E493A3600612058E30
:100573001470FAE493A360061205AD1470FAD0E088
:10058300FCE493A3C0E0E493C0E022C0E0E493A3BF
:10059300D39C5010E493A3C39C400AD0E0D0E0D096
:1005A300E0020581A3A3A3D0E022C0E0E493A36CFF
:1005B3007009D0E0D0E0D0E0020581A3A3D0E0220F
:1005C300C0E0C0D0E8C0E0E9C0E0EAC0E0C082C05B
:1005D30083C2AF53E9EF539BFCE59B75D6831206A9
:1005E30039E0FA74206A700890F5DCE02414802462
:1005F30074106A702590F5DC120670A3A3A3A3A35D
:10060300A3A3A37414F0A3E4F043D682E5D690F534
:10061300DCE024181206617401F0120639E4F07567
:10062300E104D2AFD083D082D0E0FAD0E0F9D0E0B9
:10063300F8D0D0D0E03290F5DCE0244612066522F3
:10064300C0E074F212047085888890F5DCE0241E03
:100653001206611206701203D47F010204C8120647
:100663006522F8A3E03400F98882898322E0F8A3A5
:10067300E0F583888222C0E074F21204707C00905B
:10068300F5DCE0F8A3E0F9C2DC90F5DCE0244212EB
:1006930006F3F088828983C3E09401A3E09400A267
:1006A300D265D033403788828983E024FFF0A3E00A
:1006B30034FFF088828983E07002A3E0701F740620
:1006C3006C8882898370117405F0A3E4F090F5DCE3
:1006D300E024441206F3800474FFF0A3F0E824023C
:1006E3000808E93400F90CECC3940A40A602065C3E
:1006F300FAA3E03400FB8A828B83E02401F0A3E0B9
:1007030034002274F81203D6EC7001ED6019E98A03
:10071300828B83F0A3AA82AB83EC24FF1CED34FF0E
:10072300FDEC7001ED70E7805774F81203D6E960B1
:10073300208C828D83E08A828B83F08C828D83A3CD
:10074300AC82AD838A828B83A3AA82AB8319E970BF
:10075300E0802D74F81203D6800EA3AC82AD838A99
:10076300828B83A3AA82AB83E96013198A828B836A
:10077300E0FE8C828D83E06E60E079018002790077
:100783007F01020435C082C08390F48BE0244712BA
:1007930009767A20E4F0A3F0A31AEA70F7E490F460
:1007A30088F0020D6890F48BE4F0A374F6F0758280
:1007B30000F5837A4BE4F0A3F0A3F0A31AEA70F5F3
:1007C30090F60C7405F0A3E4F053F4FD43FE02D25B
:1007D3009175C90875C680E5BEA2E650FA90229DC0
:1007E30078081202EE90F20178081202FDE490F20A
:1007F30005F090F206F0740890F207F0121054120C
:100803000B0F790012128012143E7AFF7BFF12172E
:1008130061740590DE0EF0E490DE13F074FF90DE59
:1008230010F090DE12E0D2E0F0D2B9D2AF90F48BA8
:10083300E024241209767474F0A3740D1210282492
:10084300261209767418F0A3740D121028242812A6
:1008530009767441F0A3740D121028242A12097624
:10086300746DF0A3740D121028242C12097674529F
:10087300F0A3740C121028242E1209767406F0A328
:1008830074071210282430120976742CF0A374070D
:1008930012102824321209767456F0A3740712102A
:1008A30028243412097674BEF0A37411121028247C
:1008B300361209767418F0A3741112102824381212
:1008C30009767438F0A37411121028243A120976A9
:1008D300746AF0A3741F121028243C12097674C0A2
:1008E300F0A3741E1210282420120976747AF0A340
:1008F3007409121028243E1209767488F0A3740731
:1009030012102824C71209767408F0A374F4121085
:100913002824D9120976746DF0A374F512102824D3
:10092300DB120976748FF0A374F412102824DD12FD
:1009330009767423F0A374F512102824DF120976C4
:100943007448F0A374F51210282441120FF1121009
:1009530028F8A3E0F5838882A3A37471F0A374023B
:10096300121028240E1209767419F0A3E4F0120968
:100973007A80FB1210002274F31203D690F48BE0FA
:100983002447F50CA3E03400F50D1212A1C2AF7495
:100993000590DE0EF07508087509F4750A00803CB1
:1009A300E004F0EA24010AEB3400FB88828983A384
:1009B300A882A983C3EA9EEB9F405AEE2408F582DE
:1009C300EF34F4F583E4F090F5DEE0600F90DE1190
:1009D300E0A2E040077A087BF4120C5290DE14E0A8
:1009E300A2E0506C90DE17E0FF90DE16E0FE70018F
:1009F300EF605D7808120519EEF97A2A7BDE12168C
:100A0300FB74031203A390DE14E0C2E0F07A007BD0
:100A130000780879F488828983E0C0E0120AE4D080
:100A2300E0F0120AE4E0640D7014120B03740AF090
:100A3300120B03E4F0740190F489F00209BEE06440
:100A43000A90F48860030209A3120B06740D80DF79
:100A5300D2AF120B1C90F489E06005120E40E4F053
:100A630012101A7002A3E0701C90F48BE02402129F
:100A73000AF5501175C9A875C9588882898374719C
:100A8300F0A37402F090F48BE0240E120AF55006E2
:100A930012103512100F90F48BE02444F8A3E034C5
:100AA30000F9E8FCE9FD8C828D83C3E094E9A3E0BF
:100AB3009403402890F48AE0600214F012101A7034
:100AC30002A3E070178C828D83120C4C7AE87B03AF
:100AD3001203198C828D83EAF0A3EBF07F060204E4
:100AE3003590F488E0FCE50C2CF582E50D3400F537
:100AF3008322121000C3A3E09400A2D265D0332254
:100B030090F488E004F0F8E50C2880DD75DB0275CD
:100B1300DA5775E40675E5442274F61203D690F5A8
:100B2300DFE07004A3E06402607B90DE11E0A2E0EA
:100B33004073740590DE0E120C447583F57582DFE5
:100B4300C3E098A3E09990F5DF120C4C50597583DC
:100B5300F475828DE0C398FEA3E0120C2640047E58
:100B6300407F00120C30120519EEF97A2A7BDE124F
:100B7300172274031203A390F5DFE02EF0A3E03FE6
:100B8300F090DE11E0D2E0120C4490F5DFE06870E3
:100B930003A3E069700F90F48DE4F0A3F090F5DF08
:100BA300F0A37402F08077E4C398FE7402120C265B
:100BB30040047E407F00120C30120519EEF97A2AA8
:100BC3007BDE12172274031203A390F5DFE02EF0ED
:100BD300A3E03FF0C39402400790F5DFE4F0A3F0F5
:100BE3007440C39EF8E49FF9E87001E9609390F5BF
:100BF300DFE0FAA3E0FB7583F475828DE0C39AFE10
:100C0300A3E09BFFEE7001EF7003020B84C3E89E29
:100C1300E99F4003020B66E8FEE9FF020B667F03D0
:100C230002043599FFC3EE9441EF94002290F5DF5F
:100C3300E02408F508A3E034F2F509750A00780802
:100C430022F0120C492290F48DE0F8A3E0F922740B
:100C5300F81203D67E00120C49801F120CF8EFF035
:100C63008A828B83A3AA82AB83E8240108E9340038
:100C7300F9C394024004780079008A828B83E0FFF1
:100C8300605290F5DF120D03401C7583F475828D5D
:100C9300C3E09CA3E09D403C90F48D120D034034CF
:100CA300C3E99402502EEE7016740A6F6005740D3A
:100CB3006F70A8120CF8740D120D0E7E0180B21223
:100CC3000CF8740A120D0E7E008A828B83A3AA820B
:100CD300AB83809D90F48DE8F0A3E9F090F5DFE01D
:100CE3007004A3E06402700790F5DFE4F0A3F01250
:100CF3000B1C020783E82408F582E934F2F583220A
:100D0300E0FCA3E0FDC3E89CE99D22F0E824010890
:100D1300E93400F922C082C0838005A3AA82AB8391
:100D23008A828B83E0FC601474206C600F74096CFE
:100D3300600A740A6C6005740D6C70DF8027C082D2
:100D4300C0838005A3AA82AB838A828B83E0FC6085
:100D53001474206C60EE74096C60E9740A6C60E4CE
:100D6300740D6C60DFD083D08222120D18120D41F6
:100D73002274F61203D6EAFEEBFF8982AA827B0075
:100D83008E828F83EA7001E46011E4F0A3EA24FF0A
:100D93001AEB34FFFBEA7001EB70EF7A00E9605A5B
:100DA3007B008C828D83E0F508C394304051E508C5
:100DB300C3943A504AEB6005750A008003750A0430
:100DC30074D02508F50874FF3400F509E50A78089E
:100DD3001203818E828F83E04508F00B8C828D8312
:100DE300A3AC82AD83EBC3940240B70A8E828F8398
:100DF300A3AE82AF83EAC39940A67901020C21E531
:100E030008C394414016E508C39447500FEB6005AF
:100E1300750A008003750A0474C980A6E508C394A3
:100E2300614016E508C39467500FEB6005750A002F
:100E33008003750A0474A98089790080BF74F11254
:100E430003D674EF12039490F48BE02447FAA3E0E3
:100E53003400FB120FE9A808A90988828983A385B6
:100E6300820885830988828983E012056400074329
:100E7300890E44F30E45C70E49E90E52E40E53BBE7
:100E83000F559A0FC00F90F48AE0603112100F7E55
:100E930009EEC333F91211180EEEC3941F40F290FA
:100EA300F48BE0241C121025241E12102524221278
:100EB3000FF1F0A3F012078812097A80FB7A637BA3
:100EC30022120C52AA08AB09120D418A828B83E0CD
:100ED300643060047A0180027A00EA90F5DE020F42
:100EE300C5C2B9020FC67A7A7B22120C52020FC610
:100EF30012101A7002A3E06003020FC612100FAAA9
:100F030008AB09120FE9750A10750B00780A120570
:100F13001D7C007D00121F6A74021203A3851082D8
:100F2300851183EAF0120FE2780A12051D7C007D19
:100F330000121F6A74021203A38A0C8B0DAE0CAF4E
:100F43000D851082851183E0C394115076C3EF940D
:100F5300244070E0F50A2EE43FC3947C5065120FE1
:100F6300E2E0F9AC08AD0974011203CAAA82AB83AB
:100F7300120D74780A12051DEEFCEFFD74031203C3
:100F8300CAAA82AB8312113874021203A3E9703325
:100F93007905121EC080DC750A10750B00780A12E1
:100FA300051D7C007D00AA08AB09121F6A7402129A
:100FB30003A3EA90F48A800A1210358006120FF612
:100FC3007401F012101A7002A3E06006120FF6E02B
:100FD300700312078874111203A37F08020435AA51
:100FE30008AB09120D18120D418A088B0922121041
:100FF30000E42290F48BE024151210002212100456
:1010030022F8A3E03400F9888289832290F48BE0EC
:10101300240E12102EF02290F48BE02422121000E2
:10102300E02212102EF090F48BE022121004E4F070
:10103300A322C082C08312101A7002A3E0700812A8
:10104300078812247680077A7F7B22120C52020DC6
:1010530068C082C08390F57CE054F0F0741390F57F
:101063007BF074F590F575F0744890F576F074DFC5
:1010730090F577F074D990F578F0742090F579F0C5
:10108300742390F57AF0744090F57CF090F584E049
:1010930054F84408FAF0741290F583F074DF90F575
:1010A3007FF074AF90F580F090F581E0541FF074F9
:1010B3000F5A444090F584F0E490F57DF090F57E6E
:1010C300F090F581F0746490F582F074F5F5D375C2
:1010D300D27590F574E054F0F0741390F573F074D6
:1010E300DF90F56DF074D990F56EF074F590F56FAF
:1010F300F0742390F570F0748090F571F07425907E
:10110300F572F0741090F574F074F5F5D575D46D2F
:10111300D083D08222800100E5AEA2E740F9C2AFBE
:1011230089AD75AB2143AE0100D2AF800100E5AEBE
:10113300A2E740F92274F61203D6740A1203CAE036
:10114300F508A3E0F50912125DE8FEE9FF8E828F30
:1011530083E060047900805EEB90F57DF0EA90F522
:101163007EF0E509541FC0E090F581E054E0FAD029
:10117300E04AF0E50890F582F074F5F5D375D27581
:10118300ECFAEDFB8A088B0974097808120372E5FF
:1011930008F5ADEBC313EA13F5AC75AB2153D104DA
:1011A300E5D185C0C075D604D2B874018E828F8311
:1011B300F012011C79017F0302043574F71203D680
:1011C30090F586E4F0A3F0750840F5097808120558
:1011D3001D7C007D007A887BF5121F2274021203A6
:1011E300A3780812051D12126A1203A3E990F5856C
:1011F300F07F02020435C0E074F112047085C0C0B0
:10120300E5D1A2E2504F12125D88828983E4F05344
:10121300D1FBC2B875D60490F585E0603890F586A9
:10122300E02440F0A3E03400F0E490F585F0C390AF
:10123300F587E09480501E794012127312072C75C3
:101243000840750900780812051D12126A1203A3DB
:10125300E990F585F07F020204C890F5E1E02441AE
:10126300F8A3E03400F92212127312113874022227
:1012730090F586E0FCA3E0FD7A887BF522E9600B1C
:1012830043C640E5BEA2E550FA800F53BEFBE5BE60
:10129300A2E650FA0053C680E5C643BE0422C082CC
:1012A300C083A841E85404600F75410075420012E1
:1012B3001476740190DE01F0A841E85410600978B7
:1012C3004174EF56F612148DA841E8A2E0500F784E
:1012D3004174FE56F6121E39784174FD56F6D083DA
:1012E300D08222E53AFA74226A601974206A701176
:1012F300E52770107534017535F2753600752702D0
:1013030022752704227421653A7017E52770167534
:1013130034017535F2753600753707753800752752
:1013230001227527012275270422752704227527B8
:1013330004227527042275270422752704222222FA
:101343002274F81203D68A087C007D00801585215B
:1013530082852283E0FE18E62EFE08E63400FF8E27
:10136300218F2274906521700474016522603078A6
:1013730021E62401F58208E63400F583E06970175D
:10138300AC21AD228C828D83E0FAEC2AFAED340095
:10139300FB8A218B228008E0650870B2EA60AFEC1B
:1013A300FAEDFB7F010204357521207522017A00D5
:1013B30079011213442274F71203D6E9FFEAFE758A
:1013C300212075220180011E7A007902121344EA5A
:1013D3007001EB6015EF600F8A828B83A3A3A3A335
:1013E300A3E06F70E38003EE70DD7F0202043574C7
:1013F300F71203D6EAFEEBFF7A001213B97A0279E9
:1014030004121344EA7001EB60158A828B83A3A351
:10141300E06E70E98A828B83A3A3A3E06F70DE8002
:10142300C974F71203D6E9FE7521207522017A00EB
:101433007903121344EE1E70F580AFC082C0837A25
:101443000079011213B98A828B83A3A3A3A3A3A355
:10145300A3E0A2E65004D2F08002C2F0A2F0E4922C
:10146300E0F533753200D29043FE0143BE80D08352
:10147300D08222C082C083752302E490DE00F0F59F
:1014830024F52779031216D580E474F51203D69058
:10149300DE0EE0FFE4F090DE11E0FEA2E4501974EA
:1014A30080F075270790F5C8E07002A3E06006128C
:1014B30016C91203D4752700EEA2E25009E490DEA8
:1014C30011F0F527807DE527FA74026A706390DED8
:1014D30016E0F50A7834120519A90A7A207BDE1280
:1014E30016FB74031203A3850A081216B0A934AAC3
:1014F30035AB36E9250A1216BDE5377002E53860CB
:10150300047A4080027A48EA90DE11F0E5377002EF
:10151300E538701390F5C8E07002A3E06006121678
:10152300C91203D4752700EF90DE0EF07F04020486
:101533003574066A70061216C91203D4E5276003D0
:10154300021647EEA2E050DF750839750900750AE7
:1015530001780812051979087A207BDE1216FB74CC
:10156300031203A390F5C8E4F0A3F074E055391215
:1015730005640006008B15201A1640FC1580CB1558
:10158300A02916C00B16C615E53A1205640006011C
:10159300B21503AC1505A61507C11509B7150BBC84
:1015A30015C6151219CF0216361219C302163612B2
:1015B30019B7807F121D08807A121DD4807512130B
:1015C3003180707527048071E53A120564000500C7
:1015D300E31506E81508ED150AF2150CF715C615FF
:1015E30012182B804E121A128049121CD7804412F3
:1015F3001DA7803F121335803A90F5C87429F0A3D4
:101603007413F0121329802B90F5C8742DF0A37472
:1016130013F012132D801C90F5C874E6F0A3741216
:10162300F01212E6800D90F5C87408F0A37413F05D
:101633001213087404652770047A6080027A40EA02
:1016430090DE11F0E527FA74016A70507E02A83724
:10165300A938C3E89420E994005007E8F50A7E0A04
:101663008003750A207834120519A90A7A207BDED3
:1016730012172274031203A3850A08A934AA35ABEF
:1016830036E925081216BD1216B0EE90DE11F0E50C
:101693000AC39420400302152A02151774056A60D1
:1016A3000302152A1216C91203D402152A7837C366
:1016B300E69508F608E69400F622F9EA3400FA897A
:1016C300348A358B362290F5C8E0F8A3E0F5838899
:1016D3008222E9FA8A2878297B021216EE70FB8AA5
:1016E3002D782E7B021216EE70FB22EAF674012887
:1016F300F9EAF708081BEB2274F61203D6EAFCEBAF
:10170300FDE9FE740A1203CA121751600D8C828D13
:1017130083E01201C312174670F37F03020435748A
:10172300F61203D6EAFCEBFDE9FE740A1203CA12B1
:101733001751600D1201A98C828D83F01217467028
:10174300F380D7E9240109EA3400FA1EEE22E0F51A
:1017530008A3E0F509A3E0A908AA09FBEE2274F7A0
:101763001203D6439A02438C1075410075420075EB
:101773004300EA90DE0BF08A088B097404780812A0
:101783000372E50890DE07F08A088B09740978086C
:10179300120372E508543E90DE09F07F020204351D
:1017A300C0E074F1120470E5BEA2E650FA90DE06C2
:1017B300E0784146F690DE02E0F50875090074040E
:1017C30078081203817841E50846F608E50946F6EC
:1017D30090DE04E0F50875090074097808120381A6
:1017E300784108E50946F6E543600AA841E854064E
:1017F3006003754300121343E589F4F589C2E87F5A
:10180300020204C8C0E074F2120470E5BEA2E650FE
:10181300FAE589FEA2E75005C2BD121EADEEF4F54E
:1018230089C2C57F010204C8C082C083E53B700240
:10183300E53C7011A83DA93EE9700A7402653F704A
:1018430002E54060067527040218EBE53912052E00
:10185300800248185D187E188C18E870E8E533603C
:101863000478018002780090F1FFE8F0A3E4F0E54A
:1018730032604F90F1FFE0440280437404652370AB
:10188300C490F1FFE4F0A38038E8547FFA74046550
:101893002370B2EAC3940650AC74232AFAE8548046
:1018A300600D74042AF8E66403700D7801800B74EC
:1018B300092AF8E6640360F3780090F1FFE8F0A3E7
:1018C300E4F07404652760207CFF7DF1AA3D741F5A
:1018D3005539F91213417534FF7535F175360075B5
:1018E3003702753800752701D083D08222C082C0A9
:1018F30083E53F7002E540700E74046523600EE5D6
:101903003D7002E53E60067527040219B2741F5547
:101913003912052E00020A19211928193F19AA3B69
:10192300EA6401600579000219B48932E960047937
:1019330005800279067A001213428073AA3DEA54A5
:101943007FFAAC3BEC70DEEAC3940650BAEA90DE51
:101953000EF0AC3DEC54806028E960047B108002FB
:101963007B40EB90DE11F0E960047B0380027B0097
:1019730074272AF8EBF6E960047908802A7907804E
:1019830026E960047B2080027B80EB90DE14F0E983
:1019930060047B0380027B00742C2AF8EBF6E96079
:1019A30004790A80027909121342E490DE0EF07979
:1019B300010218EB79001218F0E9700312133922AF
:1019C30079011218F0E9700312133D22C082C0831B
:1019D300E53D7002E53E7014E53F7002E540700C92
:1019E300A83BA93CE97005E854806005752704808D
:1019F3001BE890DE00F0600B74026523700E752304
:101A03000380097403652370037523020218EB74C2
:101A1300F51203D6AA3BAB3CEB12052E0102851A45
:101A2300291A441A7E1A1213AB8A348B3575360081
:101A3300A934AA357B001201A9F888378B38021B19
:101A43004379001213B98A348B35753600A934AA49
:101A5300357B00E924020909EA3400FA1201A9FCE2
:101A63001919AA35E92403090909EA3400FA12010C
:101A7300A9F9ECF888378938021B43EAF9121424D0
:101A830080A77534007535007536007E007490C3E9
:101A93009490F50874019401F50974FF5509F974DC
:101AA300007001E97003021B4E740378081203727D
:101AB300AC08AD09853B0A8B0B8E087509007403CE
:101AC3007808120381A808A909E82490F582E9346B
:101AD30001F583E0AA0B6A705CE82491F582E9348E
:101AE30001F583E0650A704D853D08853E09E824CC
:101AF30092F582E93401F583E0AA096A7037E82494
:101B030093F582E93401F583E065087028E82494AD
:101B1300F582E93401F583E0F508A3E0850834F59F
:101B230035753600E82496F582E93401F583E0F54E
:101B330037A3E0F5380EC3EE9CE49D5003021AB7B9
:101B4300AC34AD35AE36EC4D4E7005752704801AB6
:101B5300740465276014A83FA940C3E89537E99545
:101B6300385004883789387527017F040204357497
:101B7300F11203D674FE120394851082851183EA51
:101B8300F0A3EBF0121CC36030750E90750F01804B
:101B93000CE50E2404F50EE50F3400F50F850E82D7
:101BA300850F83E493F8740193F98510828511837B
:101BB300E0687003A3E06970D87E0080457490905C
:101BC300DE14F07410121CB870027F4075080175A2
:101BD3000900E50A7808120381850E82850F83A325
:101BE300A3A39355086004EFD2E0FFEF90DE15F056
:101BF300EA90DE13F0742C250AF87600E490DE0EEA
:101C0300F00E121CC3FAEEC39A4003021CAE7A0014
:101C130079051213448A088B09AC08AD09EC7001ED
:101C2300ED60DEEC2402F50CED3400F50D850C823D
:101C3300F583E0540FF50A90DE0EF07F008C828D61
:101C430083A3A3A3A3E02407F508A3E03400F509C5
:101C530074037808120372AA08EC2403F8ED340025
:101C6300F9850C82850D83E0A2E74003021BC07453
:101C73004890DE11F07408121CB870027F4075089A
:101C830001750900E50A7808120381850E82850F24
:101C930083A3A39355086004EFD2E0FFEF90DE1215
:101CA300F0EA90DE10F07427021BFA74021203A309
:101CB3007F08020435F088828983E054036401229B
:101CC300851082851183E0F8A3E0F5838882A3A3BE
:101CD300A3A3E022E53B7002E53C7012E53D7002F0
:101CE300E53E700A7401653F7002E54060047527A4
:101CF300042275342475350075360175370175383E
:101D0300007527012274F51203D67402652360154A
:101D1300E53D7002E53E700DE53F7002E54070055C
:101D2300A93CE9600575270480777A0079011213CD
:101D330042A83BE8605C7A00F91213B98A088B0960
:101D4300A808A909E87001E96043752304AA3BEADE
:101D5300F524750800E82404FEE93400FF8E828F21
:101D630083E0FAE508C39A503174252508F8760014
:101D7300F5097A0079041213448A828B83A3A3A3FF
:101D8300E0A8096670EC121B72050880D075270461
:101D9300800875230379031216D57A00790212138A
:101DA30042021B6D740465237018748165397012C7
:101DB300E53B7002E53C700A7401653F7002E54043
:101DC300600475270422A83DE82425F98934021C00
:101DD300F874F71203D674046523700E7401653921
:101DE3007008E53F7002E54060057527048042A84E
:101DF3003BE8FBA83DE8FAA9241213F28A088B09F1
:101E0300A808A90988828983E87001E960DCAA3DF2
:101E13007903121342A83BE8C0E0A83DE82425F863
:101E2300D0E0F6AA82AB83121B72AA3D7904121387
:101E3300427F02020435C082C083745390F5CAF016
:101E430074BE90F5CBF074FC90F5CCF0744390F530
:101E5300CDF074BE90F5CEF0740190F5CFF07475AB
:101E630090F5D0F0748790F5D1F0740190F5D2F02D
:101E730074E590F5D3F0744390F5D4F0747090F555
:101E8300D5F074F390F5D6F0742290F5D7F075433E
:101E930001D2BD90F5D874CAF0A374F5F07582CA67
:101EA300F5831203D4D083D08222C082C083E4900E
:101EB300F5D0F090F5D1F090F5D2F080E874F112FE
:101EC30003D6E960558982AA828A087509007407D6
:101ED3007808120381F50AF50BEA75F02DA4FAAC24
:101EE300F0E42C8A0CF50D3395E0F50EF50F780828
:101EF300790C1202A2740355C6780812026A902262
:101F0300A1780812019460129022A578081202B5F4
:101F13009022A1780812019470EE7F0802043574B0
:101F2300F71203D674091203CAE0FEA3E0FFEAF82E
:101F3300EBF980188C828D83E088828983F0A3A8D3
:101F430082A9838C828D83A3AC82AD838E088F0993
:101F530074FF25081E74FF3509FFE5087002E509C3
:101F630070D27F0202043574F11203D674F51203A2
:101F73009474021203CAEAF0A3EBF0851082851170
:101F830083ECF0A3EDF0741A1203CAE0FEA3E0FFA2
:101F93009022A178081202EE74051203CA7808127F
:101FA30002FD74021203CAE0FCA3E08003E8FCE92B
:101FB300FD8C828D83A3A882A9838C828D83E012FA
:101FC3002234A2E340E78C828D83E0FA742B6A60AB
:101FD30005742D6A7006E8FCE9FD80027A2B74040F
:101FE3001203CAEAF0C3EF9400A2D265D0334016BD
:101FF30074016E7001EF600EC3EE9425EF9400A29E
:10200300D265D0334021851082851183E07002A30D
:10201300E0600974021203CA122240F07A007B00C6
:102023007C007D0002221C8C828D83A3A882A9835D
:102033008C828D83E0FAEE7001EF702574306A7044
:102043001C88828983E0FA74786A600574586A7020
:10205300067E107F0080277E087F00802A7E0A800C
:10206300F874306A702174106E7001EF70198882F1
:102073008983E0FA74786A600574586A7009EC24FD
:10208300020C0CED3400FD74091203CAECF0A3ED4D
:10209300F08005A3AC82AD838C828D83E0643060D5
:1020A300F28C828D83E0F8122234540770030221EC
:1020B30077E493A2E2500574D0288010E493A2E061
:1020C30050057420488001E8FA74A92AFA74FF3491
:1020D30000FBC3EA9EEB9FA2D265D03340030221EB
:1020E3007774051203CAC082C08390F5E3780C129B
:1020F30002EED083D082780C1202C88E08EF12222F
:10210300261201D98A08EB1222261202A2740512A2
:1021130003CA78081202EE7418780812026AEEF8FD
:10212300EFF9E88508F0A4F8AAF08508F0E9A42AF5
:10213300F9E8FAE9FB850C08850D09850E0A850F78
:102143000B7418780812026AE5082AFAE43BFB7458
:10215300FF5BF9E47001E960449022A5780812025C
:10216300EE74051203CA78081202FD90F5DA7422A0
:10217300F0A3E4F0851082851183E07002A3E06090
:102183006B74091203CAE0F8A3E0F9EC687002ED7E
:1021930069704674021203CA122240804E90F5E31E
:1021A300780C1202C88A088B097418780812028303
:1021B300780C79081202DB850C08850D09850E0A57
:1021C300850F0B74051203CA78081202FD8C828DE9
:1021D30083A3AC82AD830220A4851082851183E0A2
:1021E300F8A3E0F5838882ECF0A3EDF07404120306
:1021F300CAE0642B700C74051203CA78081202EE4D
:10220300800F74051203CA78081202EE78081202CE
:1022130059AA08AB09AC0AAD0B740B1203A37F08D0
:10222300020435F5093395E0F50AF50B780C7908C6
:102233002224AAF582E43422F583E49322E0F8A36E
:10224300E0F9851082851183E0FAA3E0F5838A82A1
:10225300E8F0A3E92200F601000200F6FFFFFF0009
:10226300436F6D6D616E6420776173206E6F7420B0
:1022730041726D65642100424F550A0052616469E1
:102283006F20496D61676520616C726561647920B7
:1022930073746172746564210A0000840300000092
:1022A3000000FFFFFFFF002020202020202020200F
:1022B30028282828282020202020202020202020F3
:1022C3002020202020202088101010101010101023
:1022D3001010101010101004040404040404040467
:1022E30004101010101010104141414141410101EF
:1022F30001010101010101010101010101010101CB
:1023030001011010101010104242424242420202D8
:10231300020202020202020202020202020202029A
:07232300020210101010204F
:040000050000010AEC
:00000001FF
