:020000040000FA
:0300000002247661
:1024000000000080FB122485B90003022470E490D0
:10241000F8FF78C479048002F0A3D8FCD9FA90FCC4
:10242000C2AA82AB83907574783279018015E493E7
:10243000A3AC82AD838A828B83F0A3AA82AB838C08
:10244000828D83D8E9D9E790F8FFAA82AB83907593
:1024500074780179018015E493A3AC82AD838A82FC
:102460008B83F0A3AA82AB838C828D83D8E9D9E7D2
:102470001234D012240075D0007581707510FF756C
:1024800011F8022405790122E066701008A3E066C5
:10249000700A08A3E066700408A3E06622C3E7960A
:1024A0000809E7960809E7960809E796A2D265D0D9
:1024B0003322C3E09608A3E09608A3E09608A3E0C1
:1024C0009622080808E630E711122D891224DA084E
:1024D0000808C64480C618181822181818E9799EEA
:1024E000C608CAC608CBC608CCC6C370207996CA2F
:1024F000CBCC7019798ECBCC70137986CC700EF959
:10250000802ACA33CACB33CBCC33CC331930E7F271
:10251000CCCBCA3350147004EA30E00DE4CA3ACA96
:10252000CB3BCBCC3CCC500209C3E913C6CC18231F
:1025300013C6CB18C6CA18C6F92212258530F03941
:102540001225CA803412258520F01430E72B74FF41
:10255000FCFBFA747F8022E4FCFBFA7480801AB4DE
:102560008008BC00F2BB00EF800F50EBF9E4C39A87
:10257000FAE49BFBE49CFCE499C6CC18C6CB18C6D5
:10258000CA18C6F922E4C9C608CAC608CBC6D333DE
:102590000308CCC63392F0C3947F402E94184019A0
:1025A000C9B90704CACBCC225025C309CA33CACB48
:1025B00033CBCC33CC33D9F422F4600DC9CCC31364
:1025C000CB13CBCA13CAD9F6CC22E4FCFBFA2214F3
:1025D000FCFBFA22E6C33318461846184622E7C326
:1025E0003319471947194722181818E60846087082
:1025F0000AE608C3337005E633F4220822191919D4
:10260000E7094709700AE709C3337005E733F42285
:102610000922E6084608C3134608336002E633F48D
:1026200022E7094709C3134709336002E733F4225D
:10263000122612602512262160201225D470030272
:1026400025DE080808E76670101819E766700A1892
:1026500019E76670041819E76622F4221226126040
:102660001C12262160171225D470071225DE700176
:10267000D322C0D01225DE7006D0D0B322C32233BD
:10268000D0D0501430E0F6C3E7960809E796080961
:10269000E7960809E796B32220E0D5E6970809E611
:1026A000970809E6970809E697B322122612601BDD
:1026B00012262160161225D470071225DE600CB395
:1026C00022C0D01225DE7005D0D022C32233D0D054
:1026D000501330E0EBC3E7960809E7960809E79640
:1026E0000809E7962220E0E4E6970809E69708093A
:1026F000E6970809E6972200122612604F1226215B
:102700006012E7548066F61225E870111225DE701B
:102710003B090909F4F618F618F618F6221225FDF9
:1027200070151225D408080860EAE6447FF618768A
:102730008018E4F618F6221225D460161225DE70F1
:1027400012E4F608F608F608E65480F609090918B6
:10275000181822EAC0E0EBC0E0ECC0E0EDC0E0E613
:1027600087F0A4FBACF008E687F0A42CFCE435F07D
:10277000FA1809E687F0A42C4B60027401CA35F000
:10278000FCE433FB09E687F0D2F7A42CCB35F0FC50
:102790001908E687F0A42BCC35F0FBE433FD0819CB
:1027A000E687F0D2E7A42C4ACB35F0CD3400FC0903
:1027B000E687F0D2E7A42DCC35F0FDE433FA091812
:1027C000E687F0D2F7A42CCD35F0CA3400FC08E639
:1027D00087F0D2E7D2F7A42ACC35F07A7E20E70B37
:1027E0000ACB33CBCD33CDCC33CC33CB3350147079
:1027F00004ED30E00ED2F1E4CD3DCDCC3CCC3B50ED
:1028000005DA05C2F1EB547FC63308E63392F0FBDC
:10281000E73309E733C39A502D2B70190C0D4C4D3B
:1028200070151806E608C333700D20F10AA2F013E4
:10283000F6E418800B4024E4F630F002768018F6B7
:1028400018F618F68024D33B14501074FFA2F0132E
:10285000F6187680E418F618F6800FA2F013F61832
:10286000E63303F618ECF618EDF6D0E0FDD0E0FC08
:10287000D0E0FBD0E0FA2212262160461226126038
:102880003DE9687008F618F618F618F622748067A5
:10289000F71228AB090909748067F7221226126023
:1028A0001D1226217005191919801A1225E8701FAA
:1028B0001225FDC37003E66733191919400718186C
:1028C000182208080874FFF618F618F618F62212EF
:1028D00025FD60171225DE702192F01225D47019A3
:1028E000501720F014080808090909E7F61819E735
:1028F000F61819E7F61819E7F6221225D460E6E86B
:1029000069701F0808E62480F608E436F618547F3C
:10291000B47F0CE654806007F6E418F618F6221827
:102920001822E9C6CC08C6CD08C6CE08C6CFC0E07E
:10293000E8C0E0EAC0E0EBC0E009E9F809E7FA091D
:10294000E7FBE6F918E6F8C3EC98ED99EE9AEBC2CE
:10295000E7F5F0EFC2E795F0500E600CEBCFFBEA25
:10296000CEFAE9CDF9E8CCF8EAA2E7D2E7FAEB3300
:10297000FB13F5F0EEA2E7D2E7FEEF33FFC5F0134D
:10298000A2E730E601B313C5F0C3C0E0C0F07F009A
:10299000C39BFB605B9418600C401AD0E023F9D015
:1029A000E0F8022A7A8AF0E9486003D2F0E4AFF056
:1029B000FAF9F8803BEB30E40D89F0EA6003D2F0DD
:1029C000E4AFF0F9CAF8EB30E30D88F0EF6002D223
:1029D000F0AFF0E4CAC9F8EB54076014FBC3EA1384
:1029E000FAE913F9E813F8EF135002D2E0FFDBED38
:1029F000D0E0C0E030E739C3E49FFFF5F0EC98FC8D
:102A000042F0ED99FD42F0EE9AFE42F0D0E0F9D0AE
:102A1000E0F8E5F0607AE923F9EE20E742D8028099
:102A200067C3EF33FFEC33FCED33FDEE33FE80EA9A
:102A3000EC28FCED39FDEE3AFED0E023F9D0E0F8C9
:102A40004002801BC3EE13FEED13FDEC13FCEF13ED
:102A50005002D2E0FF08B800067F7F74FF802EEF9F
:102A60003350178CF020F00260100CBC000C0DBD30
:102A700000080EBE000408E860DFE933E813FFEE4B
:102A80002313FE4F4D4C8008E95480FFE4FEFDFC0B
:102A9000EE33EF33F47004FCFD7E80D0E0FBD0E039
:102AA000FAD0E0F8D0E0CFC618CEC618CDC618CC04
:102AB000C6F9221226127004181818221226217044
:102AC0000D74FFF61819F61819F61819F622E754BE
:102AD0008066F61225D4700F1225DE70F014F60809
:102AE000F608F608F680D11225DE700CF608F60816
:102AF000768008E6447F80EC122600700C1225EBED
:102B000060BFE65480F6E480BB1225EB700519190E
:102B10001980A5E869700C763F18768018F618F6CB
:102B2000E8F922E6CDC0E018ECC0E0E633CD33CDC5
:102B3000D313F6E719FCE7191933CC33C3947F405C
:102B40000ECD9D502408E65480F6E418F6800FF46C
:102B5000043D14501408E6447FF6187680E418F615
:102B600018F6D0E0FCD0E0FD22CCD313CCFD18E465
:102B7000C6CBC0E018E4C6CAC0E00808ED08C633FA
:102B8000E613F618E433C675F003C3CA97CA09CB37
:102B900097CB199C40047D08802EBD0003022C5C5D
:102BA00016B6FF050606081618C3CA33CACB33CBC0
:102BB00033CA27CA09CB37CB193CC37D08803E18DE
:102BC0007D0820E75CC633C6CA33CACB33CB33DDBE
:102BD000F1D5F0EB30E77BCA97CA09CB974ACB19FE
:102BE0009C406F4B7025E620E0218066187D08C36D
:102BF000CA97CA09CB97CB199CD3C633C6CA33CA66
:102C0000CB33CB3350C9DDE7D5F0E1D3E4C636C6CC
:102C100008C636C608C636C608C636C6181818808E
:102C200031C3CA97CA09CB97CB199CB34097C63317
:102C3000C6CA33CACB33CB33DD34D5F02EC6A2E0BF
:102C4000C640C8CA27CA09CB37194A70BECB3CB4A4
:102C500080B90808E63308E633601F181818D0E07A
:102C6000FAD0E0FBD0E0FCD0E0FD22187D08CA27B6
:102C7000CA09CB37CB193CD3808013F618E4B67F52
:102C800011F618B6FF0EF618C60470D20808768042
:102C900080CAF618F618F680C5080808EAC0E0EB06
:102CA000C0E086F0E7A4FA180986F0E7A42AFA182B
:102CB0000986F0E7A42AFA180986F0E7A42AFA1987
:102CC00086F0E7A4FBE5F02AFA190886F0E7A42BC2
:102CD000FBE5F03AFA190886F0E7A42BFBE5F03A99
:102CE000FA18180986F0E7A4C5F02BFBE43AFA19A4
:102CF00008E7C5F0C6A426F6E5F03BFBE43AFA186F
:102D000086F0E7A4F6E5F00826F6E43B08F6E43A98
:102D100008F6D0E0FBD0E0FA22E4CFC0E0E4CEC079
:102D2000E0E4CDC0E0E4CCC0E075F020C3E633F6CB
:102D300008E633F608E633F608E633F6181818EC1A
:102D400033FCED33FDEE33FEEF33FFC3EC9709EDBB
:102D50009709EE9709EF97191919400FFFEC97FCA7
:102D600009ED97FD09EE97FE191906D5F0BEECF7AF
:102D700009EDF709EEF709EFF7191919D0E0FCD0C2
:102D8000E0FDD0E0FED0E0FF22181818E4C396F66C
:102D900008E496F608E496F608E496F6226017082A
:102DA0000808C6A2E713C618C613C618C613C61865
:102DB000C613C6D5E0E9226016080808C6C313C6C4
:102DC00018C613C618C613C618C613C6D5E0EA221D
:102DD0007009080808226016181818C6C333C608F8
:102DE000C633C608C633C608C633C6D5E0EA22E6EF
:102DF00027F60809E637F60809E637F60809E63740
:102E0000F622E026F608A3E036F608A3E036F60838
:102E1000A3E036F622E026F008A3E036F008A3E0AF
:102E200036F008A3E036F022C3E0C696F608A3E029
:102E3000C696F608A3E0C696F608A3E0C696F62264
:102E4000C3E096F008A3E096F008A3E096F008A38C
:102E5000E096F022E056F608A3E056F608A3E05606
:102E6000F608A3E056F622E647F60809E647F60814
:102E700009E647F60809E647F622E0F608A3E0F679
:102E800008A3E0F608A3E0F622E6F008A3E6F008BF
:102E9000A3E6F008A3E6F022CAC0E0E6F0A308DA51
:102EA000FAD0E0FA22CAC0E0E0A3C582CCC582C550
:102EB00083CDC583F0A3C582CCC582C583CDC58330
:102EC000DAE6D0E0CA22C3E498F8E499F9122F07B1
:102ED0008026C3E49AFAE49BFBE920E7E9122F0776
:102EE000E498F8E499F922C3E498F8E499F9122FE8
:102EF00007E498F8E499F9C3E49AFAE49BFB22EB1F
:102F000020E7CFE920E7E0B90010BB0008E88AF02D
:102F100084F8AAF022E4FBC8FA22EB70227B10C8E6
:102F200033C8C933C9335007C39AC3DBF280069A4A
:102F300050012ADBEAC833F4C8C933F4C9FA227550
:102F4000F008E4C833C8C933C933C99AC99B5004CF
:102F5000C92AC93BD5F0ECFBC833F4C8E4C9FA224E
:102F6000600D08C6A2E713C618C613C6D5E0F32243
:102F7000600C08C6C313C618C613C6D5E0F4227089
:102F80000422600D18C6C333C608C633C6D5E0F4A4
:102F900018222510C0A8C2AF40021511F510D0A804
:102FA00022C0D02510C0A8C2AF50020511F510D024
:102FB000A8D0D0222510F582C0A8C2AF40021511BA
:102FC000F510D0A8851183222510F582E43511F57E
:102FD0008322E4732510C582C0E0E51134FFC58368
:102FE000C0E0E510C3958224F9C0A8C2AF85831163
:102FF000858210D0A8CEF0A3E520F0A37808E608DB
:10300000F0A3DEFAEFF0A3E58124FBF8E608F0A3D5
:10301000E608F0A30808E608F0A3E608F0A3158187
:103020001581D0E0FED0E0F815811581E8C0E0EE12
:10303000C0E022851183851082E0A3FEE0A3F52085
:103040007808E0A3F608DFFAE0A3FFE0A3C0E0E021
:10305000A3C0E0E0A3C0E0E0A3C0E085A8F0C2AF59
:1030600085821085831185F0A8D083D082227402D6
:103070008000C0E0F404122FB4D0E0122E98227425
:10308000028000CCC0E0EDC0E0E510C39CCCAD11E7
:1030900050011DC0A8C2AF8C108D11D0A8122EA552
:1030A000D0E0FDD0E0FC22D083D082C5F0E493A331
:1030B000C5F0C395F0F5F0E493A3C395F04005E5A2
:1030C000F0048001E475F002A42582F582E5F03574
:1030D00083F583E493A3C0E0E493C0E022D083D0DF
:1030E00082CCC0E0E493A360061231071470FAE4C6
:1030F00093A360061231261470FAD0E0FCE493A387
:10310000C0E0E493C0E022C0E0E493A3D39C50105D
:10311000E493A3C39C400AD0E0D0E0D0E00230FAB0
:10312000A3A3A3D0E022C0E0E493A36C7009D0E095
:10313000D0E0D0E00230FAA3A3D0E02274F7122F3F
:10314000D4740149F5B37C008C08EA2508F582EBBC
:103150003400F583E0F5B10CECC3941040EA023280
:103160000C800100E5B3A2E350F9227A1880010037
:10317000EA1A70FB2274F3122FD4890A8C088D0985
:10318000740D122FC8E0FEA3E0FF740F5A704DEAD1
:10319000C4540FF50B8041AA08AB09A90A12313CAF
:1031A00012316B7A00E5B2C0E08A0CEE250CF58294
:1031B000EF3400F583D0E0F00AEAC3941040E61241
:1031C0003161150BE5082410F508E5093400F5090F
:1031D000EE2410FEEF3400FFE50B70BB7F060230DB
:1031E00033790412313C12316122790680F574F78B
:1031F000122FD48C088D09780812306EEAFCEBFD92
:10320000E9FA79001231757402122FA17F0202309F
:103210003374F7122FD48C088D09780812306EEAB7
:10322000FCEBFDE9FA790280DB74F1122FD47C19F2
:10323000800F75F00AECA429C0E0EC123301D0E055
:10324000F0EC1C70EDE9F508750900750A00750BC6
:10325000007C009075A5780C122E7A7808790C12F3
:103260002C999075A97808122E0285080C85090DF5
:10327000850A0E850B0F7410780C122DB774FF554C
:103280000CF8747F550DF97A197B00122F078C0CFE
:10329000E50C24FFF8E434F8F988828983E0FDEA3C
:1032A00024FFFAE434F8FB8A828B83E088828983E6
:1032B000F0ED8A828B83F00CECC3941940957F0863
:1032C000023033C082C0837B19EB1B8B82A88260E3
:1032D0000C90DF06E0FAE81232FC6A70EC75E1044B
:1032E00074012808E43400F97A197B00122EFFEAF1
:1032F0001232FC90DF06F0D083D08222123301E03C
:103300002224FFF582E434F8F5832274F8122FD4D6
:103310007D0090FCD7E0242E0238C574F8122FD41B
:1033200090FCD7E024300238C5FEA3E03400FF8EC5
:10333000828F831234402274F8122FD490FCD7E08D
:1033400024320238C5C082C08390FCD7E0242C12FE
:1033500044E5122FD202457074F7122FD475080A73
:10336000750900780812306E1244DB122FD27402F5
:10337000122FA17F0202303374F7122FD475081078
:1033800080DE74F5122FD490782A7808122E7A9065
:10339000FCCA7808122E89E9600590782E80039087
:1033A00078327808122E7A90FCD27808122E899002
:1033B000FCD074C81264147F04023033C082C0830E
:1033C000907C00E064AA7008907C01E064AA60042C
:1033D0007900800F79607C007D7C7A187BF912334C
:1033E0001B790102457074F7122FD490FCD7E024AA
:1033F000411238157040793E90FCD7E024361234E3
:1034000039122FD2790190FCD7E0243C12343912C2
:103410002FD2750860750900780812306E7C007D27
:103420007C7A187BF990FCD7E024381244E5122FFF
:10343000D27402122FA10233731264EB12344022B1
:103440001269082274F5122FD490F975E064FF70A8
:1034500004A3E064FF700890F97574F0F0A3F075B0
:10346000E10490F977E0F91230A701017D3472345C
:103470007234126B4290DF0FE0D2E7802790F95D43
:10348000E0F912338290FCD27808122E7AA9081241
:103490006B4290F96AE0600690F95DE070D790DFCA
:1034A0000FE0C2E7F090F95EE090DF2EF090F93C7B
:1034B000E090DF061264C4F090F966E0600790DFE8
:1034C00003E054FCF090F969E090DF05F00233B7B7
:1034D000750806750900780812306E7CFF7D007A49
:1034E000527BFC1271B67402122FA17AEA7B77121A
:1034F000334590FCD7E0241C12451F748DF0A37453
:1035000066124510241E12451F744CF0A3746812F5
:103510004510242212451F74A0F0A37435F090FCCE
:10352000D71241A190FB86E8F0A3E91245102414BC
:103530001241BC90FB8812418D90FCC312443B9019
:10354000FB86E0241218181265C490FCC312449242
:103550001237F5F0126506F0A3E41237DD74191284
:1035600064141233BCE9700A740190F98EF090F97A
:103570008FF090F93CE0F91232291234441264B50C
:10358000122F07E80490FCD6F0439A01D2A9759156
:10359000107A1C7BF91231E112665A1235A080FBB9
:1035A00074F5122FD490FCD7E024201244E5122F9A
:1035B000D27E00EEC333F8E433F990FB8612446206
:1035C00088828983C312446A4003023663888289F1
:1035D00083E4F0A3F090F966E0FAEE1230A7000958
:1035E00063364D36F63524360A3648365836633655
:1035F00063366336053675C9A875C95890FB86E0F1
:103600001237F5805D123D6C8059EA70561241EC1C
:1036100090F977E0640270047A0180027A00EA90FF
:10362000FC5A803EEA601A1232C390F992E0FA74B2
:10363000FF2AF0EA602D90F97EE024F612447080B3
:10364000211237E77401801A1244F4801690F95C55
:10365000E0601012668D800BEA600890F93CE09003
:10366000DF06F00EEEC3940A50030235B37E00EE7F
:10367000F890FB88E0281238157003023727E4F031
:10368000EE1230A7000427379B36A1369236A736B4
:10369000C63674018882898302372612457502373F
:1036A0002712538602372790FB86124F7DA3A3A3D0
:1036B000A3A3A3C3E0943C12446A50D61266A71297
:1036C00037DE74FA805D90FC5AE06039E4F07401F2
:1036D00090FC59F0C2AF75E104740490DF14F090CF
:1036E000DF06E090FC5BF090DF06E064011245101D
:1036F00024DF123815124F7E740412649674FEF0A3
:1037000012447D802290FC59E06010E4F090FC5B54
:10371000E090DF06F0741490DF14F075E1041237C6
:10372000FF740AF0A3E4F00EEEC3940850030236CF
:103730006F90FCD7E024441241BCE8FCE9FD8C8288
:103740008D831252C4C3EA94E9EB94035003023709
:10375000DA9078367808122E7A90F9A17808122E2D
:1037600015EAF8EBF97AE87B03122F078C828D8338
:1037700012442090783A7808122E7A7583F975826F
:103780006F7808122488601090783E7808122E7A9C
:1037900090F96F7808122E1590783A7808122E7AE0
:1037A0007583F975826F780812248860047401802B
:1037B00001E490F990F090FCC9E0601E90FCC7E035
:1037C0007002A3E0601490FCC712442D90FCC7E087
:1037D0007002A3E07004C2B980FE0233B7F090FB20
:1037E00086E0F812690A2290FB881237EE22E01276
:1037F0006909A3A3221237EF7471F0A37402229017
:10380000FB861238062212653FA3A3221271E590AF
:10381000FCD7E024C7123819221250A92274F812DA
:103820002FD47C038A828B83E0FD74F05DFE74F0FC
:103830006E700579080238C3EA241CF8EB3400F9ED
:1038400088828983E0A2E15015EC5D1230A7010265
:103850005E38583858385C380C0C80027C097490FB
:103860006E70047407805AEE1230DD0004507B380D
:10387000607F38708F38808F38933874068042EAC2
:103880002417F582EB3400F583E02C240380337495
:1038900010802E88828983E0A2E050010CA2E250C1
:1038A0001E740C5D1230DD000400B73804BE380809
:1038B000BD380CB738BF3874042CFC80020C0C7473
:1038C000012CF98006123329122FD27F01023033E6
:1038D00074F1122FD4EAFEEBFF8C0E8D0F740F12D1
:1038E0002FC8E0F50AA3E0F50B75080A7C0C7900F7
:1038F0007A5C7BFC12330BEE7001EF7049743085FB
:103900000A82850B83126428AA0AAB0B8070EEF83A
:10391000EFF9AA0EAB0F122F0790FCD9E02AFCA3F7
:10392000E03B8C82F583E0C0E0E50C123AB3D0E0D6
:10393000F01508EEF8EFF9AA0EAB0F122F07880C5E
:10394000890DAE0CAF0D85088285820CEE7001EFFB
:103950006004E50870B8E50C245DFCE434FCFDAAC5
:103960000AAB0B1271E5C3E4950CF8E49400F9E599
:103970000A28F8E50B39F9740A28FAE439FB8005BE
:103980007405122FA17F0802303374F1122FD47402
:10399000FB122F927401122FC8124420A3ECF0A343
:1039A000EDF07414122FC8E0FEA3E0FF740A851036
:1039B00082851183F07C0C79007A5C7BFC12330BDE
:1039C0007401122FC8C082C08390783A7808122EF2
:1039D0007AD083D082780812248870777416122FD8
:1039E000C81237E17430F07416122FC8E0240112A7
:1039F00041BC7416122FC812418D7416122FC8E0E4
:103A0000FAA3E0023AAF7401122FC8780C122E7A92
:103A1000123ABD122D1990FCD9E02508FAA3E03521
:103A2000098A82F583E0C0E0851082851183E01267
:103A30003AB3D0E0124F1914F07401122FC8780C69
:103A4000122E7A123ABD122D197401122FC8780C59
:103A5000122E897401122FC8C082C08390783A78E0
:103A600008122E7AD083D0827808122488600985C3
:103A70001082851183E0708E851082851183E02489
:103A80005DFCE434FCFD7416122FC81252C412718E
:103A9000E5851082851183E0F8C3E498F8E494008A
:103AA000F97416122FC8124462740A28FAE439FB1A
:103AB000023980245CF582E434FCF583228E08EF21
:103AC000123AC8780C790822F5093395E0F50AF521
:103AD0000B22C082C08374FE122F92E9FC851082F3
:103AE000851183E4F0A3F07902ECC333FCE433FDE9
:103AF000EA2CFAEB3DFB740C2AFCE43BFD851082BA
:103B0000851183AA82AB8312331B1252C474021232
:103B10002FA102457074F8122FD47E068C828D83FB
:103B2000124F78FFEAF8EBF988828983A3AA82AB67
:103B300083EFC3940A5004743080027437123B6ED2
:103B40008C828D83E0540FFFA3AC82AD83EAF8EB47
:103B5000F988828983A30AAB83EF940A50047430F6
:103B600080027437123B6E1EEE70B10238CB2FFF0D
:103B7000EF88828983F02274F1122FD474FC122F03
:103B800092851082851183ECF0A3EDF08A0C8B0DE9
:103B90008006850A0C850B0D850C0A850D0B85109A
:103BA00082851183E0F508A3E0F509E508250AF50B
:103BB0000EE509350BF50F7401780E122F60E50E36
:103BC00075F01EA4F50EAAF075F01EE50FA42AF5F7
:103BD0000FE50E24A6F8E50F34F9F97402122FC888
:103BE000E8F0A3E9F07402122FC8E02418F8A3E06B
:103BF0003400F988828983E0FAA3E0FBE50A75F0D6
:103C00001EA4F8ACF075F01EE50BA42CF9E824BE58
:103C1000F582E934F9F583C3E09AA3E09B501AE5F5
:103C20000A2401F50AE50B3400F50B80B8E50824F9
:103C3000FFF508E50934FFF509E50875F01EA4FE57
:103C4000ACF075F01EE509A42CFFEE24BEF582EF62
:103C500034F9F583E0FCA3E0FDC3EA9CEB9D40CD85
:103C6000C3E508950AE509950BA2D265D033405209
:103C7000E824A6F50EE934F9F50F791EAC0EFD7AAD
:103C8000687BFC12331BEE24A6F582EF34F9F58332
:103C9000791EAC82AD83AA0EAB0F12331B791E7C4A
:103CA000687DFCAA82AB8312331BE50A2401F50A66
:103CB000E50B3400F50BE50824FFF508E50934FFB2
:103CC000F509C3E508950AE509950BA2D265D0333D
:103CD0004003023BE5C3E50C9508E50D9509A2D22A
:103CE00065D033500BAC08AD09AA0CAB0D123B7775
:103CF000851082851183E0F8A3E0F9C3E50A98E511
:103D00000B99A2D265D0335003023B92740402395E
:103D10008274F8122FD47D0F7C00EC75F01EA4F88D
:103D2000A9F024BEFAE934F9FB8A828B83E064FFB0
:103D30007004A3E064FF7004ECFD8022E824A6F583
:103D400082E934F9F583E060051252B170098A8284
:103D50008B8374FFF0A3F00CECC3941040BCEDFC1B
:103D60007D007A007B00123B770238CB74F1122F72
:103D7000D4E490FC8BF090F95FE060047A18800244
:103D80007A08EA90FC8AF090F98CE0602790DF06D0
:103D9000E0FA90FCDBE06A601BE090DF06F0126462
:103DA0008C740190F98EF074FF90FCDBF0E490F9D4
:103DB0008C12657E124FDAF8A3E039F990FC881274
:103DC000418D90F991E0045403F07C227900125265
:103DD000C112330B90F98DE0601A90F96EE090FCFF
:103DE0008BF090FC8674FF12641490FC881237E10B
:103DF00074FF802190F96DE090FC8BF090F9A5E0C4
:103E0000C0E090FC881237E1D0E0F090F9A5E09096
:103E1000FC86F0A3E4F090FC88E024011241BC9001
:103E2000F990E090FC8B6003E08003E0448088829E
:103E30008983F090F967E0888289836005E0D2E6A3
:103E40008003E0C2E6F0123D1190FC88E02408FEF9
:103E5000A3E03400FF7B0090FC8AE070140240E78E
:103E6000E4F01252B6E4F00BEBC3941040030240AE
:103E7000E7EB75F01EA4F8A9F024A6F508E934F9DB
:103E8000F509850882F583E0F50A70030240E774BE
:103E9000F0550A6450700F7403550AFA74036A608F
:103EA0000574026A70BAAA08AB0912381DE9FA90C3
:103EB000FC8AE0C39A50030240E7E0C39A124EF333
:103EC000E50A1241AFE5082407F50EE5093400F5CF
:103ED0000F850882850983A385820C85830D85085B
:103EE00082850983E054F064F0701C1241938E8245
:103EF0008F83F0A30EAF837906AC0CAD0DEEFAEF15
:103F0000FB12331B024064E5082418F50AE5091288
:103F1000645C7902AC0AFD124178EF3400FFE0FAEC
:103F200090FCDDE06A701874026A701390FCC51290
:103F300041A1850A82850B83E8F0A3E91241CEE511
:103F400008241CF50AE50912645C850A82F583E001
:103F5000A2E15031850882850983E054031230A71D
:103F60000102853F6A3F6A3F753F7902AC0CAD0D97
:103F7000124178800C7906AC0CAD0D1241842406F8
:103F8000FEEF3400FF850A82850B83E0A2E0500E2D
:103F9000E5082417F582E509124F421241A6EE24E6
:103FA00002EF125381850882850983E054F01230B4
:103FB000DD000550C43F60CE3F70FA3F80FA3F906D
:103FC00003400C407906124180240602405F7902CA
:103FD000E508241AFCE5093400FDEEFAEFFB123384
:103FE0001B0E0EAF0D124193F9AC0EAD0FEEFAEFB2
:103FF000FB12331BE0F8EE28806579101241802413
:1040000010805C790712418024078053850A8285DD
:104010000B83E0A2E2504D850882850983E0540CB1
:104020001230DD00040058400433400845400C586D
:10403000406440850882850983A3A3A3A3A3A3A307
:104040001241A6801F7902AC0EAD0FEEFAEFFB1203
:10405000331B0E0EAF0D800C79041241802404FE38
:10406000EF3400FFE508241DF8E5091265BBE060A8
:104070000214F0850882850983E054F064107023EF
:10408000124193641F701C850882850983E0540CDB
:104090006404700F88828983E0704C740190F98AFF
:1040A000F0800788828983E0703D850882850983D6
:1040B000E054F364107025124193641A701E850851
:1040C00082850983E0540C64047011850E82850F8B
:1040D00083E090FCDBF0740190F98CF07C1E790099
:1040E000AA08AB0912330B90F967E060401237E77A
:1040F000E0603A1232C312657F90F96CE0602E12D4
:1041000044D27CB07D75AA82AB831271E5E4C0E035
:10411000E582240CF508E583124F4712306E1241F8
:10412000D7122FA18A828B83D0E01244B890FC8AE8
:10413000E0C39406401B7414126410A3F0A3747FB0
:104140001241AF90DF06E012641090FC8AE024FB7D
:10415000F07A2C7BF91231EA1241C390F95FE060EA
:104160000D90FC8AE0C394105004742280027412F3
:1041700088828983F002398512418424020E0E223E
:10418000AC0EAD0FEEFAEFFB12331BEE22E8F0A3FC
:10419000E9F022E5082417F582E5093400F583E00B
:1041A00022126470F922E08E828F831241AF22F0D6
:1041B000A3AE82AF832290FCD7E024C7F8A3E034FB
:1041C00000F92290FCD7E024DF1244EDF922F090B0
:1041D000FCC5124408F0227C0A7D0090DF06E0FA5C
:1041E0001241E4227B001238D074022274F3122FA1
:1041F000D474FE122F927C0F90F990E06004780442
:104200008002780190FCCE12501590FC8BE0FAE809
:104210002A12444590F97C12418D90FC8EE0FA748C
:10422000012AF0EAC39410500690F97C12442D90B4
:10423000FC8EE064197012E4800E24FFF0A3E034D9
:10424000FFF090F97C124432F090FC8CE07002A3F5
:10425000E060241CEC602090FC8CC3E094011244CC
:104260006A90FC8CE050D32401F0A3E03400F0907D
:10427000F97C12440880D190F97C124492241212E5
:1042800041BC90F97C12443B88828983124420907F
:10429000F967E0600B88828983E024FD124470F0A6
:1042A00075E10490F95EE090DF2EF090F9A17808B6
:1042B000122E7A90FCD7E024441241C97AE87B039D
:1042C000122F0712441A79047CA17DF990FC88E032
:1042D00024021244267902851082851183AC82ADB6
:1042E0008390FC88E024061244261241C3E824028D
:1042F000FCE93400FD1252C188828983E024FEF972
:104300001231EE90F968E0C0E090FCD7E024DF12B3
:1043100044E5A3D0E0F0C2AF12447D90F973E070A1
:10432000030243C790FC86E07002A3E060030243EF
:10433000C71244D27CBD7D75AA82AB831271E57C25
:10434000607DF9E5822409FAE5833400FB123B1510
:104350008A828B837CC77D75124411240512537D9C
:10436000780C12306E1241D7122FA18A828B837C77
:10437000CD7D751244112404FCE5833400FD90F9D1
:1043800078124FBE7CD27D75124411240612537DE3
:10439000780C12306E750C0A750D00780C12306EA8
:1043A000124ECE122FA18A828B837CD97D75124446
:1043B000112405FCE5833400FD85108285118312EC
:1043C0004FBE740A1244B590F98AE06019E4F09087
:1043D000F98EF01233E67CC879FF7A8A7BFB1233C0
:1043E0000BE490FC58F090F9A5E004F0C0E090FCDC
:1043F000D6E0FAD0E0C39A4005E490F9A5F0740243
:10440000122FA17F06023033E02401F0A3E0340034
:10441000221271E5E58222125204851082851183F1
:10442000EAF0A3EBF0221265A012331B22124432F1
:10443000F022E024FFF0A3E034FF22E024E7FAA317
:10444000E034FFFB22F8E43400F9E88508F0A4C862
:10445000AAF08509F0A42AFA8508F0E9A42AF990BF
:10446000FCD0E028F8A3E039F922A3E01252A922F7
:10447000F8A3E034FF1244A4E8F0A3E92290FCD7AB
:10448000E024461265B47410F075D60275E103D2CB
:10449000AF221264701244A4A3A3E8F0A3E9F09041
:1044A000FB86E022F990FB86E0FAA3E0F5838A829E
:1044B000A3A3A3A322F0A3E4F01244BD221244C19B
:1044C0002290FCD7E024C71250ADFAA3E0FB1233D0
:1044D000452212509FF8A3E00265BD7C007D00904C
:1044E000FCD7E0243A1244EDF5838882221250A9C9
:1044F000F8A3E022C082C083742290DF021245102C
:10450000244612451F7420F075D60175E1028060C3
:10451000F090FCD7E022851082851183E0241D12E3
:1045200065B422C082C083E9FCEAF8EBF98882898D
:1045300083A3AA82AB83ECC4540FFDC3940A500436
:104540007430800274372DFDED88828983F0EAF89B
:10455000EBF988828983A30AAB83740F5CFC940A0D
:1045600050047430800274372CFCEC88828983F00C
:10457000D083D0822274F1122FD474FB122F927543
:104580000E007E007401122FC8E4F0A3F0F50B902A
:10459000FCDCE064FF700DE4F07CC879FF7A8A7B74
:1045A000FB12330B1237FF7401F0A3E41245102401
:1045B000DD1264E712646AE0F50A7422650A600994
:1045C0007412650A6003024655850A82858208E8EE
:1045D0002508124F3FA3A3E0A2E750798882898380
:1045E000A3E0FA90F969E06A70030E801090F96612
:1045F000E0600A90F968E06A70030E8E0B124FDAE1
:10460000F50CA3E039F50D90F991E0045403F07A2C
:104610002C7BF91231EAAC0CAD0D90FCD7E024DD17
:1046200012381524021265A074FE250AF9123211FF
:10463000124FC4E0F9126C8490F980124420124F9A
:10464000C4124EED124F7DE4126496E4F090DF3810
:10465000E0F50E8025125051E4C0E0780812306E6B
:104660007C0A7D008A828B8312649B1241DE122FAA
:10467000A18A828B83D0E01244B875D60175E1021D
:104680001265341241A17403122FC812418DEE70CD
:1046900003024ECB639002E590E50EFE3395E0FFFA
:1046A000850C82850D83A3A882A98390F966E070AA
:1046B000030247B6E50B70030247B6850C82850DF1
:1046C00083E090FC86124EECE0FCA2E750047A01F5
:1046D00080027A0490FCCE1250158C0A743F550A61
:1046E000F8EA2812444590F97E12418D90FB86E04D
:1046F000240A1241BC90FB86E024041265A0ECA2BF
:10470000E6505190FCCEE0FCA3E0FDECC333FCEDA1
:1047100033FD7583F975827EE0C39CFCA3E09DFDAB
:1047200074F62CFC74FF3DFD8A828B83ECF0A3EDC4
:10473000F090F97E1252C4EA75F00AA4FAACF07552
:10474000F00AEBA42CFB88828983124420740A901F
:10475000F992800C88828983E4F0A312640CF0A3A0
:10476000F090F96CE07003024ECB1250057CDF7DB7
:1047700075AA08FB124EE0240AFCE5093400FDEEA0
:10478000FAEFFB1269B4124EF97CEA7D75124EDC29
:104790002405FCE5093400FD12501D7CF07D7512E6
:1047A0004EDC2408FCE5093400FD90DF061264D5D8
:1047B000124EFF024BA37412650A6003024AE69090
:1047C000F990E07003024AE6850C82850D83E0646F
:1047D000FF6003024AE688828983E064FF60030287
:1047E0004AE6850C82850D83A3A3E064FF60030283
:1047F0004AE6850C82850D83A3A3A3E064FF6003D2
:10480000024AE6750E8A750FFB750AA6750BF9E567
:104810000C240AF50CE50D1253817508007906ACDD
:104820000CAD0D850A82850B83A3AA82AB8312335C
:1048300037E9701C850A82850B83E0FA90FCDEE084
:104840006A7003024ECB74F05A64F07003024ECBD0
:10485000124F4E40C87C017B017A0179101252043C
:104860008A0A8B0BEA7001EB7003024ECB750800CD
:104870007906AC0CAD0DAA0EAB0F123337E97027D9
:10488000850E82850F83A3A3A3A3A3A3E085108233
:10489000851183F0850E82850F83A3A3A3A3A3A311
:1048A000A3E0F50E0249827401122FC8E07002A342
:1048B000E0701C79067C527DFCAA0EAB0F123337D8
:1048C000E9700C7401122FC8E50EF0A3E50FF00596
:1048D00008E50E2408F50EE50F3400F50FE508C3D2
:1048E0009419408C90FC58E064197003024ECB740C
:1048F00001122FC8E07002A3E07003024ECB90F9C2
:104900006DE0FC90F91A125015A808F9ECFA7B003A
:10491000122F07EAF50EA808A909ECFA7B00122F5E
:1049200007E8851082851183F090F91A1241D29020
:10493000F91A1241A1ECFA7B00122F07E80490FC4F
:10494000D6F07906AC0CAD0D7401122FC81252C40A
:1049500012331B851082851183E0C0E07401122F91
:10496000C8126537D0E0F07401122FC8126551E506
:104970000EF090FC58E004F0740190F98EF090F97C
:104980008FF090FCC2E004C0E0E50A241DF582E54A
:104990000B124F42D0E0F07906AC0CAD0D850A82C7
:1049A000850B83A3AA82AB8312331BE50A2417F875
:1049B000E50B3400F990F95FE06026741B850A82EC
:1049C000850B83F07402124F15F9850E08E50885F2
:1049D0000A82850B83A3A3A3A3A3A3A3F0A3E980C7
:1049E0001174F0450E850A82850B83124F19888257
:1049F0008983F0125051780812306E7C0A7D007461
:104A000005122FC812660D122FA18A088B097CF996
:104A10007D751271E5E50C24FAF50CE50D34FFF512
:104A20000D7904AC0CFD7A8F7BFC12331BE5082456
:104A300007F508E509124F4712306E75080A750927
:104A400000780812306E90FC8F7808122E7A124E81
:104A5000CE122FA1124EF9124F62780812306E1248
:104A60006606122FA1124F1DE4C0E0AC08AD0990FC
:104A7000F980124FBED0E01244B87C017D761265F9
:104A8000E51271E5125081126597123B158A088B69
:104A9000097C0E7D76124EE02404F8E50912645379
:104AA000858208858309E50EC3940A50047430801A
:104AB000027437250EFAEA88828983F07428850803
:104AC00082850983124F0F12306E7C0A7D007402BA
:104AD000122FC81241DE122FA174298A828B83F013
:104AE000A3740A0247B0124F6290FC93E0F0A3E077
:104AF0005403F01265E590FC93C3E094E8A3E094BE
:104B0000035003024BB07C137D7612380C2403F55E
:104B100008A3E03400F50990FC93E02418F0A3E02A
:104B200034FCF090FC93E0F50AA3E0F50B740478F4
:104B30000A122F70AA0AEA601DA808A909888289AA
:104B400083A3858208858309C3940A500474308046
:104B5000027437124EE6A808A90988828983A385C2
:104B6000820885830990FC93E0540FFAC3940A509D
:104B700004743080027437124EE6743A85088285D8
:104B80000983F0A37409125066F508A3E0F50975CE
:104B90000A00124F98940440F9750A0C124F989429
:104BA0002040F9E48508828509831244B8024ECB7F
:104BB00090F96CE07003024E0F7C177D7612380C72
:104BC0002405F508A3E0124F4712306E7C0A7D00E1
:104BD0007405122FC812660D122FA1124F09123040
:104BE0006E7C0A7D0090FC8612660D122FA1743A2D
:104BF000124EFBA808A909A3858208858309850CA4
:104C000082850D83A3A3A3A3A3E01313543F540FE2
:104C1000C3940A850C82850D83A3A3A3A3A3E050AC
:104C20000A1313543F540F243080081313543F5475
:104C30000F2437FAEA88828983F07409850882850F
:104C40000983125066124F7EE4F01250117904ACC1
:104C50000CAD0D7A8F7BFC12331B780812306E7509
:104C6000080A750900780812306E90FC8F780812D7
:104C70002E7A124ECE122FA1124F0912306E1266EA
:104C800006122FA1124F1DAC08AD0912501DAC0821
:104C9000AD09E50C241C124F8674098A828B83129D
:104CA0004F03241D124F8612502E1244B57C1D7DD9
:104CB00076125093F508A3E03400F509750A0074E4
:104CC00009850882850983124EFFE50A1230DD014D
:104CD0000001DA4C0103DA4CF44C780812306EA96A
:104CE0000AAA0CAB0D123AD27C0A7D001241E612E0
:104CF0002FA18010A90AAA0CAB0D123AD2AC08ADB4
:104D0000091269B48A088B09050AE50AC3940840A8
:104D1000AE74098508828509831244B57C227D76AC
:104D2000125093FCA3E03400FDE50C241E124FF159
:104D3000744FF0A37443F0A3743AF0A37420124F9D
:104D400003241F124FF1858208858309850C828513
:104D50000D83A3A3A3A3A3E0A2E650067C277D7640
:104D600080047C307D76124EDC2408F508E5093499
:104D700000F509850C82850D83A3A3A3A3A3E0A25C
:104D8000E750067C397D7680047C447D76AA08ABAA
:104D9000091271E51244B990FC58E07003024ECB41
:104DA0007E8A7FFBE50C2406F50CE50D1253817518
:104DB0000B007906AC0CAD0DEEFAEFFB123337E9C0
:104DC0006003024EB7750AA6750BF97508007906DF
:104DD000AC0CAD0D850A82850B83A3AA82AB83122E
:104DE0003337E96003024E9C850A82850B83E0FA23
:104DF00090FCDEE06A600A74F05A64F06003024ED0
:104E00009C7C1E7900AA0AAB0B12330B024EA4AE97
:104E10000CAF0D740A8A828B83F0A3747C124EFF50
:104E2000AA08AB0990FC86124FB8A90E1245239030
:104E3000F980124FB8747C124EFB7B208E828F83D8
:104E4000124F78FAA808A90988828983A385820865
:104E5000858309C3940A50047430800274372AFA97
:104E6000EA88828983124EF3E0540FFAA3AE82AF30
:104E700083A808A90988828983A385820885830974
:104E8000940A5004743080027437124EE61BEB70A3
:104E9000ABE4850882850983F0024D94124F4E5091
:104EA00003024DCE7C0679FFEEFAEFFB12330B9036
:104EB000FC58E014F08014050BEE2408FEEF3400DB
:104EC000FFE50BC394195003024DB2023980AA08C2
:104ED000AB09AC0AAD0B12398A740422AA08AB09DB
:104EE0001271E5E508222AFAEA023B71F0A3E4F028
:104EF0000265BEF08E828F832274098A828B8312B0
:104F0000503D22124F37E50C2274098A828B83129E
:104F1000503D7808228882898312644A2274098A63
:104F2000828B83124F37EEFAEFFB1269B474098A51
:104F3000828B8312503D22125041AC08AD0922F5FC
:104F400082E93400F583223400F509780822050847
:104F5000E50A241EF50AE50B3400F50BE508C394B9
:104F600010227902E50C2404FCE50D3400FD7A934F
:104F70007BFC12331B22940AE0C4540F22E0FAA3F4
:104F8000E0F5838A8222F582E50D3400F583E0FAAC
:104F90003395E0FB1269B422AA08AB09850A08E53B
:104FA0000C2508F582E50D3400F583124FB88A0808
:104FB0008B09050AE50AC322E0F9124523221250A3
:104FC0004A0264DA90FCD7E024DD1238192508FA89
:104FD000A3E034008A82F583A32290F991E075F072
:104FE00022A4F8A9F090FCD7E024DB1264EBE028BF
:104FF00022F582E50D3400F5831264DF74098A829C
:105000008B83F0A32290FCD7E024C7F8A3E0340000
:10501000F988828983E0F508A3E0F5092290F980F8
:1050200012504A12502EF0A3740912503D227420DF
:105030008A828B83F0A37464F0A3744222125041DD
:1050400022F0A385820885830922E0FAA3E0024FBB
:105050009312509FF508A3E0F509740A850882852C
:10506000098312503D2212503D125081AA08AB090B
:10507000123B1574098A828B83F0A3E4F012508CE2
:1050800022E50C2406FCE50D3400FD221244C11279
:1050900050A3221265E91271E512509F24042212D6
:1050A00050A32290FCD7E024C71250AD22F8A3E011
:1050B0003400F988828983E022C082C0838005A3FE
:1050C000AA82AB838A828B83E0FC601474206C60BC
:1050D0000F74096C600A740A6C6005740D6C70DFE3
:1050E000024570C082C0838005A3AA82AB838A82F6
:1050F0008B83E0FC601474206C60EE74096C60E9D2
:10510000740A6C60E4740D6C60DF0245701250B973
:105110001250E322E9C39430400CE9C3943A50069C
:1051200074D029F98024E9C39441400AE9C3944723
:10513000500474C980ECE9C39461400CE9C39467DE
:10514000500674A929F980027900740F59F9227464
:10515000F1122FD4EAFEEBFFEEF8EFF98882898393
:10516000A3AE82AF838C828D83A385820A85830B55
:1051700088828983E01230DD0004239C512A885103
:105180006DA951739051E9518C828D83E0F0805567
:105190008C828D83E0D2E01251F380F18C828D837A
:1051A000E0D2E11251F3F0803C8C828D83E0440325
:1051B000F0750C00126578850C08E50A2508F508DD
:1051C000E50B3400F509EAC454F0850882850983AB
:1051D0001265D0850882850983E04AF0050CE50C4C
:1051E000C3940640CF79018007E48C828D83F0F967
:1051F000023985126524123378850A82850B83EA89
:10520000F0A3EB2274F6122FD4E9FEEAFF8B088C90
:10521000097A007B00EAF8EBF9E875F01EA4F8AC17
:10522000F075F01EE9A42CF9E824A6FCE934F9FD98
:105230008C828D83E060051252B1704FECF8EDF96D
:1052400090FCC2E0C0E0E8241D124F3FD0E0F0EE39
:1052500088828983F0E8241C124F3FEFA2E0E0929D
:10526000E0F0E508A2E0E092E1F0E509A2E0E092DA
:10527000E2F090FCC51252C4E82418124F3FEAF045
:10528000A3EB1241CEE8FAE9FB8018EA24010AEB0D
:105290003400FBC3EA94101252A850030252157A4C
:1052A000007B007F03023033EB9400A2D265D03341
:1052B000221252B6E022E824C3F582E934F9F583DC
:1052C0002290FC88E0FAA3E0FB2274F3122FD4EAC8
:1052D000FEEBFF8C088D09890AAC0A790012330BAA
:1052E0007A008045ECC3943A5058EB60047C00800F
:1052F000027C0474D028F50C74FF125381EC780CF6
:10530000122F7F8E828F83E0450CF00B85088285FB
:105310000983A3858208858309EBC3940240120A9E
:105320008E828F83A3AE82AF83EAC3950A50497BF6
:1053300000850882850983E0FC8C82A882C39430B2
:1053400050A2ECC394414013ECC39447500DEB6062
:10535000047C0080027C0474C9809AECC394614090
:1053600013ECC39467500DEB60047C0080027C0456
:1053700074A98081790080027901024403F50CE56B
:10538000833400F50D2274F1122FD474FE122F9283
:1053900090FCD7E02447FAA3E03400126373750849
:1053A00000EEF8A90988828983A3AE82AF83888240
:1053B0008983E0F5091230DD01090A89543000893A
:1053C000540D895420895441AD5A42345643955A5C
:1053D00046395E47B55D48205C4A515C4B6A564C85
:1053E000DE5C4DD1574E9E5B4F8F5E50C05551973E
:1053F0005D546A5756935557E05D58BB5D59EC5D57
:105400005A155E61FE5B62E55463705464C4546572
:10541000835E663E5E68F55C69DD5E6A515C6B4B7F
:10542000576CC75C6D1F5E6E245E6F345E709F5D4F
:1054300071975D72695A730258746A57754E567641
:105440007255771A5E78CD5D79D95D7A5054BE6217
:1054500012639F400FEAC3943A5009EEFA12636E4A
:1054600090FC97F090FC97E0601F90FCC2F08019D0
:105470001263921264317002A3E0701EE48E828F78
:1054800083F07AD27B7712334590FCD7E0243E122A
:1054900044E5122FD2740202398212656160DDEE9A
:1054A000FAEFFB12510D1265A7740AF01264A912EB
:1054B0006F0F12654BEAF090FCC2E0C0E012451697
:1054C000D0E080A91263AC1230A73001DC54D25472
:1054D000D854E490F98D8095740180F77A0B7B772E
:1054E00012334580B01263927C007B017A017960AF
:1054F0001264397002A3E060831265617003025484
:105500007C12634B851082851183E02417F50CA370
:10551000E0125381123378850C82850D83EAF0C343
:10552000941140077AFA7B77025486AA08AB0912D5
:10553000635B851082851183E0241A1265C3AA0873
:10554000AB0912634F850C82850D83E0F9AC08AD81
:1055500009851082851183E024071265A012633942
:10556000700D1264807A2D7B7712334502548202CB
:1055700054B71263AC1230A73001DC548055835508
:10558000E48002740190F95DF0C2AF123444759169
:105590001080281263AC1230A73001DC54A155A44E
:1055A00055E48002740190F96AF0C2AFE090DF0F19
:1055B0006005E0D2E78003E0C2E7F0D2AF02548991
:1055C000EEFAEFFB1250E312636E1230DD000DBFF6
:1055D0002856DD2456E72056EC1C56F11856F614D2
:1055E00056F81056FA0C56FC0856FE0456FF0056A4
:1055F00000FC5501F855DC5474FF802D74FE8029A1
:1056000074ED802574BF802174AA801D747F801979
:105610007499801574CB8011748E800D744D80093F
:105620007451800574408001E490F95EF0E090DFF1
:105630002E02546DEEFAEFFB1250E3123378EA902B
:10564000F968F0EB90F969F090DF0502546D1233C0
:10565000BCE960030254897A207B771233457401D8
:1056600090F98EF090F98F02546DEEFAEF12637399
:1056700012636EF508EEFAAB0912510DE50812300F
:10568000DD0100059B560606BB5608D35609E956B0
:105690000AF2560B02570C10574457126CBE8A0C74
:1056A0008B0D8C0E8D0F75090074027808122F7FF8
:1056B00012633E780C122E8902548912636E600CBC
:1056C000C394115007EA90F96D02546D7A347B77D8
:1056D00002548612636EC394115007EA90F96E0269
:1056E000546D7A497B7702548612636E90F9730287
:1056F000546D12337890F975EAF0A3EB1264C4028A
:10570000546D123378EA90F977F0123444025489D8
:105710001265341252C490F97C126470C313F9E814
:1057200013C39AE99B5013E0F9EAC398F8EB99F98F
:1057300090FC8CE8F0A3E902546D90FC8CEAF0A395
:10574000EB02546D7A607B77025486EEFAEFFB121F
:1057500050E3126F0F90F91A1244201264B5122F01
:1057600007E80490FCD6F002565E12639275080AB0
:10577000750900780812306E7C007D0012723D744D
:1057800002122FA18A088B098C0A8D0B90F9A1783F
:1057900008122E891263628E828F83E07003025496
:1057A0008975080A750900780812306E7C007D0042
:1057B00012723D7402122FA190FCD7E024441265AE
:1057C000C3EEFAEFFB12510D126506F0A3E402548A
:1057D0006D12638212657885080AE50A2460F50A6D
:1057E000E434F9F50BEAC454F0850A82850B831280
:1057F00065D0850A82850B83126475400302548943
:1058000080D21264317002A3E0700302547C1263F0
:1058100082126564700302547CEEFAEFFB12510DA4
:105820008A0A8B0B126F0F1265A7EAF0AA0AAB0B5C
:1058300012510D8A0A8B0BA80AA90B88828983A3AF
:10584000AE82AF83851082851183E02407F50AA319
:10585000E012645C851082851183E0241C1265A02F
:1058600088828983E01230DD000C48C6584CE55828
:10587000535159629F5864ED5866ED5868AF5869A6
:10588000B7586CCE586D05596E905873B7585E5A1C
:105890001265CA12636E850A82850B8302546D12EB
:1058A00065CA123358850A82850B83EA02546D1249
:1058B00065CA12337880EE12651B123358850A824E
:1058C000850B8302573D12651B12337880EF1265FA
:1058D000121233588A0C8B0D8C0E8D0F850A82851F
:1058E0000B830256B312651212337880E71264A05C
:1058F000C0E08510828511831237E3D0E012652461
:10590000126CBE80CF12658812657885080CE50A96
:10591000250CF50CE50B125381EAC454F0850C827A
:10592000850D831265D0850C82850D8312647540C8
:10593000D7741B650860030254891264A0A2E24078
:10594000030254898510828511831237E3E40254DF
:10595000811265881264F390FC951265D090FC95D5
:10596000E02AF0543FF01264F390FC961265D09058
:10597000FC96E02AF0C2E7124EF3E090FC97124E3C
:10598000F3A30EAF8390FC97C39462E04004249F7E
:10599000800224BF1265241233588A088B098C0AAE
:1059A0008D0B90FC987808122E8990FC987808123C
:1059B0002E7A851082851183E0240C12451FEA128D
:1059C000641B122E7AE509F508851082851183E0A3
:1059D000240B12451F126419122E7A7410780812C3
:1059E0002DB7126556A3E508F090FC95E0F5087513
:1059F000090074127808122DD090FC961269AA74CE
:105A00000B780C122DD07808790C122E6790FC9729
:105A10001269A37406780C122F7FF50E7808790CA2
:105A2000122E6790FC987808122E8990FC987808BE
:105A3000122E7A126556126419122E7AE509F508AB
:105A4000851082851183123802126419122E7A741D
:105A5000107808122DB712654BE50802546D8510B9
:105A600082851183E0F802594A7C007B017A007933
:105A7000201264397002A3E0700302547C12639216
:105A80001265698510828511831237E1E060030297
:105A9000548902547C7C007B007A007930124417D0
:105AA0001245167401124F1970E3A380DFEEFAEF6E
:105AB000FB1250E38A088B09A808A9098882898308
:105AC000A3AE82AF8388828983E0F50C1230DD01BA
:105AD0003031145B0403E35A04FF5A33E35A34FFB2
:105AE0005A895412632F70077A0B7B770254867998
:105AF000107C9C7DFC7A1C7BF912331B025B941298
:105B0000632F60E479107C9C7DFC7A2C7BF9123346
:105B10001B025489EEFAEFFB12635B8A0A8B0BAA15
:105B200008AB0912636612632F60BD1263627A9C30
:105B30007BFC1231E112632F605312634B7A9C7B22
:105B4000FC1231EA7910AC08AD09126335603E747D
:105B500031650C70047980800279707C007B017A59
:105B6000001264392407FCA3E03400FD7A9C7BFC1E
:105B700079101231EE1264A0D2E1F0851082851105
:105B80008312649BE50AF0A3E50BF080077A0B7B98
:105B9000771233457A1C7BF91231E10254897C007B
:105BA0007B017A00799012441712656170030254E8
:105BB0007C851082851183E0240712451F7407C07D
:105BC000E0EEFAEFFB12510DEAFCEBFDD0E0F9AA92
:105BD00082AB831252CAAC82AD831265E5123B15CB
:105BE0001265978A828B83740A124EEFE0240D129D
:105BF00064E7E4F0888289831252C40254861263F7
:105C0000AC1230A73001E85A0C5C135CE490F95CEC
:105C100002546D740190F95C1237DD74320257CB77
:105C20001263AC1230A73001E85A2E5C3D5CE49060
:105C3000F967F090F93CE090DF0602546D74019032
:105C4000F96712657E90FB8612652FE4F0A302547B
:105C50006D9078367808122E7AEEFAEFFB1250E348
:105C60008A0C8B0DA80CA90D88828983A3AE82AF04
:105C70008388828983E01230DD000644995C489471
:105C80005C4D8F5C64995C68945C6D8F5CA15C90EA
:105C900078528008907856800390785A7808122EAF
:105CA0007AEEFAEFFB126FA28A0C8B0D8C0E8D0F21
:105CB0007808790C122C9990F96F7808122E897453
:105CC0000190F99002546D1263AC1230A73000DAE3
:105CD0005CD35CE490F95F02546D740180F612634A
:105CE000AC1230A73000F15CEA5CE490F96C02542D
:105CF0006D740180F612639F4009EAC3943A400B29
:105D0000025489742D6A6003025489EEFA126F0FEF
:105D10008A08C31252A8406B7C017B017A01791476
:105D20001264397002A3E0700302547C85108285EE
:105D30001183E024171241BC741A124F1524071264
:105D400064E7E508124F19241DFCA3E03400FD9020
:105D5000FCC2E0048C828D83F090F966E07003024F
:105D600054898A828B83E090DF06F0E488828983FD
:105D7000F08C828D83F01264808A828B8312648C13
:105D8000025489C3E49508F88808F9123229E50815
:105D900090F93CF0025C3790FCC574010257CB903F
:105DA000FCC5E02400A3E03404F974FC59F990FC2C
:105DB000C5E40257341233E60254897CC879FF7A6D
:105DC0008A7BFB12330BE490FC5802546D90FCC7A5
:105DD00074C2F0A3740102546DE490FCC902546DC6
:105DE000740190F98BF0539AFE0254891263AC123D
:105DF00030A73000075EF85D740190F966F090DF1F
:105E000003E054FC02546DE490F966F090DF03E087
:105E1000D2E002546D75080B802775081D8022752D
:105E2000081E801D75081F90F91AE4F0A3F090FC7D
:105E3000D6F0800D750820800875081C8003750851
:105E4000211264317002A3E0700302547C741F6558
:105E5000086021851082851183E0FCA3E0FDECC081
:105E6000E0EDC0E0EEFAEFFB1250E3D0E0FDD0E051
:105E7000FC12514F1264A912654B7401F01265A710
:105E8000025A591265347488F0A3741302546D12C7
:105E900044D27E00858208858309780812306E8E90
:105EA0000875090074027808122F7F12633E780883
:105EB000122E7AAA08AB09AC0AAD0B1269F574026E
:105EC000122FA18A828B837409F0A30EEEC394066D
:105ED00040C2740A1264141241B6025BF47A8C7BDD
:105EE0007712334512500590F977E0FA74016A7021
:105EF00015780812306E75080A7509007808123096
:105F00006E90785E802B74026A7808701312306E7F
:105F100075080A750900780812306E907862801151
:105F200012306E75080A750900780812306E90FC00
:105F3000D27808122E7A124ECE122FA18A0A8B0B1B
:105F40007C507D76AA0AAB0B1271E57A507B7612F3
:105F500063F012306E75080A750900780812306E09
:105F600090FCCA7808122E7A124ECE122FA18A0AFD
:105F70008B0B7C567D761271E57A567B761263F038
:105F800012306E7C0A7D007AC81241E4122FA17C87
:105F9000637D761271E51265EF12307F7C0A7D0019
:105FA00090F93C1241DE122FA18A0A8B0B7C6A7D8C
:105FB000761271E57A6A7B761263CF850A82850B49
:105FC00083F01265EF12307F7C0A7D0090F91A127F
:105FD000660D122FA18A0A8B0B7C737D761271E5F8
:105FE0007A737B761263F012306E7C0A7D0090F932
:105FF0006D1241DE122FA18A0A8B0B7C807D7612F6
:1060000071E57A807B761263F012306E75080A753E
:106010000900780812306E90F9A17808122E7A12D1
:106020004ECE122FA1126422780A12306E7C0A7DA5
:106030000090FCD7E0244412451F12660D122FA1D8
:1060400012642290F966E060067CA97D7680047C6B
:10605000B17D761263D4240712645890F95FE06032
:10606000067CB97D7680047CC07D76AA0AAB0B12D3
:1060700071E57CC77D76E50A2406FAE50B3400FB62
:106080001271E51265FC7C867D76AA0AFB1271E529
:106090007A867B761263B9AC0AFD90F9781252C405
:1060A0001269B474091264247C8D7D76AA0AAB0B44
:1060B0001271E57A8D7B761263B9AA0AFB90F98694
:1060C0007808122E7A90783A780C122E7A780C7919
:1060D0000812249D5011742D8A828B83F0A3AA820A
:1060E000AB837808122D8C8A0C8B0D780C12306ED5
:1060F000750C0A750D00780C12306E124ECE122FF0
:10610000A18A0A8B0B7C957D761271E57A957B7658
:106110001263B9F50B90F95CE060067CD17D768066
:10612000047CD87D761263D424061264587C9C7D4E
:1061300076AA0AFB1271E57A9C7B761263F0123024
:106140006E7C107D0090DF2E1241DE122FA1740AAA
:106150001264247CA47D76AA0AAB0B1271E57AA4A2
:106160007B761263CFC0E07C607DF9AA0AAB0B128C
:106170003B158A828B83D0E0F01265FC90F967E0D2
:10618000700E7CDF7D761263D42403126458802B5A
:106190007420850A82850B83126428A38582088572
:1061A000830990F974E06004744680027445850A9E
:1061B00082850B83F085080A85090B7CE37D7612C6
:1061C00063D424051264587CE97D76AA0AFB126325
:1061D000D82405F8E50B12645385820A85830B9059
:1061E000DF0FE0A2E750047A3180027A30EA888239
:1061F0008983F0850A82850B83E02420F07CEF7D83
:10620000761263DE90F969124FF985820A85830B55
:106210007CF77D761263DE90F9681264D51244B57E
:106220007AFF7B761233451265E58A828B83A385DC
:10623000820A85830B90DF00124F78C3124F76508D
:1062400004243080022437FCEC8A828B83F0AA0A73
:10625000AB0B8A828B83A385830B90DF0012646172
:1062600050042430800224371263FC85830B90DFB6
:1062700001124F78124F76500424308002243712D6
:1062800063FC85820A85830B90DF011264615004F0
:10629000243080022437FCEC8A828B83F0740A85D8
:1062A0000A82850B83124EEC1252C412334590FCC5
:1062B000C9E060030254897A177B780254867AB465
:1062C0007B771233451241B6E8FAE9FB8A828B8369
:1062D00012646AE5097002742012640C12649B74E3
:1062E00028F0E509C4540FFCC3940A5004743080AC
:1062F0000274372CFC8A828B831237EAECF0740F1D
:106300005509FC940A50047430800274372CFC8ABE
:10631000828B831268F7EC12652A742912652AA30E
:10632000740A12640C126537E412640C025BF8798B
:1063300010EEFCEFFD7A9C7BFC1252CAE922E508C4
:10634000243DF582E50934F9F58322EEFAEFFB12DC
:1063500063532212510D8A088B09221263531233A0
:106360007822EEFAEFFB126353AE08AF0922126FE8
:106370000FEA2212637722FB1250E38A088B09AEE0
:106380000822EEFAEFFB1250E38A0A8B0BAE0AAF3B
:106390000B2212639622EEFAEF126377AF092212F4
:1063A00063968E828F83E0FAC3943022EEFAEFFB7D
:1063B0001250E38A828B83E0221263BD2212722183
:1063C0008A088B09E50A2508F50AE50B350922122A
:1063D00063F6E422AA0AAB0B1271E5E50A22AA0AC7
:1063E000AB0B1271E5E50A2407FCE50B3400FD2236
:1063F0001263F6780A221263BDF50B22FCEC8A8246
:106400008B83F00AAB0B8A828B83A322F00264DABF
:106410008E828F83F0A3E4F022E508F090FC987858
:10642000082274208A828B83F0A385820A85830BDD
:10643000227C017B017A0179101252048510828539
:106440001183EAF0A3EB12644A22F08510828511D1
:1064500083E0221265BBA322F50AE50B3400F50B9D
:1064600022E0540F940AE0540F221264700265BDBA
:10647000E0F8A3E022E04AF00508E508C39406220C
:10648000851082851183123440E4F022E0F990F9FE
:106490003CF012322922F088828983123440A322F0
:1064A0001264A422126902E0221264AD221269026F
:1064B000E0D2E2F02290F91A126470F990F96DE0DE
:1064C000FA7B0022F090F975E090DF01F090F97608
:1064D000E090DF00221264DF740A8A828B8322E05C
:1064E000FA7B001269B4221264EB22FAA3E03400B2
:1064F000FB80E78E828F83E0F9125114E9A30EAF7F
:106500008375F00AA42290FB86E0240C1265B47413
:1065100005221264A4440C126524221264A4D2E35E
:1065200012652422F0EEFAEFFB22F08A828B8312AE
:1065300068FBA32290FB8612653B2212653F221264
:106540006470F5838882A3A30244B085108285110C
:106550008312653BA322851082851183123806A31E
:1065600022126396126569E922851082851183E003
:10657000FCA3E0FD12514F221265D80241B1F09008
:10658000FB881237EEE4F0228A828B83E0C2E0F0CF
:106590001264A44450F02212509F240C1265A022D1
:1065A000FAA3E03400FB22851082851183E02417D2
:1065B0001265B422F8A3E01265BB223400F9888288
:1065C000898322F81265B50244201264AD02652564
:1065D000F01265D80EAF83228E828F83E0F91251BC
:1065E00014E9FAA3221265E9221250A30252C5123D
:1065F00044BD90FCD7E024C71265B42212508CF53C
:106600000AA3E0F50B227C0A7D0090FC93E0FAA33C
:10661000E0FB1241E62274F1122FD48A0C8B0D8C10
:106620000E8D0F90783A7808122E7A7808790C122D
:10663000249D5013780C122D8C850C08850D09852E
:106640000E0A850F0B80088A088B098C0A8D0BAA0D
:1066500008AB09AC0AAD0B023985C008C00953FD6F
:10666000C7E5FD438F38E58F43F238E5F27A0375CD
:106670000801750900EA7808122F7FE50845F2F550
:10668000F20AEAC3940640E7D009D00822C082C0CB
:106690008390F97AE4F0A31237DD74321264147532
:1066A000B6B5C28D02457074F1122FD474FF122F4B
:1066B0009290F9977808122E7A90F9937808122E12
:1066C0004090F99B7808122E4090F99B7808122E82
:1066D0007A78081224C2907866780C122E7A78089C
:1066E000790C1226F790F993780C122E7A780C1206
:1066F00024C27808790C122AB390FCAC7808122EC8
:106700008990F9517808122E7A90FCAC780C122EF0
:106710007A7808790C12287790F94D780C122E7A35
:106720007808790C1226F790FCB07808122E899020
:10673000FCB07808122E7A90786A780C122E7A784B
:1067400008790C1226F7780812254590F978E508A3
:10675000F0A3E509F090F93D7808122E7A90FCB488
:106760007808122E897A417BF9740385108285118D
:1067700083F090FCB47808122E7A90FCB0780C125A
:106780002E7A7808790C1226F78A828B83780C127D
:106790002E7A7808790C12289C90FCB47808122E76
:1067A00089EA2404FAEB3400FB851082851183E02A
:1067B00014F070BE90FCB47808122E7A7808122576
:1067C0004590F9867808122E2890F9827808122EC2
:1067D0008990F9827808122E7AAA08AB09AC0AAD22
:1067E0000B1266168A088B098C0A8D0B90786E78CE
:1067F0000C122E7A780C790812249D401390F9829D
:106800007808122E7AAA08AB09AC0AAD0B12690FF0
:1068100090783A7808122E7A90F9937808122E8997
:1068200090783A7808122E7A90F9977808122E8983
:1068300090783A7808122E7A90F99B7808122E896F
:1068400090F99FE4F0A3F0740102398274F3122FDF
:10685000D490F99FC3E0948012446A40030268F424
:1068600090F97AE064FF7002A3E0700890F97AE48E
:10687000F0A3807FE5BBF990FCB8E412418E85BAA5
:106880000890FCB8E508F0A3E0F0C28D123AC89079
:10689000F97AE0F50CA3E0F50D7402780C122F7F65
:1068A000E50C2493F582E50D34F9F5837808122E72
:1068B0001590F97A1241D290F97AC3E09403A3E0DB
:1068C0009400501590F97AE024ADF8A3E03475F9FE
:1068D00088828983E0F5B6801B90F99F1241D2909F
:1068E000F99FE064807002A3E0700990FB88126851
:1068F000F77401F00244031268FB22126908A3A393
:10690000A322851082851183E0F8A3E00244E87495
:10691000F1122FD48A088B098C0A8D0BC2AF90DF3D
:106920000BE090FCBA126414A3F0A3F090DF0A12FB
:1069300069AA7408780C122DD090FCBA780C122E2B
:106940001590DF091269A37410780C122DD090FCF9
:10695000BA780C122E1590FCBA7808122E1590FCFD
:10696000BA780C122E7AE50C90DF0BF090FCBA7816
:106970000C122E7A7408780C122F60E50C90DF0A46
:10698000F090FCBA780C122E7A7410780C122D9DAF
:10699000E50C90DF09F090F9867808122E15D2AF39
:1069A000023985E0F50C750D00221269A3750E0001
:1069B000750F002274F7122FD4C3EB9400A2D26596
:1069C000D0335017742D8C828D83F0A3AC82AD83AD
:1069D000C3E49AF8E49BF9E8FAE9FB8C088D09789E
:1069E0000812306E7C0A7D001238D07402122FA17A
:1069F0007F0202303374F1122FD48A088B098C0A7B
:106A00008D0B740F122FC8E0FEA3E0FF90783A7848
:106A10000C122E7A7808790C1226AB500A742D12BB
:106A20006B1DEDB2E7F50B8E0C8F0D780C12306EEE
:106A3000750C0A750D00780C12306E8A0C8B0D8C5B
:106A40000E850B0F780C12253AAA0CAB0DAC0EADCF
:106A50000F12398A7404122FA18A0C8B0DAE0CAF61
:106A60000DAA08AB09AC0AAD0B12708B8A0C8B0D0A
:106A70008C0E8D0F7808790C122877742E126B1DEE
:106A8000907842780C122E7A7808790C1226AB5046
:106A90001274308E828F83F0A30EAF8380767430B1
:106AA000126B1D907846780C122E7A7808790C12A9
:106AB00026F790784A780C122E7A7808790C1226EC
:106AC000AB5011907842780C122E7A7808790C121B
:106AD000265C40CA8E0C8F0D780C12306E750C0A35
:106AE000750D00780C12306E90784E780C122E7A5C
:106AF0007808790C1226F7780812253AAA08AB090B
:106B0000AC0AAD0B12398A7404122FA18A088B09C2
:106B1000AE08AF09EEFAEFFB7F080230338E828FAA
:106B200083F0A3AE82AF8322C082C083800BE48A4D
:106B3000828B83F0A3AA82AB83E91970F1D083D052
:106B4000822274F8122FD4E9FE746490DF09F07485
:106B50006A90DF0AF074AA90DF0BF0742390DF0FC5
:106B6000F0745990DF10F079097C837D787A177B77
:106B7000DF12331B79037C917D787A237BDF12331C
:106B80001B744590DF11F0740A90DF07F090FCBE93
:106B90007447F0A3E4F0EE1230DD010102A86B02AD
:106BA0000CFB6B1E2A6C4A6C79037C727D787A0C24
:106BB0007BDF12331B74026E6021741090DF07F0CC
:106BC000740E90DF0CF0744390DF0FF074EA90DFE6
:106BD0001CF090FCBE7448F0A3E4F0E490DF11F0E8
:106BE000748890DF23F0743190DF24F079057C8C79
:106BF0007D787A157BDF12331B804F740890DF0796
:106C0000F079037C757D787A0C7BDF12331B745628
:106C100090DF1AF0741690DF15F0746C90DF16F0A8
:106C200090FCBE744AF0A3E4801F79037C787D78E1
:106C30007A0C7BDF12331B79057C7B7D787A157BA0
:106C4000DF12331B74EA90DF1CF079037C807D78BF
:106C50007A127BDF12331B79037A2F7BDF126B28CA
:106C600079037C947D787A027BDF12331B745C900D
:106C7000DF31F0746F90DF30F0745B90DF2FF07FC6
:106C80000102303374F7122FD48982A8827900C3AD
:106C9000E89480E49400C365D0334001197A027B04
:106CA00000122EFF8808890990FCBEE0F8A3E0F9E5
:106CB000E508C398FAE50999FB7F0202303374F1C5
:106CC000122FD474F7122F92EAFCEBFD7404122FEA
:106CD000C8E4F08004E8FCE9FD8C828D83A3A882DF
:106CE000A9838C828D83E0126EE2A2E340E78C825E
:106CF0008D83E0FA742D6A700EE8FCE9FD740412CD
:106D00002FC87401F08009742B6A7004E8FCE9FD57
:106D100090783A7808122E7A851082851183780847
:106D2000122E89803B851082851183780C122E7A71
:106D30009078467808122E7A780C79081226F71285
:106D40006EFA1224C2780C790812289C851082856C
:106D50001183780C122E898C828D83A3AC82AD8333
:106D60008C828D83126EF240BC90784A7808122E85
:106D70007A7405122FC87808122E898C828D83E0D0
:106D8000642E70658055851082851183780C122ED3
:106D90007A9078467808122E7A780C79081226F7BD
:106DA000126EFA1224C2780C790812289C8510827F
:106DB000851183780C122E897405122FC8780C1255
:106DC0002E7A9078467808122E7A780C7908122656
:106DD000F77405122FC8780C122E898C828D83A32C
:106DE000AC82AD83126EF2409D8C828D83E0F812EE
:106DF0006EE2A2E050057420488001E8FA74656AEA
:106E00007001E46003026E8B8C828D83A3AA82AB37
:106E100083126F0F802D851082851183780C122EBE
:106E20007A9078467808122E7A780C7908122AB36C
:106E3000851082851183780C122E89EA24010AEBD1
:106E40003400FBC3EB9400A2D265D03340C8C3EA40
:106E50009401EB9400A2D265D033402F8510828537
:106E60001183780C122E7A9078467808122E7A7850
:106E70000C79081226F7851082851183780C122E62
:106E800089EA24FF1AEB34FFFB80C3851082851149
:106E9000837808122E7A7405122FC8780C122E7A75
:106EA0007808790C122AB38510828511837808122C
:106EB0002E897404122FC8E085108285118378080A
:106EC000600B122E7AE50BB2E7F50B8003122E7AD7
:106ED000AA08AB09AC0AAD0B7409122FA17F0802F6
:106EE0003033126EE6222498F582E43478F583E498
:106EF0009322E0FA126EE6A2E22274D02AF5087418
:106F0000FF3400F5093395E0F50AF50B7808227493
:106F1000F8122FD47E008004E8FAE9FB8A828B8382
:106F2000A3A882A9838A828B83E0126F96A2E34092
:106F3000E78A828B83E0FC742D6C70030E800574ED
:106F40002B6C7004E8FAE9FB780079008027E8757B
:106F5000F00AA4F8AFF075F00AE9A42FF9E82CF8CC
:106F6000E93400F974D028F874FF39F98A828B83E8
:106F7000A3AA82AB838A828B83E0FC126F96A2E283
:106F800040CCEE6008C3E498FAE4998003E8FAE99B
:106F9000FB7F010230332498F582E43478F583E4F2
:106FA000932274F1122FD47C008004E8FAE9FB8A62
:106FB000828B83A3A882A9838A828B83E01270517B
:106FC000A2E340E78A828B83E0FD742D6D70030C91
:106FD0008005742B6D7004E8FAE9FB90783A780C20
:106FE000122E7A803E90FCDF7808122E7A780C7987
:106FF00008122C99750B00750A007509008D087828
:1070000008790C122DEF90FCE37808122E02850807
:107010000C85090D850A0E850B0F8A828B83A3AA26
:1070200082AB838A828B83E0FD127051A2E240B56D
:10703000EC6005780C122D8C850C08850D09850EE9
:107040000A850F0BAA08AB09AC0AAD0B7F0802300A
:10705000332498F582E43478F583E4932274F112B2
:107060002FD48A0C8B0D8C0E8D0F90783A780812E5
:107070002E7A780C79081226AB5007EDB2E7F50BA3
:1070800080028D0BAD0B7F0802303374F1122FD4C8
:1070900074F8122F92851082851183EAF0A3EBF029
:1070A000A3ECF0A3EDF08510828511837808122EF1
:1070B0007A1271A290784E780C122E7A7808790C98
:1070C00012265C8510828511837808122E7A50036F
:1070D00002719090783A780C122E7A7808790C1216
:1070E00026AB8510828511837808122E7A40030220
:1070F00071861271A28510828511837808122E89FB
:107100008510828511837808122E7A780812254519
:1071100078081224C27404122FC87808122E8985A8
:1071200010828511837808122E7A7404122FC87881
:107130000C122E7A7808790C12287790783A780C0D
:10714000122E7A7808790C12263060237404122FDC
:10715000C87808122E7A90784A780C122E7A78081D
:10716000790C12289C7404122FC87808122E897486
:1071700004122FC87808122E7AAA08AB09AC0AE5C7
:107180000BB2E7FD8012780812254578081224C258
:10719000AA08AB09AC0AAD0B7408122FA17F080234
:1071A0003033AA08AB09AC0AAD0B12705D8A088BAC
:1071B000098C0A8D0B2274F8122FD47408122FC870
:1071C000E0F8A3E0F98A828B838003ECF0A3E8FE69
:1071D000E9FF74FF2E1874FF3FF9EE7001EF70EBBA
:1071E0007F0102303374F6122FD4EAF8EBF9EAFE8D
:1071F000EBFF8E828F83A3AA82AB838C088D0985D7
:107200000882850983A3AC82AD83850882850983C2
:10721000E08E828F83F070D6E8FAE9FB7F030230BC
:1072200033C082C0838A828B838001A3E070FCE537
:1072300082C39AFAE5839BFBD083D0822274F11239
:107240002FD474F5122F927403122FC8EAF0A3EB17
:10725000F0851082851183ECF0A3EDF0741A122FE3
:10726000C8E0FEA3E0FF90783A7808122E7A740501
:10727000122FC87808122E897403122FC8E0FCA3BD
:10728000E08003E8FCE9FD8C828D83A3A882A983BA
:107290008C828D83E012754BA2E340E78C828D8354
:1072A000E0FA742B6A6005742D6A7006E8FCE9FD4B
:1072B00080027A2B7402122FC8EAF0C3EF9400A266
:1072C000D265D033401674016E7001EF600EC3EECC
:1072D0009425EF9400A2D265D0334020851082859A
:1072E0001183E07002A3E060087403122FC81275C6
:1072F000577A007B007C007D000275338C828D8381
:10730000A3A882A9838C828D83E0FAEE7001EF70CE
:107310002574306A701C88828983E0FA74786A6008
:107320000574586A70067E107F0080277E087F00F3
:10733000802A7E0A80F874306A702174106E7001A1
:10734000EF701988828983E0FA74786A600574584E
:107350006A7009EC24020C0CED3400FD7409122F44
:10736000C8ECF0A3EDF08005A3AC82AD838C828DD8
:1073700083E0643060F28C828D83E0F812754B54A8
:10738000077003027440E493A2E2500574D0288091
:1073900010E493A2E050057420488001E8FA74A933
:1073A0002AFA74FF3400FBC3EA9EEB9FA2D265D099
:1073B0003340030274407405122FC8C082C083900A
:1073C000FCE7780C122E7AD083D082780C122E54DF
:1073D0008E08EF12753D122C998A08EB12753D123A
:1073E0002DEF7405122FC87808122E7A74187808B9
:1073F000122DB7EEF8EFF9E88508F0A4F8AAF085A9
:1074000008F0E9A42AF9E8FAE9FB850C08850D09DA
:10741000850E0A850F0B74187808122DB7E5082A17
:10742000FAE43BFB74FF5BF9E47001E9603B9078A0
:107430003E7808122E7A7405122FC87808122E8909
:10744000851082851183E07002A3E0606B740912DD
:107450002FC8E0F8A3E0F9EC687002ED697046749B
:1074600003122FC812755C804E90FCE7780C122E28
:10747000548A088B0974187808122DD0780C790872
:10748000122E67850C08850D09850E0A850F0B7471
:1074900005122FC87808122E898C828D83A3AC82A6
:1074A000AD83027376851082851183E0F8A3E0F541
:1074B000838882ECF0A3EDF07405122FC8C082C05F
:1074C0008390FCEB7808122E7AD083D08278081251
:1074D00024B2403790FCC07422F0A3E4F0851082FF
:1074E000851183E07002A3E060087403122FC812B4
:1074F00075577402122FC8E0642B700590FCEF8062
:107500000390FCEB7808122E7A80207402122FC8A8
:10751000E0642B70077405122FC880E87405122FE1
:10752000C87808122E7A7808122D8CAA08AB09ACFC
:107530000AAD0B740B122FA17F08023033F509330B
:1075400095E0F50AF50B780C7908222498F582E489
:107550003478F583E4932212755CF022E0F8A3E01E
:10756000F9851082851183E0FAA3E0F5838A82E829
:10757000F0A3E9220410270100C2010111C6240072
:10758000C800C8001E0000000100F6D977FFFF1BED
:107590001B0A000000D0FFFFFFFFFFFF00000000FC
:1075A00080FFFFFF7F6D4EC64139300000B5B3B498
:1075B0000A686F7070696E6720746F20000A3D3E24
:1075C000204D41433A09000943683A090009543AF9
:1075D0000900095554433A0900096D733A090047F7
:1075E00057096F66667365742000727373692000B3
:1075F0006368616E6E656C2000207469636B73094B
:1076000000206442094A6F696E696E67200009694B
:10761000643D000A5343000A4C313A09000A4C32D7
:107620003A004F563A20006D7070206F6E200900AE
:107630006D7070206F666609006D6F64756C6520F3
:107640006F6E0A006D6F64756C65206F66660A0068
:10765000204672657100205469636B20286D6B733E
:10766000292000204368616E2000202320535054BD
:107670007320002062756E63682073697A6520004C
:107680000A5554433A002074656D702000207368D9
:1076900069667420002041444373200020506F77B6
:1076A000657220004D414320005278204F6E6C7966
:1076B000004E6F726D616C200020206C6F6E670051
:1076C0002073686F727400207061636B657473203F
:1076D00000205452554520002046414C534500207F
:1076E0006E6F0020686F702000204645433D0047C4
:1076F00077416464722000456441646472200053E1
:10770000796E6320576F72643A20006E6F20616358
:1077100074696F6E207761732074616B656E0A0007
:10772000666C61736820656D7074790A00617272AD
:1077300061790A006D6178446576732066726F6DB9
:10774000203120746F20313600626F6F7444656C95
:1077500061792066726F6D203020746F20313600A1
:10776000746865726520617265206F6E6C79203176
:10777000322072656769737465727320696E207454
:10778000686520676174657761790A00414D5054DE
:1077900020424F5520526164696F204761746577BC
:1077A0006179207665722E20460A446174617261A7
:1077B00074653A00636F6D6D616E6420776173204C
:1077C0006E6F74207265636F676E697A6564202DD1
:1077D00020004552524F520A003031323334353690
:1077E000373839414243444546007374617274200E
:1077F0006F66206D61696E210A004E6F206D6F7299
:10780000652074686520313620627974657320695B
:107810006E20424F4121005761746368646F672096
:1078200064697361626C65640A0011C624001E00FD
:1078300000000C0000000100000000000000FFFF3D
:10784000FFFF01008000000020410000803F809683
:10785000184B3C000000100E000080510100F401A4
:107860000000FA00000000401C450000C84209006A
:1078700000001D55736907026A48131D1CC700B23A
:10788000073014434091B610A90A00111D1CC740CF
:10789000B28135092285450020202020202020208B
:1078A00020282828282820202020202020202020B0
:1078B00020202020202020208810101010101010D0
:1078C0001010101010101010040404040404040418
:1078D00004041010101010101041414141414101A9
:1078E0000101010101010101010101010101010188
:1078F0000101011010101010104242424242420297
:107900000202020202020202020202020202020257
:08791000020202101010102009
:04000005000024765D
:00000001FF
