:020000040000FA
:0300000002010AF0
:03000B00021CA72D
:030033000255B7BC
:0300430002139213
:03004B00021A494D
:03006B0002561B1F
:1000830002199B00000080FB120119B90003020151
:1000930004E479217823B800028004F709D8FCE44A
:1000A30090F20178D279088002F0A3D8FCD9FA90B3
:1000B300F9D2AA82AB83906953788279048015E4DC
:1000C30093A3AC82AD838A828B83F0A3AA82AB8392
:1000D3008C828D83D8E9D9E790F1FFAA82AB839014
:1000E3006953780179018015E493A3AC82AD838AC7
:1000F300828B83F0A3AA82AB838C828D83D8E9D9C8
:10010300E712167612008675D0007581C07510FF50
:100113007511F102008B79012243AE022212011004
:100123000102000020A011320277770102030109C6
:100133000243000201008080090400000102020161
:100143000005240001100424020205240600010511
:100153002401000107058203400040090401000255
:100163000A00000007058502400008070505020094
:10017300010104030904140341004D00500054001D
:1001830053004F004C004100520010034700410050
:100193005400450057004100590016033000310058
:1001A30032003300340035003600370038003900A0
:1001B3003B0100005E010000E066701008A3E066EA
:1001C300700A08A3E066700408A3E06622E493665D
:1001D30070130874019366700C08740293667005BB
:1001E300087403936622C3E7960809E7960809E7AC
:1001F300960809E796A2D265D03322C3E09608A3F6
:10020300E09608A3E09608A3E09622C3E493960839
:10021300740193960874029396087403939622BB11
:100223000102E722C082C08389828A83BB0003E084
:100233008002E493D083D08222BB000EC082C083AD
:100243008A838982F0D083D08222BB0101F72208FE
:100253000808E630E711120B1912026A080808C6EB
:100263004480C618181822181818E9799EC608CAB7
:10027300C608CBC608CCC6C370207996CACBCC704F
:1002830019798ECBCC70137986CC700EF9802ACA7B
:1002930033CACB33CBCC33CC331930E7F2CCCBCA14
:1002A3003350147004EA30E00DE4CA3ACACB3BCBB6
:1002B300CC3CCC500209C3E913C6CC182313C6CBDC
:1002C30018C6CA18C6F92212031530F03912035A98
:1002D300803412031520F01430E72B74FFFCFBFA73
:1002E300747F8022E4FCFBFA7480801AB48008BC1B
:1002F30000F2BB00EF800F50EBF9E4C39AFAE49BE2
:10030300FBE49CFCE499C6CC18C6CB18C6CA18C635
:10031300F922E4C9C608CAC608CBC6D3330308CC3E
:10032300C63392F0C3947F402E94184019C9B9077D
:1003330004CACBCC225025C309CA33CACB33CBCC96
:1003430033CC33D9F422F4600DC9CCC313CB13CB14
:10035300CA13CAD9F6CC22E4FCFBFA2214FCFBFA3A
:1003630022E6C33318461846184622E7C333194713
:100373001947194722181818E6084608700AE608AC
:10038300C3337005E633F4220822191919E7094724
:1003930009700AE709C3337005E733F4220922E63B
:1003A300084608C3134608336002E633F422E7091C
:1003B3004709C3134709336002E733F4221203A248
:1003C30060251203B16020120364700302036E08F8
:1003D3000808E76670101819E766700A1819E766C7
:1003E30070041819E76622F4221203A2601C120398
:1003F300B16017120364700712036E7001D322C039
:10040300D012036E7006D0D0B322C32233D0D050A3
:100413001430E0F6C3E7960809E7960809E796085B
:1004230009E796B32220E0D5E6970809E69708097D
:10043300E6970809E697B3221203A2601B1203B1E1
:100443006016120364700712036E600CB322C0D0EF
:1004530012036E7005D0D022C32233D0D050133094
:10046300E0EBC3E7960809E7960809E7960809E76A
:10047300962220E0E4E6970809E6970809E697083C
:1004830009E69722001203A2604F1203B16012E73C
:10049300548066F6120378701112036E703B0909DB
:1004A30009F4F618F618F618F62212038D701512D1
:1004B300036408080860EAE6447FF618768018E4C7
:1004C300F618F622120364601612036E7012E4F635
:1004D30008F608F608E65480F609090918181822E0
:1004E300EAC0E0EBC0E0ECC0E0EDC0E0E687F0A4DA
:1004F300FBACF008E687F0A42CFCE435F0FA18090D
:10050300E687F0A42C4B60027401CA35F0FCE43397
:10051300FB09E687F0D2F7A42CCB35F0FC1908E6EB
:1005230087F0A42BCC35F0FBE433FD0819E687F004
:10053300D2E7A42C4ACB35F0CD3400FC09E687F092
:10054300D2E7A42DCC35F0FDE433FA0918E687F0A1
:10055300D2F7A42CCD35F0CA3400FC08E687F0D2DC
:10056300E7D2F7A42ACC35F07A7E20E70B0ACB3307
:10057300CBCD33CDCC33CC33CB3350147004ED30EF
:10058300E00ED2F1E4CD3DCDCC3CCC3B5005DA05B9
:10059300C2F1EB547FC63308E63392F0FBE733092D
:1005A300E733C39A502D2B70190C0D4C4D70151851
:1005B30006E608C333700D20F10AA2F013F6E4181F
:1005C300800B4024E4F630F002768018F618F61813
:1005D300F68024D33B14501074FFA2F013F6187660
:1005E30080E418F618F6800FA2F013F618E633032A
:1005F300F618ECF618EDF6D0E0FDD0E0FCD0E0FB09
:10060300D0E0FA221203B160461203A2603DE9680A
:100613007008F618F618F618F622748067F71206B3
:100623003B090909748067F7221203A2601D1203B4
:10063300B17005191919801A120378701F12038DEE
:10064300C37003E6673319191940071818182208ED
:10065300080874FFF618F618F618F62212038D60D0
:100663001712036E702192F0120364701950172051
:10067300F014080808090909E7F61819E7F6181924
:10068300E7F61819E7F62212036460E6E869701FBB
:100693000808E62480F608E436F618547FB47F0C85
:1006A300E654806007F6E418F618F622181822E9D3
:1006B300C6CC08C6CD08C6CE08C6CFC0E0E8C0E0A9
:1006C300EAC0E0EBC0E009E9F809E7FA09E7FBE66D
:1006D300F918E6F8C3EC98ED99EE9AEBC2E7F5F05A
:1006E300EFC2E795F0500E600CEBCFFBEACEFAE9D0
:1006F300CDF9E8CCF8EAA2E7D2E7FAEB33FB13F53E
:10070300F0EEA2E7D2E7FEEF33FFC5F013A2E73026
:10071300E601B313C5F0C3C0E0C0F07F00C39BFB89
:10072300605B9418600C401AD0E023F9D0E0F80223
:10073300080A8AF0E9486003D2F0E4AFF0FAF9F866
:10074300803BEB30E40D89F0EA6003D2F0E4AFF0D4
:10075300F9CAF8EB30E30D88F0EF6002D2F0AFF0A6
:10076300E4CAC9F8EB54076014FBC3EA13FAE913AC
:10077300F9E813F8EF135002D2E0FFDBEDD0E0C04D
:10078300E030E739C3E49FFFF5F0EC98FC42F0ED6D
:1007930099FD42F0EE9AFE42F0D0E0F9D0E0F8E5A0
:1007A300F0607AE923F9EE20E742D8028067C3EFCD
:1007B30033FFEC33FCED33FDEE33FE80EAEC28FC33
:1007C300ED39FDEE3AFED0E023F9D0E0F8400280A7
:1007D3001BC3EE13FEED13FDEC13FCEF135002D21B
:1007E300E0FF08B800067F7F74FF802EEF335017B9
:1007F3008CF020F00260100CBC000C0DBD00080E44
:10080300BE000408E860DFE933E813FFEE2313FEBC
:100813004F4D4C8008E95480FFE4FEFDFCEE33EFBE
:1008230033F47004FCFD7E80D0E0FBD0E0FAD0E02E
:10083300F8D0E0CFC618CEC618CDC618CCC6F9225C
:100843001203A27004181818221203B1700D74FF5A
:10085300F61819F61819F61819F622E7548066F6F1
:10086300120364700F12036E70F014F608F608F6A4
:1008730008F680D112036E700CF608F6087680082D
:10088300E6447F80EC120390700C12037B60BFE69A
:100893005480F6E480BB12037B700519191980A5F7
:1008A300E869700C763F18768018F618F6E8F92296
:1008B300E6CDC0E018ECC0E0E633CD33CDD313F67C
:1008C300E719FCE7191933CC33C3947F400ECD9D50
:1008D300502408E65480F6E418F6800FF4043D141F
:1008E300501408E6447FF6187680E418F618F6D01C
:1008F300E0FCD0E0FD22CCD313CCFD18E4C6CBC082
:10090300E018E4C6CAC0E00808ED08C633E613F6EB
:1009130018E433C675F003C3CA97CA09CB97CB193A
:100923009C40047D08802EBD00030209EC16B6FF2F
:10093300050606081618C3CA33CACB33CB33CA27F6
:10094300CA09CB37CB193CC37D08803E187D0820EC
:10095300E75CC633C6CA33CACB33CB33DDF1D5F03C
:10096300EB30E77BCA97CA09CB974ACB199C406FF8
:100973004B7025E620E0218066187D08C3CA97CA1C
:1009830009CB97CB199CD3C633C6CA33CACB33CB57
:100993003350C9DDE7D5F0E1D3E4C636C608C63621
:1009A300C608C636C608C636C61818188031C3CA64
:1009B30097CA09CB97CB199CB34097C633C6CA33A2
:1009C300CACB33CB33DD34D5F02EC6A2E0C640C844
:1009D300CA27CA09CB37194A70BECB3CB480B908C1
:1009E30008E63308E633601F181818D0E0FAD0E0A1
:1009F300FBD0E0FCD0E0FD22187D08CA27CA09CB52
:100A030037CB193CD3808013F618E4B67F11F61860
:100A1300B6FF0EF618C60470D20808768080CAF6B0
:100A230018F618F680C5080808EAC0E0EBC0E086AF
:100A3300F0E7A4FA180986F0E7A42AFA180986F061
:100A4300E7A42AFA180986F0E7A42AFA1986F0E738
:100A5300A4FBE5F02AFA190886F0E7A42BFBE5F0DE
:100A63003AFA190886F0E7A42BFBE5F03AFA1818CE
:100A73000986F0E7A4C5F02BFBE43AFA1908E7C5A9
:100A8300F0C6A426F6E5F03BFBE43AFA1886F0E755
:100A9300A4F6E5F00826F6E43B08F6E43A08F6D0B7
:100AA300E0FBD0E0FA22E4CFC0E0E4CEC0E0E4CD46
:100AB300C0E0E4CCC0E075F020C3E633F608E633CB
:100AC300F608E633F608E633F6181818EC33FCEDAF
:100AD30033FDEE33FEEF33FFC3EC9709ED9709EED9
:100AE3009709EF97191919400FFFEC97FC09ED9738
:100AF300FD09EE97FE191906D5F0BEECF709EDF7DF
:100B030009EEF709EFF7191919D0E0FCD0E0FDD091
:100B1300E0FED0E0FF22181818E4C396F608E49626
:100B2300F608E496F608E496F6226017080808C665
:100B3300A2E713C618C613C618C613C618C613C62B
:100B4300D5E0E9226016080808C6C313C618C61301
:100B5300C618C613C618C613C6D5E0EA227009081C
:100B63000808226016181818C6C333C608C633C649
:100B730008C633C608C633C6D5E0EA22E627F60818
:100B830009E637F60809E637F60809E637F622E0FC
:100B930026F608A3E036F608A3E036F608A3E03607
:100BA300F622E026F008A3E036F008A3E036F008CA
:100BB300A3E036F022C3E0C696F608A3E0C696F695
:100BC30008A3E0C696F608A3E0C696F622C3E0960D
:100BD300F008A3E096F008A3E096F008A3E096F0EF
:100BE30022E056F608A3E056F608A3E056F608A35B
:100BF300E056F622E647F60809E647F60809E6470F
:100C0300F60809E647F622E0F608A3E0F608A3E0B3
:100C1300F608A3E0F622E6F008A3E6F008A3E6F060
:100C230008A3E6F022CAC0E0E6F0A308DAFAD0E0AF
:100C3300FA22CAC0E0E0A3C582CCC582C583CDC574
:100C430083F0A3C582CCC582C583CDC583DAE6D044
:100C5300E0CA22C3E498F8E499F9120C978026C3FA
:100C6300E49AFAE49BFBE920E7E9120C97E498F88D
:100C7300E499F922C3E498F8E499F9120C97E498FB
:100C8300F8E499F9C3E49AFAE49BFB22EB20E7CF5B
:100C9300E920E7E0B90010BB0008E88AF084F8AA6D
:100CA300F022E4FBC8FA22EB70227B10C833C8C9D8
:100CB30033C9335007C39AC3DBF280069A50012A23
:100CC300DBEAC833F4C8C933F4C9FA2275F008E47F
:100CD300C833C8C933C933C99AC99B5004C92AC97F
:100CE3003BD5F0ECFBC833F4C8E4C9FA22600D0825
:100CF300C6A2E713C618C613C6D5E0F322600C08D4
:100D0300C6C313C618C613C6D5E0F4227004226006
:100D13000D18C6C333C608C633C6D5E0F41822255A
:100D230010C0A8C2AF40021511F510D0A822C0D040
:100D33002510C0A8C2AF50020511F510D0A8D0D01D
:100D4300222510F582C0A8C2AF40021511F510D0BC
:100D5300A8851183222510F582E43511F58322E459
:100D6300732510C582C0E0E51134FFC583C0E0E5FB
:100D730010C3958224F9C0A8C2AF85831185821060
:100D8300D0A8CEF0A3E520F0A37808E608F0A3DE10
:100D9300FAEFF0A3E58124FBF8E608F0A3E608F0F8
:100DA300A30808E608F0A3E608F0A315811581D08F
:100DB300E0FED0E0F815811581E8C0E0EEC0E02246
:100DC300851183851082E0A3FEE0A3F5207808E077
:100DD300A3F608DFFAE0A3FFE0A3C0E0E0A3C0E0CE
:100DE300E0A3C0E0E0A3C0E085A8F0C2AF85821015
:100DF30085831185F0A8D083D08222C0D02510C569
:100E030082C0E0E51134FFC583C0E0E510C39582DD
:100E130024F3C0A8C2AF858311858210D0A8C8F07F
:100E2300A3E9F0A3EAF0A3EBF0A37908E709F0A3A1
:100E3300D8FAECF0A3EDF0A3EEF0A3EFF0A3D0E02B
:100E4300F0A3D0E0F0A3D0E0F0A3E520F0A3E5F019
:100E5300F0A322851183851082E0C0E0A3E0F9A30B
:100E6300E0FAA3E0FBA37808E0F608A3DFFAE0FCCE
:100E7300A3E0FDA3E0FEA3E0FFA3E0C0E0A3E0C086
:100E8300E0A3E0F5D0A3E0F520A3E0A3F5F0E5A807
:100E9300C2AF858210858311F5A8D082D083D0E0BC
:100EA300F8D0E0327403800474028000C0E0F404DC
:100EB300120D44D0E0120C282274048000CCC0E050
:100EC300EDC0E0E510C39CCCAD1150011DC0A8C21C
:100ED300AF8C108D11D0A8120C35D0E0FDD0E0FC02
:100EE30022D083D082C5F0E493A3C5F0C395F0F577
:100EF300F0E493A3C395F04005E5F0048001E475A5
:100F0300F002A42582F582E5F03583F583E493A30B
:100F1300C0E0E493C0E022D083D082CCC0E0E4936D
:100F2300A36006120F441470FAE493A36006120F31
:100F3300631470FAD0E0FCE493A3C0E0E493C0E050
:100F430022C0E0E493A3D39C5010E493A3C39C403A
:100F53000AD0E0D0E0D0E0020F37A3A3A3D0E02271
:100F6300C0E0E493A36C7009D0E0D0E0D0E0020FBE
:100F730037A3A3D0E022D083D082ECC0E0EDC0E061
:100F8300E493A3FCE493A3FDED4C600D120FC5ECB9
:100F930024FFFCED34FFFD80EFE493A3FCE493A373
:100FA300FDED4C600D121004EC24FFFCED34FFFD4D
:100FB30080EFD0E0FDD0E0FCE493A3C0E0E493C075
:100FC300E022C0E0C3E49396087401939618400F9F
:100FD300E49366700808740193661870007019A38F
:100FE300A3C3E49396087401939618A3A3400DD06A
:100FF300E0D0E0D0E0020FB5A3A3A3A3A3A3D0E066
:1010030022C0E0C0F088F0E493667008087401938E
:1010130066187000A8F0A3A3700BD0F0D0E0D0E066
:10102300D0E0020FB5A3A3D0F0D0E022D083D082CA
:10103300ECC0E0EDC0E0EEC0E0EFC0E0E493A3FC61
:10104300E493A3FDE493A3FEE493A3FFEF4E4D4C7F
:1010530060151210ABEC24FFFCED34FFFDEE34FF02
:10106300FEEF34FFFF80E5E493A3FCE493A3FDE4E8
:1010730093A3FEE493A3FFEF4E4D4C60151210E8CB
:10108300EC24FFFCED34FFFDEE34FFFEEF34FFFFF5
:1010930080E5D0E0FFD0E0FED0E0FDD0E0FCE493BB
:1010A300A3C0E0E493C0E022C0E0C0F088F01202E5
:1010B3000EA8F040071201D0A8F0701AA3A3A3A3AF
:1010C30012020EA8F0A3A3A3A34013D0F0D0E0D044
:1010D300E0D0E0021095A3A3A3A3A3A3A3A3A3A378
:1010E300D0F0D0E022C0E0C0F088F01201D0A8F028
:1010F300A3A3A3A3700BD0F0D0E0D0E0D0E0021004
:1011030095A3A3D0F0D0E022C082C083740149F537
:10111300B37C108A828B83E0F5B1A3AA82AB831CD4
:10112300EC70F0D083D08222800100E5B3A2E350BB
:10113300F9227A18001AEA70FB2274F3120D6489FB
:101143000A8C088D09740D120D58E0F50CA3E0F517
:101153000D740F5A705FEAC4540FFE7F007001E4F0
:101163006053AA08AB09A90A12110B121135A80C76
:10117300A90D7A08E5B288828983F0E5B2A3F0E885
:1011830024020808E93400F91AEA70E812112BE581
:10119300082410F508E5093400F509E50C2410F5D9
:1011A3000CE50D3400F50DEE24FF1EEF34FFFFEECA
:1011B3007001EF70AD7F06020DC3790412110B129B
:1011C300112B22790680F574F7120D648C088D09B2
:1011D3007808120EABEAFCEBFDE9FA790012113D37
:1011E3007402120D317F02020DC374F7120D648C69
:1011F300088D097808120EABEAFCEBFDE9FA7902D7
:1012030080DBC082C08374106960030212B590F260
:10121300EEE054F0F0741390F2EDF074F290F2E714
:10122300F074BA90F2E8F074DF90F2E9F074D990B8
:10123300F2EAF0742090F2EBF0742390F2ECF07485
:101243004090F2EEF090F2F7E0705E90F2F6E05428
:10125300F84408FAF0741290F2F5F074DF90F2F1AA
:10126300F074AF90F2F2F090F2F3E0541FF0740FC9
:101273005A444090F2F6F090FCC5E090F2EFF09003
:10128300FCC4E090F2F0F090FCC6E0A2E050082429
:1012930001F0A3E03400F090FCC7E0541F90F2F398
:1012A300F090FCC6E090F2F4F074F2F5D375D2E757
:1012B3008043742069703E90F2E6E054F0F07413BA
:1012C30090F2E5F074DF90F2DFF074D990F2E0F081
:1012D30074F290F2E1F0749590F2E2F0748090F27F
:1012E300E3F0742590F2E4F0741090F2E6F074F2F7
:1012F300F5D575D4DFD083D0822274F7120D6490B4
:101303007C00E064AA7008907C01E064AA60047F1A
:101313000080027F7CE47001EF7004790080178CF9
:10132300088D097808120EAB7C00EFFD12622E7453
:1013330002120D3179017F02020DC3800100E5AE77
:10134300A2E740F9C2AF89AD75AB2143AE0100D22C
:10135300AF800100E5AEA2E740F922C082C08390CE
:10136300F2F7E0700E793E12133E75AD3E75AC0098
:1013730012137BD083D0822275AB2153D104E5D1E4
:1013830085C0C075D604D2B87401F012011C22C006
:10139300E0C0D0C082C08385C0C0E5D1A2E2500DB9
:1013A300E490F2F7F053D1FBC2B875D604D083D0E2
:1013B30082D0D0D0E032E9600B43C640E5BEA2E55F
:1013C30050FA800F53BEFBE5BEA2E650FA0053C6A7
:1013D30080E5C643BE042274F5120D647582D2758E
:1013E30083F9E9FA7B19EAF0740A2AFAA31BEB7072
:1013F300F5E9FA7B001262C07ED27FF975081912F3
:101403006276EAF8EBF97A197B00120C8FEAF50A97
:101413008E828F83E0FAE50A24D2F8E434F9F9885E
:10142300828983E08E828F83F0EA88828983F08EBB
:10143300828F83A3AE82AF831508E50870C17F0452
:10144300020DC374F5120D6475080090DF06E0FA0F
:1014530085080AE50A1214B96A60090508E508C394
:10146300941940E774012508F8E43400F97A197BEC
:1014730000120C8FEAF50890DF3BE0FE800579014E
:10148300125CD490DF3BE0120F1A01131481140392
:101493000881140C81140E81149E1475E104E5086F
:1014A3001214B990DF06F0EE120EE40D00B714B477
:1014B3001475E102808824D2F582E434F9F583E0DF
:1014C300227F04020DC38A828B83F0A3AA82AB839B
:1014D3002274F8120D64E960208C828D83E08A8285
:1014E3008B83F08C828D83A3AC82AD838A828B83C2
:1014F300A3AA82AB8319E970E0021FE674F8120D08
:1015030064800EA3AC82AD838A828B83A3AA82AB51
:1015130083E96013198A828B83E0FE8C828D83E0DA
:101523006E60E0790180027900021FE6C082C08309
:1015330090FCB2E0600B90F30874E2F0A3740480B3
:101543000990F3047410F0A37427F01249BD7901D4
:101553001226590228D674F5120D6475E10490FC25
:10156300F37808120C0A90FCDA7808120C1990FC34
:10157300F77808120C0A90FCE27808120C1990FC18
:10158300E07490F0A37401F090FCF3120EBC90FC95
:10159300F77808120C0AAA08AB09AC0AAD0B124E75
:1015A300567404120D3190FCB6E0600E90FCA9E075
:1015B300600890DF0FE0D2E7800690DF0FE0C2E71C
:1015C300121C9090FC87121C8490FCB2E060079080
:1015D300DF03E054FCF090FCB5E090DF05F0124926
:1015E300A70214C474F1120D6490DF06E0F50FC274
:1015F300AF750CD3750DFC750A3D750BF37E417FFA
:10160300F37508457509F3750E047901125CD475F9
:10161300E104850C82850D83121C8475E101790137
:10162300125CD490DF1EE0850A82850B83F090DF85
:101633001DE08E828F83F090DF1C122651122675D7
:10164300A3AE82AF83850A82850B83A385820A8535
:10165300830B850C82850D83A385820C85830D15F1
:101663000EE50E70A5E50F90DF06F075E101D2AF30
:1016730002261690FCC812355990F30412268612DE
:10168300267D90FCCE12355990F312122686123520
:101693009F53F4FD43FE02D29175C680E5BEA2E6D8
:1016A30050FA90FCFB7808120C0A90F2FB780812AF
:1016B3000C19E490F2FFF090F300F0740890F3013A
:1016C300F0121CBD75C90879001213B91252527A6F
:1016D300FF7BFF125575740590DE0EF0E490DE1368
:1016E300F074FF90DE10F090DE12E0D2E012197B6E
:1016F300700A740190F32DF090F32EF090FC87E0C4
:10170300F91213DA90FCA6E090DF08F012155912D3
:1017130015E712480A120C97E80490FCE6F0439A86
:1017230001D2A9D2B9759110D2AF7A677BFC12119D
:10173300BD1249CE90F31674321235A4750857754D
:1017430009F3F50A802A00A28950FB75D9551AEAD4
:1017530070F590FCBAE0600D744090DF2EF07AFFD4
:10176300001AEA70FB75E10490FCAAE090DF2EF00A
:1017730090F329E0600512268CE4F090F32AE060F0
:101783000512269CE4F090F331E0601175E10380CB
:101793000100A28950FB75D9557A5580AA90F3327E
:1017A300E0605890FCFF780C120C0A90F637780C26
:1017B300120BA590FD03780C120C0A7583FC75823D
:1017C300BF780C1201BB602E90FD07780C120C0A37
:1017D30090FCBF780C120BA590FD03780C120C0A39
:1017E3007583FC7582BF780C1201BB6004740180A1
:1017F30001E490F32CF0E490F332F0C2AF1250AF57
:10180300740590DE0EF0803C124C72EA24010AEB60
:101813003400FB88828983A3A882A983C3EA9EEB51
:101823009F405AEE2457F582EF34F3F583E4F090AA
:10183300FCD2E0600F90DE11E0A2E040077A577B14
:10184300F31227DE90DE14E0A2E0507890DE17E07A
:10185300FF90DE16E0FE7001EF60697808120EA7B4
:10186300EEF97A2A7BDE12550F7403120D3190DEE6
:1018730014E0C2E0F07A007B00785779F38882891C
:1018830083E0F50B90F30AE024F7FCA3E034F3FDC7
:101893008C828D83E50BF0740D650B701412198423
:1018A300740AF0121984E4F0740190F32BF0021817
:1018B30026740A650B90F30A600302180B1219874A
:1018C300740D80DE1226B9D2AF90FCB2E0700B909B
:1018D300F328E0600B1221BDE4F090FCB2E0700D40
:1018E30090F304C3E09451A3E09400400B90F2F909
:1018F300E060051228DBE4F090F336E0601190FC21
:10190300B2E0600BE490F336F090FC871247D59079
:10191300F32BE060051238E6E4F090F334E060095D
:10192300E412197B700312152F90FCA8E0600B9052
:10193300F32FE06005124A01E4F090FCB2E0602B63
:1019430090F335E06025121446E4F090F33AE0603A
:101953001714F090F31EE024ECF8A3E034FFF990A1
:10196300F31AE8F0A3E9800274FFF090F338E07013
:1019730003021773C2AF80FEF012266A1212FDE94A
:101983002290F30A124C7690F30AE024F7F8A3E0CE
:1019930034F3F98882898322C0E0C0D0EAC0E0EB47
:1019A300C0E0C082C083C0F0C2AF90F2FAE064200E
:1019B300700D740190F2F9F043D681E5D68067E0AB
:1019C3006410706290FCBAE0604990DF06E0FB901F
:1019D300DF1EE090F85FF090DF1DE090F860F0907C
:1019E300DF1CE090F861F090FCBCE0C0E090DF0603
:1019F300E0FAD0E0C39AEB75F007500684AAF0EB47
:101A0300800784AAF074072BC39AF090FCBEE09081
:101A1300F33CF0740290F33BF043D682E5D690F3A7
:101A23000874281235A4E490F2FAF053E9EF539BBB
:101A3300FCE59BD2AFD0F0D083D082D0E0FBD0E0E6
:101A4300FAD0D0D0E032C0E0C0D0E8C0E0E9C0E0D6
:101A5300EAC0E0EBC0E0C082C083C2DC90F31AE0CE
:101A63007002A3E0601190F31A121C9A7001E970DE
:101A730006740190F335F090F306E07002A3E06082
:101A83001190F306121C9A7001E97006740190F329
:101A930029F090F304E07002A3E0601190F30412C4
:101AA3001C9A7001E97006740190F328F090F30812
:101AB300E07002A3E0601190F308121C9A7001E930
:101AC3007006740190F32AF090F316E07002A3E01D
:101AD300601190F316121C9A7001E970067401905C
:101AE300F32FF090F318E07002A3E0601190F31865
:101AF300121C9A7001E97006740190F334F090F3AC
:101B03001CE07002A3E0601190F31C121C9A700198
:101B1300E97006740190F336F090F30E124C729054
:101B2300F33BE07003021C1D14F06003021C1D90C4
:101B3300FCBAE0700675E104021C1D90F33CE0C39F
:101B43009407E0402E14F090FCD6E0C0E090DF064E
:101B5300E0FAD0E0C39A500D90FCBDE0FA90DF06A6
:101B6300E0C39A8005740590F33CF0740190F33B55
:101B7300021C1CC394035010E0640270767401F0DD
:101B830075E10480E8E014F0E024D0F582E434FC4D
:101B9300F583E0FB90DF06E0C39B500990F33CE044
:101BA300C3940350E090DF06E0FAEBC39A50BC9075
:101BB300F33CE0C3940340B3EB90DF06121C8A248A
:101BC3003AF582E434F3F583E090DF1E121C8A2495
:101BD3003EF582E434F3F583E090DF1D121C8A2482
:101BE30042F582E434F3F583E090DF1C121C8A147F
:101BF300021B6DE064017022E4121C9090F85E12E7
:101C03001C8490F85FE090DF1EF090F860E090DFB6
:101C13001DF090F861E090DF1CF090F30CE070028F
:101C2300A3E0604A90F30C121C9A7001E9703F9094
:101C3300F63B124C7212359F90F63BE064E8700459
:101C4300A3E06403702890F63BE4F0A3F0740190E2
:101C5300F332F090F320E07002A3E0601190F320E0
:101C6300121C9A7001E97006740190F338F0D08366
:101C7300D082D0E0FBD0E0FAD0E0F9D0E0F8021A4D
:101C830044E090DF06F022F090F33CE022F090FC79
:101C9300AAE090DF2EF022E024FFF0F8A3E034FF67
:101CA300F0F9E822C0E074F2120DFEC2AF85888815
:101CB300124A1CD2AF7F01020E5675DB0175DA2B77
:101CC30075E40675E5442274F8120D647C038A8278
:101CD3008B83E0FD74F05DFE74F06E70057908028D
:101CE3001D68EA2420F582EB1238156015EC5D12AD
:101CF3000EE40102051DFF1CFF1C031D0C0C8002DA
:101D03007C09EE120F1A000450191D601D1D702B63
:101D13001D802B1D2F1D74068049EA2419F582EBC3
:101D23001238152C2403803C74108037EA241FF5E5
:101D330082EB12381560010CEA2421F582EB12388C
:101D430015601E740C5D120F1A0004005C1D046301
:101D53001D08621D0C5C1D641D74042CFC80020CA8
:101D63000C74012CF9021FE674F3120D648A088BBC
:101D7300098C0C8D0D740D120D58E0FEA3E0FF7C51
:101D83001E7582627583F87A10E412361370FAE5D1
:101D9300087001EB703D74308E828F831214CD80F6
:101DA30068A808A909AA0CAB0D120C97EA24EBF555
:101DB30082EB34F9F583E0C0E08C0AE50A121F23B5
:101DC300D0E0F01CA808A909AA0CAB0D120C978847
:101DD300088909E5087002E5096003EC70C38C8289
:101DE300858208E5082463FCE434F8FDEEFAEFFB92
:101DF3001262D6C3E49508F8E49400F9EE28F8EFEC
:101E030039F9741E28FAE439FB7F06020DC374F115
:101E1300120D6474FC120D221246DFA3ECF0A3ED45
:101E2300F07A1E7582627583F87B10E4F0A3F0A349
:101E33001BEB70F7851082851183C082C08390FDF0
:101E4300037808120C0AD083D08278081201BB7081
:101E53007E7415120D58121F337430F07415120D61
:101E630058E02401F8A3E03400F97415120D581258
:101E730026867415120D58E0FAA3E0021F1F851081
:101E830082851183780C120C0A7413120D58121FD9
:101E930039120AA9E50824EBF582E50934F9F5833B
:101EA300E0C0E08A08E508121F23D0E0F01A85108D
:101EB30082851183780C120C0A7413120D58121FA9
:101EC30039120AA9851082851183780C120C1985A1
:101ED3001082851183C082C08390FD037808120CA1
:101EE3000AD083D08278081201BB6003EA708F8A1C
:101EF30082AE82EE2463FCE434F8FD7415120D58AF
:101F030012214E1262D6C3E49EF8E49400F97415CC
:101F1300120D5812263F741E28FAE439FB022611CB
:101F23002462F582E434F8F58322851082851183D7
:101F3300E0F812480322E0F508A3E0F5093395E041
:101F4300F50AF50B780C790822C082C08374FE125F
:101F53000D22E9FC851082851183E4F0A3F0790258
:101F6300ECC333FCE433FDEA2CFAEB3DFB740C2A9F
:101F7300FCE43BFD851082851183AA82AB83121496
:101F8300D412214E7402120D310228D674F8120DA8
:101F9300647E068C828D83E0C4540FFFEAF8EBF96C
:101FA30088828983A3AA82AB83EFC3940A50047403
:101FB3003080027437121FEB8C828D83E0540FFF45
:101FC300A3AC82AD83EAF8EBF988828983A30AABD9
:101FD30083EF940A5004743080027437121FEB1E8F
:101FE300EE70B07F01020DC32FFFEF88828983F06B
:101FF3002274F1120D6474FC120D22851082851176
:1020030083ECF0A3EDF08A0C8B0D8006850A0C851A
:102013000B0D850C0A850D0B851082851183122605
:1020230033E508250AF50EE509350BF50F7401783C
:102033000E120CF0E50E75F022A4F50EAAF075F061
:1020430022E50FA42AF50FE50E243EF8E50F34F63A
:10205300F97402120D581226867402120D58E024E8
:102063001B12481712214EE50A75F022A4F8ACF0B2
:1020730075F022E50BA42CF9E82459F582E934F62E
:10208300F583C3E09AA3E09B500812352180CA125E
:102093002154E50875F022A4FEACF075F022E509A1
:1020A300A42CFFEE2459F582EF34F6F5831247CBC7
:1020B300C3EA9CEB9D40D812213F4040E8243EF503
:1020C3000EE934F6F50F7922AC0EFD7A827BF81215
:1020D30014D4EE243EF582EF34F6F5837922AC82F4
:1020E300AD83AA0EAB0F1214D479227C827DF8AA99
:1020F30082AB831214D412352112215412213F4092
:102103000302205CC3E50C9508E50D9509A2D26591
:10211300D033500BAC08AD09AA0CAB0D121FF485DC
:102123001082851183123559C3E50A98E50B99A2EC
:10213300D265D033500302200F022611C3E5089560
:102143000AE509950BA2D265D03322E0FAA3E0FB9E
:1021530022E50824FFF508E50934FFF5092274F8A0
:10216300120D647D0F7C00EC75F022A4F8A9F02415
:1021730059FAE934F6FB8A828B83E064FF7004A387
:10218300E064FF7004ECFD8023E8243EF582E9342B
:10219300F6F583E06006122625E070098A828B83B8
:1021A30074FFF0A3F00CECC3941040BBEDFC7D0076
:1021B3007A007B00121FF4021FE674F1120D649083
:1021C300FCABE06004781880027808880E750F0075
:1021D30090F333E0603390DF06E0FA90FCE7E06AC7
:1021E3006027121C841247DE740190F32DF074FFF4
:1021F30090FCE7F0748090F2FAF075E10475E10168
:10220300E490F333F090F335F090F339E075F02573
:10221300A42401F50CE5F034F2F50DE0045403F0C9
:10222300850C82850D837A11E412361370FA90F3CC
:1022330037E0601790FCBBE0FA90F8A474FF123506
:10224300A474FF850C82850D83801A90FCB9E0FA93
:1022530090F63DE0850C82850D83F090F63DE0908D
:10226300F8A4F0A3E4F090F32CE060047804800277
:1022730078011226308A0AE8250A1234F4ABF08575
:1022830009F0A42BFB8508F0E9A42B12263B90F35D
:102293000412268690F31012268690FCB3E0601495
:1022A30090F304E024FD181818A3E034FFF990F329
:1022B3001A12268690F32CE06003EA800374804AA6
:1022C300850C82850D83A3F090FCB3E0850C828599
:1022D3000D83A36005E0D2E68003E0C2E6F0790453
:1022E3007C377DF6E50C240212261B79027C3B7DAC
:1022F300F6E50C240612261B122161E50C2408F5D1
:1023030008E50D1247C07B008011E4F0122625E496
:10231300F00BEBC394104003022534EB75F022A4B9
:10232300F8A9F0243EFEE934F6FF8E828F83E0F5B0
:102333000A700302253474F0550A6450700F740355
:10234300550AFA74036A600574026A70BDEEFAEF07
:10235300FB121CCAE9FA8A82A882C3E50E98E494A8
:10236300005003022534C3E50E98F50EE49400F5FE
:102373000F850882850983E50A122675E054F06407
:10238300F0701412264712374379068E828F83A387
:10239300AC82AD830224B2EE241BF50AEF1234DBC8
:1023A3007902AC0AFDAA08AB091214D4E508240289
:1023B3001247BCE0FA90FCE9E06A700C12355685CE
:1023C3000A82850B83124C6AEE2420123812604570
:1023D3008E828F83E05403120EE401021824E72354
:1023E300E723FF2379028E828F83A3AC82AD83AA76
:1023F30008AB091214D4E5082402801679068E82EC
:102403008F83A3AC82AD83AA08AB091214D4E50869
:1024130024061247BCEE241F123812600612264708
:102423001237438E828F83E054F0120F1A00045048
:102433004024604424706D24806D247124790680C7
:10244300667902EE241DFCEF3400FDAA08AB0912E5
:1024530014D412380FF9EE2407FCEF3400FDE5081D
:102463002402FAE5093400FB804979108039EE240F
:102473002112381260408E828F83E0540C120F1A9F
:10248300000400A82404932408A4240CA824B92439
:102493008E828F83A3A3A3A3A3A3A3122651F080A9
:1024A30015790280027904EE2407FCEF3400FDAABB
:1024B30008AB091214D4EE241AF8EF12482FE06087
:1024C3000214F08E828F83E054F06410702112386E
:1024D3000F641F701A8E828F83E0540C6404700F94
:1024E30088828983E0704A740190F330F080078812
:1024F300828983E0703B8E828F83E054F364107093
:102503002412380F641A701D8E828F83E0540C647A
:10251300047012A3A3A3A3A3A3A3E090FCE7F07406
:102523000190F333F08E828F837A11E412361370A5
:10253300FA90FCB3E0603990F335E060331214464F
:10254300E4F090FCB8E060287CFC7DF97A577BF3DB
:102553001262D6E4C0E07508637509F37808120EB9
:10256300AB12486D120D318A828B83D0E01235EFA6
:1025730090DF06E090F85EF075E10490FCAAE0902D
:10258300DF2EF0741090F2FAF0F91212057A777BCD
:10259300FC1211C690FCABE0600FC3E50E9410E58E
:1025A3000F9400500474228002741290F2BAF07CEB
:1025B300BC7DF2AA0CAB0DE024FEF91211CA90FC0B
:1025C300B4E090F2BBF0C2AF75D60275E103E490BC
:1025D300F328F0D2AF90F330E06019E4F090F32DDC
:1025E300F090F32EE0F9122659E490F32EF074FFE5
:1025F30090FCE8F090F63DE004F0C0E090FCE6E0EB
:10260300FAD0E0C39A4005E490F63DF080057404E7
:10261300120D317F08020DC3FAE50D3400FB1214CD
:10262300D422E82458F582E934F6F5832290FCDEBF
:10263300E0F508A3E0F50922F990FCE0E028F8A30F
:10264300E039F922EE2419F582EF3400F583E085B1
:1026530008828509832212266A12135E90F3187486
:10266300E2F0A37404F02290FCC61247CF7A637B96
:10267300FC2212374F8E828F832290FCCA12356060
:1026830090F306E8F0A3E9F022C082C08375C9A8DD
:1026930075C95812267D0228D6C082C08374229041
:1026A300DF02F0742090F2FAF0F912120575D601E8
:1026B30075E1020228D674F6120D6490FCEAE0700C
:1026C30004A3E06402607B90DE11E0A2E040737437
:1026D3000590DE0E1227D67583FC7582EAC3E09857
:1026E300A3E09990FCEA12355950597583F8758225
:1026F300A6E0C398FEA3E01227B840047E407F0003
:102703001227C2120EA7EEF97A2A7BDE125536740F
:1027130003120D3190FCEAE02EF0A3E03FF090DECF
:1027230011E0D2E01227D690FCEAE0687003A3E040
:1027330069700F90F8A6E4F0A3F090FCEAF0A3749C
:1027430002F0806CE4C398FE74021227B840047E42
:10275300407F001227C2120EA7EEF97A2A7BDE12FF
:1027630055367403120D3190FCEAE02EF0A3E03FDE
:10277300F0C39402400790FCEAE4F0A3F07440C372
:102783009EF8E49FF9E87001E9609390FCEA122156
:102793004E7583F87582A6E0C39AFEA3E09BFFC340
:1027A300E89EE99F4003022703E8FEE9FF022703AF
:1027B3007F03020DC399FFC3EE9441EF940022906F
:1027C300FCEAE02437F508A3E034F4F509750A00C0
:1027D300780822F090F8A61235602274F8120D647E
:1027E3008A828B838009740A6C7003740DF0A3E0F2
:1027F300FC70F3539AFD90F8A6123559800FA3AAE3
:1028030082AB83C3E994024004780079008A828B07
:1028130083E0FE604690FCEA122880401C7583F832
:102823007582A6C3E09CA3E09D403090F8A61228D1
:10283300804028C3E994025022E82437F582E93422
:10284300F4F583EEF0E8240108E93400F98A828B79
:1028530083E0640D70A8740AF080A890F8A612268D
:102863008690FCEAE07004A3E06402700790FCEA3F
:10287300E4F0A3F0439A021226B9021FE61247CFEF
:10288300C3E89CE99D22C082C083E9FCEAF8EBF926
:1028930088828983A3AA82AB83ECC4540FFDC394BB
:1028A3000A50047430800274372DFDED88828983C9
:1028B300F0EAF8EBF988828983A30AAB83740F5C8F
:1028C300FC940A50047430800274372CFCEC888228
:1028D3008983F0D083D0822274F1120D6474F512CF
:1028E3000D227402120D58E4F07403120D58E4F033
:1028F300A3F0F50890FCE8E064FF7009E41248A136
:1029030012360F70FB90F30874011235A490F29500
:10291300E0F50C7422650C60097412650C60030207
:1029230029D2850C0AE50A2495F50EE434F2F50F55
:10293300E50E2402F50AE50F1234DB850A82F583DE
:10294300E0A2E740030229D290F296E0FA90FCB5A8
:10295300E06A7008740190F2F8F0801590FCB2E020
:10296300600F90FCB4E06A7008740190F2F8F0F51F
:102973000890F339E075F025A42401FEE5F034F264
:10298300FFE0045403F07A777BFC1211C6EEFCEFF0
:10299300FD7A977BF274FE250CF91211ED850E82F8
:1029A300850F83A3E0F912507590F3221246E5E4F4
:1029B300850A82850B83F090F295F090F296F09061
:1029C300DF38E0C0E07402120D58D0E0F0802A74C2
:1029D3000A90F357F0E4C0E0750A58750BF3780AD0
:1029E300120EAB7C0A7D0090F296124874120D31E0
:1029F3008A828B83D0E01235EF75D60175E10290A0
:102A0300F304E0F50CA3E0F50D90F2F8E070030297
:102A1300349A639002E590E4F090FCB2E070030214
:102A23002B6DE5087003022B6D8E828F83E090F887
:102A3300A41235A48E828F83A3E0FCA2E750047A0C
:102A43000180027A041226308C0A743F550AF8EA90
:102A5300281234F4AAF08509F0A42AFA8508F0E9CB
:102A6300A42A12263B90F31E122686ECA2E6504BB4
:102A730090FCDE123559E8C333F8E933F97583F373
:102A830075821EE0C398F8A3E099F974EC28F874F2
:102A9300FF39F990F31A12268690F31E123559E87E
:102AA30075F00AA4F8AAF075F00AE9A42AF990F3DC
:102AB3001C122686740A90F33A800C90F31CE4F0FF
:102AC300A3F090F31AF0A3F090FCB8E07003023483
:102AD3009A7C097DFA7A577BF31262D67508617581
:102AE30009F37402120D58124891500F742D90F38C
:102AF30061F07508627509F31234CD7808120EABD4
:102B0300124756120D3112373D7C147DFA12478756
:102B130024051247BC90F3221248345003124998FB
:102B23007808120EAB124756120D311235A912371F
:102B3300437C1A7DFAAA08AB091262D690DF06E03D
:102B4300FAE50824081247BC7B00C3500312493737
:102B53007808120EAB124756120D31740A8A828B13
:102B630083F0A3E41235EF02349A90F32CE0700360
:102B7300022ED98E828F83E064FF6003022ED9A3D5
:102B8300E064FF6003022ED98E828F83A3A3E064E7
:102B9300FF6003022ED98E828F83A3A3A3E064FF79
:102BA3006003022ED9750EA8750FF875083E7509D6
:102BB300F6EE240AFEEF3400FF750A007906EEFCF8
:102BC300EFFD850882850983A3AA82AB831214FFD4
:102BD300E9701C850882850983E0FA90FCF2E06ABB
:102BE300700302349A74F05A64F0700302349A1238
:102BF30034E040C87C017B017A0179101237588A8E
:102C0300088B09EA7001EB700302349A750A0075A8
:102C13000B007906EEFCEFFDAA0EAB0F1214FFE9D1
:102C230070347902E50E2406FCE50F3400FD7405CB
:102C3300120D58AA82AB831214D47902E50E24082C
:102C4300FCE50F3400FD851082851183AA82AB83D6
:102C53001214D4022D347403120D58E07002A3E051
:102C6300701C79067CEC7DFCAA0EAB0F1214FFE9F5
:102C7300700C7403120D58E50EF0A3E50FF0123536
:102C830021E50E240AF50EE50F3400F50FC3E50A1E
:102C93009418E50B94005003022C1590F998E06406
:102CA30018700302349A7403120D58E07002A3E003
:102CB300700302349A90FCB9E0FC123579120C9738
:102CC3001246DF123579120C977405120D5812262D
:102CD3008690FC65124C72123579120C97E80490B9
:102CE300FCE6F07906EEFCEFFD7403120D58122199
:102CF3004E1214D479027405120D58AC82AD83744C
:102D030003120D58E0240612352B790285108285B3
:102D13001183AC82AD837403120D58E0240812357D
:102D23002B90F998E004F0740190F32DF090F32EBA
:102D3300F090FCC3E004C0E0E508241A123806D082
:102D4300E0F07906EEFCEFFD850882850983A3AAEE
:102D530082AB831214D490FCABE06035741B8508FE
:102D630082850983F01238027402F07405120D583B
:102D7300E0F9851082851183E0F8A3E049F985081D
:102D830082850983A3A3A3A3A3A3A3E8F0A3E98054
:102D93001D851082851183E044F0850882850983AF
:102DA300F07405120D58E0C0E0123802D0E0F07460
:102DB3000A90F357F07508587509F37808120EABAB
:102DC3007C0A7D00AA0CAB0D12475A120D318A08FA
:102DD3008B097C237DFA1262D6EE24FAFEEF34FFD0
:102DE300FF7904EEFCEFFD7A997BF91214D41247B4
:102DF300B87808120EAB75080A7509007808120E28
:102E0300AB90F9997808120C0A124748120D311247
:102E1300373D1235007808120EAB12487B120D3184
:102E2300123593120D58124891500312499878089D
:102E3300120EAB124756120D311235C5500312490B
:102E4300987808120EAB124756120D31E48A828B22
:102E5300831235EF7C2B7DFA7A577BF31262D6EE21
:102E63002406FCEF3400FD7A637BF3121F8F8A087C
:102E73008B097C387DFA12478B2404F8E509124844
:102E83002FA3858208858309851082851183C3E07A
:102E9300940AA3E09400851082851183E0500424F2
:102EA3003080022437FAEA88828983F074288508FF
:102EB30082850983124918120EAB7C0A7D007407C0
:102EC300120D58124882120D3174298A828B83F0B5
:102ED300A3740A022B6412350090F99DE0F0A3E07D
:102EE3005403F090F99DC3E094E9A3E094035003E5
:102EF3000231467C3D7DFA7A577BF31262D6750820
:102F03005A7509F390F99DE02418F0A3E034FCF01E
:102F130090F99DE0F50AA3E0F50B7404780A120D0D
:102F230000AA0AEA601875085B7509F3C3940A508E
:102F3300047430800274372AFBEB90F35AF0A8082C
:102F4300A90988828983A385820885830990F99DCD
:102F5300E0540FFBC3940A50047430800274372B7F
:102F6300FBEB123589F0A37409123743EA94054049
:102F73005090F8A4E0C4540FFA601DA808A909886A
:102F8300828983A3858208858309C3940A500474C4
:102F9300308002743712349F90F8A4E01234A950A1
:102FA300047430800274372AFAEA1235891235D54F
:102FB300123545500474308002743712358112374C
:102FC30043EE1235121235FC90F99DC3E09405A32C
:102FD300E0940050030230AE8E828F83750C04128E
:102FE300356670FBEE240CF582EF12380A750C0679
:102FF30012356670FB90F99DE064057002A3E060F2
:103003000302308912373D7904EE2412FCEF3400B9
:10301300FD7407120D58AA82AB831214D4780812D8
:103023000EAB7508107509007808120EAB740B12FD
:103033000D587808120C0A124748120D311235FC4C
:10304300EE2416F50AEF1234DB7E057902AC0AADE5
:103053000B851082851183AA82AB831214D478085E
:10306300120EAB7C107D007402120D5812488212AE
:103073000D3112373DE50A2402F50AE50B1234DB64
:103083001EEE601D80C5EE2412F582EF12380A7E13
:103093000EAA08AB0912353F8A088B09A31EEE70EE
:1030A300F0E4850882850983022B677904EEFCEF3F
:1030B300FD7407120D58AA82AB831214D4EE240CAC
:1030C300FEEF3400FF7808120EAB7409120D587826
:1030D30008120C0AAA08AB09AC0AAD0B124D2374F3
:1030E30002120D3112373D750C007904EEFCEFFD31
:1030F3007407120D58AA82AB831214D4EE2404FE73
:10310300EF3400FF7808120EAB7409120D587808DB
:10311300120C0AAA08AB09AC0AAD0B124D237402B8
:10312300120D3112373D7401650C60067404650C91
:103133007003123604050CE50CC3940540030234F6
:103143009A80A790FCB8E070030233737C417DFA48
:103153007A577BF31262D675085C7509F378081207
:103163000EAB7C0A7D00AA0CAB0D12475A120D312F
:10317300124912120EAB7C0A7D0090F8A412488209
:10318300120D31743A8A828B831235D5F50F1235BD
:103193004550047430800274371235811235C012E1
:1031A300351274098A828B831235ECE490F357F05D
:1031B3007904EEFCEFFD7A997BF91214D475085764
:1031C3007509F37808120EAB75080A7509007808BB
:1031D300120EAB90F9997808120C0A124748120D97
:1031E30031124912120EAB12487B120D3112359374
:1031F300120D5812489150031249987808120EABD9
:10320300124756120D311235C550031249987808EA
:10321300120EAB124756120D311235A91235C024C6
:103223001C12488A50031249987808120EAB1247B1
:1032330056120D3174098A828B831235C0241D12F4
:10324300488A50031249987808120EAB1247561257
:103253000D311235B11235EC7C477DFA1234BF754E
:103263000C0074098508828509831248B7120F1A66
:103273000100017E3201037E329C327808120EABCC
:103283007C0AECC0E0E4C0E0A90CEEFAEFFB121FED
:103293004CD0E0FDD0E0FC802AA90CEEFAEFFB1243
:1032A3001F4C8508828509831234D15007742DF091
:1032B300A31234CD8582088583097808120EAB7C6E
:1032C3000A7D0012475A120D318A088B09050CE555
:1032D3000CC39408408C74098508828509831235D0
:1032E300EC7C4C7DFA1234BFEE241E123532500FA3
:1032F300742D90F35BF075085C7509F312479178B0
:1033030008120EAB124756120D3174098A828B8351
:10331300F0A3744FF0A37443F0A3743AF0A37420A2
:103323001235C0241F123532500312493778081260
:103333000EAB124756120D3112373D850E82850FA3
:1033430083E0A2E650067C517DFA80047C5A7DFA24
:1033530012478724081247BCE0A2E750067C637D2E
:10336300FA80047C6E7DFAAA08AB091262D6807ECD
:103373008E0A8F0B740A90F357F0747C90F358F015
:103383007A597BF390F8A412353F7402120D581248
:10339300353F90F32212353F747C12373F7B2085F3
:1033A3000A82850B83E0C41234A95004743080026E
:1033B300743712349F850A82850B83E0540FFAA376
:1033C30085820A85830BA808A90988828983A38536
:1033D3008208858309940A5004743080027437127A
:1033E300349F1BEB70B9E4850882850983F07A5713
:1033F3007BF31227DE90F998E0700302349A750C80
:10340300A8750DF8EE2406FEEF3400FF7508007969
:1034130006EEFCEFFDAA0CAB0D1214FFE97060750C
:10342300083E7509F6750A007906EEFCEFFD85087E
:1034330082850983A3AA82AB831214FFE9702685D0
:103443000882850983E0FA90FCF2E06A600774F071
:103453005A64F070108508828509837A11E4123664
:103463001370FA80051234E040BE850C82850D830B
:103473007A0212360F70FB90F998E014F080180569
:1034830008E50C240AF50CE50D3400F50DE508C339
:1034930094185003023412740B0226131234A3221D
:1034A3002AFAEA021FEE540FFAA808A909888289AA
:1034B30083A3858208858309C3940A227A577BF301
:1034C3001262D675085B7509F32212499F22C3EB7A
:1034D30012489C22F50AA3E03400F50B22050AE505
:1034E300082422F508E5093400F509E50AC3941018
:1034F30022F8E43400F9E88508F0A4C8227902EE42
:103503002404FCEF3400FD7A9D7BF91214D42224A9
:1035130006FCEF3400FDAA08AB09121F8F22E50A4F
:103523002401F50AE50B80B0FAA3E012261E22F56A
:1035330082EF3400F583E0FA7B00C322E0F912281E
:103543008922850E82F583E01313543F540FFAC387
:10355300940A2290FCD01235602290FC65E0F8A317
:10356300E0F922AA08AB09E0F91228898A088B0935
:10357300A3150CE50C2212355DECFA7B0022123404
:10358300A3740902265288828983F0743A02265270
:1035930074098A828B8312374F74022290F30C745E
:1035A3000AF0A3E4F0221235B1F0A37409227420C7
:1035B3008A828B83F0A37464F0A374422212374F80
:1035C300EE2274098A828B8312374F90F3221248BA
:1035D300382212374FA808A909A3858208858309D1
:1035E300EE2405F50EEF340022F0A3E41235F322A6
:1035F300F07A577BF31227DE2274098A828B83F0D9
:10360300A3E41235F37508577509F32274FFF0A389
:10361300F0A3F0A31AEA22C082C0838005A3AA8282
:10362300AB838A828B83E0FC601474206C600F741C
:10363300096C600A740A6C6005740D6C70DF0228F3
:10364300D6C082C0838005A3AA82AB838A828B8380
:10365300E0FC601474206C60EE74096C60E9740A19
:103663006C60E4740D6C60DF0228D61248D922E93D
:10367300C39430400CE9C3943A500674D029F980BE
:1036830024E9C39441400AE9C39447500474C980B0
:10369300ECE9C39461400CE9C39467500674A9290B
:1036A300F980027900740F59F92274F1120D64EA5A
:1036B300FEEBFF8C088D09EEF8EFF988828983A36E
:1036C300AE82AF8388828983E0120F1A0004230835
:1036D300372ADF366D113773E33625377901804991
:1036E3008C828D83E0D2E0F0750A10750B00780AA6
:1036F300120EAB12372F120D31850882850983A371
:103703001246E580D78C828D83E0D2E180D98C820A
:103713008D83E04403123743750A0612494A70FB4E
:1037230080BAE48C828D83F0F90226167C007D003A
:10373300EEFAEFFB12666574022274098A828B83A8
:1037430012374F22742D850882850983F0A3858261
:10375300088583092274F8120D64E9FDEAFEEBFF84
:10376300780079007A3E7BF68A828B83E0600BEAED
:10377300241AF582EB1238157061E875F022A4F86B
:10378300AAF075F022E9A42AF9E8243EFAE934F60E
:10379300FB90FCC3E0C0E0EA241AF582EB12380A7E
:1037A300D0E0F0ED8A828B83F0EA241FF582EB12DE
:1037B300380AEEF0EA2420F582EB12380AEFF0EA39
:1037C3002421F582EB12380AECF0123556EA241B59
:1037D300F582EB12380A124C6A8021E8240108E9C9
:1037E3003400F9EA2422FAEB3400FBC3E89410E92D
:1037F3001234D3500302376B7A007B00021FE6E5D5
:10380300082419F582E5093400F58322EE2419F51D
:1038130082EF3400F583E02274F6120D64EAFEEBC6
:10382300FF8982AA827B008E828F83EA7001E46023
:1038330011E4F0A3EA24FF1AEB34FFFBEA7001EB77
:1038430070EF7A00E960597B008C828D83E0F50884
:10385300C394304050E508C3943A5049EB60057572
:103863000A008003750A0474D02508F50874FF1252
:1038730047C0E50A7808120D0F8E828F83E0450852
:10388300F00B8C828D83A3AC82AD83EBC394024097
:10389300B80A8E828F83A3AE82AF83EAC39940A70F
:1038A30079010227B3E508C394414016E508C394A0
:1038B30047500FEB6005750A008003750A0474C94D
:1038C30080A7E508C394614016E508C39467500FC9
:1038D300EB6005750A008003750A0474A9808A7970
:1038E3000080BF74F1120D6474FE120D227AF77B0F
:1038F300F31246F0750800EEF8A90988828983A3BC
:10390300AE82AF8388828983E0F509120F1A010919
:103913000AEE393400EE390DEE3920EE3942EB3B35
:10392300431540443A4145F54046A64247244248A0
:1039330055404966434A7F404B463C4C23414D65C5
:103943003D4E8A424F144350713B51034252E73F6D
:10395300537B3D54063D563B3B574642582A4259FA
:1039630052425A7B42612B40625D3A63D539643AD5
:103973003A65084366AB4267F4426853416966435C
:103983006A7F406BEE3C6C0C416D85426E8A426FE0
:10399300A142700B4271034272EC3F737B3D74068C
:1039A3003D75203C760B3B778042783E427AB539B1
:1039B3008746124722400FEAC3943A5009EEFA129F
:1039C30046EB90F9A5F090F9A5E0601F90FCC3F0D9
:1039D30080191247141249727002A3E07027E48E13
:1039E300828F83F07A5C7BFC1227DE7582F7758306
:1039F300F37A10E412361370FA90F30AE4F0A3F0AA
:103A0300740202261312484060D4EEFAEFFB12361A
:103A13006E12481B740A1248E0E0D2E2F0125F878C
:103A230012486090FCC3E0C0E0851082851183E0FA
:103A3300124815D0E0809812473B120EE430015231
:103A43003A483A4E3AE490F3378084740180F7128F
:103A530047A1E412361370FA809F1247147C007B4F
:103A6300017A01796012497A7002A3E07003023986
:103A7300E112484070030239E112472F8510828515
:103A83001183E02419F50CA3E03400F50D7508103B
:103A93007509007808120EAB7C007D0012373712CF
:103AA3000D31850C82850D83EAF012472F750810BE
:103AB3007509007808120EAB7C007D0012373712AF
:103AC3000D31851082851183E0241D124817124899
:103AD300CE8A088B09850C82850D83E0F9AC08AD8D
:103AE30009851082851183E02407FAA3E03400FBE3
:103AF30012381BE9700F121F2DE4F07A8F7BFA1234
:103B030027DE0239E7023A2612473B120EE4300160
:103B13002F3B193B2B3BE490FCA9F0C2AF12155984
:103B2300759110D2AF0239EE740180EB1247A1E414
:103B330012361370FA0239FC12473B120EE43001BD
:103B43005F3B493B5B3BE490FCB6F0C2AFE090DFE8
:103B53000F6015E0D2E78013740180EB1247A1E4F4
:103B630012361370FA0239FCE0C2E7F080B5124650
:103B7300FEEA120F1A000DBFDC3BDDD83BE7D43B56
:103B8300ECD03BF1CC3BF6C83BF8C43BFAC03BFC62
:103B9300BC3BFEB83BFFB43B00B03B01A33BDF3B68
:103BA30074FF90FCAAF0E090DF2E0239D274FE80FD
:103BB300F174ED80ED74BF80E974AA80E5747F80B1
:103BC300E1749980DD74CB80D9748E80D5744D8077
:103BD300D1745180CD744080C9E480C61247A1E4FA
:103BE30012361370FA0239FC75081075090078084B
:103BF300120EAB7C00ECC0E0C0E0EEFAEFFB123635
:103C030044D0E0FDD0E0FC123737120D31EA90FCCE
:103C1300B4F0EB90FCB5F090DF050239D290FCC60E
:103C23001247CB7A637BFC1212FDE960030239EE83
:103C33007A967BFA1227DE740190F32DF090F32E1F
:103C43000239D2EEFAEFFB1246F01246EBF508EE1C
:103C5300FAAB0912366EE508120F1A010005753C1E
:103C630005069E3C07B63C08BF3C0AD53C0CDE3C2F
:103C7300E73C125D368A0C8B0D8C0E8D0F75090097
:103C830074027808120D0FE5082488F582E50934DB
:103C9300FCF583780C120C190239EE1246EB600C1A
:103CA300C394115007EA90FCB90239D27AA37BFA84
:103CB3000239EB1246EB90FCBA0239D21246EBC33F
:103CC30094115007EA90FCBB0239D27AC27BFA0204
:103CD30039EB1246EB90FCBD0239D21246EB90FC55
:103CE300BE0239D27AE37BFA0239EB1246FE90FC2C
:103CF300651246E512480A120C97E80490FCE6F0B8
:103D0300023C3A12471475080A7509007808120E26
:103D1300AB7C007D0012632E7402120D318A088B76
:103D2300098C0A8D0B90F6377808120C1912472F5D
:103D33008E828F83E070030239EE75080A750900DD
:103D43007808120EAB7C007D0012632E7402120DF4
:103D53003190F63B1248CE90F30C740AF0A3E402C0
:103D630039D21247147508AC7509FC750A06124955
:103D73004A70030239EE80F61249727002A3E070B2
:103D8300030239E1EEFAEFFB12470CAE0AAF0B1256
:103D9300484370030239E1EEFAEFFB124709125F61
:103DA3008712481BEAF0AA0AAB0B124709A80AA913
:103DB3000B88828983A3AE82AF8388828983E012D2
:103DC3000F1A000C48383E4C673E53C73E62FE3D17
:103DD300646F3E666F3E68143E691C3E6C403E6DE8
:103DE300783E6EED3D731C3EDC3F124866EEFAEF03
:103DF300FB125F87124851EA0239D21248667508EE
:103E03000A7509007808120EAB12372F120D318094
:103E1300E312486675081080E81247EF75080A75C3
:103E230009007808120EAB12372F120D31124860B9
:103E3300A3EB0239D21247EF75081080E21247E86C
:103E430075080A7509007808120EAB12372F120D88
:103E5300318A088B098C0A8D0B1248517808120C91
:103E6300190239EE1247E875081080D7EEFAEFFB16
:103E7300125D3680DC1248EB1248B11234D7124976
:103E830066850A82850B8312491E850A82850B8308
:103E9300E04AF00508A385820A85830BE508C394ED
:103EA3000640DB741B650860030239EE121F2DE028
:103EB300A2E240030239EE851082851183121F3579
:103EC300E40239E61248EB1248FF90F9A312491EA7
:103ED30090F9A3E02AF0543F1248FF90F9A4124945
:103EE3001E90F9A4E02AF0C2E712490EE090F9A56A
:103EF30012490EA30EAF8390F9A5C39462E0400468
:103F0300249F800224BFF075080A750900780812FF
:103F13000EAB12372F120D318A088B098C0A8D0BC9
:103F230090F9A67808120C1990F9A67808120C0AD1
:103F3300851082851183E0240C124817EA1248C7C2
:103F4300120C0AE509F508851082851183E0240B1C
:103F53001248171248C5120C0A74107808120B473E
:103F6300124851A3A3A3E508F090F9A3E0F508755F
:103F7300090074127808120B6090F9A4124D197499
:103F83000B780C120B607808790C120BF790F9A5DB
:103F9300124D127406780C120D0FF50E7808790C79
:103FA300120BF790F9A67808120C1990F9A6780865
:103FB300120C0A121F2DA31248BD120C0AE509F5B3
:103FC30008121F2D1248BD120C0A74107808120B28
:103FD30047124851E5080239D2851082851183E0E2
:103FE300F8023EC0C2B90239EE7C007B017A007947
:103FF3002012497A7002A3E070030239E1124714D8
:104003001247C51236AD121F2DE060030239EE02CE
:1040130039E17C007B007A00793012497A12481525
:104023001248AB70E5A380E112473B120EE4300166
:104033004E4039404040E490FCA80239D2740190CC
:10404300FCA8F090F3167432023D5F7A7A7BFA0291
:1040530039EB12473B120EE430014E40634072408D
:10406300E490FCB3F090FC87E090DF060239D27451
:104073000190FCB3F0E490F3350239D290FCFF7861
:1040830008120C0AEEFAEFFB1236448A0C8B0DA8C9
:104093000CA90D88828983A3AE82AF83888289832A
:1040A300E0120F1A000644C74048C2404DBD4064A9
:1040B300C74068C2406DBD40CF4090FD1B80089053
:1040C300FD1F800390FD237808120C0AEEFAEFFB24
:1040D30012601A8A0C8B0D8C0E8D0F7808790C12D6
:1040E3000A2990FCBF7808120C19740190F32C0272
:1040F30039D212473B120EE4300008410141E490EB
:10410300FCD20239D2740180F612473B120EE4301E
:10411300001F411841E490FCAB0239D2740180F6D0
:1041230012473B120EE4300036412F41E490FCB8B5
:104133000239D2740180F690FC65E07002A3E0605E
:104143000C90FC65E024FFF0A3E034FFF0023CF7A1
:104153001247224009EAC3943A400B0239EE742D08
:104163006A60030239EEEEFA125F878A081234D1CD
:10417300407A7C017B017A01791412497A7002A397
:10418300E070030239E1851082851183E02419125E
:1041930034D7741A850A82850B831248B1FEA3E0D3
:1041A3003400FF8E828F83E5081248AD241AF50888
:1041B300A3E01247C090FCC3E0048508828509830D
:1041C300F090FCB2E070030239EE8E828F831247C7
:1041D300D5E4850A82850B83F085088285098312DD
:1041E30048E0E412490E1247DE0239EEC3E49508B3
:1041F300F88808F91213DAE50890FC87F002406C9E
:1042030090FCD07401023D5F90FCD0E02400A3E059
:104213003404F974FC59F990FCD0E4F0A3E90239B1
:10422300D212152F0239EE7582A87583F87A5012CF
:10423300360F70FBE490F9980239D290F32074782A
:10424300023D5F740190F331F0539AFE0239EE128E
:10425300473B120EE430006D425E42740190FCB2A3
:10426300F090DF03E054FC0239D2E490FCB2F0900A
:10427300DF03E0D2E00239D275080B802E75081DEA
:10428300802975081E802475081F90FC65E4F0A33F
:10429300F090FCE61248A112360F70FB800D7508F2
:1042A30020800875081C800375082112497270026A
:1042B300A3E070030239E1741F650860191247C552
:1042C300ECC0E0EDC0E0EEFAEFFB123644D0E0FDC7
:1042D300D0E0FC1236AD121F2DE0D2E21248E0A36B
:1042E300A3A3A3A3A3A31248AB2419124817023F05
:1042F300D71246FEEA90FCA6F090DF08F074019016
:10430300F32D0239D290F3047410F0A37427023909
:10431300D27508577509F3750C88750DFC7E067800
:1043230008120EAB850C82850D837808120C0AAA3D
:1043330008AB09AC0AAD0B124D237402120D317494
:10434300098A828B831248B72404F50CE50D3400E7
:10435300F50D1EEE70C9740AF0A3E4F07A577BF3EF
:104363000239EB7A717BFB124795120EAB75080A83
:104373007509007808120EAB90FCE27808120C0A5B
:10438300124748120D318A088B097C0F7DFB12629C
:10439300D67A0F7BFB124781120EAB75080A75099B
:1043A300007808120EAB90FCDA7808120C0A124758
:1043B30048120D318A088B097C167DFB1262D67A6E
:1043C300167BFB124781120EAB7C0A7D007A647B5D
:1043D3000012475A120D317C237DFB1262D67A57A5
:1043E3007BF3124795120EAB12486D120D318A08FA
:1043F3008B097C2A7DFB1262D67A2A7BFB124760EB
:1044030090DF0812489150031249987808120EABB6
:10441300124756120D318A088B097C327DFB1262DA
:10442300D67A327BFB12477C850882850983123654
:10443300057808120EAB7C0A7D0090FC6512488259
:10444300120D318A088B097C3B7DFB1262D67A3BC5
:104453007BFB124781120EAB7C0A7D0090FCB912E4
:104463004874120D318A088B097C487DFB1262D691
:104473007A487BFB124781120EAB75080A75090057
:104483007808120EAB90F6377808120C0A124748D8
:10449300120D317420124914120EAB7C0A7D009068
:1044A300F63B124882120D31742012373F90FCB252
:1044B300E060067CAB7DFB80047CB37DFB1247B1DF
:1044C30090FCABE060067CBB7DFB80047CCB7DFB7A
:1044D300124787240F1238061235EE7C4E7DFB7A85
:1044E300577BF31262D67A4E7BFB126312EA245790
:1044F300F508EB34F3F50990F30212483450031234
:1045030049987808120EAB124756120D3112373DF7
:104513007C557DFBAA08AB091262D67A557BFB1248
:10452300476AAA08FB90F99F7808120C0A90FD03CA
:10453300780C120C0A780C79081201E9500A742DD0
:104543001214C97808120B1C8A0C8B0D780C120EEE
:10455300AB750C0A750D00780C120EAB124748129E
:104563000D318A088B097C5D7DFB1262D67A5D7BF7
:10457300FB12476090FCA8E060067CDB7DFB8004B7
:104583007CE27DFB12478724061247BC7C647DFBDB
:10459300AA08FB1262D67A647BFB124781120EAB28
:1045A3007C107D0090DF2E124874120D31740A12B4
:1045B300373F7C6C7DFBAA08AB091262D67A6C7B11
:1045C300FB12477CC0E07CAC7DFCAA08AB09121F40
:1045D3008F8A828B83D0E01235EF90FCB3E06006C4
:1045E3007CE97DFB80047CF27DFB7A577BF31262CE
:1045F300D690DF0FE0A2E750067CFB7DFB80047CB6
:10460300037DFC7A5F7BF31262D67C0B7DFC7A66BA
:104613007BF31262D675086D7509F390FCB51235FC
:1046230039500F742D90F36DF075086E7509F31200
:1046330047917808120EAB124756120D3112373DCF
:104643007C137DFC1247B190FCB412353950031230
:1046530049377808120EAB124756120D31740A12FD
:10466300373F7C1B7DFCAA08AB091262D67A577BC5
:10467300F31227DE90FCBAE070030239EE7A2D7B49
:10468300FC0239EB7A3E7BFC1227DEE509700274EB
:104693002090F357F0742890F358F0E509C4540FB1
:1046A300FAC3940A50047430800274372AFAEA90E9
:1046B300F359F0740F5509FA940A500474308002C8
:1046C30074372AFAEA90F35AF0742990F35BF07482
:1046D3000A90F35CF0E490F35D02435E85108285FB
:1046E3001183EAF0A3EBF022125F87EA221246F469
:1046F300221236448A088B09AE0822EEFAEFFB1227
:104703003644125F872212361A1236448A0A8B0BFA
:104713002212471822EEFAEFFB1246F4AF092212D7
:1047230047188E828F83E0FAC39430221248D58AC9
:10473300088B09AE08AF0922EEFAEFFB1236448A62
:10474300828B83E022AA08AB09AC0AAD0B121E11BF
:104753007404227C0A7D00121D6B740222124764CA
:104763002212476AF509221263128A0A8B0BE508A3
:10477300250AF508E509350B22124764E42212479E
:1047830064780822AA08AB091262D6E50822124906
:104793003E221227DE7508577509F37808227A7AC4
:1047A3007BFA1227DE7582F77583F37A1022AA0843
:1047B300AB091262D6E5082407F508E5093400F5CC
:1047C30009228510828511831247CF22E0FCA3E0E2
:1047D300FD22E090DF06F01249A722E0F990FC8762
:1047E300F01213DA221247F6440CF0221247F6D2E3
:1047F300E3F0221247FBE022851082851183E0F863
:10480300A3E0F58388822212355D90FCB9E0FA7B40
:104813000022241A12482822851082851183E0245D
:104823001912482822F8A3E012482F223400021953
:104833009512483822E0FAA3E012489A2212471848
:104843008510828511831247CF1236ADE9221248B3
:1048530055221247FBA3A3A3A3A3A3A32212485544
:10486300EAF0221247F6D2E2F0227C0A7D0090DFC2
:1048730006E0FA7B0002475A7C0A7D0090F99DE02E
:10488300FAA3E0FB02475AF582EF3400F583E0FA1E
:104893003395E012489A22FBC39400022148F07535
:1048A30082A87583F87A5022740112498B22124927
:1048B3008B24072212374FE50C22A3A3A3A3A3A3A0
:1048C300A3A3E508F090F9A67808221246E512485A
:1048D300D522EEFAEFFB12361A123644221248E4BE
:1048E3002212498F12480222851082851183E02407
:1048F3001F124828E41248E4E044502212490E12E1
:104903004930A30EAF8375F00AA422F0022678740F
:10491300098A828B8312374F78082212492222F0A8
:1049230012492CFAA30EAF83228E828F83E0F912F1
:104933003672E92212374712493E22E49AF8E49488
:1049430000F9E8FAE9FB22124966850882850983A2
:10495300124922850882850983E04A12374F150AD6
:10496300E50A2212492CA3AE82AF83C454F0227C01
:10497300017B017A017910123758851082851183E2
:10498300EAF0A3EB12498B2212498F22F0851082A1
:10499300851183E02212374712499F22C3E49AF814
:1049A300E49B809DC082C08390FCCC12355990F368
:1049B300081226861249BD0228D6748090F2FAF0B6
:1049C300C2AF75E10475E101D2AF22C008C009533B
:1049D300FDC7E5FD438F38E58F43F238E5F27A03EF
:1049E300750801750900EA7808120D0FE50845F20C
:1049F300F5F20AEAC3940640E7D009D00822C08240
:104A0300C08390F314E4F0A3F090F31674321235DC
:104A1300A475B6B5C28D0228D674F1120D6490F355
:104A230014E064FF7002A3E0700690F314024C6379
:104A3300E5BBF990F9AAE412268785BA0890F9AA8A
:104A4300E508F0A3E0F0C28DF5093395E0F50AF52A
:104A53000B90F314E0F50CA3E0F50D7402780C123F
:104A63000D0FE50C2449F582E50D34F3F583780841
:104A7300120BA590F314124C7290F314C3E0940339
:104A8300A3E09400501690F314E024D7F8A3E03485
:104A9300FCF988828983E0F5B6024C6790F35512DE
:104AA3004C7290F355E064807002A3E06003024C03
:104AB3006790F34D7808120C0A90F3497808120BAB
:104AC300D090F3517808120BD090F3517808120C60
:104AD3000A780812025290FD27780C120C0A780803
:104AE300790C12048790F349780C120C0A780C1293
:104AF30002527808790C12084390F9AC7808120C2A
:104B03001990FC9C7808120C0A90F9AC780C120CE2
:104B13000A7808790C12060790FC98780C120C0A94
:104B23007808790C12048790F9B07808120C199060
:104B3300F9B07808120C0A90FD2B780C120C0A7845
:104B430008790C12048778081202D590F302E5085D
:104B5300F0A3E509F090FC887808120C0A90F9B0EC
:104B6300780C120C0A7808790C12048790FC8C7864
:104B73000C120C0A7808790C12062C90F9B0780CF8
:104B8300120C0A7808790C12048790FC90780C12A6
:104B93000C0A7808790C12062C90F9B0780C120CD8
:104BA3000A7808790C12048790FC94780C120C0A8A
:104BB3007808790C12062C90F9B47808120C199025
:104BC300F9B47808120C0A78081202D590F99F7884
:104BD30008120BB890F3247808120C1990F3247878
:104BE30008120C0A90FD03780C120C0A780C790851
:104BF3001201E950057808120B1C85080C85090D74
:104C0300850A0E850B0F90FD2F7808120C0A780881
:104C1300790C1201E9401690F3247808120C0AAAC1
:104C230008AB09AC0AAD0B124C801249A790FD03E7
:104C33007808120C0A90F3497808120C1990FD03B6
:104C43007808120C0A90F34D7808120C1990FD03A2
:104C53007808120C0A90F3517808120C1990F35546
:104C6300E4F0A3F0022616E8F0A3E9F090FCD012DA
:104C73004C7622E02401F0A3E03400F02274F11218
:104C83000D648A088B098C0A8D0BC2AF90DF0BE091
:104C930090F9B81235A4A3F0A3F090DF0A124D19CE
:104CA3007408780C120B6090F9B8780C120BA5906D
:104CB300DF09124D127410780C120B6090F9B8785A
:104CC3000C120BA590F9B87808120BA590F9B878D7
:104CD3000C120C0AE50C90DF0BF090F9B8780C126B
:104CE3000C0A7408780C120CF0E50C90DF0AF090B3
:104CF300F9B8780C120C0A7410780C120B2DE50C11
:104D030090DF09F090F99F7808120BA5021671E065
:104D1300F50C750D0022124D12750E00750F002251
:104D230074F1120D648A088B098C0A8D0B740F12AF
:104D33000D58E0FEA3E0FF90FD03780C120C0A78F7
:104D430008790C12043B500A742D124E4BEDB2E756
:104D5300F50B8E0C8F0D780C120EAB750C0A750DBE
:104D630000780C120EAB8A0C8B0D8C0E850B0F7812
:104D73000C1202CAAA0CAB0DAC0EAD0F121E1174AD
:104D830004120D318A0C8B0DAE0CAF0DAA08AB09C2
:104D9300AC0AAD0B1261038A0C8B0D8C0E8D0F7850
:104DA30008790C120607742E124E4B90FD0B780CEB
:104DB300120C0A7808790C12043B501274308E825C
:104DC3008F83F0A30EAF8380767430124E4B90FD29
:104DD3000F780C120C0A7808790C12048790FD13D3
:104DE300780C120C0A7808790C12043B501190FDD0
:104DF3000B780C120C0A7808790C1203EC40CA8E5B
:104E03000C8F0D780C120EAB750C0A750D00780C17
:104E1300120EAB90FD17780C120C0A7808790C125D
:104E2300048778081202CAAA08AB09AC0AAD0B12B0
:104E33001E117404120D318A088B09AE08AF09EEF6
:104E4300FAEFFB7F08020DC38E828F83F0A3AE823D
:104E5300AF832274F1120D648A088B098C0A8D0BBF
:104E6300740F120D58780C120C0A74FE90DF2EF09A
:104E7300780C12102F0000000008000000491C23CA
:104E830000E84ED1A62400DE4E11C62400F24E21C6
:104E9300ED2400CE4E413B2500C44E61892500C060
:104EA3004E81D72500B24E215E2700024F134F7467
:104EB3006790DF09F0745590DF0AF0804F746680C5
:104EC30040746590DF09F074AA80EC746490DF0984
:104ED300F074D590DF0AF074558031746490DF0963
:104EE300F0741580EE745F90DF09F074E08018743D
:104EF3006490DF09F0746A90DF0AF074AA800D747D
:104F03006B90DF09F0748090DF0AF0E490DF0BF020
:104F1300742390DF0FF0745990DF10F0EC650B6091
:104F2300030250107808120F7900000200E12E3AB4
:104F33004F3175AA4F1050740890DF07F0E490DFEB
:104F430008F0746990DF0CF0740790DF0DF07402C1
:104F530090DF0EF0744590DF11F0745690DF1AF075
:104F6300741090DF1BF0741490DF14F0741690DF4C
:104F730015F0746C90DF16F0744390DF17F07440F3
:104F830090DF18F0749190DF19F074A990DF1CF092
:104F9300740A90DF1DF0741190DF1FF0E490DF1EA0
:104FA30012505E744A8062740A90DF07F0746A904C
:104FB300DF0CF0744890DF0DF0741390DF0EF07483
:104FC3004590DF11F074B690DF1AF0741090DF1B78
:104FD300F0741D90DF15F0741C90DF16F074C79009
:104FE300DF17F0E490DF18F074B290DF19F074EA81
:104FF30090DF1CF0740A90DF1DF0E490DF1EF07464
:105003001190DF1F12505E7447F0A3E4F0E490DFC9
:1050130006F090DF08F0743290DF13F0741490DF21
:1050230014F0745C90DF31F0746F90DF30F0745BD8
:1050330090DF2FF0748690DF03F0744590DF04F067
:10504300740190DF05F074FF90DF2EF074F090DFB1
:1050530001F090DF00F07F08020DC3F0748190DF50
:1050630023F0743590DF24F0740990DF25F090F974
:10507300BC2274F7120D648982A8827900C3E89474
:1050830080E49400C365D0334001197A027B001297
:105093000C8F8808890990F9BCE0F8A3E0F9E508CA
:1050A300C398FAE50999FB7F02020DC3C082C0834E
:1050B300A841E85404600F75410075420012528AFA
:1050C300740190DE01F0A841E8541060097841743E
:1050D300EF56F61252A1A841E8A2E0500F784174AE
:1050E300FE56F6125C4D784174FD56F6D083D0829D
:1050F30022E53AFA74226A601974206A7011E5276E
:1051030070107534FB7535F27536007527022275FC
:105113002704227421653A7013E52770127534FB56
:105123007535F27536007537077538007527011226
:1051330026B922752704227527041226B92275275A
:1051430004227527042275270422752704222222AC
:10515300C2AFD2AF2274F8120D648A087C007D00BE
:105163008015852182852283E0FE18E62EFE08E65F
:105173003400FF8E218F2274B3652170047401659E
:105183002260307821E62401F58208E63400F583B5
:10519300E0697017AC21AD228C828D83E0FAEC2A92
:1051A300FAED3400FB8A218B228008E0650870B297
:1051B300EA60AFECFAEDFB7F01020DC375212075A8
:1051C30022017A0079011251582274F7120D64E911
:1051D300FFEAFE75212075220180011E7A00790203
:1051E300125158EA7001EB6015EF600F8A828B83CE
:1051F300A3A3A3A3A3E06F70E38003EE70DD7F029C
:10520300020DC374F7120D64EAFEEBFF7A0012512C
:10521300CD7A027904125158EA7001EB60158A8243
:105223008B83A3A3E06E70E98A828B83A3A3A3E09D
:105233006F70DE80C974F7120D64E9FE7521207565
:1052430022017A007903125158EE1E70F580AFC027
:1052530082C0837A0079011251CD8A828B83A3A302
:10526300A3A3A3A3A3E0A2E65004D2F08002C2F05A
:10527300A2F0E492E0F533753200D29043FE01438D
:10528300BE80D083D08222C082C083752302E49083
:10529300DE00F0F524F52779031254E980E474F570
:1052A300120D6490DE0EE0FFE4F090DE11E0FEA24A
:1052B300E450197480F075270790F9BEE07002A3DB
:1052C300E060061254DD120D62752700EEA2E25073
:1052D30009E490DE11F0F527807DE527FA74026A70
:1052E300706390DE16E0F50A7834120EA7A90A7AE5
:1052F300207BDE12550F7403120D31850A081254F8
:10530300C4A934AA35AB36E9250A1254D1E537705E
:1053130002E53860047A4080027A48EA90DE11F0B0
:10532300E5377002E538701390F9BEE07002A3E030
:1053330060061254DD120D62752700EF90DE0EF049
:105343007F04020DC374066A70061254DD120D62E7
:10535300E527600302545BEEA2E050DF7508397560
:105363000900750A017808120EA779087A207BDEF6
:1053730012550F7403120D3190F9BEE4F0A3F074CB
:10538300E05539120F1A0006009F53202E54401087
:105393005480DF53A03D54C01F54DA53E53A120F33
:1053A3001A000601C65303C05305BA5307D5530960
:1053B300CB530BD053DA531257E302544A1257D745
:1053C30002544A1257CB807F125B1C807A125BE82F
:1053D300807512514180707527048071E53A120F70
:1053E3001A000500F75306FC530801540A06540C2F
:1053F3000B54DA5312563F804E1258268049125AE4
:10540300EB8044125BBB803F125145803A90F9BE5A
:105413007436F0A37451F0125136802B90F9BE7498
:105423003AF0A37451F012513A801C90F9BE74F40F
:10543300F0A37450F01250F4800D90F9BE7416F07E
:10544300A37451F01251167404652770047A6080B6
:10545300027A40EA90DE11F0E527FA74016A70508F
:105463007E02A837A938C3E89420E994005007E8DE
:10547300F50A7E0A8003750A207834120EA7A90A5A
:105483007A207BDE1255367403120D31850A08A982
:1054930034AA35AB36E925081254D11254C4EE9020
:1054A300DE11F0E50AC39420400302533E02532B5E
:1054B30074056A600302533E1254DD120D620253F7
:1054C3003E7837C3E69508F608E69400F622F9EA33
:1054D3003400FA89348A358B362290F9BEE0F8A37A
:1054E300E0F583888222E9FA8A2878297B0212551B
:1054F3000270FB8A2D782E7B0212550270FB22EA82
:10550300F6740128F9EAF708081BEB2274F6120D6A
:1055130064EAFCEBFDE9FE740A120D58125565604E
:105523000D8C828D83E012023C12555A70F37F0377
:10553300020DC374F6120D64EAFCEBFDE9FE740A76
:10554300120D58125565600D1202228C828D83F064
:1055530012555A70F380D7E9240109EA3400FA1E80
:10556300EE22E0F508A3E0F509A3E0A908AA09FBE8
:10557300EE2274F7120D64439A02438C10754100B6
:10558300754200754300EA90DE0BF08A088B0974BC
:10559300047808120D00E50890DE07F08A088B09ED
:1055A30074097808120D00E508543E90DE09F07F77
:1055B30002020DC3C0E074F1120DFEE5BEA2E65077
:1055C300FA90DE06E0784146F690DE02E0F50875D3
:1055D300090074047808120D0F7841E50846F608AF
:1055E300E50946F690DE04E0F508750900740978CC
:1055F30008120D0F784108E50946F6E543600AA84D
:1056030041E854066003754300125153E589F4F5EC
:1056130089C2E87F02020E56C0E074F2120DFEE565
:10562300BEA2E650FAE589FEA2E75005C2BD125CB0
:10563300C1EEF4F589C2C57F01020E56C082C08354
:10564300E53B7002E53C7011A83DA93EE9700A7480
:1056530002653F7002E54060067527040256FFE5C8
:1056630039120EE480025C5671569256A056E870C9
:10567300E8E533600478018002780090F1FFE8F0F8
:10568300A3E4F0E532604F90F1FFE04402804374FD
:1056930004652370C490F1FFE4F0A38038E8547FDD
:1056A300FA7404652370B2EAC3940650AC74232AD7
:1056B300FAE85480600D74042AF8E66403700D78E8
:1056C30001800B74092AF8E6640360F3780090F113
:1056D300FFE8F0A3E4F07404652760207CFF7DF10C
:1056E300AA3D741F5539F91251517534FF7535F1BF
:1056F300753600753702753800752701D083D0825F
:1057030022C082C083E53F7002E540700E740465D9
:1057130023600EE53D7002E53E60067527040257DF
:10572300C6741F5539120EE400021E5735573C57F5
:105733005357AA3BEA6401600579000257C88932CE
:10574300E960047905800279067A00125152807368
:10575300AA3DEA547FFAAC3BEC70DEEAC3940650F0
:10576300BAEA90DE0EF0AC3DEC54806028E96004A8
:105773007B1080027B40EB90DE11F0E960047B0339
:1057830080027B0074272AF8EBF6E960047908802D
:105793002A79078026E960047B2080027B80EB90D6
:1057A300DE14F0E960047B0380027B00742C2AF88A
:1057B300EBF6E96004790A80027909125152E49008
:1057C300DE0EF079010256FF7900125704E97003E7
:1057D300125149227901125704E9700312514D22E3
:1057E300C082C083E53D7002E53E7014E53F700260
:1057F300E540700CA83BA93CE97005E854806005BE
:10580300752704801BE890DE00F0600B74026523AB
:10581300700E7523038009740365237003752302D7
:105823000256FF74F5120D64AA3BAB3CEB120EE477
:10583300010299583D58585892581251BF8A348BD7
:1058430035753600A934AA357B00120222F8883751
:105853008B3802595779001251CD8A348B357536FE
:1058630000A934AA357B00E924020909EA3400FAC5
:10587300120222FC1919AA35E92403090909EA3499
:1058830000FA120222F9ECF888378938025957EAEC
:10589300F912523880A77534007535007536007ECD
:1058A3000074B3C394B3F50874019401F50974FF4C
:1058B3005509F974007001E97003025962740378A1
:1058C30008120D00AC08AD09853B0A8B0B8E0875D9
:1058D300090074037808120D0FA808A909E824B376
:1058E300F582E93401F583E0AA0B6A705CE824B41D
:1058F300F582E93401F583E0650A704D853D08853D
:105903003E09E824B5F582E93401F583E0AA096A82
:105913007037E824B6F582E93401F583E065087051
:1059230028E824B7F582E93401F583E0F508A3E01C
:10593300850834F535753600E824B9F582E9340174
:10594300F583E0F537A3E0F5380EC3EE9CE49D50F4
:10595300030258CBAC34AD35AE36EC4D4E70057505
:105963002704801A740465276014A83FA940C3E87C
:105973009537E995385004883789387527017F04AE
:10598300020DC374F1120D6474FE120D2285108290
:10599300851183EAF0A3EBF0125AD76030750EB38A
:1059A300750F01800CE50E2404F50EE50F3400F5A8
:1059B3000F850E82850F83E493F8740193F98510A4
:1059C30082851183E0687003A3E06970D87E00804C
:1059D30045749090DE14F07410125ACC70027F401C
:1059E300750801750900E50A7808120D0F850E8206
:1059F300850F83A3A3A39355086004EFD2E0FFEFC1
:105A030090DE15F0EA90DE13F0742C250AF8760088
:105A1300E490DE0EF00E125AD7FAEEC39A40030258
:105A23005AC27A0079051251588A088B09AC08AD1D
:105A330009EC7001ED60DEEC2402F50CED3400F5A9
:105A43000D850C82F583E0540FF50A90DE0EF07F8E
:105A5300008C828D83A3A3A3A3E02407F508A3E00E
:105A63003400F50974037808120D00AA08EC240326
:105A7300F8ED3400F9850C82850D83E0A2E740033D
:105A83000259D4744890DE11F07408125ACC700293
:105A93007F40750801750900E50A7808120D0F8526
:105AA3000E82850F83A3A39355086004EFD2E0FF12
:105AB300EF90DE12F0EA90DE10F07427025A0E74B3
:105AC30002120D317F08020DC3F088828983E054EE
:105AD30003640122851082851183E0F8A3E0F58336
:105AE3008882A3A3A3A3E022E53B7002E53C7012E6
:105AF300E53D7002E53E700A7401653F7002E540C2
:105B030060047527042275342475350075360175D4
:105B130037017538007527012274F5120D6474027C
:105B230065236015E53D7002E53E700DE53F7002AB
